{
  "_format": "hh-sol-artifact-1",
  "contractName": "Platform",
  "sourceName": "contracts/Platform.sol",
  "abi": [
    {
      "inputs": [],
      "stateMutability": "nonpayable",
      "type": "constructor"
    },
    {
      "anonymous": false,
      "inputs": [
        {
          "indexed": false,
          "internalType": "string",
          "name": "message",
          "type": "string"
        }
      ],
      "name": "complete",
      "type": "event"
    },
    {
      "anonymous": false,
      "inputs": [
        {
          "indexed": false,
          "internalType": "string",
          "name": "message",
          "type": "string"
        }
      ],
      "name": "create",
      "type": "event"
    },
    {
      "inputs": [
        {
          "internalType": "address[]",
          "name": "_participants",
          "type": "address[]"
        },
        {
          "internalType": "address",
          "name": "newSurveyAddress",
          "type": "address"
        }
      ],
      "name": "addExistingSurvey",
      "outputs": [
        {
          "internalType": "address",
          "name": "",
          "type": "address"
        }
      ],
      "stateMutability": "nonpayable",
      "type": "function"
    },
    {
      "inputs": [],
      "name": "getRespondentViewAddress",
      "outputs": [
        {
          "internalType": "address",
          "name": "",
          "type": "address"
        }
      ],
      "stateMutability": "view",
      "type": "function"
    },
    {
      "inputs": [],
      "name": "getSurveyorsResultAddress",
      "outputs": [
        {
          "internalType": "address",
          "name": "",
          "type": "address"
        }
      ],
      "stateMutability": "view",
      "type": "function"
    },
    {
      "inputs": [],
      "name": "signInAsParticipant",
      "outputs": [],
      "stateMutability": "nonpayable",
      "type": "function"
    },
    {
      "inputs": [],
      "name": "signInAsSurveyor",
      "outputs": [],
      "stateMutability": "nonpayable",
      "type": "function"
    }
  ],
  "bytecode": "0x608060405234801561001057600080fd5b5060405161001d9061007f565b604051809103906000f080158015610039573d6000803e3d6000fd5b50600360006101000a81548173ffffffffffffffffffffffffffffffffffffffff021916908373ffffffffffffffffffffffffffffffffffffffff16021790555061008d565b613a708062003eba83390190565b613e1d806200009d6000396000f3fe60806040523480156200001157600080fd5b50600436106200005e5760003560e01c806301a7733e14620000635780630d89c058146200006f5780630ed3bde51462000091578063aacd9b0814620000b3578063f1885dc714620000e9575b600080fd5b6200006d620000f5565b005b62000079620003e1565b60405162000088919062000f8f565b60405180910390f35b6200009b62000448565b604051620000aa919062000f8f565b60405180910390f35b620000d16004803603810190620000cb919062000e0f565b620004ae565b604051620000e0919062000f8f565b60405180910390f35b620000f362000706565b005b600073ffffffffffffffffffffffffffffffffffffffff166000803373ffffffffffffffffffffffffffffffffffffffff1673ffffffffffffffffffffffffffffffffffffffff16815260200190815260200160002060009054906101000a900473ffffffffffffffffffffffffffffffffffffffff1673ffffffffffffffffffffffffffffffffffffffff1614156200019557620001943362000946565b5b6000600260003373ffffffffffffffffffffffffffffffffffffffff1673ffffffffffffffffffffffffffffffffffffffff1681526020019081526020016000208054806020026020016040519081016040528092919081815260200182805480156200025857602002820191906000526020600020905b8160009054906101000a900473ffffffffffffffffffffffffffffffffffffffff1673ffffffffffffffffffffffffffffffffffffffff16815260200190600101908083116200020d575b5050505050905060005b815181101562000390576000803373ffffffffffffffffffffffffffffffffffffffff1673ffffffffffffffffffffffffffffffffffffffff16815260200190815260200160002060009054906101000a900473ffffffffffffffffffffffffffffffffffffffff1673ffffffffffffffffffffffffffffffffffffffff1663c53fb61383838151811062000320577f4e487b7100000000000000000000000000000000000000000000000000000000600052603260045260246000fd5b60200260200101516040518263ffffffff1660e01b815260040162000346919062000fac565b600060405180830381600087803b1580156200036157600080fd5b505af115801562000376573d6000803e3d6000fd5b505050508080620003879062001211565b91505062000262565b50600260003373ffffffffffffffffffffffffffffffffffffffff1673ffffffffffffffffffffffffffffffffffffffff1681526020019081526020016000206000620003de919062000cf8565b50565b6000600160003373ffffffffffffffffffffffffffffffffffffffff1673ffffffffffffffffffffffffffffffffffffffff16815260200190815260200160002060009054906101000a900473ffffffffffffffffffffffffffffffffffffffff16905090565b60008060003373ffffffffffffffffffffffffffffffffffffffff1673ffffffffffffffffffffffffffffffffffffffff16815260200190815260200160002060009054906101000a900473ffffffffffffffffffffffffffffffffffffffff16905090565b6000620004ba62000706565b6000600160003373ffffffffffffffffffffffffffffffffffffffff1673ffffffffffffffffffffffffffffffffffffffff16815260200190815260200160002060009054906101000a900473ffffffffffffffffffffffffffffffffffffffff1690506200055e6040518060400160405280601d81526020017f416464696e672073757276657920746f20726573756c7473207669657700000081525062000a72565b8073ffffffffffffffffffffffffffffffffffffffff1663c53fb613846040518263ffffffff1660e01b815260040162000599919062000fac565b600060405180830381600087803b158015620005b457600080fd5b505af1158015620005c9573d6000803e3d6000fd5b5050505060005b8451811015620006d757600085828151811062000616577f4e487b7100000000000000000000000000000000000000000000000000000000600052603260045260246000fd5b60200260200101519050600260008273ffffffffffffffffffffffffffffffffffffffff1673ffffffffffffffffffffffffffffffffffffffff168152602001908152602001600020859080600181540180825580915050600190039060005260206000200160009091909190916101000a81548173ffffffffffffffffffffffffffffffffffffffff021916908373ffffffffffffffffffffffffffffffffffffffff160217905550508080620006ce9062001211565b915050620005d0565b50620006fc60405180606001604052806027815260200162003dc16027913962000a72565b8291505092915050565b600073ffffffffffffffffffffffffffffffffffffffff16600160003373ffffffffffffffffffffffffffffffffffffffff1673ffffffffffffffffffffffffffffffffffffffff16815260200190815260200160002060009054906101000a900473ffffffffffffffffffffffffffffffffffffffff1673ffffffffffffffffffffffffffffffffffffffff1614156200090357620007db6040518060400160405280601f81526020017f456c6973652074657374696e67206c6f6767696e67736a64666c617364666c0081525062000a72565b6200081b6040518060400160405280601781526020017f456c6973652074657374696e67206c6f6767696e67203200000000000000000081525062000a72565b620008263362000b0f565b620008c66040518060400160405280601381526020017f526573756c742076696577206164647265737300000000000000000000000000815250600160003373ffffffffffffffffffffffffffffffffffffffff1673ffffffffffffffffffffffffffffffffffffffff16815260200190815260200160002060009054906101000a900473ffffffffffffffffffffffffffffffffffffffff1662000c2f565b7fad932b5c8d4fd02df8c4cbabc65398e342261c9120eaf836ca8c0d092f0f1313604051620008f59062001065565b60405180910390a162000944565b620009436040518060400160405280601b81526020017f4e6f74206372656174696e67206475706c69636174652076696577000000000081525062000a72565b5b565b7fb6a46b3b2bfbfab5defcd08cea24d0b242b1cd37478f8c0246f68f98125e7f7e604051620009759062001021565b60405180910390a16000816040516200098e9062000d1b565b6200099a919062000f8f565b604051809103906000f080158015620009b7573d6000803e3d6000fd5b509050806000808473ffffffffffffffffffffffffffffffffffffffff1673ffffffffffffffffffffffffffffffffffffffff16815260200190815260200160002060006101000a81548173ffffffffffffffffffffffffffffffffffffffff021916908373ffffffffffffffffffffffffffffffffffffffff1602179055507fad932b5c8d4fd02df8c4cbabc65398e342261c9120eaf836ca8c0d092f0f131360405162000a669062001087565b60405180910390a15050565b62000b0c8160405160240162000a89919062000fc9565b6040516020818303038152906040527f41304fac000000000000000000000000000000000000000000000000000000007bffffffffffffffffffffffffffffffffffffffffffffffffffffffff19166020820180517bffffffffffffffffffffffffffffffffffffffffffffffffffffffff838183161783525050505062000ccf565b50565b7fb6a46b3b2bfbfab5defcd08cea24d0b242b1cd37478f8c0246f68f98125e7f7e60405162000b3e90620010a9565b60405180910390a1600060405162000b569062000d29565b604051809103906000f08015801562000b73573d6000803e3d6000fd5b50905080600160008473ffffffffffffffffffffffffffffffffffffffff1673ffffffffffffffffffffffffffffffffffffffff16815260200190815260200160002060006101000a81548173ffffffffffffffffffffffffffffffffffffffff021916908373ffffffffffffffffffffffffffffffffffffffff1602179055507fad932b5c8d4fd02df8c4cbabc65398e342261c9120eaf836ca8c0d092f0f131360405162000c239062001043565b60405180910390a15050565b62000ccb828260405160240162000c4892919062000fed565b6040516020818303038152906040527f319af333000000000000000000000000000000000000000000000000000000007bffffffffffffffffffffffffffffffffffffffffffffffffffffffff19166020820180517bffffffffffffffffffffffffffffffffffffffffffffffffffffffff838183161783525050505062000ccf565b5050565b60008151905060006a636f6e736f6c652e6c6f679050602083016000808483855afa5050505050565b508054600082559060005260206000209081019062000d18919062000d37565b50565b611607806200140283390190565b6113b88062002a0983390190565b5b8082111562000d5257600081600090555060010162000d38565b5090565b600062000d6d62000d6784620010f4565b620010cb565b9050808382526020820190508285602086028201111562000d8d57600080fd5b60005b8581101562000dc1578162000da6888262000dcb565b84526020840193506020830192505060018101905062000d90565b5050509392505050565b60008135905062000ddc81620013e7565b92915050565b600082601f83011262000df457600080fd5b813562000e0684826020860162000d56565b91505092915050565b6000806040838503121562000e2357600080fd5b600083013567ffffffffffffffff81111562000e3e57600080fd5b62000e4c8582860162000de2565b925050602062000e5f8582860162000dcb565b9150509250929050565b62000e74816200113f565b82525050565b62000e85816200117d565b82525050565b600062000e988262001123565b62000ea481856200112e565b935062000eb6818560208601620011a5565b62000ec181620012bd565b840191505092915050565b600062000edb601b836200112e565b915062000ee882620012ce565b602082019050919050565b600062000f026026836200112e565b915062000f0f82620012f7565b604082019050919050565b600062000f29601f836200112e565b915062000f368262001346565b602082019050919050565b600062000f506022836200112e565b915062000f5d826200136f565b604082019050919050565b600062000f77601e836200112e565b915062000f8482620013be565b602082019050919050565b600060208201905062000fa6600083018462000e69565b92915050565b600060208201905062000fc3600083018462000e7a565b92915050565b6000602082019050818103600083015262000fe5818462000e8b565b905092915050565b6000604082019050818103600083015262001009818562000e8b565b90506200101a602083018462000e69565b9392505050565b600060208201905081810360008301526200103c8162000ecc565b9050919050565b600060208201905081810360008301526200105e8162000ef3565b9050919050565b60006020820190508181036000830152620010808162000f1a565b9050919050565b60006020820190508181036000830152620010a28162000f41565b9050919050565b60006020820190508181036000830152620010c48162000f68565b9050919050565b6000620010d7620010ea565b9050620010e58282620011db565b919050565b6000604051905090565b600067ffffffffffffffff8211156200111257620011116200128e565b5b602082029050602081019050919050565b600081519050919050565b600082825260208201905092915050565b60006200114c8262001153565b9050919050565b600073ffffffffffffffffffffffffffffffffffffffff82169050919050565b6000819050919050565b60006200118a8262001191565b9050919050565b60006200119e8262001153565b9050919050565b60005b83811015620011c5578082015181840152602081019050620011a8565b83811115620011d5576000848401525b50505050565b620011e682620012bd565b810181811067ffffffffffffffff821117156200120857620012076200128e565b5b80604052505050565b60006200121e8262001173565b91507fffffffffffffffffffffffffffffffffffffffffffffffffffffffffffffffff8214156200125457620012536200125f565b5b600182019050919050565b7f4e487b7100000000000000000000000000000000000000000000000000000000600052601160045260246000fd5b7f4e487b7100000000000000000000000000000000000000000000000000000000600052604160045260246000fd5b6000601f19601f8301169050919050565b7f4372656174696e6720726573706f6e64656e7420766965772e2e2e0000000000600082015250565b7f436f6d706c65746564206372656174696e672073757276657920726573756c7460008201527f2076696577730000000000000000000000000000000000000000000000000000602082015250565b7f436f6d706c6574656420726573756c742076696577206372656174696f6e2e00600082015250565b7f436f6d706c65746564206372656174696e6720726573706f6e64656e7420766960008201527f6577000000000000000000000000000000000000000000000000000000000000602082015250565b7f4372656174696e672073757276657920726573756c7420766965772e2e2e0000600082015250565b620013f2816200113f565b8114620013fe57600080fd5b5056fe60806040523480156200001157600080fd5b506040516200160738038062001607833981810160405281019062000037919062000151565b336000806101000a81548173ffffffffffffffffffffffffffffffffffffffff021916908373ffffffffffffffffffffffffffffffffffffffff16021790555060008054906101000a900473ffffffffffffffffffffffffffffffffffffffff1673ffffffffffffffffffffffffffffffffffffffff16600073ffffffffffffffffffffffffffffffffffffffff167f8be0079c531659141344cd1fd0a4f28419497f9722a3daafe3b4186f6b6457e060405160405180910390a380600460006101000a81548173ffffffffffffffffffffffffffffffffffffffff021916908373ffffffffffffffffffffffffffffffffffffffff16021790555050620001cb565b6000815190506200014b81620001b1565b92915050565b6000602082840312156200016457600080fd5b600062000174848285016200013a565b91505092915050565b60006200018a8262000191565b9050919050565b600073ffffffffffffffffffffffffffffffffffffffff82169050919050565b620001bc816200017d565b8114620001c857600080fd5b50565b61142c80620001db6000396000f3fe608060405234801561001057600080fd5b50600436106100935760003560e01c80638f32d59b116100665780638f32d59b146100e8578063c46191c514610106578063c53fb61314610124578063e7dd7ef214610140578063f2fde38b1461015c57610093565b80633a6e60c8146100985780635af1f831146100b6578063715018a6146100c05780638da5cb5b146100ca575b600080fd5b6100a0610178565b6040516100ad9190610e88565b60405180910390f35b6100be6102e3565b005b6100c8610375565b005b6100d261047a565b6040516100df9190610e4b565b60405180910390f35b6100f06104a3565b6040516100fd9190610eaa565b60405180910390f35b61010e6104fa565b60405161011b9190610e66565b60405180910390f35b61013e60048036038101906101399190610baa565b61061b565b005b61015a60048036038101906101559190610b6e565b6107e7565b005b61017660048036038101906101719190610b45565b61087b565b005b6060600460009054906101000a900473ffffffffffffffffffffffffffffffffffffffff1673ffffffffffffffffffffffffffffffffffffffff163373ffffffffffffffffffffffffffffffffffffffff161461020a576040517f08c379a000000000000000000000000000000000000000000000000000000000815260040161020190610f65565b60405180910390fd5b60018001805480602002602001604051908101604052809291908181526020016000905b828210156102da57838290600052602060002001805461024d9061112b565b80601f01602080910402602001604051908101604052809291908181526020018280546102799061112b565b80156102c65780601f1061029b576101008083540402835291602001916102c6565b820191906000526020600020905b8154815290600101906020018083116102a957829003601f168201915b50505050508152602001906001019061022e565b50505050905090565b600460009054906101000a900473ffffffffffffffffffffffffffffffffffffffff1673ffffffffffffffffffffffffffffffffffffffff163373ffffffffffffffffffffffffffffffffffffffff1614610373576040517f08c379a000000000000000000000000000000000000000000000000000000000815260040161036a90610ee5565b60405180910390fd5b565b61037d6104a3565b6103bc576040517f08c379a00000000000000000000000000000000000000000000000000000000081526004016103b390610f25565b60405180910390fd5b600073ffffffffffffffffffffffffffffffffffffffff1660008054906101000a900473ffffffffffffffffffffffffffffffffffffffff1673ffffffffffffffffffffffffffffffffffffffff167f8be0079c531659141344cd1fd0a4f28419497f9722a3daafe3b4186f6b6457e060405160405180910390a360008060006101000a81548173ffffffffffffffffffffffffffffffffffffffff021916908373ffffffffffffffffffffffffffffffffffffffff160217905550565b60008060009054906101000a900473ffffffffffffffffffffffffffffffffffffffff16905090565b60008060009054906101000a900473ffffffffffffffffffffffffffffffffffffffff1673ffffffffffffffffffffffffffffffffffffffff163373ffffffffffffffffffffffffffffffffffffffff1614905090565b6060600460009054906101000a900473ffffffffffffffffffffffffffffffffffffffff1673ffffffffffffffffffffffffffffffffffffffff163373ffffffffffffffffffffffffffffffffffffffff161461058c576040517f08c379a000000000000000000000000000000000000000000000000000000000815260040161058390610f05565b60405180910390fd5b600160000180548060200260200160405190810160405280929190818152602001828054801561061157602002820191906000526020600020905b8160009054906101000a900473ffffffffffffffffffffffffffffffffffffffff1673ffffffffffffffffffffffffffffffffffffffff16815260200190600101908083116105c7575b5050505050905090565b6106236104a3565b610662576040517f08c379a000000000000000000000000000000000000000000000000000000000815260040161065990610f25565b60405180910390fd5b6001600001819080600181540180825580915050600190039060005260206000200160009091909190916101000a81548173ffffffffffffffffffffffffffffffffffffffff021916908373ffffffffffffffffffffffffffffffffffffffff16021790555060018060020160008373ffffffffffffffffffffffffffffffffffffffff1673ffffffffffffffffffffffffffffffffffffffff16815260200190815260200160002060006101000a81548160ff021916908315150217905550600180018173ffffffffffffffffffffffffffffffffffffffff1663260a89af6040518163ffffffff1660e01b8152600401600060405180830381600087803b15801561076e57600080fd5b505af1158015610782573d6000803e3d6000fd5b505050506040513d6000823e3d601f19601f820116820180604052508101906107ab9190610bd3565b9080600181540180825580915050600190039060005260206000200160009091909190915090805190602001906107e39291906109fb565b5050565b600460009054906101000a900473ffffffffffffffffffffffffffffffffffffffff1673ffffffffffffffffffffffffffffffffffffffff163373ffffffffffffffffffffffffffffffffffffffff1614610877576040517f08c379a000000000000000000000000000000000000000000000000000000000815260040161086e90610f45565b60405180910390fd5b5050565b6108836104a3565b6108c2576040517f08c379a00000000000000000000000000000000000000000000000000000000081526004016108b990610f25565b60405180910390fd5b6108cb816108ce565b50565b600073ffffffffffffffffffffffffffffffffffffffff168173ffffffffffffffffffffffffffffffffffffffff16141561093e576040517f08c379a000000000000000000000000000000000000000000000000000000000815260040161093590610ec5565b60405180910390fd5b8073ffffffffffffffffffffffffffffffffffffffff1660008054906101000a900473ffffffffffffffffffffffffffffffffffffffff1673ffffffffffffffffffffffffffffffffffffffff167f8be0079c531659141344cd1fd0a4f28419497f9722a3daafe3b4186f6b6457e060405160405180910390a3806000806101000a81548173ffffffffffffffffffffffffffffffffffffffff021916908373ffffffffffffffffffffffffffffffffffffffff16021790555050565b828054610a079061112b565b90600052602060002090601f016020900481019282610a295760008555610a70565b82601f10610a4257805160ff1916838001178555610a70565b82800160010185558215610a70579182015b82811115610a6f578251825591602001919060010190610a54565b5b509050610a7d9190610a81565b5090565b5b80821115610a9a576000816000905550600101610a82565b5090565b6000610ab1610aac84610faa565b610f85565b905082815260208101848484011115610ac957600080fd5b610ad48482856110f8565b509392505050565b600081359050610aeb816113b1565b92915050565b600081359050610b00816113c8565b92915050565b600082601f830112610b1757600080fd5b8151610b27848260208601610a9e565b91505092915050565b600081359050610b3f816113df565b92915050565b600060208284031215610b5757600080fd5b6000610b6584828501610adc565b91505092915050565b60008060408385031215610b8157600080fd5b6000610b8f85828601610adc565b9250506020610ba085828601610b30565b9150509250929050565b600060208284031215610bbc57600080fd5b6000610bca84828501610af1565b91505092915050565b600060208284031215610be557600080fd5b600082015167ffffffffffffffff811115610bff57600080fd5b610c0b84828501610b06565b91505092915050565b6000610c208383610d31565b60208301905092915050565b6000610c388383610d40565b905092915050565b610c498161107a565b82525050565b6000610c5a82610ffb565b610c648185611036565b9350610c6f83610fdb565b8060005b83811015610ca0578151610c878882610c14565b9750610c928361101c565b925050600181019050610c73565b5085935050505092915050565b6000610cb882611006565b610cc28185611047565b935083602082028501610cd485610feb565b8060005b85811015610d105784840389528151610cf18582610c2c565b9450610cfc83611029565b925060208a01995050600181019050610cd8565b50829750879550505050505092915050565b610d2b8161108c565b82525050565b610d3a816110d4565b82525050565b6000610d4b82611011565b610d558185611058565b9350610d658185602086016110f8565b610d6e816111ec565b840191505092915050565b6000610d86602683611069565b9150610d91826111fd565b604082019050919050565b6000610da9602b83611069565b9150610db48261124c565b604082019050919050565b6000610dcc602a83611069565b9150610dd78261129b565b604082019050919050565b6000610def602083611069565b9150610dfa826112ea565b602082019050919050565b6000610e12602983611069565b9150610e1d82611313565b604082019050919050565b6000610e35602683611069565b9150610e4082611362565b604082019050919050565b6000602082019050610e606000830184610c40565b92915050565b60006020820190508181036000830152610e808184610c4f565b905092915050565b60006020820190508181036000830152610ea28184610cad565b905092915050565b6000602082019050610ebf6000830184610d22565b92915050565b60006020820190508181036000830152610ede81610d79565b9050919050565b60006020820190508181036000830152610efe81610d9c565b9050919050565b60006020820190508181036000830152610f1e81610dbf565b9050919050565b60006020820190508181036000830152610f3e81610de2565b9050919050565b60006020820190508181036000830152610f5e81610e05565b9050919050565b60006020820190508181036000830152610f7e81610e28565b9050919050565b6000610f8f610fa0565b9050610f9b828261115d565b919050565b6000604051905090565b600067ffffffffffffffff821115610fc557610fc46111bd565b5b610fce826111ec565b9050602081019050919050565b6000819050602082019050919050565b6000819050602082019050919050565b600081519050919050565b600081519050919050565b600081519050919050565b6000602082019050919050565b6000602082019050919050565b600082825260208201905092915050565b600082825260208201905092915050565b600082825260208201905092915050565b600082825260208201905092915050565b6000611085826110aa565b9050919050565b60008115159050919050565b60006110a38261107a565b9050919050565b600073ffffffffffffffffffffffffffffffffffffffff82169050919050565b6000819050919050565b60006110df826110e6565b9050919050565b60006110f1826110aa565b9050919050565b60005b838110156111165780820151818401526020810190506110fb565b83811115611125576000848401525b50505050565b6000600282049050600182168061114357607f821691505b602082108114156111575761115661118e565b5b50919050565b611166826111ec565b810181811067ffffffffffffffff82111715611185576111846111bd565b5b80604052505050565b7f4e487b7100000000000000000000000000000000000000000000000000000000600052602260045260246000fd5b7f4e487b7100000000000000000000000000000000000000000000000000000000600052604160045260246000fd5b6000601f19601f8301169050919050565b7f4f776e61626c653a206e6577206f776e657220697320746865207a65726f206160008201527f6464726573730000000000000000000000000000000000000000000000000000602082015250565b7f4f6e6c79207061727469636970616e742063616e207375626d6974207375727660008201527f657920726573706f6e7365000000000000000000000000000000000000000000602082015250565b7f4f6e6c79207061727469636970616e742063616e20766965772073757276657960008201527f2061646472657373657300000000000000000000000000000000000000000000602082015250565b7f4f776e61626c653a2063616c6c6572206973206e6f7420746865206f776e6572600082015250565b7f4f6e6c79207061727469636970616e742063616e206f70656e2073757276657960008201527f20696e7374616e63650000000000000000000000000000000000000000000000602082015250565b7f4f6e6c79207061727469636970616e742063616e20766965772073757276657960008201527f206e616d65730000000000000000000000000000000000000000000000000000602082015250565b6113ba8161107a565b81146113c557600080fd5b50565b6113d181611098565b81146113dc57600080fd5b50565b6113e8816110ca565b81146113f357600080fd5b5056fea2646970667358221220734faa4d6feaaaa98a8115be0c1d1d43e6533f36acffee4fc1b045f0ab25f51864736f6c63430008040033608060405234801561001057600080fd5b50336000806101000a81548173ffffffffffffffffffffffffffffffffffffffff021916908373ffffffffffffffffffffffffffffffffffffffff16021790555060008054906101000a900473ffffffffffffffffffffffffffffffffffffffff1673ffffffffffffffffffffffffffffffffffffffff16600073ffffffffffffffffffffffffffffffffffffffff167f8be0079c531659141344cd1fd0a4f28419497f9722a3daafe3b4186f6b6457e060405160405180910390a360006004819055506112d5806100e36000396000f3fe608060405234801561001057600080fd5b506004361061007d5760003560e01c80638da5cb5b1161005b5780638da5cb5b146100db5780638f32d59b146100f9578063c53fb61314610117578063f2fde38b146101335761007d565b806341cf9dc314610082578063715018a6146100b35780637a1bc375146100bd575b600080fd5b61009c60048036038101906100979190610b2e565b61014f565b6040516100aa929190610de7565b60405180910390f35b6100bb610364565b005b6100c5610469565b6040516100d29190610dc5565b60405180910390f35b6100e3610541565b6040516100f09190610daa565b60405180910390f35b61010161056a565b60405161010e9190610e1e565b60405180910390f35b610131600480360381019061012c9190610b2e565b6105c1565b005b61014d60048036038101906101489190610a99565b61072c565b005b60608061015a61056a565b610199576040517f08c379a000000000000000000000000000000000000000000000000000000000815260040161019090610e79565b60405180910390fd5b6001800160008473ffffffffffffffffffffffffffffffffffffffff1673ffffffffffffffffffffffffffffffffffffffff16815260200190815260200160002060009054906101000a900460ff16610227576040517f08c379a000000000000000000000000000000000000000000000000000000000815260040161021e90610e59565b60405180910390fd5b6000600160020160008573ffffffffffffffffffffffffffffffffffffffff1673ffffffffffffffffffffffffffffffffffffffff168152602001908152602001600020549050600160000181815481106102ab577f4e487b7100000000000000000000000000000000000000000000000000000000600052603260045260246000fd5b9060005260206000200160009054906101000a900473ffffffffffffffffffffffffffffffffffffffff1673ffffffffffffffffffffffffffffffffffffffff1663074fa7416040518163ffffffff1660e01b8152600401600060405180830381600087803b15801561031d57600080fd5b505af1158015610331573d6000803e3d6000fd5b505050506040513d6000823e3d601f19601f8201168201806040525081019061035a9190610ac2565b9250925050915091565b61036c61056a565b6103ab576040517f08c379a00000000000000000000000000000000000000000000000000000000081526004016103a290610e79565b60405180910390fd5b600073ffffffffffffffffffffffffffffffffffffffff1660008054906101000a900473ffffffffffffffffffffffffffffffffffffffff1673ffffffffffffffffffffffffffffffffffffffff167f8be0079c531659141344cd1fd0a4f28419497f9722a3daafe3b4186f6b6457e060405160405180910390a360008060006101000a81548173ffffffffffffffffffffffffffffffffffffffff021916908373ffffffffffffffffffffffffffffffffffffffff160217905550565b606061047361056a565b6104b2576040517f08c379a00000000000000000000000000000000000000000000000000000000081526004016104a990610e79565b60405180910390fd5b600160000180548060200260200160405190810160405280929190818152602001828054801561053757602002820191906000526020600020905b8160009054906101000a900473ffffffffffffffffffffffffffffffffffffffff1673ffffffffffffffffffffffffffffffffffffffff16815260200190600101908083116104ed575b5050505050905090565b60008060009054906101000a900473ffffffffffffffffffffffffffffffffffffffff16905090565b60008060009054906101000a900473ffffffffffffffffffffffffffffffffffffffff1673ffffffffffffffffffffffffffffffffffffffff163373ffffffffffffffffffffffffffffffffffffffff1614905090565b6105c961056a565b610608576040517f08c379a00000000000000000000000000000000000000000000000000000000081526004016105ff90610e79565b60405180910390fd5b6001600001819080600181540180825580915050600190039060005260206000200160009091909190916101000a81548173ffffffffffffffffffffffffffffffffffffffff021916908373ffffffffffffffffffffffffffffffffffffffff16021790555060018060010160008373ffffffffffffffffffffffffffffffffffffffff1673ffffffffffffffffffffffffffffffffffffffff16815260200190815260200160002060006101000a81548160ff021916908315150217905550600454600160020160008373ffffffffffffffffffffffffffffffffffffffff1673ffffffffffffffffffffffffffffffffffffffff168152602001908152602001600020819055506004600081548092919061072490611101565b919050555050565b61073461056a565b610773576040517f08c379a000000000000000000000000000000000000000000000000000000000815260040161076a90610e79565b60405180910390fd5b61077c8161077f565b50565b600073ffffffffffffffffffffffffffffffffffffffff168173ffffffffffffffffffffffffffffffffffffffff1614156107ef576040517f08c379a00000000000000000000000000000000000000000000000000000000081526004016107e690610e39565b60405180910390fd5b8073ffffffffffffffffffffffffffffffffffffffff1660008054906101000a900473ffffffffffffffffffffffffffffffffffffffff1673ffffffffffffffffffffffffffffffffffffffff167f8be0079c531659141344cd1fd0a4f28419497f9722a3daafe3b4186f6b6457e060405160405180910390a3806000806101000a81548173ffffffffffffffffffffffffffffffffffffffff021916908373ffffffffffffffffffffffffffffffffffffffff16021790555050565b60006108bf6108ba84610ebe565b610e99565b905080838252602082019050828560208602820111156108de57600080fd5b60005b8581101561092857815167ffffffffffffffff81111561090057600080fd5b80860161090d8982610a5a565b855260208501945060208401935050506001810190506108e1565b5050509392505050565b600061094561094084610eea565b610e99565b9050808382526020820190508285602086028201111561096457600080fd5b60005b85811015610994578161097a8882610a84565b845260208401935060208301925050600181019050610967565b5050509392505050565b60006109b16109ac84610f16565b610e99565b9050828152602081018484840111156109c957600080fd5b6109d484828561109d565b509392505050565b6000813590506109eb8161125a565b92915050565b600082601f830112610a0257600080fd5b8151610a128482602086016108ac565b91505092915050565b600082601f830112610a2c57600080fd5b8151610a3c848260208601610932565b91505092915050565b600081359050610a5481611271565b92915050565b600082601f830112610a6b57600080fd5b8151610a7b84826020860161099e565b91505092915050565b600081519050610a9381611288565b92915050565b600060208284031215610aab57600080fd5b6000610ab9848285016109dc565b91505092915050565b60008060408385031215610ad557600080fd5b600083015167ffffffffffffffff811115610aef57600080fd5b610afb858286016109f1565b925050602083015167ffffffffffffffff811115610b1857600080fd5b610b2485828601610a1b565b9150509250929050565b600060208284031215610b4057600080fd5b6000610b4e84828501610a45565b91505092915050565b6000610b638383610cea565b60208301905092915050565b6000610b7b8383610cf9565b905092915050565b6000610b8f8383610d9b565b60208301905092915050565b610ba48161101f565b82525050565b6000610bb582610f77565b610bbf8185610fca565b9350610bca83610f47565b8060005b83811015610bfb578151610be28882610b57565b9750610bed83610fa3565b925050600181019050610bce565b5085935050505092915050565b6000610c1382610f82565b610c1d8185610fdb565b935083602082028501610c2f85610f57565b8060005b85811015610c6b5784840389528151610c4c8582610b6f565b9450610c5783610fb0565b925060208a01995050600181019050610c33565b50829750879550505050505092915050565b6000610c8882610f8d565b610c928185610fec565b9350610c9d83610f67565b8060005b83811015610cce578151610cb58882610b83565b9750610cc083610fbd565b925050600181019050610ca1565b5085935050505092915050565b610ce481611031565b82525050565b610cf381611079565b82525050565b6000610d0482610f98565b610d0e8185610ffd565b9350610d1e81856020860161109d565b610d27816111a8565b840191505092915050565b6000610d3f60268361100e565b9150610d4a826111b9565b604082019050919050565b6000610d6260158361100e565b9150610d6d82611208565b602082019050919050565b6000610d8560208361100e565b9150610d9082611231565b602082019050919050565b610da48161106f565b82525050565b6000602082019050610dbf6000830184610b9b565b92915050565b60006020820190508181036000830152610ddf8184610baa565b905092915050565b60006040820190508181036000830152610e018185610c08565b90508181036020830152610e158184610c7d565b90509392505050565b6000602082019050610e336000830184610cdb565b92915050565b60006020820190508181036000830152610e5281610d32565b9050919050565b60006020820190508181036000830152610e7281610d55565b9050919050565b60006020820190508181036000830152610e9281610d78565b9050919050565b6000610ea3610eb4565b9050610eaf82826110d0565b919050565b6000604051905090565b600067ffffffffffffffff821115610ed957610ed8611179565b5b602082029050602081019050919050565b600067ffffffffffffffff821115610f0557610f04611179565b5b602082029050602081019050919050565b600067ffffffffffffffff821115610f3157610f30611179565b5b610f3a826111a8565b9050602081019050919050565b6000819050602082019050919050565b6000819050602082019050919050565b6000819050602082019050919050565b600081519050919050565b600081519050919050565b600081519050919050565b600081519050919050565b6000602082019050919050565b6000602082019050919050565b6000602082019050919050565b600082825260208201905092915050565b600082825260208201905092915050565b600082825260208201905092915050565b600082825260208201905092915050565b600082825260208201905092915050565b600061102a8261104f565b9050919050565b60008115159050919050565b60006110488261101f565b9050919050565b600073ffffffffffffffffffffffffffffffffffffffff82169050919050565b6000819050919050565b60006110848261108b565b9050919050565b60006110968261104f565b9050919050565b60005b838110156110bb5780820151818401526020810190506110a0565b838111156110ca576000848401525b50505050565b6110d9826111a8565b810181811067ffffffffffffffff821117156110f8576110f7611179565b5b80604052505050565b600061110c8261106f565b91507fffffffffffffffffffffffffffffffffffffffffffffffffffffffffffffffff82141561113f5761113e61114a565b5b600182019050919050565b7f4e487b7100000000000000000000000000000000000000000000000000000000600052601160045260246000fd5b7f4e487b7100000000000000000000000000000000000000000000000000000000600052604160045260246000fd5b6000601f19601f8301169050919050565b7f4f776e61626c653a206e6577206f776e657220697320746865207a65726f206160008201527f6464726573730000000000000000000000000000000000000000000000000000602082015250565b7f53757276657920646f6573206e6f742065786973740000000000000000000000600082015250565b7f4f776e61626c653a2063616c6c6572206973206e6f7420746865206f776e6572600082015250565b6112638161101f565b811461126e57600080fd5b50565b61127a8161103d565b811461128557600080fd5b50565b6112918161106f565b811461129c57600080fd5b5056fea2646970667358221220e1fd5c65ee40634099ab05a5ac84531b910412e4d2847b99229ca57753d116d664736f6c63430008040033436f6d706c6574656420616464696e672073757276657920746f20726573756c74732076696577a264697066735822122048ee9842ecdf09f15f641bebc3c196721b1784c3ecc43109d19d733d1fc3650b64736f6c63430008040033608060405234801561001057600080fd5b50613a50806100206000396000f3fe60806040523480156200001157600080fd5b50600436106200002e5760003560e01c8063e0d494e41462000033575b600080fd5b6200005160048036038101906200004b9190620003df565b62000069565b6040516200006091906200076b565b60405180910390f35b6000620000ab6040518060400160405280600d81526020017f496e20666163746f72792e2e2e00000000000000000000000000000000000000815250620001f6565b60008a8a8a8a8a8a8a8a604051620000c390620002bc565b620000d6989796959493929190620006f3565b604051809103906000f080158015620000f3573d6000803e3d6000fd5b5090508073ffffffffffffffffffffffffffffffffffffffff1663f2fde38b846040518263ffffffff1660e01b8152600401620001319190620006d6565b600060405180830381600087803b1580156200014c57600080fd5b505af115801562000161573d6000803e3d6000fd5b50505050620001a56040518060400160405280601781526020017f6265666f726520736574207570206e756c6c6966696572000000000000000000815250620001f6565b620001e56040518060400160405280601681526020017f616674657220736574207570206e756c6c696669657200000000000000000000815250620001f6565b809150509998505050505050505050565b62000290816040516024016200020d919062000788565b6040516020818303038152906040527f41304fac000000000000000000000000000000000000000000000000000000007bffffffffffffffffffffffffffffffffffffffffffffffffffffffff19166020820180517bffffffffffffffffffffffffffffffffffffffffffffffffffffffff838183161783525050505062000293565b50565b60008151905060006a636f6e736f6c652e6c6f679050602083016000808483855afa5050505050565b61308e806200098d83390190565b600081359050620002db8162000958565b92915050565b60008083601f840112620002f457600080fd5b8235905067ffffffffffffffff8111156200030e57600080fd5b6020830191508360208202830111156200032757600080fd5b9250929050565b60008083601f8401126200034157600080fd5b8235905067ffffffffffffffff8111156200035b57600080fd5b6020830191508360208202830111156200037457600080fd5b9250929050565b60008083601f8401126200038e57600080fd5b8235905067ffffffffffffffff811115620003a857600080fd5b602083019150836001820283011115620003c157600080fd5b9250929050565b600081359050620003d98162000972565b92915050565b600080600080600080600080600060c08a8c031215620003fe57600080fd5b60008a013567ffffffffffffffff8111156200041957600080fd5b620004278c828d016200032e565b995099505060208a013567ffffffffffffffff8111156200044757600080fd5b620004558c828d01620002e1565b975097505060406200046a8c828d01620003c8565b95505060608a013567ffffffffffffffff8111156200048857600080fd5b620004968c828d016200037b565b94509450506080620004ab8c828d01620002ca565b92505060a0620004be8c828d01620002ca565b9150509295985092959850929598565b6000620004dc838362000500565b60208301905092915050565b6000620004f78484846200061e565b90509392505050565b6200050b816200089c565b82525050565b6200051c816200089c565b82525050565b6000620005308385620007e5565b93506200053d82620007ac565b8060005b858110156200057e5762000556828462000829565b620005628882620004ce565b97506200056f83620007cb565b92505060018101905062000541565b5085925050509392505050565b6000620005998385620007f6565b935083602084028501620005ad84620007b6565b8060005b87811015620005fb578484038952620005cb828462000842565b620005d8868284620004e8565b9550620005e584620007d8565b935060208b019a505050600181019050620005b1565b50829750879450505050509392505050565b6200061881620008da565b82525050565b60006200062c838562000807565b93506200063b83858462000902565b620006468362000947565b840190509392505050565b60006200065f838562000818565b93506200066e83858462000902565b620006798362000947565b840190509392505050565b60006200069182620007c0565b6200069d818562000818565b9350620006af81856020860162000911565b620006ba8162000947565b840191505092915050565b620006d081620008d0565b82525050565b6000602082019050620006ed600083018462000511565b92915050565b600060a082019050818103600083015262000710818a8c6200058b565b905081810360208301526200072781888a62000522565b9050620007386040830187620006c5565b81810360608301526200074d81858762000651565b90506200075e608083018462000511565b9998505050505050505050565b60006020820190506200078260008301846200060d565b92915050565b60006020820190508181036000830152620007a4818462000684565b905092915050565b6000819050919050565b6000819050919050565b600081519050919050565b6000602082019050919050565b6000602082019050919050565b600082825260208201905092915050565b600082825260208201905092915050565b600082825260208201905092915050565b600082825260208201905092915050565b60006200083a6020840184620002ca565b905092915050565b600080833560016020038436030381126200085c57600080fd5b83810192508235915060208301925067ffffffffffffffff8211156200088157600080fd5b6001820236038413156200089457600080fd5b509250929050565b6000620008a982620008b0565b9050919050565b600073ffffffffffffffffffffffffffffffffffffffff82169050919050565b6000819050919050565b6000620008e782620008ee565b9050919050565b6000620008fb82620008b0565b9050919050565b82818337600083830152505050565b60005b838110156200093157808201518184015260208101905062000914565b8381111562000941576000848401525b50505050565b6000601f19601f8301169050919050565b62000963816200089c565b81146200096f57600080fd5b50565b6200097d81620008d0565b81146200098957600080fd5b5056fe60806040523480156200001157600080fd5b506040516200308e3803806200308e83398181016040528101906200003791906200074f565b336000806101000a81548173ffffffffffffffffffffffffffffffffffffffff021916908373ffffffffffffffffffffffffffffffffffffffff16021790555060008054906101000a900473ffffffffffffffffffffffffffffffffffffffff1673ffffffffffffffffffffffffffffffffffffffff16600073ffffffffffffffffffffffffffffffffffffffff167f8be0079c531659141344cd1fd0a4f28419497f9722a3daafe3b4186f6b6457e060405160405180910390a3620001216040518060600160405280602281526020016200306c602291396200027060201b62000f351760201c565b84600a60010190805190602001906200013c9291906200033c565b5060005b8551811015620001e357600086828151811062000186577f4e487b7100000000000000000000000000000000000000000000000000000000600052603260045260246000fd5b602002602001015190506001600a60000182604051620001a7919062000894565b908152602001604051809103902060006101000a81548160ff021916908315150217905550508080620001da9062000a95565b91505062000140565b50826005819055504260048190555080600260006101000a81548173ffffffffffffffffffffffffffffffffffffffff021916908373ffffffffffffffffffffffffffffffffffffffff16021790555083600690805190602001906200024b929190620003a3565b5081600190805190602001906200026492919062000432565b50505050505062000bb5565b6200031081604051602401620002879190620008ad565b6040516020818303038152906040527f41304fac000000000000000000000000000000000000000000000000000000007bffffffffffffffffffffffffffffffffffffffffffffffffffffffff19166020820180517bffffffffffffffffffffffffffffffffffffffffffffffffffffffff83818316178352505050506200031360201b60201c565b50565b60008151905060006a636f6e736f6c652e6c6f679050602083016000808483855afa5050505050565b82805482825590600052602060002090810192821562000390579160200282015b828111156200038f5782518290805190602001906200037e92919062000432565b50916020019190600101906200035d565b5b5090506200039f9190620004c3565b5090565b8280548282559060005260206000209081019282156200041f579160200282015b828111156200041e5782518260006101000a81548173ffffffffffffffffffffffffffffffffffffffff021916908373ffffffffffffffffffffffffffffffffffffffff16021790555091602001919060010190620003c4565b5b5090506200042e9190620004eb565b5090565b828054620004409062000a29565b90600052602060002090601f016020900481019282620004645760008555620004b0565b82601f106200047f57805160ff1916838001178555620004b0565b82800160010185558215620004b0579182015b82811115620004af57825182559160200191906001019062000492565b5b509050620004bf9190620004eb565b5090565b5b80821115620004e75760008181620004dd91906200050a565b50600101620004c4565b5090565b5b8082111562000506576000816000905550600101620004ec565b5090565b508054620005189062000a29565b6000825580601f106200052c57506200054d565b601f0160209004906000526020600020908101906200054c9190620004eb565b5b50565b6000620005676200056184620008fa565b620008d1565b905080838252602082019050828560208602820111156200058757600080fd5b60005b85811015620005bb5781620005a088826200069a565b8452602084019350602083019250506001810190506200058a565b5050509392505050565b6000620005dc620005d68462000929565b620008d1565b90508083825260208201905082856020860282011115620005fc57600080fd5b60005b858110156200064b57815167ffffffffffffffff8111156200062057600080fd5b8086016200062f89826200070b565b85526020850194506020840193505050600181019050620005ff565b5050509392505050565b60006200066c620006668462000958565b620008d1565b9050828152602081018484840111156200068557600080fd5b62000692848285620009f3565b509392505050565b600081519050620006ab8162000b81565b92915050565b600082601f830112620006c357600080fd5b8151620006d584826020860162000550565b91505092915050565b600082601f830112620006f057600080fd5b815162000702848260208601620005c5565b91505092915050565b600082601f8301126200071d57600080fd5b81516200072f84826020860162000655565b91505092915050565b600081519050620007498162000b9b565b92915050565b600080600080600060a086880312156200076857600080fd5b600086015167ffffffffffffffff8111156200078357600080fd5b6200079188828901620006de565b955050602086015167ffffffffffffffff811115620007af57600080fd5b620007bd88828901620006b1565b9450506040620007d08882890162000738565b935050606086015167ffffffffffffffff811115620007ee57600080fd5b620007fc888289016200070b565b92505060806200080f888289016200069a565b9150509295509295909350565b600062000829826200098e565b62000835818562000999565b935062000847818560208601620009f3565b620008528162000b70565b840191505092915050565b60006200086a826200098e565b620008768185620009aa565b935062000888818560208601620009f3565b80840191505092915050565b6000620008a282846200085d565b915081905092915050565b60006020820190508181036000830152620008c981846200081c565b905092915050565b6000620008dd620008f0565b9050620008eb828262000a5f565b919050565b6000604051905090565b600067ffffffffffffffff82111562000918576200091762000b41565b5b602082029050602081019050919050565b600067ffffffffffffffff82111562000947576200094662000b41565b5b602082029050602081019050919050565b600067ffffffffffffffff82111562000976576200097562000b41565b5b620009818262000b70565b9050602081019050919050565b600081519050919050565b600082825260208201905092915050565b600081905092915050565b6000620009c282620009c9565b9050919050565b600073ffffffffffffffffffffffffffffffffffffffff82169050919050565b6000819050919050565b60005b8381101562000a13578082015181840152602081019050620009f6565b8381111562000a23576000848401525b50505050565b6000600282049050600182168062000a4257607f821691505b6020821081141562000a595762000a5862000b12565b5b50919050565b62000a6a8262000b70565b810181811067ffffffffffffffff8211171562000a8c5762000a8b62000b41565b5b80604052505050565b600062000aa282620009e9565b91507fffffffffffffffffffffffffffffffffffffffffffffffffffffffffffffffff82141562000ad85762000ad762000ae3565b5b600182019050919050565b7f4e487b7100000000000000000000000000000000000000000000000000000000600052601160045260246000fd5b7f4e487b7100000000000000000000000000000000000000000000000000000000600052602260045260246000fd5b7f4e487b7100000000000000000000000000000000000000000000000000000000600052604160045260246000fd5b6000601f19601f8301169050919050565b62000b8c81620009b5565b811462000b9857600080fd5b50565b62000ba681620009e9565b811462000bb257600080fd5b50565b6124a78062000bc56000396000f3fe608060405234801561001057600080fd5b50600436106100b45760003560e01c80638da5cb5b116100715780638da5cb5b146101445780638f32d59b14610162578063cf4ae8fb14610180578063df2e808f1461019e578063e1984df6146101ba578063f2fde38b146101d8576100b4565b8063074fa741146100b9578063260a89af146100d857806340566790146100f65780636d80efca14610114578063715018a614610130578063771441371461013a575b600080fd5b6100c16101f4565b6040516100cf929190611c79565b60405180910390f35b6100e0610509565b6040516100ed9190611d4b565b60405180910390f35b6100fe61059b565b60405161010b9190611cb0565b60405180910390f35b61012e600480360381019061012991906118f3565b6105f3565b005b610138610899565b005b61014261099e565b005b61014c610b8d565b6040516101599190611c3c565b60405180910390f35b61016a610bb6565b6040516101779190611cd2565b60405180910390f35b610188610c0d565b6040516101959190611c57565b60405180910390f35b6101b860048036038101906101b3919061181f565b610ce9565b005b6101c2610eaf565b6040516101cf9190611e1d565b60405180910390f35b6101f260048036038101906101ed91906117f6565b610ee2565b005b6060806101ff610bb6565b61023e576040517f08c379a000000000000000000000000000000000000000000000000000000000815260040161023590611dfd565b60405180910390fd5b600073ffffffffffffffffffffffffffffffffffffffff16600260009054906101000a900473ffffffffffffffffffffffffffffffffffffffff1673ffffffffffffffffffffffffffffffffffffffff1614156102d0576040517f08c379a00000000000000000000000000000000000000000000000000000000081526004016102c790611dbd565b60405180910390fd5b6102d8610fce565b6005546004546102e8919061204b565b4211156103d4576060600a6001018181805480602002602001604051908101604052809291908181526020016000905b828210156103c457838290600052602060002001805461033790612185565b80601f016020809104026020016040519081016040528092919081815260200182805461036390612185565b80156103b05780601f10610385576101008083540402835291602001916103b0565b820191906000526020600020905b81548152906001019060200180831161039357829003601f168201915b505050505081526020019060010190610318565b5050505091509250925050610505565b600a600101600981805480602002602001604051908101604052809291908181526020016000905b828210156104a857838290600052602060002001805461041b90612185565b80601f016020809104026020016040519081016040528092919081815260200182805461044790612185565b80156104945780601f1061046957610100808354040283529160200191610494565b820191906000526020600020905b81548152906001019060200180831161047757829003601f168201915b5050505050815260200190600101906103fc565b505050509150808054806020026020016040519081016040528092919081815260200182805480156104f957602002820191906000526020600020905b8154815260200190600101908083116104e5575b50505050509050915091505b9091565b60606001805461051890612185565b80601f016020809104026020016040519081016040528092919081815260200182805461054490612185565b80156105915780601f1061056657610100808354040283529160200191610591565b820191906000526020600020905b81548152906001019060200180831161057457829003601f168201915b5050505050905090565b6060600d8054806020026020016040519081016040528092919081815260200182805480156105e957602002820191906000526020600020905b8154815260200190600101908083116105d5575b5050505050905090565b610683600680548060200260200160405190810160405280929190818152602001828054801561067857602002820191906000526020600020905b8160009054906101000a900473ffffffffffffffffffffffffffffffffffffffff1673ffffffffffffffffffffffffffffffffffffffff168152602001906001019080831161062e575b5050505050336111da565b6106c2576040517f08c379a00000000000000000000000000000000000000000000000000000000081526004016106b990611ddd565b60405180910390fd5b6107006040518060400160405280601c81526020017f5375727665793a737461727420696e73657274206964656e7469747900000000815250610f35565b600260009054906101000a900473ffffffffffffffffffffffffffffffffffffffff1673ffffffffffffffffffffffffffffffffffffffff16636d80efca826040518263ffffffff1660e01b815260040161075b9190611e38565b600060405180830381600087803b15801561077557600080fd5b505af1158015610789573d6000803e3d6000fd5b50505050600d8190806001815401808255809150506001900390600052602060002001600090919091909150556001600e60003373ffffffffffffffffffffffffffffffffffffffff1673ffffffffffffffffffffffffffffffffffffffff16815260200190815260200160002060006101000a81548160ff0219169083151502179055506000600d8054905090506108576040518060400160405280601f81526020017f4e756d626572206f6620636f6d6d69746d656e747320696e207375727665790081525082611288565b6108956040518060400160405280601f81526020017f5375727665793a636f6d706c65746520696e73657274206964656e7469747900815250610f35565b5050565b6108a1610bb6565b6108e0576040517f08c379a00000000000000000000000000000000000000000000000000000000081526004016108d790611dfd565b60405180910390fd5b600073ffffffffffffffffffffffffffffffffffffffff1660008054906101000a900473ffffffffffffffffffffffffffffffffffffffff1673ffffffffffffffffffffffffffffffffffffffff167f8be0079c531659141344cd1fd0a4f28419497f9722a3daafe3b4186f6b6457e060405160405180910390a360008060006101000a81548173ffffffffffffffffffffffffffffffffffffffff021916908373ffffffffffffffffffffffffffffffffffffffff160217905550565b6109a6610bb6565b6109e5576040517f08c379a00000000000000000000000000000000000000000000000000000000081526004016109dc90611dfd565b60405180910390fd5b6000306040516020016109f89190611c3c565b6040516020818303038152906040529050808051906020012060001c600360006101000a8154817cffffffffffffffffffffffffffffffffffffffffffffffffffffffffff02191690837cffffffffffffffffffffffffffffffffffffffffffffffffffffffffff160217905550600260009054906101000a900473ffffffffffffffffffffffffffffffffffffffff1673ffffffffffffffffffffffffffffffffffffffff1663539f38b2600360009054906101000a90047cffffffffffffffffffffffffffffffffffffffffffffffffffffffffff166040518263ffffffff1660e01b8152600401610aec9190611e1d565b600060405180830381600087803b158015610b0657600080fd5b505af1158015610b1a573d6000803e3d6000fd5b50505050610b8a60405180606001604052806022815260200161245060229139600360009054906101000a90047cffffffffffffffffffffffffffffffffffffffffffffffffffffffffff167cffffffffffffffffffffffffffffffffffffffffffffffffffffffffff16611288565b50565b60008060009054906101000a900473ffffffffffffffffffffffffffffffffffffffff16905090565b60008060009054906101000a900473ffffffffffffffffffffffffffffffffffffffff1673ffffffffffffffffffffffffffffffffffffffff163373ffffffffffffffffffffffffffffffffffffffff1614905090565b6060600a600101805480602002602001604051908101604052809291908181526020016000905b82821015610ce0578382906000526020600020018054610c5390612185565b80601f0160208091040260200160405190810160405280929190818152602001828054610c7f90612185565b8015610ccc5780601f10610ca157610100808354040283529160200191610ccc565b820191906000526020600020905b815481529060010190602001808311610caf57829003601f168201915b505050505081526020019060010190610c34565b50505050905090565b600073ffffffffffffffffffffffffffffffffffffffff16600260009054906101000a900473ffffffffffffffffffffffffffffffffffffffff1673ffffffffffffffffffffffffffffffffffffffff161415610d7b576040517f08c379a0000000000000000000000000000000000000000000000000000000008152600401610d7290611dbd565b60405180910390fd5b610de760405180606001604052806033815260200161241d60339139600360009054906101000a90047cffffffffffffffffffffffffffffffffffffffffffffffffffffffffff167cffffffffffffffffffffffffffffffffffffffffffffffffffffffffff16611288565b600260009054906101000a900473ffffffffffffffffffffffffffffffffffffffff1673ffffffffffffffffffffffffffffffffffffffff16630e57596f85858585600360009054906101000a90047cffffffffffffffffffffffffffffffffffffffffffffffffffffffffff166040518663ffffffff1660e01b8152600401610e75959493929190611ced565b600060405180830381600087803b158015610e8f57600080fd5b505af1158015610ea3573d6000803e3d6000fd5b50505050505050505050565b6000600360009054906101000a90047cffffffffffffffffffffffffffffffffffffffffffffffffffffffffff16905090565b610eea610bb6565b610f29576040517f08c379a0000000000000000000000000000000000000000000000000000000008152600401610f2090611dfd565b60405180910390fd5b610f3281611324565b50565b610fcb81604051602401610f499190611d4b565b6040516020818303038152906040527f41304fac000000000000000000000000000000000000000000000000000000007bffffffffffffffffffffffffffffffffffffffffffffffffffffffff19166020820180517bffffffffffffffffffffffffffffffffffffffffffffffffffffffff8381831617835250505050611451565b50565b600c60009054906101000a900460ff161580610ff85750600554600454610ff5919061204b565b42115b15611002576111d8565b6009600061101091906114ee565b60005b600a600101805490508110156111bb576000600a6001018281548110611062577f4e487b7100000000000000000000000000000000000000000000000000000000600052603260045260246000fd5b90600052602060002001805461107790612185565b80601f01602080910402602001604051908101604052809291908181526020018280546110a390612185565b80156110f05780601f106110c5576101008083540402835291602001916110f0565b820191906000526020600020905b8154815290600101906020018083116110d357829003601f168201915b50505050509050600060085461117160078460405161110f9190611c25565b908152602001604051809103902080548060200260200160405190810160405280929190818152602001828054801561116757602002820191906000526020600020905b815481526020019060010190808311611153575b505050505061147a565b61117b91906120a1565b90506009819080600181540180825580915050600190039060005260206000200160009091909190915055505080806111b3906121e8565b915050611013565b506000600c60006101000a81548160ff0219169083151502179055505b565b600080600090505b835181101561127c57838181518110611224577f4e487b7100000000000000000000000000000000000000000000000000000000600052603260045260246000fd5b602002602001015173ffffffffffffffffffffffffffffffffffffffff168373ffffffffffffffffffffffffffffffffffffffff161415611269576001915050611282565b8080611274906121e8565b9150506111e2565b50600090505b92915050565b611320828260405160240161129e929190611d6d565b6040516020818303038152906040527f9710a9d0000000000000000000000000000000000000000000000000000000007bffffffffffffffffffffffffffffffffffffffffffffffffffffffff19166020820180517bffffffffffffffffffffffffffffffffffffffffffffffffffffffff8381831617835250505050611451565b5050565b600073ffffffffffffffffffffffffffffffffffffffff168173ffffffffffffffffffffffffffffffffffffffff161415611394576040517f08c379a000000000000000000000000000000000000000000000000000000000815260040161138b90611d9d565b60405180910390fd5b8073ffffffffffffffffffffffffffffffffffffffff1660008054906101000a900473ffffffffffffffffffffffffffffffffffffffff1673ffffffffffffffffffffffffffffffffffffffff167f8be0079c531659141344cd1fd0a4f28419497f9722a3daafe3b4186f6b6457e060405160405180910390a3806000806101000a81548173ffffffffffffffffffffffffffffffffffffffff021916908373ffffffffffffffffffffffffffffffffffffffff16021790555050565b60008151905060006a636f6e736f6c652e6c6f679050602083016000808483855afa5050505050565b6000805b82518110156114e8578281815181106114c0577f4e487b7100000000000000000000000000000000000000000000000000000000600052603260045260246000fd5b6020026020010151826114d3919061204b565b915080806114e0906121e8565b91505061147e565b50919050565b508054600082559060005260206000209081019061150c919061150f565b50565b5b80821115611528576000816000905550600101611510565b5090565b600061153f61153a84611e78565b611e53565b9050808382526020820190508285602086028201111561155e57600080fd5b60005b858110156115a857813567ffffffffffffffff81111561158057600080fd5b80860161158d89826117b7565b85526020850194506020840193505050600181019050611561565b5050509392505050565b60006115c56115c084611ea4565b611e53565b905080828560208602820111156115db57600080fd5b60005b8581101561160b57816115f188826117e1565b8452602084019350602083019250506001810190506115de565b5050509392505050565b600061162861162384611eca565b611e53565b9050808382526020820190508285602086028201111561164757600080fd5b60005b85811015611677578161165d88826117e1565b84526020840193506020830192505060018101905061164a565b5050509392505050565b600061169461168f84611ef6565b611e53565b9050828152602081018484840111156116ac57600080fd5b6116b7848285612143565b509392505050565b60006116d26116cd84611f27565b611e53565b9050828152602081018484840111156116ea57600080fd5b6116f5848285612143565b509392505050565b60008135905061170c816123ee565b92915050565b600082601f83011261172357600080fd5b813561173384826020860161152c565b91505092915050565b600082601f83011261174d57600080fd5b600861175a8482856115b2565b91505092915050565b600082601f83011261177457600080fd5b8135611784848260208601611615565b91505092915050565b600082601f83011261179e57600080fd5b81356117ae848260208601611681565b91505092915050565b600082601f8301126117c857600080fd5b81356117d88482602086016116bf565b91505092915050565b6000813590506117f081612405565b92915050565b60006020828403121561180857600080fd5b6000611816848285016116fd565b91505092915050565b6000806000806000806101a0878903121561183957600080fd5b600087013567ffffffffffffffff81111561185357600080fd5b61185f89828a01611712565b965050602087013567ffffffffffffffff81111561187c57600080fd5b61188889828a01611763565b955050604087013567ffffffffffffffff8111156118a557600080fd5b6118b189828a0161178d565b94505060606118c289828a0161173c565b9350506101606118d489828a016117e1565b9250506101806118e689828a016117e1565b9150509295509295509295565b60006020828403121561190557600080fd5b6000611913848285016117e1565b91505092915050565b60006119288383611ac9565b905092915050565b600061193c8383611c07565b60208301905092915050565b611951816120d2565b82525050565b600061196282611f82565b61196c8185611fe0565b93508360208202850161197e85611f58565b8060005b858110156119ba578484038952815161199b858261191c565b94506119a683611fb9565b925060208a01995050600181019050611982565b50829750879550505050505092915050565b6119d581611f8d565b6119df8184611ff1565b92506119ea82611f68565b8060005b83811015611a1b578151611a028782611930565b9650611a0d83611fc6565b9250506001810190506119ee565b505050505050565b6000611a2e82611f98565b611a388185611ffc565b9350611a4383611f72565b8060005b83811015611a74578151611a5b8882611930565b9750611a6683611fd3565b925050600181019050611a47565b5085935050505092915050565b611a8a816120e4565b82525050565b6000611a9b82611fa3565b611aa5818561200d565b9350611ab5818560208601612152565b611abe816122ed565b840191505092915050565b6000611ad482611fae565b611ade818561201e565b9350611aee818560208601612152565b611af7816122ed565b840191505092915050565b6000611b0d82611fae565b611b17818561202f565b9350611b27818560208601612152565b611b30816122ed565b840191505092915050565b6000611b4682611fae565b611b508185612040565b9350611b60818560208601612152565b80840191505092915050565b6000611b7960268361202f565b9150611b84826122fe565b604082019050919050565b6000611b9c60138361202f565b9150611ba78261234d565b602082019050919050565b6000611bbf60258361202f565b9150611bca82612376565b604082019050919050565b6000611be260208361202f565b9150611bed826123c5565b602082019050919050565b611c0181612110565b82525050565b611c1081612139565b82525050565b611c1f81612139565b82525050565b6000611c318284611b3b565b915081905092915050565b6000602082019050611c516000830184611948565b92915050565b60006020820190508181036000830152611c718184611957565b905092915050565b60006040820190508181036000830152611c938185611957565b90508181036020830152611ca78184611a23565b90509392505050565b60006020820190508181036000830152611cca8184611a23565b905092915050565b6000602082019050611ce76000830184611a81565b92915050565b6000610180820190508181036000830152611d088188611a90565b9050611d1760208301876119cc565b611d25610120830186611c16565b611d33610140830185611c16565b611d41610160830184611bf8565b9695505050505050565b60006020820190508181036000830152611d658184611b02565b905092915050565b60006040820190508181036000830152611d878185611b02565b9050611d966020830184611c16565b9392505050565b60006020820190508181036000830152611db681611b6c565b9050919050565b60006020820190508181036000830152611dd681611b8f565b9050919050565b60006020820190508181036000830152611df681611bb2565b9050919050565b60006020820190508181036000830152611e1681611bd5565b9050919050565b6000602082019050611e326000830184611bf8565b92915050565b6000602082019050611e4d6000830184611c16565b92915050565b6000611e5d611e6e565b9050611e6982826121b7565b919050565b6000604051905090565b600067ffffffffffffffff821115611e9357611e926122be565b5b602082029050602081019050919050565b600067ffffffffffffffff821115611ebf57611ebe6122be565b5b602082029050919050565b600067ffffffffffffffff821115611ee557611ee46122be565b5b602082029050602081019050919050565b600067ffffffffffffffff821115611f1157611f106122be565b5b611f1a826122ed565b9050602081019050919050565b600067ffffffffffffffff821115611f4257611f416122be565b5b611f4b826122ed565b9050602081019050919050565b6000819050602082019050919050565b6000819050919050565b6000819050602082019050919050565b600081519050919050565b600060089050919050565b600081519050919050565b600081519050919050565b600081519050919050565b6000602082019050919050565b6000602082019050919050565b6000602082019050919050565b600082825260208201905092915050565b600081905092915050565b600082825260208201905092915050565b600082825260208201905092915050565b600082825260208201905092915050565b600082825260208201905092915050565b600081905092915050565b600061205682612139565b915061206183612139565b9250827fffffffffffffffffffffffffffffffffffffffffffffffffffffffffffffffff0382111561209657612095612231565b5b828201905092915050565b60006120ac82612139565b91506120b783612139565b9250826120c7576120c6612260565b5b828204905092915050565b60006120dd826120f0565b9050919050565b60008115159050919050565b600073ffffffffffffffffffffffffffffffffffffffff82169050919050565b60007cffffffffffffffffffffffffffffffffffffffffffffffffffffffffff82169050919050565b6000819050919050565b82818337600083830152505050565b60005b83811015612170578082015181840152602081019050612155565b8381111561217f576000848401525b50505050565b6000600282049050600182168061219d57607f821691505b602082108114156121b1576121b061228f565b5b50919050565b6121c0826122ed565b810181811067ffffffffffffffff821117156121df576121de6122be565b5b80604052505050565b60006121f382612139565b91507fffffffffffffffffffffffffffffffffffffffffffffffffffffffffffffffff82141561222657612225612231565b5b600182019050919050565b7f4e487b7100000000000000000000000000000000000000000000000000000000600052601160045260246000fd5b7f4e487b7100000000000000000000000000000000000000000000000000000000600052601260045260246000fd5b7f4e487b7100000000000000000000000000000000000000000000000000000000600052602260045260246000fd5b7f4e487b7100000000000000000000000000000000000000000000000000000000600052604160045260246000fd5b6000601f19601f8301169050919050565b7f4f776e61626c653a206e6577206f776e657220697320746865207a65726f206160008201527f6464726573730000000000000000000000000000000000000000000000000000602082015250565b7f6d75737420686176652073656d6170686f726500000000000000000000000000600082015250565b7f4f6e6c79207061727469636970616e74732063616e20696e736572742069646560008201527f6e74697479000000000000000000000000000000000000000000000000000000602082015250565b7f4f776e61626c653a2063616c6c6572206973206e6f7420746865206f776e6572600082015250565b6123f7816120d2565b811461240257600080fd5b50565b61240e81612139565b811461241957600080fd5b5056fe5375727665793a65787465726e616c206e756c6c696669657220696e207570646174652073757276657920726573756c743a205375727665793a416464696e672065787465726e616c206e756c6c69666965723a20a2646970667358221220e8112f1c7a08d7b5d486a6fcdb86b2788cd0a6751ee4f5fe388fcc0a9539860f64736f6c63430008040033456e746572696e6720636f6e7374727563746f7220666f72207375727665792e2e2ea2646970667358221220b5d72d18b807d0fe21ea1f928418cad921e6530baad440bc09b41fb4be0f959664736f6c63430008040033",
  "linkReferences": {},
  "deployedLinkReferences": {}
}