{
  "_format": "hh-sol-artifact-1",
  "contractName": "Platform",
  "sourceName": "contracts/Platform.sol",
  "abi": [
    {
      "inputs": [],
      "stateMutability": "nonpayable",
      "type": "constructor"
    },
    {
      "anonymous": false,
      "inputs": [
        {
          "indexed": false,
          "internalType": "string",
          "name": "message",
          "type": "string"
        }
      ],
      "name": "complete",
      "type": "event"
    },
    {
      "anonymous": false,
      "inputs": [
        {
          "indexed": false,
          "internalType": "string",
          "name": "message",
          "type": "string"
        }
      ],
      "name": "create",
      "type": "event"
    },
    {
      "inputs": [
        {
          "internalType": "address[]",
          "name": "_participants",
          "type": "address[]"
        },
        {
          "internalType": "address",
          "name": "newSurveyAddress",
          "type": "address"
        }
      ],
      "name": "addExistingSurvey",
      "outputs": [
        {
          "internalType": "address",
          "name": "",
          "type": "address"
        }
      ],
      "stateMutability": "nonpayable",
      "type": "function"
    },
    {
      "inputs": [
        {
          "internalType": "address",
          "name": "surveyor",
          "type": "address"
        }
      ],
      "name": "getSurveyorsResultAddress",
      "outputs": [
        {
          "internalType": "address",
          "name": "",
          "type": "address"
        }
      ],
      "stateMutability": "view",
      "type": "function"
    },
    {
      "inputs": [],
      "name": "signInAsParticipant",
      "outputs": [],
      "stateMutability": "nonpayable",
      "type": "function"
    },
    {
      "inputs": [],
      "name": "signInAsSurveyor",
      "outputs": [],
      "stateMutability": "nonpayable",
      "type": "function"
    }
  ],
  "bytecode": "0x608060405234801561001057600080fd5b5060405161001d9061007f565b604051809103906000f080158015610039573d6000803e3d6000fd5b50600360006101000a81548173ffffffffffffffffffffffffffffffffffffffff021916908373ffffffffffffffffffffffffffffffffffffffff16021790555061008c565b613736806132de83390190565b6132438061009b6000396000f3fe608060405234801561001057600080fd5b506004361061004c5760003560e01c806301a7733e14610051578063aacd9b081461005b578063f1885dc71461008b578063ff2e24c514610095575b600080fd5b6100596100c5565b005b61007560048036038101906100709190610d41565b6103a3565b6040516100829190610e9b565b60405180910390f35b6100936105eb565b005b6100af60048036038101906100aa9190610d18565b61081d565b6040516100bc9190610e9b565b60405180910390f35b600073ffffffffffffffffffffffffffffffffffffffff166000803373ffffffffffffffffffffffffffffffffffffffff1673ffffffffffffffffffffffffffffffffffffffff16815260200190815260200160002060009054906101000a900473ffffffffffffffffffffffffffffffffffffffff1673ffffffffffffffffffffffffffffffffffffffff1614156101625761016133610886565b5b6000600260003373ffffffffffffffffffffffffffffffffffffffff1673ffffffffffffffffffffffffffffffffffffffff16815260200190815260200160002080548060200260200160405190810160405280929190818152602001828054801561022357602002820191906000526020600020905b8160009054906101000a900473ffffffffffffffffffffffffffffffffffffffff1673ffffffffffffffffffffffffffffffffffffffff16815260200190600101908083116101d9575b5050505050905060005b8151811015610354576000803373ffffffffffffffffffffffffffffffffffffffff1673ffffffffffffffffffffffffffffffffffffffff16815260200190815260200160002060009054906101000a900473ffffffffffffffffffffffffffffffffffffffff1673ffffffffffffffffffffffffffffffffffffffff1663b74e7f1d338484815181106102ea577f4e487b7100000000000000000000000000000000000000000000000000000000600052603260045260246000fd5b60200260200101516040518363ffffffff1660e01b815260040161030f929190610eb6565b600060405180830381600087803b15801561032957600080fd5b505af115801561033d573d6000803e3d6000fd5b50505050808061034c9061111d565b91505061022d565b50600260003373ffffffffffffffffffffffffffffffffffffffff1673ffffffffffffffffffffffffffffffffffffffff16815260200190815260200160002060006103a09190610c15565b50565b60006103ad6105eb565b6000600160003373ffffffffffffffffffffffffffffffffffffffff1673ffffffffffffffffffffffffffffffffffffffff16815260200190815260200160002060009054906101000a900473ffffffffffffffffffffffffffffffffffffffff16905061044f6040518060400160405280601d81526020017f416464696e672073757276657920746f20726573756c7473207669657700000081525061099e565b8073ffffffffffffffffffffffffffffffffffffffff1663c53fb613846040518263ffffffff1660e01b81526004016104889190610edf565b600060405180830381600087803b1580156104a257600080fd5b505af11580156104b6573d6000803e3d6000fd5b5050505060005b84518110156105bf576000858281518110610501577f4e487b7100000000000000000000000000000000000000000000000000000000600052603260045260246000fd5b60200260200101519050600260008273ffffffffffffffffffffffffffffffffffffffff1673ffffffffffffffffffffffffffffffffffffffff168152602001908152602001600020859080600181540180825580915050600190039060005260206000200160009091909190916101000a81548173ffffffffffffffffffffffffffffffffffffffff021916908373ffffffffffffffffffffffffffffffffffffffff1602179055505080806105b79061111d565b9150506104bd565b506105e16040518060600160405280602781526020016131e76027913961099e565b8291505092915050565b600073ffffffffffffffffffffffffffffffffffffffff16600160003373ffffffffffffffffffffffffffffffffffffffff1673ffffffffffffffffffffffffffffffffffffffff16815260200190815260200160002060009054906101000a900473ffffffffffffffffffffffffffffffffffffffff1673ffffffffffffffffffffffffffffffffffffffff1614156107dc576106bd6040518060400160405280601f81526020017f456c6973652074657374696e67206c6f6767696e67736a64666c617364666c0081525061099e565b6106fb6040518060400160405280601781526020017f456c6973652074657374696e67206c6f6767696e67203200000000000000000081525061099e565b61070433610a37565b6107a26040518060400160405280601381526020017f526573756c742076696577206164647265737300000000000000000000000000815250600160003373ffffffffffffffffffffffffffffffffffffffff1673ffffffffffffffffffffffffffffffffffffffff16815260200190815260200160002060009054906101000a900473ffffffffffffffffffffffffffffffffffffffff16610b50565b7fad932b5c8d4fd02df8c4cbabc65398e342261c9120eaf836ca8c0d092f0f13136040516107cf90610f8c565b60405180910390a161081b565b61081a6040518060400160405280601b81526020017f4e6f74206372656174696e67206475706c69636174652076696577000000000081525061099e565b5b565b6000600160008373ffffffffffffffffffffffffffffffffffffffff1673ffffffffffffffffffffffffffffffffffffffff16815260200190815260200160002060009054906101000a900473ffffffffffffffffffffffffffffffffffffffff169050919050565b7fb6a46b3b2bfbfab5defcd08cea24d0b242b1cd37478f8c0246f68f98125e7f7e6040516108b390610f4c565b60405180910390a160006040516108c990610c36565b604051809103906000f0801580156108e5573d6000803e3d6000fd5b509050806000808473ffffffffffffffffffffffffffffffffffffffff1673ffffffffffffffffffffffffffffffffffffffff16815260200190815260200160002060006101000a81548173ffffffffffffffffffffffffffffffffffffffff021916908373ffffffffffffffffffffffffffffffffffffffff1602179055507fad932b5c8d4fd02df8c4cbabc65398e342261c9120eaf836ca8c0d092f0f131360405161099290610fac565b60405180910390a15050565b610a34816040516024016109b29190610efa565b6040516020818303038152906040527f41304fac000000000000000000000000000000000000000000000000000000007bffffffffffffffffffffffffffffffffffffffffffffffffffffffff19166020820180517bffffffffffffffffffffffffffffffffffffffffffffffffffffffff8381831617835250505050610bec565b50565b7fb6a46b3b2bfbfab5defcd08cea24d0b242b1cd37478f8c0246f68f98125e7f7e604051610a6490610fcc565b60405180910390a16000604051610a7a90610c43565b604051809103906000f080158015610a96573d6000803e3d6000fd5b50905080600160008473ffffffffffffffffffffffffffffffffffffffff1673ffffffffffffffffffffffffffffffffffffffff16815260200190815260200160002060006101000a81548173ffffffffffffffffffffffffffffffffffffffff021916908373ffffffffffffffffffffffffffffffffffffffff1602179055507fad932b5c8d4fd02df8c4cbabc65398e342261c9120eaf836ca8c0d092f0f1313604051610b4490610f6c565b60405180910390a15050565b610be88282604051602401610b66929190610f1c565b6040516020818303038152906040527f319af333000000000000000000000000000000000000000000000000000000007bffffffffffffffffffffffffffffffffffffffffffffffffffffffff19166020820180517bffffffffffffffffffffffffffffffffffffffffffffffffffffffff8381831617835250505050610bec565b5050565b60008151905060006a636f6e736f6c652e6c6f679050602083016000808483855afa5050505050565b5080546000825590600052602060002090810190610c339190610c50565b50565b610b298061130683390190565b6113b880611e2f83390190565b5b80821115610c69576000816000905550600101610c51565b5090565b6000610c80610c7b84611011565b610fec565b90508083825260208201905082856020860282011115610c9f57600080fd5b60005b85811015610ccf5781610cb58882610cd9565b845260208401935060208301925050600181019050610ca2565b5050509392505050565b600081359050610ce8816112ee565b92915050565b600082601f830112610cff57600080fd5b8135610d0f848260208601610c6d565b91505092915050565b600060208284031215610d2a57600080fd5b6000610d3884828501610cd9565b91505092915050565b60008060408385031215610d5457600080fd5b600083013567ffffffffffffffff811115610d6e57600080fd5b610d7a85828601610cee565b9250506020610d8b85828601610cd9565b9150509250929050565b610d9e81611059565b82525050565b610dad81611095565b82525050565b6000610dbe8261103d565b610dc88185611048565b9350610dd88185602086016110b9565b610de1816111c4565b840191505092915050565b6000610df9601b83611048565b9150610e04826111d5565b602082019050919050565b6000610e1c602683611048565b9150610e27826111fe565b604082019050919050565b6000610e3f601f83611048565b9150610e4a8261124d565b602082019050919050565b6000610e62602283611048565b9150610e6d82611276565b604082019050919050565b6000610e85601e83611048565b9150610e90826112c5565b602082019050919050565b6000602082019050610eb06000830184610d95565b92915050565b6000604082019050610ecb6000830185610d95565b610ed86020830184610da4565b9392505050565b6000602082019050610ef46000830184610da4565b92915050565b60006020820190508181036000830152610f148184610db3565b905092915050565b60006040820190508181036000830152610f368185610db3565b9050610f456020830184610d95565b9392505050565b60006020820190508181036000830152610f6581610dec565b9050919050565b60006020820190508181036000830152610f8581610e0f565b9050919050565b60006020820190508181036000830152610fa581610e32565b9050919050565b60006020820190508181036000830152610fc581610e55565b9050919050565b60006020820190508181036000830152610fe581610e78565b9050919050565b6000610ff6611007565b905061100282826110ec565b919050565b6000604051905090565b600067ffffffffffffffff82111561102c5761102b611195565b5b602082029050602081019050919050565b600081519050919050565b600082825260208201905092915050565b60006110648261106b565b9050919050565b600073ffffffffffffffffffffffffffffffffffffffff82169050919050565b6000819050919050565b60006110a0826110a7565b9050919050565b60006110b28261106b565b9050919050565b60005b838110156110d75780820151818401526020810190506110bc565b838111156110e6576000848401525b50505050565b6110f5826111c4565b810181811067ffffffffffffffff8211171561111457611113611195565b5b80604052505050565b60006111288261108b565b91507fffffffffffffffffffffffffffffffffffffffffffffffffffffffffffffffff82141561115b5761115a611166565b5b600182019050919050565b7f4e487b7100000000000000000000000000000000000000000000000000000000600052601160045260246000fd5b7f4e487b7100000000000000000000000000000000000000000000000000000000600052604160045260246000fd5b6000601f19601f8301169050919050565b7f4372656174696e6720726573706f6e64656e7420766965772e2e2e0000000000600082015250565b7f436f6d706c65746564206372656174696e672073757276657920726573756c7460008201527f2076696577730000000000000000000000000000000000000000000000000000602082015250565b7f436f6d706c6574656420726573756c742076696577206372656174696f6e2e00600082015250565b7f436f6d706c65746564206372656174696e6720726573706f6e64656e7420766960008201527f6577000000000000000000000000000000000000000000000000000000000000602082015250565b7f4372656174696e672073757276657920726573756c7420766965772e2e2e0000600082015250565b6112f781611059565b811461130257600080fd5b5056fe608060405234801561001057600080fd5b50336000806101000a81548173ffffffffffffffffffffffffffffffffffffffff021916908373ffffffffffffffffffffffffffffffffffffffff16021790555060008054906101000a900473ffffffffffffffffffffffffffffffffffffffff1673ffffffffffffffffffffffffffffffffffffffff16600073ffffffffffffffffffffffffffffffffffffffff167f8be0079c531659141344cd1fd0a4f28419497f9722a3daafe3b4186f6b6457e060405160405180910390a3610a4e806100db6000396000f3fe608060405234801561001057600080fd5b50600436106100885760003560e01c80638f32d59b1161005b5780638f32d59b146100c9578063b74e7f1d146100e7578063e7dd7ef214610103578063f2fde38b1461011f57610088565b80633a6e60c81461008d5780635af1f83114610097578063715018a6146100a15780638da5cb5b146100ab575b600080fd5b61009561013b565b005b61009f610172565b005b6100a96101a9565b005b6100b36102ae565b6040516100c0919061079f565b60405180910390f35b6100d16102d7565b6040516100de91906107ba565b60405180910390f35b61010160048036038101906100fc919061065a565b61032e565b005b61011d60048036038101906101189190610696565b610439565b005b61013960048036038101906101349190610631565b610472565b005b7fb70d0e4e55686ec7150d883fcce4725be7ac3a00f259c35ff948bff1f53db0ee604051610168906107f5565b60405180910390a1565b7fd99a8dc343b120d08e4495e37e3c843570fa3bbe3f1753b7f4d5540ea325db0060405161019f90610855565b60405180910390a1565b6101b16102d7565b6101f0576040517f08c379a00000000000000000000000000000000000000000000000000000000081526004016101e790610835565b60405180910390fd5b600073ffffffffffffffffffffffffffffffffffffffff1660008054906101000a900473ffffffffffffffffffffffffffffffffffffffff1673ffffffffffffffffffffffffffffffffffffffff167f8be0079c531659141344cd1fd0a4f28419497f9722a3daafe3b4186f6b6457e060405160405180910390a360008060006101000a81548173ffffffffffffffffffffffffffffffffffffffff021916908373ffffffffffffffffffffffffffffffffffffffff160217905550565b60008060009054906101000a900473ffffffffffffffffffffffffffffffffffffffff16905090565b60008060009054906101000a900473ffffffffffffffffffffffffffffffffffffffff1673ffffffffffffffffffffffffffffffffffffffff163373ffffffffffffffffffffffffffffffffffffffff1614905090565b6103366102d7565b610375576040517f08c379a000000000000000000000000000000000000000000000000000000000815260040161036c90610835565b60405180910390fd5b6001600001819080600181540180825580915050600190039060005260206000200160009091909190916101000a81548173ffffffffffffffffffffffffffffffffffffffff021916908373ffffffffffffffffffffffffffffffffffffffff16021790555060018060010160008373ffffffffffffffffffffffffffffffffffffffff1673ffffffffffffffffffffffffffffffffffffffff16815260200190815260200160002060006101000a81548160ff0219169083151502179055505050565b7fe4dcb06b1b9537d4e49337f394394e8e7bd3d84f1421662839e7c36970c3e0e760405161046690610815565b60405180910390a15050565b61047a6102d7565b6104b9576040517f08c379a00000000000000000000000000000000000000000000000000000000081526004016104b090610835565b60405180910390fd5b6104c2816104c5565b50565b600073ffffffffffffffffffffffffffffffffffffffff168173ffffffffffffffffffffffffffffffffffffffff161415610535576040517f08c379a000000000000000000000000000000000000000000000000000000000815260040161052c906107d5565b60405180910390fd5b8073ffffffffffffffffffffffffffffffffffffffff1660008054906101000a900473ffffffffffffffffffffffffffffffffffffffff1673ffffffffffffffffffffffffffffffffffffffff167f8be0079c531659141344cd1fd0a4f28419497f9722a3daafe3b4186f6b6457e060405160405180910390a3806000806101000a81548173ffffffffffffffffffffffffffffffffffffffff021916908373ffffffffffffffffffffffffffffffffffffffff16021790555050565b600081359050610601816109d3565b92915050565b600081359050610616816109ea565b92915050565b60008135905061062b81610a01565b92915050565b60006020828403121561064357600080fd5b6000610651848285016105f2565b91505092915050565b6000806040838503121561066d57600080fd5b600061067b858286016105f2565b925050602061068c85828601610607565b9150509250929050565b600080604083850312156106a957600080fd5b60006106b7858286016105f2565b92505060206106c88582860161061c565b9150509250929050565b6106db81610886565b82525050565b6106ea81610898565b82525050565b60006106fd602683610875565b9150610708826108e0565b604082019050919050565b6000610720601783610875565b915061072b8261092f565b602082019050919050565b6000610743601283610875565b915061074e82610958565b602082019050919050565b6000610766602083610875565b915061077182610981565b602082019050919050565b6000610789601d83610875565b9150610794826109aa565b602082019050919050565b60006020820190506107b460008301846106d2565b92915050565b60006020820190506107cf60008301846106e1565b92915050565b600060208201905081810360008301526107ee816106f0565b9050919050565b6000602082019050818103600083015261080e81610713565b9050919050565b6000602082019050818103600083015261082e81610736565b9050919050565b6000602082019050818103600083015261084e81610759565b9050919050565b6000602082019050818103600083015261086e8161077c565b9050919050565b600082825260208201905092915050565b6000610891826108b6565b9050919050565b60008115159050919050565b60006108af82610886565b9050919050565b600073ffffffffffffffffffffffffffffffffffffffff82169050919050565b6000819050919050565b7f4f776e61626c653a206e6577206f776e657220697320746865207a65726f206160008201527f6464726573730000000000000000000000000000000000000000000000000000602082015250565b7f43616c6c65642067657420737572766579206e616d6573000000000000000000600082015250565b7f43616c6c6564206f70656e207375727665790000000000000000000000000000600082015250565b7f4f776e61626c653a2063616c6c6572206973206e6f7420746865206f776e6572600082015250565b7f43616c6c6564207375626d69742073757276657920726573706f6e7365000000600082015250565b6109dc81610886565b81146109e757600080fd5b50565b6109f3816108a4565b81146109fe57600080fd5b50565b610a0a816108d6565b8114610a1557600080fd5b5056fea26469706673582212200df11faca3915f8ac6ea20a3169a83679ef537eeb158adcaf14811a78cc701ff64736f6c63430008040033608060405234801561001057600080fd5b50336000806101000a81548173ffffffffffffffffffffffffffffffffffffffff021916908373ffffffffffffffffffffffffffffffffffffffff16021790555060008054906101000a900473ffffffffffffffffffffffffffffffffffffffff1673ffffffffffffffffffffffffffffffffffffffff16600073ffffffffffffffffffffffffffffffffffffffff167f8be0079c531659141344cd1fd0a4f28419497f9722a3daafe3b4186f6b6457e060405160405180910390a360006004819055506112d5806100e36000396000f3fe608060405234801561001057600080fd5b506004361061007d5760003560e01c80638da5cb5b1161005b5780638da5cb5b146100db5780638f32d59b146100f9578063c53fb61314610117578063f2fde38b146101335761007d565b806341cf9dc314610082578063715018a6146100b35780637a1bc375146100bd575b600080fd5b61009c60048036038101906100979190610b2e565b61014f565b6040516100aa929190610de7565b60405180910390f35b6100bb610364565b005b6100c5610469565b6040516100d29190610dc5565b60405180910390f35b6100e3610541565b6040516100f09190610daa565b60405180910390f35b61010161056a565b60405161010e9190610e1e565b60405180910390f35b610131600480360381019061012c9190610b2e565b6105c1565b005b61014d60048036038101906101489190610a99565b61072c565b005b60608061015a61056a565b610199576040517f08c379a000000000000000000000000000000000000000000000000000000000815260040161019090610e79565b60405180910390fd5b6001800160008473ffffffffffffffffffffffffffffffffffffffff1673ffffffffffffffffffffffffffffffffffffffff16815260200190815260200160002060009054906101000a900460ff16610227576040517f08c379a000000000000000000000000000000000000000000000000000000000815260040161021e90610e59565b60405180910390fd5b6000600160020160008573ffffffffffffffffffffffffffffffffffffffff1673ffffffffffffffffffffffffffffffffffffffff168152602001908152602001600020549050600160000181815481106102ab577f4e487b7100000000000000000000000000000000000000000000000000000000600052603260045260246000fd5b9060005260206000200160009054906101000a900473ffffffffffffffffffffffffffffffffffffffff1673ffffffffffffffffffffffffffffffffffffffff1663074fa7416040518163ffffffff1660e01b8152600401600060405180830381600087803b15801561031d57600080fd5b505af1158015610331573d6000803e3d6000fd5b505050506040513d6000823e3d601f19601f8201168201806040525081019061035a9190610ac2565b9250925050915091565b61036c61056a565b6103ab576040517f08c379a00000000000000000000000000000000000000000000000000000000081526004016103a290610e79565b60405180910390fd5b600073ffffffffffffffffffffffffffffffffffffffff1660008054906101000a900473ffffffffffffffffffffffffffffffffffffffff1673ffffffffffffffffffffffffffffffffffffffff167f8be0079c531659141344cd1fd0a4f28419497f9722a3daafe3b4186f6b6457e060405160405180910390a360008060006101000a81548173ffffffffffffffffffffffffffffffffffffffff021916908373ffffffffffffffffffffffffffffffffffffffff160217905550565b606061047361056a565b6104b2576040517f08c379a00000000000000000000000000000000000000000000000000000000081526004016104a990610e79565b60405180910390fd5b600160000180548060200260200160405190810160405280929190818152602001828054801561053757602002820191906000526020600020905b8160009054906101000a900473ffffffffffffffffffffffffffffffffffffffff1673ffffffffffffffffffffffffffffffffffffffff16815260200190600101908083116104ed575b5050505050905090565b60008060009054906101000a900473ffffffffffffffffffffffffffffffffffffffff16905090565b60008060009054906101000a900473ffffffffffffffffffffffffffffffffffffffff1673ffffffffffffffffffffffffffffffffffffffff163373ffffffffffffffffffffffffffffffffffffffff1614905090565b6105c961056a565b610608576040517f08c379a00000000000000000000000000000000000000000000000000000000081526004016105ff90610e79565b60405180910390fd5b6001600001819080600181540180825580915050600190039060005260206000200160009091909190916101000a81548173ffffffffffffffffffffffffffffffffffffffff021916908373ffffffffffffffffffffffffffffffffffffffff16021790555060018060010160008373ffffffffffffffffffffffffffffffffffffffff1673ffffffffffffffffffffffffffffffffffffffff16815260200190815260200160002060006101000a81548160ff021916908315150217905550600454600160020160008373ffffffffffffffffffffffffffffffffffffffff1673ffffffffffffffffffffffffffffffffffffffff168152602001908152602001600020819055506004600081548092919061072490611101565b919050555050565b61073461056a565b610773576040517f08c379a000000000000000000000000000000000000000000000000000000000815260040161076a90610e79565b60405180910390fd5b61077c8161077f565b50565b600073ffffffffffffffffffffffffffffffffffffffff168173ffffffffffffffffffffffffffffffffffffffff1614156107ef576040517f08c379a00000000000000000000000000000000000000000000000000000000081526004016107e690610e39565b60405180910390fd5b8073ffffffffffffffffffffffffffffffffffffffff1660008054906101000a900473ffffffffffffffffffffffffffffffffffffffff1673ffffffffffffffffffffffffffffffffffffffff167f8be0079c531659141344cd1fd0a4f28419497f9722a3daafe3b4186f6b6457e060405160405180910390a3806000806101000a81548173ffffffffffffffffffffffffffffffffffffffff021916908373ffffffffffffffffffffffffffffffffffffffff16021790555050565b60006108bf6108ba84610ebe565b610e99565b905080838252602082019050828560208602820111156108de57600080fd5b60005b8581101561092857815167ffffffffffffffff81111561090057600080fd5b80860161090d8982610a5a565b855260208501945060208401935050506001810190506108e1565b5050509392505050565b600061094561094084610eea565b610e99565b9050808382526020820190508285602086028201111561096457600080fd5b60005b85811015610994578161097a8882610a84565b845260208401935060208301925050600181019050610967565b5050509392505050565b60006109b16109ac84610f16565b610e99565b9050828152602081018484840111156109c957600080fd5b6109d484828561109d565b509392505050565b6000813590506109eb8161125a565b92915050565b600082601f830112610a0257600080fd5b8151610a128482602086016108ac565b91505092915050565b600082601f830112610a2c57600080fd5b8151610a3c848260208601610932565b91505092915050565b600081359050610a5481611271565b92915050565b600082601f830112610a6b57600080fd5b8151610a7b84826020860161099e565b91505092915050565b600081519050610a9381611288565b92915050565b600060208284031215610aab57600080fd5b6000610ab9848285016109dc565b91505092915050565b60008060408385031215610ad557600080fd5b600083015167ffffffffffffffff811115610aef57600080fd5b610afb858286016109f1565b925050602083015167ffffffffffffffff811115610b1857600080fd5b610b2485828601610a1b565b9150509250929050565b600060208284031215610b4057600080fd5b6000610b4e84828501610a45565b91505092915050565b6000610b638383610cea565b60208301905092915050565b6000610b7b8383610cf9565b905092915050565b6000610b8f8383610d9b565b60208301905092915050565b610ba48161101f565b82525050565b6000610bb582610f77565b610bbf8185610fca565b9350610bca83610f47565b8060005b83811015610bfb578151610be28882610b57565b9750610bed83610fa3565b925050600181019050610bce565b5085935050505092915050565b6000610c1382610f82565b610c1d8185610fdb565b935083602082028501610c2f85610f57565b8060005b85811015610c6b5784840389528151610c4c8582610b6f565b9450610c5783610fb0565b925060208a01995050600181019050610c33565b50829750879550505050505092915050565b6000610c8882610f8d565b610c928185610fec565b9350610c9d83610f67565b8060005b83811015610cce578151610cb58882610b83565b9750610cc083610fbd565b925050600181019050610ca1565b5085935050505092915050565b610ce481611031565b82525050565b610cf381611079565b82525050565b6000610d0482610f98565b610d0e8185610ffd565b9350610d1e81856020860161109d565b610d27816111a8565b840191505092915050565b6000610d3f60268361100e565b9150610d4a826111b9565b604082019050919050565b6000610d6260158361100e565b9150610d6d82611208565b602082019050919050565b6000610d8560208361100e565b9150610d9082611231565b602082019050919050565b610da48161106f565b82525050565b6000602082019050610dbf6000830184610b9b565b92915050565b60006020820190508181036000830152610ddf8184610baa565b905092915050565b60006040820190508181036000830152610e018185610c08565b90508181036020830152610e158184610c7d565b90509392505050565b6000602082019050610e336000830184610cdb565b92915050565b60006020820190508181036000830152610e5281610d32565b9050919050565b60006020820190508181036000830152610e7281610d55565b9050919050565b60006020820190508181036000830152610e9281610d78565b9050919050565b6000610ea3610eb4565b9050610eaf82826110d0565b919050565b6000604051905090565b600067ffffffffffffffff821115610ed957610ed8611179565b5b602082029050602081019050919050565b600067ffffffffffffffff821115610f0557610f04611179565b5b602082029050602081019050919050565b600067ffffffffffffffff821115610f3157610f30611179565b5b610f3a826111a8565b9050602081019050919050565b6000819050602082019050919050565b6000819050602082019050919050565b6000819050602082019050919050565b600081519050919050565b600081519050919050565b600081519050919050565b600081519050919050565b6000602082019050919050565b6000602082019050919050565b6000602082019050919050565b600082825260208201905092915050565b600082825260208201905092915050565b600082825260208201905092915050565b600082825260208201905092915050565b600082825260208201905092915050565b600061102a8261104f565b9050919050565b60008115159050919050565b60006110488261101f565b9050919050565b600073ffffffffffffffffffffffffffffffffffffffff82169050919050565b6000819050919050565b60006110848261108b565b9050919050565b60006110968261104f565b9050919050565b60005b838110156110bb5780820151818401526020810190506110a0565b838111156110ca576000848401525b50505050565b6110d9826111a8565b810181811067ffffffffffffffff821117156110f8576110f7611179565b5b80604052505050565b600061110c8261106f565b91507fffffffffffffffffffffffffffffffffffffffffffffffffffffffffffffffff82141561113f5761113e61114a565b5b600182019050919050565b7f4e487b7100000000000000000000000000000000000000000000000000000000600052601160045260246000fd5b7f4e487b7100000000000000000000000000000000000000000000000000000000600052604160045260246000fd5b6000601f19601f8301169050919050565b7f4f776e61626c653a206e6577206f776e657220697320746865207a65726f206160008201527f6464726573730000000000000000000000000000000000000000000000000000602082015250565b7f53757276657920646f6573206e6f742065786973740000000000000000000000600082015250565b7f4f776e61626c653a2063616c6c6572206973206e6f7420746865206f776e6572600082015250565b6112638161101f565b811461126e57600080fd5b50565b61127a8161103d565b811461128557600080fd5b50565b6112918161106f565b811461129c57600080fd5b5056fea26469706673582212207f43f5a7a06312d103072cfc2d986a0c8f862fb111df9b0f789cf8da9e0a6be864736f6c63430008040033436f6d706c6574656420616464696e672073757276657920746f20726573756c74732076696577a26469706673582212200d6dbc14facc55d6349b20804a0a542b93d12102e38c9ffa516736567fefc99c64736f6c63430008040033608060405234801561001057600080fd5b50613716806100206000396000f3fe60806040523480156200001157600080fd5b50600436106200002e5760003560e01c8063e0d494e41462000033575b600080fd5b6200005160048036038101906200004b9190620003df565b62000069565b6040516200006091906200076b565b60405180910390f35b6000620000ab6040518060400160405280600d81526020017f496e20666163746f72792e2e2e00000000000000000000000000000000000000815250620001f6565b60008a8a8a8a8a8a8a8a604051620000c390620002bc565b620000d6989796959493929190620006f3565b604051809103906000f080158015620000f3573d6000803e3d6000fd5b5090508073ffffffffffffffffffffffffffffffffffffffff1663f2fde38b846040518263ffffffff1660e01b8152600401620001319190620006d6565b600060405180830381600087803b1580156200014c57600080fd5b505af115801562000161573d6000803e3d6000fd5b50505050620001a56040518060400160405280601781526020017f6265666f726520736574207570206e756c6c6966696572000000000000000000815250620001f6565b620001e56040518060400160405280601681526020017f616674657220736574207570206e756c6c696669657200000000000000000000815250620001f6565b809150509998505050505050505050565b62000290816040516024016200020d919062000788565b6040516020818303038152906040527f41304fac000000000000000000000000000000000000000000000000000000007bffffffffffffffffffffffffffffffffffffffffffffffffffffffff19166020820180517bffffffffffffffffffffffffffffffffffffffffffffffffffffffff838183161783525050505062000293565b50565b60008151905060006a636f6e736f6c652e6c6f679050602083016000808483855afa5050505050565b612d54806200098d83390190565b600081359050620002db8162000958565b92915050565b60008083601f840112620002f457600080fd5b8235905067ffffffffffffffff8111156200030e57600080fd5b6020830191508360208202830111156200032757600080fd5b9250929050565b60008083601f8401126200034157600080fd5b8235905067ffffffffffffffff8111156200035b57600080fd5b6020830191508360208202830111156200037457600080fd5b9250929050565b60008083601f8401126200038e57600080fd5b8235905067ffffffffffffffff811115620003a857600080fd5b602083019150836001820283011115620003c157600080fd5b9250929050565b600081359050620003d98162000972565b92915050565b600080600080600080600080600060c08a8c031215620003fe57600080fd5b60008a013567ffffffffffffffff8111156200041957600080fd5b620004278c828d016200032e565b995099505060208a013567ffffffffffffffff8111156200044757600080fd5b620004558c828d01620002e1565b975097505060406200046a8c828d01620003c8565b95505060608a013567ffffffffffffffff8111156200048857600080fd5b620004968c828d016200037b565b94509450506080620004ab8c828d01620002ca565b92505060a0620004be8c828d01620002ca565b9150509295985092959850929598565b6000620004dc838362000500565b60208301905092915050565b6000620004f78484846200061e565b90509392505050565b6200050b816200089c565b82525050565b6200051c816200089c565b82525050565b6000620005308385620007e5565b93506200053d82620007ac565b8060005b858110156200057e5762000556828462000829565b620005628882620004ce565b97506200056f83620007cb565b92505060018101905062000541565b5085925050509392505050565b6000620005998385620007f6565b935083602084028501620005ad84620007b6565b8060005b87811015620005fb578484038952620005cb828462000842565b620005d8868284620004e8565b9550620005e584620007d8565b935060208b019a505050600181019050620005b1565b50829750879450505050509392505050565b6200061881620008da565b82525050565b60006200062c838562000807565b93506200063b83858462000902565b620006468362000947565b840190509392505050565b60006200065f838562000818565b93506200066e83858462000902565b620006798362000947565b840190509392505050565b60006200069182620007c0565b6200069d818562000818565b9350620006af81856020860162000911565b620006ba8162000947565b840191505092915050565b620006d081620008d0565b82525050565b6000602082019050620006ed600083018462000511565b92915050565b600060a082019050818103600083015262000710818a8c6200058b565b905081810360208301526200072781888a62000522565b9050620007386040830187620006c5565b81810360608301526200074d81858762000651565b90506200075e608083018462000511565b9998505050505050505050565b60006020820190506200078260008301846200060d565b92915050565b60006020820190508181036000830152620007a4818462000684565b905092915050565b6000819050919050565b6000819050919050565b600081519050919050565b6000602082019050919050565b6000602082019050919050565b600082825260208201905092915050565b600082825260208201905092915050565b600082825260208201905092915050565b600082825260208201905092915050565b60006200083a6020840184620002ca565b905092915050565b600080833560016020038436030381126200085c57600080fd5b83810192508235915060208301925067ffffffffffffffff8211156200088157600080fd5b6001820236038413156200089457600080fd5b509250929050565b6000620008a982620008b0565b9050919050565b600073ffffffffffffffffffffffffffffffffffffffff82169050919050565b6000819050919050565b6000620008e782620008ee565b9050919050565b6000620008fb82620008b0565b9050919050565b82818337600083830152505050565b60005b838110156200093157808201518184015260208101905062000914565b8381111562000941576000848401525b50505050565b6000601f19601f8301169050919050565b62000963816200089c565b81146200096f57600080fd5b50565b6200097d81620008d0565b81146200098957600080fd5b5056fe60806040523480156200001157600080fd5b5060405162002d5438038062002d5483398181016040528101906200003791906200074f565b336000806101000a81548173ffffffffffffffffffffffffffffffffffffffff021916908373ffffffffffffffffffffffffffffffffffffffff16021790555060008054906101000a900473ffffffffffffffffffffffffffffffffffffffff1673ffffffffffffffffffffffffffffffffffffffff16600073ffffffffffffffffffffffffffffffffffffffff167f8be0079c531659141344cd1fd0a4f28419497f9722a3daafe3b4186f6b6457e060405160405180910390a36200012160405180606001604052806022815260200162002d32602291396200027060201b62000d2f1760201c565b84600a60010190805190602001906200013c9291906200033c565b5060005b8551811015620001e357600086828151811062000186577f4e487b7100000000000000000000000000000000000000000000000000000000600052603260045260246000fd5b602002602001015190506001600a60000182604051620001a7919062000894565b908152602001604051809103902060006101000a81548160ff021916908315150217905550508080620001da9062000a95565b91505062000140565b50826005819055504260048190555080600260006101000a81548173ffffffffffffffffffffffffffffffffffffffff021916908373ffffffffffffffffffffffffffffffffffffffff16021790555083600690805190602001906200024b929190620003a3565b5081600190805190602001906200026492919062000432565b50505050505062000bb5565b6200031081604051602401620002879190620008ad565b6040516020818303038152906040527f41304fac000000000000000000000000000000000000000000000000000000007bffffffffffffffffffffffffffffffffffffffffffffffffffffffff19166020820180517bffffffffffffffffffffffffffffffffffffffffffffffffffffffff83818316178352505050506200031360201b60201c565b50565b60008151905060006a636f6e736f6c652e6c6f679050602083016000808483855afa5050505050565b82805482825590600052602060002090810192821562000390579160200282015b828111156200038f5782518290805190602001906200037e92919062000432565b50916020019190600101906200035d565b5b5090506200039f9190620004c3565b5090565b8280548282559060005260206000209081019282156200041f579160200282015b828111156200041e5782518260006101000a81548173ffffffffffffffffffffffffffffffffffffffff021916908373ffffffffffffffffffffffffffffffffffffffff16021790555091602001919060010190620003c4565b5b5090506200042e9190620004eb565b5090565b828054620004409062000a29565b90600052602060002090601f016020900481019282620004645760008555620004b0565b82601f106200047f57805160ff1916838001178555620004b0565b82800160010185558215620004b0579182015b82811115620004af57825182559160200191906001019062000492565b5b509050620004bf9190620004eb565b5090565b5b80821115620004e75760008181620004dd91906200050a565b50600101620004c4565b5090565b5b8082111562000506576000816000905550600101620004ec565b5090565b508054620005189062000a29565b6000825580601f106200052c57506200054d565b601f0160209004906000526020600020908101906200054c9190620004eb565b5b50565b6000620005676200056184620008fa565b620008d1565b905080838252602082019050828560208602820111156200058757600080fd5b60005b85811015620005bb5781620005a088826200069a565b8452602084019350602083019250506001810190506200058a565b5050509392505050565b6000620005dc620005d68462000929565b620008d1565b90508083825260208201905082856020860282011115620005fc57600080fd5b60005b858110156200064b57815167ffffffffffffffff8111156200062057600080fd5b8086016200062f89826200070b565b85526020850194506020840193505050600181019050620005ff565b5050509392505050565b60006200066c620006668462000958565b620008d1565b9050828152602081018484840111156200068557600080fd5b62000692848285620009f3565b509392505050565b600081519050620006ab8162000b81565b92915050565b600082601f830112620006c357600080fd5b8151620006d584826020860162000550565b91505092915050565b600082601f830112620006f057600080fd5b815162000702848260208601620005c5565b91505092915050565b600082601f8301126200071d57600080fd5b81516200072f84826020860162000655565b91505092915050565b600081519050620007498162000b9b565b92915050565b600080600080600060a086880312156200076857600080fd5b600086015167ffffffffffffffff8111156200078357600080fd5b6200079188828901620006de565b955050602086015167ffffffffffffffff811115620007af57600080fd5b620007bd88828901620006b1565b9450506040620007d08882890162000738565b935050606086015167ffffffffffffffff811115620007ee57600080fd5b620007fc888289016200070b565b92505060806200080f888289016200069a565b9150509295509295909350565b600062000829826200098e565b62000835818562000999565b935062000847818560208601620009f3565b620008528162000b70565b840191505092915050565b60006200086a826200098e565b620008768185620009aa565b935062000888818560208601620009f3565b80840191505092915050565b6000620008a282846200085d565b915081905092915050565b60006020820190508181036000830152620008c981846200081c565b905092915050565b6000620008dd620008f0565b9050620008eb828262000a5f565b919050565b6000604051905090565b600067ffffffffffffffff82111562000918576200091762000b41565b5b602082029050602081019050919050565b600067ffffffffffffffff82111562000947576200094662000b41565b5b602082029050602081019050919050565b600067ffffffffffffffff82111562000976576200097562000b41565b5b620009818262000b70565b9050602081019050919050565b600081519050919050565b600082825260208201905092915050565b600081905092915050565b6000620009c282620009c9565b9050919050565b600073ffffffffffffffffffffffffffffffffffffffff82169050919050565b6000819050919050565b60005b8381101562000a13578082015181840152602081019050620009f6565b8381111562000a23576000848401525b50505050565b6000600282049050600182168062000a4257607f821691505b6020821081141562000a595762000a5862000b12565b5b50919050565b62000a6a8262000b70565b810181811067ffffffffffffffff8211171562000a8c5762000a8b62000b41565b5b80604052505050565b600062000aa282620009e9565b91507fffffffffffffffffffffffffffffffffffffffffffffffffffffffffffffffff82141562000ad85762000ad762000ae3565b5b600182019050919050565b7f4e487b7100000000000000000000000000000000000000000000000000000000600052601160045260246000fd5b7f4e487b7100000000000000000000000000000000000000000000000000000000600052602260045260246000fd5b7f4e487b7100000000000000000000000000000000000000000000000000000000600052604160045260246000fd5b6000601f19601f8301169050919050565b62000b8c81620009b5565b811462000b9857600080fd5b50565b62000ba681620009e9565b811462000bb257600080fd5b50565b61216d8062000bc56000396000f3fe608060405234801561001057600080fd5b50600436106100935760003560e01c80638da5cb5b116100665780638da5cb5b146100e75780638f32d59b14610105578063cf4ae8fb14610123578063df2e808f14610141578063f2fde38b1461015d57610093565b8063074fa741146100985780636d80efca146100b7578063715018a6146100d357806377144137146100dd575b600080fd5b6100a0610179565b6040516100ae929190611a0c565b60405180910390f35b6100d160048036038101906100cc9190611686565b61048e565b005b6100db61059a565b005b6100e561069f565b005b6100ef610822565b6040516100fc91906119cf565b60405180910390f35b61010d61084b565b60405161011a9190611a43565b60405180910390f35b61012b6108a2565b60405161013891906119ea565b60405180910390f35b61015b600480360381019061015691906115b2565b61097e565b005b61017760048036038101906101729190611589565b610cdc565b005b60608061018461084b565b6101c3576040517f08c379a00000000000000000000000000000000000000000000000000000000081526004016101ba90611b3e565b60405180910390fd5b600073ffffffffffffffffffffffffffffffffffffffff16600260009054906101000a900473ffffffffffffffffffffffffffffffffffffffff1673ffffffffffffffffffffffffffffffffffffffff161415610255576040517f08c379a000000000000000000000000000000000000000000000000000000000815260040161024c90611b1e565b60405180910390fd5b61025d610dc8565b60055460045461026d9190611d8c565b421115610359576060600a6001018181805480602002602001604051908101604052809291908181526020016000905b828210156103495783829060005260206000200180546102bc90611ec6565b80601f01602080910402602001604051908101604052809291908181526020018280546102e890611ec6565b80156103355780601f1061030a57610100808354040283529160200191610335565b820191906000526020600020905b81548152906001019060200180831161031857829003601f168201915b50505050508152602001906001019061029d565b505050509150925092505061048a565b600a600101600981805480602002602001604051908101604052809291908181526020016000905b8282101561042d5783829060005260206000200180546103a090611ec6565b80601f01602080910402602001604051908101604052809291908181526020018280546103cc90611ec6565b80156104195780601f106103ee57610100808354040283529160200191610419565b820191906000526020600020905b8154815290600101906020018083116103fc57829003601f168201915b505050505081526020019060010190610381565b5050505091508080548060200260200160405190810160405280929190818152602001828054801561047e57602002820191906000526020600020905b81548152602001906001019080831161046a575b50505050509050915091505b9091565b6104cc6040518060400160405280601c81526020017f5375727665793a737461727420696e73657274206964656e7469747900000000815250610d2f565b600260009054906101000a900473ffffffffffffffffffffffffffffffffffffffff1673ffffffffffffffffffffffffffffffffffffffff16636d80efca826040518263ffffffff1660e01b81526004016105279190611b79565b600060405180830381600087803b15801561054157600080fd5b505af1158015610555573d6000803e3d6000fd5b505050506105976040518060400160405280601f81526020017f5375727665793a636f6d706c65746520696e73657274206964656e7469747900815250610d2f565b50565b6105a261084b565b6105e1576040517f08c379a00000000000000000000000000000000000000000000000000000000081526004016105d890611b3e565b60405180910390fd5b600073ffffffffffffffffffffffffffffffffffffffff1660008054906101000a900473ffffffffffffffffffffffffffffffffffffffff1673ffffffffffffffffffffffffffffffffffffffff167f8be0079c531659141344cd1fd0a4f28419497f9722a3daafe3b4186f6b6457e060405160405180910390a360008060006101000a81548173ffffffffffffffffffffffffffffffffffffffff021916908373ffffffffffffffffffffffffffffffffffffffff160217905550565b6106a761084b565b6106e6576040517f08c379a00000000000000000000000000000000000000000000000000000000081526004016106dd90611b3e565b60405180910390fd5b6000306040516020016106f991906119cf565b6040516020818303038152906040529050808051906020012060001c600360006101000a8154817cffffffffffffffffffffffffffffffffffffffffffffffffffffffffff02191690837cffffffffffffffffffffffffffffffffffffffffffffffffffffffffff160217905550600260009054906101000a900473ffffffffffffffffffffffffffffffffffffffff1673ffffffffffffffffffffffffffffffffffffffff1663539f38b2600360009054906101000a90047cffffffffffffffffffffffffffffffffffffffffffffffffffffffffff166040518263ffffffff1660e01b81526004016107ed9190611b5e565b600060405180830381600087803b15801561080757600080fd5b505af115801561081b573d6000803e3d6000fd5b5050505050565b60008060009054906101000a900473ffffffffffffffffffffffffffffffffffffffff16905090565b60008060009054906101000a900473ffffffffffffffffffffffffffffffffffffffff1673ffffffffffffffffffffffffffffffffffffffff163373ffffffffffffffffffffffffffffffffffffffff1614905090565b6060600a600101805480602002602001604051908101604052809291908181526020016000905b828210156109755783829060005260206000200180546108e890611ec6565b80601f016020809104026020016040519081016040528092919081815260200182805461091490611ec6565b80156109615780601f1061093657610100808354040283529160200191610961565b820191906000526020600020905b81548152906001019060200180831161094457829003601f168201915b5050505050815260200190600101906108c9565b50505050905090565b600073ffffffffffffffffffffffffffffffffffffffff16600260009054906101000a900473ffffffffffffffffffffffffffffffffffffffff1673ffffffffffffffffffffffffffffffffffffffff161415610a10576040517f08c379a0000000000000000000000000000000000000000000000000000000008152600401610a0790611b1e565b60405180910390fd5b610a1a8686610fd4565b15610a5a576040517f08c379a0000000000000000000000000000000000000000000000000000000008152600401610a5190611ade565b60405180910390fd5b600260009054906101000a900473ffffffffffffffffffffffffffffffffffffffff1673ffffffffffffffffffffffffffffffffffffffff16630e57596f85858585600360009054906101000a90047cffffffffffffffffffffffffffffffffffffffffffffffffffffffffff166040518663ffffffff1660e01b8152600401610ae8959493929190611a5e565b600060405180830381600087803b158015610b0257600080fd5b505af1158015610b16573d6000803e3d6000fd5b5050505060086000815480929190610b2d90611f29565b919050555060005b600a60010180549050811015610cb8576000600a6001018281548110610b84577f4e487b7100000000000000000000000000000000000000000000000000000000600052603260045260246000fd5b906000526020600020018054610b9990611ec6565b80601f0160208091040260200160405190810160405280929190818152602001828054610bc590611ec6565b8015610c125780601f10610be757610100808354040283529160200191610c12565b820191906000526020600020905b815481529060010190602001808311610bf557829003601f168201915b505050505090506000878381518110610c54577f4e487b7100000000000000000000000000000000000000000000000000000000600052603260045260246000fd5b60200260200101519050600782604051610c6e91906119b8565b908152602001604051809103902081908060018154018082558091505060019003906000526020600020016000909190919091505550508080610cb090611f29565b915050610b35565b506001600c60006101000a81548160ff021916908315150217905550505050505050565b610ce461084b565b610d23576040517f08c379a0000000000000000000000000000000000000000000000000000000008152600401610d1a90611b3e565b60405180910390fd5b610d2c816110b7565b50565b610dc581604051602401610d439190611abc565b6040516020818303038152906040527f41304fac000000000000000000000000000000000000000000000000000000007bffffffffffffffffffffffffffffffffffffffffffffffffffffffff19166020820180517bffffffffffffffffffffffffffffffffffffffffffffffffffffffff83818316178352505050506111e4565b50565b600c60009054906101000a900460ff161580610df25750600554600454610def9190611d8c565b42115b15610dfc57610fd2565b60096000610e0a9190611281565b60005b600a60010180549050811015610fb5576000600a6001018281548110610e5c577f4e487b7100000000000000000000000000000000000000000000000000000000600052603260045260246000fd5b906000526020600020018054610e7190611ec6565b80601f0160208091040260200160405190810160405280929190818152602001828054610e9d90611ec6565b8015610eea5780601f10610ebf57610100808354040283529160200191610eea565b820191906000526020600020905b815481529060010190602001808311610ecd57829003601f168201915b505050505090506000600854610f6b600784604051610f0991906119b8565b9081526020016040518091039020805480602002602001604051908101604052809291908181526020018280548015610f6157602002820191906000526020600020905b815481526020019060010190808311610f4d575b505050505061120d565b610f759190611de2565b9050600981908060018154018082558091505060019003906000526020600020016000909190919091505550508080610fad90611f29565b915050610e0d565b506000600c60006101000a81548160ff0219169083151502179055505b565b6000600a60010180549050835114610fef57600090506110b1565b600a6001018054905082511461100857600090506110b1565b60005b83518110156110ab57600084828151811061104f577f4e487b7100000000000000000000000000000000000000000000000000000000600052603260045260246000fd5b60200260200101519050600a6000018160405161106c91906119b8565b908152602001604051809103902060009054906101000a900460ff16611097576000925050506110b1565b5080806110a390611f29565b91505061100b565b50600190505b92915050565b600073ffffffffffffffffffffffffffffffffffffffff168173ffffffffffffffffffffffffffffffffffffffff161415611127576040517f08c379a000000000000000000000000000000000000000000000000000000000815260040161111e90611afe565b60405180910390fd5b8073ffffffffffffffffffffffffffffffffffffffff1660008054906101000a900473ffffffffffffffffffffffffffffffffffffffff1673ffffffffffffffffffffffffffffffffffffffff167f8be0079c531659141344cd1fd0a4f28419497f9722a3daafe3b4186f6b6457e060405160405180910390a3806000806101000a81548173ffffffffffffffffffffffffffffffffffffffff021916908373ffffffffffffffffffffffffffffffffffffffff16021790555050565b60008151905060006a636f6e736f6c652e6c6f679050602083016000808483855afa5050505050565b6000805b825181101561127b57828181518110611253577f4e487b7100000000000000000000000000000000000000000000000000000000600052603260045260246000fd5b6020026020010151826112669190611d8c565b9150808061127390611f29565b915050611211565b50919050565b508054600082559060005260206000209081019061129f91906112a2565b50565b5b808211156112bb5760008160009055506001016112a3565b5090565b60006112d26112cd84611bb9565b611b94565b905080838252602082019050828560208602820111156112f157600080fd5b60005b8581101561133b57813567ffffffffffffffff81111561131357600080fd5b808601611320898261154a565b855260208501945060208401935050506001810190506112f4565b5050509392505050565b600061135861135384611be5565b611b94565b9050808285602086028201111561136e57600080fd5b60005b8581101561139e57816113848882611574565b845260208401935060208301925050600181019050611371565b5050509392505050565b60006113bb6113b684611c0b565b611b94565b905080838252602082019050828560208602820111156113da57600080fd5b60005b8581101561140a57816113f08882611574565b8452602084019350602083019250506001810190506113dd565b5050509392505050565b600061142761142284611c37565b611b94565b90508281526020810184848401111561143f57600080fd5b61144a848285611e84565b509392505050565b600061146561146084611c68565b611b94565b90508281526020810184848401111561147d57600080fd5b611488848285611e84565b509392505050565b60008135905061149f81612109565b92915050565b600082601f8301126114b657600080fd5b81356114c68482602086016112bf565b91505092915050565b600082601f8301126114e057600080fd5b60086114ed848285611345565b91505092915050565b600082601f83011261150757600080fd5b81356115178482602086016113a8565b91505092915050565b600082601f83011261153157600080fd5b8135611541848260208601611414565b91505092915050565b600082601f83011261155b57600080fd5b813561156b848260208601611452565b91505092915050565b60008135905061158381612120565b92915050565b60006020828403121561159b57600080fd5b60006115a984828501611490565b91505092915050565b6000806000806000806101a087890312156115cc57600080fd5b600087013567ffffffffffffffff8111156115e657600080fd5b6115f289828a016114a5565b965050602087013567ffffffffffffffff81111561160f57600080fd5b61161b89828a016114f6565b955050604087013567ffffffffffffffff81111561163857600080fd5b61164489828a01611520565b945050606061165589828a016114cf565b93505061016061166789828a01611574565b92505061018061167989828a01611574565b9150509295509295509295565b60006020828403121561169857600080fd5b60006116a684828501611574565b91505092915050565b60006116bb838361185c565b905092915050565b60006116cf838361199a565b60208301905092915050565b6116e481611e13565b82525050565b60006116f582611cc3565b6116ff8185611d21565b93508360208202850161171185611c99565b8060005b8581101561174d578484038952815161172e85826116af565b945061173983611cfa565b925060208a01995050600181019050611715565b50829750879550505050505092915050565b61176881611cce565b6117728184611d32565b925061177d82611ca9565b8060005b838110156117ae57815161179587826116c3565b96506117a083611d07565b925050600181019050611781565b505050505050565b60006117c182611cd9565b6117cb8185611d3d565b93506117d683611cb3565b8060005b838110156118075781516117ee88826116c3565b97506117f983611d14565b9250506001810190506117da565b5085935050505092915050565b61181d81611e25565b82525050565b600061182e82611ce4565b6118388185611d4e565b9350611848818560208601611e93565b6118518161202e565b840191505092915050565b600061186782611cef565b6118718185611d5f565b9350611881818560208601611e93565b61188a8161202e565b840191505092915050565b60006118a082611cef565b6118aa8185611d70565b93506118ba818560208601611e93565b6118c38161202e565b840191505092915050565b60006118d982611cef565b6118e38185611d81565b93506118f3818560208601611e93565b80840191505092915050565b600061190c601783611d70565b91506119178261203f565b602082019050919050565b600061192f602683611d70565b915061193a82612068565b604082019050919050565b6000611952601383611d70565b915061195d826120b7565b602082019050919050565b6000611975602083611d70565b9150611980826120e0565b602082019050919050565b61199481611e51565b82525050565b6119a381611e7a565b82525050565b6119b281611e7a565b82525050565b60006119c482846118ce565b915081905092915050565b60006020820190506119e460008301846116db565b92915050565b60006020820190508181036000830152611a0481846116ea565b905092915050565b60006040820190508181036000830152611a2681856116ea565b90508181036020830152611a3a81846117b6565b90509392505050565b6000602082019050611a586000830184611814565b92915050565b6000610180820190508181036000830152611a798188611823565b9050611a88602083018761175f565b611a966101208301866119a9565b611aa46101408301856119a9565b611ab261016083018461198b565b9695505050505050565b60006020820190508181036000830152611ad68184611895565b905092915050565b60006020820190508181036000830152611af7816118ff565b9050919050565b60006020820190508181036000830152611b1781611922565b9050919050565b60006020820190508181036000830152611b3781611945565b9050919050565b60006020820190508181036000830152611b5781611968565b9050919050565b6000602082019050611b73600083018461198b565b92915050565b6000602082019050611b8e60008301846119a9565b92915050565b6000611b9e611baf565b9050611baa8282611ef8565b919050565b6000604051905090565b600067ffffffffffffffff821115611bd457611bd3611fff565b5b602082029050602081019050919050565b600067ffffffffffffffff821115611c0057611bff611fff565b5b602082029050919050565b600067ffffffffffffffff821115611c2657611c25611fff565b5b602082029050602081019050919050565b600067ffffffffffffffff821115611c5257611c51611fff565b5b611c5b8261202e565b9050602081019050919050565b600067ffffffffffffffff821115611c8357611c82611fff565b5b611c8c8261202e565b9050602081019050919050565b6000819050602082019050919050565b6000819050919050565b6000819050602082019050919050565b600081519050919050565b600060089050919050565b600081519050919050565b600081519050919050565b600081519050919050565b6000602082019050919050565b6000602082019050919050565b6000602082019050919050565b600082825260208201905092915050565b600081905092915050565b600082825260208201905092915050565b600082825260208201905092915050565b600082825260208201905092915050565b600082825260208201905092915050565b600081905092915050565b6000611d9782611e7a565b9150611da283611e7a565b9250827fffffffffffffffffffffffffffffffffffffffffffffffffffffffffffffffff03821115611dd757611dd6611f72565b5b828201905092915050565b6000611ded82611e7a565b9150611df883611e7a565b925082611e0857611e07611fa1565b5b828204905092915050565b6000611e1e82611e31565b9050919050565b60008115159050919050565b600073ffffffffffffffffffffffffffffffffffffffff82169050919050565b60007cffffffffffffffffffffffffffffffffffffffffffffffffffffffffff82169050919050565b6000819050919050565b82818337600083830152505050565b60005b83811015611eb1578082015181840152602081019050611e96565b83811115611ec0576000848401525b50505050565b60006002820490506001821680611ede57607f821691505b60208210811415611ef257611ef1611fd0565b5b50919050565b611f018261202e565b810181811067ffffffffffffffff82111715611f2057611f1f611fff565b5b80604052505050565b6000611f3482611e7a565b91507fffffffffffffffffffffffffffffffffffffffffffffffffffffffffffffffff821415611f6757611f66611f72565b5b600182019050919050565b7f4e487b7100000000000000000000000000000000000000000000000000000000600052601160045260246000fd5b7f4e487b7100000000000000000000000000000000000000000000000000000000600052601260045260246000fd5b7f4e487b7100000000000000000000000000000000000000000000000000000000600052602260045260246000fd5b7f4e487b7100000000000000000000000000000000000000000000000000000000600052604160045260246000fd5b6000601f19601f8301169050919050565b7f5375626d697373696f6e20697320696e636f7272656374000000000000000000600082015250565b7f4f776e61626c653a206e6577206f776e657220697320746865207a65726f206160008201527f6464726573730000000000000000000000000000000000000000000000000000602082015250565b7f6d75737420686176652073656d6170686f726500000000000000000000000000600082015250565b7f4f776e61626c653a2063616c6c6572206973206e6f7420746865206f776e6572600082015250565b61211281611e13565b811461211d57600080fd5b50565b61212981611e7a565b811461213457600080fd5b5056fea264697066735822122024287ddaa9814bd4809fc929e3ad6d07c19c135588622d41ad4c405144f4da8e64736f6c63430008040033456e746572696e6720636f6e7374727563746f7220666f72207375727665792e2e2ea26469706673582212204ad4f329dc2580e20cf7eec5230015903d434d0f4fb5f3261aefd1c2b153fc0964736f6c63430008040033",
  "linkReferences": {},
  "deployedLinkReferences": {}
}