{
  "_format": "hh-sol-artifact-1",
  "contractName": "Platform",
  "sourceName": "contracts/Platform.sol",
  "abi": [
    {
      "anonymous": false,
      "inputs": [
        {
          "indexed": false,
          "internalType": "string",
          "name": "message",
          "type": "string"
        }
      ],
      "name": "complete",
      "type": "event"
    },
    {
      "anonymous": false,
      "inputs": [
        {
          "indexed": false,
          "internalType": "string",
          "name": "message",
          "type": "string"
        }
      ],
      "name": "create",
      "type": "event"
    },
    {
      "inputs": [
        {
          "internalType": "address[]",
          "name": "_participants",
          "type": "address[]"
        },
        {
          "internalType": "address",
          "name": "newSurveyAddress",
          "type": "address"
        }
      ],
      "name": "addExistingSurvey",
      "outputs": [
        {
          "internalType": "address",
          "name": "",
          "type": "address"
        }
      ],
      "stateMutability": "nonpayable",
      "type": "function"
    },
    {
      "inputs": [],
      "name": "getRespondentViewAddress",
      "outputs": [
        {
          "internalType": "address",
          "name": "",
          "type": "address"
        }
      ],
      "stateMutability": "view",
      "type": "function"
    },
    {
      "inputs": [],
      "name": "getSurveyorsResultAddress",
      "outputs": [
        {
          "internalType": "address",
          "name": "",
          "type": "address"
        }
      ],
      "stateMutability": "view",
      "type": "function"
    },
    {
      "inputs": [],
      "name": "signInAsParticipant",
      "outputs": [],
      "stateMutability": "nonpayable",
      "type": "function"
    },
    {
      "inputs": [],
      "name": "signInAsSurveyor",
      "outputs": [],
      "stateMutability": "nonpayable",
      "type": "function"
    }
  ],
  "bytecode": "0x608060405234801561001057600080fd5b50612daf806100206000396000f3fe608060405234801561001057600080fd5b50600436106100575760003560e01c806301a7733e1461005c5780630d89c058146100665780630ed3bde514610084578063aacd9b08146100a2578063f1885dc7146100d2575b600080fd5b6100646100dc565b005b61006e6103b8565b60405161007b91906109f8565b60405180910390f35b61008c61041f565b60405161009991906109f8565b60405180910390f35b6100bc60048036038101906100b79190610986565b610485565b6040516100c991906109f8565b60405180910390f35b6100da61066e565b005b600073ffffffffffffffffffffffffffffffffffffffff166000803373ffffffffffffffffffffffffffffffffffffffff1673ffffffffffffffffffffffffffffffffffffffff16815260200190815260200160002060009054906101000a900473ffffffffffffffffffffffffffffffffffffffff1673ffffffffffffffffffffffffffffffffffffffff161415610179576101783361070e565b5b6000600260003373ffffffffffffffffffffffffffffffffffffffff1673ffffffffffffffffffffffffffffffffffffffff16815260200190815260200160002080548060200260200160405190810160405280929190818152602001828054801561023a57602002820191906000526020600020905b8160009054906101000a900473ffffffffffffffffffffffffffffffffffffffff1673ffffffffffffffffffffffffffffffffffffffff16815260200190600101908083116101f0575b5050505050905060005b8151811015610369576000803373ffffffffffffffffffffffffffffffffffffffff1673ffffffffffffffffffffffffffffffffffffffff16815260200190815260200160002060009054906101000a900473ffffffffffffffffffffffffffffffffffffffff1673ffffffffffffffffffffffffffffffffffffffff1663c53fb613838381518110610300577f4e487b7100000000000000000000000000000000000000000000000000000000600052603260045260246000fd5b60200260200101516040518263ffffffff1660e01b81526004016103249190610a13565b600060405180830381600087803b15801561033e57600080fd5b505af1158015610352573d6000803e3d6000fd5b50505050808061036190610b10565b915050610244565b50600260003373ffffffffffffffffffffffffffffffffffffffff1673ffffffffffffffffffffffffffffffffffffffff16815260200190815260200160002060006103b59190610881565b50565b6000600160003373ffffffffffffffffffffffffffffffffffffffff1673ffffffffffffffffffffffffffffffffffffffff16815260200190815260200160002060009054906101000a900473ffffffffffffffffffffffffffffffffffffffff16905090565b60008060003373ffffffffffffffffffffffffffffffffffffffff1673ffffffffffffffffffffffffffffffffffffffff16815260200190815260200160002060009054906101000a900473ffffffffffffffffffffffffffffffffffffffff16905090565b600061048f61066e565b6000600160003373ffffffffffffffffffffffffffffffffffffffff1673ffffffffffffffffffffffffffffffffffffffff16815260200190815260200160002060009054906101000a900473ffffffffffffffffffffffffffffffffffffffff1690508073ffffffffffffffffffffffffffffffffffffffff1663c53fb613846040518263ffffffff1660e01b815260040161052c9190610a13565b600060405180830381600087803b15801561054657600080fd5b505af115801561055a573d6000803e3d6000fd5b5050505060005b84518110156106635760008582815181106105a5577f4e487b7100000000000000000000000000000000000000000000000000000000600052603260045260246000fd5b60200260200101519050600260008273ffffffffffffffffffffffffffffffffffffffff1673ffffffffffffffffffffffffffffffffffffffff168152602001908152602001600020859080600181540180825580915050600190039060005260206000200160009091909190916101000a81548173ffffffffffffffffffffffffffffffffffffffff021916908373ffffffffffffffffffffffffffffffffffffffff16021790555050808061065b90610b10565b915050610561565b508291505092915050565b600073ffffffffffffffffffffffffffffffffffffffff16600160003373ffffffffffffffffffffffffffffffffffffffff1673ffffffffffffffffffffffffffffffffffffffff16815260200190815260200160002060009054906101000a900473ffffffffffffffffffffffffffffffffffffffff1673ffffffffffffffffffffffffffffffffffffffff16141561070c5761070b336107c7565b5b565b60008160405161071d906108a2565b61072791906109f8565b604051809103906000f080158015610743573d6000803e3d6000fd5b509050806000808473ffffffffffffffffffffffffffffffffffffffff1673ffffffffffffffffffffffffffffffffffffffff16815260200190815260200160002060006101000a81548173ffffffffffffffffffffffffffffffffffffffff021916908373ffffffffffffffffffffffffffffffffffffffff1602179055505050565b6000816040516107d6906108b0565b6107e091906109f8565b604051809103906000f0801580156107fc573d6000803e3d6000fd5b50905080600160008473ffffffffffffffffffffffffffffffffffffffff1673ffffffffffffffffffffffffffffffffffffffff16815260200190815260200160002060006101000a81548173ffffffffffffffffffffffffffffffffffffffff021916908373ffffffffffffffffffffffffffffffffffffffff1602179055505050565b508054600082559060005260206000209081019061089f91906108be565b50565b6111278062000be083390190565b6110738062001d0783390190565b5b808211156108d75760008160009055506001016108bf565b5090565b60006108ee6108e984610a53565b610a2e565b9050808382526020820190508285602086028201111561090d57600080fd5b60005b8581101561093d57816109238882610947565b845260208401935060208301925050600181019050610910565b5050509392505050565b60008135905061095681610bc8565b92915050565b600082601f83011261096d57600080fd5b813561097d8482602086016108db565b91505092915050565b6000806040838503121561099957600080fd5b600083013567ffffffffffffffff8111156109b357600080fd5b6109bf8582860161095c565b92505060206109d085828601610947565b9150509250929050565b6109e381610a7f565b82525050565b6109f281610abb565b82525050565b6000602082019050610a0d60008301846109da565b92915050565b6000602082019050610a2860008301846109e9565b92915050565b6000610a38610a49565b9050610a448282610adf565b919050565b6000604051905090565b600067ffffffffffffffff821115610a6e57610a6d610b88565b5b602082029050602081019050919050565b6000610a8a82610a91565b9050919050565b600073ffffffffffffffffffffffffffffffffffffffff82169050919050565b6000819050919050565b6000610ac682610acd565b9050919050565b6000610ad882610a91565b9050919050565b610ae882610bb7565b810181811067ffffffffffffffff82111715610b0757610b06610b88565b5b80604052505050565b6000610b1b82610ab1565b91507fffffffffffffffffffffffffffffffffffffffffffffffffffffffffffffffff821415610b4e57610b4d610b59565b5b600182019050919050565b7f4e487b7100000000000000000000000000000000000000000000000000000000600052601160045260246000fd5b7f4e487b7100000000000000000000000000000000000000000000000000000000600052604160045260246000fd5b6000601f19601f8301169050919050565b610bd181610a7f565b8114610bdc57600080fd5b5056fe608060405234801561001057600080fd5b5060405161112738038061112783398181016040528101906100329190610149565b336000806101000a81548173ffffffffffffffffffffffffffffffffffffffff021916908373ffffffffffffffffffffffffffffffffffffffff16021790555060008054906101000a900473ffffffffffffffffffffffffffffffffffffffff1673ffffffffffffffffffffffffffffffffffffffff16600073ffffffffffffffffffffffffffffffffffffffff167f8be0079c531659141344cd1fd0a4f28419497f9722a3daafe3b4186f6b6457e060405160405180910390a380600460006101000a81548173ffffffffffffffffffffffffffffffffffffffff021916908373ffffffffffffffffffffffffffffffffffffffff160217905550506101bb565b600081519050610143816101a4565b92915050565b60006020828403121561015b57600080fd5b600061016984828501610134565b91505092915050565b600061017d82610184565b9050919050565b600073ffffffffffffffffffffffffffffffffffffffff82169050919050565b6101ad81610172565b81146101b857600080fd5b50565b610f5d806101ca6000396000f3fe608060405234801561001057600080fd5b50600436106100935760003560e01c80638f32d59b116100665780638f32d59b146100e8578063c46191c514610106578063c53fb61314610124578063e7dd7ef214610140578063f2fde38b1461015c57610093565b80633a6e60c8146100985780635af1f831146100b6578063715018a6146100c05780638da5cb5b146100ca575b600080fd5b6100a0610178565b6040516100ad9190610b75565b60405180910390f35b6100be610253565b005b6100c8610255565b005b6100d261035a565b6040516100df9190610b38565b60405180910390f35b6100f0610383565b6040516100fd9190610b97565b60405180910390f35b61010e6103da565b60405161011b9190610b53565b60405180910390f35b61013e60048036038101906101399190610923565b61046b565b005b61015a600480360381019061015591906108e7565b6105f0565b005b610176600480360381019061017191906108be565b6105f4565b005b606060018001805480602002602001604051908101604052809291908181526020016000905b8282101561024a5783829060005260206000200180546101bd90610d98565b80601f01602080910402602001604051908101604052809291908181526020018280546101e990610d98565b80156102365780601f1061020b57610100808354040283529160200191610236565b820191906000526020600020905b81548152906001019060200180831161021957829003601f168201915b50505050508152602001906001019061019e565b50505050905090565b565b61025d610383565b61029c576040517f08c379a000000000000000000000000000000000000000000000000000000000815260040161029390610bd2565b60405180910390fd5b600073ffffffffffffffffffffffffffffffffffffffff1660008054906101000a900473ffffffffffffffffffffffffffffffffffffffff1673ffffffffffffffffffffffffffffffffffffffff167f8be0079c531659141344cd1fd0a4f28419497f9722a3daafe3b4186f6b6457e060405160405180910390a360008060006101000a81548173ffffffffffffffffffffffffffffffffffffffff021916908373ffffffffffffffffffffffffffffffffffffffff160217905550565b60008060009054906101000a900473ffffffffffffffffffffffffffffffffffffffff16905090565b60008060009054906101000a900473ffffffffffffffffffffffffffffffffffffffff1673ffffffffffffffffffffffffffffffffffffffff163373ffffffffffffffffffffffffffffffffffffffff1614905090565b6060600160000180548060200260200160405190810160405280929190818152602001828054801561046157602002820191906000526020600020905b8160009054906101000a900473ffffffffffffffffffffffffffffffffffffffff1673ffffffffffffffffffffffffffffffffffffffff1681526020019060010190808311610417575b5050505050905090565b6001600001819080600181540180825580915050600190039060005260206000200160009091909190916101000a81548173ffffffffffffffffffffffffffffffffffffffff021916908373ffffffffffffffffffffffffffffffffffffffff16021790555060018060020160008373ffffffffffffffffffffffffffffffffffffffff1673ffffffffffffffffffffffffffffffffffffffff16815260200190815260200160002060006101000a81548160ff021916908315150217905550600180018173ffffffffffffffffffffffffffffffffffffffff1663260a89af6040518163ffffffff1660e01b8152600401600060405180830381600087803b15801561057757600080fd5b505af115801561058b573d6000803e3d6000fd5b505050506040513d6000823e3d601f19601f820116820180604052508101906105b4919061094c565b9080600181540180825580915050600190039060005260206000200160009091909190915090805190602001906105ec929190610774565b5050565b5050565b6105fc610383565b61063b576040517f08c379a000000000000000000000000000000000000000000000000000000000815260040161063290610bd2565b60405180910390fd5b61064481610647565b50565b600073ffffffffffffffffffffffffffffffffffffffff168173ffffffffffffffffffffffffffffffffffffffff1614156106b7576040517f08c379a00000000000000000000000000000000000000000000000000000000081526004016106ae90610bb2565b60405180910390fd5b8073ffffffffffffffffffffffffffffffffffffffff1660008054906101000a900473ffffffffffffffffffffffffffffffffffffffff1673ffffffffffffffffffffffffffffffffffffffff167f8be0079c531659141344cd1fd0a4f28419497f9722a3daafe3b4186f6b6457e060405160405180910390a3806000806101000a81548173ffffffffffffffffffffffffffffffffffffffff021916908373ffffffffffffffffffffffffffffffffffffffff16021790555050565b82805461078090610d98565b90600052602060002090601f0160209004810192826107a257600085556107e9565b82601f106107bb57805160ff19168380011785556107e9565b828001600101855582156107e9579182015b828111156107e85782518255916020019190600101906107cd565b5b5090506107f691906107fa565b5090565b5b808211156108135760008160009055506001016107fb565b5090565b600061082a61082584610c17565b610bf2565b90508281526020810184848401111561084257600080fd5b61084d848285610d65565b509392505050565b60008135905061086481610ee2565b92915050565b60008135905061087981610ef9565b92915050565b600082601f83011261089057600080fd5b81516108a0848260208601610817565b91505092915050565b6000813590506108b881610f10565b92915050565b6000602082840312156108d057600080fd5b60006108de84828501610855565b91505092915050565b600080604083850312156108fa57600080fd5b600061090885828601610855565b9250506020610919858286016108a9565b9150509250929050565b60006020828403121561093557600080fd5b60006109438482850161086a565b91505092915050565b60006020828403121561095e57600080fd5b600082015167ffffffffffffffff81111561097857600080fd5b6109848482850161087f565b91505092915050565b60006109998383610aaa565b60208301905092915050565b60006109b18383610ab9565b905092915050565b6109c281610ce7565b82525050565b60006109d382610c68565b6109dd8185610ca3565b93506109e883610c48565b8060005b83811015610a19578151610a00888261098d565b9750610a0b83610c89565b9250506001810190506109ec565b5085935050505092915050565b6000610a3182610c73565b610a3b8185610cb4565b935083602082028501610a4d85610c58565b8060005b85811015610a895784840389528151610a6a85826109a5565b9450610a7583610c96565b925060208a01995050600181019050610a51565b50829750879550505050505092915050565b610aa481610cf9565b82525050565b610ab381610d41565b82525050565b6000610ac482610c7e565b610ace8185610cc5565b9350610ade818560208601610d65565b610ae781610e59565b840191505092915050565b6000610aff602683610cd6565b9150610b0a82610e6a565b604082019050919050565b6000610b22602083610cd6565b9150610b2d82610eb9565b602082019050919050565b6000602082019050610b4d60008301846109b9565b92915050565b60006020820190508181036000830152610b6d81846109c8565b905092915050565b60006020820190508181036000830152610b8f8184610a26565b905092915050565b6000602082019050610bac6000830184610a9b565b92915050565b60006020820190508181036000830152610bcb81610af2565b9050919050565b60006020820190508181036000830152610beb81610b15565b9050919050565b6000610bfc610c0d565b9050610c088282610dca565b919050565b6000604051905090565b600067ffffffffffffffff821115610c3257610c31610e2a565b5b610c3b82610e59565b9050602081019050919050565b6000819050602082019050919050565b6000819050602082019050919050565b600081519050919050565b600081519050919050565b600081519050919050565b6000602082019050919050565b6000602082019050919050565b600082825260208201905092915050565b600082825260208201905092915050565b600082825260208201905092915050565b600082825260208201905092915050565b6000610cf282610d17565b9050919050565b60008115159050919050565b6000610d1082610ce7565b9050919050565b600073ffffffffffffffffffffffffffffffffffffffff82169050919050565b6000819050919050565b6000610d4c82610d53565b9050919050565b6000610d5e82610d17565b9050919050565b60005b83811015610d83578082015181840152602081019050610d68565b83811115610d92576000848401525b50505050565b60006002820490506001821680610db057607f821691505b60208210811415610dc457610dc3610dfb565b5b50919050565b610dd382610e59565b810181811067ffffffffffffffff82111715610df257610df1610e2a565b5b80604052505050565b7f4e487b7100000000000000000000000000000000000000000000000000000000600052602260045260246000fd5b7f4e487b7100000000000000000000000000000000000000000000000000000000600052604160045260246000fd5b6000601f19601f8301169050919050565b7f4f776e61626c653a206e6577206f776e657220697320746865207a65726f206160008201527f6464726573730000000000000000000000000000000000000000000000000000602082015250565b7f4f776e61626c653a2063616c6c6572206973206e6f7420746865206f776e6572600082015250565b610eeb81610ce7565b8114610ef657600080fd5b50565b610f0281610d05565b8114610f0d57600080fd5b50565b610f1981610d37565b8114610f2457600080fd5b5056fea264697066735822122038ede9b9bbfcfc2c68a4e4417bb3a95361758ff86f2d6841c702ee44d68a976064736f6c63430008040033608060405234801561001057600080fd5b5060405161107338038061107383398181016040528101906100329190610149565b336000806101000a81548173ffffffffffffffffffffffffffffffffffffffff021916908373ffffffffffffffffffffffffffffffffffffffff16021790555060008054906101000a900473ffffffffffffffffffffffffffffffffffffffff1673ffffffffffffffffffffffffffffffffffffffff16600073ffffffffffffffffffffffffffffffffffffffff167f8be0079c531659141344cd1fd0a4f28419497f9722a3daafe3b4186f6b6457e060405160405180910390a380600460006101000a81548173ffffffffffffffffffffffffffffffffffffffff021916908373ffffffffffffffffffffffffffffffffffffffff160217905550506101bb565b600081519050610143816101a4565b92915050565b60006020828403121561015b57600080fd5b600061016984828501610134565b91505092915050565b600061017d82610184565b9050919050565b600073ffffffffffffffffffffffffffffffffffffffff82169050919050565b6101ad81610172565b81146101b857600080fd5b50565b610ea9806101ca6000396000f3fe608060405234801561001057600080fd5b506004361061007d5760003560e01c80638f32d59b1161005b5780638f32d59b146100c8578063c46191c5146100e6578063c53fb61314610104578063f2fde38b146101205761007d565b8063715018a6146100825780637a1bc3751461008c5780638da5cb5b146100aa575b600080fd5b61008a61013c565b005b610094610241565b6040516100a19190610ae2565b60405180910390f35b6100b261031c565b6040516100bf9190610aa5565b60405180910390f35b6100d0610345565b6040516100dd9190610b04565b60405180910390f35b6100ee61039c565b6040516100fb9190610ac0565b60405180910390f35b61011e60048036038101906101199190610890565b61042d565b005b61013a60048036038101906101359190610867565b6105b2565b005b610144610345565b610183576040517f08c379a000000000000000000000000000000000000000000000000000000000815260040161017a90610b3f565b60405180910390fd5b600073ffffffffffffffffffffffffffffffffffffffff1660008054906101000a900473ffffffffffffffffffffffffffffffffffffffff1673ffffffffffffffffffffffffffffffffffffffff167f8be0079c531659141344cd1fd0a4f28419497f9722a3daafe3b4186f6b6457e060405160405180910390a360008060006101000a81548173ffffffffffffffffffffffffffffffffffffffff021916908373ffffffffffffffffffffffffffffffffffffffff160217905550565b606060018001805480602002602001604051908101604052809291908181526020016000905b8282101561031357838290600052602060002001805461028690610cfb565b80601f01602080910402602001604051908101604052809291908181526020018280546102b290610cfb565b80156102ff5780601f106102d4576101008083540402835291602001916102ff565b820191906000526020600020905b8154815290600101906020018083116102e257829003601f168201915b505050505081526020019060010190610267565b50505050905090565b60008060009054906101000a900473ffffffffffffffffffffffffffffffffffffffff16905090565b60008060009054906101000a900473ffffffffffffffffffffffffffffffffffffffff1673ffffffffffffffffffffffffffffffffffffffff163373ffffffffffffffffffffffffffffffffffffffff1614905090565b6060600160000180548060200260200160405190810160405280929190818152602001828054801561042357602002820191906000526020600020905b8160009054906101000a900473ffffffffffffffffffffffffffffffffffffffff1673ffffffffffffffffffffffffffffffffffffffff16815260200190600101908083116103d9575b5050505050905090565b6001600001819080600181540180825580915050600190039060005260206000200160009091909190916101000a81548173ffffffffffffffffffffffffffffffffffffffff021916908373ffffffffffffffffffffffffffffffffffffffff160217905550600180018173ffffffffffffffffffffffffffffffffffffffff1663260a89af6040518163ffffffff1660e01b8152600401600060405180830381600087803b1580156104df57600080fd5b505af11580156104f3573d6000803e3d6000fd5b505050506040513d6000823e3d601f19601f8201168201806040525081019061051c91906108b9565b908060018154018082558091505060019003906000526020600020016000909190919091509080519060200190610554929190610732565b5060018060020160008373ffffffffffffffffffffffffffffffffffffffff1673ffffffffffffffffffffffffffffffffffffffff16815260200190815260200160002060006101000a81548160ff02191690831515021790555050565b6105ba610345565b6105f9576040517f08c379a00000000000000000000000000000000000000000000000000000000081526004016105f090610b3f565b60405180910390fd5b61060281610605565b50565b600073ffffffffffffffffffffffffffffffffffffffff168173ffffffffffffffffffffffffffffffffffffffff161415610675576040517f08c379a000000000000000000000000000000000000000000000000000000000815260040161066c90610b1f565b60405180910390fd5b8073ffffffffffffffffffffffffffffffffffffffff1660008054906101000a900473ffffffffffffffffffffffffffffffffffffffff1673ffffffffffffffffffffffffffffffffffffffff167f8be0079c531659141344cd1fd0a4f28419497f9722a3daafe3b4186f6b6457e060405160405180910390a3806000806101000a81548173ffffffffffffffffffffffffffffffffffffffff021916908373ffffffffffffffffffffffffffffffffffffffff16021790555050565b82805461073e90610cfb565b90600052602060002090601f01602090048101928261076057600085556107a7565b82601f1061077957805160ff19168380011785556107a7565b828001600101855582156107a7579182015b828111156107a657825182559160200191906001019061078b565b5b5090506107b491906107b8565b5090565b5b808211156107d15760008160009055506001016107b9565b5090565b60006107e86107e384610b84565b610b5f565b90508281526020810184848401111561080057600080fd5b61080b848285610cc8565b509392505050565b60008135905061082281610e45565b92915050565b60008135905061083781610e5c565b92915050565b600082601f83011261084e57600080fd5b815161085e8482602086016107d5565b91505092915050565b60006020828403121561087957600080fd5b600061088784828501610813565b91505092915050565b6000602082840312156108a257600080fd5b60006108b084828501610828565b91505092915050565b6000602082840312156108cb57600080fd5b600082015167ffffffffffffffff8111156108e557600080fd5b6108f18482850161083d565b91505092915050565b60006109068383610a17565b60208301905092915050565b600061091e8383610a26565b905092915050565b61092f81610c54565b82525050565b600061094082610bd5565b61094a8185610c10565b935061095583610bb5565b8060005b8381101561098657815161096d88826108fa565b975061097883610bf6565b925050600181019050610959565b5085935050505092915050565b600061099e82610be0565b6109a88185610c21565b9350836020820285016109ba85610bc5565b8060005b858110156109f657848403895281516109d78582610912565b94506109e283610c03565b925060208a019950506001810190506109be565b50829750879550505050505092915050565b610a1181610c66565b82525050565b610a2081610ca4565b82525050565b6000610a3182610beb565b610a3b8185610c32565b9350610a4b818560208601610cc8565b610a5481610dbc565b840191505092915050565b6000610a6c602683610c43565b9150610a7782610dcd565b604082019050919050565b6000610a8f602083610c43565b9150610a9a82610e1c565b602082019050919050565b6000602082019050610aba6000830184610926565b92915050565b60006020820190508181036000830152610ada8184610935565b905092915050565b60006020820190508181036000830152610afc8184610993565b905092915050565b6000602082019050610b196000830184610a08565b92915050565b60006020820190508181036000830152610b3881610a5f565b9050919050565b60006020820190508181036000830152610b5881610a82565b9050919050565b6000610b69610b7a565b9050610b758282610d2d565b919050565b6000604051905090565b600067ffffffffffffffff821115610b9f57610b9e610d8d565b5b610ba882610dbc565b9050602081019050919050565b6000819050602082019050919050565b6000819050602082019050919050565b600081519050919050565b600081519050919050565b600081519050919050565b6000602082019050919050565b6000602082019050919050565b600082825260208201905092915050565b600082825260208201905092915050565b600082825260208201905092915050565b600082825260208201905092915050565b6000610c5f82610c84565b9050919050565b60008115159050919050565b6000610c7d82610c54565b9050919050565b600073ffffffffffffffffffffffffffffffffffffffff82169050919050565b6000610caf82610cb6565b9050919050565b6000610cc182610c84565b9050919050565b60005b83811015610ce6578082015181840152602081019050610ccb565b83811115610cf5576000848401525b50505050565b60006002820490506001821680610d1357607f821691505b60208210811415610d2757610d26610d5e565b5b50919050565b610d3682610dbc565b810181811067ffffffffffffffff82111715610d5557610d54610d8d565b5b80604052505050565b7f4e487b7100000000000000000000000000000000000000000000000000000000600052602260045260246000fd5b7f4e487b7100000000000000000000000000000000000000000000000000000000600052604160045260246000fd5b6000601f19601f8301169050919050565b7f4f776e61626c653a206e6577206f776e657220697320746865207a65726f206160008201527f6464726573730000000000000000000000000000000000000000000000000000602082015250565b7f4f776e61626c653a2063616c6c6572206973206e6f7420746865206f776e6572600082015250565b610e4e81610c54565b8114610e5957600080fd5b50565b610e6581610c72565b8114610e7057600080fd5b5056fea2646970667358221220e4764218dcbb3c574f39a5e60c561928ce831f03bf757f4615a1c5a8db994e5e64736f6c63430008040033a2646970667358221220c8c1b6c62b1c1b0747ed5b03b6d293a18de2804ffec5e5276d4a6a5485f32fac64736f6c63430008040033",
  "linkReferences": {},
  "deployedLinkReferences": {}
}