{
  "_format": "hh-sol-artifact-1",
  "contractName": "RespondentView",
  "sourceName": "contracts/RespondentView.sol",
  "abi": [
    {
      "inputs": [
        {
          "internalType": "address",
          "name": "_respondentAddress",
          "type": "address"
        }
      ],
      "stateMutability": "nonpayable",
      "type": "constructor"
    },
    {
      "anonymous": false,
      "inputs": [
        {
          "indexed": true,
          "internalType": "address",
          "name": "previousOwner",
          "type": "address"
        },
        {
          "indexed": true,
          "internalType": "address",
          "name": "newOwner",
          "type": "address"
        }
      ],
      "name": "OwnershipTransferred",
      "type": "event"
    },
    {
      "inputs": [
        {
          "internalType": "contract ISurvey",
          "name": "newSurvey",
          "type": "address"
        }
      ],
      "name": "addSurvey",
      "outputs": [],
      "stateMutability": "nonpayable",
      "type": "function"
    },
    {
      "inputs": [],
      "name": "getAllSurveyAddresses",
      "outputs": [
        {
          "internalType": "contract ISurvey[]",
          "name": "",
          "type": "address[]"
        }
      ],
      "stateMutability": "view",
      "type": "function"
    },
    {
      "inputs": [],
      "name": "getSurveyNames",
      "outputs": [
        {
          "internalType": "string[]",
          "name": "",
          "type": "string[]"
        }
      ],
      "stateMutability": "view",
      "type": "function"
    },
    {
      "inputs": [],
      "name": "isOwner",
      "outputs": [
        {
          "internalType": "bool",
          "name": "",
          "type": "bool"
        }
      ],
      "stateMutability": "view",
      "type": "function"
    },
    {
      "inputs": [
        {
          "internalType": "address",
          "name": "surveyAddress",
          "type": "address"
        },
        {
          "internalType": "uint256",
          "name": "identityCommitment",
          "type": "uint256"
        }
      ],
      "name": "openSurvey",
      "outputs": [],
      "stateMutability": "nonpayable",
      "type": "function"
    },
    {
      "inputs": [],
      "name": "owner",
      "outputs": [
        {
          "internalType": "address",
          "name": "",
          "type": "address"
        }
      ],
      "stateMutability": "view",
      "type": "function"
    },
    {
      "inputs": [],
      "name": "renounceOwnership",
      "outputs": [],
      "stateMutability": "nonpayable",
      "type": "function"
    },
    {
      "inputs": [],
      "name": "submitSurveyResponse",
      "outputs": [],
      "stateMutability": "nonpayable",
      "type": "function"
    },
    {
      "inputs": [
        {
          "internalType": "address",
          "name": "newOwner",
          "type": "address"
        }
      ],
      "name": "transferOwnership",
      "outputs": [],
      "stateMutability": "nonpayable",
      "type": "function"
    }
  ],
  "bytecode": "0x60806040523480156200001157600080fd5b506040516200160738038062001607833981810160405281019062000037919062000151565b336000806101000a81548173ffffffffffffffffffffffffffffffffffffffff021916908373ffffffffffffffffffffffffffffffffffffffff16021790555060008054906101000a900473ffffffffffffffffffffffffffffffffffffffff1673ffffffffffffffffffffffffffffffffffffffff16600073ffffffffffffffffffffffffffffffffffffffff167f8be0079c531659141344cd1fd0a4f28419497f9722a3daafe3b4186f6b6457e060405160405180910390a380600460006101000a81548173ffffffffffffffffffffffffffffffffffffffff021916908373ffffffffffffffffffffffffffffffffffffffff16021790555050620001cb565b6000815190506200014b81620001b1565b92915050565b6000602082840312156200016457600080fd5b600062000174848285016200013a565b91505092915050565b60006200018a8262000191565b9050919050565b600073ffffffffffffffffffffffffffffffffffffffff82169050919050565b620001bc816200017d565b8114620001c857600080fd5b50565b61142c80620001db6000396000f3fe608060405234801561001057600080fd5b50600436106100935760003560e01c80638f32d59b116100665780638f32d59b146100e8578063c46191c514610106578063c53fb61314610124578063e7dd7ef214610140578063f2fde38b1461015c57610093565b80633a6e60c8146100985780635af1f831146100b6578063715018a6146100c05780638da5cb5b146100ca575b600080fd5b6100a0610178565b6040516100ad9190610e88565b60405180910390f35b6100be6102e3565b005b6100c8610375565b005b6100d261047a565b6040516100df9190610e4b565b60405180910390f35b6100f06104a3565b6040516100fd9190610eaa565b60405180910390f35b61010e6104fa565b60405161011b9190610e66565b60405180910390f35b61013e60048036038101906101399190610baa565b61061b565b005b61015a60048036038101906101559190610b6e565b6107e7565b005b61017660048036038101906101719190610b45565b61087b565b005b6060600460009054906101000a900473ffffffffffffffffffffffffffffffffffffffff1673ffffffffffffffffffffffffffffffffffffffff163373ffffffffffffffffffffffffffffffffffffffff161461020a576040517f08c379a000000000000000000000000000000000000000000000000000000000815260040161020190610f65565b60405180910390fd5b60018001805480602002602001604051908101604052809291908181526020016000905b828210156102da57838290600052602060002001805461024d9061112b565b80601f01602080910402602001604051908101604052809291908181526020018280546102799061112b565b80156102c65780601f1061029b576101008083540402835291602001916102c6565b820191906000526020600020905b8154815290600101906020018083116102a957829003601f168201915b50505050508152602001906001019061022e565b50505050905090565b600460009054906101000a900473ffffffffffffffffffffffffffffffffffffffff1673ffffffffffffffffffffffffffffffffffffffff163373ffffffffffffffffffffffffffffffffffffffff1614610373576040517f08c379a000000000000000000000000000000000000000000000000000000000815260040161036a90610ee5565b60405180910390fd5b565b61037d6104a3565b6103bc576040517f08c379a00000000000000000000000000000000000000000000000000000000081526004016103b390610f25565b60405180910390fd5b600073ffffffffffffffffffffffffffffffffffffffff1660008054906101000a900473ffffffffffffffffffffffffffffffffffffffff1673ffffffffffffffffffffffffffffffffffffffff167f8be0079c531659141344cd1fd0a4f28419497f9722a3daafe3b4186f6b6457e060405160405180910390a360008060006101000a81548173ffffffffffffffffffffffffffffffffffffffff021916908373ffffffffffffffffffffffffffffffffffffffff160217905550565b60008060009054906101000a900473ffffffffffffffffffffffffffffffffffffffff16905090565b60008060009054906101000a900473ffffffffffffffffffffffffffffffffffffffff1673ffffffffffffffffffffffffffffffffffffffff163373ffffffffffffffffffffffffffffffffffffffff1614905090565b6060600460009054906101000a900473ffffffffffffffffffffffffffffffffffffffff1673ffffffffffffffffffffffffffffffffffffffff163373ffffffffffffffffffffffffffffffffffffffff161461058c576040517f08c379a000000000000000000000000000000000000000000000000000000000815260040161058390610f05565b60405180910390fd5b600160000180548060200260200160405190810160405280929190818152602001828054801561061157602002820191906000526020600020905b8160009054906101000a900473ffffffffffffffffffffffffffffffffffffffff1673ffffffffffffffffffffffffffffffffffffffff16815260200190600101908083116105c7575b5050505050905090565b6106236104a3565b610662576040517f08c379a000000000000000000000000000000000000000000000000000000000815260040161065990610f25565b60405180910390fd5b6001600001819080600181540180825580915050600190039060005260206000200160009091909190916101000a81548173ffffffffffffffffffffffffffffffffffffffff021916908373ffffffffffffffffffffffffffffffffffffffff16021790555060018060020160008373ffffffffffffffffffffffffffffffffffffffff1673ffffffffffffffffffffffffffffffffffffffff16815260200190815260200160002060006101000a81548160ff021916908315150217905550600180018173ffffffffffffffffffffffffffffffffffffffff1663260a89af6040518163ffffffff1660e01b8152600401600060405180830381600087803b15801561076e57600080fd5b505af1158015610782573d6000803e3d6000fd5b505050506040513d6000823e3d601f19601f820116820180604052508101906107ab9190610bd3565b9080600181540180825580915050600190039060005260206000200160009091909190915090805190602001906107e39291906109fb565b5050565b600460009054906101000a900473ffffffffffffffffffffffffffffffffffffffff1673ffffffffffffffffffffffffffffffffffffffff163373ffffffffffffffffffffffffffffffffffffffff1614610877576040517f08c379a000000000000000000000000000000000000000000000000000000000815260040161086e90610f45565b60405180910390fd5b5050565b6108836104a3565b6108c2576040517f08c379a00000000000000000000000000000000000000000000000000000000081526004016108b990610f25565b60405180910390fd5b6108cb816108ce565b50565b600073ffffffffffffffffffffffffffffffffffffffff168173ffffffffffffffffffffffffffffffffffffffff16141561093e576040517f08c379a000000000000000000000000000000000000000000000000000000000815260040161093590610ec5565b60405180910390fd5b8073ffffffffffffffffffffffffffffffffffffffff1660008054906101000a900473ffffffffffffffffffffffffffffffffffffffff1673ffffffffffffffffffffffffffffffffffffffff167f8be0079c531659141344cd1fd0a4f28419497f9722a3daafe3b4186f6b6457e060405160405180910390a3806000806101000a81548173ffffffffffffffffffffffffffffffffffffffff021916908373ffffffffffffffffffffffffffffffffffffffff16021790555050565b828054610a079061112b565b90600052602060002090601f016020900481019282610a295760008555610a70565b82601f10610a4257805160ff1916838001178555610a70565b82800160010185558215610a70579182015b82811115610a6f578251825591602001919060010190610a54565b5b509050610a7d9190610a81565b5090565b5b80821115610a9a576000816000905550600101610a82565b5090565b6000610ab1610aac84610faa565b610f85565b905082815260208101848484011115610ac957600080fd5b610ad48482856110f8565b509392505050565b600081359050610aeb816113b1565b92915050565b600081359050610b00816113c8565b92915050565b600082601f830112610b1757600080fd5b8151610b27848260208601610a9e565b91505092915050565b600081359050610b3f816113df565b92915050565b600060208284031215610b5757600080fd5b6000610b6584828501610adc565b91505092915050565b60008060408385031215610b8157600080fd5b6000610b8f85828601610adc565b9250506020610ba085828601610b30565b9150509250929050565b600060208284031215610bbc57600080fd5b6000610bca84828501610af1565b91505092915050565b600060208284031215610be557600080fd5b600082015167ffffffffffffffff811115610bff57600080fd5b610c0b84828501610b06565b91505092915050565b6000610c208383610d31565b60208301905092915050565b6000610c388383610d40565b905092915050565b610c498161107a565b82525050565b6000610c5a82610ffb565b610c648185611036565b9350610c6f83610fdb565b8060005b83811015610ca0578151610c878882610c14565b9750610c928361101c565b925050600181019050610c73565b5085935050505092915050565b6000610cb882611006565b610cc28185611047565b935083602082028501610cd485610feb565b8060005b85811015610d105784840389528151610cf18582610c2c565b9450610cfc83611029565b925060208a01995050600181019050610cd8565b50829750879550505050505092915050565b610d2b8161108c565b82525050565b610d3a816110d4565b82525050565b6000610d4b82611011565b610d558185611058565b9350610d658185602086016110f8565b610d6e816111ec565b840191505092915050565b6000610d86602683611069565b9150610d91826111fd565b604082019050919050565b6000610da9602b83611069565b9150610db48261124c565b604082019050919050565b6000610dcc602a83611069565b9150610dd78261129b565b604082019050919050565b6000610def602083611069565b9150610dfa826112ea565b602082019050919050565b6000610e12602983611069565b9150610e1d82611313565b604082019050919050565b6000610e35602683611069565b9150610e4082611362565b604082019050919050565b6000602082019050610e606000830184610c40565b92915050565b60006020820190508181036000830152610e808184610c4f565b905092915050565b60006020820190508181036000830152610ea28184610cad565b905092915050565b6000602082019050610ebf6000830184610d22565b92915050565b60006020820190508181036000830152610ede81610d79565b9050919050565b60006020820190508181036000830152610efe81610d9c565b9050919050565b60006020820190508181036000830152610f1e81610dbf565b9050919050565b60006020820190508181036000830152610f3e81610de2565b9050919050565b60006020820190508181036000830152610f5e81610e05565b9050919050565b60006020820190508181036000830152610f7e81610e28565b9050919050565b6000610f8f610fa0565b9050610f9b828261115d565b919050565b6000604051905090565b600067ffffffffffffffff821115610fc557610fc46111bd565b5b610fce826111ec565b9050602081019050919050565b6000819050602082019050919050565b6000819050602082019050919050565b600081519050919050565b600081519050919050565b600081519050919050565b6000602082019050919050565b6000602082019050919050565b600082825260208201905092915050565b600082825260208201905092915050565b600082825260208201905092915050565b600082825260208201905092915050565b6000611085826110aa565b9050919050565b60008115159050919050565b60006110a38261107a565b9050919050565b600073ffffffffffffffffffffffffffffffffffffffff82169050919050565b6000819050919050565b60006110df826110e6565b9050919050565b60006110f1826110aa565b9050919050565b60005b838110156111165780820151818401526020810190506110fb565b83811115611125576000848401525b50505050565b6000600282049050600182168061114357607f821691505b602082108114156111575761115661118e565b5b50919050565b611166826111ec565b810181811067ffffffffffffffff82111715611185576111846111bd565b5b80604052505050565b7f4e487b7100000000000000000000000000000000000000000000000000000000600052602260045260246000fd5b7f4e487b7100000000000000000000000000000000000000000000000000000000600052604160045260246000fd5b6000601f19601f8301169050919050565b7f4f776e61626c653a206e6577206f776e657220697320746865207a65726f206160008201527f6464726573730000000000000000000000000000000000000000000000000000602082015250565b7f4f6e6c79207061727469636970616e742063616e207375626d6974207375727660008201527f657920726573706f6e7365000000000000000000000000000000000000000000602082015250565b7f4f6e6c79207061727469636970616e742063616e20766965772073757276657960008201527f2061646472657373657300000000000000000000000000000000000000000000602082015250565b7f4f776e61626c653a2063616c6c6572206973206e6f7420746865206f776e6572600082015250565b7f4f6e6c79207061727469636970616e742063616e206f70656e2073757276657960008201527f20696e7374616e63650000000000000000000000000000000000000000000000602082015250565b7f4f6e6c79207061727469636970616e742063616e20766965772073757276657960008201527f206e616d65730000000000000000000000000000000000000000000000000000602082015250565b6113ba8161107a565b81146113c557600080fd5b50565b6113d181611098565b81146113dc57600080fd5b50565b6113e8816110ca565b81146113f357600080fd5b5056fea26469706673582212202fb9cb607e6e7732976e51492c554b704b880ce7c1486b66273bc27e9272ab5b64736f6c63430008040033",
  "linkReferences": {},
  "deployedLinkReferences": {}
}