{
  "_format": "hh-sol-artifact-1",
  "contractName": "RespondentView",
  "sourceName": "contracts/RespondentView.sol",
  "abi": [
    {
      "inputs": [
        {
          "internalType": "address",
          "name": "_respondentAddress",
          "type": "address"
        }
      ],
      "stateMutability": "nonpayable",
      "type": "constructor"
    },
    {
      "anonymous": false,
      "inputs": [
        {
          "indexed": true,
          "internalType": "address",
          "name": "previousOwner",
          "type": "address"
        },
        {
          "indexed": true,
          "internalType": "address",
          "name": "newOwner",
          "type": "address"
        }
      ],
      "name": "OwnershipTransferred",
      "type": "event"
    },
    {
      "inputs": [
        {
          "internalType": "contract ISurvey",
          "name": "newSurvey",
          "type": "address"
        }
      ],
      "name": "addSurvey",
      "outputs": [],
      "stateMutability": "nonpayable",
      "type": "function"
    },
    {
      "inputs": [],
      "name": "getAllSurveyAddresses",
      "outputs": [
        {
          "internalType": "contract ISurvey[]",
          "name": "",
          "type": "address[]"
        }
      ],
      "stateMutability": "view",
      "type": "function"
    },
    {
      "inputs": [],
      "name": "getSurveyNames",
      "outputs": [
        {
          "internalType": "string[]",
          "name": "",
          "type": "string[]"
        }
      ],
      "stateMutability": "view",
      "type": "function"
    },
    {
      "inputs": [],
      "name": "isOwner",
      "outputs": [
        {
          "internalType": "bool",
          "name": "",
          "type": "bool"
        }
      ],
      "stateMutability": "view",
      "type": "function"
    },
    {
      "inputs": [
        {
          "internalType": "address",
          "name": "surveyAddress",
          "type": "address"
        },
        {
          "internalType": "uint256",
          "name": "identityCommitment",
          "type": "uint256"
        }
      ],
      "name": "openSurvey",
      "outputs": [],
      "stateMutability": "nonpayable",
      "type": "function"
    },
    {
      "inputs": [],
      "name": "owner",
      "outputs": [
        {
          "internalType": "address",
          "name": "",
          "type": "address"
        }
      ],
      "stateMutability": "view",
      "type": "function"
    },
    {
      "inputs": [],
      "name": "renounceOwnership",
      "outputs": [],
      "stateMutability": "nonpayable",
      "type": "function"
    },
    {
      "inputs": [],
      "name": "submitSurveyResponse",
      "outputs": [],
      "stateMutability": "nonpayable",
      "type": "function"
    },
    {
      "inputs": [
        {
          "internalType": "address",
          "name": "newOwner",
          "type": "address"
        }
      ],
      "name": "transferOwnership",
      "outputs": [],
      "stateMutability": "nonpayable",
      "type": "function"
    }
  ],
  "bytecode": "0x608060405234801561001057600080fd5b5060405161112738038061112783398181016040528101906100329190610149565b336000806101000a81548173ffffffffffffffffffffffffffffffffffffffff021916908373ffffffffffffffffffffffffffffffffffffffff16021790555060008054906101000a900473ffffffffffffffffffffffffffffffffffffffff1673ffffffffffffffffffffffffffffffffffffffff16600073ffffffffffffffffffffffffffffffffffffffff167f8be0079c531659141344cd1fd0a4f28419497f9722a3daafe3b4186f6b6457e060405160405180910390a380600460006101000a81548173ffffffffffffffffffffffffffffffffffffffff021916908373ffffffffffffffffffffffffffffffffffffffff160217905550506101bb565b600081519050610143816101a4565b92915050565b60006020828403121561015b57600080fd5b600061016984828501610134565b91505092915050565b600061017d82610184565b9050919050565b600073ffffffffffffffffffffffffffffffffffffffff82169050919050565b6101ad81610172565b81146101b857600080fd5b50565b610f5d806101ca6000396000f3fe608060405234801561001057600080fd5b50600436106100935760003560e01c80638f32d59b116100665780638f32d59b146100e8578063c46191c514610106578063c53fb61314610124578063e7dd7ef214610140578063f2fde38b1461015c57610093565b80633a6e60c8146100985780635af1f831146100b6578063715018a6146100c05780638da5cb5b146100ca575b600080fd5b6100a0610178565b6040516100ad9190610b75565b60405180910390f35b6100be610253565b005b6100c8610255565b005b6100d261035a565b6040516100df9190610b38565b60405180910390f35b6100f0610383565b6040516100fd9190610b97565b60405180910390f35b61010e6103da565b60405161011b9190610b53565b60405180910390f35b61013e60048036038101906101399190610923565b61046b565b005b61015a600480360381019061015591906108e7565b6105f0565b005b610176600480360381019061017191906108be565b6105f4565b005b606060018001805480602002602001604051908101604052809291908181526020016000905b8282101561024a5783829060005260206000200180546101bd90610d98565b80601f01602080910402602001604051908101604052809291908181526020018280546101e990610d98565b80156102365780601f1061020b57610100808354040283529160200191610236565b820191906000526020600020905b81548152906001019060200180831161021957829003601f168201915b50505050508152602001906001019061019e565b50505050905090565b565b61025d610383565b61029c576040517f08c379a000000000000000000000000000000000000000000000000000000000815260040161029390610bd2565b60405180910390fd5b600073ffffffffffffffffffffffffffffffffffffffff1660008054906101000a900473ffffffffffffffffffffffffffffffffffffffff1673ffffffffffffffffffffffffffffffffffffffff167f8be0079c531659141344cd1fd0a4f28419497f9722a3daafe3b4186f6b6457e060405160405180910390a360008060006101000a81548173ffffffffffffffffffffffffffffffffffffffff021916908373ffffffffffffffffffffffffffffffffffffffff160217905550565b60008060009054906101000a900473ffffffffffffffffffffffffffffffffffffffff16905090565b60008060009054906101000a900473ffffffffffffffffffffffffffffffffffffffff1673ffffffffffffffffffffffffffffffffffffffff163373ffffffffffffffffffffffffffffffffffffffff1614905090565b6060600160000180548060200260200160405190810160405280929190818152602001828054801561046157602002820191906000526020600020905b8160009054906101000a900473ffffffffffffffffffffffffffffffffffffffff1673ffffffffffffffffffffffffffffffffffffffff1681526020019060010190808311610417575b5050505050905090565b6001600001819080600181540180825580915050600190039060005260206000200160009091909190916101000a81548173ffffffffffffffffffffffffffffffffffffffff021916908373ffffffffffffffffffffffffffffffffffffffff16021790555060018060020160008373ffffffffffffffffffffffffffffffffffffffff1673ffffffffffffffffffffffffffffffffffffffff16815260200190815260200160002060006101000a81548160ff021916908315150217905550600180018173ffffffffffffffffffffffffffffffffffffffff1663260a89af6040518163ffffffff1660e01b8152600401600060405180830381600087803b15801561057757600080fd5b505af115801561058b573d6000803e3d6000fd5b505050506040513d6000823e3d601f19601f820116820180604052508101906105b4919061094c565b9080600181540180825580915050600190039060005260206000200160009091909190915090805190602001906105ec929190610774565b5050565b5050565b6105fc610383565b61063b576040517f08c379a000000000000000000000000000000000000000000000000000000000815260040161063290610bd2565b60405180910390fd5b61064481610647565b50565b600073ffffffffffffffffffffffffffffffffffffffff168173ffffffffffffffffffffffffffffffffffffffff1614156106b7576040517f08c379a00000000000000000000000000000000000000000000000000000000081526004016106ae90610bb2565b60405180910390fd5b8073ffffffffffffffffffffffffffffffffffffffff1660008054906101000a900473ffffffffffffffffffffffffffffffffffffffff1673ffffffffffffffffffffffffffffffffffffffff167f8be0079c531659141344cd1fd0a4f28419497f9722a3daafe3b4186f6b6457e060405160405180910390a3806000806101000a81548173ffffffffffffffffffffffffffffffffffffffff021916908373ffffffffffffffffffffffffffffffffffffffff16021790555050565b82805461078090610d98565b90600052602060002090601f0160209004810192826107a257600085556107e9565b82601f106107bb57805160ff19168380011785556107e9565b828001600101855582156107e9579182015b828111156107e85782518255916020019190600101906107cd565b5b5090506107f691906107fa565b5090565b5b808211156108135760008160009055506001016107fb565b5090565b600061082a61082584610c17565b610bf2565b90508281526020810184848401111561084257600080fd5b61084d848285610d65565b509392505050565b60008135905061086481610ee2565b92915050565b60008135905061087981610ef9565b92915050565b600082601f83011261089057600080fd5b81516108a0848260208601610817565b91505092915050565b6000813590506108b881610f10565b92915050565b6000602082840312156108d057600080fd5b60006108de84828501610855565b91505092915050565b600080604083850312156108fa57600080fd5b600061090885828601610855565b9250506020610919858286016108a9565b9150509250929050565b60006020828403121561093557600080fd5b60006109438482850161086a565b91505092915050565b60006020828403121561095e57600080fd5b600082015167ffffffffffffffff81111561097857600080fd5b6109848482850161087f565b91505092915050565b60006109998383610aaa565b60208301905092915050565b60006109b18383610ab9565b905092915050565b6109c281610ce7565b82525050565b60006109d382610c68565b6109dd8185610ca3565b93506109e883610c48565b8060005b83811015610a19578151610a00888261098d565b9750610a0b83610c89565b9250506001810190506109ec565b5085935050505092915050565b6000610a3182610c73565b610a3b8185610cb4565b935083602082028501610a4d85610c58565b8060005b85811015610a895784840389528151610a6a85826109a5565b9450610a7583610c96565b925060208a01995050600181019050610a51565b50829750879550505050505092915050565b610aa481610cf9565b82525050565b610ab381610d41565b82525050565b6000610ac482610c7e565b610ace8185610cc5565b9350610ade818560208601610d65565b610ae781610e59565b840191505092915050565b6000610aff602683610cd6565b9150610b0a82610e6a565b604082019050919050565b6000610b22602083610cd6565b9150610b2d82610eb9565b602082019050919050565b6000602082019050610b4d60008301846109b9565b92915050565b60006020820190508181036000830152610b6d81846109c8565b905092915050565b60006020820190508181036000830152610b8f8184610a26565b905092915050565b6000602082019050610bac6000830184610a9b565b92915050565b60006020820190508181036000830152610bcb81610af2565b9050919050565b60006020820190508181036000830152610beb81610b15565b9050919050565b6000610bfc610c0d565b9050610c088282610dca565b919050565b6000604051905090565b600067ffffffffffffffff821115610c3257610c31610e2a565b5b610c3b82610e59565b9050602081019050919050565b6000819050602082019050919050565b6000819050602082019050919050565b600081519050919050565b600081519050919050565b600081519050919050565b6000602082019050919050565b6000602082019050919050565b600082825260208201905092915050565b600082825260208201905092915050565b600082825260208201905092915050565b600082825260208201905092915050565b6000610cf282610d17565b9050919050565b60008115159050919050565b6000610d1082610ce7565b9050919050565b600073ffffffffffffffffffffffffffffffffffffffff82169050919050565b6000819050919050565b6000610d4c82610d53565b9050919050565b6000610d5e82610d17565b9050919050565b60005b83811015610d83578082015181840152602081019050610d68565b83811115610d92576000848401525b50505050565b60006002820490506001821680610db057607f821691505b60208210811415610dc457610dc3610dfb565b5b50919050565b610dd382610e59565b810181811067ffffffffffffffff82111715610df257610df1610e2a565b5b80604052505050565b7f4e487b7100000000000000000000000000000000000000000000000000000000600052602260045260246000fd5b7f4e487b7100000000000000000000000000000000000000000000000000000000600052604160045260246000fd5b6000601f19601f8301169050919050565b7f4f776e61626c653a206e6577206f776e657220697320746865207a65726f206160008201527f6464726573730000000000000000000000000000000000000000000000000000602082015250565b7f4f776e61626c653a2063616c6c6572206973206e6f7420746865206f776e6572600082015250565b610eeb81610ce7565b8114610ef657600080fd5b50565b610f0281610d05565b8114610f0d57600080fd5b50565b610f1981610d37565b8114610f2457600080fd5b5056fea264697066735822122038ede9b9bbfcfc2c68a4e4417bb3a95361758ff86f2d6841c702ee44d68a976064736f6c63430008040033",
  "linkReferences": {},
  "deployedLinkReferences": {}
}