{
  "_format": "hh-sol-artifact-1",
  "contractName": "SemaphoreDeployer",
  "sourceName": "contracts/SemaphoreDeployer.sol",
  "abi": [
    {
      "anonymous": false,
      "inputs": [
        {
          "indexed": true,
          "internalType": "address",
          "name": "previousOwner",
          "type": "address"
        },
        {
          "indexed": true,
          "internalType": "address",
          "name": "newOwner",
          "type": "address"
        }
      ],
      "name": "OwnershipTransferred",
      "type": "event"
    },
    {
      "inputs": [],
      "name": "deploySemaphore",
      "outputs": [],
      "stateMutability": "nonpayable",
      "type": "function"
    },
    {
      "inputs": [],
      "name": "getSemaphoreAddress",
      "outputs": [
        {
          "internalType": "address",
          "name": "",
          "type": "address"
        }
      ],
      "stateMutability": "view",
      "type": "function"
    },
    {
      "inputs": [],
      "name": "isOwner",
      "outputs": [
        {
          "internalType": "bool",
          "name": "",
          "type": "bool"
        }
      ],
      "stateMutability": "view",
      "type": "function"
    },
    {
      "inputs": [],
      "name": "owner",
      "outputs": [
        {
          "internalType": "address",
          "name": "",
          "type": "address"
        }
      ],
      "stateMutability": "view",
      "type": "function"
    },
    {
      "inputs": [],
      "name": "renounceOwnership",
      "outputs": [],
      "stateMutability": "nonpayable",
      "type": "function"
    },
    {
      "inputs": [
        {
          "internalType": "address",
          "name": "newOwner",
          "type": "address"
        }
      ],
      "name": "transferOwnership",
      "outputs": [],
      "stateMutability": "nonpayable",
      "type": "function"
    }
  ],
  "bytecode": "0x608060405234801561001057600080fd5b50336000806101000a81548173ffffffffffffffffffffffffffffffffffffffff021916908373ffffffffffffffffffffffffffffffffffffffff16021790555060008054906101000a900473ffffffffffffffffffffffffffffffffffffffff1673ffffffffffffffffffffffffffffffffffffffff16600073ffffffffffffffffffffffffffffffffffffffff167f8be0079c531659141344cd1fd0a4f28419497f9722a3daafe3b4186f6b6457e060405160405180910390a3617fa7806100db6000396000f3fe60806040523480156200001157600080fd5b5060043610620000695760003560e01c806250a2aa146200006e578063715018a614620000905780638da5cb5b146200009c5780638f32d59b14620000be578063d528c40314620000e0578063f2fde38b14620000ec575b600080fd5b620000786200010c565b60405162000087919062000862565b60405180910390f35b6200009a62000136565b005b620000a662000240565b604051620000b5919062000862565b60405180910390f35b620000c862000269565b604051620000d791906200087f565b60405180910390f35b620000ea620002c0565b005b6200010a600480360381019062000104919062000763565b62000451565b005b6000600160009054906101000a900473ffffffffffffffffffffffffffffffffffffffff16905090565b6200014062000269565b62000182576040517f08c379a000000000000000000000000000000000000000000000000000000000815260040162000179906200090f565b60405180910390fd5b600073ffffffffffffffffffffffffffffffffffffffff1660008054906101000a900473ffffffffffffffffffffffffffffffffffffffff1673ffffffffffffffffffffffffffffffffffffffff167f8be0079c531659141344cd1fd0a4f28419497f9722a3daafe3b4186f6b6457e060405160405180910390a360008060006101000a81548173ffffffffffffffffffffffffffffffffffffffff021916908373ffffffffffffffffffffffffffffffffffffffff160217905550565b60008060009054906101000a900473ffffffffffffffffffffffffffffffffffffffff16905090565b60008060009054906101000a900473ffffffffffffffffffffffffffffffffffffffff1673ffffffffffffffffffffffffffffffffffffffff163373ffffffffffffffffffffffffffffffffffffffff1614905090565b620003006040518060400160405280601281526020017f4372656174696e672053656d6170686f72650000000000000000000000000000815250620004ab565b6000601461045760405162000315906200073e565b620003229291906200089c565b604051809103906000f0801580156200033f573d6000803e3d6000fd5b5090508073ffffffffffffffffffffffffffffffffffffffff1663f2fde38b336040518263ffffffff1660e01b81526004016200037d919062000862565b600060405180830381600087803b1580156200039857600080fd5b505af1158015620003ad573d6000803e3d6000fd5b50505050620003d56040518060600160405280602a815260200162007f48602a9139620004ab565b620003e03362000548565b80600160006101000a81548173ffffffffffffffffffffffffffffffffffffffff021916908373ffffffffffffffffffffffffffffffffffffffff1602179055506200044e600160009054906101000a900473ffffffffffffffffffffffffffffffffffffffff1662000548565b50565b6200045b62000269565b6200049d576040517f08c379a000000000000000000000000000000000000000000000000000000000815260040162000494906200090f565b60405180910390fd5b620004a881620005e5565b50565b6200054581604051602401620004c29190620008c9565b6040516020818303038152906040527f41304fac000000000000000000000000000000000000000000000000000000007bffffffffffffffffffffffffffffffffffffffffffffffffffffffff19166020820180517bffffffffffffffffffffffffffffffffffffffffffffffffffffffff838183161783525050505062000715565b50565b620005e2816040516024016200055f919062000862565b6040516020818303038152906040527f2c2ecbc2000000000000000000000000000000000000000000000000000000007bffffffffffffffffffffffffffffffffffffffffffffffffffffffff19166020820180517bffffffffffffffffffffffffffffffffffffffffffffffffffffffff838183161783525050505062000715565b50565b600073ffffffffffffffffffffffffffffffffffffffff168173ffffffffffffffffffffffffffffffffffffffff16141562000658576040517f08c379a00000000000000000000000000000000000000000000000000000000081526004016200064f90620008ed565b60405180910390fd5b8073ffffffffffffffffffffffffffffffffffffffff1660008054906101000a900473ffffffffffffffffffffffffffffffffffffffff1673ffffffffffffffffffffffffffffffffffffffff167f8be0079c531659141344cd1fd0a4f28419497f9722a3daafe3b4186f6b6457e060405160405180910390a3806000806101000a81548173ffffffffffffffffffffffffffffffffffffffff021916908373ffffffffffffffffffffffffffffffffffffffff16021790555050565b60008151905060006a636f6e736f6c652e6c6f679050602083016000808483855afa5050505050565b6174838062000ac583390190565b6000813590506200075d8162000aaa565b92915050565b6000602082840312156200077657600080fd5b600062000786848285016200074c565b91505092915050565b6200079a816200094d565b82525050565b620007ab8162000961565b82525050565b620007bc81620009c3565b82525050565b620007cd81620009d7565b82525050565b6000620007e08262000931565b620007ec81856200093c565b9350620007fe818560208601620009eb565b620008098162000a21565b840191505092915050565b6000620008236026836200093c565b9150620008308262000a32565b604082019050919050565b60006200084a6020836200093c565b9150620008578262000a81565b602082019050919050565b60006020820190506200087960008301846200078f565b92915050565b6000602082019050620008966000830184620007a0565b92915050565b6000604082019050620008b36000830185620007c2565b620008c26020830184620007b1565b9392505050565b60006020820190508181036000830152620008e58184620007d3565b905092915050565b60006020820190508181036000830152620009088162000814565b9050919050565b600060208201905081810360008301526200092a816200083b565b9050919050565b600081519050919050565b600082825260208201905092915050565b60006200095a826200096d565b9050919050565b60008115159050919050565b600073ffffffffffffffffffffffffffffffffffffffff82169050919050565b60007cffffffffffffffffffffffffffffffffffffffffffffffffffffffffff82169050919050565b600060ff82169050919050565b6000620009d0826200098d565b9050919050565b6000620009e482620009b6565b9050919050565b60005b8381101562000a0b578082015181840152602081019050620009ee565b8381111562000a1b576000848401525b50505050565b6000601f19601f8301169050919050565b7f4f776e61626c653a206e6577206f776e657220697320746865207a65726f206160008201527f6464726573730000000000000000000000000000000000000000000000000000602082015250565b7f4f776e61626c653a2063616c6c6572206973206e6f7420746865206f776e6572600082015250565b62000ab5816200094d565b811462000ac157600080fd5b5056fe6080604052600060015560006007556000600860006101000a8154817cffffffffffffffffffffffffffffffffffffffffffffffffffffffffff02191690837cffffffffffffffffffffffffffffffffffffffffffffffffffffffffff1602179055506000600960006101000a8154817cffffffffffffffffffffffffffffffffffffffffffffffffffffffffff02191690837cffffffffffffffffffffffffffffffffffffffffffffffffffffffffff16021790555060016009601d6101000a81548160ff0219169083151502179055507f30644e72e131a029b85045b68181585d2833e84879b9709143e1f593f0000001604051602001620001039062000a18565b6040516020818303038152906040528051906020012060001c62000128919062000b96565b600b553480156200013857600080fd5b50604051620074833803806200748383398181016040528101906200015e9190620008d4565b81600b54336000806101000a81548173ffffffffffffffffffffffffffffffffffffffff021916908373ffffffffffffffffffffffffffffffffffffffff16021790555060008054906101000a900473ffffffffffffffffffffffffffffffffffffffff1673ffffffffffffffffffffffffffffffffffffffff16600073ffffffffffffffffffffffffffffffffffffffff167f8be0079c531659141344cd1fd0a4f28419497f9722a3daafe3b4186f6b6457e060405160405180910390a360008260ff16118015620002385750602060ff168260ff1611155b6200027a576040517f08c379a0000000000000000000000000000000000000000000000000000000008152600401620002719062000a4c565b60405180910390fd5b81600060146101000a81548160ff021916908360ff1602179055506000819050620002a462000841565b60005b8460ff168160ff1610156200036b5760005b600560ff168160ff161015620003265783838260ff166005811062000307577f4e487b7100000000000000000000000000000000000000000000000000000000600052603260045260246000fd5b60200201818152505080806200031d9062000b67565b915050620002b9565b5082600360008360ff1681526020019081526020016000208190555062000353826200039260201b60201c565b92508080620003629062000b67565b915050620002a7565b5081600281905550505050506200038a8160016200042860201b60201c565b505062000d1b565b600073__$b710cdd75c8f67476fb0bf0dd303e8ae88$__634937a258836040518263ffffffff1660e01b8152600401620003cd919062000a2f565b60206040518083038186803b158015620003e657600080fd5b505af4158015620003fb573d6000803e3d6000fd5b505050506040513d601f19601f82011682018060405250810190620004219190620008a8565b9050919050565b8015620004885781600860006101000a8154817cffffffffffffffffffffffffffffffffffffffffffffffffffffffffff02191690837cffffffffffffffffffffffffffffffffffffffffffffffffffffffffff16021790555062000604565b6000151560066000847cffffffffffffffffffffffffffffffffffffffffffffffffffffffffff167cffffffffffffffffffffffffffffffffffffffffffffffffffffffffff168152602001908152602001600020600001601d9054906101000a900460ff1615151462000533576040517f08c379a00000000000000000000000000000000000000000000000000000000081526004016200052a9062000a6e565b60405180910390fd5b8160066000600960009054906101000a90047cffffffffffffffffffffffffffffffffffffffffffffffffffffffffff167cffffffffffffffffffffffffffffffffffffffffffffffffffffffffff167cffffffffffffffffffffffffffffffffffffffffffffffffffffffffff16815260200190815260200160002060000160006101000a8154817cffffffffffffffffffffffffffffffffffffffffffffffffffffffffff02191690837cffffffffffffffffffffffffffffffffffffffffffffffffffffffffff1602179055505b600060066000847cffffffffffffffffffffffffffffffffffffffffffffffffffffffffff167cffffffffffffffffffffffffffffffffffffffffffffffffffffffffff16815260200190815260200160002060000160006101000a8154817cffffffffffffffffffffffffffffffffffffffffffffffffffffffffff02191690837cffffffffffffffffffffffffffffffffffffffffffffffffffffffffff160217905550600160066000847cffffffffffffffffffffffffffffffffffffffffffffffffffffffffff167cffffffffffffffffffffffffffffffffffffffffffffffffffffffffff168152602001908152602001600020600001601e6101000a81548160ff021916908315150217905550600160066000847cffffffffffffffffffffffffffffffffffffffffffffffffffffffffff167cffffffffffffffffffffffffffffffffffffffffffffffffffffffffff168152602001908152602001600020600001601d6101000a81548160ff02191690831515021790555081600960006101000a8154817cffffffffffffffffffffffffffffffffffffffffffffffffffffffffff02191690837cffffffffffffffffffffffffffffffffffffffffffffffffffffffffff16021790555060076000815480929190620007ec9062000b19565b9190505550817cffffffffffffffffffffffffffffffffffffffffffffffffffffffffff167fd1ca56647596090d70fa8d49bcc376b97248314e3f204c491333b3440405f58960405160405180910390a25050565b6040518060a00160405280600590602082028036833780820191505090505090565b600081519050620008748162000ccd565b92915050565b6000815190506200088b8162000ce7565b92915050565b600081519050620008a28162000d01565b92915050565b600060208284031215620008bb57600080fd5b6000620008cb848285016200087a565b91505092915050565b60008060408385031215620008e857600080fd5b6000620008f88582860162000891565b92505060206200090b8582860162000863565b9150509250929050565b600062000923838362000a07565b60208301905092915050565b6200093a8162000a9a565b62000946818462000ab2565b9250620009538262000a90565b8060005b838110156200098a5781516200096e878262000915565b96506200097b8362000aa5565b92505060018101905062000957565b505050505050565b6000620009a160398362000abd565b9150620009ae8262000c2c565b604082019050919050565b6000620009c8601e8362000abd565b9150620009d58262000c7b565b602082019050919050565b6000620009ef60098362000ace565b9150620009fc8262000ca4565b600982019050919050565b62000a128162000b02565b82525050565b600062000a2582620009e0565b9150819050919050565b600060a08201905062000a4660008301846200092f565b92915050565b6000602082019050818103600083015262000a678162000992565b9050919050565b6000602082019050818103600083015262000a8981620009b9565b9050919050565b6000819050919050565b600060059050919050565b6000602082019050919050565b600081905092915050565b600082825260208201905092915050565b600081905092915050565b60007cffffffffffffffffffffffffffffffffffffffffffffffffffffffffff82169050919050565b6000819050919050565b600060ff82169050919050565b600062000b268262000b02565b91507fffffffffffffffffffffffffffffffffffffffffffffffffffffffffffffffff82141562000b5c5762000b5b62000bce565b5b600182019050919050565b600062000b748262000b0c565b915060ff82141562000b8b5762000b8a62000bce565b5b600182019050919050565b600062000ba38262000b02565b915062000bb08362000b02565b92508262000bc35762000bc262000bfd565b5b828206905092915050565b7f4e487b7100000000000000000000000000000000000000000000000000000000600052601160045260246000fd5b7f4e487b7100000000000000000000000000000000000000000000000000000000600052601260045260246000fd5b7f496e6372656d656e74616c5175696e547265653a205f747265654c6576656c7360008201527f206d757374206265206265747765656e203020616e6420333300000000000000602082015250565b7f65787465726e616c206e756c6c696669657220616c7265616479207365740000600082015250565b7f53656d6170686f72650000000000000000000000000000000000000000000000600082015250565b62000cd88162000ad9565b811462000ce457600080fd5b50565b62000cf28162000b02565b811462000cfe57600080fd5b50565b62000d0c8162000b0c565b811462000d1857600080fd5b50565b6167588062000d2b6000396000f3fe608060405234801561001057600080fd5b50600436106101da5760003560e01c80638da5cb5b11610104578063c4cd5596116100a2578063ebf0c71711610071578063ebf0c717146105a7578063f1c621ee146105c5578063f2fde38b146105f5578063f5ab0dd614610611576101da565b8063c4cd55961461050d578063c8cf02da1461053d578063ce85bbdb1461055b578063eac4287e14610577576101da565b80639cfced97116100de5780639cfced971461045f578063b72024341461048f578063ba10b81d146104bf578063c3a3407f146104dd576101da565b80638da5cb5b146104055780638f32d59b146104235780638f6efd0014610441576101da565b80635e05ea171161017c578063715018a61161014b578063715018a61461037d5780637a5519f914610387578063819bd8a5146103b95780638a1a52d2146103d5576101da565b80635e05ea17146102cf5780635fe8c13b146102ff5780636d80efca1461032f5780636ebf62651461035f576101da565b8063539f38b2116101b8578063539f38b2146102355780635bb93995146102515780635d3ce725146102815780635d86faba146102b1576101da565b80630e57596f146101df57806323baaa83146101fb578063283ebaf414610217575b600080fd5b6101f960048036038101906101f49190614ef6565b610643565b005b6102156004803603810190610210919061502f565b61094d565b005b61021f610b9d565b60405161022c9190615772565b60405180910390f35b61024f600480360381019061024a919061502f565b610bb0565b005b61026b600480360381019061026691906150aa565b610c1b565b6040516102789190615ac1565b60405180910390f35b61029b60048036038101906102969190614f89565b610d3d565b6040516102a89190615772565b60405180910390f35b6102b9610ea9565b6040516102c69190615a6f565b60405180910390f35b6102e960048036038101906102e49190614d84565b610ed8565b6040516102f69190615756565b60405180910390f35b61031960048036038101906103149190614dd4565b61120b565b6040516103269190615772565b60405180910390f35b61034960048036038101906103449190615058565b6116bf565b6040516103569190615ac1565b60405180910390f35b61036761175d565b6040516103749190615ac1565b60405180910390f35b610385611763565b005b6103a1600480360381019061039c919061502f565b611868565b6040516103b093929190615a8a565b60405180910390f35b6103d360048036038101906103ce919061502f565b6118d5565b005b6103ef60048036038101906103ea9190614e8c565b611b25565b6040516103fc9190615ac1565b60405180910390f35b61040d612173565b60405161041a91906156cd565b60405180910390f35b61042b61219c565b6040516104389190615772565b60405180910390f35b6104496121f3565b6040516104569190615ac1565b60405180910390f35b61047960048036038101906104749190614e39565b6121f9565b6040516104869190615ac1565b60405180910390f35b6104a960048036038101906104a49190615058565b612289565b6040516104b69190615ac1565b60405180910390f35b6104c76125ef565b6040516104d49190615ac1565b60405180910390f35b6104f760048036038101906104f2919061502f565b6125f9565b6040516105049190615a6f565b60405180910390f35b61052760048036038101906105229190615058565b6127d6565b6040516105349190615772565b60405180910390f35b6105456127f6565b6040516105529190615a6f565b60405180910390f35b61057560048036038101906105709190614ecd565b612825565b005b610591600480360381019061058c919061502f565b6128b8565b60405161059e9190615772565b60405180910390f35b6105af612923565b6040516105bc9190615ac1565b60405180910390f35b6105df60048036038101906105da9190615058565b612929565b6040516105ec9190615772565b60405180910390f35b61060f600480360381019061060a9190614d5b565b612949565b005b61062b60048036038101906106269190614e62565b61299c565b60405161063a93929190615703565b60405180910390f35b6009601d9054906101000a900460ff161580610663575061066261219c565b5b6106a2576040517f08c379a000000000000000000000000000000000000000000000000000000000815260040161069990615a0f565b60405180910390fd5b84848484846106b084612c18565b6106ef576040517f08c379a00000000000000000000000000000000000000000000000000000000081526004016106e69061594f565b60405180910390fd5b60001515600a600084815260200190815260200160002060009054906101000a900460ff16151514610756576040517f08c379a000000000000000000000000000000000000000000000000000000000815260040161074d9061584f565b60405180910390fd5b61075f816128b8565b61079e576040517f08c379a00000000000000000000000000000000000000000000000000000000081526004016107959061592f565b60405180910390fd5b6005600084815260200190815260200160002060009054906101000a900460ff166107fe576040517f08c379a00000000000000000000000000000000000000000000000000000000081526004016107f5906158af565b60405180910390fd5b600061080986612f61565b90507f30644e72e131a029b85045b68181585d2833e84879b9709143e1f593f0000001831061086d576040517f08c379a0000000000000000000000000000000000000000000000000000000008152600401610864906157ef565b60405180910390fd5b60006040518060800160405280868152602001858152602001838152602001847cffffffffffffffffffffffffffffffffffffffffffffffffffffffffff16815250905060008060006108bf8961299c565b9250925092506108d18383838761120b565b610910576040517f08c379a00000000000000000000000000000000000000000000000000000000081526004016109079061596f565b60405180910390fd5b6001600a60008e815260200190815260200160002060006101000a81548160ff021916908315150217905550505050505050505050505050505050565b61095561219c565b610994576040517f08c379a000000000000000000000000000000000000000000000000000000000815260040161098b9061590f565b60405180910390fd5b60066000827cffffffffffffffffffffffffffffffffffffffffffffffffffffffffff167cffffffffffffffffffffffffffffffffffffffffffffffffffffffffff168152602001908152602001600020600001601d9054906101000a900460ff16610a35576040517f08c379a0000000000000000000000000000000000000000000000000000000008152600401610a2c9061592f565b60405180910390fd5b6001151560066000837cffffffffffffffffffffffffffffffffffffffffffffffffffffffffff167cffffffffffffffffffffffffffffffffffffffffffffffffffffffffff168152602001908152602001600020600001601e9054906101000a900460ff16151514610add576040517f08c379a0000000000000000000000000000000000000000000000000000000008152600401610ad4906158ef565b60405180910390fd5b600060066000837cffffffffffffffffffffffffffffffffffffffffffffffffffffffffff167cffffffffffffffffffffffffffffffffffffffffffffffffffffffffff168152602001908152602001600020600001601e6101000a81548160ff02191690831515021790555060001515817cffffffffffffffffffffffffffffffffffffffffffffffffffffffffff167fb8d2b8a2b352df7f139810483b3c80fc3a4a88711c90bdb7180f1030b7f49acf60405160405180910390a350565b6009601d9054906101000a900460ff1681565b610bb861219c565b610bf7576040517f08c379a0000000000000000000000000000000000000000000000000000000008152600401610bee9061590f565b60405180910390fd5b610c1860405180606001604052806022815260200161670160229139612f79565b50565b6000610c2561478e565b8381600060028110610c60577f4e487b7100000000000000000000000000000000000000000000000000000000600052603260045260246000fd5b6020020181815250508281600160028110610ca4577f4e487b7100000000000000000000000000000000000000000000000000000000600052603260045260246000fd5b60200201818152505073__$ddbd407c0505ab271b485fa1b31e6c7588$__6329a5f2f6826040518263ffffffff1660e01b8152600401610ce491906156e8565b60206040518083038186803b158015610cfc57600080fd5b505af4158015610d10573d6000803e3d6000fd5b505050506040513d601f19601f82011682018060405250810190610d349190615081565b91505092915050565b6000806040518060800160405280878152602001868152602001858152602001847cffffffffffffffffffffffffffffffffffffffffffffffffffffffffff1681525090506000806000610d908a61299c565b92509250925060001515600a60008a815260200190815260200160002060009054906101000a900460ff161515148015610dd1575086610dcf8c612f61565b145b8015610de45750610de18b612f61565b87145b8015610df55750610df4866128b8565b5b8015610e1e5750600560008a815260200190815260200160002060009054906101000a900460ff165b8015610e2f5750610e2e8a612c18565b5b8015610e5a57507f30644e72e131a029b85045b68181585d2833e84879b9709143e1f593f000000189105b8015610e8557507f30644e72e131a029b85045b68181585d2833e84879b9709143e1f593f000000188105b8015610e995750610e988383838761120b565b5b9450505050509695505050505050565b600860009054906101000a90047cffffffffffffffffffffffffffffffffffffffffffffffffffffffffff1681565b610ee06147b0565b60405180610100016040528085600060028110610f26577f4e487b7100000000000000000000000000000000000000000000000000000000600052603260045260246000fd5b6020020151815260200185600160028110610f6a577f4e487b7100000000000000000000000000000000000000000000000000000000600052603260045260246000fd5b6020020151815260200184600060028110610fae577f4e487b7100000000000000000000000000000000000000000000000000000000600052603260045260246000fd5b6020020151600060028110610fec577f4e487b7100000000000000000000000000000000000000000000000000000000600052603260045260246000fd5b6020020151815260200184600060028110611030577f4e487b7100000000000000000000000000000000000000000000000000000000600052603260045260246000fd5b602002015160016002811061106e577f4e487b7100000000000000000000000000000000000000000000000000000000600052603260045260246000fd5b60200201518152602001846001600281106110b2577f4e487b7100000000000000000000000000000000000000000000000000000000600052603260045260246000fd5b60200201516000600281106110f0577f4e487b7100000000000000000000000000000000000000000000000000000000600052603260045260246000fd5b6020020151815260200184600160028110611134577f4e487b7100000000000000000000000000000000000000000000000000000000600052603260045260246000fd5b6020020151600160028110611172577f4e487b7100000000000000000000000000000000000000000000000000000000600052603260045260246000fd5b60200201518152602001836000600281106111b6577f4e487b7100000000000000000000000000000000000000000000000000000000600052603260045260246000fd5b60200201518152602001836001600281106111fa577f4e487b7100000000000000000000000000000000000000000000000000000000600052603260045260246000fd5b602002015181525090509392505050565b60006112156147d3565b60405180604001604052808760006002811061125a577f4e487b7100000000000000000000000000000000000000000000000000000000600052603260045260246000fd5b602002015181526020018760016002811061129e577f4e487b7100000000000000000000000000000000000000000000000000000000600052603260045260246000fd5b6020020151815250816000018190525060405180604001604052806040518060400160405280886000600281106112fe577f4e487b7100000000000000000000000000000000000000000000000000000000600052603260045260246000fd5b602002015160006002811061133c577f4e487b7100000000000000000000000000000000000000000000000000000000600052603260045260246000fd5b6020020151815260200188600060028110611380577f4e487b7100000000000000000000000000000000000000000000000000000000600052603260045260246000fd5b60200201516001600281106113be577f4e487b7100000000000000000000000000000000000000000000000000000000600052603260045260246000fd5b60200201518152508152602001604051806040016040528088600160028110611410577f4e487b7100000000000000000000000000000000000000000000000000000000600052603260045260246000fd5b602002015160006002811061144e577f4e487b7100000000000000000000000000000000000000000000000000000000600052603260045260246000fd5b6020020151815260200188600160028110611492577f4e487b7100000000000000000000000000000000000000000000000000000000600052603260045260246000fd5b60200201516001600281106114d0577f4e487b7100000000000000000000000000000000000000000000000000000000600052603260045260246000fd5b60200201518152508152508160200181905250604051806040016040528085600060028110611528577f4e487b7100000000000000000000000000000000000000000000000000000000600052603260045260246000fd5b602002015181526020018560016002811061156c577f4e487b7100000000000000000000000000000000000000000000000000000000600052603260045260246000fd5b602002015181525081604001819052506000600467ffffffffffffffff8111156115bf577f4e487b7100000000000000000000000000000000000000000000000000000000600052604160045260246000fd5b6040519080825280602002602001820160405280156115ed5781602001602082028036833780820191505090505b50905060005b600481101561169257848160048110611635577f4e487b7100000000000000000000000000000000000000000000000000000000600052603260045260246000fd5b6020020151828281518110611673577f4e487b7100000000000000000000000000000000000000000000000000000000600052603260045260246000fd5b602002602001018181525050808061168a90616079565b9150506115f3565b50600061169f8284613012565b14156116b0576001925050506116b7565b6000925050505b949350505050565b60006116c961219c565b611708576040517f08c379a00000000000000000000000000000000000000000000000000000000081526004016116ff9061590f565b60405180910390fd5b600b5482141561174d576040517f08c379a0000000000000000000000000000000000000000000000000000000008152600401611744906157af565b60405180910390fd5b61175682612289565b9050919050565b600b5481565b61176b61219c565b6117aa576040517f08c379a00000000000000000000000000000000000000000000000000000000081526004016117a19061590f565b60405180910390fd5b600073ffffffffffffffffffffffffffffffffffffffff1660008054906101000a900473ffffffffffffffffffffffffffffffffffffffff1673ffffffffffffffffffffffffffffffffffffffff167f8be0079c531659141344cd1fd0a4f28419497f9722a3daafe3b4186f6b6457e060405160405180910390a360008060006101000a81548173ffffffffffffffffffffffffffffffffffffffff021916908373ffffffffffffffffffffffffffffffffffffffff160217905550565b60066020528060005260406000206000915090508060000160009054906101000a90047cffffffffffffffffffffffffffffffffffffffffffffffffffffffffff169080600001601d9054906101000a900460ff169080600001601e9054906101000a900460ff16905083565b6118dd61219c565b61191c576040517f08c379a00000000000000000000000000000000000000000000000000000000081526004016119139061590f565b60405180910390fd5b60066000827cffffffffffffffffffffffffffffffffffffffffffffffffffffffffff167cffffffffffffffffffffffffffffffffffffffffffffffffffffffffff168152602001908152602001600020600001601d9054906101000a900460ff166119bd576040517f08c379a00000000000000000000000000000000000000000000000000000000081526004016119b49061592f565b60405180910390fd5b6000151560066000837cffffffffffffffffffffffffffffffffffffffffffffffffffffffffff167cffffffffffffffffffffffffffffffffffffffffffffffffffffffffff168152602001908152602001600020600001601e9054906101000a900460ff16151514611a65576040517f08c379a0000000000000000000000000000000000000000000000000000000008152600401611a5c906159af565b60405180910390fd5b600160066000837cffffffffffffffffffffffffffffffffffffffffffffffffffffffffff167cffffffffffffffffffffffffffffffffffffffffffffffffffffffffff168152602001908152602001600020600001601e6101000a81548160ff02191690831515021790555060011515817cffffffffffffffffffffffffffffffffffffffffffffffffffffffffff167fb8d2b8a2b352df7f139810483b3c80fc3a4a88711c90bdb7180f1030b7f49acf60405160405180910390a350565b600080600b67ffffffffffffffff811115611b69577f4e487b7100000000000000000000000000000000000000000000000000000000600052604160045260246000fd5b604051908082528060200260200182016040528015611b975781602001602082028036833780820191505090505b509050611ba2614806565b611baa614806565b60005b8551811015611c4f57858181518110611bef577f4e487b7100000000000000000000000000000000000000000000000000000000600052603260045260246000fd5b6020026020010151848281518110611c30577f4e487b7100000000000000000000000000000000000000000000000000000000600052603260045260246000fd5b6020026020010181815250508080611c4790616079565b915050611bad565b506000855190505b600b811015611cba576000848281518110611c9b577f4e487b7100000000000000000000000000000000000000000000000000000000600052603260045260246000fd5b6020026020010181815250508080611cb290616079565b915050611c57565b5060005b6005811015611dec57838181518110611d00577f4e487b7100000000000000000000000000000000000000000000000000000000600052603260045260246000fd5b6020026020010151838260058110611d41577f4e487b7100000000000000000000000000000000000000000000000000000000600052603260045260246000fd5b60200201818152505083600582611d589190615d02565b81518110611d8f577f4e487b7100000000000000000000000000000000000000000000000000000000600052603260045260246000fd5b6020026020010151828260058110611dd0577f4e487b7100000000000000000000000000000000000000000000000000000000600052603260045260246000fd5b6020020181815250508080611de490616079565b915050611cbe565b50611df561478e565b73__$b710cdd75c8f67476fb0bf0dd303e8ae88$__634937a258846040518263ffffffff1660e01b8152600401611e2c919061573b565b60206040518083038186803b158015611e4457600080fd5b505af4158015611e58573d6000803e3d6000fd5b505050506040513d601f19601f82011682018060405250810190611e7c9190615081565b81600060028110611eb6577f4e487b7100000000000000000000000000000000000000000000000000000000600052603260045260246000fd5b60200201818152505073__$b710cdd75c8f67476fb0bf0dd303e8ae88$__634937a258836040518263ffffffff1660e01b8152600401611ef6919061573b565b60206040518083038186803b158015611f0e57600080fd5b505af4158015611f22573d6000803e3d6000fd5b505050506040513d601f19601f82011682018060405250810190611f469190615081565b81600160028110611f80577f4e487b7100000000000000000000000000000000000000000000000000000000600052603260045260246000fd5b602002018181525050611f9161478e565b73__$ddbd407c0505ab271b485fa1b31e6c7588$__6329a5f2f6836040518263ffffffff1660e01b8152600401611fc891906156e8565b60206040518083038186803b158015611fe057600080fd5b505af4158015611ff4573d6000803e3d6000fd5b505050506040513d601f19601f820116820180604052508101906120189190615081565b81600060028110612052577f4e487b7100000000000000000000000000000000000000000000000000000000600052603260045260246000fd5b60200201818152505084600a81518110612095577f4e487b7100000000000000000000000000000000000000000000000000000000600052603260045260246000fd5b6020026020010151816001600281106120d7577f4e487b7100000000000000000000000000000000000000000000000000000000600052603260045260246000fd5b60200201818152505073__$ddbd407c0505ab271b485fa1b31e6c7588$__6329a5f2f6826040518263ffffffff1660e01b815260040161211791906156e8565b60206040518083038186803b15801561212f57600080fd5b505af4158015612143573d6000803e3d6000fd5b505050506040513d601f19601f820116820180604052508101906121679190615081565b95505050505050919050565b60008060009054906101000a900473ffffffffffffffffffffffffffffffffffffffff16905090565b60008060009054906101000a900473ffffffffffffffffffffffffffffffffffffffff1673ffffffffffffffffffffffffffffffffffffffff163373ffffffffffffffffffffffffffffffffffffffff1614905090565b60075481565b600073__$b710cdd75c8f67476fb0bf0dd303e8ae88$__634937a258836040518263ffffffff1660e01b8152600401612232919061573b565b60206040518083038186803b15801561224a57600080fd5b505af415801561225e573d6000803e3d6000fd5b505050506040513d601f19601f820116820180604052508101906122829190615081565b9050919050565b600061229361219c565b6122d2576040517f08c379a00000000000000000000000000000000000000000000000000000000081526004016122c99061590f565b60405180910390fd5b7f30644e72e131a029b85045b68181585d2833e84879b9709143e1f593f00000018210612334576040517f08c379a000000000000000000000000000000000000000000000000000000000815260040161232b9061588f565b60405180910390fd5b600060149054906101000a900460ff1660ff16600560ff166123569190615ddc565b60015410612399576040517f08c379a000000000000000000000000000000000000000000000000000000000815260040161239090615a4f565b60405180910390fd5b6000600154905060008390506123ad614806565b6000600560ff16846123bf91906160ec565b905060005b600060149054906101000a900460ff1660ff168160ff16101561255e57600082141561245a576000600190505b600560ff168160ff16101561245857600360008360ff16815260200190815260200160002054600460008460ff16815260200190815260200160002060008360ff168152602001908152602001600020819055508080612450906160c2565b9150506123f1565b505b83600460008360ff16815260200190815260200160002060008481526020019081526020016000208190555060005b600560ff168160ff16101561251b57600460008360ff16815260200190815260200160002060008260ff16815260200190815260200160002054848260ff16600581106124ff577f4e487b7100000000000000000000000000000000000000000000000000000000600052603260045260246000fd5b6020020181815250508080612513906160c2565b915050612489565b50612525836121f9565b9350600560ff16856125379190615d58565b9450600560ff168561254991906160ec565b91508080612556906160c2565b9150506123c4565b5082600281905550600160056000600254815260200190815260200160002060006101000a81548160ff0219169083151502179055506000600154905060018060008282546125ad9190615d02565b9250508190555080877fe6f49fa84abd31919f446b22a52bb3ceae774b4b87f062f022fec45c46f4f45860405160405180910390a38495505050505050919050565b6000600154905090565b600060066000837cffffffffffffffffffffffffffffffffffffffffffffffffffffffffff167cffffffffffffffffffffffffffffffffffffffffffffffffffffffffff168152602001908152602001600020600001601d9054906101000a900460ff1661269c576040517f08c379a0000000000000000000000000000000000000000000000000000000008152600401612693906159cf565b60405180910390fd5b600060066000847cffffffffffffffffffffffffffffffffffffffffffffffffffffffffff167cffffffffffffffffffffffffffffffffffffffffffffffffffffffffff16815260200190815260200160002060000160009054906101000a90047cffffffffffffffffffffffffffffffffffffffffffffffffffffffffff169050600160075411801561278e575060066000827cffffffffffffffffffffffffffffffffffffffffffffffffffffffffff167cffffffffffffffffffffffffffffffffffffffffffffffffffffffffff168152602001908152602001600020600001601d9054906101000a900460ff165b6127cd576040517f08c379a00000000000000000000000000000000000000000000000000000000081526004016127c49061580f565b60405180910390fd5b80915050919050565b600a6020528060005260406000206000915054906101000a900460ff1681565b600960009054906101000a90047cffffffffffffffffffffffffffffffffffffffffffffffffffffffffff1681565b61282d61219c565b61286c576040517f08c379a00000000000000000000000000000000000000000000000000000000081526004016128639061590f565b60405180910390fd5b806009601d6101000a81548160ff0219169083151502179055508015157ffba91b9002bc7732a7bff1b44ee16a30ebaeb06d7921779034c6a6ab27e69c2760405160405180910390a250565b600060066000837cffffffffffffffffffffffffffffffffffffffffffffffffffffffffff167cffffffffffffffffffffffffffffffffffffffffffffffffffffffffff168152602001908152602001600020600001601e9054906101000a900460ff169050919050565b60025481565b60056020528060005260406000206000915054906101000a900460ff1681565b61295161219c565b612990576040517f08c379a00000000000000000000000000000000000000000000000000000000081526004016129879061590f565b60405180910390fd5b6129998161329d565b50565b6129a461478e565b6129ac614828565b6129b461478e565b6040518060400160405280856000600881106129f9577f4e487b7100000000000000000000000000000000000000000000000000000000600052603260045260246000fd5b6020020151815260200185600160088110612a3d577f4e487b7100000000000000000000000000000000000000000000000000000000600052603260045260246000fd5b60200201518152506040518060400160405280604051806040016040528088600260088110612a95577f4e487b7100000000000000000000000000000000000000000000000000000000600052603260045260246000fd5b6020020151815260200188600360088110612ad9577f4e487b7100000000000000000000000000000000000000000000000000000000600052603260045260246000fd5b60200201518152508152602001604051806040016040528088600460088110612b2b577f4e487b7100000000000000000000000000000000000000000000000000000000600052603260045260246000fd5b6020020151815260200188600560088110612b6f577f4e487b7100000000000000000000000000000000000000000000000000000000600052603260045260246000fd5b6020020151815250815250604051806040016040528087600660088110612bbf577f4e487b7100000000000000000000000000000000000000000000000000000000600052603260045260246000fd5b6020020151815260200187600760088110612c03577f4e487b7100000000000000000000000000000000000000000000000000000000600052603260045260246000fd5b60200201518152509250925092509193909250565b60007f30644e72e131a029b85045b68181585d2833e84879b9709143e1f593f000000182600060088110612c75577f4e487b7100000000000000000000000000000000000000000000000000000000600052603260045260246000fd5b6020020151108015612ce457507f30644e72e131a029b85045b68181585d2833e84879b9709143e1f593f000000182600160088110612cdd577f4e487b7100000000000000000000000000000000000000000000000000000000600052603260045260246000fd5b6020020151105b8015612d4d57507f30644e72e131a029b85045b68181585d2833e84879b9709143e1f593f000000182600260088110612d46577f4e487b7100000000000000000000000000000000000000000000000000000000600052603260045260246000fd5b6020020151105b8015612db657507f30644e72e131a029b85045b68181585d2833e84879b9709143e1f593f000000182600360088110612daf577f4e487b7100000000000000000000000000000000000000000000000000000000600052603260045260246000fd5b6020020151105b8015612e1f57507f30644e72e131a029b85045b68181585d2833e84879b9709143e1f593f000000182600460088110612e18577f4e487b7100000000000000000000000000000000000000000000000000000000600052603260045260246000fd5b6020020151105b8015612e8857507f30644e72e131a029b85045b68181585d2833e84879b9709143e1f593f000000182600560088110612e81577f4e487b7100000000000000000000000000000000000000000000000000000000600052603260045260246000fd5b6020020151105b8015612ef157507f30644e72e131a029b85045b68181585d2833e84879b9709143e1f593f000000182600660088110612eea577f4e487b7100000000000000000000000000000000000000000000000000000000600052603260045260246000fd5b6020020151105b8015612f5a57507f30644e72e131a029b85045b68181585d2833e84879b9709143e1f593f000000182600760088110612f53577f4e487b7100000000000000000000000000000000000000000000000000000000600052603260045260246000fd5b6020020151105b9050919050565b60006008828051906020012060001c901c9050919050565b61300f81604051602401612f8d919061578d565b6040516020818303038152906040527f41304fac000000000000000000000000000000000000000000000000000000007bffffffffffffffffffffffffffffffffffffffffffffffffffffffff19166020820180517bffffffffffffffffffffffffffffffffffffffffffffffffffffffff83818316178352505050506133ca565b50565b6000807f30644e72e131a029b85045b68181585d2833e84879b9709143e1f593f0000001905060006130426133f3565b9050806080015151600186516130589190615d02565b14613098576040517f08c379a000000000000000000000000000000000000000000000000000000000815260040161308f9061582f565b60405180910390fd5b60006040518060400160405280600081526020016000815250905060005b86518110156131f957838782815181106130f9577f4e487b7100000000000000000000000000000000000000000000000000000000600052603260045260246000fd5b602002602001015110613141576040517f08c379a0000000000000000000000000000000000000000000000000000000008152600401613138906158cf565b60405180910390fd5b6131e4826131df856080015160018561315a9190615d02565b81518110613191577f4e487b7100000000000000000000000000000000000000000000000000000000600052603260045260246000fd5b60200260200101518a85815181106131d2577f4e487b7100000000000000000000000000000000000000000000000000000000600052603260045260246000fd5b6020026020010151613a43565b613b92565b915080806131f190616079565b9150506130b6565b5061324981836080015160008151811061323c577f4e487b7100000000000000000000000000000000000000000000000000000000600052603260045260246000fd5b6020026020010151613b92565b905061327f61325b8660000151613d2d565b8660200151846000015185602001518587604001518b604001518960600151613dd2565b61328f5760019350505050613297565b600093505050505b92915050565b600073ffffffffffffffffffffffffffffffffffffffff168173ffffffffffffffffffffffffffffffffffffffff16141561330d576040517f08c379a0000000000000000000000000000000000000000000000000000000008152600401613304906157cf565b60405180910390fd5b8073ffffffffffffffffffffffffffffffffffffffff1660008054906101000a900473ffffffffffffffffffffffffffffffffffffffff1673ffffffffffffffffffffffffffffffffffffffff167f8be0079c531659141344cd1fd0a4f28419497f9722a3daafe3b4186f6b6457e060405160405180910390a3806000806101000a81548173ffffffffffffffffffffffffffffffffffffffff021916908373ffffffffffffffffffffffffffffffffffffffff16021790555050565b60008151905060006a636f6e736f6c652e6c6f679050602083016000808483855afa5050505050565b6133fb614855565b60405180604001604052807f2d4d9aa7e302d9df41749d5507949d05dbea33fbb16c643b22f599a2be6df2e281526020017f14bedd503c37ceb061d8ec60209fe345ce89830a19230301f076caff004d19268152508160000181905250604051806040016040528060405180604001604052807f0967032fcbf776d1afc985f88877f182d38480a653f2decaa9794cbc3bf3060c81526020017f0e187847ad4c798374d0d6732bf501847dd68bc0e071241e0213bc7fc13db7ab815250815260200160405180604001604052807f304cfbd1e08a704a99f5e847d93f8c3caafddec46b7a0d379da69a4d112346a781526020017f1739c1b1a457a8c7313123d24d2f9192f896b7c63eea05a9d57f06547ad0cec88152508152508160200181905250604051806040016040528060405180604001604052807f198e9393920d483a7260bfb731fb5d25f1aa493335a9e71297e485b7aef312c281526020017f1800deef121f1e76426a00665e5c4479674322d4f75edadd46debd5cd992f6ed815250815260200160405180604001604052807f090689d0585ff075ec9e99ad690c3395bc4b313370b38ef355acdadcd122975b81526020017f12c85ea5db8c6deb4aab71808dcb408fe3d1e7690c43d37b4ce6cc0166fa7daa8152508152508160400181905250604051806040016040528060405180604001604052807f201991951e6d3a07faca09c5c01adf52efbcfcf195dadd0795abcb0a3b087baa81526020017f1424572c8589a9290de872358850076bc5a22f4bb52c906717325b849526c1d4815250815260200160405180604001604052807f14bc8b4ed0f52fb8e02ff1f203781eaf4867a5aad5425521be18f292de89085381526020017f0b2c5da79e5af036828c0e95a07bba10e087bf1ef0d1089f000d2a8d6234e2138152508152508160600181905250600567ffffffffffffffff8111156136e8577f4e487b7100000000000000000000000000000000000000000000000000000000600052604160045260246000fd5b60405190808252806020026020018201604052801561372157816020015b61370e61489c565b8152602001906001900390816137065790505b50816080018190525060405180604001604052807f0f07e0d71f6e287a9d2409daf4d2c4d3e4c217434dbfedcd7b95e4f14a2a9ce381526020017f1825da28e988768b067722947fedc4f23bbb448a7d524cbbaa9f13cc50c5f16e81525081608001516000815181106137bd577f4e487b7100000000000000000000000000000000000000000000000000000000600052603260045260246000fd5b602002602001018190525060405180604001604052807f1bfec925d9158887f4ffed14fdcba2ea4301febd2b700676ad3f2c35f1dd019081526020017f2e45a0da85d21b50af5e656718d90c46575c2f4967fd77008e47e86e128398a8815250816080015160018151811061385b577f4e487b7100000000000000000000000000000000000000000000000000000000600052603260045260246000fd5b602002602001018190525060405180604001604052807f02df25fc4b8cc3309168bb640889caddbd0230d0d2827a011bfc9a33d31ebc7f81526020017f2df627f9de13cb62a404ba7c28d9a6e5563678661c8f4f56cd6b38a3487a23d981525081608001516002815181106138f9577f4e487b7100000000000000000000000000000000000000000000000000000000600052603260045260246000fd5b602002602001018190525060405180604001604052807f16d601cddbc5bd49c1e4eed5cfb17980a7c7bcd342a7871b4ac1d12f3c6c34be81526020017f033cde6708b92b13702189aa346cd0ff7db9468d22ac204d81068d4712887dc38152508160800151600381518110613997577f4e487b7100000000000000000000000000000000000000000000000000000000600052603260045260246000fd5b602002602001018190525060405180604001604052807f1198e1d463542a534d3797ab641f86c3dcd0efd3797a5719a491e60fec3872eb81526020017f2afc8d11c24efc8e11bf7b3e003692455645a3eab2efff3070f10c15bcb07bac8152508160800151600481518110613a35577f4e487b7100000000000000000000000000000000000000000000000000000000600052603260045260246000fd5b602002602001018190525090565b613a4b61489c565b613a536148b6565b836000015181600060038110613a92577f4e487b7100000000000000000000000000000000000000000000000000000000600052603260045260246000fd5b602002018181525050836020015181600160038110613ada577f4e487b7100000000000000000000000000000000000000000000000000000000600052603260045260246000fd5b6020020181815250508281600260038110613b1e577f4e487b7100000000000000000000000000000000000000000000000000000000600052603260045260246000fd5b602002018181525050600060608360808460076107d05a03fa90508060008114613b4757613b49565bfe5b5080613b8a576040517f08c379a0000000000000000000000000000000000000000000000000000000008152600401613b819061586f565b60405180910390fd5b505092915050565b613b9a61489c565b613ba26148d8565b836000015181600060048110613be1577f4e487b7100000000000000000000000000000000000000000000000000000000600052603260045260246000fd5b602002018181525050836020015181600160048110613c29577f4e487b7100000000000000000000000000000000000000000000000000000000600052603260045260246000fd5b602002018181525050826000015181600260048110613c71577f4e487b7100000000000000000000000000000000000000000000000000000000600052603260045260246000fd5b602002018181525050826020015181600360048110613cb9577f4e487b7100000000000000000000000000000000000000000000000000000000600052603260045260246000fd5b602002018181525050600060608360c08460066107d05a03fa90508060008114613ce257613ce4565bfe5b5080613d25576040517f08c379a0000000000000000000000000000000000000000000000000000000008152600401613d1c906159ef565b60405180910390fd5b505092915050565b613d3561489c565b60007f30644e72e131a029b85045b68181585d97816a916871ca8d3c208c16d87cfd47905060008360000151148015613d72575060008360200151145b15613d96576040518060400160405280600081526020016000815250915050613dcd565b604051806040016040528084600001518152602001828560200151613dbb91906160ec565b83613dc69190615f54565b8152509150505b919050565b600080600467ffffffffffffffff811115613e16577f4e487b7100000000000000000000000000000000000000000000000000000000600052604160045260246000fd5b604051908082528060200260200182016040528015613e4f57816020015b613e3c61489c565b815260200190600190039081613e345790505b5090506000600467ffffffffffffffff811115613e95577f4e487b7100000000000000000000000000000000000000000000000000000000600052604160045260246000fd5b604051908082528060200260200182016040528015613ece57816020015b613ebb6148fa565b815260200190600190039081613eb35790505b5090508a82600081518110613f0c577f4e487b7100000000000000000000000000000000000000000000000000000000600052603260045260246000fd5b60200260200101819052508882600181518110613f52577f4e487b7100000000000000000000000000000000000000000000000000000000600052603260045260246000fd5b60200260200101819052508682600281518110613f98577f4e487b7100000000000000000000000000000000000000000000000000000000600052603260045260246000fd5b60200260200101819052508482600381518110613fde577f4e487b7100000000000000000000000000000000000000000000000000000000600052603260045260246000fd5b60200260200101819052508981600081518110614024577f4e487b7100000000000000000000000000000000000000000000000000000000600052603260045260246000fd5b6020026020010181905250878160018151811061406a577f4e487b7100000000000000000000000000000000000000000000000000000000600052603260045260246000fd5b602002602001018190525085816002815181106140b0577f4e487b7100000000000000000000000000000000000000000000000000000000600052603260045260246000fd5b602002602001018190525083816003815181106140f6577f4e487b7100000000000000000000000000000000000000000000000000000000600052603260045260246000fd5b602002602001018190525061410b828261411b565b9250505098975050505050505050565b60008151835114614161576040517f08c379a00000000000000000000000000000000000000000000000000000000081526004016141589061598f565b60405180910390fd5b60008351905060006006826141769190615efa565b905060008167ffffffffffffffff8111156141ba577f4e487b7100000000000000000000000000000000000000000000000000000000600052604160045260246000fd5b6040519080825280602002602001820160405280156141e85781602001602082028036833780820191505090505b50905060005b838110156146cd5786818151811061422f577f4e487b7100000000000000000000000000000000000000000000000000000000600052603260045260246000fd5b60200260200101516000015182600060068461424b9190615efa565b6142559190615d02565b8151811061428c577f4e487b7100000000000000000000000000000000000000000000000000000000600052603260045260246000fd5b6020026020010181815250508681815181106142d1577f4e487b7100000000000000000000000000000000000000000000000000000000600052603260045260246000fd5b6020026020010151602001518260016006846142ed9190615efa565b6142f79190615d02565b8151811061432e577f4e487b7100000000000000000000000000000000000000000000000000000000600052603260045260246000fd5b602002602001018181525050858181518110614373577f4e487b7100000000000000000000000000000000000000000000000000000000600052603260045260246000fd5b6020026020010151600001516000600281106143b8577f4e487b7100000000000000000000000000000000000000000000000000000000600052603260045260246000fd5b60200201518260026006846143cd9190615efa565b6143d79190615d02565b8151811061440e577f4e487b7100000000000000000000000000000000000000000000000000000000600052603260045260246000fd5b602002602001018181525050858181518110614453577f4e487b7100000000000000000000000000000000000000000000000000000000600052603260045260246000fd5b602002602001015160000151600160028110614498577f4e487b7100000000000000000000000000000000000000000000000000000000600052603260045260246000fd5b60200201518260036006846144ad9190615efa565b6144b79190615d02565b815181106144ee577f4e487b7100000000000000000000000000000000000000000000000000000000600052603260045260246000fd5b602002602001018181525050858181518110614533577f4e487b7100000000000000000000000000000000000000000000000000000000600052603260045260246000fd5b602002602001015160200151600060028110614578577f4e487b7100000000000000000000000000000000000000000000000000000000600052603260045260246000fd5b602002015182600460068461458d9190615efa565b6145979190615d02565b815181106145ce577f4e487b7100000000000000000000000000000000000000000000000000000000600052603260045260246000fd5b602002602001018181525050858181518110614613577f4e487b7100000000000000000000000000000000000000000000000000000000600052603260045260246000fd5b602002602001015160200151600160028110614658577f4e487b7100000000000000000000000000000000000000000000000000000000600052603260045260246000fd5b602002015182600560068461466d9190615efa565b6146779190615d02565b815181106146ae577f4e487b7100000000000000000000000000000000000000000000000000000000600052603260045260246000fd5b60200260200101818152505080806146c590616079565b9150506141ee565b506146d6614920565b6000602082602086026020860160086107d05a03fa905080600081146146fb576146fd565bfe5b508061473e576040517f08c379a000000000000000000000000000000000000000000000000000000000815260040161473590615a2f565b60405180910390fd5b60008260006001811061477a577f4e487b7100000000000000000000000000000000000000000000000000000000600052603260045260246000fd5b602002015114159550505050505092915050565b6040518060400160405280600290602082028036833780820191505090505090565b604051806101000160405280600890602082028036833780820191505090505090565b60405180606001604052806147e661489c565b81526020016147f36148fa565b815260200161480061489c565b81525090565b6040518060a00160405280600590602082028036833780820191505090505090565b60405180604001604052806002905b61483f61478e565b8152602001906001900390816148375790505090565b6040518060a0016040528061486861489c565b81526020016148756148fa565b81526020016148826148fa565b815260200161488f6148fa565b8152602001606081525090565b604051806040016040528060008152602001600081525090565b6040518060600160405280600390602082028036833780820191505090505090565b6040518060800160405280600490602082028036833780820191505090505090565b604051806040016040528061490d61478e565b815260200161491a61478e565b81525090565b6040518060200160405280600190602082028036833780820191505090505090565b600061495561495084615b01565b615adc565b9050808285604086028201111561496b57600080fd5b60005b8581101561499b57816149818882614c17565b84526020840193506040830192505060018101905061496e565b5050509392505050565b60006149b86149b384615b27565b615adc565b905080828560208602820111156149ce57600080fd5b60005b858110156149fe57816149e48882614d31565b8452602084019350602083019250506001810190506149d1565b5050509392505050565b6000614a1b614a1684615b4d565b615adc565b90508082856020860282011115614a3157600080fd5b60005b85811015614a615781614a478882614d31565b845260208401935060208301925050600181019050614a34565b5050509392505050565b6000614a7e614a7984615b73565b615adc565b90508082856020860282011115614a9457600080fd5b60005b85811015614ac45781614aaa8882614d31565b845260208401935060208301925050600181019050614a97565b5050509392505050565b6000614ae1614adc84615b99565b615adc565b90508082856020860282011115614af757600080fd5b60005b85811015614b275781614b0d8882614d31565b845260208401935060208301925050600181019050614afa565b5050509392505050565b6000614b44614b3f84615bbf565b615adc565b90508083825260208201905082856020860282011115614b6357600080fd5b60005b85811015614b935781614b798882614d31565b845260208401935060208301925050600181019050614b66565b5050509392505050565b6000614bb0614bab84615beb565b615adc565b905082815260208101848484011115614bc857600080fd5b614bd3848285616006565b509392505050565b600081359050614bea816166a4565b92915050565b600082601f830112614c0157600080fd5b6002614c0e848285614942565b91505092915050565b600082601f830112614c2857600080fd5b6002614c358482856149a5565b91505092915050565b600082601f830112614c4f57600080fd5b6004614c5c848285614a08565b91505092915050565b600082601f830112614c7657600080fd5b6005614c83848285614a6b565b91505092915050565b600082601f830112614c9d57600080fd5b6008614caa848285614ace565b91505092915050565b600082601f830112614cc457600080fd5b8135614cd4848260208601614b31565b91505092915050565b600081359050614cec816166bb565b92915050565b600082601f830112614d0357600080fd5b8135614d13848260208601614b9d565b91505092915050565b600081359050614d2b816166d2565b92915050565b600081359050614d40816166e9565b92915050565b600081519050614d55816166e9565b92915050565b600060208284031215614d6d57600080fd5b6000614d7b84828501614bdb565b91505092915050565b60008060006101008486031215614d9a57600080fd5b6000614da886828701614c17565b9350506040614db986828701614bf0565b92505060c0614dca86828701614c17565b9150509250925092565b6000806000806101808587031215614deb57600080fd5b6000614df987828801614c17565b9450506040614e0a87828801614bf0565b93505060c0614e1b87828801614c17565b925050610100614e2d87828801614c3e565b91505092959194509250565b600060a08284031215614e4b57600080fd5b6000614e5984828501614c65565b91505092915050565b60006101008284031215614e7557600080fd5b6000614e8384828501614c8c565b91505092915050565b600060208284031215614e9e57600080fd5b600082013567ffffffffffffffff811115614eb857600080fd5b614ec484828501614cb3565b91505092915050565b600060208284031215614edf57600080fd5b6000614eed84828501614cdd565b91505092915050565b60008060008060006101808688031215614f0f57600080fd5b600086013567ffffffffffffffff811115614f2957600080fd5b614f3588828901614cf2565b9550506020614f4688828901614c8c565b945050610120614f5888828901614d31565b935050610140614f6a88828901614d31565b925050610160614f7c88828901614d1c565b9150509295509295909350565b6000806000806000806101a08789031215614fa357600080fd5b600087013567ffffffffffffffff811115614fbd57600080fd5b614fc989828a01614cf2565b9650506020614fda89828a01614c8c565b955050610120614fec89828a01614d31565b945050610140614ffe89828a01614d31565b93505061016061501089828a01614d31565b92505061018061502289828a01614d1c565b9150509295509295509295565b60006020828403121561504157600080fd5b600061504f84828501614d1c565b91505092915050565b60006020828403121561506a57600080fd5b600061507884828501614d31565b91505092915050565b60006020828403121561509357600080fd5b60006150a184828501614d46565b91505092915050565b600080604083850312156150bd57600080fd5b60006150cb85828601614d31565b92505060206150dc85828601614d31565b9150509250929050565b60006150f28383615194565b60408301905092915050565b600061510a83836156a0565b60208301905092915050565b600061512283836156be565b60208301905092915050565b61513781615f88565b82525050565b61514681615c44565b6151508184615caf565b925061515b82615c1c565b8060005b8381101561518c57815161517387826150e6565b965061517e83615c7b565b92505060018101905061515f565b505050505050565b61519d81615c4f565b6151a78184615cba565b92506151b282615c26565b8060005b838110156151e35781516151ca87826150fe565b96506151d583615c88565b9250506001810190506151b6565b505050505050565b6151f481615c4f565b6151fe8184615cc5565b925061520982615c26565b8060005b8381101561523a57815161522187826150fe565b965061522c83615c88565b92505060018101905061520d565b505050505050565b61524b81615c4f565b6152558184615cd0565b925061526082615c26565b8060005b838110156152915781516152788782615116565b965061528383615c88565b925050600181019050615264565b505050505050565b6152a281615c5a565b6152ac8184615cdb565b92506152b782615c30565b8060005b838110156152e85781516152cf8782615116565b96506152da83615c95565b9250506001810190506152bb565b505050505050565b6152f981615c65565b6153038184615ce6565b925061530e82615c3a565b8060005b8381101561533f57815161532687826150fe565b965061533183615ca2565b925050600181019050615312565b505050505050565b61535081615f9a565b82525050565b600061536182615c70565b61536b8185615cf1565b935061537b818560208601616015565b615384816161aa565b840191505092915050565b600061539c602383615cf1565b91506153a7826161c8565b604082019050919050565b60006153bf602683615cf1565b91506153ca82616217565b604082019050919050565b60006153e2603183615cf1565b91506153ed82616266565b604082019050919050565b6000615405603483615cf1565b9150615410826162b5565b604082019050919050565b6000615428601283615cf1565b915061543382616304565b602082019050919050565b600061544b601683615cf1565b91506154568261632d565b602082019050919050565b600061546e601283615cf1565b915061547982616356565b602082019050919050565b6000615491604583615cf1565b915061549c8261637f565b606082019050919050565b60006154b4601783615cf1565b91506154bf826163f4565b602082019050919050565b60006154d7601f83615cf1565b91506154e28261641d565b602082019050919050565b60006154fa602683615cf1565b915061550582616446565b604082019050919050565b600061551d602083615cf1565b915061552882616495565b602082019050919050565b6000615540601c83615cf1565b915061554b826164be565b602082019050919050565b6000615563601e83615cf1565b915061556e826164e7565b602082019050919050565b6000615586600d83615cf1565b915061559182616510565b602082019050919050565b60006155a9601683615cf1565b91506155b482616539565b602082019050919050565b60006155cc602483615cf1565b91506155d782616562565b604082019050919050565b60006155ef601a83615cf1565b91506155fa826165b1565b602082019050919050565b6000615612601283615cf1565b915061561d826165da565b602082019050919050565b6000615635601b83615cf1565b915061564082616603565b602082019050919050565b6000615658601583615cf1565b91506156638261662c565b602082019050919050565b600061567b602183615cf1565b915061568682616655565b604082019050919050565b61569a81615fc6565b82525050565b6156a981615fef565b82525050565b6156b881615fef565b82525050565b6156c781615fef565b82525050565b60006020820190506156e2600083018461512e565b92915050565b60006040820190506156fd6000830184615242565b92915050565b60006101008201905061571960008301866151eb565b615726604083018561513d565b61573360c08301846151eb565b949350505050565b600060a0820190506157506000830184615299565b92915050565b60006101008201905061576c60008301846152f0565b92915050565b60006020820190506157876000830184615347565b92915050565b600060208201905081810360008301526157a78184615356565b905092915050565b600060208201905081810360008301526157c88161538f565b9050919050565b600060208201905081810360008301526157e8816153b2565b9050919050565b60006020820190508181036000830152615808816153d5565b9050919050565b60006020820190508181036000830152615828816153f8565b9050919050565b600060208201905081810360008301526158488161541b565b9050919050565b600060208201905081810360008301526158688161543e565b9050919050565b6000602082019050818103600083015261588881615461565b9050919050565b600060208201905081810360008301526158a881615484565b9050919050565b600060208201905081810360008301526158c8816154a7565b9050919050565b600060208201905081810360008301526158e8816154ca565b9050919050565b60006020820190508181036000830152615908816154ed565b9050919050565b6000602082019050818103600083015261592881615510565b9050919050565b6000602082019050818103600083015261594881615533565b9050919050565b6000602082019050818103600083015261596881615556565b9050919050565b6000602082019050818103600083015261598881615579565b9050919050565b600060208201905081810360008301526159a88161559c565b9050919050565b600060208201905081810360008301526159c8816155bf565b9050919050565b600060208201905081810360008301526159e8816155e2565b9050919050565b60006020820190508181036000830152615a0881615605565b9050919050565b60006020820190508181036000830152615a2881615628565b9050919050565b60006020820190508181036000830152615a488161564b565b9050919050565b60006020820190508181036000830152615a688161566e565b9050919050565b6000602082019050615a846000830184615691565b92915050565b6000606082019050615a9f6000830186615691565b615aac6020830185615347565b615ab96040830184615347565b949350505050565b6000602082019050615ad660008301846156af565b92915050565b6000615ae6615af7565b9050615af28282616048565b919050565b6000604051905090565b600067ffffffffffffffff821115615b1c57615b1b61617b565b5b602082029050919050565b600067ffffffffffffffff821115615b4257615b4161617b565b5b602082029050919050565b600067ffffffffffffffff821115615b6857615b6761617b565b5b602082029050919050565b600067ffffffffffffffff821115615b8e57615b8d61617b565b5b602082029050919050565b600067ffffffffffffffff821115615bb457615bb361617b565b5b602082029050919050565b600067ffffffffffffffff821115615bda57615bd961617b565b5b602082029050602081019050919050565b600067ffffffffffffffff821115615c0657615c0561617b565b5b615c0f826161aa565b9050602081019050919050565b6000819050919050565b6000819050919050565b6000819050919050565b6000819050919050565b600060029050919050565b600060029050919050565b600060059050919050565b600060089050919050565b600081519050919050565b6000602082019050919050565b6000602082019050919050565b6000602082019050919050565b6000602082019050919050565b600081905092915050565b600081905092915050565b600081905092915050565b600081905092915050565b600081905092915050565b600081905092915050565b600082825260208201905092915050565b6000615d0d82615fef565b9150615d1883615fef565b9250827fffffffffffffffffffffffffffffffffffffffffffffffffffffffffffffffff03821115615d4d57615d4c61611d565b5b828201905092915050565b6000615d6382615fef565b9150615d6e83615fef565b925082615d7e57615d7d61614c565b5b828204905092915050565b6000808291508390505b6001851115615dd357808604811115615daf57615dae61611d565b5b6001851615615dbe5780820291505b8081029050615dcc856161bb565b9450615d93565b94509492505050565b6000615de782615fef565b9150615df283615fef565b9250615e1f7fffffffffffffffffffffffffffffffffffffffffffffffffffffffffffffffff8484615e27565b905092915050565b600082615e375760019050615ef3565b81615e455760009050615ef3565b8160018114615e5b5760028114615e6557615e94565b6001915050615ef3565b60ff841115615e7757615e7661611d565b5b8360020a915084821115615e8e57615e8d61611d565b5b50615ef3565b5060208310610133831016604e8410600b8410161715615ec95782820a905083811115615ec457615ec361611d565b5b615ef3565b615ed68484846001615d89565b92509050818404811115615eed57615eec61611d565b5b81810290505b9392505050565b6000615f0582615fef565b9150615f1083615fef565b9250817fffffffffffffffffffffffffffffffffffffffffffffffffffffffffffffffff0483118215151615615f4957615f4861611d565b5b828202905092915050565b6000615f5f82615fef565b9150615f6a83615fef565b925082821015615f7d57615f7c61611d565b5b828203905092915050565b6000615f9382615fa6565b9050919050565b60008115159050919050565b600073ffffffffffffffffffffffffffffffffffffffff82169050919050565b60007cffffffffffffffffffffffffffffffffffffffffffffffffffffffffff82169050919050565b6000819050919050565b600060ff82169050919050565b82818337600083830152505050565b60005b83811015616033578082015181840152602081019050616018565b83811115616042576000848401525b50505050565b616051826161aa565b810181811067ffffffffffffffff821117156160705761606f61617b565b5b80604052505050565b600061608482615fef565b91507fffffffffffffffffffffffffffffffffffffffffffffffffffffffffffffffff8214156160b7576160b661611d565b5b600182019050919050565b60006160cd82615ff9565b915060ff8214156160e1576160e061611d565b5b600182019050919050565b60006160f782615fef565b915061610283615fef565b9250826161125761611161614c565b5b828206905092915050565b7f4e487b7100000000000000000000000000000000000000000000000000000000600052601160045260246000fd5b7f4e487b7100000000000000000000000000000000000000000000000000000000600052601260045260246000fd5b7f4e487b7100000000000000000000000000000000000000000000000000000000600052604160045260246000fd5b6000601f19601f8301169050919050565b60008160011c9050919050565b7f63616e2774206265206e6f7468696e672d75702d6d792d736c656576652d766160008201527f6c75650000000000000000000000000000000000000000000000000000000000602082015250565b7f4f776e61626c653a206e6577206f776e657220697320746865207a65726f206160008201527f6464726573730000000000000000000000000000000000000000000000000000602082015250565b7f6e756c6c6966696572732068617368206d757374206265206c7420746865207360008201527f6e61726b207363616c6172206669656c64000000000000000000000000000000602082015250565b7f6e6f2065787465726e616c206e756c6c6966696572206578697374732061667460008201527f65722074686520737065636966696564206f6e65000000000000000000000000602082015250565b7f76657269666965722d6261642d696e7075740000000000000000000000000000600082015250565b7f6e756c6c696669657220616c7265616479207365656e00000000000000000000600082015250565b7f70616972696e672d6d756c2d6661696c65640000000000000000000000000000600082015250565b7f496e6372656d656e74616c5175696e547265653a20696e736572744c6561662060008201527f617267756d656e74206d757374206265203c20534e41524b5f5343414c41525f60208201527f4649454c44000000000000000000000000000000000000000000000000000000604082015250565b7f53656d6170686f72653a726f6f74206e6f74207365656e000000000000000000600082015250565b7f76657269666965722d6774652d736e61726b2d7363616c61722d6669656c6400600082015250565b7f65787465726e616c206e756c6c696669657220616c726561647920646561637460008201527f6976617465640000000000000000000000000000000000000000000000000000602082015250565b7f4f776e61626c653a2063616c6c6572206973206e6f7420746865206f776e6572600082015250565b7f65787465726e616c206e756c6c6966696572206e6f7420666f756e6400000000600082015250565b7f696e76616c6964206669656c6420656c656d656e7420696e2070726f6f660000600082015250565b7f696e76616c69642070726f6f6600000000000000000000000000000000000000600082015250565b7f70616972696e672d6c656e677468732d6661696c656400000000000000000000600082015250565b7f65787465726e616c206e756c6c696669657220697320616c726561647920616360008201527f7469766500000000000000000000000000000000000000000000000000000000602082015250565b7f6e6f20737563682065787465726e616c206e756c6c6966696572000000000000600082015250565b7f70616972696e672d6164642d6661696c65640000000000000000000000000000600082015250565b7f62726f616463617374207065726d697373696f6e2064656e6965640000000000600082015250565b7f70616972696e672d6f70636f64652d6661696c65640000000000000000000000600082015250565b7f496e6372656d656e74616c5175696e547265653a20747265652069732066756c60008201527f6c00000000000000000000000000000000000000000000000000000000000000602082015250565b6166ad81615f88565b81146166b857600080fd5b50565b6166c481615f9a565b81146166cf57600080fd5b50565b6166db81615fc6565b81146166e657600080fd5b50565b6166f281615fef565b81146166fd57600080fd5b5056fe53656d6170686f72652e736f6c2061646445787465726e616c4e756c6c6966696572a26469706673582212203ebf813ddfd1c38c810ca735c3cf68b62a3383cfd63e7fe6693d143dec2b72da64736f6c6343000804003353656d6170686f72654465706c6f7965723a20746869732069732073656d6170686f7265206f776e6572a26469706673582212201b4029fcc9127091390d780b5142ab3d6a30993d93a0e0cc54524fa885cf0c5b64736f6c63430008040033",
  "linkReferences": {
    "contracts/semaphore/Poseidon.sol": {
      "PoseidonT3": [
        {
          "length": 20,
          "start": 9594
        },
        {
          "length": 20,
          "start": 14430
        },
        {
          "length": 20,
          "start": 14765
        }
      ],
      "PoseidonT6": [
        {
          "length": 20,
          "start": 3894
        },
        {
          "length": 20,
          "start": 14018
        },
        {
          "length": 20,
          "start": 14220
        },
        {
          "length": 20,
          "start": 15048
        }
      ]
    }
  },
  "deployedLinkReferences": {
    "contracts/semaphore/Poseidon.sol": {
      "PoseidonT3": [
        {
          "length": 20,
          "start": 9375
        },
        {
          "length": 20,
          "start": 14211
        },
        {
          "length": 20,
          "start": 14546
        }
      ],
      "PoseidonT6": [
        {
          "length": 20,
          "start": 3675
        },
        {
          "length": 20,
          "start": 13799
        },
        {
          "length": 20,
          "start": 14001
        },
        {
          "length": 20,
          "start": 14829
        }
      ]
    }
  }
}