{
  "_format": "hh-sol-artifact-1",
  "contractName": "Semaphore",
  "sourceName": "contracts/semaphore/Semaphore.sol",
  "abi": [
    {
      "inputs": [
        {
          "internalType": "uint8",
          "name": "_treeLevels",
          "type": "uint8"
        },
        {
          "internalType": "uint232",
          "name": "_firstExternalNullifier",
          "type": "uint232"
        }
      ],
      "stateMutability": "nonpayable",
      "type": "constructor"
    },
    {
      "anonymous": false,
      "inputs": [
        {
          "indexed": true,
          "internalType": "uint232",
          "name": "externalNullifier",
          "type": "uint232"
        }
      ],
      "name": "ExternalNullifierAdd",
      "type": "event"
    },
    {
      "anonymous": false,
      "inputs": [
        {
          "indexed": true,
          "internalType": "uint232",
          "name": "externalNullifier",
          "type": "uint232"
        },
        {
          "indexed": true,
          "internalType": "bool",
          "name": "active",
          "type": "bool"
        }
      ],
      "name": "ExternalNullifierChangeStatus",
      "type": "event"
    },
    {
      "anonymous": false,
      "inputs": [
        {
          "indexed": true,
          "internalType": "uint256",
          "name": "leaf",
          "type": "uint256"
        },
        {
          "indexed": true,
          "internalType": "uint256",
          "name": "leafIndex",
          "type": "uint256"
        }
      ],
      "name": "LeafInsertion",
      "type": "event"
    },
    {
      "anonymous": false,
      "inputs": [
        {
          "indexed": true,
          "internalType": "address",
          "name": "previousOwner",
          "type": "address"
        },
        {
          "indexed": true,
          "internalType": "address",
          "name": "newOwner",
          "type": "address"
        }
      ],
      "name": "OwnershipTransferred",
      "type": "event"
    },
    {
      "anonymous": false,
      "inputs": [
        {
          "indexed": true,
          "internalType": "bool",
          "name": "newPermission",
          "type": "bool"
        }
      ],
      "name": "PermissionSet",
      "type": "event"
    },
    {
      "inputs": [],
      "name": "NOTHING_UP_MY_SLEEVE_ZERO",
      "outputs": [
        {
          "internalType": "uint256",
          "name": "",
          "type": "uint256"
        }
      ],
      "stateMutability": "view",
      "type": "function"
    },
    {
      "inputs": [
        {
          "internalType": "uint232",
          "name": "_externalNullifier",
          "type": "uint232"
        }
      ],
      "name": "addExternalNullifier",
      "outputs": [],
      "stateMutability": "nonpayable",
      "type": "function"
    },
    {
      "inputs": [
        {
          "internalType": "bytes",
          "name": "_signal",
          "type": "bytes"
        },
        {
          "internalType": "uint256[8]",
          "name": "_proof",
          "type": "uint256[8]"
        },
        {
          "internalType": "uint256",
          "name": "_root",
          "type": "uint256"
        },
        {
          "internalType": "uint256",
          "name": "_nullifiersHash",
          "type": "uint256"
        },
        {
          "internalType": "uint232",
          "name": "_externalNullifier",
          "type": "uint232"
        }
      ],
      "name": "broadcastSignal",
      "outputs": [],
      "stateMutability": "nonpayable",
      "type": "function"
    },
    {
      "inputs": [
        {
          "internalType": "uint232",
          "name": "_externalNullifier",
          "type": "uint232"
        }
      ],
      "name": "deactivateExternalNullifier",
      "outputs": [],
      "stateMutability": "nonpayable",
      "type": "function"
    },
    {
      "inputs": [
        {
          "internalType": "uint232",
          "name": "",
          "type": "uint232"
        }
      ],
      "name": "externalNullifierLinkedList",
      "outputs": [
        {
          "internalType": "uint232",
          "name": "next",
          "type": "uint232"
        },
        {
          "internalType": "bool",
          "name": "exists",
          "type": "bool"
        },
        {
          "internalType": "bool",
          "name": "isActive",
          "type": "bool"
        }
      ],
      "stateMutability": "view",
      "type": "function"
    },
    {
      "inputs": [],
      "name": "firstExternalNullifier",
      "outputs": [
        {
          "internalType": "uint232",
          "name": "",
          "type": "uint232"
        }
      ],
      "stateMutability": "view",
      "type": "function"
    },
    {
      "inputs": [
        {
          "internalType": "uint232",
          "name": "_externalNullifier",
          "type": "uint232"
        }
      ],
      "name": "getNextExternalNullifier",
      "outputs": [
        {
          "internalType": "uint232",
          "name": "",
          "type": "uint232"
        }
      ],
      "stateMutability": "view",
      "type": "function"
    },
    {
      "inputs": [],
      "name": "getNumIdentityCommitments",
      "outputs": [
        {
          "internalType": "uint256",
          "name": "",
          "type": "uint256"
        }
      ],
      "stateMutability": "view",
      "type": "function"
    },
    {
      "inputs": [
        {
          "internalType": "uint256[]",
          "name": "array",
          "type": "uint256[]"
        }
      ],
      "name": "hash11",
      "outputs": [
        {
          "internalType": "uint256",
          "name": "",
          "type": "uint256"
        }
      ],
      "stateMutability": "pure",
      "type": "function"
    },
    {
      "inputs": [
        {
          "internalType": "uint256[5]",
          "name": "array",
          "type": "uint256[5]"
        }
      ],
      "name": "hash5",
      "outputs": [
        {
          "internalType": "uint256",
          "name": "",
          "type": "uint256"
        }
      ],
      "stateMutability": "pure",
      "type": "function"
    },
    {
      "inputs": [
        {
          "internalType": "uint256",
          "name": "_left",
          "type": "uint256"
        },
        {
          "internalType": "uint256",
          "name": "_right",
          "type": "uint256"
        }
      ],
      "name": "hashLeftRight",
      "outputs": [
        {
          "internalType": "uint256",
          "name": "",
          "type": "uint256"
        }
      ],
      "stateMutability": "pure",
      "type": "function"
    },
    {
      "inputs": [
        {
          "internalType": "uint256",
          "name": "_identityCommitment",
          "type": "uint256"
        }
      ],
      "name": "insertIdentity",
      "outputs": [
        {
          "internalType": "uint256",
          "name": "",
          "type": "uint256"
        }
      ],
      "stateMutability": "nonpayable",
      "type": "function"
    },
    {
      "inputs": [
        {
          "internalType": "uint256",
          "name": "_leaf",
          "type": "uint256"
        }
      ],
      "name": "insertLeaf",
      "outputs": [
        {
          "internalType": "uint256",
          "name": "",
          "type": "uint256"
        }
      ],
      "stateMutability": "nonpayable",
      "type": "function"
    },
    {
      "inputs": [],
      "name": "isBroadcastPermissioned",
      "outputs": [
        {
          "internalType": "bool",
          "name": "",
          "type": "bool"
        }
      ],
      "stateMutability": "view",
      "type": "function"
    },
    {
      "inputs": [
        {
          "internalType": "uint232",
          "name": "_externalNullifier",
          "type": "uint232"
        }
      ],
      "name": "isExternalNullifierActive",
      "outputs": [
        {
          "internalType": "bool",
          "name": "",
          "type": "bool"
        }
      ],
      "stateMutability": "view",
      "type": "function"
    },
    {
      "inputs": [],
      "name": "isOwner",
      "outputs": [
        {
          "internalType": "bool",
          "name": "",
          "type": "bool"
        }
      ],
      "stateMutability": "view",
      "type": "function"
    },
    {
      "inputs": [],
      "name": "lastExternalNullifier",
      "outputs": [
        {
          "internalType": "uint232",
          "name": "",
          "type": "uint232"
        }
      ],
      "stateMutability": "view",
      "type": "function"
    },
    {
      "inputs": [
        {
          "internalType": "uint256",
          "name": "",
          "type": "uint256"
        }
      ],
      "name": "nullifierHashHistory",
      "outputs": [
        {
          "internalType": "bool",
          "name": "",
          "type": "bool"
        }
      ],
      "stateMutability": "view",
      "type": "function"
    },
    {
      "inputs": [],
      "name": "numExternalNullifiers",
      "outputs": [
        {
          "internalType": "uint256",
          "name": "",
          "type": "uint256"
        }
      ],
      "stateMutability": "view",
      "type": "function"
    },
    {
      "inputs": [],
      "name": "owner",
      "outputs": [
        {
          "internalType": "address",
          "name": "",
          "type": "address"
        }
      ],
      "stateMutability": "view",
      "type": "function"
    },
    {
      "inputs": [
        {
          "internalType": "uint256[2]",
          "name": "_a",
          "type": "uint256[2]"
        },
        {
          "internalType": "uint256[2][2]",
          "name": "_b",
          "type": "uint256[2][2]"
        },
        {
          "internalType": "uint256[2]",
          "name": "_c",
          "type": "uint256[2]"
        }
      ],
      "name": "packProof",
      "outputs": [
        {
          "internalType": "uint256[8]",
          "name": "",
          "type": "uint256[8]"
        }
      ],
      "stateMutability": "pure",
      "type": "function"
    },
    {
      "inputs": [
        {
          "internalType": "bytes",
          "name": "_signal",
          "type": "bytes"
        },
        {
          "internalType": "uint256[8]",
          "name": "_proof",
          "type": "uint256[8]"
        },
        {
          "internalType": "uint256",
          "name": "_root",
          "type": "uint256"
        },
        {
          "internalType": "uint256",
          "name": "_nullifiersHash",
          "type": "uint256"
        },
        {
          "internalType": "uint256",
          "name": "_signalHash",
          "type": "uint256"
        },
        {
          "internalType": "uint232",
          "name": "_externalNullifier",
          "type": "uint232"
        }
      ],
      "name": "preBroadcastCheck",
      "outputs": [
        {
          "internalType": "bool",
          "name": "",
          "type": "bool"
        }
      ],
      "stateMutability": "view",
      "type": "function"
    },
    {
      "inputs": [
        {
          "internalType": "uint232",
          "name": "_externalNullifier",
          "type": "uint232"
        }
      ],
      "name": "reactivateExternalNullifier",
      "outputs": [],
      "stateMutability": "nonpayable",
      "type": "function"
    },
    {
      "inputs": [],
      "name": "renounceOwnership",
      "outputs": [],
      "stateMutability": "nonpayable",
      "type": "function"
    },
    {
      "inputs": [],
      "name": "root",
      "outputs": [
        {
          "internalType": "uint256",
          "name": "",
          "type": "uint256"
        }
      ],
      "stateMutability": "view",
      "type": "function"
    },
    {
      "inputs": [
        {
          "internalType": "uint256",
          "name": "",
          "type": "uint256"
        }
      ],
      "name": "rootHistory",
      "outputs": [
        {
          "internalType": "bool",
          "name": "",
          "type": "bool"
        }
      ],
      "stateMutability": "view",
      "type": "function"
    },
    {
      "inputs": [
        {
          "internalType": "bool",
          "name": "_newPermission",
          "type": "bool"
        }
      ],
      "name": "setPermissioning",
      "outputs": [],
      "stateMutability": "nonpayable",
      "type": "function"
    },
    {
      "inputs": [
        {
          "internalType": "address",
          "name": "newOwner",
          "type": "address"
        }
      ],
      "name": "transferOwnership",
      "outputs": [],
      "stateMutability": "nonpayable",
      "type": "function"
    },
    {
      "inputs": [
        {
          "internalType": "uint256[8]",
          "name": "_proof",
          "type": "uint256[8]"
        }
      ],
      "name": "unpackProof",
      "outputs": [
        {
          "internalType": "uint256[2]",
          "name": "",
          "type": "uint256[2]"
        },
        {
          "internalType": "uint256[2][2]",
          "name": "",
          "type": "uint256[2][2]"
        },
        {
          "internalType": "uint256[2]",
          "name": "",
          "type": "uint256[2]"
        }
      ],
      "stateMutability": "pure",
      "type": "function"
    },
    {
      "inputs": [
        {
          "internalType": "uint256[2]",
          "name": "a",
          "type": "uint256[2]"
        },
        {
          "internalType": "uint256[2][2]",
          "name": "b",
          "type": "uint256[2][2]"
        },
        {
          "internalType": "uint256[2]",
          "name": "c",
          "type": "uint256[2]"
        },
        {
          "internalType": "uint256[4]",
          "name": "input",
          "type": "uint256[4]"
        }
      ],
      "name": "verifyProof",
      "outputs": [
        {
          "internalType": "bool",
          "name": "r",
          "type": "bool"
        }
      ],
      "stateMutability": "view",
      "type": "function"
    }
  ],
  "bytecode": "0x6080604052600060015560006007556000600860006101000a8154817cffffffffffffffffffffffffffffffffffffffffffffffffffffffffff02191690837cffffffffffffffffffffffffffffffffffffffffffffffffffffffffff1602179055506000600960006101000a8154817cffffffffffffffffffffffffffffffffffffffffffffffffffffffffff02191690837cffffffffffffffffffffffffffffffffffffffffffffffffffffffffff16021790555060016009601d6101000a81548160ff0219169083151502179055507f30644e72e131a029b85045b68181585d2833e84879b9709143e1f593f00000016040516020016200010390620008d7565b6040516020818303038152906040528051906020012060001c62000128919062000a0b565b600b553480156200013857600080fd5b5060405162006e7738038062006e7783398181016040528101906200015e919062000821565b81600b54336000806101000a81548173ffffffffffffffffffffffffffffffffffffffff021916908373ffffffffffffffffffffffffffffffffffffffff16021790555060008054906101000a900473ffffffffffffffffffffffffffffffffffffffff1673ffffffffffffffffffffffffffffffffffffffff16600073ffffffffffffffffffffffffffffffffffffffff167f8be0079c531659141344cd1fd0a4f28419497f9722a3daafe3b4186f6b6457e060405160405180910390a360008260ff16118015620002385750602060ff168260ff1611155b6200027a576040517f08c379a00000000000000000000000000000000000000000000000000000000081526004016200027190620008ee565b60405180910390fd5b81600060146101000a81548160ff021916908360ff1602179055506000819050620002a4620007d1565b60005b8460ff168160ff1610156200036b5760005b600560ff168160ff161015620003265783838260ff166005811062000307577f4e487b7100000000000000000000000000000000000000000000000000000000600052603260045260246000fd5b60200201818152505080806200031d90620009dc565b915050620002b9565b5082600360008360ff1681526020019081526020016000208190555062000353826200039260201b60201c565b925080806200036290620009dc565b915050620002a7565b5081600281905550505050506200038a816001620003b160201b60201c565b505062000b76565b6000620003aa82620007ca60201b620029241760201c565b9050919050565b8015620004115781600860006101000a8154817cffffffffffffffffffffffffffffffffffffffffffffffffffffffffff02191690837cffffffffffffffffffffffffffffffffffffffffffffffffffffffffff1602179055506200058d565b6000151560066000847cffffffffffffffffffffffffffffffffffffffffffffffffffffffffff167cffffffffffffffffffffffffffffffffffffffffffffffffffffffffff168152602001908152602001600020600001601d9054906101000a900460ff16151514620004bc576040517f08c379a0000000000000000000000000000000000000000000000000000000008152600401620004b39062000910565b60405180910390fd5b8160066000600960009054906101000a90047cffffffffffffffffffffffffffffffffffffffffffffffffffffffffff167cffffffffffffffffffffffffffffffffffffffffffffffffffffffffff167cffffffffffffffffffffffffffffffffffffffffffffffffffffffffff16815260200190815260200160002060000160006101000a8154817cffffffffffffffffffffffffffffffffffffffffffffffffffffffffff02191690837cffffffffffffffffffffffffffffffffffffffffffffffffffffffffff1602179055505b600060066000847cffffffffffffffffffffffffffffffffffffffffffffffffffffffffff167cffffffffffffffffffffffffffffffffffffffffffffffffffffffffff16815260200190815260200160002060000160006101000a8154817cffffffffffffffffffffffffffffffffffffffffffffffffffffffffff02191690837cffffffffffffffffffffffffffffffffffffffffffffffffffffffffff160217905550600160066000847cffffffffffffffffffffffffffffffffffffffffffffffffffffffffff167cffffffffffffffffffffffffffffffffffffffffffffffffffffffffff168152602001908152602001600020600001601e6101000a81548160ff021916908315150217905550600160066000847cffffffffffffffffffffffffffffffffffffffffffffffffffffffffff167cffffffffffffffffffffffffffffffffffffffffffffffffffffffffff168152602001908152602001600020600001601d6101000a81548160ff02191690831515021790555081600960006101000a8154817cffffffffffffffffffffffffffffffffffffffffffffffffffffffffff02191690837cffffffffffffffffffffffffffffffffffffffffffffffffffffffffff1602179055506007600081548092919062000775906200098e565b9190505550817cffffffffffffffffffffffffffffffffffffffffffffffffffffffffff167fd1ca56647596090d70fa8d49bcc376b97248314e3f204c491333b3440405f58960405160405180910390a25050565b6000919050565b6040518060a00160405280600590602082028036833780820191505090505090565b600081519050620008048162000b42565b92915050565b6000815190506200081b8162000b5c565b92915050565b600080604083850312156200083557600080fd5b600062000845858286016200080a565b92505060206200085885828601620007f3565b9150509250929050565b60006200087160398362000932565b91506200087e8262000aa1565b604082019050919050565b600062000898601e8362000932565b9150620008a58262000af0565b602082019050919050565b6000620008bf60098362000943565b9150620008cc8262000b19565b600982019050919050565b6000620008e482620008b0565b9150819050919050565b60006020820190508181036000830152620009098162000862565b9050919050565b600060208201905081810360008301526200092b8162000889565b9050919050565b600082825260208201905092915050565b600081905092915050565b60007cffffffffffffffffffffffffffffffffffffffffffffffffffffffffff82169050919050565b6000819050919050565b600060ff82169050919050565b60006200099b8262000977565b91507fffffffffffffffffffffffffffffffffffffffffffffffffffffffffffffffff821415620009d157620009d062000a43565b5b600182019050919050565b6000620009e98262000981565b915060ff82141562000a0057620009ff62000a43565b5b600182019050919050565b600062000a188262000977565b915062000a258362000977565b92508262000a385762000a3762000a72565b5b828206905092915050565b7f4e487b7100000000000000000000000000000000000000000000000000000000600052601160045260246000fd5b7f4e487b7100000000000000000000000000000000000000000000000000000000600052601260045260246000fd5b7f496e6372656d656e74616c5175696e547265653a205f747265654c6576656c7360008201527f206d757374206265206265747765656e203020616e6420333300000000000000602082015250565b7f65787465726e616c206e756c6c696669657220616c7265616479207365740000600082015250565b7f53656d6170686f72650000000000000000000000000000000000000000000000600082015250565b62000b4d816200094e565b811462000b5957600080fd5b50565b62000b678162000981565b811462000b7357600080fd5b50565b6162f18062000b866000396000f3fe608060405234801561001057600080fd5b50600436106101da5760003560e01c80638da5cb5b11610104578063c4cd5596116100a2578063ebf0c71711610071578063ebf0c717146105a7578063f1c621ee146105c5578063f2fde38b146105f5578063f5ab0dd614610611576101da565b8063c4cd55961461050d578063c8cf02da1461053d578063ce85bbdb1461055b578063eac4287e14610577576101da565b80639cfced97116100de5780639cfced971461045f578063b72024341461048f578063ba10b81d146104bf578063c3a3407f146104dd576101da565b80638da5cb5b146104055780638f32d59b146104235780638f6efd0014610441576101da565b80635e05ea171161017c578063715018a61161014b578063715018a61461037d5780637a5519f914610387578063819bd8a5146103b95780638a1a52d2146103d5576101da565b80635e05ea17146102cf5780635fe8c13b146102ff5780636d80efca1461032f5780636ebf62651461035f576101da565b8063539f38b2116101b8578063539f38b2146102355780635bb93995146102515780635d3ce725146102815780635d86faba146102b1576101da565b80630e57596f146101df57806323baaa83146101fb578063283ebaf414610217575b600080fd5b6101f960048036038101906101f49190614bfb565b610643565b005b61021560048036038101906102109190614d34565b61094d565b005b61021f610b9d565b60405161022c9190615343565b60405180910390f35b61024f600480360381019061024a9190614d34565b610bb0565b005b61026b60048036038101906102669190614d86565b610c1b565b6040516102789190615692565b60405180910390f35b61029b60048036038101906102969190614c8e565b610cbf565b6040516102a89190615343565b60405180910390f35b6102b9610e2b565b6040516102c69190615640565b60405180910390f35b6102e960048036038101906102e49190614a89565b610e5a565b6040516102f69190615327565b60405180910390f35b61031960048036038101906103149190614ad9565b61118d565b6040516103269190615343565b60405180910390f35b61034960048036038101906103449190614d5d565b611641565b6040516103569190615692565b60405180910390f35b6103676116df565b6040516103749190615692565b60405180910390f35b6103856116e5565b005b6103a1600480360381019061039c9190614d34565b6117ea565b6040516103b09392919061565b565b60405180910390f35b6103d360048036038101906103ce9190614d34565b611857565b005b6103ef60048036038101906103ea9190614b91565b611aa7565b6040516103fc9190615692565b60405180910390f35b61040d611efd565b60405161041a91906152d4565b60405180910390f35b61042b611f26565b6040516104389190615343565b60405180910390f35b610449611f7d565b6040516104569190615692565b60405180910390f35b61047960048036038101906104749190614b3e565b611f83565b6040516104869190615692565b60405180910390f35b6104a960048036038101906104a49190614d5d565b611f95565b6040516104b69190615692565b60405180910390f35b6104c76122fb565b6040516104d49190615692565b60405180910390f35b6104f760048036038101906104f29190614d34565b612305565b6040516105049190615640565b60405180910390f35b61052760048036038101906105229190614d5d565b6124e2565b6040516105349190615343565b60405180910390f35b610545612502565b6040516105529190615640565b60405180910390f35b61057560048036038101906105709190614bd2565b612531565b005b610591600480360381019061058c9190614d34565b6125c4565b60405161059e9190615343565b60405180910390f35b6105af61262f565b6040516105bc9190615692565b60405180910390f35b6105df60048036038101906105da9190614d5d565b612635565b6040516105ec9190615343565b60405180910390f35b61060f600480360381019061060a9190614a60565b612655565b005b61062b60048036038101906106269190614b67565b6126a8565b60405161063a939291906152ef565b60405180910390f35b6009601d9054906101000a900460ff1615806106635750610662611f26565b5b6106a2576040517f08c379a0000000000000000000000000000000000000000000000000000000008152600401610699906155e0565b60405180910390fd5b84848484846106b08461292b565b6106ef576040517f08c379a00000000000000000000000000000000000000000000000000000000081526004016106e690615520565b60405180910390fd5b60001515600a600084815260200190815260200160002060009054906101000a900460ff16151514610756576040517f08c379a000000000000000000000000000000000000000000000000000000000815260040161074d90615420565b60405180910390fd5b61075f816125c4565b61079e576040517f08c379a000000000000000000000000000000000000000000000000000000000815260040161079590615500565b60405180910390fd5b6005600084815260200190815260200160002060009054906101000a900460ff166107fe576040517f08c379a00000000000000000000000000000000000000000000000000000000081526004016107f590615480565b60405180910390fd5b600061080986612c74565b90507f30644e72e131a029b85045b68181585d2833e84879b9709143e1f593f0000001831061086d576040517f08c379a0000000000000000000000000000000000000000000000000000000008152600401610864906153c0565b60405180910390fd5b60006040518060800160405280868152602001858152602001838152602001847cffffffffffffffffffffffffffffffffffffffffffffffffffffffffff16815250905060008060006108bf896126a8565b9250925092506108d18383838761118d565b610910576040517f08c379a000000000000000000000000000000000000000000000000000000000815260040161090790615540565b60405180910390fd5b6001600a60008e815260200190815260200160002060006101000a81548160ff021916908315150217905550505050505050505050505050505050565b610955611f26565b610994576040517f08c379a000000000000000000000000000000000000000000000000000000000815260040161098b906154e0565b60405180910390fd5b60066000827cffffffffffffffffffffffffffffffffffffffffffffffffffffffffff167cffffffffffffffffffffffffffffffffffffffffffffffffffffffffff168152602001908152602001600020600001601d9054906101000a900460ff16610a35576040517f08c379a0000000000000000000000000000000000000000000000000000000008152600401610a2c90615500565b60405180910390fd5b6001151560066000837cffffffffffffffffffffffffffffffffffffffffffffffffffffffffff167cffffffffffffffffffffffffffffffffffffffffffffffffffffffffff168152602001908152602001600020600001601e9054906101000a900460ff16151514610add576040517f08c379a0000000000000000000000000000000000000000000000000000000008152600401610ad4906154c0565b60405180910390fd5b600060066000837cffffffffffffffffffffffffffffffffffffffffffffffffffffffffff167cffffffffffffffffffffffffffffffffffffffffffffffffffffffffff168152602001908152602001600020600001601e6101000a81548160ff02191690831515021790555060001515817cffffffffffffffffffffffffffffffffffffffffffffffffffffffffff167fb8d2b8a2b352df7f139810483b3c80fc3a4a88711c90bdb7180f1030b7f49acf60405160405180910390a350565b6009601d9054906101000a900460ff1681565b610bb8611f26565b610bf7576040517f08c379a0000000000000000000000000000000000000000000000000000000008152600401610bee906154e0565b60405180910390fd5b610c1860405180606001604052806022815260200161629a60229139612c8c565b50565b6000610c256144a8565b8381600060028110610c60577f4e487b7100000000000000000000000000000000000000000000000000000000600052603260045260246000fd5b6020020181815250508281600160028110610ca4577f4e487b7100000000000000000000000000000000000000000000000000000000600052603260045260246000fd5b602002018181525050610cb681612d25565b91505092915050565b6000806040518060800160405280878152602001868152602001858152602001847cffffffffffffffffffffffffffffffffffffffffffffffffffffffffff1681525090506000806000610d128a6126a8565b92509250925060001515600a60008a815260200190815260200160002060009054906101000a900460ff161515148015610d53575086610d518c612c74565b145b8015610d665750610d638b612c74565b87145b8015610d775750610d76866125c4565b5b8015610da05750600560008a815260200190815260200160002060009054906101000a900460ff165b8015610db15750610db08a61292b565b5b8015610ddc57507f30644e72e131a029b85045b68181585d2833e84879b9709143e1f593f000000189105b8015610e0757507f30644e72e131a029b85045b68181585d2833e84879b9709143e1f593f000000188105b8015610e1b5750610e1a8383838761118d565b5b9450505050509695505050505050565b600860009054906101000a90047cffffffffffffffffffffffffffffffffffffffffffffffffffffffffff1681565b610e626144ca565b60405180610100016040528085600060028110610ea8577f4e487b7100000000000000000000000000000000000000000000000000000000600052603260045260246000fd5b6020020151815260200185600160028110610eec577f4e487b7100000000000000000000000000000000000000000000000000000000600052603260045260246000fd5b6020020151815260200184600060028110610f30577f4e487b7100000000000000000000000000000000000000000000000000000000600052603260045260246000fd5b6020020151600060028110610f6e577f4e487b7100000000000000000000000000000000000000000000000000000000600052603260045260246000fd5b6020020151815260200184600060028110610fb2577f4e487b7100000000000000000000000000000000000000000000000000000000600052603260045260246000fd5b6020020151600160028110610ff0577f4e487b7100000000000000000000000000000000000000000000000000000000600052603260045260246000fd5b6020020151815260200184600160028110611034577f4e487b7100000000000000000000000000000000000000000000000000000000600052603260045260246000fd5b6020020151600060028110611072577f4e487b7100000000000000000000000000000000000000000000000000000000600052603260045260246000fd5b60200201518152602001846001600281106110b6577f4e487b7100000000000000000000000000000000000000000000000000000000600052603260045260246000fd5b60200201516001600281106110f4577f4e487b7100000000000000000000000000000000000000000000000000000000600052603260045260246000fd5b6020020151815260200183600060028110611138577f4e487b7100000000000000000000000000000000000000000000000000000000600052603260045260246000fd5b602002015181526020018360016002811061117c577f4e487b7100000000000000000000000000000000000000000000000000000000600052603260045260246000fd5b602002015181525090509392505050565b60006111976144ed565b6040518060400160405280876000600281106111dc577f4e487b7100000000000000000000000000000000000000000000000000000000600052603260045260246000fd5b6020020151815260200187600160028110611220577f4e487b7100000000000000000000000000000000000000000000000000000000600052603260045260246000fd5b602002015181525081600001819052506040518060400160405280604051806040016040528088600060028110611280577f4e487b7100000000000000000000000000000000000000000000000000000000600052603260045260246000fd5b60200201516000600281106112be577f4e487b7100000000000000000000000000000000000000000000000000000000600052603260045260246000fd5b6020020151815260200188600060028110611302577f4e487b7100000000000000000000000000000000000000000000000000000000600052603260045260246000fd5b6020020151600160028110611340577f4e487b7100000000000000000000000000000000000000000000000000000000600052603260045260246000fd5b60200201518152508152602001604051806040016040528088600160028110611392577f4e487b7100000000000000000000000000000000000000000000000000000000600052603260045260246000fd5b60200201516000600281106113d0577f4e487b7100000000000000000000000000000000000000000000000000000000600052603260045260246000fd5b6020020151815260200188600160028110611414577f4e487b7100000000000000000000000000000000000000000000000000000000600052603260045260246000fd5b6020020151600160028110611452577f4e487b7100000000000000000000000000000000000000000000000000000000600052603260045260246000fd5b602002015181525081525081602001819052506040518060400160405280856000600281106114aa577f4e487b7100000000000000000000000000000000000000000000000000000000600052603260045260246000fd5b60200201518152602001856001600281106114ee577f4e487b7100000000000000000000000000000000000000000000000000000000600052603260045260246000fd5b602002015181525081604001819052506000600467ffffffffffffffff811115611541577f4e487b7100000000000000000000000000000000000000000000000000000000600052604160045260246000fd5b60405190808252806020026020018201604052801561156f5781602001602082028036833780820191505090505b50905060005b6004811015611614578481600481106115b7577f4e487b7100000000000000000000000000000000000000000000000000000000600052603260045260246000fd5b60200201518282815181106115f5577f4e487b7100000000000000000000000000000000000000000000000000000000600052603260045260246000fd5b602002602001018181525050808061160c90615c12565b915050611575565b5060006116218284612d2c565b141561163257600192505050611639565b6000925050505b949350505050565b600061164b611f26565b61168a576040517f08c379a0000000000000000000000000000000000000000000000000000000008152600401611681906154e0565b60405180910390fd5b600b548214156116cf576040517f08c379a00000000000000000000000000000000000000000000000000000000081526004016116c690615380565b60405180910390fd5b6116d882611f95565b9050919050565b600b5481565b6116ed611f26565b61172c576040517f08c379a0000000000000000000000000000000000000000000000000000000008152600401611723906154e0565b60405180910390fd5b600073ffffffffffffffffffffffffffffffffffffffff1660008054906101000a900473ffffffffffffffffffffffffffffffffffffffff1673ffffffffffffffffffffffffffffffffffffffff167f8be0079c531659141344cd1fd0a4f28419497f9722a3daafe3b4186f6b6457e060405160405180910390a360008060006101000a81548173ffffffffffffffffffffffffffffffffffffffff021916908373ffffffffffffffffffffffffffffffffffffffff160217905550565b60066020528060005260406000206000915090508060000160009054906101000a90047cffffffffffffffffffffffffffffffffffffffffffffffffffffffffff169080600001601d9054906101000a900460ff169080600001601e9054906101000a900460ff16905083565b61185f611f26565b61189e576040517f08c379a0000000000000000000000000000000000000000000000000000000008152600401611895906154e0565b60405180910390fd5b60066000827cffffffffffffffffffffffffffffffffffffffffffffffffffffffffff167cffffffffffffffffffffffffffffffffffffffffffffffffffffffffff168152602001908152602001600020600001601d9054906101000a900460ff1661193f576040517f08c379a000000000000000000000000000000000000000000000000000000000815260040161193690615500565b60405180910390fd5b6000151560066000837cffffffffffffffffffffffffffffffffffffffffffffffffffffffffff167cffffffffffffffffffffffffffffffffffffffffffffffffffffffffff168152602001908152602001600020600001601e9054906101000a900460ff161515146119e7576040517f08c379a00000000000000000000000000000000000000000000000000000000081526004016119de90615580565b60405180910390fd5b600160066000837cffffffffffffffffffffffffffffffffffffffffffffffffffffffffff167cffffffffffffffffffffffffffffffffffffffffffffffffffffffffff168152602001908152602001600020600001601e6101000a81548160ff02191690831515021790555060011515817cffffffffffffffffffffffffffffffffffffffffffffffffffffffffff167fb8d2b8a2b352df7f139810483b3c80fc3a4a88711c90bdb7180f1030b7f49acf60405160405180910390a350565b600080600b67ffffffffffffffff811115611aeb577f4e487b7100000000000000000000000000000000000000000000000000000000600052604160045260246000fd5b604051908082528060200260200182016040528015611b195781602001602082028036833780820191505090505b509050611b24614520565b611b2c614520565b60005b8551811015611bd157858181518110611b71577f4e487b7100000000000000000000000000000000000000000000000000000000600052603260045260246000fd5b6020026020010151848281518110611bb2577f4e487b7100000000000000000000000000000000000000000000000000000000600052603260045260246000fd5b6020026020010181815250508080611bc990615c12565b915050611b2f565b506000855190505b600b811015611c3c576000848281518110611c1d577f4e487b7100000000000000000000000000000000000000000000000000000000600052603260045260246000fd5b6020026020010181815250508080611c3490615c12565b915050611bd9565b5060005b6005811015611d6e57838181518110611c82577f4e487b7100000000000000000000000000000000000000000000000000000000600052603260045260246000fd5b6020026020010151838260058110611cc3577f4e487b7100000000000000000000000000000000000000000000000000000000600052603260045260246000fd5b60200201818152505083600582611cda919061589b565b81518110611d11577f4e487b7100000000000000000000000000000000000000000000000000000000600052603260045260246000fd5b6020026020010151828260058110611d52577f4e487b7100000000000000000000000000000000000000000000000000000000600052603260045260246000fd5b6020020181815250508080611d6690615c12565b915050611c40565b50611d776144a8565b611d8083612924565b81600060028110611dba577f4e487b7100000000000000000000000000000000000000000000000000000000600052603260045260246000fd5b602002018181525050611dcc82612924565b81600160028110611e06577f4e487b7100000000000000000000000000000000000000000000000000000000600052603260045260246000fd5b602002018181525050611e176144a8565b611e2082612d25565b81600060028110611e5a577f4e487b7100000000000000000000000000000000000000000000000000000000600052603260045260246000fd5b60200201818152505084600a81518110611e9d577f4e487b7100000000000000000000000000000000000000000000000000000000600052603260045260246000fd5b602002602001015181600160028110611edf577f4e487b7100000000000000000000000000000000000000000000000000000000600052603260045260246000fd5b602002018181525050611ef181612d25565b95505050505050919050565b60008060009054906101000a900473ffffffffffffffffffffffffffffffffffffffff16905090565b60008060009054906101000a900473ffffffffffffffffffffffffffffffffffffffff1673ffffffffffffffffffffffffffffffffffffffff163373ffffffffffffffffffffffffffffffffffffffff1614905090565b60075481565b6000611f8e82612924565b9050919050565b6000611f9f611f26565b611fde576040517f08c379a0000000000000000000000000000000000000000000000000000000008152600401611fd5906154e0565b60405180910390fd5b7f30644e72e131a029b85045b68181585d2833e84879b9709143e1f593f00000018210612040576040517f08c379a000000000000000000000000000000000000000000000000000000000815260040161203790615460565b60405180910390fd5b600060149054906101000a900460ff1660ff16600560ff166120629190615975565b600154106120a5576040517f08c379a000000000000000000000000000000000000000000000000000000000815260040161209c90615620565b60405180910390fd5b6000600154905060008390506120b9614520565b6000600560ff16846120cb9190615c85565b905060005b600060149054906101000a900460ff1660ff168160ff16101561226a576000821415612166576000600190505b600560ff168160ff16101561216457600360008360ff16815260200190815260200160002054600460008460ff16815260200190815260200160002060008360ff16815260200190815260200160002081905550808061215c90615c5b565b9150506120fd565b505b83600460008360ff16815260200190815260200160002060008481526020019081526020016000208190555060005b600560ff168160ff16101561222757600460008360ff16815260200190815260200160002060008260ff16815260200190815260200160002054848260ff166005811061220b577f4e487b7100000000000000000000000000000000000000000000000000000000600052603260045260246000fd5b602002018181525050808061221f90615c5b565b915050612195565b5061223183611f83565b9350600560ff168561224391906158f1565b9450600560ff16856122559190615c85565b9150808061226290615c5b565b9150506120d0565b5082600281905550600160056000600254815260200190815260200160002060006101000a81548160ff0219169083151502179055506000600154905060018060008282546122b9919061589b565b9250508190555080877fe6f49fa84abd31919f446b22a52bb3ceae774b4b87f062f022fec45c46f4f45860405160405180910390a38495505050505050919050565b6000600154905090565b600060066000837cffffffffffffffffffffffffffffffffffffffffffffffffffffffffff167cffffffffffffffffffffffffffffffffffffffffffffffffffffffffff168152602001908152602001600020600001601d9054906101000a900460ff166123a8576040517f08c379a000000000000000000000000000000000000000000000000000000000815260040161239f906155a0565b60405180910390fd5b600060066000847cffffffffffffffffffffffffffffffffffffffffffffffffffffffffff167cffffffffffffffffffffffffffffffffffffffffffffffffffffffffff16815260200190815260200160002060000160009054906101000a90047cffffffffffffffffffffffffffffffffffffffffffffffffffffffffff169050600160075411801561249a575060066000827cffffffffffffffffffffffffffffffffffffffffffffffffffffffffff167cffffffffffffffffffffffffffffffffffffffffffffffffffffffffff168152602001908152602001600020600001601d9054906101000a900460ff165b6124d9576040517f08c379a00000000000000000000000000000000000000000000000000000000081526004016124d0906153e0565b60405180910390fd5b80915050919050565b600a6020528060005260406000206000915054906101000a900460ff1681565b600960009054906101000a90047cffffffffffffffffffffffffffffffffffffffffffffffffffffffffff1681565b612539611f26565b612578576040517f08c379a000000000000000000000000000000000000000000000000000000000815260040161256f906154e0565b60405180910390fd5b806009601d6101000a81548160ff0219169083151502179055508015157ffba91b9002bc7732a7bff1b44ee16a30ebaeb06d7921779034c6a6ab27e69c2760405160405180910390a250565b600060066000837cffffffffffffffffffffffffffffffffffffffffffffffffffffffffff167cffffffffffffffffffffffffffffffffffffffffffffffffffffffffff168152602001908152602001600020600001601e9054906101000a900460ff169050919050565b60025481565b60056020528060005260406000206000915054906101000a900460ff1681565b61265d611f26565b61269c576040517f08c379a0000000000000000000000000000000000000000000000000000000008152600401612693906154e0565b60405180910390fd5b6126a581612fb7565b50565b6126b06144a8565b6126b8614542565b6126c06144a8565b604051806040016040528085600060088110612705577f4e487b7100000000000000000000000000000000000000000000000000000000600052603260045260246000fd5b6020020151815260200185600160088110612749577f4e487b7100000000000000000000000000000000000000000000000000000000600052603260045260246000fd5b602002015181525060405180604001604052806040518060400160405280886002600881106127a1577f4e487b7100000000000000000000000000000000000000000000000000000000600052603260045260246000fd5b60200201518152602001886003600881106127e5577f4e487b7100000000000000000000000000000000000000000000000000000000600052603260045260246000fd5b60200201518152508152602001604051806040016040528088600460088110612837577f4e487b7100000000000000000000000000000000000000000000000000000000600052603260045260246000fd5b602002015181526020018860056008811061287b577f4e487b7100000000000000000000000000000000000000000000000000000000600052603260045260246000fd5b60200201518152508152506040518060400160405280876006600881106128cb577f4e487b7100000000000000000000000000000000000000000000000000000000600052603260045260246000fd5b602002015181526020018760076008811061290f577f4e487b7100000000000000000000000000000000000000000000000000000000600052603260045260246000fd5b60200201518152509250925092509193909250565b6000919050565b60007f30644e72e131a029b85045b68181585d2833e84879b9709143e1f593f000000182600060088110612988577f4e487b7100000000000000000000000000000000000000000000000000000000600052603260045260246000fd5b60200201511080156129f757507f30644e72e131a029b85045b68181585d2833e84879b9709143e1f593f0000001826001600881106129f0577f4e487b7100000000000000000000000000000000000000000000000000000000600052603260045260246000fd5b6020020151105b8015612a6057507f30644e72e131a029b85045b68181585d2833e84879b9709143e1f593f000000182600260088110612a59577f4e487b7100000000000000000000000000000000000000000000000000000000600052603260045260246000fd5b6020020151105b8015612ac957507f30644e72e131a029b85045b68181585d2833e84879b9709143e1f593f000000182600360088110612ac2577f4e487b7100000000000000000000000000000000000000000000000000000000600052603260045260246000fd5b6020020151105b8015612b3257507f30644e72e131a029b85045b68181585d2833e84879b9709143e1f593f000000182600460088110612b2b577f4e487b7100000000000000000000000000000000000000000000000000000000600052603260045260246000fd5b6020020151105b8015612b9b57507f30644e72e131a029b85045b68181585d2833e84879b9709143e1f593f000000182600560088110612b94577f4e487b7100000000000000000000000000000000000000000000000000000000600052603260045260246000fd5b6020020151105b8015612c0457507f30644e72e131a029b85045b68181585d2833e84879b9709143e1f593f000000182600660088110612bfd577f4e487b7100000000000000000000000000000000000000000000000000000000600052603260045260246000fd5b6020020151105b8015612c6d57507f30644e72e131a029b85045b68181585d2833e84879b9709143e1f593f000000182600760088110612c66577f4e487b7100000000000000000000000000000000000000000000000000000000600052603260045260246000fd5b6020020151105b9050919050565b60006008828051906020012060001c901c9050919050565b612d2281604051602401612ca0919061535e565b6040516020818303038152906040527f41304fac000000000000000000000000000000000000000000000000000000007bffffffffffffffffffffffffffffffffffffffffffffffffffffffff19166020820180517bffffffffffffffffffffffffffffffffffffffffffffffffffffffff83818316178352505050506130e4565b50565b6000919050565b6000807f30644e72e131a029b85045b68181585d2833e84879b9709143e1f593f000000190506000612d5c61310d565b905080608001515160018651612d72919061589b565b14612db2576040517f08c379a0000000000000000000000000000000000000000000000000000000008152600401612da990615400565b60405180910390fd5b60006040518060400160405280600081526020016000815250905060005b8651811015612f135783878281518110612e13577f4e487b7100000000000000000000000000000000000000000000000000000000600052603260045260246000fd5b602002602001015110612e5b576040517f08c379a0000000000000000000000000000000000000000000000000000000008152600401612e52906154a0565b60405180910390fd5b612efe82612ef98560800151600185612e74919061589b565b81518110612eab577f4e487b7100000000000000000000000000000000000000000000000000000000600052603260045260246000fd5b60200260200101518a8581518110612eec577f4e487b7100000000000000000000000000000000000000000000000000000000600052603260045260246000fd5b602002602001015161375d565b6138ac565b91508080612f0b90615c12565b915050612dd0565b50612f63818360800151600081518110612f56577f4e487b7100000000000000000000000000000000000000000000000000000000600052603260045260246000fd5b60200260200101516138ac565b9050612f99612f758660000151613a47565b8660200151846000015185602001518587604001518b604001518960600151613aec565b612fa95760019350505050612fb1565b600093505050505b92915050565b600073ffffffffffffffffffffffffffffffffffffffff168173ffffffffffffffffffffffffffffffffffffffff161415613027576040517f08c379a000000000000000000000000000000000000000000000000000000000815260040161301e906153a0565b60405180910390fd5b8073ffffffffffffffffffffffffffffffffffffffff1660008054906101000a900473ffffffffffffffffffffffffffffffffffffffff1673ffffffffffffffffffffffffffffffffffffffff167f8be0079c531659141344cd1fd0a4f28419497f9722a3daafe3b4186f6b6457e060405160405180910390a3806000806101000a81548173ffffffffffffffffffffffffffffffffffffffff021916908373ffffffffffffffffffffffffffffffffffffffff16021790555050565b60008151905060006a636f6e736f6c652e6c6f679050602083016000808483855afa5050505050565b61311561456f565b60405180604001604052807f2d4d9aa7e302d9df41749d5507949d05dbea33fbb16c643b22f599a2be6df2e281526020017f14bedd503c37ceb061d8ec60209fe345ce89830a19230301f076caff004d19268152508160000181905250604051806040016040528060405180604001604052807f0967032fcbf776d1afc985f88877f182d38480a653f2decaa9794cbc3bf3060c81526020017f0e187847ad4c798374d0d6732bf501847dd68bc0e071241e0213bc7fc13db7ab815250815260200160405180604001604052807f304cfbd1e08a704a99f5e847d93f8c3caafddec46b7a0d379da69a4d112346a781526020017f1739c1b1a457a8c7313123d24d2f9192f896b7c63eea05a9d57f06547ad0cec88152508152508160200181905250604051806040016040528060405180604001604052807f198e9393920d483a7260bfb731fb5d25f1aa493335a9e71297e485b7aef312c281526020017f1800deef121f1e76426a00665e5c4479674322d4f75edadd46debd5cd992f6ed815250815260200160405180604001604052807f090689d0585ff075ec9e99ad690c3395bc4b313370b38ef355acdadcd122975b81526020017f12c85ea5db8c6deb4aab71808dcb408fe3d1e7690c43d37b4ce6cc0166fa7daa8152508152508160400181905250604051806040016040528060405180604001604052807f201991951e6d3a07faca09c5c01adf52efbcfcf195dadd0795abcb0a3b087baa81526020017f1424572c8589a9290de872358850076bc5a22f4bb52c906717325b849526c1d4815250815260200160405180604001604052807f14bc8b4ed0f52fb8e02ff1f203781eaf4867a5aad5425521be18f292de89085381526020017f0b2c5da79e5af036828c0e95a07bba10e087bf1ef0d1089f000d2a8d6234e2138152508152508160600181905250600567ffffffffffffffff811115613402577f4e487b7100000000000000000000000000000000000000000000000000000000600052604160045260246000fd5b60405190808252806020026020018201604052801561343b57816020015b6134286145b6565b8152602001906001900390816134205790505b50816080018190525060405180604001604052807f0f07e0d71f6e287a9d2409daf4d2c4d3e4c217434dbfedcd7b95e4f14a2a9ce381526020017f1825da28e988768b067722947fedc4f23bbb448a7d524cbbaa9f13cc50c5f16e81525081608001516000815181106134d7577f4e487b7100000000000000000000000000000000000000000000000000000000600052603260045260246000fd5b602002602001018190525060405180604001604052807f1bfec925d9158887f4ffed14fdcba2ea4301febd2b700676ad3f2c35f1dd019081526020017f2e45a0da85d21b50af5e656718d90c46575c2f4967fd77008e47e86e128398a88152508160800151600181518110613575577f4e487b7100000000000000000000000000000000000000000000000000000000600052603260045260246000fd5b602002602001018190525060405180604001604052807f02df25fc4b8cc3309168bb640889caddbd0230d0d2827a011bfc9a33d31ebc7f81526020017f2df627f9de13cb62a404ba7c28d9a6e5563678661c8f4f56cd6b38a3487a23d98152508160800151600281518110613613577f4e487b7100000000000000000000000000000000000000000000000000000000600052603260045260246000fd5b602002602001018190525060405180604001604052807f16d601cddbc5bd49c1e4eed5cfb17980a7c7bcd342a7871b4ac1d12f3c6c34be81526020017f033cde6708b92b13702189aa346cd0ff7db9468d22ac204d81068d4712887dc381525081608001516003815181106136b1577f4e487b7100000000000000000000000000000000000000000000000000000000600052603260045260246000fd5b602002602001018190525060405180604001604052807f1198e1d463542a534d3797ab641f86c3dcd0efd3797a5719a491e60fec3872eb81526020017f2afc8d11c24efc8e11bf7b3e003692455645a3eab2efff3070f10c15bcb07bac815250816080015160048151811061374f577f4e487b7100000000000000000000000000000000000000000000000000000000600052603260045260246000fd5b602002602001018190525090565b6137656145b6565b61376d6145d0565b8360000151816000600381106137ac577f4e487b7100000000000000000000000000000000000000000000000000000000600052603260045260246000fd5b6020020181815250508360200151816001600381106137f4577f4e487b7100000000000000000000000000000000000000000000000000000000600052603260045260246000fd5b6020020181815250508281600260038110613838577f4e487b7100000000000000000000000000000000000000000000000000000000600052603260045260246000fd5b602002018181525050600060608360808460076107d05a03fa9050806000811461386157613863565bfe5b50806138a4576040517f08c379a000000000000000000000000000000000000000000000000000000000815260040161389b90615440565b60405180910390fd5b505092915050565b6138b46145b6565b6138bc6145f2565b8360000151816000600481106138fb577f4e487b7100000000000000000000000000000000000000000000000000000000600052603260045260246000fd5b602002018181525050836020015181600160048110613943577f4e487b7100000000000000000000000000000000000000000000000000000000600052603260045260246000fd5b60200201818152505082600001518160026004811061398b577f4e487b7100000000000000000000000000000000000000000000000000000000600052603260045260246000fd5b6020020181815250508260200151816003600481106139d3577f4e487b7100000000000000000000000000000000000000000000000000000000600052603260045260246000fd5b602002018181525050600060608360c08460066107d05a03fa905080600081146139fc576139fe565bfe5b5080613a3f576040517f08c379a0000000000000000000000000000000000000000000000000000000008152600401613a36906155c0565b60405180910390fd5b505092915050565b613a4f6145b6565b60007f30644e72e131a029b85045b68181585d97816a916871ca8d3c208c16d87cfd47905060008360000151148015613a8c575060008360200151145b15613ab0576040518060400160405280600081526020016000815250915050613ae7565b604051806040016040528084600001518152602001828560200151613ad59190615c85565b83613ae09190615aed565b8152509150505b919050565b600080600467ffffffffffffffff811115613b30577f4e487b7100000000000000000000000000000000000000000000000000000000600052604160045260246000fd5b604051908082528060200260200182016040528015613b6957816020015b613b566145b6565b815260200190600190039081613b4e5790505b5090506000600467ffffffffffffffff811115613baf577f4e487b7100000000000000000000000000000000000000000000000000000000600052604160045260246000fd5b604051908082528060200260200182016040528015613be857816020015b613bd5614614565b815260200190600190039081613bcd5790505b5090508a82600081518110613c26577f4e487b7100000000000000000000000000000000000000000000000000000000600052603260045260246000fd5b60200260200101819052508882600181518110613c6c577f4e487b7100000000000000000000000000000000000000000000000000000000600052603260045260246000fd5b60200260200101819052508682600281518110613cb2577f4e487b7100000000000000000000000000000000000000000000000000000000600052603260045260246000fd5b60200260200101819052508482600381518110613cf8577f4e487b7100000000000000000000000000000000000000000000000000000000600052603260045260246000fd5b60200260200101819052508981600081518110613d3e577f4e487b7100000000000000000000000000000000000000000000000000000000600052603260045260246000fd5b60200260200101819052508781600181518110613d84577f4e487b7100000000000000000000000000000000000000000000000000000000600052603260045260246000fd5b60200260200101819052508581600281518110613dca577f4e487b7100000000000000000000000000000000000000000000000000000000600052603260045260246000fd5b60200260200101819052508381600381518110613e10577f4e487b7100000000000000000000000000000000000000000000000000000000600052603260045260246000fd5b6020026020010181905250613e258282613e35565b9250505098975050505050505050565b60008151835114613e7b576040517f08c379a0000000000000000000000000000000000000000000000000000000008152600401613e7290615560565b60405180910390fd5b6000835190506000600682613e909190615a93565b905060008167ffffffffffffffff811115613ed4577f4e487b7100000000000000000000000000000000000000000000000000000000600052604160045260246000fd5b604051908082528060200260200182016040528015613f025781602001602082028036833780820191505090505b50905060005b838110156143e757868181518110613f49577f4e487b7100000000000000000000000000000000000000000000000000000000600052603260045260246000fd5b602002602001015160000151826000600684613f659190615a93565b613f6f919061589b565b81518110613fa6577f4e487b7100000000000000000000000000000000000000000000000000000000600052603260045260246000fd5b602002602001018181525050868181518110613feb577f4e487b7100000000000000000000000000000000000000000000000000000000600052603260045260246000fd5b6020026020010151602001518260016006846140079190615a93565b614011919061589b565b81518110614048577f4e487b7100000000000000000000000000000000000000000000000000000000600052603260045260246000fd5b60200260200101818152505085818151811061408d577f4e487b7100000000000000000000000000000000000000000000000000000000600052603260045260246000fd5b6020026020010151600001516000600281106140d2577f4e487b7100000000000000000000000000000000000000000000000000000000600052603260045260246000fd5b60200201518260026006846140e79190615a93565b6140f1919061589b565b81518110614128577f4e487b7100000000000000000000000000000000000000000000000000000000600052603260045260246000fd5b60200260200101818152505085818151811061416d577f4e487b7100000000000000000000000000000000000000000000000000000000600052603260045260246000fd5b6020026020010151600001516001600281106141b2577f4e487b7100000000000000000000000000000000000000000000000000000000600052603260045260246000fd5b60200201518260036006846141c79190615a93565b6141d1919061589b565b81518110614208577f4e487b7100000000000000000000000000000000000000000000000000000000600052603260045260246000fd5b60200260200101818152505085818151811061424d577f4e487b7100000000000000000000000000000000000000000000000000000000600052603260045260246000fd5b602002602001015160200151600060028110614292577f4e487b7100000000000000000000000000000000000000000000000000000000600052603260045260246000fd5b60200201518260046006846142a79190615a93565b6142b1919061589b565b815181106142e8577f4e487b7100000000000000000000000000000000000000000000000000000000600052603260045260246000fd5b60200260200101818152505085818151811061432d577f4e487b7100000000000000000000000000000000000000000000000000000000600052603260045260246000fd5b602002602001015160200151600160028110614372577f4e487b7100000000000000000000000000000000000000000000000000000000600052603260045260246000fd5b60200201518260056006846143879190615a93565b614391919061589b565b815181106143c8577f4e487b7100000000000000000000000000000000000000000000000000000000600052603260045260246000fd5b60200260200101818152505080806143df90615c12565b915050613f08565b506143f061463a565b6000602082602086026020860160086107d05a03fa9050806000811461441557614417565bfe5b5080614458576040517f08c379a000000000000000000000000000000000000000000000000000000000815260040161444f90615600565b60405180910390fd5b600082600060018110614494577f4e487b7100000000000000000000000000000000000000000000000000000000600052603260045260246000fd5b602002015114159550505050505092915050565b6040518060400160405280600290602082028036833780820191505090505090565b604051806101000160405280600890602082028036833780820191505090505090565b60405180606001604052806145006145b6565b815260200161450d614614565b815260200161451a6145b6565b81525090565b6040518060a00160405280600590602082028036833780820191505090505090565b60405180604001604052806002905b6145596144a8565b8152602001906001900390816145515790505090565b6040518060a001604052806145826145b6565b815260200161458f614614565b815260200161459c614614565b81526020016145a9614614565b8152602001606081525090565b604051806040016040528060008152602001600081525090565b6040518060600160405280600390602082028036833780820191505090505090565b6040518060800160405280600490602082028036833780820191505090505090565b60405180604001604052806146276144a8565b81526020016146346144a8565b81525090565b6040518060200160405280600190602082028036833780820191505090505090565b600061466f61466a846156d2565b6156ad565b9050808285604086028201111561468557600080fd5b60005b858110156146b5578161469b8882614931565b845260208401935060408301925050600181019050614688565b5050509392505050565b60006146d26146cd846156f8565b6156ad565b905080828560208602820111156146e857600080fd5b60005b8581101561471857816146fe8882614a4b565b8452602084019350602083019250506001810190506146eb565b5050509392505050565b60006147356147308461571e565b6156ad565b9050808285602086028201111561474b57600080fd5b60005b8581101561477b57816147618882614a4b565b84526020840193506020830192505060018101905061474e565b5050509392505050565b600061479861479384615744565b6156ad565b905080828560208602820111156147ae57600080fd5b60005b858110156147de57816147c48882614a4b565b8452602084019350602083019250506001810190506147b1565b5050509392505050565b60006147fb6147f68461576a565b6156ad565b9050808285602086028201111561481157600080fd5b60005b8581101561484157816148278882614a4b565b845260208401935060208301925050600181019050614814565b5050509392505050565b600061485e61485984615790565b6156ad565b9050808382526020820190508285602086028201111561487d57600080fd5b60005b858110156148ad57816148938882614a4b565b845260208401935060208301925050600181019050614880565b5050509392505050565b60006148ca6148c5846157bc565b6156ad565b9050828152602081018484840111156148e257600080fd5b6148ed848285615b9f565b509392505050565b6000813590506149048161623d565b92915050565b600082601f83011261491b57600080fd5b600261492884828561465c565b91505092915050565b600082601f83011261494257600080fd5b600261494f8482856146bf565b91505092915050565b600082601f83011261496957600080fd5b6004614976848285614722565b91505092915050565b600082601f83011261499057600080fd5b600561499d848285614785565b91505092915050565b600082601f8301126149b757600080fd5b60086149c48482856147e8565b91505092915050565b600082601f8301126149de57600080fd5b81356149ee84826020860161484b565b91505092915050565b600081359050614a0681616254565b92915050565b600082601f830112614a1d57600080fd5b8135614a2d8482602086016148b7565b91505092915050565b600081359050614a458161626b565b92915050565b600081359050614a5a81616282565b92915050565b600060208284031215614a7257600080fd5b6000614a80848285016148f5565b91505092915050565b60008060006101008486031215614a9f57600080fd5b6000614aad86828701614931565b9350506040614abe8682870161490a565b92505060c0614acf86828701614931565b9150509250925092565b6000806000806101808587031215614af057600080fd5b6000614afe87828801614931565b9450506040614b0f8782880161490a565b93505060c0614b2087828801614931565b925050610100614b3287828801614958565b91505092959194509250565b600060a08284031215614b5057600080fd5b6000614b5e8482850161497f565b91505092915050565b60006101008284031215614b7a57600080fd5b6000614b88848285016149a6565b91505092915050565b600060208284031215614ba357600080fd5b600082013567ffffffffffffffff811115614bbd57600080fd5b614bc9848285016149cd565b91505092915050565b600060208284031215614be457600080fd5b6000614bf2848285016149f7565b91505092915050565b60008060008060006101808688031215614c1457600080fd5b600086013567ffffffffffffffff811115614c2e57600080fd5b614c3a88828901614a0c565b9550506020614c4b888289016149a6565b945050610120614c5d88828901614a4b565b935050610140614c6f88828901614a4b565b925050610160614c8188828901614a36565b9150509295509295909350565b6000806000806000806101a08789031215614ca857600080fd5b600087013567ffffffffffffffff811115614cc257600080fd5b614cce89828a01614a0c565b9650506020614cdf89828a016149a6565b955050610120614cf189828a01614a4b565b945050610140614d0389828a01614a4b565b935050610160614d1589828a01614a4b565b925050610180614d2789828a01614a36565b9150509295509295509295565b600060208284031215614d4657600080fd5b6000614d5484828501614a36565b91505092915050565b600060208284031215614d6f57600080fd5b6000614d7d84828501614a4b565b91505092915050565b60008060408385031215614d9957600080fd5b6000614da785828601614a4b565b9250506020614db885828601614a4b565b9150509250929050565b6000614dce8383614e58565b60408301905092915050565b6000614de683836152b6565b60208301905092915050565b614dfb81615b21565b82525050565b614e0a8161580b565b614e14818461585e565b9250614e1f826157ed565b8060005b83811015614e50578151614e378782614dc2565b9650614e4283615837565b925050600181019050614e23565b505050505050565b614e6181615816565b614e6b8184615869565b9250614e76826157f7565b8060005b83811015614ea7578151614e8e8782614dda565b9650614e9983615844565b925050600181019050614e7a565b505050505050565b614eb881615816565b614ec28184615874565b9250614ecd826157f7565b8060005b83811015614efe578151614ee58782614dda565b9650614ef083615844565b925050600181019050614ed1565b505050505050565b614f0f81615821565b614f19818461587f565b9250614f2482615801565b8060005b83811015614f55578151614f3c8782614dda565b9650614f4783615851565b925050600181019050614f28565b505050505050565b614f6681615b33565b82525050565b6000614f778261582c565b614f81818561588a565b9350614f91818560208601615bae565b614f9a81615d43565b840191505092915050565b6000614fb260238361588a565b9150614fbd82615d61565b604082019050919050565b6000614fd560268361588a565b9150614fe082615db0565b604082019050919050565b6000614ff860318361588a565b915061500382615dff565b604082019050919050565b600061501b60348361588a565b915061502682615e4e565b604082019050919050565b600061503e60128361588a565b915061504982615e9d565b602082019050919050565b600061506160168361588a565b915061506c82615ec6565b602082019050919050565b600061508460128361588a565b915061508f82615eef565b602082019050919050565b60006150a760458361588a565b91506150b282615f18565b606082019050919050565b60006150ca60178361588a565b91506150d582615f8d565b602082019050919050565b60006150ed601f8361588a565b91506150f882615fb6565b602082019050919050565b600061511060268361588a565b915061511b82615fdf565b604082019050919050565b600061513360208361588a565b915061513e8261602e565b602082019050919050565b6000615156601c8361588a565b915061516182616057565b602082019050919050565b6000615179601e8361588a565b915061518482616080565b602082019050919050565b600061519c600d8361588a565b91506151a7826160a9565b602082019050919050565b60006151bf60168361588a565b91506151ca826160d2565b602082019050919050565b60006151e260248361588a565b91506151ed826160fb565b604082019050919050565b6000615205601a8361588a565b91506152108261614a565b602082019050919050565b600061522860128361588a565b915061523382616173565b602082019050919050565b600061524b601b8361588a565b91506152568261619c565b602082019050919050565b600061526e60158361588a565b9150615279826161c5565b602082019050919050565b600061529160218361588a565b915061529c826161ee565b604082019050919050565b6152b081615b5f565b82525050565b6152bf81615b88565b82525050565b6152ce81615b88565b82525050565b60006020820190506152e96000830184614df2565b92915050565b6000610100820190506153056000830186614eaf565b6153126040830185614e01565b61531f60c0830184614eaf565b949350505050565b60006101008201905061533d6000830184614f06565b92915050565b60006020820190506153586000830184614f5d565b92915050565b600060208201905081810360008301526153788184614f6c565b905092915050565b6000602082019050818103600083015261539981614fa5565b9050919050565b600060208201905081810360008301526153b981614fc8565b9050919050565b600060208201905081810360008301526153d981614feb565b9050919050565b600060208201905081810360008301526153f98161500e565b9050919050565b6000602082019050818103600083015261541981615031565b9050919050565b6000602082019050818103600083015261543981615054565b9050919050565b6000602082019050818103600083015261545981615077565b9050919050565b600060208201905081810360008301526154798161509a565b9050919050565b60006020820190508181036000830152615499816150bd565b9050919050565b600060208201905081810360008301526154b9816150e0565b9050919050565b600060208201905081810360008301526154d981615103565b9050919050565b600060208201905081810360008301526154f981615126565b9050919050565b6000602082019050818103600083015261551981615149565b9050919050565b600060208201905081810360008301526155398161516c565b9050919050565b600060208201905081810360008301526155598161518f565b9050919050565b60006020820190508181036000830152615579816151b2565b9050919050565b60006020820190508181036000830152615599816151d5565b9050919050565b600060208201905081810360008301526155b9816151f8565b9050919050565b600060208201905081810360008301526155d98161521b565b9050919050565b600060208201905081810360008301526155f98161523e565b9050919050565b6000602082019050818103600083015261561981615261565b9050919050565b6000602082019050818103600083015261563981615284565b9050919050565b600060208201905061565560008301846152a7565b92915050565b600060608201905061567060008301866152a7565b61567d6020830185614f5d565b61568a6040830184614f5d565b949350505050565b60006020820190506156a760008301846152c5565b92915050565b60006156b76156c8565b90506156c38282615be1565b919050565b6000604051905090565b600067ffffffffffffffff8211156156ed576156ec615d14565b5b602082029050919050565b600067ffffffffffffffff82111561571357615712615d14565b5b602082029050919050565b600067ffffffffffffffff82111561573957615738615d14565b5b602082029050919050565b600067ffffffffffffffff82111561575f5761575e615d14565b5b602082029050919050565b600067ffffffffffffffff82111561578557615784615d14565b5b602082029050919050565b600067ffffffffffffffff8211156157ab576157aa615d14565b5b602082029050602081019050919050565b600067ffffffffffffffff8211156157d7576157d6615d14565b5b6157e082615d43565b9050602081019050919050565b6000819050919050565b6000819050919050565b6000819050919050565b600060029050919050565b600060029050919050565b600060089050919050565b600081519050919050565b6000602082019050919050565b6000602082019050919050565b6000602082019050919050565b600081905092915050565b600081905092915050565b600081905092915050565b600081905092915050565b600082825260208201905092915050565b60006158a682615b88565b91506158b183615b88565b9250827fffffffffffffffffffffffffffffffffffffffffffffffffffffffffffffffff038211156158e6576158e5615cb6565b5b828201905092915050565b60006158fc82615b88565b915061590783615b88565b92508261591757615916615ce5565b5b828204905092915050565b6000808291508390505b600185111561596c5780860481111561594857615947615cb6565b5b60018516156159575780820291505b808102905061596585615d54565b945061592c565b94509492505050565b600061598082615b88565b915061598b83615b88565b92506159b87fffffffffffffffffffffffffffffffffffffffffffffffffffffffffffffffff84846159c0565b905092915050565b6000826159d05760019050615a8c565b816159de5760009050615a8c565b81600181146159f457600281146159fe57615a2d565b6001915050615a8c565b60ff841115615a1057615a0f615cb6565b5b8360020a915084821115615a2757615a26615cb6565b5b50615a8c565b5060208310610133831016604e8410600b8410161715615a625782820a905083811115615a5d57615a5c615cb6565b5b615a8c565b615a6f8484846001615922565b92509050818404811115615a8657615a85615cb6565b5b81810290505b9392505050565b6000615a9e82615b88565b9150615aa983615b88565b9250817fffffffffffffffffffffffffffffffffffffffffffffffffffffffffffffffff0483118215151615615ae257615ae1615cb6565b5b828202905092915050565b6000615af882615b88565b9150615b0383615b88565b925082821015615b1657615b15615cb6565b5b828203905092915050565b6000615b2c82615b3f565b9050919050565b60008115159050919050565b600073ffffffffffffffffffffffffffffffffffffffff82169050919050565b60007cffffffffffffffffffffffffffffffffffffffffffffffffffffffffff82169050919050565b6000819050919050565b600060ff82169050919050565b82818337600083830152505050565b60005b83811015615bcc578082015181840152602081019050615bb1565b83811115615bdb576000848401525b50505050565b615bea82615d43565b810181811067ffffffffffffffff82111715615c0957615c08615d14565b5b80604052505050565b6000615c1d82615b88565b91507fffffffffffffffffffffffffffffffffffffffffffffffffffffffffffffffff821415615c5057615c4f615cb6565b5b600182019050919050565b6000615c6682615b92565b915060ff821415615c7a57615c79615cb6565b5b600182019050919050565b6000615c9082615b88565b9150615c9b83615b88565b925082615cab57615caa615ce5565b5b828206905092915050565b7f4e487b7100000000000000000000000000000000000000000000000000000000600052601160045260246000fd5b7f4e487b7100000000000000000000000000000000000000000000000000000000600052601260045260246000fd5b7f4e487b7100000000000000000000000000000000000000000000000000000000600052604160045260246000fd5b6000601f19601f8301169050919050565b60008160011c9050919050565b7f63616e2774206265206e6f7468696e672d75702d6d792d736c656576652d766160008201527f6c75650000000000000000000000000000000000000000000000000000000000602082015250565b7f4f776e61626c653a206e6577206f776e657220697320746865207a65726f206160008201527f6464726573730000000000000000000000000000000000000000000000000000602082015250565b7f6e756c6c6966696572732068617368206d757374206265206c7420746865207360008201527f6e61726b207363616c6172206669656c64000000000000000000000000000000602082015250565b7f6e6f2065787465726e616c206e756c6c6966696572206578697374732061667460008201527f65722074686520737065636966696564206f6e65000000000000000000000000602082015250565b7f76657269666965722d6261642d696e7075740000000000000000000000000000600082015250565b7f6e756c6c696669657220616c7265616479207365656e00000000000000000000600082015250565b7f70616972696e672d6d756c2d6661696c65640000000000000000000000000000600082015250565b7f496e6372656d656e74616c5175696e547265653a20696e736572744c6561662060008201527f617267756d656e74206d757374206265203c20534e41524b5f5343414c41525f60208201527f4649454c44000000000000000000000000000000000000000000000000000000604082015250565b7f53656d6170686f72653a726f6f74206e6f74207365656e000000000000000000600082015250565b7f76657269666965722d6774652d736e61726b2d7363616c61722d6669656c6400600082015250565b7f65787465726e616c206e756c6c696669657220616c726561647920646561637460008201527f6976617465640000000000000000000000000000000000000000000000000000602082015250565b7f4f776e61626c653a2063616c6c6572206973206e6f7420746865206f776e6572600082015250565b7f65787465726e616c206e756c6c6966696572206e6f7420666f756e6400000000600082015250565b7f696e76616c6964206669656c6420656c656d656e7420696e2070726f6f660000600082015250565b7f696e76616c69642070726f6f6600000000000000000000000000000000000000600082015250565b7f70616972696e672d6c656e677468732d6661696c656400000000000000000000600082015250565b7f65787465726e616c206e756c6c696669657220697320616c726561647920616360008201527f7469766500000000000000000000000000000000000000000000000000000000602082015250565b7f6e6f20737563682065787465726e616c206e756c6c6966696572000000000000600082015250565b7f70616972696e672d6164642d6661696c65640000000000000000000000000000600082015250565b7f62726f616463617374207065726d697373696f6e2064656e6965640000000000600082015250565b7f70616972696e672d6f70636f64652d6661696c65640000000000000000000000600082015250565b7f496e6372656d656e74616c5175696e547265653a20747265652069732066756c60008201527f6c00000000000000000000000000000000000000000000000000000000000000602082015250565b61624681615b21565b811461625157600080fd5b50565b61625d81615b33565b811461626857600080fd5b50565b61627481615b5f565b811461627f57600080fd5b50565b61628b81615b88565b811461629657600080fd5b5056fe53656d6170686f72652e736f6c2061646445787465726e616c4e756c6c6966696572a2646970667358221220f7d926638d15bf1cc78257bb0a3c1b5931dc705c089ec32f4e4969db75c926ce64736f6c63430008040033",
  "linkReferences": {},
  "deployedLinkReferences": {}
}