{
  "_format": "hh-sol-artifact-1",
  "contractName": "Semaphore",
  "sourceName": "contracts/semaphore/Semaphore.sol",
  "abi": [
    {
      "inputs": [
        {
          "internalType": "uint8",
          "name": "_treeLevels",
          "type": "uint8"
        },
        {
          "internalType": "uint232",
          "name": "_firstExternalNullifier",
          "type": "uint232"
        }
      ],
      "stateMutability": "nonpayable",
      "type": "constructor"
    },
    {
      "anonymous": false,
      "inputs": [
        {
          "indexed": true,
          "internalType": "uint232",
          "name": "externalNullifier",
          "type": "uint232"
        }
      ],
      "name": "ExternalNullifierAdd",
      "type": "event"
    },
    {
      "anonymous": false,
      "inputs": [
        {
          "indexed": true,
          "internalType": "uint232",
          "name": "externalNullifier",
          "type": "uint232"
        },
        {
          "indexed": true,
          "internalType": "bool",
          "name": "active",
          "type": "bool"
        }
      ],
      "name": "ExternalNullifierChangeStatus",
      "type": "event"
    },
    {
      "anonymous": false,
      "inputs": [
        {
          "indexed": true,
          "internalType": "uint256",
          "name": "leaf",
          "type": "uint256"
        },
        {
          "indexed": true,
          "internalType": "uint256",
          "name": "leafIndex",
          "type": "uint256"
        }
      ],
      "name": "LeafInsertion",
      "type": "event"
    },
    {
      "anonymous": false,
      "inputs": [
        {
          "indexed": true,
          "internalType": "address",
          "name": "previousOwner",
          "type": "address"
        },
        {
          "indexed": true,
          "internalType": "address",
          "name": "newOwner",
          "type": "address"
        }
      ],
      "name": "OwnershipTransferred",
      "type": "event"
    },
    {
      "anonymous": false,
      "inputs": [
        {
          "indexed": true,
          "internalType": "bool",
          "name": "newPermission",
          "type": "bool"
        }
      ],
      "name": "PermissionSet",
      "type": "event"
    },
    {
      "inputs": [],
      "name": "NOTHING_UP_MY_SLEEVE_ZERO",
      "outputs": [
        {
          "internalType": "uint256",
          "name": "",
          "type": "uint256"
        }
      ],
      "stateMutability": "view",
      "type": "function"
    },
    {
      "inputs": [
        {
          "internalType": "uint232",
          "name": "_externalNullifier",
          "type": "uint232"
        }
      ],
      "name": "addExternalNullifier",
      "outputs": [],
      "stateMutability": "nonpayable",
      "type": "function"
    },
    {
      "inputs": [
        {
          "internalType": "bytes",
          "name": "_signal",
          "type": "bytes"
        },
        {
          "internalType": "uint256[8]",
          "name": "_proof",
          "type": "uint256[8]"
        },
        {
          "internalType": "uint256",
          "name": "_root",
          "type": "uint256"
        },
        {
          "internalType": "uint256",
          "name": "_nullifiersHash",
          "type": "uint256"
        },
        {
          "internalType": "uint232",
          "name": "_externalNullifier",
          "type": "uint232"
        }
      ],
      "name": "broadcastSignal",
      "outputs": [],
      "stateMutability": "nonpayable",
      "type": "function"
    },
    {
      "inputs": [
        {
          "internalType": "uint232",
          "name": "_externalNullifier",
          "type": "uint232"
        }
      ],
      "name": "deactivateExternalNullifier",
      "outputs": [],
      "stateMutability": "nonpayable",
      "type": "function"
    },
    {
      "inputs": [
        {
          "internalType": "uint232",
          "name": "",
          "type": "uint232"
        }
      ],
      "name": "externalNullifierLinkedList",
      "outputs": [
        {
          "internalType": "uint232",
          "name": "next",
          "type": "uint232"
        },
        {
          "internalType": "bool",
          "name": "exists",
          "type": "bool"
        },
        {
          "internalType": "bool",
          "name": "isActive",
          "type": "bool"
        }
      ],
      "stateMutability": "view",
      "type": "function"
    },
    {
      "inputs": [],
      "name": "firstExternalNullifier",
      "outputs": [
        {
          "internalType": "uint232",
          "name": "",
          "type": "uint232"
        }
      ],
      "stateMutability": "view",
      "type": "function"
    },
    {
      "inputs": [
        {
          "internalType": "uint232",
          "name": "_externalNullifier",
          "type": "uint232"
        }
      ],
      "name": "getNextExternalNullifier",
      "outputs": [
        {
          "internalType": "uint232",
          "name": "",
          "type": "uint232"
        }
      ],
      "stateMutability": "view",
      "type": "function"
    },
    {
      "inputs": [],
      "name": "getNumIdentityCommitments",
      "outputs": [
        {
          "internalType": "uint256",
          "name": "",
          "type": "uint256"
        }
      ],
      "stateMutability": "view",
      "type": "function"
    },
    {
      "inputs": [
        {
          "internalType": "uint256",
          "name": "_identityCommitment",
          "type": "uint256"
        }
      ],
      "name": "insertIdentity",
      "outputs": [
        {
          "internalType": "uint256",
          "name": "",
          "type": "uint256"
        }
      ],
      "stateMutability": "nonpayable",
      "type": "function"
    },
    {
      "inputs": [],
      "name": "isBroadcastPermissioned",
      "outputs": [
        {
          "internalType": "bool",
          "name": "",
          "type": "bool"
        }
      ],
      "stateMutability": "view",
      "type": "function"
    },
    {
      "inputs": [
        {
          "internalType": "uint232",
          "name": "_externalNullifier",
          "type": "uint232"
        }
      ],
      "name": "isExternalNullifierActive",
      "outputs": [
        {
          "internalType": "bool",
          "name": "",
          "type": "bool"
        }
      ],
      "stateMutability": "view",
      "type": "function"
    },
    {
      "inputs": [],
      "name": "isOwner",
      "outputs": [
        {
          "internalType": "bool",
          "name": "",
          "type": "bool"
        }
      ],
      "stateMutability": "view",
      "type": "function"
    },
    {
      "inputs": [],
      "name": "lastExternalNullifier",
      "outputs": [
        {
          "internalType": "uint232",
          "name": "",
          "type": "uint232"
        }
      ],
      "stateMutability": "view",
      "type": "function"
    },
    {
      "inputs": [
        {
          "internalType": "uint256",
          "name": "",
          "type": "uint256"
        }
      ],
      "name": "nullifierHashHistory",
      "outputs": [
        {
          "internalType": "bool",
          "name": "",
          "type": "bool"
        }
      ],
      "stateMutability": "view",
      "type": "function"
    },
    {
      "inputs": [],
      "name": "numExternalNullifiers",
      "outputs": [
        {
          "internalType": "uint256",
          "name": "",
          "type": "uint256"
        }
      ],
      "stateMutability": "view",
      "type": "function"
    },
    {
      "inputs": [],
      "name": "owner",
      "outputs": [
        {
          "internalType": "address",
          "name": "",
          "type": "address"
        }
      ],
      "stateMutability": "view",
      "type": "function"
    },
    {
      "inputs": [
        {
          "internalType": "uint256[2]",
          "name": "_a",
          "type": "uint256[2]"
        },
        {
          "internalType": "uint256[2][2]",
          "name": "_b",
          "type": "uint256[2][2]"
        },
        {
          "internalType": "uint256[2]",
          "name": "_c",
          "type": "uint256[2]"
        }
      ],
      "name": "packProof",
      "outputs": [
        {
          "internalType": "uint256[8]",
          "name": "",
          "type": "uint256[8]"
        }
      ],
      "stateMutability": "pure",
      "type": "function"
    },
    {
      "inputs": [
        {
          "internalType": "bytes",
          "name": "_signal",
          "type": "bytes"
        },
        {
          "internalType": "uint256[8]",
          "name": "_proof",
          "type": "uint256[8]"
        },
        {
          "internalType": "uint256",
          "name": "_root",
          "type": "uint256"
        },
        {
          "internalType": "uint256",
          "name": "_nullifiersHash",
          "type": "uint256"
        },
        {
          "internalType": "uint256",
          "name": "_signalHash",
          "type": "uint256"
        },
        {
          "internalType": "uint232",
          "name": "_externalNullifier",
          "type": "uint232"
        }
      ],
      "name": "preBroadcastCheck",
      "outputs": [
        {
          "internalType": "bool",
          "name": "",
          "type": "bool"
        }
      ],
      "stateMutability": "view",
      "type": "function"
    },
    {
      "inputs": [
        {
          "internalType": "uint232",
          "name": "_externalNullifier",
          "type": "uint232"
        }
      ],
      "name": "reactivateExternalNullifier",
      "outputs": [],
      "stateMutability": "nonpayable",
      "type": "function"
    },
    {
      "inputs": [],
      "name": "renounceOwnership",
      "outputs": [],
      "stateMutability": "nonpayable",
      "type": "function"
    },
    {
      "inputs": [],
      "name": "root",
      "outputs": [
        {
          "internalType": "uint256",
          "name": "",
          "type": "uint256"
        }
      ],
      "stateMutability": "view",
      "type": "function"
    },
    {
      "inputs": [
        {
          "internalType": "uint256",
          "name": "",
          "type": "uint256"
        }
      ],
      "name": "rootHistory",
      "outputs": [
        {
          "internalType": "bool",
          "name": "",
          "type": "bool"
        }
      ],
      "stateMutability": "view",
      "type": "function"
    },
    {
      "inputs": [
        {
          "internalType": "bool",
          "name": "_newPermission",
          "type": "bool"
        }
      ],
      "name": "setPermissioning",
      "outputs": [],
      "stateMutability": "nonpayable",
      "type": "function"
    },
    {
      "inputs": [
        {
          "internalType": "address",
          "name": "newOwner",
          "type": "address"
        }
      ],
      "name": "transferOwnership",
      "outputs": [],
      "stateMutability": "nonpayable",
      "type": "function"
    },
    {
      "inputs": [
        {
          "internalType": "uint256[8]",
          "name": "_proof",
          "type": "uint256[8]"
        }
      ],
      "name": "unpackProof",
      "outputs": [
        {
          "internalType": "uint256[2]",
          "name": "",
          "type": "uint256[2]"
        },
        {
          "internalType": "uint256[2][2]",
          "name": "",
          "type": "uint256[2][2]"
        },
        {
          "internalType": "uint256[2]",
          "name": "",
          "type": "uint256[2]"
        }
      ],
      "stateMutability": "pure",
      "type": "function"
    },
    {
      "inputs": [
        {
          "internalType": "uint256[2]",
          "name": "a",
          "type": "uint256[2]"
        },
        {
          "internalType": "uint256[2][2]",
          "name": "b",
          "type": "uint256[2][2]"
        },
        {
          "internalType": "uint256[2]",
          "name": "c",
          "type": "uint256[2]"
        },
        {
          "internalType": "uint256[4]",
          "name": "input",
          "type": "uint256[4]"
        }
      ],
      "name": "verifyProof",
      "outputs": [
        {
          "internalType": "bool",
          "name": "r",
          "type": "bool"
        }
      ],
      "stateMutability": "view",
      "type": "function"
    }
  ],
  "bytecode": "0x6080604052600060015560006045556000604660006101000a8154817cffffffffffffffffffffffffffffffffffffffffffffffffffffffffff02191690837cffffffffffffffffffffffffffffffffffffffffffffffffffffffffff1602179055506000604760006101000a8154817cffffffffffffffffffffffffffffffffffffffffffffffffffffffffff02191690837cffffffffffffffffffffffffffffffffffffffffffffffffffffffffff16021790555060016047601d6101000a81548160ff0219169083151502179055507f30644e72e131a029b85045b68181585d2833e84879b9709143e1f593f0000001604051602001620001039062004573565b6040516020818303038152906040528051906020012060001c6200012891906200471c565b6049553480156200013857600080fd5b506040516200e5903803806200e59083398181016040528101906200015e91906200446b565b81604954336000806101000a81548173ffffffffffffffffffffffffffffffffffffffff021916908373ffffffffffffffffffffffffffffffffffffffff16021790555060008054906101000a900473ffffffffffffffffffffffffffffffffffffffff1673ffffffffffffffffffffffffffffffffffffffff16600073ffffffffffffffffffffffffffffffffffffffff167f8be0079c531659141344cd1fd0a4f28419497f9722a3daafe3b4186f6b6457e060405160405180910390a360008260ff16118015620002385750602060ff168260ff1611155b6200027a576040517f08c379a00000000000000000000000000000000000000000000000000000000081526004016200027190620045e0565b60405180910390fd5b81600060146101000a81548160ff021916908360ff160217905550806003600060208110620002d2577f4e487b7100000000000000000000000000000000000000000000000000000000600052603260045260246000fd5b018190555060008190506000600190505b8360ff168160ff161015620003aa576000620003068384620003e160201b60201c565b90508060038360ff166020811062000347577f4e487b7100000000000000000000000000000000000000000000000000000000600052603260045260246000fd5b01819055508060238360ff16602081106200038b577f4e487b7100000000000000000000000000000000000000000000000000000000600052603260045260246000fd5b0181905550809250508080620003a190620046ed565b915050620002e3565b50620003bd8182620003e160201b60201c565b600281905550505050620003d98160016200048e60201b60201c565b505062004898565b6000808390506000620004018260006200091260201b620025c41760201c565b80925081935050507f30644e72e131a029b85045b68181585d2833e84879b9709143e1f593f0000001806200045f577f4e487b7100000000000000000000000000000000000000000000000000000000600052601260045260246000fd5b84830891506200047b82826200091260201b620025c41760201c565b8092508193505050819250505092915050565b8015620004ee5781604660006101000a8154817cffffffffffffffffffffffffffffffffffffffffffffffffffffffffff02191690837cffffffffffffffffffffffffffffffffffffffffffffffffffffffffff1602179055506200066a565b6000151560446000847cffffffffffffffffffffffffffffffffffffffffffffffffffffffffff167cffffffffffffffffffffffffffffffffffffffffffffffffffffffffff168152602001908152602001600020600001601d9054906101000a900460ff1615151462000599576040517f08c379a00000000000000000000000000000000000000000000000000000000081526004016200059090620045be565b60405180910390fd5b8160446000604760009054906101000a90047cffffffffffffffffffffffffffffffffffffffffffffffffffffffffff167cffffffffffffffffffffffffffffffffffffffffffffffffffffffffff167cffffffffffffffffffffffffffffffffffffffffffffffffffffffffff16815260200190815260200160002060000160006101000a8154817cffffffffffffffffffffffffffffffffffffffffffffffffffffffffff02191690837cffffffffffffffffffffffffffffffffffffffffffffffffffffffffff1602179055505b620006d56040518060400160405280600581526020017f616464456e000000000000000000000000000000000000000000000000000000815250837cffffffffffffffffffffffffffffffffffffffffffffffffffffffffff166200436e60201b620060201760201c565b600060446000847cffffffffffffffffffffffffffffffffffffffffffffffffffffffffff167cffffffffffffffffffffffffffffffffffffffffffffffffffffffffff16815260200190815260200160002060000160006101000a8154817cffffffffffffffffffffffffffffffffffffffffffffffffffffffffff02191690837cffffffffffffffffffffffffffffffffffffffffffffffffffffffffff160217905550600160446000847cffffffffffffffffffffffffffffffffffffffffffffffffffffffffff167cffffffffffffffffffffffffffffffffffffffffffffffffffffffffff168152602001908152602001600020600001601e6101000a81548160ff021916908315150217905550600160446000847cffffffffffffffffffffffffffffffffffffffffffffffffffffffffff167cffffffffffffffffffffffffffffffffffffffffffffffffffffffffff168152602001908152602001600020600001601d6101000a81548160ff02191690831515021790555081604760006101000a8154817cffffffffffffffffffffffffffffffffffffffffffffffffffffffffff02191690837cffffffffffffffffffffffffffffffffffffffffffffffffffffffffff16021790555060456000815480929190620008bd906200469f565b9190505550817cffffffffffffffffffffffffffffffffffffffffffffffffffffffffff167fd1ca56647596090d70fa8d49bcc376b97248314e3f204c491333b3440405f58960405160405180910390a25050565b60008083837f30644e72e131a029b85045b68181585d2833e84879b9709143e1f593f000000160008184850982818209838682098486820887965080975085887f0fbe43c36a80e36d7c7c584d4f8f3759fb51f0d66065d8a227b688d12488c5d408945085858609935085848509925085858409915085878308905087965080975085887f9c48cd3e00a6195a253fc009e60f249456f802ff9baf6549210d201321efc1cc08945085858609935085848509925085858409915085878308905087965080975085887f27c0849dba2643077c13eb42ffb97663cdcecd669bf10f756be30bab71b86cf808945085858609935085848509925085858409915085878308905087965080975085887f2bf76744736132e5c68f7dfdd5b792681d415098554fd8280f00d11b172b80d208945085858609935085848509925085858409915085878308905087965080975085887f33133eb4a1a1ab45037c8bdf9adbb2999baf06f20a9c95180dc4ccdcbec5856808945085858609935085848509925085858409915085878308905087965080975085887f588bb66012356dbc9b059ef1d792b563d6c18624dddecc3fe4583fd3551e9b3008945085858609935085848509925085858409915085878308905087965080975085887f71bc3e244e1b92911fe7f53cf523e491fd6ff487d59337a1d92f92668c4f4c3608945085858609935085848509925085858409915085878308905087965080975085887fd1808e2b039fd010c489768f78d7499938ccc0858f3295151787cfe8b7e40be108945085858609935085848509925085858409915085878308905087965080975085887f76978af3ded437cf41b3faa40cd6bcfce94f27f4abcc3ed34be19abd2c4537d008945085858609935085848509925085858409915085878308905087965080975085887f0a9baee798a320b0ca5b1cf888386d1dc12c13b38e10225aa4e9f03069a099f508945085858609935085848509925085858409915085878308905087965080975085887fb79dbf6050a03b16c3ade8d77e11c767d2251af9cdbd6cdf9a8a0ee921b32c7908945085858609935085848509925085858409915085878308905087965080975085887fa74bbcf5067f067faec2cce4b98d130d7927456f5c5f6c00e0f5406a24eb8b1908945085858609935085848509925085858409915085878308905087965080975085887fab7ab080d4c4018bda6ecc8bd67468bc4619ba12f25b0da879a639c758c8855d08945085858609935085848509925085858409915085878308905087965080975085887fe6a5b797c2bba7e9a873b37f5c41adc47765e9be4a1f0e0650e6a24ad226876308945085858609935085848509925085858409915085878308905087965080975085887f6270ae87cf3d82cf9c0b5f428466c429d7b7cbe234cecff39969171af006016c08945085858609935085848509925085858409915085878308905087965080975085887f9951c9f6e76d636b52f7600d979ca9f3b643dfbe9551c83b31542830321b2a6608945085858609935085848509925085858409915085878308905087965080975085887f4119469e44229cc40c4ff555a2b6f6b39961088e741e3c20a3c9b47f130c555008945085858609935085848509925085858409915085878308905087965080975085887f5d795e02bbaf90ff1f384741e5f18f8b644a0080441315d0e5b3c8123452a0b008945085858609935085848509925085858409915085878308905087965080975085887f281e90a515e6409e9177b4f297f8049ce3d4c3659423c48b3fd64e83596ff10108945085858609935085848509925085858409915085878308905087965080975085887f424185c60a21e84970f7d32cacaa2725aa8a844caea7ed760d2b965af1bf3e7d08945085858609935085848509925085858409915085878308905087965080975085887fd96fcbc3960614ea887da609187a5dada2e1b829f23309a6375212cea1f25c0908945085858609935085848509925085858409915085878308905087965080975085887ffde84026d7c294300af18f7712fc3662f43387ae8cf7fdda1f9a810f4b24bcf208945085858609935085848509925085858409915085878308905087965080975085887f3a9d568575846aa6b8a890b3c237fd0447426db878e6e25333b8eb9b386195c108945085858609935085848509925085858409915085878308905087965080975085887f55a2aa32c84a4cae196dd4094b685dd11757470a3be094d98eea73f02452aa3608945085858609935085848509925085858409915085878308905087965080975085887fcbc9481380978d29ebc5b0a8d4481cd2ef654ee800907adb3d38dc2fd9265fab08945085858609935085848509925085858409915085878308905087965080975085887f24e53af71ef06bacb76d3294c11223911e9d177ff09b7009febc484add0beb7408945085858609935085848509925085858409915085878308905087965080975085887fdbd44e16108225766dac3e5fe7acbe9df519bbba97380e5e9437a90658f2139308945085858609935085848509925085858409915085878308905087965080975085887fc6f434863c79013bb2c202331e04bccea2251c1ff6f191dc2afa23e6f6d28e4e08945085858609935085848509925085858409915085878308905087965080975085887f3490eeb39a733c0e8062d87f981ae65a8fccf25c448f4455d27db3915351b06608945085858609935085848509925085858409915085878308905087965080975085887f30b89830ff7ade3558a5361a24869130ce1fcce97211602962e34859525dac4f08945085858609935085848509925085858409915085878308905087965080975085887f29bae21b579d080a75c1694da628d0ecfd83efc9c8468704f410300062f64ca908945085858609935085848509925085858409915085878308905087965080975085887fe326499de0476e719915dd1c661ef4550723d4aee9ee9af224edd208790fce4408945085858609935085848509925085858409915085878308905087965080975085887f8c45208b8baa6f473821415957088c0b7e72a465f460b09ece2d270aee2f184108945085858609935085848509925085858409915085878308905087965080975085887ffe2ad454f451348f26ce2cc7e7914aef3eb96e8f89a4619a1dc7d11f8401c35208945085858609935085848509925085858409915085878308905087965080975085887f0929db368ef2af2d29bca38845325b0b7a820a4889e44b5829bbe1ed47fd4d5208945085858609935085848509925085858409915085878308905087965080975085887f16531d424b0cbaf9abbf2d2acde698462ea4555bf32ccf1bbd26697e905066f608945085858609935085848509925085858409915085878308905087965080975085887ff5c30d247f045ff6d05cf0dd0a49c9823e7a24b0d751d3c721353b96f29d76f608945085858609935085848509925085858409915085878308905087965080975085887f6eb7a3614056c230c6f171370fdd9d1048bb00b2cdd1b2721d11bdda5023f48608945085858609935085848509925085858409915085878308905087965080975085887f0ee9c4621642a272f710908707557498d25a6fdd51866da5d9f0d205355a618908945085858609935085848509925085858409915085878308905087965080975085887f78ca1cb1c7f6c6894d1cf94f327b8763be173151b6b06f99dfc6a944bb5a72f008945085858609935085848509925085858409915085878308905087965080975085887f5d24d0b1b304d05311ce0f274b0d93746a4860ed5cdd8d4348de557ea7a5ee7a08945085858609935085848509925085858409915085878308905087965080975085887f77423dabd1a3cddc8691438fc5891e3fd49ac0f3e21aaf249791bfde1303d2f308945085858609935085848509925085858409915085878308905087965080975085887f0642e8800a48cc04c0168232c6f542396597a67cf395ad622d947e98bb68697a08945085858609935085848509925085858409915085878308905087965080975085887fc1e7d3cbbc4c35b7490647d8402e56d334336943bda91fe2d34ca9727c0e3df508945085858609935085848509925085858409915085878308905087965080975085887f8d6fb1730335204f38f85e408ac861e76f24349ab6ee0469c22e19350bb24fe108945085858609935085848509925085858409915085878308905087965080975085887f67d0faf5f0db32a1b60e13dc4914246b9edac7990fb4990b19aa86815586441a08945085858609935085848509925085858409915085878308905087965080975085887f2605b9b909ded1b04971eae979027c4e0de57f3b6a60d5ed58aba619c34749ce08945085858609935085848509925085858409915085878308905087965080975085887fd276890b2c205db85f000d1f5111ed8f177e279cae3e52862780f04e846228d008945085858609935085848509925085858409915085878308905087965080975085887f2ac5905f9450a21ef6905ed5951a91b3730e3a2e2d62b50bdeb810015d50376b08945085858609935085848509925085858409915085878308905087965080975085887f7a366839f0291ca54da674ac3f0e1e9aa8b687ba533926cb40268039e57b967a08945085858609935085848509925085858409915085878308905087965080975085887f67ab0f3466989c3dbbe209c37ec272ba83984ba6e445be6d472b63e3ca7270e308945085858609935085848509925085858409915085878308905087965080975085887f0e786007d0ce7e28a90e31d3263887d40c556dec88fcb8b56bc9e9c05ecc0c2908945085858609935085848509925085858409915085878308905087965080975085887f0b814ed99bd00eca389b0022663dbfddfbfa15e321c19abcf1eaf9556075fb6808945085858609935085848509925085858409915085878308905087965080975085887f65c0321ba26fcee4fdc35b4999b78ceb54dcaf9fec2e3bdea98e9f82925c093208945085858609935085848509925085858409915085878308905087965080975085887fab2d2a929601f9c3520e0b14aaa6ba9f1e79821a5b768919670a4ea970722bf408945085858609935085848509925085858409915085878308905087965080975085887fcdd2e0744d4af1a81918de69ec12128a5871367303ff83ed764771cbbdf6502308945085858609935085848509925085858409915085878308905087965080975085887f74527d0c0868f2ec628086b874fa66a7347d3d3b918d2e07a5f33e1067e8ac5808945085858609935085848509925085858409915085878308905087965080975085887f1c6bf6ac0314caead23e357bfcbbaa17d670672ae3a475f80934c716f10aca2508945085858609935085848509925085858409915085878308905087965080975085887f3c4007e286f8dc7efd5d0eeb0e95d7aa6589361d128a0cccb17b554c851a643208945085858609935085848509925085858409915085878308905087965080975085887fae468a86a5a7db7c763a053eb09ac1a02809ce095258c88101ee319e12b0697e08945085858609935085848509925085858409915085878308905087965080975085887f9333e3d052b7c77fcac1eb366f610f6f97852242b1317a87b80f3bbc5c8c2d1d08945085858609935085848509925085858409915085878308905087965080975085887f52ec1d675cf5353153f6b628414783ca6b7fc0fe01948ca206daad712296e39508945085858609935085848509925085858409915085878308905087965080975085887f13ceeeb301572b4991076750e11ea7e7fcbfee454d90dc1763989004a1894f9308945085858609935085848509925085858409915085878308905087965080975085887f8505737e7e94939a08d8cda10b6fbbbf879b2141ae7eabc30fcd22405135fe6408945085858609935085848509925085858409915085878308905087965080975085887f6127db7ac5200a212092b66ec2bfc63653f4dc8ac66c76008fef885258a258b508945085858609935085848509925085858409915085878308905087965080975085887f12692a7d808f44e31d628dbcfea377eb073fb918d7beb8136ea47f8cf094c88c08945085858609935085848509925085858409915085878308905087965080975085887f260e384b1268e3a347c91d6987fd280fa0a275541a7c5be34bf126af35c962e008945085858609935085848509925085858409915085878308905087965080975085887fd88c3b01966d90e713aee8d482ceaa6925311d2342e1a5aca4fcd2f44b6daddc08945085858609935085848509925085858409915085878308905087965080975085887fb87e868affd91b078a87fa75ac9332a6cf23587d94e20c3262db5e91f30bf04b08945085858609935085848509925085858409915085878308905087965080975085887fb5ba5f8acad1a950a3bbf2201055cd3ea27056c0c53f0c4c97f33cda8dbfe90908945085858609935085848509925085858409915085878308905087965080975085887f59ca814b49e00d7b3118c53a2986ded128584acd7428735e08ade6661c457f7508945085858609935085848509925085858409915085878308905087965080975085887f0fc4c0bea813a223fd510c07f7bbe337badd4bcf28649a0d378970c2a15b3aa508945085858609935085848509925085858409915085878308905087965080975085887e53f1ea6dd60e7a6db09a00be77549ff3d4ee3737be7fb42052ae1321f667c308945085858609935085848509925085858409915085878308905087965080975085887feb937077bb10c8fe38716d4e38edc1f9e7b18c6414fef85fe7e9c5567baa4a0408945085858609935085848509925085858409915085878308905087965080975085887fbacb14c0f1508d828f7fd048d716b8044aec7f0fb48e85e717bf532db972520708945085858609935085848509925085858409915085878308905087965080975085887f4ca0abb8beb7cff572a0c1e6f58e080e1bb243d497a3e74538442a4555ad40be08945085858609935085848509925085858409915085878308905087965080975085887fda9eefd411e590d7e44592cce298af87b2c62aa3cc8bb137aa99ca8d4aa551b508945085858609935085848509925085858409915085878308905087965080975085887f153dae43cef763e7a2fc9846f09a2973b0ad9c35894c220699bcc2954501c6bd08945085858609935085848509925085858409915085878308905087965080975085887fd4ed2a09375813b4fb504c7a9ba13110bdd8549a47349db82c15a434c090e87b08945085858609935085848509925085858409915085878308905087965080975085887e63a5c4c9c12dcf4bae72c69f3a225664469503d61d9eae5d9553bfb006095b08945085858609935085848509925085858409915085878308905087965080975085887fdc8a4d35ad28e59dd3713b45985cd3b70e37ccc2be42086f1ea078fe2dc9d82d08945085858609935085848509925085858409915085878308905087965080975085887f486ba219308f0c847b22fcb4449f8855192536c01b8057904e81c1c7814f483b08945085858609935085848509925085858409915085878308905087965080975085887f34d9604140a1ac9fdb204285b9fe1b303c281af2fc5fb362f6577282b423bcf308945085858609935085848509925085858409915085878308905087965080975085887fc1681959ec4bc3656911db2b2f56aa4db709c26f1a0a25c879286e37f437465d08945085858609935085848509925085858409915085878308905087965080975085887ffcd849f3b5f9e4368af75619fb27f2e335adbb9b44988f17c4d389fa751ad47a08945085858609935085848509925085858409915085878308905087965080975085887ff5f7fc22ad64c8e7c1e005110e13f4f1c6b1f8f8cc59000db0e3bb38f99554a508945085858609935085848509925085858409915085878308905087965080975085887fa9133b8a20fbae4633ec5f82cb47a38ae1877d12d1febb23982c7c808aa5317508945085858609935085848509925085858409915085878308905087965080975085887ff4827c5c7b61141cc31b75984bb3ed16ed579e5b72e32a1289b63ab55eaf8c1208945085858609935085848509925085858409915085878308905087965080975085887fcca361819ffefe3e50fe34c91a322c9405f4e5a168c1fc0a0a1883993e32c9f408945085858609935085848509925085858409915085878308905087965080975085887f6656088842bfc9e325a532784d3362cecfa86f9c7b208a6b499836ebe48ff15708945085858609935085848509925085858409915085878308905087965080975085887e129c7cd00e42ed05a37dbceb80d47b65e1d750ef2148278a54723fdf42c4cc08945085858609935085848509925085858409915085878308905087965080975085887fa85b235631b786f85cd46f7768f6c71ae004ad267ae59bdf929ada149b19588808945085858609935085848509925085858409915085878308905087965080975085887f34df65a82686be09c5b237911abf237a9887c1a418f279ac79b446d7d311f5ea08945085858609935085848509925085858409915085878308905087965080975085887f815a850c3989df9ca6231e0bdd9916fc0e076f2c6c7f0f260a846d0179f9c32d08945085858609935085848509925085858409915085878308905087965080975085887f50fb0940848a67aee83d348421fadd79aefc7a2adabeec6e64904ebe1bf63e7d08945085858609935085848509925085858409915085878308905087965080975085887fbab63a16273599f8b66895461e62a19ff0d103693be771d93e3691bba89cdd8d08945085858609935085848509925085858409915085878308905087965080975085887f6931a091756e0bc709ebecfffba5038634c5b3d5d0c5876dd72aac67452db8a208945085858609935085848509925085858409915085878308905087965080975085887f55559b8bb79db8809c46ee627f1b5ce1d8e6d89bf94a9987a1407759d1ba896308945085858609935085848509925085858409915085878308905087965080975085887fa9a1a11b2979018cb155914d09f1df19b7ffec241e8b2487b6f6272a56a44a0a08945085858609935085848509925085858409915085878308905087965080975085887ff83293400e7bccea4bb86dcb0d5ca57fa2466e13a572d7d3531c6fa491cb0f1b08945085858609935085848509925085858409915085878308905087965080975085887fb7cb5742b6bc5339624d3568a33c21f31b877f8396972582028da999abf249f208945085858609935085848509925085858409915085878308905087965080975085887ff56efb400f8500b5c5bf811c65c86c7ed2e965f14f1a69bca436c0c60b79f46508945085858609935085848509925085858409915085878308905087965080975085887fd7c4427998d9c440f849dcd75b7157996eaad1b9a1d58cc2441931300e26eb2208945085858609935085848509925085858409915085878308905087965080975085887fca5ed18ad53e33fdc3ae8cf353ff3f6dd315f60060442b74f6b614b24ebd4cc308945085858609935085848509925085858409915085878308905087965080975085887f9ad3e9376c97b194a0fbf43e22a3616981d777365c765ead09a1d033fdf536b708945085858609935085848509925085858409915085878308905087965080975085887fc6daeff5769a06b26fe3b8fef30df07b1387373a7814cef364fe1d6059eaf54a08945085858609935085848509925085858409915085878308905087965080975085887fc20a78398345c6b8cf439643dab96223bf879c302648293eaf496fee5c978c6608945085858609935085848509925085858409915085878308905087965080975085887f589ca65b6cf0e90653c06dddc057dc61ba2839974569051c98b43e8618716efb08945085858609935085848509925085858409915085878308905087965080975085887f83064161f127d8c59fc73625957e21630dc6dc99e5443f6ce37ecd6bf28e69b708945085858609935085848509925085858409915085878308905087965080975085887f46d0ba662b50100b9a3af52052f68932feec1d12290b2033c4f49148893d8ba308945085858609935085848509925085858409915085878308905087965080975085887f18dd55b4a83a53f2ee578eb3e6d26f594824d44670fc3f4de80642344d15c09a08945085858609935085848509925085858409915085878308905087965080975085887f9fb5b594f48bc58b345ab90ded705920a7274b8e070eee8ce8cf90c72c3604b608945085858609935085848509925085858409915085878308905087965080975085887f1901d8f4f2c8449128e00663978f2050f2eb1cd6acb60d9d09c57c5d46ee54fe08945085858609935085848509925085858409915085878308905087965080975085887f5ec56789beab24ef7ee32f594d5fc561ec59dfeb93606dc7dcc6fe65133a7db408945085858609935085848509925085858409915085878308905087965080975085887f01c0b2cbe4fa9877a3d08eb67c510e8630da0a8beda94a6d9283e6f70d268bc508945085858609935085848509925085858409915085878308905087965080975085887f0b1d85acd9031a9107350eed946a25734e974799c5ba7cff13b15a5a623a25f008945085858609935085848509925085858409915085878308905087965080975085887f204497d1d359552905a2fe655f3d6f94926ea92d12cdaa6556ec26362f239f6408945085858609935085848509925085858409915085878308905087965080975085887fe075f7edc6631a8d7ffe33019f44fc91f286236d5a5f90f16de4791b72a2a5f008945085858609935085848509925085858409915085878308905087965080975085887f243f46e353354256ab8fe0ca4e9230dfc330bc163e602dfeaf307c1d1a7264b908945085858609935085848509925085858409915085878308905087965080975085887fd448ae5e09625fa1fcfd732fc9cd8f06e4c33b81f0a9240c83da56f41e9ecceb08945085858609935085848509925085858409915085878308905087965080975085887f2f312eef69a33d9fa753c08840275692a03432b3e6da67f9c59b9f9f4971cd5608945085858609935085848509925085858409915085878308905087965080975085887f5f333996af231bd5a293137da91801e191a6f24eb532ad1a7e6e9a2ad0efbc0008945085858609935085848509925085858409915085878308905087965080975085887fa8f771e0383a832dc8e2eaa8efabda300947acaf0684fabddf8b4abb0abd8a6208945085858609935085848509925085858409915085878308905087965080975085887f9ff0b3d7a4643596f651b70c1963cc4fa6c46018d78f05cb2c5f187e25df83a908945085858609935085848509925085858409915085878308905087965080975085887f9c373b704838325648273734dcdf962d7c156f431f70380ba4855832c4a238b808945085858609935085848509925085858409915085878308905087965080975085887fea2afa02604b8afeeb570f48a0e97a5e6bfe9613394b9a6b0026ecd6cec8c33a08945085858609935085848509925085858409915085878308905087965080975085887f68892258cd8eb43b71caa6d6837ec9959bfdfd72f25c9005ebaffc4011f8a7bf08945085858609935085848509925085858409915085878308905087965080975085887ff2824f561f6f82e3c1232836b0d268fa3b1b5489edd39a5fe1503bfc7ca91f4908945085858609935085848509925085858409915085878308905087965080975085887f164eda75fda2861f9d812f24e37ac938844fbe383c243b32b9f66ae2e76be71908945085858609935085848509925085858409915085878308905087965080975085887ff0a6fc431f5bf0dd1cca93b8b65b3f72c91f0693e2c74be9243b15abb31afcc008945085858609935085848509925085858409915085878308905087965080975085887fe68db66ba891ef0cd527f09ec6fff3ec0a269cf3d891a35ec13c902f70334b4f08945085858609935085848509925085858409915085878308905087965080975085887f3a44a5b102f7883a2b8630a3cae6e6db2e6e483bb7cfeb3492cbd91793ef598e08945085858609935085848509925085858409915085878308905087965080975085887f43939fe8ef789acb33cbf129ba8a3aa1bd61510a178022a05177c9c5a1c59bf108945085858609935085848509925085858409915085878308905087965080975085887f936fe3b66dfda1bc5a7aae241b4db442858bd720c1d579c0c869f273cd55d77408945085858609935085848509925085858409915085878308905087965080975085887f3490fcaa8ffa37f35dc67ae006e81352c7103945417b8e4b142afcaefa344b8508945085858609935085848509925085858409915085878308905087965080975085887fcae66096cff344caca53ffe0e58aafeb468bd174f00d8abc425b2099c088187408945085858609935085848509925085858409915085878308905087965080975085887fc7d05783a41bc14f3c9a45384b6d5e2547c5b6a224c8316910b208f2718a70ab08945085858609935085848509925085858409915085878308905087965080975085887f5ac6b9ba94040d5692b865b6677b60ef3201b5c2121699f70beb9f9b2528a02608945085858609935085848509925085858409915085878308905087965080975085887fa902a3d4d9ecbfb9b2c76fddf780554bf93cad97b244e805d3adb94e1816290008945085858609935085848509925085858409915085878308905087965080975085887fe9df91ffeeb086a4d26041c29dac6fca1d56a4d022fe34b38831267395b98d2708945085858609935085848509925085858409915085878308905087965080975085887f862646f851d91a8840ad9ee711f12ec13b3e8f980ff5ef5ee43ca4520d57def708945085858609935085848509925085858409915085878308905087965080975085887f30b7381c9725b9db07816baf8524943a79cea135807c84cce0833485c11e0c2e08945085858609935085848509925085858409915085878308905087965080975085887f96afc10c5cedaddbda99df79387397c9be74a5b50f3a0c04ccb68d4e0f3a989f08945085858609935085848509925085858409915085878308905087965080975085887f3543da80d10da251c548776fe907c4ef89993d62e0062ae5c0496fcb851c366108945085858609935085848509925085858409915085878308905087965080975085887fe5140fe26d8b008430fccd50a68e3e11c1163d63b6d8b7cc40bc6f3c1d0b1b0608945085858609935085848509925085858409915085878308905087965080975085887ffefdf1872e4475e8bbb0ef6fab7f561bff121314695c433bd4c29ec118060c9608945085858609935085848509925085858409915085878308905087965080975085887f6bb8c9f3d57b18e002df059db1e6a5d42ad566f153f18460774f68ac2650940008945085858609935085848509925085858409915085878308905087965080975085887f5415122d50b26f4fab5784004c56cf03f128f825ad2236f4b3d51f74737bd97308945085858609935085848509925085858409915085878308905087965080975085887ee115c4a98efae6a3a5ecc873b0cef63ccd5b515710a3ab03ec52218f784dc908945085858609935085848509925085858409915085878308905087965080975085887fda7d525427bad87b88238657c21331245578bc76aa6240b7f972382537a202ab08945085858609935085848509925085858409915085878308905087965080975085887f83332e8b34505b83010270dc795290a2f515b8f89c163acecdf4799df04c62f808945085858609935085848509925085858409915085878308905087965080975085887fb09ecb6033d1a065f17a61066cd737d0c3c5873b51c3ab0a285e26939e62aa1808945085858609935085848509925085858409915085878308905087965080975085887f24e65c718938c2b937378e7435332174329730bde85a4185e37875824eb4985908945085858609935085848509925085858409915085878308905087965080975085887f68e41430ccd41cc5e92a9f9acd2e955c1385b9f5ed8d3f133d767429484a8eba08945085858609935085848509925085858409915085878308905087965080975085887fc038fe9d0125ab8be54545276f841274e414c596ed4c9eaa6919604603d1ffa908945085858609935085848509925085858409915085878308905087965080975085887f23248698612cd8e83234fcf5db9b6b225f4b0ba78d72ef13ea1edff5f0fb029808945085858609935085848509925085858409915085878308905087965080975085887fd2a9fa3d39c1ba91eefa666a1db71c6e0e4e3b707626b0197a4e59e7110cf0d408945085858609935085848509925085858409915085878308905087965080975085887fc28931ee7dfa02b62872e0d937ba3dc5c637118273a1f1f0c4fc880905c82efc08945085858609935085848509925085858409915085878308905087965080975085887f01cd399556445e3d7b201d6c5e56a5794e60be2cfd9a4643e7ead79bb4f60f7908945085858609935085848509925085858409915085878308905087965080975085887fac855cc58d5fbb0dff91a79683eb0e914c1b7d8d0a540d416838a89f83a8312f08945085858609935085848509925085858409915085878308905087965080975085887ff7798af7ccf36b836705849f7dd40328bf9346657255b431446ec75a6817181608945085858609935085848509925085858409915085878308905087965080975085887fe52a24c92d3f067bf551eeaf98c62ba525e84882d7adad835fad8de72986b2b108945085858609935085848509925085858409915085878308905087965080975085887fffc8682759a2bf1dd67c87a77c285467801f1c44fd78fa4eb5957a4832c9d72d08945085858609935085848509925085858409915085878308905087965080975085887f1482ac3e7e4f321627850d95a13942aea6d2923402b913046856ff7e8aaf9aff08945085858609935085848509925085858409915085878308905087965080975085887f17332b4c7aac2a07ccfe954de7ad22ccf6fcb4c5fa15c130ed22a40ae9398f4708945085858609935085848509925085858409915085878308905087965080975085887fd4be0546013f84a0d1e118b37589723b58e323983263616d1b036f8b3fdd858308945085858609935085848509925085858409915085878308905087965080975085887fa64ec737d31dddf939b184438ccdd3e1d3e667572857cd6c9c31a0d1d9b7b08508945085858609935085848509925085858409915085878308905087965080975085887f8ad12fbc74117cff4743d674539c86548c6758710a07a6abe3715e4b53526d3408945085858609935085848509925085858409915085878308905087965080975085887f15a16435a2300b27a337561401f06682ba85019aa0af61b264a1177d38b5c13c08945085858609935085848509925085858409915085878308905087965080975085887f22616f306e76352293a22ab6ee15509d9b108d4136b32fa7f9ed259793f392a108945085858609935085848509925085858409915085878308905087965080975085887f519727b25560caf00ce0d3f911bd4356f907160ab5186da10a629c7ccae1851e08945085858609935085848509925085858409915085878308905087965080975085887fcff39e77928ce9310118d50e29bc87e7f78b53ad51366359aa17f07902ae639208945085858609935085848509925085858409915085878308905087965080975085887f17dead3bfa1968c744118023dead77cdbee22c5b7c2414f5a6bdf82fd94cf3ad08945085858609935085848509925085858409915085878308905087965080975085887f2bef0f8b22a1cfb90100f4a552a9d02b772130123de8144a00c4d57497e1d7f408945085858609935085848509925085858409915085878308905087965080975085887fbf5188713fef90b31c35243f92cfa4331ab076e30e24b355c79b01f41d152a1108945085858609935085848509925085858409915085878308905087965080975085887f3baadd2fd92e3e12fb371be0578941dc0a108fbca0a7d81b88316fb94d6b4dfe08945085858609935085848509925085858409915085878308905087965080975085887fd4f955742e20a28d38611bf9fc4a478c97b673a7cd40d0113a58a1efe338d9aa08945085858609935085848509925085858409915085878308905087965080975085887f3c1c3fe9a5f7ccd54ad5a51a224b3f94775266d19c3733017e4920d7391ad64508945085858609935085848509925085858409915085878308905087965080975085887f6372df6148abeed66fda5461779a9651130c6c525df733852bcd929016768a7a08945085858609935085848509925085858409915085878308905087965080975085887f6d098e848fb853f95adb5a6364b5ab33c79fb08877f2cf3e0e160d9fcb3ebcc508945085858609935085848509925085858409915085878308905087965080975085887f48c5fc90f27431fabfe496dfba14bb0dba71141eb5472a365fd13023f4fe629608945085858609935085848509925085858409915085878308905087965080975085887fbb988dfc0c4dfe53999bd34840adcb63fdbf501ccd622ca2ddf5064ad8cdebf408945085858609935085848509925085858409915085878308905087965080975085887f25b068c942724c424ed5851c9575c22752c9bd25f91ebfa589de3d88ee7627f908945085858609935085848509925085858409915085878308905087965080975085887fed98a1931e361add218de11ff7879bd7114cda19c24ddbe15b3b0190ce01e1aa08945085858609935085848509925085858409915085878308905087965080975085887fc80b5a7d63f6c43542ad612023d3ffd6c684ce2eab837180addcb4decf51854408945085858609935085848509925085858409915085878308905087965080975085887fe2ef24bf47c5203118c6ff96657dd3c6fdff7212d5c798d826455de77b4b70cd08945085858609935085848509925085858409915085878308905087965080975085887f907da812fd5a8375587e4860f87691d0a8d61d454c507d09e5562e1a5d0fcc7608945085858609935085848509925085858409915085878308905087965080975085887fc459abbc62bc6070cacdff597e97990de56edc51cc6643afb0f6789fef1bad6308945085858609935085848509925085858409915085878308905087965080975085887f38d61f5e566855d70d36ef0f0f1fefcd7c829bdd60d95e0ef1fb5b98856280a408945085858609935085848509925085858409915085878308905087965080975085887f13218626665c420d3aa2b0fa49224a3dce8e08b8b56f8851bd9cb5e25cb3042d08945085858609935085848509925085858409915085878308905087965080975085887f6f685fb152dba21b4d02422e237e246df73d7d711ae6d7d33983bae0f873e31008945085858609935085848509925085858409915085878308905087965080975085887f5ade34719e2498dde70e4571c40474475a4af706a3cb82ac18a7fa44c22d1c4708945085858609935085848509925085858409915085878308905087965080975085887f8a0c3dc7a496adca059cb95d9b173812a00f3c4d435e0b9e8116e0c4b5f56acb08945085858609935085848509925085858409915085878308905087965080975085887f196bc98252f63169ed79073ee091a0e8ed0b5af51017da143940c00bdb86370908945085858609935085848509925085858409915085878308905087965080975085887fd979bf70695d93f8efb552a413701918afec9e12dfe213f4d0c27cfa68fad6c208945085858609935085848509925085858409915085878308905087965080975085887fb803072d02f54d237a3c6c4cc18eda6dce87a03c6819df54e4ed8aed6dc56d4608945085858609935085848509925085858409915085878308905087965080975085887f1efcda9d986cddcf431af4d59c6a7709d650885b7886cba70f0e7cd92b331cdc08945085858609935085848509925085858409915085878308905087965080975085887fd3ca5f7859b82ac50b63da06d43aa68a6b685f0a60397638bbea173b3f60419208945085858609935085848509925085858409915085878308905087965080975085887fa59d392c0667316ad37a06be2d51aabe9e79bdef0013bc109985648a14c7e41f08945085858609935085848509925085858409915085878308905087965080975085887fac2f5f0d2146791b396e2bed6cf15a20bc22cc4c8cf7dd4b3514ac00148dd0a708945085858609935085848509925085858409915085878308905087965080975085887f17a993a6af068d72bc36f0e814d29fef3f97d7a72aa963889b16a8457409861a08945085858609935085848509925085858409915085878308905087965080975085887f6f1bf99686550e0396f7f4e2df6fdaa090fbc272c8c76eb32a3c6791de5a07b508945085858609935085848509925085858409915085878308905087965080975085887f8234d705e1ecdc59cc6ed40749069d4b45e63deb49b5b7d7f527abd31c072b1b08945085858609935085848509925085858409915085878308905087965080975085887f6fe929a1fd6aacba5c4012c45dd727d2c816119567450003913d882cb97bc47e08945085858609935085848509925085858409915085878308905087965080975085887fad5371215f2aba49026b2e48739c11b4d8ffbb24dd4a6e41b9763862af96787a08945085858609935085848509925085858409915085878308905087965080975085887fd0e704566c49e1a11edc2c128b2e07f36dc0c755468268f8fe4c4859b9fa595b08945085858609935085848509925085858409915085878308905087965080975085887f263e1195090d00be1d8fb37de17ccf3b66d180645efa0d831865cfaa8797769e08945085858609935085848509925085858409915085878308905087965080975085887fe65c090eebde2cfa7f9c92cf75641c7683fb8e81f4a48f5b7a9c7eb26a85029f08945085858609935085848509925085858409915085878308905087965080975085887fa18971781c6855f6a9752912780bb9b719c14a677a4c6393d62d6e046b97a2ac08945085858609935085848509925085858409915085878308905087965080975085887ff6fc1ef1bca8bec055cc66edecc5dc99030fe78311a3f21d8cd624df4f89e62508945085858609935085848509925085858409915085878308905087965080975085887f824e4e2838501516d3296542cb47a59a1ca4326e947c9c874d88dccc8e37b99a08945085858609935085848509925085858409915085878308905087965080975085887f3cd5a9e7353a50e454c9c1381b556b543897cc89153c3e3749f2021d8237226308945085858609935085848509925085858409915085878308905087965080975085887fb4bcedbd54d0c917a315cc7ca785e3c5995abbeeb3deb3ebaf02c7a9bf6cc83f08945085858609935085848509925085858409915085878308905087965080975085887f1f7476211105b3039cef009c51155ae93526c53a74973ecfce40754b3df1052108945085858609935085848509925085858409915085878308905087965080975085887f58aefbd978440c94b4b9fbd36e00e6e36caeacf82b0da0a6161d34c541a5a6e308945085858609935085848509925085858409915085878308905087965080975085887fc22cd6d61be780a33c77677bc6ba40307b597ed981db57cb485313eec2a5a49708945085858609935085848509925085858409915085878308905087965080975085887fd9ffc4fe0dc5f835c8dcdc1e60b8f0b1637f32a809175371b94a057272b0748d08945085858609935085848509925085858409915085878308905087965080975085887ff6a5268541bc4c64ad0ade8f55dda3492604857a71c923662a214dd7e9c20c100894508585860993508584850992508585840991508587830890508796508097508588600008945085858609935085848509925085858409915085878308905087965080975086995087985050505050505050509250929050565b620044108282604051602401620043879291906200458a565b6040516020818303038152906040527f9710a9d0000000000000000000000000000000000000000000000000000000007bffffffffffffffffffffffffffffffffffffffffffffffffffffffff19166020820180517bffffffffffffffffffffffffffffffffffffffffffffffffffffffff83818316178352505050506200441460201b60201c565b5050565b60008151905060006a636f6e736f6c652e6c6f679050602083016000808483855afa5050505050565b6000815190506200444e8162004864565b92915050565b60008151905062004465816200487e565b92915050565b600080604083850312156200447f57600080fd5b60006200448f8582860162004454565b9250506020620044a2858286016200443d565b9150509250929050565b6000620044b98262004602565b620044c581856200460d565b9350620044d781856020860162004669565b620044e281620047b2565b840191505092915050565b6000620044fc601e836200460d565b91506200450982620047c3565b602082019050919050565b6000620045236009836200461e565b91506200453082620047ec565b600982019050919050565b60006200454a603b836200460d565b9150620045578262004815565b604082019050919050565b6200456d8162004652565b82525050565b6000620045808262004514565b9150819050919050565b60006040820190508181036000830152620045a68185620044ac565b9050620045b7602083018462004562565b9392505050565b60006020820190508181036000830152620045d981620044ed565b9050919050565b60006020820190508181036000830152620045fb816200453b565b9050919050565b600081519050919050565b600082825260208201905092915050565b600081905092915050565b60007cffffffffffffffffffffffffffffffffffffffffffffffffffffffffff82169050919050565b6000819050919050565b600060ff82169050919050565b60005b83811015620046895780820151818401526020810190506200466c565b8381111562004699576000848401525b50505050565b6000620046ac8262004652565b91507fffffffffffffffffffffffffffffffffffffffffffffffffffffffffffffffff821415620046e257620046e162004754565b5b600182019050919050565b6000620046fa826200465c565b915060ff82141562004711576200471062004754565b5b600182019050919050565b6000620047298262004652565b9150620047368362004652565b92508262004749576200474862004783565b5b828206905092915050565b7f4e487b7100000000000000000000000000000000000000000000000000000000600052601160045260246000fd5b7f4e487b7100000000000000000000000000000000000000000000000000000000600052601260045260246000fd5b6000601f19601f8301169050919050565b7f65787465726e616c206e756c6c696669657220616c7265616479207365740000600082015250565b7f53656d6170686f72650000000000000000000000000000000000000000000000600082015250565b7f496e6372656d656e74616c4d65726b6c65547265653a205f747265654c65766560008201527f6c73206d757374206265206265747765656e203020616e642033330000000000602082015250565b6200486f8162004629565b81146200487b57600080fd5b50565b62004889816200465c565b81146200489557600080fd5b50565b619ce880620048a86000396000f3fe608060405234801561001057600080fd5b506004361061018e5760003560e01c80638da5cb5b116100de578063c8cf02da11610097578063ebf0c71711610071578063ebf0c7171461049b578063f1c621ee146104b9578063f2fde38b146104e9578063f5ab0dd6146105055761018e565b8063c8cf02da14610431578063ce85bbdb1461044f578063eac4287e1461046b5761018e565b80638da5cb5b146103595780638f32d59b146103775780638f6efd0014610395578063ba10b81d146103b3578063c3a3407f146103d1578063c4cd5596146104015761018e565b80635e05ea171161014b5780636ebf6265116101255780636ebf6265146102e3578063715018a6146103015780637a5519f91461030b578063819bd8a51461033d5761018e565b80635e05ea17146102535780635fe8c13b146102835780636d80efca146102b35761018e565b80630e57596f1461019357806323baaa83146101af578063283ebaf4146101cb578063539f38b2146101e95780635d3ce725146102055780635d86faba14610235575b600080fd5b6101ad60048036038101906101a89190618389565b610537565b005b6101c960048036038101906101c491906184c2565b61089f565b005b6101d3610aef565b6040516101e09190618b8a565b60405180910390f35b61020360048036038101906101fe91906184c2565b610b02565b005b61021f600480360381019061021a919061841c565b610bb6565b60405161022c9190618b8a565b60405180910390f35b61023d610d22565b60405161024a9190618f97565b60405180910390f35b61026d60048036038101906102689190618281565b610d51565b60405161027a9190618b6e565b60405180910390f35b61029d600480360381019061029891906182d1565b611084565b6040516102aa9190618b8a565b60405180910390f35b6102cd60048036038101906102c891906184eb565b611a51565b6040516102da9190618fe9565b60405180910390f35b6102eb611aef565b6040516102f89190618fe9565b60405180910390f35b610309611af5565b005b610325600480360381019061032091906184c2565b611bfa565b60405161033493929190618fb2565b60405180910390f35b610357600480360381019061035291906184c2565b611c67565b005b610361611eb7565b60405161036e9190618b1b565b60405180910390f35b61037f611ee0565b60405161038c9190618b8a565b60405180910390f35b61039d611f37565b6040516103aa9190618fe9565b60405180910390f35b6103bb611f3d565b6040516103c89190618fe9565b60405180910390f35b6103eb60048036038101906103e691906184c2565b611f47565b6040516103f89190618f97565b60405180910390f35b61041b600480360381019061041691906184eb565b612124565b6040516104289190618b8a565b60405180910390f35b610439612144565b6040516104469190618f97565b60405180910390f35b61046960048036038101906104649190618360565b612173565b005b610485600480360381019061048091906184c2565b612206565b6040516104929190618b8a565b60405180910390f35b6104a36122cf565b6040516104b09190618fe9565b60405180910390f35b6104d360048036038101906104ce91906184eb565b6122d5565b6040516104e09190618b8a565b60405180910390f35b61050360048036038101906104fe9190618258565b6122f5565b005b61051f600480360381019061051a9190618336565b612348565b60405161052e93929190618b36565b60405180910390f35b6047601d9054906101000a900460ff1615806105575750610556611ee0565b5b610596576040517f08c379a000000000000000000000000000000000000000000000000000000000815260040161058d90618f57565b60405180910390fd5b84848484846105f96040518060400160405280601581526020017f697356616c69645369676e616c416e6450726f6f660000000000000000000000815250827cffffffffffffffffffffffffffffffffffffffffffffffffffffffffff16616020565b610602846160bc565b610641576040517f08c379a000000000000000000000000000000000000000000000000000000000815260040161063890618e57565b60405180910390fd5b600015156048600084815260200190815260200160002060009054906101000a900460ff161515146106a8576040517f08c379a000000000000000000000000000000000000000000000000000000000815260040161069f90618d37565b60405180910390fd5b6106b181612206565b6106f0576040517f08c379a00000000000000000000000000000000000000000000000000000000081526004016106e790618e17565b60405180910390fd5b6043600084815260200190815260200160002060009054906101000a900460ff16610750576040517f08c379a000000000000000000000000000000000000000000000000000000000815260040161074790618d97565b60405180910390fd5b600061075b86616405565b90507f30644e72e131a029b85045b68181585d2833e84879b9709143e1f593f000000183106107bf576040517f08c379a00000000000000000000000000000000000000000000000000000000081526004016107b690618c97565b60405180910390fd5b60006040518060800160405280868152602001858152602001838152602001847cffffffffffffffffffffffffffffffffffffffffffffffffffffffffff168152509050600080600061081189612348565b92509250925061082383838387611084565b610862576040517f08c379a000000000000000000000000000000000000000000000000000000000815260040161085990618e97565b60405180910390fd5b6001604860008e815260200190815260200160002060006101000a81548160ff021916908315150217905550505050505050505050505050505050565b6108a7611ee0565b6108e6576040517f08c379a00000000000000000000000000000000000000000000000000000000081526004016108dd90618df7565b60405180910390fd5b60446000827cffffffffffffffffffffffffffffffffffffffffffffffffffffffffff167cffffffffffffffffffffffffffffffffffffffffffffffffffffffffff168152602001908152602001600020600001601d9054906101000a900460ff16610987576040517f08c379a000000000000000000000000000000000000000000000000000000000815260040161097e90618e17565b60405180910390fd5b6001151560446000837cffffffffffffffffffffffffffffffffffffffffffffffffffffffffff167cffffffffffffffffffffffffffffffffffffffffffffffffffffffffff168152602001908152602001600020600001601e9054906101000a900460ff16151514610a2f576040517f08c379a0000000000000000000000000000000000000000000000000000000008152600401610a2690618dd7565b60405180910390fd5b600060446000837cffffffffffffffffffffffffffffffffffffffffffffffffffffffffff167cffffffffffffffffffffffffffffffffffffffffffffffffffffffffff168152602001908152602001600020600001601e6101000a81548160ff02191690831515021790555060001515817cffffffffffffffffffffffffffffffffffffffffffffffffffffffffff167fb8d2b8a2b352df7f139810483b3c80fc3a4a88711c90bdb7180f1030b7f49acf60405160405180910390a350565b6047601d9054906101000a900460ff1681565b610b0a611ee0565b610b49576040517f08c379a0000000000000000000000000000000000000000000000000000000008152600401610b4090618df7565b60405180910390fd5b610b876040518060400160405280601e81526020017f53656d6170686f72653a61646445787465726e616c4e756c6c6966696572000081525061641d565b610b928160006164b6565b610bb3604051806060016040528060268152602001619c8d6026913961641d565b50565b6000806040518060800160405280878152602001868152602001858152602001847cffffffffffffffffffffffffffffffffffffffffffffffffffffffffff1681525090506000806000610c098a612348565b92509250925060001515604860008a815260200190815260200160002060009054906101000a900460ff161515148015610c4a575086610c488c616405565b145b8015610c5d5750610c5a8b616405565b87145b8015610c6e5750610c6d86612206565b5b8015610c975750604360008a815260200190815260200160002060009054906101000a900460ff165b8015610ca85750610ca78a6160bc565b5b8015610cd357507f30644e72e131a029b85045b68181585d2833e84879b9709143e1f593f000000189105b8015610cfe57507f30644e72e131a029b85045b68181585d2833e84879b9709143e1f593f000000188105b8015610d125750610d1183838387611084565b5b9450505050509695505050505050565b604660009054906101000a90047cffffffffffffffffffffffffffffffffffffffffffffffffffffffffff1681565b610d59617daf565b60405180610100016040528085600060028110610d9f577f4e487b7100000000000000000000000000000000000000000000000000000000600052603260045260246000fd5b6020020151815260200185600160028110610de3577f4e487b7100000000000000000000000000000000000000000000000000000000600052603260045260246000fd5b6020020151815260200184600060028110610e27577f4e487b7100000000000000000000000000000000000000000000000000000000600052603260045260246000fd5b6020020151600060028110610e65577f4e487b7100000000000000000000000000000000000000000000000000000000600052603260045260246000fd5b6020020151815260200184600060028110610ea9577f4e487b7100000000000000000000000000000000000000000000000000000000600052603260045260246000fd5b6020020151600160028110610ee7577f4e487b7100000000000000000000000000000000000000000000000000000000600052603260045260246000fd5b6020020151815260200184600160028110610f2b577f4e487b7100000000000000000000000000000000000000000000000000000000600052603260045260246000fd5b6020020151600060028110610f69577f4e487b7100000000000000000000000000000000000000000000000000000000600052603260045260246000fd5b6020020151815260200184600160028110610fad577f4e487b7100000000000000000000000000000000000000000000000000000000600052603260045260246000fd5b6020020151600160028110610feb577f4e487b7100000000000000000000000000000000000000000000000000000000600052603260045260246000fd5b602002015181526020018360006002811061102f577f4e487b7100000000000000000000000000000000000000000000000000000000600052603260045260246000fd5b6020020151815260200183600160028110611073577f4e487b7100000000000000000000000000000000000000000000000000000000600052603260045260246000fd5b602002015181525090509392505050565b600061108e617dd2565b6040518060400160405280876000600281106110d3577f4e487b7100000000000000000000000000000000000000000000000000000000600052603260045260246000fd5b6020020151815260200187600160028110611117577f4e487b7100000000000000000000000000000000000000000000000000000000600052603260045260246000fd5b602002015181525081600001819052506040518060400160405280604051806040016040528088600060028110611177577f4e487b7100000000000000000000000000000000000000000000000000000000600052603260045260246000fd5b60200201516000600281106111b5577f4e487b7100000000000000000000000000000000000000000000000000000000600052603260045260246000fd5b60200201518152602001886000600281106111f9577f4e487b7100000000000000000000000000000000000000000000000000000000600052603260045260246000fd5b6020020151600160028110611237577f4e487b7100000000000000000000000000000000000000000000000000000000600052603260045260246000fd5b60200201518152508152602001604051806040016040528088600160028110611289577f4e487b7100000000000000000000000000000000000000000000000000000000600052603260045260246000fd5b60200201516000600281106112c7577f4e487b7100000000000000000000000000000000000000000000000000000000600052603260045260246000fd5b602002015181526020018860016002811061130b577f4e487b7100000000000000000000000000000000000000000000000000000000600052603260045260246000fd5b6020020151600160028110611349577f4e487b7100000000000000000000000000000000000000000000000000000000600052603260045260246000fd5b602002015181525081525081602001819052506040518060400160405280856000600281106113a1577f4e487b7100000000000000000000000000000000000000000000000000000000600052603260045260246000fd5b60200201518152602001856001600281106113e5577f4e487b7100000000000000000000000000000000000000000000000000000000600052603260045260246000fd5b6020020151815250816040018190525060006113ff616926565b90506000604051806040016040528060008152602001600081525090507f30644e72e131a029b85045b68181585d97816a916871ca8d3c208c16d87cfd4783600001516000015110611486576040517f08c379a000000000000000000000000000000000000000000000000000000000815260040161147d90618c37565b60405180910390fd5b7f30644e72e131a029b85045b68181585d97816a916871ca8d3c208c16d87cfd47836000015160200151106114f0576040517f08c379a00000000000000000000000000000000000000000000000000000000081526004016114e790618ef7565b60405180910390fd5b7f30644e72e131a029b85045b68181585d97816a916871ca8d3c208c16d87cfd47836020015160000151600060028110611553577f4e487b7100000000000000000000000000000000000000000000000000000000600052603260045260246000fd5b602002015110611598576040517f08c379a000000000000000000000000000000000000000000000000000000000815260040161158f90618bf7565b60405180910390fd5b7f30644e72e131a029b85045b68181585d97816a916871ca8d3c208c16d87cfd478360200151602001516000600281106115fb577f4e487b7100000000000000000000000000000000000000000000000000000000600052603260045260246000fd5b602002015110611640576040517f08c379a000000000000000000000000000000000000000000000000000000000815260040161163790618e37565b60405180910390fd5b7f30644e72e131a029b85045b68181585d97816a916871ca8d3c208c16d87cfd478360200151600001516001600281106116a3577f4e487b7100000000000000000000000000000000000000000000000000000000600052603260045260246000fd5b6020020151106116e8576040517f08c379a00000000000000000000000000000000000000000000000000000000081526004016116df90618cb7565b60405180910390fd5b7f30644e72e131a029b85045b68181585d97816a916871ca8d3c208c16d87cfd4783602001516020015160016002811061174b577f4e487b7100000000000000000000000000000000000000000000000000000000600052603260045260246000fd5b602002015110611790576040517f08c379a000000000000000000000000000000000000000000000000000000000815260040161178790618c57565b60405180910390fd5b7f30644e72e131a029b85045b68181585d97816a916871ca8d3c208c16d87cfd47836040015160000151106117fa576040517f08c379a00000000000000000000000000000000000000000000000000000000081526004016117f190618f37565b60405180910390fd5b7f30644e72e131a029b85045b68181585d97816a916871ca8d3c208c16d87cfd4783604001516020015110611864576040517f08c379a000000000000000000000000000000000000000000000000000000000815260040161185b90618d77565b60405180910390fd5b60005b60048110156119c1577f30644e72e131a029b85045b68181585d2833e84879b9709143e1f593f00000018682600481106118ca577f4e487b7100000000000000000000000000000000000000000000000000000000600052603260045260246000fd5b60200201511061190f576040517f08c379a000000000000000000000000000000000000000000000000000000000815260040161190690618db7565b60405180910390fd5b6119ac826119a7856080015160018561192891906191a0565b6005811061195f577f4e487b7100000000000000000000000000000000000000000000000000000000600052603260045260246000fd5b602002015189856004811061199d577f4e487b7100000000000000000000000000000000000000000000000000000000600052603260045260246000fd5b6020020151616ee3565b617032565b915080806119b9906194e6565b915050611867565b50611a0e818360800151600060058110611a04577f4e487b7100000000000000000000000000000000000000000000000000000000600052603260045260246000fd5b6020020151617032565b9050611a44611a2084600001516171cd565b8460200151846000015185602001518587604001518960400151896060015161728b565b9350505050949350505050565b6000611a5b611ee0565b611a9a576040517f08c379a0000000000000000000000000000000000000000000000000000000008152600401611a9190618df7565b60405180910390fd5b604954821415611adf576040517f08c379a0000000000000000000000000000000000000000000000000000000008152600401611ad690618c17565b60405180910390fd5b611ae8826178b2565b9050919050565b60495481565b611afd611ee0565b611b3c576040517f08c379a0000000000000000000000000000000000000000000000000000000008152600401611b3390618df7565b60405180910390fd5b600073ffffffffffffffffffffffffffffffffffffffff1660008054906101000a900473ffffffffffffffffffffffffffffffffffffffff1673ffffffffffffffffffffffffffffffffffffffff167f8be0079c531659141344cd1fd0a4f28419497f9722a3daafe3b4186f6b6457e060405160405180910390a360008060006101000a81548173ffffffffffffffffffffffffffffffffffffffff021916908373ffffffffffffffffffffffffffffffffffffffff160217905550565b60446020528060005260406000206000915090508060000160009054906101000a90047cffffffffffffffffffffffffffffffffffffffffffffffffffffffffff169080600001601d9054906101000a900460ff169080600001601e9054906101000a900460ff16905083565b611c6f611ee0565b611cae576040517f08c379a0000000000000000000000000000000000000000000000000000000008152600401611ca590618df7565b60405180910390fd5b60446000827cffffffffffffffffffffffffffffffffffffffffffffffffffffffffff167cffffffffffffffffffffffffffffffffffffffffffffffffffffffffff168152602001908152602001600020600001601d9054906101000a900460ff16611d4f576040517f08c379a0000000000000000000000000000000000000000000000000000000008152600401611d4690618e17565b60405180910390fd5b6000151560446000837cffffffffffffffffffffffffffffffffffffffffffffffffffffffffff167cffffffffffffffffffffffffffffffffffffffffffffffffffffffffff168152602001908152602001600020600001601e9054906101000a900460ff16151514611df7576040517f08c379a0000000000000000000000000000000000000000000000000000000008152600401611dee90618eb7565b60405180910390fd5b600160446000837cffffffffffffffffffffffffffffffffffffffffffffffffffffffffff167cffffffffffffffffffffffffffffffffffffffffffffffffffffffffff168152602001908152602001600020600001601e6101000a81548160ff02191690831515021790555060011515817cffffffffffffffffffffffffffffffffffffffffffffffffffffffffff167fb8d2b8a2b352df7f139810483b3c80fc3a4a88711c90bdb7180f1030b7f49acf60405160405180910390a350565b60008060009054906101000a900473ffffffffffffffffffffffffffffffffffffffff16905090565b60008060009054906101000a900473ffffffffffffffffffffffffffffffffffffffff1673ffffffffffffffffffffffffffffffffffffffff163373ffffffffffffffffffffffffffffffffffffffff1614905090565b60455481565b6000600154905090565b600060446000837cffffffffffffffffffffffffffffffffffffffffffffffffffffffffff167cffffffffffffffffffffffffffffffffffffffffffffffffffffffffff168152602001908152602001600020600001601d9054906101000a900460ff16611fea576040517f08c379a0000000000000000000000000000000000000000000000000000000008152600401611fe190618ed7565b60405180910390fd5b600060446000847cffffffffffffffffffffffffffffffffffffffffffffffffffffffffff167cffffffffffffffffffffffffffffffffffffffffffffffffffffffffff16815260200190815260200160002060000160009054906101000a90047cffffffffffffffffffffffffffffffffffffffffffffffffffffffffff16905060016045541180156120dc575060446000827cffffffffffffffffffffffffffffffffffffffffffffffffffffffffff167cffffffffffffffffffffffffffffffffffffffffffffffffffffffffff168152602001908152602001600020600001601d9054906101000a900460ff165b61211b576040517f08c379a000000000000000000000000000000000000000000000000000000000815260040161211290618d17565b60405180910390fd5b80915050919050565b60486020528060005260406000206000915054906101000a900460ff1681565b604760009054906101000a90047cffffffffffffffffffffffffffffffffffffffffffffffffffffffffff1681565b61217b611ee0565b6121ba576040517f08c379a00000000000000000000000000000000000000000000000000000000081526004016121b190618df7565b60405180910390fd5b806047601d6101000a81548160ff0219169083151502179055508015157ffba91b9002bc7732a7bff1b44ee16a30ebaeb06d7921779034c6a6ab27e69c2760405160405180910390a250565b60006122666040518060400160405280601981526020017f697345787465726e616c4e756c6c696669657241637469766500000000000000815250837cffffffffffffffffffffffffffffffffffffffffffffffffffffffffff16616020565b60446000837cffffffffffffffffffffffffffffffffffffffffffffffffffffffffff167cffffffffffffffffffffffffffffffffffffffffffffffffffffffffff168152602001908152602001600020600001601e9054906101000a900460ff169050919050565b60025481565b60436020528060005260406000206000915054906101000a900460ff1681565b6122fd611ee0565b61233c576040517f08c379a000000000000000000000000000000000000000000000000000000000815260040161233390618df7565b60405180910390fd5b61234581617bc7565b50565b612350617e05565b612358617e27565b612360617e05565b6040518060400160405280856000600881106123a5577f4e487b7100000000000000000000000000000000000000000000000000000000600052603260045260246000fd5b60200201518152602001856001600881106123e9577f4e487b7100000000000000000000000000000000000000000000000000000000600052603260045260246000fd5b60200201518152506040518060400160405280604051806040016040528088600260088110612441577f4e487b7100000000000000000000000000000000000000000000000000000000600052603260045260246000fd5b6020020151815260200188600360088110612485577f4e487b7100000000000000000000000000000000000000000000000000000000600052603260045260246000fd5b602002015181525081526020016040518060400160405280886004600881106124d7577f4e487b7100000000000000000000000000000000000000000000000000000000600052603260045260246000fd5b602002015181526020018860056008811061251b577f4e487b7100000000000000000000000000000000000000000000000000000000600052603260045260246000fd5b602002015181525081525060405180604001604052808760066008811061256b577f4e487b7100000000000000000000000000000000000000000000000000000000600052603260045260246000fd5b60200201518152602001876007600881106125af577f4e487b7100000000000000000000000000000000000000000000000000000000600052603260045260246000fd5b60200201518152509250925092509193909250565b60008083837f30644e72e131a029b85045b68181585d2833e84879b9709143e1f593f000000160008184850982818209838682098486820887965080975085887f0fbe43c36a80e36d7c7c584d4f8f3759fb51f0d66065d8a227b688d12488c5d408945085858609935085848509925085858409915085878308905087965080975085887f9c48cd3e00a6195a253fc009e60f249456f802ff9baf6549210d201321efc1cc08945085858609935085848509925085858409915085878308905087965080975085887f27c0849dba2643077c13eb42ffb97663cdcecd669bf10f756be30bab71b86cf808945085858609935085848509925085858409915085878308905087965080975085887f2bf76744736132e5c68f7dfdd5b792681d415098554fd8280f00d11b172b80d208945085858609935085848509925085858409915085878308905087965080975085887f33133eb4a1a1ab45037c8bdf9adbb2999baf06f20a9c95180dc4ccdcbec5856808945085858609935085848509925085858409915085878308905087965080975085887f588bb66012356dbc9b059ef1d792b563d6c18624dddecc3fe4583fd3551e9b3008945085858609935085848509925085858409915085878308905087965080975085887f71bc3e244e1b92911fe7f53cf523e491fd6ff487d59337a1d92f92668c4f4c3608945085858609935085848509925085858409915085878308905087965080975085887fd1808e2b039fd010c489768f78d7499938ccc0858f3295151787cfe8b7e40be108945085858609935085848509925085858409915085878308905087965080975085887f76978af3ded437cf41b3faa40cd6bcfce94f27f4abcc3ed34be19abd2c4537d008945085858609935085848509925085858409915085878308905087965080975085887f0a9baee798a320b0ca5b1cf888386d1dc12c13b38e10225aa4e9f03069a099f508945085858609935085848509925085858409915085878308905087965080975085887fb79dbf6050a03b16c3ade8d77e11c767d2251af9cdbd6cdf9a8a0ee921b32c7908945085858609935085848509925085858409915085878308905087965080975085887fa74bbcf5067f067faec2cce4b98d130d7927456f5c5f6c00e0f5406a24eb8b1908945085858609935085848509925085858409915085878308905087965080975085887fab7ab080d4c4018bda6ecc8bd67468bc4619ba12f25b0da879a639c758c8855d08945085858609935085848509925085858409915085878308905087965080975085887fe6a5b797c2bba7e9a873b37f5c41adc47765e9be4a1f0e0650e6a24ad226876308945085858609935085848509925085858409915085878308905087965080975085887f6270ae87cf3d82cf9c0b5f428466c429d7b7cbe234cecff39969171af006016c08945085858609935085848509925085858409915085878308905087965080975085887f9951c9f6e76d636b52f7600d979ca9f3b643dfbe9551c83b31542830321b2a6608945085858609935085848509925085858409915085878308905087965080975085887f4119469e44229cc40c4ff555a2b6f6b39961088e741e3c20a3c9b47f130c555008945085858609935085848509925085858409915085878308905087965080975085887f5d795e02bbaf90ff1f384741e5f18f8b644a0080441315d0e5b3c8123452a0b008945085858609935085848509925085858409915085878308905087965080975085887f281e90a515e6409e9177b4f297f8049ce3d4c3659423c48b3fd64e83596ff10108945085858609935085848509925085858409915085878308905087965080975085887f424185c60a21e84970f7d32cacaa2725aa8a844caea7ed760d2b965af1bf3e7d08945085858609935085848509925085858409915085878308905087965080975085887fd96fcbc3960614ea887da609187a5dada2e1b829f23309a6375212cea1f25c0908945085858609935085848509925085858409915085878308905087965080975085887ffde84026d7c294300af18f7712fc3662f43387ae8cf7fdda1f9a810f4b24bcf208945085858609935085848509925085858409915085878308905087965080975085887f3a9d568575846aa6b8a890b3c237fd0447426db878e6e25333b8eb9b386195c108945085858609935085848509925085858409915085878308905087965080975085887f55a2aa32c84a4cae196dd4094b685dd11757470a3be094d98eea73f02452aa3608945085858609935085848509925085858409915085878308905087965080975085887fcbc9481380978d29ebc5b0a8d4481cd2ef654ee800907adb3d38dc2fd9265fab08945085858609935085848509925085858409915085878308905087965080975085887f24e53af71ef06bacb76d3294c11223911e9d177ff09b7009febc484add0beb7408945085858609935085848509925085858409915085878308905087965080975085887fdbd44e16108225766dac3e5fe7acbe9df519bbba97380e5e9437a90658f2139308945085858609935085848509925085858409915085878308905087965080975085887fc6f434863c79013bb2c202331e04bccea2251c1ff6f191dc2afa23e6f6d28e4e08945085858609935085848509925085858409915085878308905087965080975085887f3490eeb39a733c0e8062d87f981ae65a8fccf25c448f4455d27db3915351b06608945085858609935085848509925085858409915085878308905087965080975085887f30b89830ff7ade3558a5361a24869130ce1fcce97211602962e34859525dac4f08945085858609935085848509925085858409915085878308905087965080975085887f29bae21b579d080a75c1694da628d0ecfd83efc9c8468704f410300062f64ca908945085858609935085848509925085858409915085878308905087965080975085887fe326499de0476e719915dd1c661ef4550723d4aee9ee9af224edd208790fce4408945085858609935085848509925085858409915085878308905087965080975085887f8c45208b8baa6f473821415957088c0b7e72a465f460b09ece2d270aee2f184108945085858609935085848509925085858409915085878308905087965080975085887ffe2ad454f451348f26ce2cc7e7914aef3eb96e8f89a4619a1dc7d11f8401c35208945085858609935085848509925085858409915085878308905087965080975085887f0929db368ef2af2d29bca38845325b0b7a820a4889e44b5829bbe1ed47fd4d5208945085858609935085848509925085858409915085878308905087965080975085887f16531d424b0cbaf9abbf2d2acde698462ea4555bf32ccf1bbd26697e905066f608945085858609935085848509925085858409915085878308905087965080975085887ff5c30d247f045ff6d05cf0dd0a49c9823e7a24b0d751d3c721353b96f29d76f608945085858609935085848509925085858409915085878308905087965080975085887f6eb7a3614056c230c6f171370fdd9d1048bb00b2cdd1b2721d11bdda5023f48608945085858609935085848509925085858409915085878308905087965080975085887f0ee9c4621642a272f710908707557498d25a6fdd51866da5d9f0d205355a618908945085858609935085848509925085858409915085878308905087965080975085887f78ca1cb1c7f6c6894d1cf94f327b8763be173151b6b06f99dfc6a944bb5a72f008945085858609935085848509925085858409915085878308905087965080975085887f5d24d0b1b304d05311ce0f274b0d93746a4860ed5cdd8d4348de557ea7a5ee7a08945085858609935085848509925085858409915085878308905087965080975085887f77423dabd1a3cddc8691438fc5891e3fd49ac0f3e21aaf249791bfde1303d2f308945085858609935085848509925085858409915085878308905087965080975085887f0642e8800a48cc04c0168232c6f542396597a67cf395ad622d947e98bb68697a08945085858609935085848509925085858409915085878308905087965080975085887fc1e7d3cbbc4c35b7490647d8402e56d334336943bda91fe2d34ca9727c0e3df508945085858609935085848509925085858409915085878308905087965080975085887f8d6fb1730335204f38f85e408ac861e76f24349ab6ee0469c22e19350bb24fe108945085858609935085848509925085858409915085878308905087965080975085887f67d0faf5f0db32a1b60e13dc4914246b9edac7990fb4990b19aa86815586441a08945085858609935085848509925085858409915085878308905087965080975085887f2605b9b909ded1b04971eae979027c4e0de57f3b6a60d5ed58aba619c34749ce08945085858609935085848509925085858409915085878308905087965080975085887fd276890b2c205db85f000d1f5111ed8f177e279cae3e52862780f04e846228d008945085858609935085848509925085858409915085878308905087965080975085887f2ac5905f9450a21ef6905ed5951a91b3730e3a2e2d62b50bdeb810015d50376b08945085858609935085848509925085858409915085878308905087965080975085887f7a366839f0291ca54da674ac3f0e1e9aa8b687ba533926cb40268039e57b967a08945085858609935085848509925085858409915085878308905087965080975085887f67ab0f3466989c3dbbe209c37ec272ba83984ba6e445be6d472b63e3ca7270e308945085858609935085848509925085858409915085878308905087965080975085887f0e786007d0ce7e28a90e31d3263887d40c556dec88fcb8b56bc9e9c05ecc0c2908945085858609935085848509925085858409915085878308905087965080975085887f0b814ed99bd00eca389b0022663dbfddfbfa15e321c19abcf1eaf9556075fb6808945085858609935085848509925085858409915085878308905087965080975085887f65c0321ba26fcee4fdc35b4999b78ceb54dcaf9fec2e3bdea98e9f82925c093208945085858609935085848509925085858409915085878308905087965080975085887fab2d2a929601f9c3520e0b14aaa6ba9f1e79821a5b768919670a4ea970722bf408945085858609935085848509925085858409915085878308905087965080975085887fcdd2e0744d4af1a81918de69ec12128a5871367303ff83ed764771cbbdf6502308945085858609935085848509925085858409915085878308905087965080975085887f74527d0c0868f2ec628086b874fa66a7347d3d3b918d2e07a5f33e1067e8ac5808945085858609935085848509925085858409915085878308905087965080975085887f1c6bf6ac0314caead23e357bfcbbaa17d670672ae3a475f80934c716f10aca2508945085858609935085848509925085858409915085878308905087965080975085887f3c4007e286f8dc7efd5d0eeb0e95d7aa6589361d128a0cccb17b554c851a643208945085858609935085848509925085858409915085878308905087965080975085887fae468a86a5a7db7c763a053eb09ac1a02809ce095258c88101ee319e12b0697e08945085858609935085848509925085858409915085878308905087965080975085887f9333e3d052b7c77fcac1eb366f610f6f97852242b1317a87b80f3bbc5c8c2d1d08945085858609935085848509925085858409915085878308905087965080975085887f52ec1d675cf5353153f6b628414783ca6b7fc0fe01948ca206daad712296e39508945085858609935085848509925085858409915085878308905087965080975085887f13ceeeb301572b4991076750e11ea7e7fcbfee454d90dc1763989004a1894f9308945085858609935085848509925085858409915085878308905087965080975085887f8505737e7e94939a08d8cda10b6fbbbf879b2141ae7eabc30fcd22405135fe6408945085858609935085848509925085858409915085878308905087965080975085887f6127db7ac5200a212092b66ec2bfc63653f4dc8ac66c76008fef885258a258b508945085858609935085848509925085858409915085878308905087965080975085887f12692a7d808f44e31d628dbcfea377eb073fb918d7beb8136ea47f8cf094c88c08945085858609935085848509925085858409915085878308905087965080975085887f260e384b1268e3a347c91d6987fd280fa0a275541a7c5be34bf126af35c962e008945085858609935085848509925085858409915085878308905087965080975085887fd88c3b01966d90e713aee8d482ceaa6925311d2342e1a5aca4fcd2f44b6daddc08945085858609935085848509925085858409915085878308905087965080975085887fb87e868affd91b078a87fa75ac9332a6cf23587d94e20c3262db5e91f30bf04b08945085858609935085848509925085858409915085878308905087965080975085887fb5ba5f8acad1a950a3bbf2201055cd3ea27056c0c53f0c4c97f33cda8dbfe90908945085858609935085848509925085858409915085878308905087965080975085887f59ca814b49e00d7b3118c53a2986ded128584acd7428735e08ade6661c457f7508945085858609935085848509925085858409915085878308905087965080975085887f0fc4c0bea813a223fd510c07f7bbe337badd4bcf28649a0d378970c2a15b3aa508945085858609935085848509925085858409915085878308905087965080975085887e53f1ea6dd60e7a6db09a00be77549ff3d4ee3737be7fb42052ae1321f667c308945085858609935085848509925085858409915085878308905087965080975085887feb937077bb10c8fe38716d4e38edc1f9e7b18c6414fef85fe7e9c5567baa4a0408945085858609935085848509925085858409915085878308905087965080975085887fbacb14c0f1508d828f7fd048d716b8044aec7f0fb48e85e717bf532db972520708945085858609935085848509925085858409915085878308905087965080975085887f4ca0abb8beb7cff572a0c1e6f58e080e1bb243d497a3e74538442a4555ad40be08945085858609935085848509925085858409915085878308905087965080975085887fda9eefd411e590d7e44592cce298af87b2c62aa3cc8bb137aa99ca8d4aa551b508945085858609935085848509925085858409915085878308905087965080975085887f153dae43cef763e7a2fc9846f09a2973b0ad9c35894c220699bcc2954501c6bd08945085858609935085848509925085858409915085878308905087965080975085887fd4ed2a09375813b4fb504c7a9ba13110bdd8549a47349db82c15a434c090e87b08945085858609935085848509925085858409915085878308905087965080975085887e63a5c4c9c12dcf4bae72c69f3a225664469503d61d9eae5d9553bfb006095b08945085858609935085848509925085858409915085878308905087965080975085887fdc8a4d35ad28e59dd3713b45985cd3b70e37ccc2be42086f1ea078fe2dc9d82d08945085858609935085848509925085858409915085878308905087965080975085887f486ba219308f0c847b22fcb4449f8855192536c01b8057904e81c1c7814f483b08945085858609935085848509925085858409915085878308905087965080975085887f34d9604140a1ac9fdb204285b9fe1b303c281af2fc5fb362f6577282b423bcf308945085858609935085848509925085858409915085878308905087965080975085887fc1681959ec4bc3656911db2b2f56aa4db709c26f1a0a25c879286e37f437465d08945085858609935085848509925085858409915085878308905087965080975085887ffcd849f3b5f9e4368af75619fb27f2e335adbb9b44988f17c4d389fa751ad47a08945085858609935085848509925085858409915085878308905087965080975085887ff5f7fc22ad64c8e7c1e005110e13f4f1c6b1f8f8cc59000db0e3bb38f99554a508945085858609935085848509925085858409915085878308905087965080975085887fa9133b8a20fbae4633ec5f82cb47a38ae1877d12d1febb23982c7c808aa5317508945085858609935085848509925085858409915085878308905087965080975085887ff4827c5c7b61141cc31b75984bb3ed16ed579e5b72e32a1289b63ab55eaf8c1208945085858609935085848509925085858409915085878308905087965080975085887fcca361819ffefe3e50fe34c91a322c9405f4e5a168c1fc0a0a1883993e32c9f408945085858609935085848509925085858409915085878308905087965080975085887f6656088842bfc9e325a532784d3362cecfa86f9c7b208a6b499836ebe48ff15708945085858609935085848509925085858409915085878308905087965080975085887e129c7cd00e42ed05a37dbceb80d47b65e1d750ef2148278a54723fdf42c4cc08945085858609935085848509925085858409915085878308905087965080975085887fa85b235631b786f85cd46f7768f6c71ae004ad267ae59bdf929ada149b19588808945085858609935085848509925085858409915085878308905087965080975085887f34df65a82686be09c5b237911abf237a9887c1a418f279ac79b446d7d311f5ea08945085858609935085848509925085858409915085878308905087965080975085887f815a850c3989df9ca6231e0bdd9916fc0e076f2c6c7f0f260a846d0179f9c32d08945085858609935085848509925085858409915085878308905087965080975085887f50fb0940848a67aee83d348421fadd79aefc7a2adabeec6e64904ebe1bf63e7d08945085858609935085848509925085858409915085878308905087965080975085887fbab63a16273599f8b66895461e62a19ff0d103693be771d93e3691bba89cdd8d08945085858609935085848509925085858409915085878308905087965080975085887f6931a091756e0bc709ebecfffba5038634c5b3d5d0c5876dd72aac67452db8a208945085858609935085848509925085858409915085878308905087965080975085887f55559b8bb79db8809c46ee627f1b5ce1d8e6d89bf94a9987a1407759d1ba896308945085858609935085848509925085858409915085878308905087965080975085887fa9a1a11b2979018cb155914d09f1df19b7ffec241e8b2487b6f6272a56a44a0a08945085858609935085848509925085858409915085878308905087965080975085887ff83293400e7bccea4bb86dcb0d5ca57fa2466e13a572d7d3531c6fa491cb0f1b08945085858609935085848509925085858409915085878308905087965080975085887fb7cb5742b6bc5339624d3568a33c21f31b877f8396972582028da999abf249f208945085858609935085848509925085858409915085878308905087965080975085887ff56efb400f8500b5c5bf811c65c86c7ed2e965f14f1a69bca436c0c60b79f46508945085858609935085848509925085858409915085878308905087965080975085887fd7c4427998d9c440f849dcd75b7157996eaad1b9a1d58cc2441931300e26eb2208945085858609935085848509925085858409915085878308905087965080975085887fca5ed18ad53e33fdc3ae8cf353ff3f6dd315f60060442b74f6b614b24ebd4cc308945085858609935085848509925085858409915085878308905087965080975085887f9ad3e9376c97b194a0fbf43e22a3616981d777365c765ead09a1d033fdf536b708945085858609935085848509925085858409915085878308905087965080975085887fc6daeff5769a06b26fe3b8fef30df07b1387373a7814cef364fe1d6059eaf54a08945085858609935085848509925085858409915085878308905087965080975085887fc20a78398345c6b8cf439643dab96223bf879c302648293eaf496fee5c978c6608945085858609935085848509925085858409915085878308905087965080975085887f589ca65b6cf0e90653c06dddc057dc61ba2839974569051c98b43e8618716efb08945085858609935085848509925085858409915085878308905087965080975085887f83064161f127d8c59fc73625957e21630dc6dc99e5443f6ce37ecd6bf28e69b708945085858609935085848509925085858409915085878308905087965080975085887f46d0ba662b50100b9a3af52052f68932feec1d12290b2033c4f49148893d8ba308945085858609935085848509925085858409915085878308905087965080975085887f18dd55b4a83a53f2ee578eb3e6d26f594824d44670fc3f4de80642344d15c09a08945085858609935085848509925085858409915085878308905087965080975085887f9fb5b594f48bc58b345ab90ded705920a7274b8e070eee8ce8cf90c72c3604b608945085858609935085848509925085858409915085878308905087965080975085887f1901d8f4f2c8449128e00663978f2050f2eb1cd6acb60d9d09c57c5d46ee54fe08945085858609935085848509925085858409915085878308905087965080975085887f5ec56789beab24ef7ee32f594d5fc561ec59dfeb93606dc7dcc6fe65133a7db408945085858609935085848509925085858409915085878308905087965080975085887f01c0b2cbe4fa9877a3d08eb67c510e8630da0a8beda94a6d9283e6f70d268bc508945085858609935085848509925085858409915085878308905087965080975085887f0b1d85acd9031a9107350eed946a25734e974799c5ba7cff13b15a5a623a25f008945085858609935085848509925085858409915085878308905087965080975085887f204497d1d359552905a2fe655f3d6f94926ea92d12cdaa6556ec26362f239f6408945085858609935085848509925085858409915085878308905087965080975085887fe075f7edc6631a8d7ffe33019f44fc91f286236d5a5f90f16de4791b72a2a5f008945085858609935085848509925085858409915085878308905087965080975085887f243f46e353354256ab8fe0ca4e9230dfc330bc163e602dfeaf307c1d1a7264b908945085858609935085848509925085858409915085878308905087965080975085887fd448ae5e09625fa1fcfd732fc9cd8f06e4c33b81f0a9240c83da56f41e9ecceb08945085858609935085848509925085858409915085878308905087965080975085887f2f312eef69a33d9fa753c08840275692a03432b3e6da67f9c59b9f9f4971cd5608945085858609935085848509925085858409915085878308905087965080975085887f5f333996af231bd5a293137da91801e191a6f24eb532ad1a7e6e9a2ad0efbc0008945085858609935085848509925085858409915085878308905087965080975085887fa8f771e0383a832dc8e2eaa8efabda300947acaf0684fabddf8b4abb0abd8a6208945085858609935085848509925085858409915085878308905087965080975085887f9ff0b3d7a4643596f651b70c1963cc4fa6c46018d78f05cb2c5f187e25df83a908945085858609935085848509925085858409915085878308905087965080975085887f9c373b704838325648273734dcdf962d7c156f431f70380ba4855832c4a238b808945085858609935085848509925085858409915085878308905087965080975085887fea2afa02604b8afeeb570f48a0e97a5e6bfe9613394b9a6b0026ecd6cec8c33a08945085858609935085848509925085858409915085878308905087965080975085887f68892258cd8eb43b71caa6d6837ec9959bfdfd72f25c9005ebaffc4011f8a7bf08945085858609935085848509925085858409915085878308905087965080975085887ff2824f561f6f82e3c1232836b0d268fa3b1b5489edd39a5fe1503bfc7ca91f4908945085858609935085848509925085858409915085878308905087965080975085887f164eda75fda2861f9d812f24e37ac938844fbe383c243b32b9f66ae2e76be71908945085858609935085848509925085858409915085878308905087965080975085887ff0a6fc431f5bf0dd1cca93b8b65b3f72c91f0693e2c74be9243b15abb31afcc008945085858609935085848509925085858409915085878308905087965080975085887fe68db66ba891ef0cd527f09ec6fff3ec0a269cf3d891a35ec13c902f70334b4f08945085858609935085848509925085858409915085878308905087965080975085887f3a44a5b102f7883a2b8630a3cae6e6db2e6e483bb7cfeb3492cbd91793ef598e08945085858609935085848509925085858409915085878308905087965080975085887f43939fe8ef789acb33cbf129ba8a3aa1bd61510a178022a05177c9c5a1c59bf108945085858609935085848509925085858409915085878308905087965080975085887f936fe3b66dfda1bc5a7aae241b4db442858bd720c1d579c0c869f273cd55d77408945085858609935085848509925085858409915085878308905087965080975085887f3490fcaa8ffa37f35dc67ae006e81352c7103945417b8e4b142afcaefa344b8508945085858609935085848509925085858409915085878308905087965080975085887fcae66096cff344caca53ffe0e58aafeb468bd174f00d8abc425b2099c088187408945085858609935085848509925085858409915085878308905087965080975085887fc7d05783a41bc14f3c9a45384b6d5e2547c5b6a224c8316910b208f2718a70ab08945085858609935085848509925085858409915085878308905087965080975085887f5ac6b9ba94040d5692b865b6677b60ef3201b5c2121699f70beb9f9b2528a02608945085858609935085848509925085858409915085878308905087965080975085887fa902a3d4d9ecbfb9b2c76fddf780554bf93cad97b244e805d3adb94e1816290008945085858609935085848509925085858409915085878308905087965080975085887fe9df91ffeeb086a4d26041c29dac6fca1d56a4d022fe34b38831267395b98d2708945085858609935085848509925085858409915085878308905087965080975085887f862646f851d91a8840ad9ee711f12ec13b3e8f980ff5ef5ee43ca4520d57def708945085858609935085848509925085858409915085878308905087965080975085887f30b7381c9725b9db07816baf8524943a79cea135807c84cce0833485c11e0c2e08945085858609935085848509925085858409915085878308905087965080975085887f96afc10c5cedaddbda99df79387397c9be74a5b50f3a0c04ccb68d4e0f3a989f08945085858609935085848509925085858409915085878308905087965080975085887f3543da80d10da251c548776fe907c4ef89993d62e0062ae5c0496fcb851c366108945085858609935085848509925085858409915085878308905087965080975085887fe5140fe26d8b008430fccd50a68e3e11c1163d63b6d8b7cc40bc6f3c1d0b1b0608945085858609935085848509925085858409915085878308905087965080975085887ffefdf1872e4475e8bbb0ef6fab7f561bff121314695c433bd4c29ec118060c9608945085858609935085848509925085858409915085878308905087965080975085887f6bb8c9f3d57b18e002df059db1e6a5d42ad566f153f18460774f68ac2650940008945085858609935085848509925085858409915085878308905087965080975085887f5415122d50b26f4fab5784004c56cf03f128f825ad2236f4b3d51f74737bd97308945085858609935085848509925085858409915085878308905087965080975085887ee115c4a98efae6a3a5ecc873b0cef63ccd5b515710a3ab03ec52218f784dc908945085858609935085848509925085858409915085878308905087965080975085887fda7d525427bad87b88238657c21331245578bc76aa6240b7f972382537a202ab08945085858609935085848509925085858409915085878308905087965080975085887f83332e8b34505b83010270dc795290a2f515b8f89c163acecdf4799df04c62f808945085858609935085848509925085858409915085878308905087965080975085887fb09ecb6033d1a065f17a61066cd737d0c3c5873b51c3ab0a285e26939e62aa1808945085858609935085848509925085858409915085878308905087965080975085887f24e65c718938c2b937378e7435332174329730bde85a4185e37875824eb4985908945085858609935085848509925085858409915085878308905087965080975085887f68e41430ccd41cc5e92a9f9acd2e955c1385b9f5ed8d3f133d767429484a8eba08945085858609935085848509925085858409915085878308905087965080975085887fc038fe9d0125ab8be54545276f841274e414c596ed4c9eaa6919604603d1ffa908945085858609935085848509925085858409915085878308905087965080975085887f23248698612cd8e83234fcf5db9b6b225f4b0ba78d72ef13ea1edff5f0fb029808945085858609935085848509925085858409915085878308905087965080975085887fd2a9fa3d39c1ba91eefa666a1db71c6e0e4e3b707626b0197a4e59e7110cf0d408945085858609935085848509925085858409915085878308905087965080975085887fc28931ee7dfa02b62872e0d937ba3dc5c637118273a1f1f0c4fc880905c82efc08945085858609935085848509925085858409915085878308905087965080975085887f01cd399556445e3d7b201d6c5e56a5794e60be2cfd9a4643e7ead79bb4f60f7908945085858609935085848509925085858409915085878308905087965080975085887fac855cc58d5fbb0dff91a79683eb0e914c1b7d8d0a540d416838a89f83a8312f08945085858609935085848509925085858409915085878308905087965080975085887ff7798af7ccf36b836705849f7dd40328bf9346657255b431446ec75a6817181608945085858609935085848509925085858409915085878308905087965080975085887fe52a24c92d3f067bf551eeaf98c62ba525e84882d7adad835fad8de72986b2b108945085858609935085848509925085858409915085878308905087965080975085887fffc8682759a2bf1dd67c87a77c285467801f1c44fd78fa4eb5957a4832c9d72d08945085858609935085848509925085858409915085878308905087965080975085887f1482ac3e7e4f321627850d95a13942aea6d2923402b913046856ff7e8aaf9aff08945085858609935085848509925085858409915085878308905087965080975085887f17332b4c7aac2a07ccfe954de7ad22ccf6fcb4c5fa15c130ed22a40ae9398f4708945085858609935085848509925085858409915085878308905087965080975085887fd4be0546013f84a0d1e118b37589723b58e323983263616d1b036f8b3fdd858308945085858609935085848509925085858409915085878308905087965080975085887fa64ec737d31dddf939b184438ccdd3e1d3e667572857cd6c9c31a0d1d9b7b08508945085858609935085848509925085858409915085878308905087965080975085887f8ad12fbc74117cff4743d674539c86548c6758710a07a6abe3715e4b53526d3408945085858609935085848509925085858409915085878308905087965080975085887f15a16435a2300b27a337561401f06682ba85019aa0af61b264a1177d38b5c13c08945085858609935085848509925085858409915085878308905087965080975085887f22616f306e76352293a22ab6ee15509d9b108d4136b32fa7f9ed259793f392a108945085858609935085848509925085858409915085878308905087965080975085887f519727b25560caf00ce0d3f911bd4356f907160ab5186da10a629c7ccae1851e08945085858609935085848509925085858409915085878308905087965080975085887fcff39e77928ce9310118d50e29bc87e7f78b53ad51366359aa17f07902ae639208945085858609935085848509925085858409915085878308905087965080975085887f17dead3bfa1968c744118023dead77cdbee22c5b7c2414f5a6bdf82fd94cf3ad08945085858609935085848509925085858409915085878308905087965080975085887f2bef0f8b22a1cfb90100f4a552a9d02b772130123de8144a00c4d57497e1d7f408945085858609935085848509925085858409915085878308905087965080975085887fbf5188713fef90b31c35243f92cfa4331ab076e30e24b355c79b01f41d152a1108945085858609935085848509925085858409915085878308905087965080975085887f3baadd2fd92e3e12fb371be0578941dc0a108fbca0a7d81b88316fb94d6b4dfe08945085858609935085848509925085858409915085878308905087965080975085887fd4f955742e20a28d38611bf9fc4a478c97b673a7cd40d0113a58a1efe338d9aa08945085858609935085848509925085858409915085878308905087965080975085887f3c1c3fe9a5f7ccd54ad5a51a224b3f94775266d19c3733017e4920d7391ad64508945085858609935085848509925085858409915085878308905087965080975085887f6372df6148abeed66fda5461779a9651130c6c525df733852bcd929016768a7a08945085858609935085848509925085858409915085878308905087965080975085887f6d098e848fb853f95adb5a6364b5ab33c79fb08877f2cf3e0e160d9fcb3ebcc508945085858609935085848509925085858409915085878308905087965080975085887f48c5fc90f27431fabfe496dfba14bb0dba71141eb5472a365fd13023f4fe629608945085858609935085848509925085858409915085878308905087965080975085887fbb988dfc0c4dfe53999bd34840adcb63fdbf501ccd622ca2ddf5064ad8cdebf408945085858609935085848509925085858409915085878308905087965080975085887f25b068c942724c424ed5851c9575c22752c9bd25f91ebfa589de3d88ee7627f908945085858609935085848509925085858409915085878308905087965080975085887fed98a1931e361add218de11ff7879bd7114cda19c24ddbe15b3b0190ce01e1aa08945085858609935085848509925085858409915085878308905087965080975085887fc80b5a7d63f6c43542ad612023d3ffd6c684ce2eab837180addcb4decf51854408945085858609935085848509925085858409915085878308905087965080975085887fe2ef24bf47c5203118c6ff96657dd3c6fdff7212d5c798d826455de77b4b70cd08945085858609935085848509925085858409915085878308905087965080975085887f907da812fd5a8375587e4860f87691d0a8d61d454c507d09e5562e1a5d0fcc7608945085858609935085848509925085858409915085878308905087965080975085887fc459abbc62bc6070cacdff597e97990de56edc51cc6643afb0f6789fef1bad6308945085858609935085848509925085858409915085878308905087965080975085887f38d61f5e566855d70d36ef0f0f1fefcd7c829bdd60d95e0ef1fb5b98856280a408945085858609935085848509925085858409915085878308905087965080975085887f13218626665c420d3aa2b0fa49224a3dce8e08b8b56f8851bd9cb5e25cb3042d08945085858609935085848509925085858409915085878308905087965080975085887f6f685fb152dba21b4d02422e237e246df73d7d711ae6d7d33983bae0f873e31008945085858609935085848509925085858409915085878308905087965080975085887f5ade34719e2498dde70e4571c40474475a4af706a3cb82ac18a7fa44c22d1c4708945085858609935085848509925085858409915085878308905087965080975085887f8a0c3dc7a496adca059cb95d9b173812a00f3c4d435e0b9e8116e0c4b5f56acb08945085858609935085848509925085858409915085878308905087965080975085887f196bc98252f63169ed79073ee091a0e8ed0b5af51017da143940c00bdb86370908945085858609935085848509925085858409915085878308905087965080975085887fd979bf70695d93f8efb552a413701918afec9e12dfe213f4d0c27cfa68fad6c208945085858609935085848509925085858409915085878308905087965080975085887fb803072d02f54d237a3c6c4cc18eda6dce87a03c6819df54e4ed8aed6dc56d4608945085858609935085848509925085858409915085878308905087965080975085887f1efcda9d986cddcf431af4d59c6a7709d650885b7886cba70f0e7cd92b331cdc08945085858609935085848509925085858409915085878308905087965080975085887fd3ca5f7859b82ac50b63da06d43aa68a6b685f0a60397638bbea173b3f60419208945085858609935085848509925085858409915085878308905087965080975085887fa59d392c0667316ad37a06be2d51aabe9e79bdef0013bc109985648a14c7e41f08945085858609935085848509925085858409915085878308905087965080975085887fac2f5f0d2146791b396e2bed6cf15a20bc22cc4c8cf7dd4b3514ac00148dd0a708945085858609935085848509925085858409915085878308905087965080975085887f17a993a6af068d72bc36f0e814d29fef3f97d7a72aa963889b16a8457409861a08945085858609935085848509925085858409915085878308905087965080975085887f6f1bf99686550e0396f7f4e2df6fdaa090fbc272c8c76eb32a3c6791de5a07b508945085858609935085848509925085858409915085878308905087965080975085887f8234d705e1ecdc59cc6ed40749069d4b45e63deb49b5b7d7f527abd31c072b1b08945085858609935085848509925085858409915085878308905087965080975085887f6fe929a1fd6aacba5c4012c45dd727d2c816119567450003913d882cb97bc47e08945085858609935085848509925085858409915085878308905087965080975085887fad5371215f2aba49026b2e48739c11b4d8ffbb24dd4a6e41b9763862af96787a08945085858609935085848509925085858409915085878308905087965080975085887fd0e704566c49e1a11edc2c128b2e07f36dc0c755468268f8fe4c4859b9fa595b08945085858609935085848509925085858409915085878308905087965080975085887f263e1195090d00be1d8fb37de17ccf3b66d180645efa0d831865cfaa8797769e08945085858609935085848509925085858409915085878308905087965080975085887fe65c090eebde2cfa7f9c92cf75641c7683fb8e81f4a48f5b7a9c7eb26a85029f08945085858609935085848509925085858409915085878308905087965080975085887fa18971781c6855f6a9752912780bb9b719c14a677a4c6393d62d6e046b97a2ac08945085858609935085848509925085858409915085878308905087965080975085887ff6fc1ef1bca8bec055cc66edecc5dc99030fe78311a3f21d8cd624df4f89e62508945085858609935085848509925085858409915085878308905087965080975085887f824e4e2838501516d3296542cb47a59a1ca4326e947c9c874d88dccc8e37b99a08945085858609935085848509925085858409915085878308905087965080975085887f3cd5a9e7353a50e454c9c1381b556b543897cc89153c3e3749f2021d8237226308945085858609935085848509925085858409915085878308905087965080975085887fb4bcedbd54d0c917a315cc7ca785e3c5995abbeeb3deb3ebaf02c7a9bf6cc83f08945085858609935085848509925085858409915085878308905087965080975085887f1f7476211105b3039cef009c51155ae93526c53a74973ecfce40754b3df1052108945085858609935085848509925085858409915085878308905087965080975085887f58aefbd978440c94b4b9fbd36e00e6e36caeacf82b0da0a6161d34c541a5a6e308945085858609935085848509925085858409915085878308905087965080975085887fc22cd6d61be780a33c77677bc6ba40307b597ed981db57cb485313eec2a5a49708945085858609935085848509925085858409915085878308905087965080975085887fd9ffc4fe0dc5f835c8dcdc1e60b8f0b1637f32a809175371b94a057272b0748d08945085858609935085848509925085858409915085878308905087965080975085887ff6a5268541bc4c64ad0ade8f55dda3492604857a71c923662a214dd7e9c20c100894508585860993508584850992508585840991508587830890508796508097508588600008945085858609935085848509925085858409915085878308905087965080975086995087985050505050505050509250929050565b6160b88282604051602401616036929190618bc7565b6040516020818303038152906040527f9710a9d0000000000000000000000000000000000000000000000000000000007bffffffffffffffffffffffffffffffffffffffffffffffffffffffff19166020820180517bffffffffffffffffffffffffffffffffffffffffffffffffffffffff8381831617835250505050617cf4565b5050565b60007f30644e72e131a029b85045b68181585d2833e84879b9709143e1f593f000000182600060088110616119577f4e487b7100000000000000000000000000000000000000000000000000000000600052603260045260246000fd5b602002015110801561618857507f30644e72e131a029b85045b68181585d2833e84879b9709143e1f593f000000182600160088110616181577f4e487b7100000000000000000000000000000000000000000000000000000000600052603260045260246000fd5b6020020151105b80156161f157507f30644e72e131a029b85045b68181585d2833e84879b9709143e1f593f0000001826002600881106161ea577f4e487b7100000000000000000000000000000000000000000000000000000000600052603260045260246000fd5b6020020151105b801561625a57507f30644e72e131a029b85045b68181585d2833e84879b9709143e1f593f000000182600360088110616253577f4e487b7100000000000000000000000000000000000000000000000000000000600052603260045260246000fd5b6020020151105b80156162c357507f30644e72e131a029b85045b68181585d2833e84879b9709143e1f593f0000001826004600881106162bc577f4e487b7100000000000000000000000000000000000000000000000000000000600052603260045260246000fd5b6020020151105b801561632c57507f30644e72e131a029b85045b68181585d2833e84879b9709143e1f593f000000182600560088110616325577f4e487b7100000000000000000000000000000000000000000000000000000000600052603260045260246000fd5b6020020151105b801561639557507f30644e72e131a029b85045b68181585d2833e84879b9709143e1f593f00000018260066008811061638e577f4e487b7100000000000000000000000000000000000000000000000000000000600052603260045260246000fd5b6020020151105b80156163fe57507f30644e72e131a029b85045b68181585d2833e84879b9709143e1f593f0000001826007600881106163f7577f4e487b7100000000000000000000000000000000000000000000000000000000600052603260045260246000fd5b6020020151105b9050919050565b60006008828051906020012060001c901c9050919050565b6164b3816040516024016164319190618ba5565b6040516020818303038152906040527f41304fac000000000000000000000000000000000000000000000000000000007bffffffffffffffffffffffffffffffffffffffffffffffffffffffff19166020820180517bffffffffffffffffffffffffffffffffffffffffffffffffffffffff8381831617835250505050617cf4565b50565b80156165145781604660006101000a8154817cffffffffffffffffffffffffffffffffffffffffffffffffffffffffff02191690837cffffffffffffffffffffffffffffffffffffffffffffffffffffffffff16021790555061668d565b6000151560446000847cffffffffffffffffffffffffffffffffffffffffffffffffffffffffff167cffffffffffffffffffffffffffffffffffffffffffffffffffffffffff168152602001908152602001600020600001601d9054906101000a900460ff161515146165bc576040517f08c379a00000000000000000000000000000000000000000000000000000000081526004016165b390618cd7565b60405180910390fd5b8160446000604760009054906101000a90047cffffffffffffffffffffffffffffffffffffffffffffffffffffffffff167cffffffffffffffffffffffffffffffffffffffffffffffffffffffffff167cffffffffffffffffffffffffffffffffffffffffffffffffffffffffff16815260200190815260200160002060000160006101000a8154817cffffffffffffffffffffffffffffffffffffffffffffffffffffffffff02191690837cffffffffffffffffffffffffffffffffffffffffffffffffffffffffff1602179055505b6166eb6040518060400160405280600581526020017f616464456e000000000000000000000000000000000000000000000000000000815250837cffffffffffffffffffffffffffffffffffffffffffffffffffffffffff16616020565b600060446000847cffffffffffffffffffffffffffffffffffffffffffffffffffffffffff167cffffffffffffffffffffffffffffffffffffffffffffffffffffffffff16815260200190815260200160002060000160006101000a8154817cffffffffffffffffffffffffffffffffffffffffffffffffffffffffff02191690837cffffffffffffffffffffffffffffffffffffffffffffffffffffffffff160217905550600160446000847cffffffffffffffffffffffffffffffffffffffffffffffffffffffffff167cffffffffffffffffffffffffffffffffffffffffffffffffffffffffff168152602001908152602001600020600001601e6101000a81548160ff021916908315150217905550600160446000847cffffffffffffffffffffffffffffffffffffffffffffffffffffffffff167cffffffffffffffffffffffffffffffffffffffffffffffffffffffffff168152602001908152602001600020600001601d6101000a81548160ff02191690831515021790555081604760006101000a8154817cffffffffffffffffffffffffffffffffffffffffffffffffffffffffff02191690837cffffffffffffffffffffffffffffffffffffffffffffffffffffffffff160217905550604560008154809291906168d1906194e6565b9190505550817cffffffffffffffffffffffffffffffffffffffffffffffffffffffffff167fd1ca56647596090d70fa8d49bcc376b97248314e3f204c491333b3440405f58960405160405180910390a25050565b61692e617e54565b60405180604001604052807f2aeb4aafb1c7a3e1445536842c9d8225ebd94a09d15cda4e17d944add94ede4781526020017f03ab549390940a14a8d8d3fe3f6ecb68195432778936e617d914f14d1df035798152508160000181905250604051806040016040528060405180604001604052807f2fd95a27d1b9d966bb3ae847506bfc2ffa3e5c945f4502cf0f10dfd658960f9481526020017f167a6701c17cc2734e919e79f59f110b511f1ff811a06fd840949416d10ddafc815250815260200160405180604001604052807f02b4c85ab8a8fbe2d979af025230a96c10e07c5e4163fc7d633ba083fc44f9ee81526020017f303ca2757a59cbf0e0bbdb8f1712f29e3e804cd258e18aca0da7f6bd7136e8068152508152508160200181905250604051806040016040528060405180604001604052807f0fa9bb662fc3acd975ee36a6ea2c0c709c3a75303345702acaf0d845428f932b81526020017f2f2d53e983b994de7cac84d565b30b457f11273ff5a898ce80c9fd66bdf9e075815250815260200160405180604001604052807f2d1f4da8e0f4d49c61fd3ec22a104df1a5159b1e329b3506354559ebafff080181526020017f2ff6e55d56bb54b32d728131475c6ca6d7a92cc6b82bfcd59311c765e7edcb458152508152508160400181905250604051806040016040528060405180604001604052807f23511787419db90d2bad3c8bfbac9f4398c26cd6cd34bb5276c2cd94b7b7d26f81526020017f17e0c1843c4ec925cf3d09b051978f5f23d1d166117d572f38dbd874126dead5815250815260200160405180604001604052807f06e374c176a74bf3d0c0329b9d03b53693d77f928cd1fc4c6f6053ec00f2ca2581526020017f2d832fd3933c30f159e18dbe33bc7496240cc22bcece79faf02388e5bd366a21815250815250816060018190525060405180604001604052807f2174881f2cb4aee5292b2f603cb183bf301d263b1a11c7ec22585fec00ecce9881526020017e3e5e75ec133240c640391a4cb8a18e2fbc4f6336e6b6693643735d5c6230878152508160800151600060058110616c6c577f4e487b7100000000000000000000000000000000000000000000000000000000600052603260045260246000fd5b602002018190525060405180604001604052807f1664a7bd963677623594fb978543aceb4fc3576b0f976c519a22bdbca62226c381526020017f0e28ccde23de1c2f78b1d8d35660f7014f391e354756aad1f5f75d159cfab6528152508160800151600160058110616d07577f4e487b7100000000000000000000000000000000000000000000000000000000600052603260045260246000fd5b602002018190525060405180604001604052807f17439f723025a06c170891f82daf6fbf4fe30c3824d1b0820262e7ee632bd62d81526020017f0a74bd079e9f728a7c5dc31ea3c7c43e978be8921a351b9de0df3cfb2f6018558152508160800151600260058110616da2577f4e487b7100000000000000000000000000000000000000000000000000000000600052603260045260246000fd5b602002018190525060405180604001604052807f274660c30271883b25933fc39f835337bafcb604536af04f6264fe96a7b32d5181526020017f27e6947d2ab1e5b87fa5e0b4fe610ee7a623bdf4e0225e249c6a3446af5085b58152508160800151600360058110616e3d577f4e487b7100000000000000000000000000000000000000000000000000000000600052603260045260246000fd5b602002018190525060405180604001604052807f108ba5cc069e7368567294f740794f36d4c7d99d40dd667fe5dd544967bdc9a981526020017f2175417a3760110f546c7f7f30d3195d766cbe31f34013b45322ff7fd974635c8152508160800151600460058110616ed8577f4e487b7100000000000000000000000000000000000000000000000000000000600052603260045260246000fd5b602002018190525090565b616eeb617ea1565b616ef3617ebb565b836000015181600060038110616f32577f4e487b7100000000000000000000000000000000000000000000000000000000600052603260045260246000fd5b602002018181525050836020015181600160038110616f7a577f4e487b7100000000000000000000000000000000000000000000000000000000600052603260045260246000fd5b6020020181815250508281600260038110616fbe577f4e487b7100000000000000000000000000000000000000000000000000000000600052603260045260246000fd5b602002018181525050600060608360808460076107d05a03fa90508060008114616fe757616fe9565bfe5b508061702a576040517f08c379a000000000000000000000000000000000000000000000000000000000815260040161702190618d57565b60405180910390fd5b505092915050565b61703a617ea1565b617042617edd565b836000015181600060048110617081577f4e487b7100000000000000000000000000000000000000000000000000000000600052603260045260246000fd5b6020020181815250508360200151816001600481106170c9577f4e487b7100000000000000000000000000000000000000000000000000000000600052603260045260246000fd5b602002018181525050826000015181600260048110617111577f4e487b7100000000000000000000000000000000000000000000000000000000600052603260045260246000fd5b602002018181525050826020015181600360048110617159577f4e487b7100000000000000000000000000000000000000000000000000000000600052603260045260246000fd5b602002018181525050600060608360c08460066107d05a03fa9050806000811461718257617184565bfe5b50806171c5576040517f08c379a00000000000000000000000000000000000000000000000000000000081526004016171bc90618f17565b60405180910390fd5b505092915050565b6171d5617ea1565b600082600001511480156171ed575060008260200151145b156172105760405180604001604052806000815260200160008152509050617286565b6040518060400160405280836000015181526020017f30644e72e131a029b85045b68181585d97816a916871ca8d3c208c16d87cfd4784602001516172559190619559565b7f30644e72e131a029b85045b68181585d97816a916871ca8d3c208c16d87cfd4761728091906193c1565b81525090505b919050565b60008060405180608001604052808b8152602001898152602001878152602001858152509050600060405180608001604052808b815260200189815260200187815260200185815250905060006018905060008167ffffffffffffffff81111561731e577f4e487b7100000000000000000000000000000000000000000000000000000000600052604160045260246000fd5b60405190808252806020026020018201604052801561734c5781602001602082028036833780820191505090505b50905060005b60048110156177ea57600060068261736a9190619367565b90508582600481106173a5577f4e487b7100000000000000000000000000000000000000000000000000000000600052603260045260246000fd5b602002015160000151836000836173bc91906191a0565b815181106173f3577f4e487b7100000000000000000000000000000000000000000000000000000000600052603260045260246000fd5b602002602001018181525050858260048110617438577f4e487b7100000000000000000000000000000000000000000000000000000000600052603260045260246000fd5b6020020151602001518360018361744f91906191a0565b81518110617486577f4e487b7100000000000000000000000000000000000000000000000000000000600052603260045260246000fd5b6020026020010181815250508482600481106174cb577f4e487b7100000000000000000000000000000000000000000000000000000000600052603260045260246000fd5b60200201516000015160006002811061750d577f4e487b7100000000000000000000000000000000000000000000000000000000600052603260045260246000fd5b60200201518360028361752091906191a0565b81518110617557577f4e487b7100000000000000000000000000000000000000000000000000000000600052603260045260246000fd5b60200260200101818152505084826004811061759c577f4e487b7100000000000000000000000000000000000000000000000000000000600052603260045260246000fd5b6020020151600001516001600281106175de577f4e487b7100000000000000000000000000000000000000000000000000000000600052603260045260246000fd5b6020020151836003836175f191906191a0565b81518110617628577f4e487b7100000000000000000000000000000000000000000000000000000000600052603260045260246000fd5b60200260200101818152505084826004811061766d577f4e487b7100000000000000000000000000000000000000000000000000000000600052603260045260246000fd5b6020020151602001516000600281106176af577f4e487b7100000000000000000000000000000000000000000000000000000000600052603260045260246000fd5b6020020151836004836176c291906191a0565b815181106176f9577f4e487b7100000000000000000000000000000000000000000000000000000000600052603260045260246000fd5b60200260200101818152505084826004811061773e577f4e487b7100000000000000000000000000000000000000000000000000000000600052603260045260246000fd5b602002015160200151600160028110617780577f4e487b7100000000000000000000000000000000000000000000000000000000600052603260045260246000fd5b60200201518360058361779391906191a0565b815181106177ca577f4e487b7100000000000000000000000000000000000000000000000000000000600052603260045260246000fd5b6020026020010181815250505080806177e2906194e6565b915050617352565b506177f3617eff565b6000602082602086026020860160086107d05a03fa905080600081146178185761781a565bfe5b508061785b576040517f08c379a000000000000000000000000000000000000000000000000000000000815260040161785290618f77565b60405180910390fd5b600082600060018110617897577f4e487b7100000000000000000000000000000000000000000000000000000000600052603260045260246000fd5b60200201511415965050505050505098975050505050505050565b60006178f36040518060400160405280600c81526020017f696e736572744c6561663a20000000000000000000000000000000000000000081525083616020565b7f30644e72e131a029b85045b68181585d2833e84879b9709143e1f593f00000018210617955576040517f08c379a000000000000000000000000000000000000000000000000000000000815260040161794c90618e77565b60405180910390fd5b6000600154905060008060149054906101000a900460ff1660ff16905080600261797f9190619249565b82106179c0576040517f08c379a00000000000000000000000000000000000000000000000000000000081526004016179b790618cf7565b60405180910390fd5b600084905060008060005b600060149054906101000a900460ff1660ff168160ff161015617af45760006002876179f79190619559565b1415617a895783925060038160ff1660208110617a3d577f4e487b7100000000000000000000000000000000000000000000000000000000600052603260045260246000fd5b015491508360238260ff1660208110617a7f577f4e487b7100000000000000000000000000000000000000000000000000000000600052603260045260246000fd5b0181905550617ace565b60238160ff1660208110617ac6577f4e487b7100000000000000000000000000000000000000000000000000000000600052603260045260246000fd5b015492508391505b617ad88383617d1d565b9350600186901c95508080617aec9061952f565b9150506179cb565b5082600281905550617b3d6040518060400160405280601181526020017f696e736572744c65616620524f4f543a20000000000000000000000000000000815250600254616020565b600160436000600254815260200190815260200160002060006101000a81548160ff021916908315150217905550600060015490506001806000828254617b8491906191a0565b9250508190555080887fe6f49fa84abd31919f446b22a52bb3ceae774b4b87f062f022fec45c46f4f45860405160405180910390a3859650505050505050919050565b600073ffffffffffffffffffffffffffffffffffffffff168173ffffffffffffffffffffffffffffffffffffffff161415617c37576040517f08c379a0000000000000000000000000000000000000000000000000000000008152600401617c2e90618c77565b60405180910390fd5b8073ffffffffffffffffffffffffffffffffffffffff1660008054906101000a900473ffffffffffffffffffffffffffffffffffffffff1673ffffffffffffffffffffffffffffffffffffffff167f8be0079c531659141344cd1fd0a4f28419497f9722a3daafe3b4186f6b6457e060405160405180910390a3806000806101000a81548173ffffffffffffffffffffffffffffffffffffffff021916908373ffffffffffffffffffffffffffffffffffffffff16021790555050565b60008151905060006a636f6e736f6c652e6c6f679050602083016000808483855afa5050505050565b6000808390506000617d308260006125c4565b80925081935050507f30644e72e131a029b85045b68181585d2833e84879b9709143e1f593f000000180617d8d577f4e487b7100000000000000000000000000000000000000000000000000000000600052601260045260246000fd5b8483089150617d9c82826125c4565b8092508193505050819250505092915050565b604051806101000160405280600890602082028036833780820191505090505090565b6040518060600160405280617de5617ea1565b8152602001617df2617f21565b8152602001617dff617ea1565b81525090565b6040518060400160405280600290602082028036833780820191505090505090565b60405180604001604052806002905b617e3e617e05565b815260200190600190039081617e365790505090565b6040518060a00160405280617e67617ea1565b8152602001617e74617f21565b8152602001617e81617f21565b8152602001617e8e617f21565b8152602001617e9b617f47565b81525090565b604051806040016040528060008152602001600081525090565b6040518060600160405280600390602082028036833780820191505090505090565b6040518060800160405280600490602082028036833780820191505090505090565b6040518060200160405280600190602082028036833780820191505090505090565b6040518060400160405280617f34617e05565b8152602001617f41617e05565b81525090565b6040518060a001604052806005905b617f5e617ea1565b815260200190600190039081617f565790505090565b6000617f87617f8284619029565b619004565b90508082856040860282011115617f9d57600080fd5b60005b85811015617fcd5781617fb3888261817a565b845260208401935060408301925050600181019050617fa0565b5050509392505050565b6000617fea617fe58461904f565b619004565b9050808285602086028201111561800057600080fd5b60005b8581101561803057816180168882618243565b845260208401935060208301925050600181019050618003565b5050509392505050565b600061804d61804884619075565b619004565b9050808285602086028201111561806357600080fd5b60005b8581101561809357816180798882618243565b845260208401935060208301925050600181019050618066565b5050509392505050565b60006180b06180ab8461909b565b619004565b905080828560208602820111156180c657600080fd5b60005b858110156180f657816180dc8882618243565b8452602084019350602083019250506001810190506180c9565b5050509392505050565b600061811361810e846190c1565b619004565b90508281526020810184848401111561812b57600080fd5b618136848285619473565b509392505050565b60008135905061814d81619c30565b92915050565b600082601f83011261816457600080fd5b6002618171848285617f74565b91505092915050565b600082601f83011261818b57600080fd5b6002618198848285617fd7565b91505092915050565b600082601f8301126181b257600080fd5b60046181bf84828561803a565b91505092915050565b600082601f8301126181d957600080fd5b60086181e684828561809d565b91505092915050565b6000813590506181fe81619c47565b92915050565b600082601f83011261821557600080fd5b8135618225848260208601618100565b91505092915050565b60008135905061823d81619c5e565b92915050565b60008135905061825281619c75565b92915050565b60006020828403121561826a57600080fd5b60006182788482850161813e565b91505092915050565b6000806000610100848603121561829757600080fd5b60006182a58682870161817a565b93505060406182b686828701618153565b92505060c06182c78682870161817a565b9150509250925092565b60008060008061018085870312156182e857600080fd5b60006182f68782880161817a565b945050604061830787828801618153565b93505060c06183188782880161817a565b92505061010061832a878288016181a1565b91505092959194509250565b6000610100828403121561834957600080fd5b6000618357848285016181c8565b91505092915050565b60006020828403121561837257600080fd5b6000618380848285016181ef565b91505092915050565b600080600080600061018086880312156183a257600080fd5b600086013567ffffffffffffffff8111156183bc57600080fd5b6183c888828901618204565b95505060206183d9888289016181c8565b9450506101206183eb88828901618243565b9350506101406183fd88828901618243565b92505061016061840f8882890161822e565b9150509295509295909350565b6000806000806000806101a0878903121561843657600080fd5b600087013567ffffffffffffffff81111561845057600080fd5b61845c89828a01618204565b965050602061846d89828a016181c8565b95505061012061847f89828a01618243565b94505061014061849189828a01618243565b9350506101606184a389828a01618243565b9250506101806184b589828a0161822e565b9150509295509295509295565b6000602082840312156184d457600080fd5b60006184e28482850161822e565b91505092915050565b6000602082840312156184fd57600080fd5b600061850b84828501618243565b91505092915050565b600061852083836185aa565b60408301905092915050565b60006185388383618afd565b60208301905092915050565b61854d816193f5565b82525050565b61855c81619110565b6185668184619163565b9250618571826190f2565b8060005b838110156185a25781516185898782618514565b96506185948361913c565b925050600181019050618575565b505050505050565b6185b38161911b565b6185bd818461916e565b92506185c8826190fc565b8060005b838110156185f95781516185e0878261852c565b96506185eb83619149565b9250506001810190506185cc565b505050505050565b61860a8161911b565b6186148184619179565b925061861f826190fc565b8060005b83811015618650578151618637878261852c565b965061864283619149565b925050600181019050618623565b505050505050565b61866181619126565b61866b8184619184565b925061867682619106565b8060005b838110156186a757815161868e878261852c565b965061869983619156565b92505060018101905061867a565b505050505050565b6186b881619407565b82525050565b60006186c982619131565b6186d3818561918f565b93506186e3818560208601619482565b6186ec81619617565b840191505092915050565b600061870460188361918f565b915061870f82619635565b602082019050919050565b600061872760238361918f565b91506187328261965e565b604082019050919050565b600061874a60178361918f565b9150618755826196ad565b602082019050919050565b600061876d60188361918f565b9150618778826196d6565b602082019050919050565b600061879060268361918f565b915061879b826196ff565b604082019050919050565b60006187b360318361918f565b91506187be8261974e565b604082019050919050565b60006187d660188361918f565b91506187e18261979d565b602082019050919050565b60006187f9601e8361918f565b9150618804826197c6565b602082019050919050565b600061881c60238361918f565b9150618827826197ef565b604082019050919050565b600061883f60348361918f565b915061884a8261983e565b604082019050919050565b600061886260168361918f565b915061886d8261988d565b602082019050919050565b600061888560128361918f565b9150618890826198b6565b602082019050919050565b60006188a860178361918f565b91506188b3826198df565b602082019050919050565b60006188cb60178361918f565b91506188d682619908565b602082019050919050565b60006188ee601f8361918f565b91506188f982619931565b602082019050919050565b600061891160268361918f565b915061891c8261995a565b604082019050919050565b600061893460208361918f565b915061893f826199a9565b602082019050919050565b6000618957601c8361918f565b9150618962826199d2565b602082019050919050565b600061897a60188361918f565b9150618985826199fb565b602082019050919050565b600061899d601e8361918f565b91506189a882619a24565b602082019050919050565b60006189c060478361918f565b91506189cb82619a4d565b606082019050919050565b60006189e3600d8361918f565b91506189ee82619ac2565b602082019050919050565b6000618a0660248361918f565b9150618a1182619aeb565b604082019050919050565b6000618a29601a8361918f565b9150618a3482619b3a565b602082019050919050565b6000618a4c60178361918f565b9150618a5782619b63565b602082019050919050565b6000618a6f60128361918f565b9150618a7a82619b8c565b602082019050919050565b6000618a9260178361918f565b9150618a9d82619bb5565b602082019050919050565b6000618ab5601b8361918f565b9150618ac082619bde565b602082019050919050565b6000618ad860158361918f565b9150618ae382619c07565b602082019050919050565b618af781619433565b82525050565b618b068161945c565b82525050565b618b158161945c565b82525050565b6000602082019050618b306000830184618544565b92915050565b600061010082019050618b4c6000830186618601565b618b596040830185618553565b618b6660c0830184618601565b949350505050565b600061010082019050618b846000830184618658565b92915050565b6000602082019050618b9f60008301846186af565b92915050565b60006020820190508181036000830152618bbf81846186be565b905092915050565b60006040820190508181036000830152618be181856186be565b9050618bf06020830184618b0c565b9392505050565b60006020820190508181036000830152618c10816186f7565b9050919050565b60006020820190508181036000830152618c308161871a565b9050919050565b60006020820190508181036000830152618c508161873d565b9050919050565b60006020820190508181036000830152618c7081618760565b9050919050565b60006020820190508181036000830152618c9081618783565b9050919050565b60006020820190508181036000830152618cb0816187a6565b9050919050565b60006020820190508181036000830152618cd0816187c9565b9050919050565b60006020820190508181036000830152618cf0816187ec565b9050919050565b60006020820190508181036000830152618d108161880f565b9050919050565b60006020820190508181036000830152618d3081618832565b9050919050565b60006020820190508181036000830152618d5081618855565b9050919050565b60006020820190508181036000830152618d7081618878565b9050919050565b60006020820190508181036000830152618d908161889b565b9050919050565b60006020820190508181036000830152618db0816188be565b9050919050565b60006020820190508181036000830152618dd0816188e1565b9050919050565b60006020820190508181036000830152618df081618904565b9050919050565b60006020820190508181036000830152618e1081618927565b9050919050565b60006020820190508181036000830152618e308161894a565b9050919050565b60006020820190508181036000830152618e508161896d565b9050919050565b60006020820190508181036000830152618e7081618990565b9050919050565b60006020820190508181036000830152618e90816189b3565b9050919050565b60006020820190508181036000830152618eb0816189d6565b9050919050565b60006020820190508181036000830152618ed0816189f9565b9050919050565b60006020820190508181036000830152618ef081618a1c565b9050919050565b60006020820190508181036000830152618f1081618a3f565b9050919050565b60006020820190508181036000830152618f3081618a62565b9050919050565b60006020820190508181036000830152618f5081618a85565b9050919050565b60006020820190508181036000830152618f7081618aa8565b9050919050565b60006020820190508181036000830152618f9081618acb565b9050919050565b6000602082019050618fac6000830184618aee565b92915050565b6000606082019050618fc76000830186618aee565b618fd460208301856186af565b618fe160408301846186af565b949350505050565b6000602082019050618ffe6000830184618b0c565b92915050565b600061900e61901f565b905061901a82826194b5565b919050565b6000604051905090565b600067ffffffffffffffff821115619044576190436195e8565b5b602082029050919050565b600067ffffffffffffffff82111561906a576190696195e8565b5b602082029050919050565b600067ffffffffffffffff8211156190905761908f6195e8565b5b602082029050919050565b600067ffffffffffffffff8211156190b6576190b56195e8565b5b602082029050919050565b600067ffffffffffffffff8211156190dc576190db6195e8565b5b6190e582619617565b9050602081019050919050565b6000819050919050565b6000819050919050565b6000819050919050565b600060029050919050565b600060029050919050565b600060089050919050565b600081519050919050565b6000602082019050919050565b6000602082019050919050565b6000602082019050919050565b600081905092915050565b600081905092915050565b600081905092915050565b600081905092915050565b600082825260208201905092915050565b60006191ab8261945c565b91506191b68361945c565b9250827fffffffffffffffffffffffffffffffffffffffffffffffffffffffffffffffff038211156191eb576191ea61958a565b5b828201905092915050565b6000808291508390505b60018511156192405780860481111561921c5761921b61958a565b5b600185161561922b5780820291505b808102905061923985619628565b9450619200565b94509492505050565b60006192548261945c565b915061925f8361945c565b925061928c7fffffffffffffffffffffffffffffffffffffffffffffffffffffffffffffffff8484619294565b905092915050565b6000826192a45760019050619360565b816192b25760009050619360565b81600181146192c857600281146192d257619301565b6001915050619360565b60ff8411156192e4576192e361958a565b5b8360020a9150848211156192fb576192fa61958a565b5b50619360565b5060208310610133831016604e8410600b84101617156193365782820a9050838111156193315761933061958a565b5b619360565b61934384848460016191f6565b9250905081840481111561935a5761935961958a565b5b81810290505b9392505050565b60006193728261945c565b915061937d8361945c565b9250817fffffffffffffffffffffffffffffffffffffffffffffffffffffffffffffffff04831182151516156193b6576193b561958a565b5b828202905092915050565b60006193cc8261945c565b91506193d78361945c565b9250828210156193ea576193e961958a565b5b828203905092915050565b600061940082619413565b9050919050565b60008115159050919050565b600073ffffffffffffffffffffffffffffffffffffffff82169050919050565b60007cffffffffffffffffffffffffffffffffffffffffffffffffffffffffff82169050919050565b6000819050919050565b600060ff82169050919050565b82818337600083830152505050565b60005b838110156194a0578082015181840152602081019050619485565b838111156194af576000848401525b50505050565b6194be82619617565b810181811067ffffffffffffffff821117156194dd576194dc6195e8565b5b80604052505050565b60006194f18261945c565b91507fffffffffffffffffffffffffffffffffffffffffffffffffffffffffffffffff8214156195245761952361958a565b5b600182019050919050565b600061953a82619466565b915060ff82141561954e5761954d61958a565b5b600182019050919050565b60006195648261945c565b915061956f8361945c565b92508261957f5761957e6195b9565b5b828206905092915050565b7f4e487b7100000000000000000000000000000000000000000000000000000000600052601160045260246000fd5b7f4e487b7100000000000000000000000000000000000000000000000000000000600052601260045260246000fd5b7f4e487b7100000000000000000000000000000000000000000000000000000000600052604160045260246000fd5b6000601f19601f8301169050919050565b60008160011c9050919050565b7f76657269666965722d6258302d6774652d7072696d652d710000000000000000600082015250565b7f63616e2774206265206e6f7468696e672d75702d6d792d736c656576652d766160008201527f6c75650000000000000000000000000000000000000000000000000000000000602082015250565b7f76657269666965722d61582d6774652d7072696d652d71000000000000000000600082015250565b7f76657269666965722d6259312d6774652d7072696d652d710000000000000000600082015250565b7f4f776e61626c653a206e6577206f776e657220697320746865207a65726f206160008201527f6464726573730000000000000000000000000000000000000000000000000000602082015250565b7f6e756c6c6966696572732068617368206d757374206265206c7420746865207360008201527f6e61726b207363616c6172206669656c64000000000000000000000000000000602082015250565b7f76657269666965722d6258312d6774652d7072696d652d710000000000000000600082015250565b7f65787465726e616c206e756c6c696669657220616c7265616479207365740000600082015250565b7f496e6372656d656e74616c4d65726b6c65547265653a2074726565206973206660008201527f756c6c0000000000000000000000000000000000000000000000000000000000602082015250565b7f6e6f2065787465726e616c206e756c6c6966696572206578697374732061667460008201527f65722074686520737065636966696564206f6e65000000000000000000000000602082015250565b7f6e756c6c696669657220616c7265616479207365656e00000000000000000000600082015250565b7f70616972696e672d6d756c2d6661696c65640000000000000000000000000000600082015250565b7f76657269666965722d63592d6774652d7072696d652d71000000000000000000600082015250565b7f53656d6170686f72653a726f6f74206e6f74207365656e000000000000000000600082015250565b7f76657269666965722d6774652d736e61726b2d7363616c61722d6669656c6400600082015250565b7f65787465726e616c206e756c6c696669657220616c726561647920646561637460008201527f6976617465640000000000000000000000000000000000000000000000000000602082015250565b7f4f776e61626c653a2063616c6c6572206973206e6f7420746865206f776e6572600082015250565b7f65787465726e616c206e756c6c6966696572206e6f7420666f756e6400000000600082015250565b7f76657269666965722d6259302d6774652d7072696d652d710000000000000000600082015250565b7f696e76616c6964206669656c6420656c656d656e7420696e2070726f6f660000600082015250565b7f496e6372656d656e74616c4d65726b6c65547265653a20696e736572744c656160008201527f6620617267756d656e74206d757374206265203c20534e41524b5f5343414c4160208201527f525f4649454c4400000000000000000000000000000000000000000000000000604082015250565b7f696e76616c69642070726f6f6600000000000000000000000000000000000000600082015250565b7f65787465726e616c206e756c6c696669657220697320616c726561647920616360008201527f7469766500000000000000000000000000000000000000000000000000000000602082015250565b7f6e6f20737563682065787465726e616c206e756c6c6966696572000000000000600082015250565b7f76657269666965722d61592d6774652d7072696d652d71000000000000000000600082015250565b7f70616972696e672d6164642d6661696c65640000000000000000000000000000600082015250565b7f76657269666965722d63582d6774652d7072696d652d71000000000000000000600082015250565b7f62726f616463617374207065726d697373696f6e2064656e6965640000000000600082015250565b7f70616972696e672d6f70636f64652d6661696c65640000000000000000000000600082015250565b619c39816193f5565b8114619c4457600080fd5b50565b619c5081619407565b8114619c5b57600080fd5b50565b619c6781619433565b8114619c7257600080fd5b50565b619c7e8161945c565b8114619c8957600080fd5b5056fe53656d6170686f72653a636f6d706c65746541646445787465726e616c4e756c6c6966696572a2646970667358221220cb6406ac1c1b065e118e20fa50417a2afbabe45926490ec56c95a248807e62d964736f6c63430008040033",
  "linkReferences": {},
  "deployedLinkReferences": {}
}