{
  "_format": "hh-sol-artifact-1",
  "contractName": "Semaphore",
  "sourceName": "contracts/semaphore/Semaphore.sol",
  "abi": [
    {
      "inputs": [
        {
          "internalType": "uint8",
          "name": "_treeLevels",
          "type": "uint8"
        },
        {
          "internalType": "uint232",
          "name": "_firstExternalNullifier",
          "type": "uint232"
        }
      ],
      "stateMutability": "nonpayable",
      "type": "constructor"
    },
    {
      "anonymous": false,
      "inputs": [
        {
          "indexed": true,
          "internalType": "uint232",
          "name": "externalNullifier",
          "type": "uint232"
        }
      ],
      "name": "ExternalNullifierAdd",
      "type": "event"
    },
    {
      "anonymous": false,
      "inputs": [
        {
          "indexed": true,
          "internalType": "uint232",
          "name": "externalNullifier",
          "type": "uint232"
        },
        {
          "indexed": true,
          "internalType": "bool",
          "name": "active",
          "type": "bool"
        }
      ],
      "name": "ExternalNullifierChangeStatus",
      "type": "event"
    },
    {
      "anonymous": false,
      "inputs": [
        {
          "indexed": true,
          "internalType": "uint256",
          "name": "leaf",
          "type": "uint256"
        },
        {
          "indexed": true,
          "internalType": "uint256",
          "name": "leafIndex",
          "type": "uint256"
        }
      ],
      "name": "LeafInsertion",
      "type": "event"
    },
    {
      "anonymous": false,
      "inputs": [
        {
          "indexed": true,
          "internalType": "address",
          "name": "previousOwner",
          "type": "address"
        },
        {
          "indexed": true,
          "internalType": "address",
          "name": "newOwner",
          "type": "address"
        }
      ],
      "name": "OwnershipTransferred",
      "type": "event"
    },
    {
      "anonymous": false,
      "inputs": [
        {
          "indexed": true,
          "internalType": "bool",
          "name": "newPermission",
          "type": "bool"
        }
      ],
      "name": "PermissionSet",
      "type": "event"
    },
    {
      "inputs": [],
      "name": "NOTHING_UP_MY_SLEEVE_ZERO",
      "outputs": [
        {
          "internalType": "uint256",
          "name": "",
          "type": "uint256"
        }
      ],
      "stateMutability": "view",
      "type": "function"
    },
    {
      "inputs": [
        {
          "internalType": "uint232",
          "name": "_externalNullifier",
          "type": "uint232"
        }
      ],
      "name": "addExternalNullifier",
      "outputs": [],
      "stateMutability": "nonpayable",
      "type": "function"
    },
    {
      "inputs": [
        {
          "internalType": "bytes",
          "name": "_signal",
          "type": "bytes"
        },
        {
          "internalType": "uint256[8]",
          "name": "_proof",
          "type": "uint256[8]"
        },
        {
          "internalType": "uint256",
          "name": "_root",
          "type": "uint256"
        },
        {
          "internalType": "uint256",
          "name": "_nullifiersHash",
          "type": "uint256"
        },
        {
          "internalType": "uint232",
          "name": "_externalNullifier",
          "type": "uint232"
        }
      ],
      "name": "broadcastSignal",
      "outputs": [],
      "stateMutability": "nonpayable",
      "type": "function"
    },
    {
      "inputs": [
        {
          "internalType": "uint232",
          "name": "_externalNullifier",
          "type": "uint232"
        }
      ],
      "name": "deactivateExternalNullifier",
      "outputs": [],
      "stateMutability": "nonpayable",
      "type": "function"
    },
    {
      "inputs": [
        {
          "internalType": "uint232",
          "name": "",
          "type": "uint232"
        }
      ],
      "name": "externalNullifierLinkedList",
      "outputs": [
        {
          "internalType": "uint232",
          "name": "next",
          "type": "uint232"
        },
        {
          "internalType": "bool",
          "name": "exists",
          "type": "bool"
        },
        {
          "internalType": "bool",
          "name": "isActive",
          "type": "bool"
        }
      ],
      "stateMutability": "view",
      "type": "function"
    },
    {
      "inputs": [],
      "name": "firstExternalNullifier",
      "outputs": [
        {
          "internalType": "uint232",
          "name": "",
          "type": "uint232"
        }
      ],
      "stateMutability": "view",
      "type": "function"
    },
    {
      "inputs": [
        {
          "internalType": "uint232",
          "name": "_externalNullifier",
          "type": "uint232"
        }
      ],
      "name": "getNextExternalNullifier",
      "outputs": [
        {
          "internalType": "uint232",
          "name": "",
          "type": "uint232"
        }
      ],
      "stateMutability": "view",
      "type": "function"
    },
    {
      "inputs": [],
      "name": "getNumIdentityCommitments",
      "outputs": [
        {
          "internalType": "uint256",
          "name": "",
          "type": "uint256"
        }
      ],
      "stateMutability": "view",
      "type": "function"
    },
    {
      "inputs": [
        {
          "internalType": "uint256[]",
          "name": "array",
          "type": "uint256[]"
        }
      ],
      "name": "hash11",
      "outputs": [
        {
          "internalType": "uint256",
          "name": "",
          "type": "uint256"
        }
      ],
      "stateMutability": "pure",
      "type": "function"
    },
    {
      "inputs": [
        {
          "internalType": "uint256[5]",
          "name": "array",
          "type": "uint256[5]"
        }
      ],
      "name": "hash5",
      "outputs": [
        {
          "internalType": "uint256",
          "name": "",
          "type": "uint256"
        }
      ],
      "stateMutability": "pure",
      "type": "function"
    },
    {
      "inputs": [
        {
          "internalType": "uint256",
          "name": "_left",
          "type": "uint256"
        },
        {
          "internalType": "uint256",
          "name": "_right",
          "type": "uint256"
        }
      ],
      "name": "hashLeftRight",
      "outputs": [
        {
          "internalType": "uint256",
          "name": "",
          "type": "uint256"
        }
      ],
      "stateMutability": "pure",
      "type": "function"
    },
    {
      "inputs": [
        {
          "internalType": "uint256",
          "name": "_identityCommitment",
          "type": "uint256"
        }
      ],
      "name": "insertIdentity",
      "outputs": [
        {
          "internalType": "uint256",
          "name": "",
          "type": "uint256"
        }
      ],
      "stateMutability": "nonpayable",
      "type": "function"
    },
    {
      "inputs": [
        {
          "internalType": "uint256",
          "name": "_leaf",
          "type": "uint256"
        }
      ],
      "name": "insertLeaf",
      "outputs": [
        {
          "internalType": "uint256",
          "name": "",
          "type": "uint256"
        }
      ],
      "stateMutability": "nonpayable",
      "type": "function"
    },
    {
      "inputs": [],
      "name": "isBroadcastPermissioned",
      "outputs": [
        {
          "internalType": "bool",
          "name": "",
          "type": "bool"
        }
      ],
      "stateMutability": "view",
      "type": "function"
    },
    {
      "inputs": [
        {
          "internalType": "uint232",
          "name": "_externalNullifier",
          "type": "uint232"
        }
      ],
      "name": "isExternalNullifierActive",
      "outputs": [
        {
          "internalType": "bool",
          "name": "",
          "type": "bool"
        }
      ],
      "stateMutability": "view",
      "type": "function"
    },
    {
      "inputs": [],
      "name": "isOwner",
      "outputs": [
        {
          "internalType": "bool",
          "name": "",
          "type": "bool"
        }
      ],
      "stateMutability": "view",
      "type": "function"
    },
    {
      "inputs": [],
      "name": "lastExternalNullifier",
      "outputs": [
        {
          "internalType": "uint232",
          "name": "",
          "type": "uint232"
        }
      ],
      "stateMutability": "view",
      "type": "function"
    },
    {
      "inputs": [
        {
          "internalType": "uint256",
          "name": "",
          "type": "uint256"
        }
      ],
      "name": "nullifierHashHistory",
      "outputs": [
        {
          "internalType": "bool",
          "name": "",
          "type": "bool"
        }
      ],
      "stateMutability": "view",
      "type": "function"
    },
    {
      "inputs": [],
      "name": "numExternalNullifiers",
      "outputs": [
        {
          "internalType": "uint256",
          "name": "",
          "type": "uint256"
        }
      ],
      "stateMutability": "view",
      "type": "function"
    },
    {
      "inputs": [],
      "name": "owner",
      "outputs": [
        {
          "internalType": "address",
          "name": "",
          "type": "address"
        }
      ],
      "stateMutability": "view",
      "type": "function"
    },
    {
      "inputs": [
        {
          "internalType": "uint256[2]",
          "name": "_a",
          "type": "uint256[2]"
        },
        {
          "internalType": "uint256[2][2]",
          "name": "_b",
          "type": "uint256[2][2]"
        },
        {
          "internalType": "uint256[2]",
          "name": "_c",
          "type": "uint256[2]"
        }
      ],
      "name": "packProof",
      "outputs": [
        {
          "internalType": "uint256[8]",
          "name": "",
          "type": "uint256[8]"
        }
      ],
      "stateMutability": "pure",
      "type": "function"
    },
    {
      "inputs": [
        {
          "internalType": "bytes",
          "name": "_signal",
          "type": "bytes"
        },
        {
          "internalType": "uint256[8]",
          "name": "_proof",
          "type": "uint256[8]"
        },
        {
          "internalType": "uint256",
          "name": "_root",
          "type": "uint256"
        },
        {
          "internalType": "uint256",
          "name": "_nullifiersHash",
          "type": "uint256"
        },
        {
          "internalType": "uint256",
          "name": "_signalHash",
          "type": "uint256"
        },
        {
          "internalType": "uint232",
          "name": "_externalNullifier",
          "type": "uint232"
        }
      ],
      "name": "preBroadcastCheck",
      "outputs": [
        {
          "internalType": "bool",
          "name": "",
          "type": "bool"
        }
      ],
      "stateMutability": "view",
      "type": "function"
    },
    {
      "inputs": [
        {
          "internalType": "uint232",
          "name": "_externalNullifier",
          "type": "uint232"
        }
      ],
      "name": "reactivateExternalNullifier",
      "outputs": [],
      "stateMutability": "nonpayable",
      "type": "function"
    },
    {
      "inputs": [],
      "name": "renounceOwnership",
      "outputs": [],
      "stateMutability": "nonpayable",
      "type": "function"
    },
    {
      "inputs": [],
      "name": "root",
      "outputs": [
        {
          "internalType": "uint256",
          "name": "",
          "type": "uint256"
        }
      ],
      "stateMutability": "view",
      "type": "function"
    },
    {
      "inputs": [
        {
          "internalType": "uint256",
          "name": "",
          "type": "uint256"
        }
      ],
      "name": "rootHistory",
      "outputs": [
        {
          "internalType": "bool",
          "name": "",
          "type": "bool"
        }
      ],
      "stateMutability": "view",
      "type": "function"
    },
    {
      "inputs": [
        {
          "internalType": "bool",
          "name": "_newPermission",
          "type": "bool"
        }
      ],
      "name": "setPermissioning",
      "outputs": [],
      "stateMutability": "nonpayable",
      "type": "function"
    },
    {
      "inputs": [
        {
          "internalType": "address",
          "name": "newOwner",
          "type": "address"
        }
      ],
      "name": "transferOwnership",
      "outputs": [],
      "stateMutability": "nonpayable",
      "type": "function"
    },
    {
      "inputs": [
        {
          "internalType": "uint256[8]",
          "name": "_proof",
          "type": "uint256[8]"
        }
      ],
      "name": "unpackProof",
      "outputs": [
        {
          "internalType": "uint256[2]",
          "name": "",
          "type": "uint256[2]"
        },
        {
          "internalType": "uint256[2][2]",
          "name": "",
          "type": "uint256[2][2]"
        },
        {
          "internalType": "uint256[2]",
          "name": "",
          "type": "uint256[2]"
        }
      ],
      "stateMutability": "pure",
      "type": "function"
    },
    {
      "inputs": [
        {
          "internalType": "uint256[2]",
          "name": "a",
          "type": "uint256[2]"
        },
        {
          "internalType": "uint256[2][2]",
          "name": "b",
          "type": "uint256[2][2]"
        },
        {
          "internalType": "uint256[2]",
          "name": "c",
          "type": "uint256[2]"
        },
        {
          "internalType": "uint256[4]",
          "name": "input",
          "type": "uint256[4]"
        }
      ],
      "name": "verifyProof",
      "outputs": [
        {
          "internalType": "bool",
          "name": "r",
          "type": "bool"
        }
      ],
      "stateMutability": "view",
      "type": "function"
    }
  ],
  "bytecode": "0x6080604052600060015560006007556000600860006101000a8154817cffffffffffffffffffffffffffffffffffffffffffffffffffffffffff02191690837cffffffffffffffffffffffffffffffffffffffffffffffffffffffffff1602179055506000600960006101000a8154817cffffffffffffffffffffffffffffffffffffffffffffffffffffffffff02191690837cffffffffffffffffffffffffffffffffffffffffffffffffffffffffff16021790555060016009601d6101000a81548160ff0219169083151502179055507f30644e72e131a029b85045b68181585d2833e84879b9709143e1f593f0000001604051602001620001039062000a63565b6040516020818303038152906040528051906020012060001c62000128919062000c0c565b600b553480156200013857600080fd5b50604051620077ba380380620077ba83398181016040528101906200015e91906200095b565b81600b54336000806101000a81548173ffffffffffffffffffffffffffffffffffffffff021916908373ffffffffffffffffffffffffffffffffffffffff16021790555060008054906101000a900473ffffffffffffffffffffffffffffffffffffffff1673ffffffffffffffffffffffffffffffffffffffff16600073ffffffffffffffffffffffffffffffffffffffff167f8be0079c531659141344cd1fd0a4f28419497f9722a3daafe3b4186f6b6457e060405160405180910390a360008260ff16118015620002385750602060ff168260ff1611155b6200027a576040517f08c379a0000000000000000000000000000000000000000000000000000000008152600401620002719062000aae565b60405180910390fd5b81600060146101000a81548160ff021916908360ff1602179055506000819050620002a46200090b565b60005b8460ff168160ff1610156200036b5760005b600560ff168160ff161015620003265783838260ff166005811062000307577f4e487b7100000000000000000000000000000000000000000000000000000000600052603260045260246000fd5b60200201818152505080806200031d9062000bdd565b915050620002b9565b5082600360008360ff1681526020019081526020016000208190555062000353826200039260201b60201c565b92508080620003629062000bdd565b915050620002a7565b5081600281905550505050506200038a816001620003b160201b60201c565b505062000d88565b6000620003aa826200083560201b62002aa91760201c565b9050919050565b8015620004115781600860006101000a8154817cffffffffffffffffffffffffffffffffffffffffffffffffffffffffff02191690837cffffffffffffffffffffffffffffffffffffffffffffffffffffffffff1602179055506200058d565b6000151560066000847cffffffffffffffffffffffffffffffffffffffffffffffffffffffffff167cffffffffffffffffffffffffffffffffffffffffffffffffffffffffff168152602001908152602001600020600001601d9054906101000a900460ff16151514620004bc576040517f08c379a0000000000000000000000000000000000000000000000000000000008152600401620004b39062000ad0565b60405180910390fd5b8160066000600960009054906101000a90047cffffffffffffffffffffffffffffffffffffffffffffffffffffffffff167cffffffffffffffffffffffffffffffffffffffffffffffffffffffffff167cffffffffffffffffffffffffffffffffffffffffffffffffffffffffff16815260200190815260200160002060000160006101000a8154817cffffffffffffffffffffffffffffffffffffffffffffffffffffffffff02191690837cffffffffffffffffffffffffffffffffffffffffffffffffffffffffff1602179055505b620005f86040518060400160405280600581526020017f616464456e000000000000000000000000000000000000000000000000000000815250837cffffffffffffffffffffffffffffffffffffffffffffffffffffffffff166200083c60201b62002ab01760201c565b600060066000847cffffffffffffffffffffffffffffffffffffffffffffffffffffffffff167cffffffffffffffffffffffffffffffffffffffffffffffffffffffffff16815260200190815260200160002060000160006101000a8154817cffffffffffffffffffffffffffffffffffffffffffffffffffffffffff02191690837cffffffffffffffffffffffffffffffffffffffffffffffffffffffffff160217905550600160066000847cffffffffffffffffffffffffffffffffffffffffffffffffffffffffff167cffffffffffffffffffffffffffffffffffffffffffffffffffffffffff168152602001908152602001600020600001601e6101000a81548160ff021916908315150217905550600160066000847cffffffffffffffffffffffffffffffffffffffffffffffffffffffffff167cffffffffffffffffffffffffffffffffffffffffffffffffffffffffff168152602001908152602001600020600001601d6101000a81548160ff02191690831515021790555081600960006101000a8154817cffffffffffffffffffffffffffffffffffffffffffffffffffffffffff02191690837cffffffffffffffffffffffffffffffffffffffffffffffffffffffffff16021790555060076000815480929190620007e09062000b8f565b9190505550817cffffffffffffffffffffffffffffffffffffffffffffffffffffffffff167fd1ca56647596090d70fa8d49bcc376b97248314e3f204c491333b3440405f58960405160405180910390a25050565b6000919050565b620008de82826040516024016200085592919062000a7a565b6040516020818303038152906040527f9710a9d0000000000000000000000000000000000000000000000000000000007bffffffffffffffffffffffffffffffffffffffffffffffffffffffff19166020820180517bffffffffffffffffffffffffffffffffffffffffffffffffffffffff8381831617835250505050620008e260201b60201c565b5050565b60008151905060006a636f6e736f6c652e6c6f679050602083016000808483855afa5050505050565b6040518060a00160405280600590602082028036833780820191505090505090565b6000815190506200093e8162000d54565b92915050565b600081519050620009558162000d6e565b92915050565b600080604083850312156200096f57600080fd5b60006200097f8582860162000944565b925050602062000992858286016200092d565b9150509250929050565b6000620009a98262000af2565b620009b5818562000afd565b9350620009c781856020860162000b59565b620009d28162000ca2565b840191505092915050565b6000620009ec60398362000afd565b9150620009f98262000cb3565b604082019050919050565b600062000a13601e8362000afd565b915062000a208262000d02565b602082019050919050565b600062000a3a60098362000b0e565b915062000a478262000d2b565b600982019050919050565b62000a5d8162000b42565b82525050565b600062000a708262000a2b565b9150819050919050565b6000604082019050818103600083015262000a9681856200099c565b905062000aa7602083018462000a52565b9392505050565b6000602082019050818103600083015262000ac981620009dd565b9050919050565b6000602082019050818103600083015262000aeb8162000a04565b9050919050565b600081519050919050565b600082825260208201905092915050565b600081905092915050565b60007cffffffffffffffffffffffffffffffffffffffffffffffffffffffffff82169050919050565b6000819050919050565b600060ff82169050919050565b60005b8381101562000b7957808201518184015260208101905062000b5c565b8381111562000b89576000848401525b50505050565b600062000b9c8262000b42565b91507fffffffffffffffffffffffffffffffffffffffffffffffffffffffffffffffff82141562000bd25762000bd162000c44565b5b600182019050919050565b600062000bea8262000b4c565b915060ff82141562000c015762000c0062000c44565b5b600182019050919050565b600062000c198262000b42565b915062000c268362000b42565b92508262000c395762000c3862000c73565b5b828206905092915050565b7f4e487b7100000000000000000000000000000000000000000000000000000000600052601160045260246000fd5b7f4e487b7100000000000000000000000000000000000000000000000000000000600052601260045260246000fd5b6000601f19601f8301169050919050565b7f496e6372656d656e74616c5175696e547265653a205f747265654c6576656c7360008201527f206d757374206265206265747765656e203020616e6420333300000000000000602082015250565b7f65787465726e616c206e756c6c696669657220616c7265616479207365740000600082015250565b7f53656d6170686f72650000000000000000000000000000000000000000000000600082015250565b62000d5f8162000b19565b811462000d6b57600080fd5b50565b62000d798162000b4c565b811462000d8557600080fd5b50565b616a228062000d986000396000f3fe608060405234801561001057600080fd5b50600436106101da5760003560e01c80638da5cb5b11610104578063c4cd5596116100a2578063ebf0c71711610071578063ebf0c717146105a7578063f1c621ee146105c5578063f2fde38b146105f5578063f5ab0dd614610611576101da565b8063c4cd55961461050d578063c8cf02da1461053d578063ce85bbdb1461055b578063eac4287e14610577576101da565b80639cfced97116100de5780639cfced971461045f578063b72024341461048f578063ba10b81d146104bf578063c3a3407f146104dd576101da565b80638da5cb5b146104055780638f32d59b146104235780638f6efd0014610441576101da565b80635e05ea171161017c578063715018a61161014b578063715018a61461037d5780637a5519f914610387578063819bd8a5146103b95780638a1a52d2146103d5576101da565b80635e05ea17146102cf5780635fe8c13b146102ff5780636d80efca1461032f5780636ebf62651461035f576101da565b8063539f38b2116101b8578063539f38b2146102355780635bb93995146102515780635d3ce725146102815780635d86faba146102b1576101da565b80630e57596f146101df57806323baaa83146101fb578063283ebaf414610217575b600080fd5b6101f960048036038101906101f4919061528c565b610643565b005b610215600480360381019061021091906153c5565b6109ab565b005b61021f610bfb565b60405161022c91906159f7565b60405180910390f35b61024f600480360381019061024a91906153c5565b610c0e565b005b61026b60048036038101906102669190615417565b610cc2565b6040516102789190615d96565b60405180910390f35b61029b6004803603810190610296919061531f565b610d66565b6040516102a891906159f7565b60405180910390f35b6102b9610ed2565b6040516102c69190615d44565b60405180910390f35b6102e960048036038101906102e4919061511a565b610f01565b6040516102f691906159db565b60405180910390f35b6103196004803603810190610314919061516a565b611234565b60405161032691906159f7565b60405180910390f35b610349600480360381019061034491906153ee565b6116e8565b6040516103569190615d96565b60405180910390f35b610367611786565b6040516103749190615d96565b60405180910390f35b61038561178c565b005b6103a1600480360381019061039c91906153c5565b611891565b6040516103b093929190615d5f565b60405180910390f35b6103d360048036038101906103ce91906153c5565b6118fe565b005b6103ef60048036038101906103ea9190615222565b611b4e565b6040516103fc9190615d96565b60405180910390f35b61040d611fa4565b60405161041a9190615988565b60405180910390f35b61042b611fcd565b60405161043891906159f7565b60405180910390f35b610449612024565b6040516104569190615d96565b60405180910390f35b610479600480360381019061047491906151cf565b61202a565b6040516104869190615d96565b60405180910390f35b6104a960048036038101906104a491906153ee565b61203c565b6040516104b69190615d96565b60405180910390f35b6104c7612422565b6040516104d49190615d96565b60405180910390f35b6104f760048036038101906104f291906153c5565b61242c565b6040516105049190615d44565b60405180910390f35b610527600480360381019061052291906153ee565b612609565b60405161053491906159f7565b60405180910390f35b610545612629565b6040516105529190615d44565b60405180910390f35b61057560048036038101906105709190615263565b612658565b005b610591600480360381019061058c91906153c5565b6126eb565b60405161059e91906159f7565b60405180910390f35b6105af6127b4565b6040516105bc9190615d96565b60405180910390f35b6105df60048036038101906105da91906153ee565b6127ba565b6040516105ec91906159f7565b60405180910390f35b61060f600480360381019061060a91906150f1565b6127da565b005b61062b600480360381019061062691906151f8565b61282d565b60405161063a939291906159a3565b60405180910390f35b6009601d9054906101000a900460ff1615806106635750610662611fcd565b5b6106a2576040517f08c379a000000000000000000000000000000000000000000000000000000000815260040161069990615ce4565b60405180910390fd5b84848484846107056040518060400160405280601581526020017f697356616c69645369676e616c416e6450726f6f660000000000000000000000815250827cffffffffffffffffffffffffffffffffffffffffffffffffffffffffff16612ab0565b61070e84612b4c565b61074d576040517f08c379a000000000000000000000000000000000000000000000000000000000815260040161074490615c24565b60405180910390fd5b60001515600a600084815260200190815260200160002060009054906101000a900460ff161515146107b4576040517f08c379a00000000000000000000000000000000000000000000000000000000081526004016107ab90615b24565b60405180910390fd5b6107bd816126eb565b6107fc576040517f08c379a00000000000000000000000000000000000000000000000000000000081526004016107f390615c04565b60405180910390fd5b6005600084815260200190815260200160002060009054906101000a900460ff1661085c576040517f08c379a000000000000000000000000000000000000000000000000000000000815260040161085390615b84565b60405180910390fd5b600061086786612e95565b90507f30644e72e131a029b85045b68181585d2833e84879b9709143e1f593f000000183106108cb576040517f08c379a00000000000000000000000000000000000000000000000000000000081526004016108c290615aa4565b60405180910390fd5b60006040518060800160405280868152602001858152602001838152602001847cffffffffffffffffffffffffffffffffffffffffffffffffffffffffff168152509050600080600061091d8961282d565b92509250925061092f83838387611234565b61096e576040517f08c379a000000000000000000000000000000000000000000000000000000000815260040161096590615c44565b60405180910390fd5b6001600a60008e815260200190815260200160002060006101000a81548160ff021916908315150217905550505050505050505050505050505050565b6109b3611fcd565b6109f2576040517f08c379a00000000000000000000000000000000000000000000000000000000081526004016109e990615be4565b60405180910390fd5b60066000827cffffffffffffffffffffffffffffffffffffffffffffffffffffffffff167cffffffffffffffffffffffffffffffffffffffffffffffffffffffffff168152602001908152602001600020600001601d9054906101000a900460ff16610a93576040517f08c379a0000000000000000000000000000000000000000000000000000000008152600401610a8a90615c04565b60405180910390fd5b6001151560066000837cffffffffffffffffffffffffffffffffffffffffffffffffffffffffff167cffffffffffffffffffffffffffffffffffffffffffffffffffffffffff168152602001908152602001600020600001601e9054906101000a900460ff16151514610b3b576040517f08c379a0000000000000000000000000000000000000000000000000000000008152600401610b3290615bc4565b60405180910390fd5b600060066000837cffffffffffffffffffffffffffffffffffffffffffffffffffffffffff167cffffffffffffffffffffffffffffffffffffffffffffffffffffffffff168152602001908152602001600020600001601e6101000a81548160ff02191690831515021790555060001515817cffffffffffffffffffffffffffffffffffffffffffffffffffffffffff167fb8d2b8a2b352df7f139810483b3c80fc3a4a88711c90bdb7180f1030b7f49acf60405160405180910390a350565b6009601d9054906101000a900460ff1681565b610c16611fcd565b610c55576040517f08c379a0000000000000000000000000000000000000000000000000000000008152600401610c4c90615be4565b60405180910390fd5b610c936040518060400160405280601e81526020017f53656d6170686f72653a61646445787465726e616c4e756c6c69666965720000815250612ead565b610c9e816000612f46565b610cbf6040518060600160405280602681526020016169c760269139612ead565b50565b6000610ccc614b39565b8381600060028110610d07577f4e487b7100000000000000000000000000000000000000000000000000000000600052603260045260246000fd5b6020020181815250508281600160028110610d4b577f4e487b7100000000000000000000000000000000000000000000000000000000600052603260045260246000fd5b602002018181525050610d5d816133b6565b91505092915050565b6000806040518060800160405280878152602001868152602001858152602001847cffffffffffffffffffffffffffffffffffffffffffffffffffffffffff1681525090506000806000610db98a61282d565b92509250925060001515600a60008a815260200190815260200160002060009054906101000a900460ff161515148015610dfa575086610df88c612e95565b145b8015610e0d5750610e0a8b612e95565b87145b8015610e1e5750610e1d866126eb565b5b8015610e475750600560008a815260200190815260200160002060009054906101000a900460ff165b8015610e585750610e578a612b4c565b5b8015610e8357507f30644e72e131a029b85045b68181585d2833e84879b9709143e1f593f000000189105b8015610eae57507f30644e72e131a029b85045b68181585d2833e84879b9709143e1f593f000000188105b8015610ec25750610ec183838387611234565b5b9450505050509695505050505050565b600860009054906101000a90047cffffffffffffffffffffffffffffffffffffffffffffffffffffffffff1681565b610f09614b5b565b60405180610100016040528085600060028110610f4f577f4e487b7100000000000000000000000000000000000000000000000000000000600052603260045260246000fd5b6020020151815260200185600160028110610f93577f4e487b7100000000000000000000000000000000000000000000000000000000600052603260045260246000fd5b6020020151815260200184600060028110610fd7577f4e487b7100000000000000000000000000000000000000000000000000000000600052603260045260246000fd5b6020020151600060028110611015577f4e487b7100000000000000000000000000000000000000000000000000000000600052603260045260246000fd5b6020020151815260200184600060028110611059577f4e487b7100000000000000000000000000000000000000000000000000000000600052603260045260246000fd5b6020020151600160028110611097577f4e487b7100000000000000000000000000000000000000000000000000000000600052603260045260246000fd5b60200201518152602001846001600281106110db577f4e487b7100000000000000000000000000000000000000000000000000000000600052603260045260246000fd5b6020020151600060028110611119577f4e487b7100000000000000000000000000000000000000000000000000000000600052603260045260246000fd5b602002015181526020018460016002811061115d577f4e487b7100000000000000000000000000000000000000000000000000000000600052603260045260246000fd5b602002015160016002811061119b577f4e487b7100000000000000000000000000000000000000000000000000000000600052603260045260246000fd5b60200201518152602001836000600281106111df577f4e487b7100000000000000000000000000000000000000000000000000000000600052603260045260246000fd5b6020020151815260200183600160028110611223577f4e487b7100000000000000000000000000000000000000000000000000000000600052603260045260246000fd5b602002015181525090509392505050565b600061123e614b7e565b604051806040016040528087600060028110611283577f4e487b7100000000000000000000000000000000000000000000000000000000600052603260045260246000fd5b60200201518152602001876001600281106112c7577f4e487b7100000000000000000000000000000000000000000000000000000000600052603260045260246000fd5b602002015181525081600001819052506040518060400160405280604051806040016040528088600060028110611327577f4e487b7100000000000000000000000000000000000000000000000000000000600052603260045260246000fd5b6020020151600060028110611365577f4e487b7100000000000000000000000000000000000000000000000000000000600052603260045260246000fd5b60200201518152602001886000600281106113a9577f4e487b7100000000000000000000000000000000000000000000000000000000600052603260045260246000fd5b60200201516001600281106113e7577f4e487b7100000000000000000000000000000000000000000000000000000000600052603260045260246000fd5b60200201518152508152602001604051806040016040528088600160028110611439577f4e487b7100000000000000000000000000000000000000000000000000000000600052603260045260246000fd5b6020020151600060028110611477577f4e487b7100000000000000000000000000000000000000000000000000000000600052603260045260246000fd5b60200201518152602001886001600281106114bb577f4e487b7100000000000000000000000000000000000000000000000000000000600052603260045260246000fd5b60200201516001600281106114f9577f4e487b7100000000000000000000000000000000000000000000000000000000600052603260045260246000fd5b60200201518152508152508160200181905250604051806040016040528085600060028110611551577f4e487b7100000000000000000000000000000000000000000000000000000000600052603260045260246000fd5b6020020151815260200185600160028110611595577f4e487b7100000000000000000000000000000000000000000000000000000000600052603260045260246000fd5b602002015181525081604001819052506000600467ffffffffffffffff8111156115e8577f4e487b7100000000000000000000000000000000000000000000000000000000600052604160045260246000fd5b6040519080825280602002602001820160405280156116165781602001602082028036833780820191505090505b50905060005b60048110156116bb5784816004811061165e577f4e487b7100000000000000000000000000000000000000000000000000000000600052603260045260246000fd5b602002015182828151811061169c577f4e487b7100000000000000000000000000000000000000000000000000000000600052603260045260246000fd5b60200260200101818152505080806116b390616316565b91505061161c565b5060006116c882846133bd565b14156116d9576001925050506116e0565b6000925050505b949350505050565b60006116f2611fcd565b611731576040517f08c379a000000000000000000000000000000000000000000000000000000000815260040161172890615be4565b60405180910390fd5b600b54821415611776576040517f08c379a000000000000000000000000000000000000000000000000000000000815260040161176d90615a64565b60405180910390fd5b61177f8261203c565b9050919050565b600b5481565b611794611fcd565b6117d3576040517f08c379a00000000000000000000000000000000000000000000000000000000081526004016117ca90615be4565b60405180910390fd5b600073ffffffffffffffffffffffffffffffffffffffff1660008054906101000a900473ffffffffffffffffffffffffffffffffffffffff1673ffffffffffffffffffffffffffffffffffffffff167f8be0079c531659141344cd1fd0a4f28419497f9722a3daafe3b4186f6b6457e060405160405180910390a360008060006101000a81548173ffffffffffffffffffffffffffffffffffffffff021916908373ffffffffffffffffffffffffffffffffffffffff160217905550565b60066020528060005260406000206000915090508060000160009054906101000a90047cffffffffffffffffffffffffffffffffffffffffffffffffffffffffff169080600001601d9054906101000a900460ff169080600001601e9054906101000a900460ff16905083565b611906611fcd565b611945576040517f08c379a000000000000000000000000000000000000000000000000000000000815260040161193c90615be4565b60405180910390fd5b60066000827cffffffffffffffffffffffffffffffffffffffffffffffffffffffffff167cffffffffffffffffffffffffffffffffffffffffffffffffffffffffff168152602001908152602001600020600001601d9054906101000a900460ff166119e6576040517f08c379a00000000000000000000000000000000000000000000000000000000081526004016119dd90615c04565b60405180910390fd5b6000151560066000837cffffffffffffffffffffffffffffffffffffffffffffffffffffffffff167cffffffffffffffffffffffffffffffffffffffffffffffffffffffffff168152602001908152602001600020600001601e9054906101000a900460ff16151514611a8e576040517f08c379a0000000000000000000000000000000000000000000000000000000008152600401611a8590615c84565b60405180910390fd5b600160066000837cffffffffffffffffffffffffffffffffffffffffffffffffffffffffff167cffffffffffffffffffffffffffffffffffffffffffffffffffffffffff168152602001908152602001600020600001601e6101000a81548160ff02191690831515021790555060011515817cffffffffffffffffffffffffffffffffffffffffffffffffffffffffff167fb8d2b8a2b352df7f139810483b3c80fc3a4a88711c90bdb7180f1030b7f49acf60405160405180910390a350565b600080600b67ffffffffffffffff811115611b92577f4e487b7100000000000000000000000000000000000000000000000000000000600052604160045260246000fd5b604051908082528060200260200182016040528015611bc05781602001602082028036833780820191505090505b509050611bcb614bb1565b611bd3614bb1565b60005b8551811015611c7857858181518110611c18577f4e487b7100000000000000000000000000000000000000000000000000000000600052603260045260246000fd5b6020026020010151848281518110611c59577f4e487b7100000000000000000000000000000000000000000000000000000000600052603260045260246000fd5b6020026020010181815250508080611c7090616316565b915050611bd6565b506000855190505b600b811015611ce3576000848281518110611cc4577f4e487b7100000000000000000000000000000000000000000000000000000000600052603260045260246000fd5b6020026020010181815250508080611cdb90616316565b915050611c80565b5060005b6005811015611e1557838181518110611d29577f4e487b7100000000000000000000000000000000000000000000000000000000600052603260045260246000fd5b6020026020010151838260058110611d6a577f4e487b7100000000000000000000000000000000000000000000000000000000600052603260045260246000fd5b60200201818152505083600582611d819190615f9f565b81518110611db8577f4e487b7100000000000000000000000000000000000000000000000000000000600052603260045260246000fd5b6020026020010151828260058110611df9577f4e487b7100000000000000000000000000000000000000000000000000000000600052603260045260246000fd5b6020020181815250508080611e0d90616316565b915050611ce7565b50611e1e614b39565b611e2783612aa9565b81600060028110611e61577f4e487b7100000000000000000000000000000000000000000000000000000000600052603260045260246000fd5b602002018181525050611e7382612aa9565b81600160028110611ead577f4e487b7100000000000000000000000000000000000000000000000000000000600052603260045260246000fd5b602002018181525050611ebe614b39565b611ec7826133b6565b81600060028110611f01577f4e487b7100000000000000000000000000000000000000000000000000000000600052603260045260246000fd5b60200201818152505084600a81518110611f44577f4e487b7100000000000000000000000000000000000000000000000000000000600052603260045260246000fd5b602002602001015181600160028110611f86577f4e487b7100000000000000000000000000000000000000000000000000000000600052603260045260246000fd5b602002018181525050611f98816133b6565b95505050505050919050565b60008060009054906101000a900473ffffffffffffffffffffffffffffffffffffffff16905090565b60008060009054906101000a900473ffffffffffffffffffffffffffffffffffffffff1673ffffffffffffffffffffffffffffffffffffffff163373ffffffffffffffffffffffffffffffffffffffff1614905090565b60075481565b600061203582612aa9565b9050919050565b6000612046611fcd565b612085576040517f08c379a000000000000000000000000000000000000000000000000000000000815260040161207c90615be4565b60405180910390fd5b7f30644e72e131a029b85045b68181585d2833e84879b9709143e1f593f000000182106120e7576040517f08c379a00000000000000000000000000000000000000000000000000000000081526004016120de90615b64565b60405180910390fd5b600060149054906101000a900460ff1660ff16600560ff166121099190616079565b6001541061214c576040517f08c379a000000000000000000000000000000000000000000000000000000000815260040161214390615d24565b60405180910390fd5b61218b6040518060400160405280600a81526020017f696e736572744c6561660000000000000000000000000000000000000000000081525083612ab0565b60006001549050600083905061219f614bb1565b6000600560ff16846121b19190616389565b905060005b600060149054906101000a900460ff1660ff168160ff16101561235057600082141561224c576000600190505b600560ff168160ff16101561224a57600360008360ff16815260200190815260200160002054600460008460ff16815260200190815260200160002060008360ff1681526020019081526020016000208190555080806122429061635f565b9150506121e3565b505b83600460008360ff16815260200190815260200160002060008481526020019081526020016000208190555060005b600560ff168160ff16101561230d57600460008360ff16815260200190815260200160002060008260ff16815260200190815260200160002054848260ff16600581106122f1577f4e487b7100000000000000000000000000000000000000000000000000000000600052603260045260246000fd5b60200201818152505080806123059061635f565b91505061227b565b506123178361202a565b9350600560ff16856123299190615ff5565b9450600560ff168561233b9190616389565b915080806123489061635f565b9150506121b6565b50826002819055506123996040518060400160405280601b81526020017f696e6372656d656e74616c4d65726b6c655472656520726f6f743a0000000000815250600254612ab0565b600160056000600254815260200190815260200160002060006101000a81548160ff0219169083151502179055506000600154905060018060008282546123e09190615f9f565b9250508190555080877fe6f49fa84abd31919f446b22a52bb3ceae774b4b87f062f022fec45c46f4f45860405160405180910390a38495505050505050919050565b6000600154905090565b600060066000837cffffffffffffffffffffffffffffffffffffffffffffffffffffffffff167cffffffffffffffffffffffffffffffffffffffffffffffffffffffffff168152602001908152602001600020600001601d9054906101000a900460ff166124cf576040517f08c379a00000000000000000000000000000000000000000000000000000000081526004016124c690615ca4565b60405180910390fd5b600060066000847cffffffffffffffffffffffffffffffffffffffffffffffffffffffffff167cffffffffffffffffffffffffffffffffffffffffffffffffffffffffff16815260200190815260200160002060000160009054906101000a90047cffffffffffffffffffffffffffffffffffffffffffffffffffffffffff16905060016007541180156125c1575060066000827cffffffffffffffffffffffffffffffffffffffffffffffffffffffffff167cffffffffffffffffffffffffffffffffffffffffffffffffffffffffff168152602001908152602001600020600001601d9054906101000a900460ff165b612600576040517f08c379a00000000000000000000000000000000000000000000000000000000081526004016125f790615ae4565b60405180910390fd5b80915050919050565b600a6020528060005260406000206000915054906101000a900460ff1681565b600960009054906101000a90047cffffffffffffffffffffffffffffffffffffffffffffffffffffffffff1681565b612660611fcd565b61269f576040517f08c379a000000000000000000000000000000000000000000000000000000000815260040161269690615be4565b60405180910390fd5b806009601d6101000a81548160ff0219169083151502179055508015157ffba91b9002bc7732a7bff1b44ee16a30ebaeb06d7921779034c6a6ab27e69c2760405160405180910390a250565b600061274b6040518060400160405280601981526020017f697345787465726e616c4e756c6c696669657241637469766500000000000000815250837cffffffffffffffffffffffffffffffffffffffffffffffffffffffffff16612ab0565b60066000837cffffffffffffffffffffffffffffffffffffffffffffffffffffffffff167cffffffffffffffffffffffffffffffffffffffffffffffffffffffffff168152602001908152602001600020600001601e9054906101000a900460ff169050919050565b60025481565b60056020528060005260406000206000915054906101000a900460ff1681565b6127e2611fcd565b612821576040517f08c379a000000000000000000000000000000000000000000000000000000000815260040161281890615be4565b60405180910390fd5b61282a81613648565b50565b612835614b39565b61283d614bd3565b612845614b39565b60405180604001604052808560006008811061288a577f4e487b7100000000000000000000000000000000000000000000000000000000600052603260045260246000fd5b60200201518152602001856001600881106128ce577f4e487b7100000000000000000000000000000000000000000000000000000000600052603260045260246000fd5b60200201518152506040518060400160405280604051806040016040528088600260088110612926577f4e487b7100000000000000000000000000000000000000000000000000000000600052603260045260246000fd5b602002015181526020018860036008811061296a577f4e487b7100000000000000000000000000000000000000000000000000000000600052603260045260246000fd5b602002015181525081526020016040518060400160405280886004600881106129bc577f4e487b7100000000000000000000000000000000000000000000000000000000600052603260045260246000fd5b6020020151815260200188600560088110612a00577f4e487b7100000000000000000000000000000000000000000000000000000000600052603260045260246000fd5b6020020151815250815250604051806040016040528087600660088110612a50577f4e487b7100000000000000000000000000000000000000000000000000000000600052603260045260246000fd5b6020020151815260200187600760088110612a94577f4e487b7100000000000000000000000000000000000000000000000000000000600052603260045260246000fd5b60200201518152509250925092509193909250565b6000919050565b612b488282604051602401612ac6929190615a34565b6040516020818303038152906040527f9710a9d0000000000000000000000000000000000000000000000000000000007bffffffffffffffffffffffffffffffffffffffffffffffffffffffff19166020820180517bffffffffffffffffffffffffffffffffffffffffffffffffffffffff8381831617835250505050613775565b5050565b60007f30644e72e131a029b85045b68181585d2833e84879b9709143e1f593f000000182600060088110612ba9577f4e487b7100000000000000000000000000000000000000000000000000000000600052603260045260246000fd5b6020020151108015612c1857507f30644e72e131a029b85045b68181585d2833e84879b9709143e1f593f000000182600160088110612c11577f4e487b7100000000000000000000000000000000000000000000000000000000600052603260045260246000fd5b6020020151105b8015612c8157507f30644e72e131a029b85045b68181585d2833e84879b9709143e1f593f000000182600260088110612c7a577f4e487b7100000000000000000000000000000000000000000000000000000000600052603260045260246000fd5b6020020151105b8015612cea57507f30644e72e131a029b85045b68181585d2833e84879b9709143e1f593f000000182600360088110612ce3577f4e487b7100000000000000000000000000000000000000000000000000000000600052603260045260246000fd5b6020020151105b8015612d5357507f30644e72e131a029b85045b68181585d2833e84879b9709143e1f593f000000182600460088110612d4c577f4e487b7100000000000000000000000000000000000000000000000000000000600052603260045260246000fd5b6020020151105b8015612dbc57507f30644e72e131a029b85045b68181585d2833e84879b9709143e1f593f000000182600560088110612db5577f4e487b7100000000000000000000000000000000000000000000000000000000600052603260045260246000fd5b6020020151105b8015612e2557507f30644e72e131a029b85045b68181585d2833e84879b9709143e1f593f000000182600660088110612e1e577f4e487b7100000000000000000000000000000000000000000000000000000000600052603260045260246000fd5b6020020151105b8015612e8e57507f30644e72e131a029b85045b68181585d2833e84879b9709143e1f593f000000182600760088110612e87577f4e487b7100000000000000000000000000000000000000000000000000000000600052603260045260246000fd5b6020020151105b9050919050565b60006008828051906020012060001c901c9050919050565b612f4381604051602401612ec19190615a12565b6040516020818303038152906040527f41304fac000000000000000000000000000000000000000000000000000000007bffffffffffffffffffffffffffffffffffffffffffffffffffffffff19166020820180517bffffffffffffffffffffffffffffffffffffffffffffffffffffffff8381831617835250505050613775565b50565b8015612fa45781600860006101000a8154817cffffffffffffffffffffffffffffffffffffffffffffffffffffffffff02191690837cffffffffffffffffffffffffffffffffffffffffffffffffffffffffff16021790555061311d565b6000151560066000847cffffffffffffffffffffffffffffffffffffffffffffffffffffffffff167cffffffffffffffffffffffffffffffffffffffffffffffffffffffffff168152602001908152602001600020600001601d9054906101000a900460ff1615151461304c576040517f08c379a000000000000000000000000000000000000000000000000000000000815260040161304390615ac4565b60405180910390fd5b8160066000600960009054906101000a90047cffffffffffffffffffffffffffffffffffffffffffffffffffffffffff167cffffffffffffffffffffffffffffffffffffffffffffffffffffffffff167cffffffffffffffffffffffffffffffffffffffffffffffffffffffffff16815260200190815260200160002060000160006101000a8154817cffffffffffffffffffffffffffffffffffffffffffffffffffffffffff02191690837cffffffffffffffffffffffffffffffffffffffffffffffffffffffffff1602179055505b61317b6040518060400160405280600581526020017f616464456e000000000000000000000000000000000000000000000000000000815250837cffffffffffffffffffffffffffffffffffffffffffffffffffffffffff16612ab0565b600060066000847cffffffffffffffffffffffffffffffffffffffffffffffffffffffffff167cffffffffffffffffffffffffffffffffffffffffffffffffffffffffff16815260200190815260200160002060000160006101000a8154817cffffffffffffffffffffffffffffffffffffffffffffffffffffffffff02191690837cffffffffffffffffffffffffffffffffffffffffffffffffffffffffff160217905550600160066000847cffffffffffffffffffffffffffffffffffffffffffffffffffffffffff167cffffffffffffffffffffffffffffffffffffffffffffffffffffffffff168152602001908152602001600020600001601e6101000a81548160ff021916908315150217905550600160066000847cffffffffffffffffffffffffffffffffffffffffffffffffffffffffff167cffffffffffffffffffffffffffffffffffffffffffffffffffffffffff168152602001908152602001600020600001601d6101000a81548160ff02191690831515021790555081600960006101000a8154817cffffffffffffffffffffffffffffffffffffffffffffffffffffffffff02191690837cffffffffffffffffffffffffffffffffffffffffffffffffffffffffff1602179055506007600081548092919061336190616316565b9190505550817cffffffffffffffffffffffffffffffffffffffffffffffffffffffffff167fd1ca56647596090d70fa8d49bcc376b97248314e3f204c491333b3440405f58960405160405180910390a25050565b6000919050565b6000807f30644e72e131a029b85045b68181585d2833e84879b9709143e1f593f0000001905060006133ed61379e565b9050806080015151600186516134039190615f9f565b14613443576040517f08c379a000000000000000000000000000000000000000000000000000000000815260040161343a90615b04565b60405180910390fd5b60006040518060400160405280600081526020016000815250905060005b86518110156135a457838782815181106134a4577f4e487b7100000000000000000000000000000000000000000000000000000000600052603260045260246000fd5b6020026020010151106134ec576040517f08c379a00000000000000000000000000000000000000000000000000000000081526004016134e390615ba4565b60405180910390fd5b61358f8261358a85608001516001856135059190615f9f565b8151811061353c577f4e487b7100000000000000000000000000000000000000000000000000000000600052603260045260246000fd5b60200260200101518a858151811061357d577f4e487b7100000000000000000000000000000000000000000000000000000000600052603260045260246000fd5b6020026020010151613dee565b613f3d565b9150808061359c90616316565b915050613461565b506135f48183608001516000815181106135e7577f4e487b7100000000000000000000000000000000000000000000000000000000600052603260045260246000fd5b6020026020010151613f3d565b905061362a61360686600001516140d8565b8660200151846000015185602001518587604001518b60400151896060015161417d565b61363a5760019350505050613642565b600093505050505b92915050565b600073ffffffffffffffffffffffffffffffffffffffff168173ffffffffffffffffffffffffffffffffffffffff1614156136b8576040517f08c379a00000000000000000000000000000000000000000000000000000000081526004016136af90615a84565b60405180910390fd5b8073ffffffffffffffffffffffffffffffffffffffff1660008054906101000a900473ffffffffffffffffffffffffffffffffffffffff1673ffffffffffffffffffffffffffffffffffffffff167f8be0079c531659141344cd1fd0a4f28419497f9722a3daafe3b4186f6b6457e060405160405180910390a3806000806101000a81548173ffffffffffffffffffffffffffffffffffffffff021916908373ffffffffffffffffffffffffffffffffffffffff16021790555050565b60008151905060006a636f6e736f6c652e6c6f679050602083016000808483855afa5050505050565b6137a6614c00565b60405180604001604052807f2d4d9aa7e302d9df41749d5507949d05dbea33fbb16c643b22f599a2be6df2e281526020017f14bedd503c37ceb061d8ec60209fe345ce89830a19230301f076caff004d19268152508160000181905250604051806040016040528060405180604001604052807f0967032fcbf776d1afc985f88877f182d38480a653f2decaa9794cbc3bf3060c81526020017f0e187847ad4c798374d0d6732bf501847dd68bc0e071241e0213bc7fc13db7ab815250815260200160405180604001604052807f304cfbd1e08a704a99f5e847d93f8c3caafddec46b7a0d379da69a4d112346a781526020017f1739c1b1a457a8c7313123d24d2f9192f896b7c63eea05a9d57f06547ad0cec88152508152508160200181905250604051806040016040528060405180604001604052807f198e9393920d483a7260bfb731fb5d25f1aa493335a9e71297e485b7aef312c281526020017f1800deef121f1e76426a00665e5c4479674322d4f75edadd46debd5cd992f6ed815250815260200160405180604001604052807f090689d0585ff075ec9e99ad690c3395bc4b313370b38ef355acdadcd122975b81526020017f12c85ea5db8c6deb4aab71808dcb408fe3d1e7690c43d37b4ce6cc0166fa7daa8152508152508160400181905250604051806040016040528060405180604001604052807f1225d99d56c58f91310d597d71239b212ba8a7bf0fb3b59ddcf353dbc9e1cf1b81526020017f05b1af8780fe903bf6f8a579b7a2fa436bcc88f7f199409a933c570666a1d63b815250815260200160405180604001604052807f0b9afda203c7ce1a3c9f84c9cb2c000c683b9d7e65c8a747f82a36602bc1152a81526020017f2572de9ce764af2ad57a36649deaf3096c8dd932f83797f29a9de8c0f03c5f308152508152508160600181905250600567ffffffffffffffff811115613a93577f4e487b7100000000000000000000000000000000000000000000000000000000600052604160045260246000fd5b604051908082528060200260200182016040528015613acc57816020015b613ab9614c47565b815260200190600190039081613ab15790505b50816080018190525060405180604001604052807f0f07e0d71f6e287a9d2409daf4d2c4d3e4c217434dbfedcd7b95e4f14a2a9ce381526020017f1825da28e988768b067722947fedc4f23bbb448a7d524cbbaa9f13cc50c5f16e8152508160800151600081518110613b68577f4e487b7100000000000000000000000000000000000000000000000000000000600052603260045260246000fd5b602002602001018190525060405180604001604052807f1bfec925d9158887f4ffed14fdcba2ea4301febd2b700676ad3f2c35f1dd019081526020017f2e45a0da85d21b50af5e656718d90c46575c2f4967fd77008e47e86e128398a88152508160800151600181518110613c06577f4e487b7100000000000000000000000000000000000000000000000000000000600052603260045260246000fd5b602002602001018190525060405180604001604052807f02df25fc4b8cc3309168bb640889caddbd0230d0d2827a011bfc9a33d31ebc7f81526020017f2df627f9de13cb62a404ba7c28d9a6e5563678661c8f4f56cd6b38a3487a23d98152508160800151600281518110613ca4577f4e487b7100000000000000000000000000000000000000000000000000000000600052603260045260246000fd5b602002602001018190525060405180604001604052807f16d601cddbc5bd49c1e4eed5cfb17980a7c7bcd342a7871b4ac1d12f3c6c34be81526020017f033cde6708b92b13702189aa346cd0ff7db9468d22ac204d81068d4712887dc38152508160800151600381518110613d42577f4e487b7100000000000000000000000000000000000000000000000000000000600052603260045260246000fd5b602002602001018190525060405180604001604052807f1198e1d463542a534d3797ab641f86c3dcd0efd3797a5719a491e60fec3872eb81526020017f2afc8d11c24efc8e11bf7b3e003692455645a3eab2efff3070f10c15bcb07bac8152508160800151600481518110613de0577f4e487b7100000000000000000000000000000000000000000000000000000000600052603260045260246000fd5b602002602001018190525090565b613df6614c47565b613dfe614c61565b836000015181600060038110613e3d577f4e487b7100000000000000000000000000000000000000000000000000000000600052603260045260246000fd5b602002018181525050836020015181600160038110613e85577f4e487b7100000000000000000000000000000000000000000000000000000000600052603260045260246000fd5b6020020181815250508281600260038110613ec9577f4e487b7100000000000000000000000000000000000000000000000000000000600052603260045260246000fd5b602002018181525050600060608360808460076107d05a03fa90508060008114613ef257613ef4565bfe5b5080613f35576040517f08c379a0000000000000000000000000000000000000000000000000000000008152600401613f2c90615b44565b60405180910390fd5b505092915050565b613f45614c47565b613f4d614c83565b836000015181600060048110613f8c577f4e487b7100000000000000000000000000000000000000000000000000000000600052603260045260246000fd5b602002018181525050836020015181600160048110613fd4577f4e487b7100000000000000000000000000000000000000000000000000000000600052603260045260246000fd5b60200201818152505082600001518160026004811061401c577f4e487b7100000000000000000000000000000000000000000000000000000000600052603260045260246000fd5b602002018181525050826020015181600360048110614064577f4e487b7100000000000000000000000000000000000000000000000000000000600052603260045260246000fd5b602002018181525050600060608360c08460066107d05a03fa9050806000811461408d5761408f565bfe5b50806140d0576040517f08c379a00000000000000000000000000000000000000000000000000000000081526004016140c790615cc4565b60405180910390fd5b505092915050565b6140e0614c47565b60007f30644e72e131a029b85045b68181585d97816a916871ca8d3c208c16d87cfd4790506000836000015114801561411d575060008360200151145b15614141576040518060400160405280600081526020016000815250915050614178565b6040518060400160405280846000015181526020018285602001516141669190616389565b8361417191906161f1565b8152509150505b919050565b600080600467ffffffffffffffff8111156141c1577f4e487b7100000000000000000000000000000000000000000000000000000000600052604160045260246000fd5b6040519080825280602002602001820160405280156141fa57816020015b6141e7614c47565b8152602001906001900390816141df5790505b5090506000600467ffffffffffffffff811115614240577f4e487b7100000000000000000000000000000000000000000000000000000000600052604160045260246000fd5b60405190808252806020026020018201604052801561427957816020015b614266614ca5565b81526020019060019003908161425e5790505b5090508a826000815181106142b7577f4e487b7100000000000000000000000000000000000000000000000000000000600052603260045260246000fd5b602002602001018190525088826001815181106142fd577f4e487b7100000000000000000000000000000000000000000000000000000000600052603260045260246000fd5b60200260200101819052508682600281518110614343577f4e487b7100000000000000000000000000000000000000000000000000000000600052603260045260246000fd5b60200260200101819052508482600381518110614389577f4e487b7100000000000000000000000000000000000000000000000000000000600052603260045260246000fd5b602002602001018190525089816000815181106143cf577f4e487b7100000000000000000000000000000000000000000000000000000000600052603260045260246000fd5b60200260200101819052508781600181518110614415577f4e487b7100000000000000000000000000000000000000000000000000000000600052603260045260246000fd5b6020026020010181905250858160028151811061445b577f4e487b7100000000000000000000000000000000000000000000000000000000600052603260045260246000fd5b602002602001018190525083816003815181106144a1577f4e487b7100000000000000000000000000000000000000000000000000000000600052603260045260246000fd5b60200260200101819052506144b682826144c6565b9250505098975050505050505050565b6000815183511461450c576040517f08c379a000000000000000000000000000000000000000000000000000000000815260040161450390615c64565b60405180910390fd5b60008351905060006006826145219190616197565b905060008167ffffffffffffffff811115614565577f4e487b7100000000000000000000000000000000000000000000000000000000600052604160045260246000fd5b6040519080825280602002602001820160405280156145935781602001602082028036833780820191505090505b50905060005b83811015614a78578681815181106145da577f4e487b7100000000000000000000000000000000000000000000000000000000600052603260045260246000fd5b6020026020010151600001518260006006846145f69190616197565b6146009190615f9f565b81518110614637577f4e487b7100000000000000000000000000000000000000000000000000000000600052603260045260246000fd5b60200260200101818152505086818151811061467c577f4e487b7100000000000000000000000000000000000000000000000000000000600052603260045260246000fd5b6020026020010151602001518260016006846146989190616197565b6146a29190615f9f565b815181106146d9577f4e487b7100000000000000000000000000000000000000000000000000000000600052603260045260246000fd5b60200260200101818152505085818151811061471e577f4e487b7100000000000000000000000000000000000000000000000000000000600052603260045260246000fd5b602002602001015160000151600060028110614763577f4e487b7100000000000000000000000000000000000000000000000000000000600052603260045260246000fd5b60200201518260026006846147789190616197565b6147829190615f9f565b815181106147b9577f4e487b7100000000000000000000000000000000000000000000000000000000600052603260045260246000fd5b6020026020010181815250508581815181106147fe577f4e487b7100000000000000000000000000000000000000000000000000000000600052603260045260246000fd5b602002602001015160000151600160028110614843577f4e487b7100000000000000000000000000000000000000000000000000000000600052603260045260246000fd5b60200201518260036006846148589190616197565b6148629190615f9f565b81518110614899577f4e487b7100000000000000000000000000000000000000000000000000000000600052603260045260246000fd5b6020026020010181815250508581815181106148de577f4e487b7100000000000000000000000000000000000000000000000000000000600052603260045260246000fd5b602002602001015160200151600060028110614923577f4e487b7100000000000000000000000000000000000000000000000000000000600052603260045260246000fd5b60200201518260046006846149389190616197565b6149429190615f9f565b81518110614979577f4e487b7100000000000000000000000000000000000000000000000000000000600052603260045260246000fd5b6020026020010181815250508581815181106149be577f4e487b7100000000000000000000000000000000000000000000000000000000600052603260045260246000fd5b602002602001015160200151600160028110614a03577f4e487b7100000000000000000000000000000000000000000000000000000000600052603260045260246000fd5b6020020151826005600684614a189190616197565b614a229190615f9f565b81518110614a59577f4e487b7100000000000000000000000000000000000000000000000000000000600052603260045260246000fd5b6020026020010181815250508080614a7090616316565b915050614599565b50614a81614ccb565b6000602082602086026020860160086107d05a03fa90508060008114614aa657614aa8565bfe5b5080614ae9576040517f08c379a0000000000000000000000000000000000000000000000000000000008152600401614ae090615d04565b60405180910390fd5b600082600060018110614b25577f4e487b7100000000000000000000000000000000000000000000000000000000600052603260045260246000fd5b602002015114159550505050505092915050565b6040518060400160405280600290602082028036833780820191505090505090565b604051806101000160405280600890602082028036833780820191505090505090565b6040518060600160405280614b91614c47565b8152602001614b9e614ca5565b8152602001614bab614c47565b81525090565b6040518060a00160405280600590602082028036833780820191505090505090565b60405180604001604052806002905b614bea614b39565b815260200190600190039081614be25790505090565b6040518060a00160405280614c13614c47565b8152602001614c20614ca5565b8152602001614c2d614ca5565b8152602001614c3a614ca5565b8152602001606081525090565b604051806040016040528060008152602001600081525090565b6040518060600160405280600390602082028036833780820191505090505090565b6040518060800160405280600490602082028036833780820191505090505090565b6040518060400160405280614cb8614b39565b8152602001614cc5614b39565b81525090565b6040518060200160405280600190602082028036833780820191505090505090565b6000614d00614cfb84615dd6565b615db1565b90508082856040860282011115614d1657600080fd5b60005b85811015614d465781614d2c8882614fc2565b845260208401935060408301925050600181019050614d19565b5050509392505050565b6000614d63614d5e84615dfc565b615db1565b90508082856020860282011115614d7957600080fd5b60005b85811015614da95781614d8f88826150dc565b845260208401935060208301925050600181019050614d7c565b5050509392505050565b6000614dc6614dc184615e22565b615db1565b90508082856020860282011115614ddc57600080fd5b60005b85811015614e0c5781614df288826150dc565b845260208401935060208301925050600181019050614ddf565b5050509392505050565b6000614e29614e2484615e48565b615db1565b90508082856020860282011115614e3f57600080fd5b60005b85811015614e6f5781614e5588826150dc565b845260208401935060208301925050600181019050614e42565b5050509392505050565b6000614e8c614e8784615e6e565b615db1565b90508082856020860282011115614ea257600080fd5b60005b85811015614ed25781614eb888826150dc565b845260208401935060208301925050600181019050614ea5565b5050509392505050565b6000614eef614eea84615e94565b615db1565b90508083825260208201905082856020860282011115614f0e57600080fd5b60005b85811015614f3e5781614f2488826150dc565b845260208401935060208301925050600181019050614f11565b5050509392505050565b6000614f5b614f5684615ec0565b615db1565b905082815260208101848484011115614f7357600080fd5b614f7e8482856162a3565b509392505050565b600081359050614f958161696a565b92915050565b600082601f830112614fac57600080fd5b6002614fb9848285614ced565b91505092915050565b600082601f830112614fd357600080fd5b6002614fe0848285614d50565b91505092915050565b600082601f830112614ffa57600080fd5b6004615007848285614db3565b91505092915050565b600082601f83011261502157600080fd5b600561502e848285614e16565b91505092915050565b600082601f83011261504857600080fd5b6008615055848285614e79565b91505092915050565b600082601f83011261506f57600080fd5b813561507f848260208601614edc565b91505092915050565b60008135905061509781616981565b92915050565b600082601f8301126150ae57600080fd5b81356150be848260208601614f48565b91505092915050565b6000813590506150d681616998565b92915050565b6000813590506150eb816169af565b92915050565b60006020828403121561510357600080fd5b600061511184828501614f86565b91505092915050565b6000806000610100848603121561513057600080fd5b600061513e86828701614fc2565b935050604061514f86828701614f9b565b92505060c061516086828701614fc2565b9150509250925092565b600080600080610180858703121561518157600080fd5b600061518f87828801614fc2565b94505060406151a087828801614f9b565b93505060c06151b187828801614fc2565b9250506101006151c387828801614fe9565b91505092959194509250565b600060a082840312156151e157600080fd5b60006151ef84828501615010565b91505092915050565b6000610100828403121561520b57600080fd5b600061521984828501615037565b91505092915050565b60006020828403121561523457600080fd5b600082013567ffffffffffffffff81111561524e57600080fd5b61525a8482850161505e565b91505092915050565b60006020828403121561527557600080fd5b600061528384828501615088565b91505092915050565b600080600080600061018086880312156152a557600080fd5b600086013567ffffffffffffffff8111156152bf57600080fd5b6152cb8882890161509d565b95505060206152dc88828901615037565b9450506101206152ee888289016150dc565b935050610140615300888289016150dc565b925050610160615312888289016150c7565b9150509295509295909350565b6000806000806000806101a0878903121561533957600080fd5b600087013567ffffffffffffffff81111561535357600080fd5b61535f89828a0161509d565b965050602061537089828a01615037565b95505061012061538289828a016150dc565b94505061014061539489828a016150dc565b9350506101606153a689828a016150dc565b9250506101806153b889828a016150c7565b9150509295509295509295565b6000602082840312156153d757600080fd5b60006153e5848285016150c7565b91505092915050565b60006020828403121561540057600080fd5b600061540e848285016150dc565b91505092915050565b6000806040838503121561542a57600080fd5b6000615438858286016150dc565b9250506020615449858286016150dc565b9150509250929050565b600061545f83836154e9565b60408301905092915050565b6000615477838361596a565b60208301905092915050565b61548c81616225565b82525050565b61549b81615f0f565b6154a58184615f62565b92506154b082615ef1565b8060005b838110156154e15781516154c88782615453565b96506154d383615f3b565b9250506001810190506154b4565b505050505050565b6154f281615f1a565b6154fc8184615f6d565b925061550782615efb565b8060005b8381101561553857815161551f878261546b565b965061552a83615f48565b92505060018101905061550b565b505050505050565b61554981615f1a565b6155538184615f78565b925061555e82615efb565b8060005b8381101561558f578151615576878261546b565b965061558183615f48565b925050600181019050615562565b505050505050565b6155a081615f25565b6155aa8184615f83565b92506155b582615f05565b8060005b838110156155e65781516155cd878261546b565b96506155d883615f55565b9250506001810190506155b9565b505050505050565b6155f781616237565b82525050565b600061560882615f30565b6156128185615f8e565b93506156228185602086016162b2565b61562b81616447565b840191505092915050565b6000615643602383615f8e565b915061564e82616465565b604082019050919050565b6000615666602683615f8e565b9150615671826164b4565b604082019050919050565b6000615689603183615f8e565b915061569482616503565b604082019050919050565b60006156ac601e83615f8e565b91506156b782616552565b602082019050919050565b60006156cf603483615f8e565b91506156da8261657b565b604082019050919050565b60006156f2601283615f8e565b91506156fd826165ca565b602082019050919050565b6000615715601683615f8e565b9150615720826165f3565b602082019050919050565b6000615738601283615f8e565b91506157438261661c565b602082019050919050565b600061575b604583615f8e565b915061576682616645565b606082019050919050565b600061577e601783615f8e565b9150615789826166ba565b602082019050919050565b60006157a1601f83615f8e565b91506157ac826166e3565b602082019050919050565b60006157c4602683615f8e565b91506157cf8261670c565b604082019050919050565b60006157e7602083615f8e565b91506157f28261675b565b602082019050919050565b600061580a601c83615f8e565b915061581582616784565b602082019050919050565b600061582d601e83615f8e565b9150615838826167ad565b602082019050919050565b6000615850600d83615f8e565b915061585b826167d6565b602082019050919050565b6000615873601683615f8e565b915061587e826167ff565b602082019050919050565b6000615896602483615f8e565b91506158a182616828565b604082019050919050565b60006158b9601a83615f8e565b91506158c482616877565b602082019050919050565b60006158dc601283615f8e565b91506158e7826168a0565b602082019050919050565b60006158ff601b83615f8e565b915061590a826168c9565b602082019050919050565b6000615922601583615f8e565b915061592d826168f2565b602082019050919050565b6000615945602183615f8e565b91506159508261691b565b604082019050919050565b61596481616263565b82525050565b6159738161628c565b82525050565b6159828161628c565b82525050565b600060208201905061599d6000830184615483565b92915050565b6000610100820190506159b96000830186615540565b6159c66040830185615492565b6159d360c0830184615540565b949350505050565b6000610100820190506159f16000830184615597565b92915050565b6000602082019050615a0c60008301846155ee565b92915050565b60006020820190508181036000830152615a2c81846155fd565b905092915050565b60006040820190508181036000830152615a4e81856155fd565b9050615a5d6020830184615979565b9392505050565b60006020820190508181036000830152615a7d81615636565b9050919050565b60006020820190508181036000830152615a9d81615659565b9050919050565b60006020820190508181036000830152615abd8161567c565b9050919050565b60006020820190508181036000830152615add8161569f565b9050919050565b60006020820190508181036000830152615afd816156c2565b9050919050565b60006020820190508181036000830152615b1d816156e5565b9050919050565b60006020820190508181036000830152615b3d81615708565b9050919050565b60006020820190508181036000830152615b5d8161572b565b9050919050565b60006020820190508181036000830152615b7d8161574e565b9050919050565b60006020820190508181036000830152615b9d81615771565b9050919050565b60006020820190508181036000830152615bbd81615794565b9050919050565b60006020820190508181036000830152615bdd816157b7565b9050919050565b60006020820190508181036000830152615bfd816157da565b9050919050565b60006020820190508181036000830152615c1d816157fd565b9050919050565b60006020820190508181036000830152615c3d81615820565b9050919050565b60006020820190508181036000830152615c5d81615843565b9050919050565b60006020820190508181036000830152615c7d81615866565b9050919050565b60006020820190508181036000830152615c9d81615889565b9050919050565b60006020820190508181036000830152615cbd816158ac565b9050919050565b60006020820190508181036000830152615cdd816158cf565b9050919050565b60006020820190508181036000830152615cfd816158f2565b9050919050565b60006020820190508181036000830152615d1d81615915565b9050919050565b60006020820190508181036000830152615d3d81615938565b9050919050565b6000602082019050615d59600083018461595b565b92915050565b6000606082019050615d74600083018661595b565b615d8160208301856155ee565b615d8e60408301846155ee565b949350505050565b6000602082019050615dab6000830184615979565b92915050565b6000615dbb615dcc565b9050615dc782826162e5565b919050565b6000604051905090565b600067ffffffffffffffff821115615df157615df0616418565b5b602082029050919050565b600067ffffffffffffffff821115615e1757615e16616418565b5b602082029050919050565b600067ffffffffffffffff821115615e3d57615e3c616418565b5b602082029050919050565b600067ffffffffffffffff821115615e6357615e62616418565b5b602082029050919050565b600067ffffffffffffffff821115615e8957615e88616418565b5b602082029050919050565b600067ffffffffffffffff821115615eaf57615eae616418565b5b602082029050602081019050919050565b600067ffffffffffffffff821115615edb57615eda616418565b5b615ee482616447565b9050602081019050919050565b6000819050919050565b6000819050919050565b6000819050919050565b600060029050919050565b600060029050919050565b600060089050919050565b600081519050919050565b6000602082019050919050565b6000602082019050919050565b6000602082019050919050565b600081905092915050565b600081905092915050565b600081905092915050565b600081905092915050565b600082825260208201905092915050565b6000615faa8261628c565b9150615fb58361628c565b9250827fffffffffffffffffffffffffffffffffffffffffffffffffffffffffffffffff03821115615fea57615fe96163ba565b5b828201905092915050565b60006160008261628c565b915061600b8361628c565b92508261601b5761601a6163e9565b5b828204905092915050565b6000808291508390505b60018511156160705780860481111561604c5761604b6163ba565b5b600185161561605b5780820291505b808102905061606985616458565b9450616030565b94509492505050565b60006160848261628c565b915061608f8361628c565b92506160bc7fffffffffffffffffffffffffffffffffffffffffffffffffffffffffffffffff84846160c4565b905092915050565b6000826160d45760019050616190565b816160e25760009050616190565b81600181146160f8576002811461610257616131565b6001915050616190565b60ff841115616114576161136163ba565b5b8360020a91508482111561612b5761612a6163ba565b5b50616190565b5060208310610133831016604e8410600b84101617156161665782820a905083811115616161576161606163ba565b5b616190565b6161738484846001616026565b9250905081840481111561618a576161896163ba565b5b81810290505b9392505050565b60006161a28261628c565b91506161ad8361628c565b9250817fffffffffffffffffffffffffffffffffffffffffffffffffffffffffffffffff04831182151516156161e6576161e56163ba565b5b828202905092915050565b60006161fc8261628c565b91506162078361628c565b92508282101561621a576162196163ba565b5b828203905092915050565b600061623082616243565b9050919050565b60008115159050919050565b600073ffffffffffffffffffffffffffffffffffffffff82169050919050565b60007cffffffffffffffffffffffffffffffffffffffffffffffffffffffffff82169050919050565b6000819050919050565b600060ff82169050919050565b82818337600083830152505050565b60005b838110156162d05780820151818401526020810190506162b5565b838111156162df576000848401525b50505050565b6162ee82616447565b810181811067ffffffffffffffff8211171561630d5761630c616418565b5b80604052505050565b60006163218261628c565b91507fffffffffffffffffffffffffffffffffffffffffffffffffffffffffffffffff821415616354576163536163ba565b5b600182019050919050565b600061636a82616296565b915060ff82141561637e5761637d6163ba565b5b600182019050919050565b60006163948261628c565b915061639f8361628c565b9250826163af576163ae6163e9565b5b828206905092915050565b7f4e487b7100000000000000000000000000000000000000000000000000000000600052601160045260246000fd5b7f4e487b7100000000000000000000000000000000000000000000000000000000600052601260045260246000fd5b7f4e487b7100000000000000000000000000000000000000000000000000000000600052604160045260246000fd5b6000601f19601f8301169050919050565b60008160011c9050919050565b7f63616e2774206265206e6f7468696e672d75702d6d792d736c656576652d766160008201527f6c75650000000000000000000000000000000000000000000000000000000000602082015250565b7f4f776e61626c653a206e6577206f776e657220697320746865207a65726f206160008201527f6464726573730000000000000000000000000000000000000000000000000000602082015250565b7f6e756c6c6966696572732068617368206d757374206265206c7420746865207360008201527f6e61726b207363616c6172206669656c64000000000000000000000000000000602082015250565b7f65787465726e616c206e756c6c696669657220616c7265616479207365740000600082015250565b7f6e6f2065787465726e616c206e756c6c6966696572206578697374732061667460008201527f65722074686520737065636966696564206f6e65000000000000000000000000602082015250565b7f76657269666965722d6261642d696e7075740000000000000000000000000000600082015250565b7f6e756c6c696669657220616c7265616479207365656e00000000000000000000600082015250565b7f70616972696e672d6d756c2d6661696c65640000000000000000000000000000600082015250565b7f496e6372656d656e74616c5175696e547265653a20696e736572744c6561662060008201527f617267756d656e74206d757374206265203c20534e41524b5f5343414c41525f60208201527f4649454c44000000000000000000000000000000000000000000000000000000604082015250565b7f53656d6170686f72653a726f6f74206e6f74207365656e000000000000000000600082015250565b7f76657269666965722d6774652d736e61726b2d7363616c61722d6669656c6400600082015250565b7f65787465726e616c206e756c6c696669657220616c726561647920646561637460008201527f6976617465640000000000000000000000000000000000000000000000000000602082015250565b7f4f776e61626c653a2063616c6c6572206973206e6f7420746865206f776e6572600082015250565b7f65787465726e616c206e756c6c6966696572206e6f7420666f756e6400000000600082015250565b7f696e76616c6964206669656c6420656c656d656e7420696e2070726f6f660000600082015250565b7f696e76616c69642070726f6f6600000000000000000000000000000000000000600082015250565b7f70616972696e672d6c656e677468732d6661696c656400000000000000000000600082015250565b7f65787465726e616c206e756c6c696669657220697320616c726561647920616360008201527f7469766500000000000000000000000000000000000000000000000000000000602082015250565b7f6e6f20737563682065787465726e616c206e756c6c6966696572000000000000600082015250565b7f70616972696e672d6164642d6661696c65640000000000000000000000000000600082015250565b7f62726f616463617374207065726d697373696f6e2064656e6965640000000000600082015250565b7f70616972696e672d6f70636f64652d6661696c65640000000000000000000000600082015250565b7f496e6372656d656e74616c5175696e547265653a20747265652069732066756c60008201527f6c00000000000000000000000000000000000000000000000000000000000000602082015250565b61697381616225565b811461697e57600080fd5b50565b61698a81616237565b811461699557600080fd5b50565b6169a181616263565b81146169ac57600080fd5b50565b6169b88161628c565b81146169c357600080fd5b5056fe53656d6170686f72653a636f6d706c65746541646445787465726e616c4e756c6c6966696572a26469706673582212202331cdacc2f0e298b442d0bcb9253b220561d2e649c0869aee1621db8ef6d37064736f6c63430008040033",
  "linkReferences": {},
  "deployedLinkReferences": {}
}