{
  "_format": "hh-sol-artifact-1",
  "contractName": "Semaphore",
  "sourceName": "contracts/semaphore/Semaphore.sol",
  "abi": [
    {
      "inputs": [
        {
          "internalType": "uint8",
          "name": "_treeLevels",
          "type": "uint8"
        },
        {
          "internalType": "uint232",
          "name": "_firstExternalNullifier",
          "type": "uint232"
        }
      ],
      "stateMutability": "nonpayable",
      "type": "constructor"
    },
    {
      "anonymous": false,
      "inputs": [
        {
          "indexed": true,
          "internalType": "uint232",
          "name": "externalNullifier",
          "type": "uint232"
        }
      ],
      "name": "ExternalNullifierAdd",
      "type": "event"
    },
    {
      "anonymous": false,
      "inputs": [
        {
          "indexed": true,
          "internalType": "uint232",
          "name": "externalNullifier",
          "type": "uint232"
        },
        {
          "indexed": true,
          "internalType": "bool",
          "name": "active",
          "type": "bool"
        }
      ],
      "name": "ExternalNullifierChangeStatus",
      "type": "event"
    },
    {
      "anonymous": false,
      "inputs": [
        {
          "indexed": true,
          "internalType": "uint256",
          "name": "leaf",
          "type": "uint256"
        },
        {
          "indexed": true,
          "internalType": "uint256",
          "name": "leafIndex",
          "type": "uint256"
        }
      ],
      "name": "LeafInsertion",
      "type": "event"
    },
    {
      "anonymous": false,
      "inputs": [
        {
          "indexed": true,
          "internalType": "address",
          "name": "previousOwner",
          "type": "address"
        },
        {
          "indexed": true,
          "internalType": "address",
          "name": "newOwner",
          "type": "address"
        }
      ],
      "name": "OwnershipTransferred",
      "type": "event"
    },
    {
      "anonymous": false,
      "inputs": [
        {
          "indexed": true,
          "internalType": "bool",
          "name": "newPermission",
          "type": "bool"
        }
      ],
      "name": "PermissionSet",
      "type": "event"
    },
    {
      "inputs": [],
      "name": "NOTHING_UP_MY_SLEEVE_ZERO",
      "outputs": [
        {
          "internalType": "uint256",
          "name": "",
          "type": "uint256"
        }
      ],
      "stateMutability": "view",
      "type": "function"
    },
    {
      "inputs": [
        {
          "internalType": "uint232",
          "name": "_externalNullifier",
          "type": "uint232"
        }
      ],
      "name": "addExternalNullifier",
      "outputs": [],
      "stateMutability": "nonpayable",
      "type": "function"
    },
    {
      "inputs": [
        {
          "internalType": "bytes",
          "name": "_signal",
          "type": "bytes"
        },
        {
          "internalType": "uint256[8]",
          "name": "_proof",
          "type": "uint256[8]"
        },
        {
          "internalType": "uint256",
          "name": "_root",
          "type": "uint256"
        },
        {
          "internalType": "uint256",
          "name": "_nullifiersHash",
          "type": "uint256"
        },
        {
          "internalType": "uint232",
          "name": "_externalNullifier",
          "type": "uint232"
        }
      ],
      "name": "broadcastSignal",
      "outputs": [],
      "stateMutability": "nonpayable",
      "type": "function"
    },
    {
      "inputs": [
        {
          "internalType": "uint232",
          "name": "_externalNullifier",
          "type": "uint232"
        }
      ],
      "name": "deactivateExternalNullifier",
      "outputs": [],
      "stateMutability": "nonpayable",
      "type": "function"
    },
    {
      "inputs": [
        {
          "internalType": "uint232",
          "name": "",
          "type": "uint232"
        }
      ],
      "name": "externalNullifierLinkedList",
      "outputs": [
        {
          "internalType": "uint232",
          "name": "next",
          "type": "uint232"
        },
        {
          "internalType": "bool",
          "name": "exists",
          "type": "bool"
        },
        {
          "internalType": "bool",
          "name": "isActive",
          "type": "bool"
        }
      ],
      "stateMutability": "view",
      "type": "function"
    },
    {
      "inputs": [],
      "name": "firstExternalNullifier",
      "outputs": [
        {
          "internalType": "uint232",
          "name": "",
          "type": "uint232"
        }
      ],
      "stateMutability": "view",
      "type": "function"
    },
    {
      "inputs": [
        {
          "internalType": "uint232",
          "name": "_externalNullifier",
          "type": "uint232"
        }
      ],
      "name": "getNextExternalNullifier",
      "outputs": [
        {
          "internalType": "uint232",
          "name": "",
          "type": "uint232"
        }
      ],
      "stateMutability": "view",
      "type": "function"
    },
    {
      "inputs": [],
      "name": "getNumIdentityCommitments",
      "outputs": [
        {
          "internalType": "uint256",
          "name": "",
          "type": "uint256"
        }
      ],
      "stateMutability": "view",
      "type": "function"
    },
    {
      "inputs": [
        {
          "internalType": "uint256",
          "name": "_identityCommitment",
          "type": "uint256"
        }
      ],
      "name": "insertIdentity",
      "outputs": [
        {
          "internalType": "uint256",
          "name": "",
          "type": "uint256"
        }
      ],
      "stateMutability": "nonpayable",
      "type": "function"
    },
    {
      "inputs": [],
      "name": "isBroadcastPermissioned",
      "outputs": [
        {
          "internalType": "bool",
          "name": "",
          "type": "bool"
        }
      ],
      "stateMutability": "view",
      "type": "function"
    },
    {
      "inputs": [
        {
          "internalType": "uint232",
          "name": "_externalNullifier",
          "type": "uint232"
        }
      ],
      "name": "isExternalNullifierActive",
      "outputs": [
        {
          "internalType": "bool",
          "name": "",
          "type": "bool"
        }
      ],
      "stateMutability": "view",
      "type": "function"
    },
    {
      "inputs": [],
      "name": "isOwner",
      "outputs": [
        {
          "internalType": "bool",
          "name": "",
          "type": "bool"
        }
      ],
      "stateMutability": "view",
      "type": "function"
    },
    {
      "inputs": [],
      "name": "lastExternalNullifier",
      "outputs": [
        {
          "internalType": "uint232",
          "name": "",
          "type": "uint232"
        }
      ],
      "stateMutability": "view",
      "type": "function"
    },
    {
      "inputs": [
        {
          "internalType": "uint256",
          "name": "",
          "type": "uint256"
        }
      ],
      "name": "nullifierHashHistory",
      "outputs": [
        {
          "internalType": "bool",
          "name": "",
          "type": "bool"
        }
      ],
      "stateMutability": "view",
      "type": "function"
    },
    {
      "inputs": [],
      "name": "numExternalNullifiers",
      "outputs": [
        {
          "internalType": "uint256",
          "name": "",
          "type": "uint256"
        }
      ],
      "stateMutability": "view",
      "type": "function"
    },
    {
      "inputs": [],
      "name": "owner",
      "outputs": [
        {
          "internalType": "address",
          "name": "",
          "type": "address"
        }
      ],
      "stateMutability": "view",
      "type": "function"
    },
    {
      "inputs": [
        {
          "internalType": "uint256[2]",
          "name": "_a",
          "type": "uint256[2]"
        },
        {
          "internalType": "uint256[2][2]",
          "name": "_b",
          "type": "uint256[2][2]"
        },
        {
          "internalType": "uint256[2]",
          "name": "_c",
          "type": "uint256[2]"
        }
      ],
      "name": "packProof",
      "outputs": [
        {
          "internalType": "uint256[8]",
          "name": "",
          "type": "uint256[8]"
        }
      ],
      "stateMutability": "pure",
      "type": "function"
    },
    {
      "inputs": [
        {
          "internalType": "bytes",
          "name": "_signal",
          "type": "bytes"
        },
        {
          "internalType": "uint256[8]",
          "name": "_proof",
          "type": "uint256[8]"
        },
        {
          "internalType": "uint256",
          "name": "_root",
          "type": "uint256"
        },
        {
          "internalType": "uint256",
          "name": "_nullifiersHash",
          "type": "uint256"
        },
        {
          "internalType": "uint256",
          "name": "_signalHash",
          "type": "uint256"
        },
        {
          "internalType": "uint232",
          "name": "_externalNullifier",
          "type": "uint232"
        }
      ],
      "name": "preBroadcastCheck",
      "outputs": [
        {
          "internalType": "bool",
          "name": "",
          "type": "bool"
        }
      ],
      "stateMutability": "view",
      "type": "function"
    },
    {
      "inputs": [
        {
          "internalType": "uint232",
          "name": "_externalNullifier",
          "type": "uint232"
        }
      ],
      "name": "reactivateExternalNullifier",
      "outputs": [],
      "stateMutability": "nonpayable",
      "type": "function"
    },
    {
      "inputs": [],
      "name": "renounceOwnership",
      "outputs": [],
      "stateMutability": "nonpayable",
      "type": "function"
    },
    {
      "inputs": [],
      "name": "root",
      "outputs": [
        {
          "internalType": "uint256",
          "name": "",
          "type": "uint256"
        }
      ],
      "stateMutability": "view",
      "type": "function"
    },
    {
      "inputs": [
        {
          "internalType": "uint256",
          "name": "",
          "type": "uint256"
        }
      ],
      "name": "rootHistory",
      "outputs": [
        {
          "internalType": "bool",
          "name": "",
          "type": "bool"
        }
      ],
      "stateMutability": "view",
      "type": "function"
    },
    {
      "inputs": [
        {
          "internalType": "bool",
          "name": "_newPermission",
          "type": "bool"
        }
      ],
      "name": "setPermissioning",
      "outputs": [],
      "stateMutability": "nonpayable",
      "type": "function"
    },
    {
      "inputs": [
        {
          "internalType": "address",
          "name": "newOwner",
          "type": "address"
        }
      ],
      "name": "transferOwnership",
      "outputs": [],
      "stateMutability": "nonpayable",
      "type": "function"
    },
    {
      "inputs": [
        {
          "internalType": "uint256[8]",
          "name": "_proof",
          "type": "uint256[8]"
        }
      ],
      "name": "unpackProof",
      "outputs": [
        {
          "internalType": "uint256[2]",
          "name": "",
          "type": "uint256[2]"
        },
        {
          "internalType": "uint256[2][2]",
          "name": "",
          "type": "uint256[2][2]"
        },
        {
          "internalType": "uint256[2]",
          "name": "",
          "type": "uint256[2]"
        }
      ],
      "stateMutability": "pure",
      "type": "function"
    },
    {
      "inputs": [
        {
          "internalType": "uint256[2]",
          "name": "a",
          "type": "uint256[2]"
        },
        {
          "internalType": "uint256[2][2]",
          "name": "b",
          "type": "uint256[2][2]"
        },
        {
          "internalType": "uint256[2]",
          "name": "c",
          "type": "uint256[2]"
        },
        {
          "internalType": "uint256[4]",
          "name": "input",
          "type": "uint256[4]"
        }
      ],
      "name": "verifyProof",
      "outputs": [
        {
          "internalType": "bool",
          "name": "r",
          "type": "bool"
        }
      ],
      "stateMutability": "view",
      "type": "function"
    }
  ],
  "bytecode": "6080604052600060015560006045556000604660006101000a8154817cffffffffffffffffffffffffffffffffffffffffffffffffffffffffff02191690837cffffffffffffffffffffffffffffffffffffffffffffffffffffffffff1602179055506000604760006101000a8154817cffffffffffffffffffffffffffffffffffffffffffffffffffffffffff02191690837cffffffffffffffffffffffffffffffffffffffffffffffffffffffffff16021790555060016047601d6101000a81548160ff0219169083151502179055507f30644e72e131a029b85045b68181585d2833e84879b9709143e1f593f0000001604051602001620001039062000940565b6040516020818303038152906040528051906020012060001c62000128919062000990565b6049553480156200013857600080fd5b50604051620060f2380380620060f283398181016040528101906200015e919062000a65565b81604954336000806101000a81548173ffffffffffffffffffffffffffffffffffffffff021916908373ffffffffffffffffffffffffffffffffffffffff16021790555060008054906101000a900473ffffffffffffffffffffffffffffffffffffffff1673ffffffffffffffffffffffffffffffffffffffff16600073ffffffffffffffffffffffffffffffffffffffff167f8be0079c531659141344cd1fd0a4f28419497f9722a3daafe3b4186f6b6457e060405160405180910390a360008260ff16118015620002385750602060ff168260ff1611155b6200027a576040517f08c379a0000000000000000000000000000000000000000000000000000000008152600401620002719062000b33565b60405180910390fd5b81600060146101000a81548160ff021916908360ff160217905550806003600060208110620002ae57620002ad62000b55565b5b018190555060008190506000600190505b8360ff168160ff1610156200033e576000620002e283846200037560201b60201c565b90508060038360ff1660208110620002ff57620002fe62000b55565b5b01819055508060238360ff16602081106200031f576200031e62000b55565b5b0181905550809250508080620003359062000bb3565b915050620002bf565b506200035181826200037560201b60201c565b6002819055505050506200036d816001620004cc60201b60201c565b505062000dd2565b600080839050600073ce2ecd6ca12352b0befc173fc216fbe8e5668dae63f47d33b58360006040518363ffffffff1660e01b8152600401620003b992919062000c40565b6040805180830381865af4158015620003d6573d6000803e3d6000fd5b505050506040513d601f19601f82011682018060405250810190620003fc919062000c9e565b80925081935050507f30644e72e131a029b85045b68181585d2833e84879b9709143e1f593f00000018062000436576200043562000961565b5b848308915073ce2ecd6ca12352b0befc173fc216fbe8e5668dae63f47d33b583836040518363ffffffff1660e01b81526004016200047692919062000ce5565b6040805180830381865af415801562000493573d6000803e3d6000fd5b505050506040513d601f19601f82011682018060405250810190620004b9919062000c9e565b8092508193505050819250505092915050565b80156200052c5781604660006101000a8154817cffffffffffffffffffffffffffffffffffffffffffffffffffffffffff02191690837cffffffffffffffffffffffffffffffffffffffffffffffffffffffffff160217905550620006a8565b6000151560446000847cffffffffffffffffffffffffffffffffffffffffffffffffffffffffff167cffffffffffffffffffffffffffffffffffffffffffffffffffffffffff168152602001908152602001600020600001601d9054906101000a900460ff16151514620005d7576040517f08c379a0000000000000000000000000000000000000000000000000000000008152600401620005ce9062000d62565b60405180910390fd5b8160446000604760009054906101000a90047cffffffffffffffffffffffffffffffffffffffffffffffffffffffffff167cffffffffffffffffffffffffffffffffffffffffffffffffffffffffff167cffffffffffffffffffffffffffffffffffffffffffffffffffffffffff16815260200190815260200160002060000160006101000a8154817cffffffffffffffffffffffffffffffffffffffffffffffffffffffffff02191690837cffffffffffffffffffffffffffffffffffffffffffffffffffffffffff1602179055505b600060446000847cffffffffffffffffffffffffffffffffffffffffffffffffffffffffff167cffffffffffffffffffffffffffffffffffffffffffffffffffffffffff16815260200190815260200160002060000160006101000a8154817cffffffffffffffffffffffffffffffffffffffffffffffffffffffffff02191690837cffffffffffffffffffffffffffffffffffffffffffffffffffffffffff160217905550600160446000847cffffffffffffffffffffffffffffffffffffffffffffffffffffffffff167cffffffffffffffffffffffffffffffffffffffffffffffffffffffffff168152602001908152602001600020600001601e6101000a81548160ff021916908315150217905550600160446000847cffffffffffffffffffffffffffffffffffffffffffffffffffffffffff167cffffffffffffffffffffffffffffffffffffffffffffffffffffffffff168152602001908152602001600020600001601d6101000a81548160ff02191690831515021790555081604760006101000a8154817cffffffffffffffffffffffffffffffffffffffffffffffffffffffffff02191690837cffffffffffffffffffffffffffffffffffffffffffffffffffffffffff16021790555060456000815480929190620008909062000d84565b9190505550817cffffffffffffffffffffffffffffffffffffffffffffffffffffffffff167fd1ca56647596090d70fa8d49bcc376b97248314e3f204c491333b3440405f58960405160405180910390a25050565b600081905092915050565b7f53656d6170686f72650000000000000000000000000000000000000000000000600082015250565b600062000928600983620008e5565b91506200093582620008f0565b600982019050919050565b60006200094d8262000919565b9150819050919050565b6000819050919050565b7f4e487b7100000000000000000000000000000000000000000000000000000000600052601260045260246000fd5b60006200099d8262000957565b9150620009aa8362000957565b925082620009bd57620009bc62000961565b5b828206905092915050565b600080fd5b600060ff82169050919050565b620009e581620009cd565b8114620009f157600080fd5b50565b60008151905062000a0581620009da565b92915050565b60007cffffffffffffffffffffffffffffffffffffffffffffffffffffffffff82169050919050565b62000a3f8162000a0b565b811462000a4b57600080fd5b50565b60008151905062000a5f8162000a34565b92915050565b6000806040838503121562000a7f5762000a7e620009c8565b5b600062000a8f85828601620009f4565b925050602062000aa28582860162000a4e565b9150509250929050565b600082825260208201905092915050565b7f496e6372656d656e74616c4d65726b6c65547265653a205f747265654c65766560008201527f6c73206d757374206265206265747765656e203020616e642033330000000000602082015250565b600062000b1b603b8362000aac565b915062000b288262000abd565b604082019050919050565b6000602082019050818103600083015262000b4e8162000b0c565b9050919050565b7f4e487b7100000000000000000000000000000000000000000000000000000000600052603260045260246000fd5b7f4e487b7100000000000000000000000000000000000000000000000000000000600052601160045260246000fd5b600062000bc082620009cd565b915060ff82141562000bd75762000bd662000b84565b5b600182019050919050565b62000bed8162000957565b82525050565b6000819050919050565b6000819050919050565b600062000c2862000c2262000c1c8462000bf3565b62000bfd565b62000957565b9050919050565b62000c3a8162000c07565b82525050565b600060408201905062000c57600083018562000be2565b62000c66602083018462000c2f565b9392505050565b62000c788162000957565b811462000c8457600080fd5b50565b60008151905062000c988162000c6d565b92915050565b6000806040838503121562000cb85762000cb7620009c8565b5b600062000cc88582860162000c87565b925050602062000cdb8582860162000c87565b9150509250929050565b600060408201905062000cfc600083018562000be2565b62000d0b602083018462000be2565b9392505050565b7f65787465726e616c206e756c6c696669657220616c7265616479207365740000600082015250565b600062000d4a601e8362000aac565b915062000d578262000d12565b602082019050919050565b6000602082019050818103600083015262000d7d8162000d3b565b9050919050565b600062000d918262000957565b91507fffffffffffffffffffffffffffffffffffffffffffffffffffffffffffffffff82141562000dc75762000dc662000b84565b5b600182019050919050565b6153108062000de26000396000f3fe608060405234801561001057600080fd5b506004361061018e5760003560e01c80638da5cb5b116100de578063c8cf02da11610097578063ebf0c71711610071578063ebf0c7171461049b578063f1c621ee146104b9578063f2fde38b146104e9578063f5ab0dd6146105055761018e565b8063c8cf02da14610431578063ce85bbdb1461044f578063eac4287e1461046b5761018e565b80638da5cb5b146103595780638f32d59b146103775780638f6efd0014610395578063ba10b81d146103b3578063c3a3407f146103d1578063c4cd5596146104015761018e565b80635e05ea171161014b5780636ebf6265116101255780636ebf6265146102e3578063715018a6146103015780637a5519f91461030b578063819bd8a51461033d5761018e565b80635e05ea17146102535780635fe8c13b146102835780636d80efca146102b35761018e565b80630e57596f1461019357806323baaa83146101af578063283ebaf4146101cb578063539f38b2146101e95780635d3ce725146102055780635d86faba14610235575b600080fd5b6101ad60048036038101906101a891906137ab565b610537565b005b6101c960048036038101906101c49190613846565b610841565b005b6101d3610a4a565b6040516101e0919061388e565b60405180910390f35b61020360048036038101906101fe9190613846565b610a5d565b005b61021f600480360381019061021a91906138a9565b610a6b565b60405161022c919061388e565b60405180910390f35b61023d610bd7565b60405161024a9190613966565b60405180910390f35b61026d60048036038101906102689190613ae3565b610c06565b60405161027a9190613be2565b60405180910390f35b61029d60048036038101906102989190613caf565b610d71565b6040516102aa919061388e565b60405180910390f35b6102cd60048036038101906102c89190613d18565b611446565b6040516102da9190613d54565b60405180910390f35b6102eb61149d565b6040516102f89190613d54565b60405180910390f35b6103096114a3565b005b61032560048036038101906103209190613846565b6115a8565b60405161033493929190613d6f565b60405180910390f35b61035760048036038101906103529190613846565b611615565b005b61036161181e565b60405161036e9190613de7565b60405180910390f35b61037f611847565b60405161038c919061388e565b60405180910390f35b61039d61189e565b6040516103aa9190613d54565b60405180910390f35b6103bb6118a4565b6040516103c89190613d54565b60405180910390f35b6103eb60048036038101906103e69190613846565b6118ae565b6040516103f89190613966565b60405180910390f35b61041b60048036038101906104169190613d18565b611a8b565b604051610428919061388e565b60405180910390f35b610439611aab565b6040516104469190613966565b60405180910390f35b61046960048036038101906104649190613e2e565b611ada565b005b61048560048036038101906104809190613846565b611b26565b604051610492919061388e565b60405180910390f35b6104a3611b91565b6040516104b09190613d54565b60405180910390f35b6104d360048036038101906104ce9190613d18565b611b97565b6040516104e0919061388e565b60405180910390f35b61050360048036038101906104fe9190613e87565b611bb7565b005b61051f600480360381019061051a9190613eb4565b611c0a565b60405161052e93929190614064565b60405180910390f35b6047601d9054906101000a900460ff1615806105575750610556611847565b5b610596576040517f08c379a000000000000000000000000000000000000000000000000000000000815260040161058d906140f9565b60405180910390fd5b84848484846105a484611d56565b6105e3576040517f08c379a00000000000000000000000000000000000000000000000000000000081526004016105da90614165565b60405180910390fd5b600015156048600084815260200190815260200160002060009054906101000a900460ff1615151461064a576040517f08c379a0000000000000000000000000000000000000000000000000000000008152600401610641906141d1565b60405180910390fd5b61065381611b26565b610692576040517f08c379a00000000000000000000000000000000000000000000000000000000081526004016106899061423d565b60405180910390fd5b6043600084815260200190815260200160002060009054906101000a900460ff166106f2576040517f08c379a00000000000000000000000000000000000000000000000000000000081526004016106e9906142a9565b60405180910390fd5b60006106fd86611f6f565b90507f30644e72e131a029b85045b68181585d2833e84879b9709143e1f593f00000018310610761576040517f08c379a00000000000000000000000000000000000000000000000000000000081526004016107589061433b565b60405180910390fd5b60006040518060800160405280868152602001858152602001838152602001847cffffffffffffffffffffffffffffffffffffffffffffffffffffffffff16815250905060008060006107b389611c0a565b9250925092506107c583838387610d71565b610804576040517f08c379a00000000000000000000000000000000000000000000000000000000081526004016107fb906143a7565b60405180910390fd5b6001604860008e815260200190815260200160002060006101000a81548160ff021916908315150217905550505050505050505050505050505050565b60446000827cffffffffffffffffffffffffffffffffffffffffffffffffffffffffff167cffffffffffffffffffffffffffffffffffffffffffffffffffffffffff168152602001908152602001600020600001601d9054906101000a900460ff166108e2576040517f08c379a00000000000000000000000000000000000000000000000000000000081526004016108d99061423d565b60405180910390fd5b6001151560446000837cffffffffffffffffffffffffffffffffffffffffffffffffffffffffff167cffffffffffffffffffffffffffffffffffffffffffffffffffffffffff168152602001908152602001600020600001601e9054906101000a900460ff1615151461098a576040517f08c379a000000000000000000000000000000000000000000000000000000000815260040161098190614439565b60405180910390fd5b600060446000837cffffffffffffffffffffffffffffffffffffffffffffffffffffffffff167cffffffffffffffffffffffffffffffffffffffffffffffffffffffffff168152602001908152602001600020600001601e6101000a81548160ff02191690831515021790555060001515817cffffffffffffffffffffffffffffffffffffffffffffffffffffffffff167fb8d2b8a2b352df7f139810483b3c80fc3a4a88711c90bdb7180f1030b7f49acf60405160405180910390a350565b6047601d9054906101000a900460ff1681565b610a68816000611f87565b50565b6000806040518060800160405280878152602001868152602001858152602001847cffffffffffffffffffffffffffffffffffffffffffffffffffffffffff1681525090506000806000610abe8a611c0a565b92509250925060001515604860008a815260200190815260200160002060009054906101000a900460ff161515148015610aff575086610afd8c611f6f565b145b8015610b125750610b0f8b611f6f565b87145b8015610b235750610b2286611b26565b5b8015610b4c5750604360008a815260200190815260200160002060009054906101000a900460ff165b8015610b5d5750610b5c8a611d56565b5b8015610b8857507f30644e72e131a029b85045b68181585d2833e84879b9709143e1f593f000000189105b8015610bb357507f30644e72e131a029b85045b68181585d2833e84879b9709143e1f593f000000188105b8015610bc75750610bc683838387610d71565b5b9450505050509695505050505050565b604660009054906101000a90047cffffffffffffffffffffffffffffffffffffffffffffffffffffffffff1681565b610c0e61334b565b60405180610100016040528085600060028110610c2e57610c2d614459565b5b6020020151815260200185600160028110610c4c57610c4b614459565b5b6020020151815260200184600060028110610c6a57610c69614459565b5b6020020151600060028110610c8257610c81614459565b5b6020020151815260200184600060028110610ca057610c9f614459565b5b6020020151600160028110610cb857610cb7614459565b5b6020020151815260200184600160028110610cd657610cd5614459565b5b6020020151600060028110610cee57610ced614459565b5b6020020151815260200184600160028110610d0c57610d0b614459565b5b6020020151600160028110610d2457610d23614459565b5b6020020151815260200183600060028110610d4257610d41614459565b5b6020020151815260200183600160028110610d6057610d5f614459565b5b602002015181525090509392505050565b6000610d7b61336e565b604051806040016040528087600060028110610d9a57610d99614459565b5b6020020151815260200187600160028110610db857610db7614459565b5b602002015181525081600001819052506040518060400160405280604051806040016040528088600060028110610df257610df1614459565b5b6020020151600060028110610e0a57610e09614459565b5b6020020151815260200188600060028110610e2857610e27614459565b5b6020020151600160028110610e4057610e3f614459565b5b60200201518152508152602001604051806040016040528088600160028110610e6c57610e6b614459565b5b6020020151600060028110610e8457610e83614459565b5b6020020151815260200188600160028110610ea257610ea1614459565b5b6020020151600160028110610eba57610eb9614459565b5b60200201518152508152508160200181905250604051806040016040528085600060028110610eec57610eeb614459565b5b6020020151815260200185600160028110610f0a57610f09614459565b5b602002015181525081604001819052506000610f24612399565b90506000604051806040016040528060008152602001600081525090507f30644e72e131a029b85045b68181585d97816a916871ca8d3c208c16d87cfd4783600001516000015110610fab576040517f08c379a0000000000000000000000000000000000000000000000000000000008152600401610fa2906144d4565b60405180910390fd5b7f30644e72e131a029b85045b68181585d97816a916871ca8d3c208c16d87cfd4783600001516020015110611015576040517f08c379a000000000000000000000000000000000000000000000000000000000815260040161100c90614540565b60405180910390fd5b7f30644e72e131a029b85045b68181585d97816a916871ca8d3c208c16d87cfd4783602001516000015160006002811061105257611051614459565b5b602002015110611097576040517f08c379a000000000000000000000000000000000000000000000000000000000815260040161108e906145ac565b60405180910390fd5b7f30644e72e131a029b85045b68181585d97816a916871ca8d3c208c16d87cfd478360200151602001516000600281106110d4576110d3614459565b5b602002015110611119576040517f08c379a000000000000000000000000000000000000000000000000000000000815260040161111090614618565b60405180910390fd5b7f30644e72e131a029b85045b68181585d97816a916871ca8d3c208c16d87cfd4783602001516000015160016002811061115657611155614459565b5b60200201511061119b576040517f08c379a000000000000000000000000000000000000000000000000000000000815260040161119290614684565b60405180910390fd5b7f30644e72e131a029b85045b68181585d97816a916871ca8d3c208c16d87cfd478360200151602001516001600281106111d8576111d7614459565b5b60200201511061121d576040517f08c379a0000000000000000000000000000000000000000000000000000000008152600401611214906146f0565b60405180910390fd5b7f30644e72e131a029b85045b68181585d97816a916871ca8d3c208c16d87cfd4783604001516000015110611287576040517f08c379a000000000000000000000000000000000000000000000000000000000815260040161127e9061475c565b60405180910390fd5b7f30644e72e131a029b85045b68181585d97816a916871ca8d3c208c16d87cfd47836040015160200151106112f1576040517f08c379a00000000000000000000000000000000000000000000000000000000081526004016112e8906147c8565b60405180910390fd5b60005b60048110156113dc577f30644e72e131a029b85045b68181585d2833e84879b9709143e1f593f000000186826004811061133157611330614459565b5b602002015110611376576040517f08c379a000000000000000000000000000000000000000000000000000000000815260040161136d90614834565b60405180910390fd5b6113c7826113c2856080015160018561138f9190614883565b600581106113a05761139f614459565b5b60200201518985600481106113b8576113b7614459565b5b6020020151612898565b612975565b915080806113d4906148d9565b9150506112f4565b506114038183608001516000600581106113f9576113f8614459565b5b6020020151612975565b90506114396114158460000151612a78565b84602001518460000151856020015185876040015189604001518960600151612b36565b9350505050949350505050565b600060495482141561148d576040517f08c379a000000000000000000000000000000000000000000000000000000000815260040161148490614994565b60405180910390fd5b61149682612eb1565b9050919050565b60495481565b6114ab611847565b6114ea576040517f08c379a00000000000000000000000000000000000000000000000000000000081526004016114e190614a00565b60405180910390fd5b600073ffffffffffffffffffffffffffffffffffffffff1660008054906101000a900473ffffffffffffffffffffffffffffffffffffffff1673ffffffffffffffffffffffffffffffffffffffff167f8be0079c531659141344cd1fd0a4f28419497f9722a3daafe3b4186f6b6457e060405160405180910390a360008060006101000a81548173ffffffffffffffffffffffffffffffffffffffff021916908373ffffffffffffffffffffffffffffffffffffffff160217905550565b60446020528060005260406000206000915090508060000160009054906101000a90047cffffffffffffffffffffffffffffffffffffffffffffffffffffffffff169080600001601d9054906101000a900460ff169080600001601e9054906101000a900460ff16905083565b60446000827cffffffffffffffffffffffffffffffffffffffffffffffffffffffffff167cffffffffffffffffffffffffffffffffffffffffffffffffffffffffff168152602001908152602001600020600001601d9054906101000a900460ff166116b6576040517f08c379a00000000000000000000000000000000000000000000000000000000081526004016116ad9061423d565b60405180910390fd5b6000151560446000837cffffffffffffffffffffffffffffffffffffffffffffffffffffffffff167cffffffffffffffffffffffffffffffffffffffffffffffffffffffffff168152602001908152602001600020600001601e9054906101000a900460ff1615151461175e576040517f08c379a000000000000000000000000000000000000000000000000000000000815260040161175590614a92565b60405180910390fd5b600160446000837cffffffffffffffffffffffffffffffffffffffffffffffffffffffffff167cffffffffffffffffffffffffffffffffffffffffffffffffffffffffff168152602001908152602001600020600001601e6101000a81548160ff02191690831515021790555060011515817cffffffffffffffffffffffffffffffffffffffffffffffffffffffffff167fb8d2b8a2b352df7f139810483b3c80fc3a4a88711c90bdb7180f1030b7f49acf60405160405180910390a350565b60008060009054906101000a900473ffffffffffffffffffffffffffffffffffffffff16905090565b60008060009054906101000a900473ffffffffffffffffffffffffffffffffffffffff1673ffffffffffffffffffffffffffffffffffffffff163373ffffffffffffffffffffffffffffffffffffffff1614905090565b60455481565b6000600154905090565b600060446000837cffffffffffffffffffffffffffffffffffffffffffffffffffffffffff167cffffffffffffffffffffffffffffffffffffffffffffffffffffffffff168152602001908152602001600020600001601d9054906101000a900460ff16611951576040517f08c379a000000000000000000000000000000000000000000000000000000000815260040161194890614afe565b60405180910390fd5b600060446000847cffffffffffffffffffffffffffffffffffffffffffffffffffffffffff167cffffffffffffffffffffffffffffffffffffffffffffffffffffffffff16815260200190815260200160002060000160009054906101000a90047cffffffffffffffffffffffffffffffffffffffffffffffffffffffffff1690506001604554118015611a43575060446000827cffffffffffffffffffffffffffffffffffffffffffffffffffffffffff167cffffffffffffffffffffffffffffffffffffffffffffffffffffffffff168152602001908152602001600020600001601d9054906101000a900460ff165b611a82576040517f08c379a0000000000000000000000000000000000000000000000000000000008152600401611a7990614b90565b60405180910390fd5b80915050919050565b60486020528060005260406000206000915054906101000a900460ff1681565b604760009054906101000a90047cffffffffffffffffffffffffffffffffffffffffffffffffffffffffff1681565b806047601d6101000a81548160ff0219169083151502179055508015157ffba91b9002bc7732a7bff1b44ee16a30ebaeb06d7921779034c6a6ab27e69c2760405160405180910390a250565b600060446000837cffffffffffffffffffffffffffffffffffffffffffffffffffffffffff167cffffffffffffffffffffffffffffffffffffffffffffffffffffffffff168152602001908152602001600020600001601e9054906101000a900460ff169050919050565b60025481565b60436020528060005260406000206000915054906101000a900460ff1681565b611bbf611847565b611bfe576040517f08c379a0000000000000000000000000000000000000000000000000000000008152600401611bf590614a00565b60405180910390fd5b611c07816130d4565b50565b611c126133a1565b611c1a6133c3565b611c226133a1565b604051806040016040528085600060088110611c4157611c40614459565b5b6020020151815260200185600160088110611c5f57611c5e614459565b5b60200201518152506040518060400160405280604051806040016040528088600260088110611c9157611c90614459565b5b6020020151815260200188600360088110611caf57611cae614459565b5b60200201518152508152602001604051806040016040528088600460088110611cdb57611cda614459565b5b6020020151815260200188600560088110611cf957611cf8614459565b5b6020020151815250815250604051806040016040528087600660088110611d2357611d22614459565b5b6020020151815260200187600760088110611d4157611d40614459565b5b60200201518152509250925092509193909250565b60007f30644e72e131a029b85045b68181585d2833e84879b9709143e1f593f000000182600060088110611d8d57611d8c614459565b5b6020020151108015611dd657507f30644e72e131a029b85045b68181585d2833e84879b9709143e1f593f000000182600160088110611dcf57611dce614459565b5b6020020151105b8015611e1957507f30644e72e131a029b85045b68181585d2833e84879b9709143e1f593f000000182600260088110611e1257611e11614459565b5b6020020151105b8015611e5c57507f30644e72e131a029b85045b68181585d2833e84879b9709143e1f593f000000182600360088110611e5557611e54614459565b5b6020020151105b8015611e9f57507f30644e72e131a029b85045b68181585d2833e84879b9709143e1f593f000000182600460088110611e9857611e97614459565b5b6020020151105b8015611ee257507f30644e72e131a029b85045b68181585d2833e84879b9709143e1f593f000000182600560088110611edb57611eda614459565b5b6020020151105b8015611f2557507f30644e72e131a029b85045b68181585d2833e84879b9709143e1f593f000000182600660088110611f1e57611f1d614459565b5b6020020151105b8015611f6857507f30644e72e131a029b85045b68181585d2833e84879b9709143e1f593f000000182600760088110611f6157611f60614459565b5b6020020151105b9050919050565b60006008828051906020012060001c901c9050919050565b8015611fe55781604660006101000a8154817cffffffffffffffffffffffffffffffffffffffffffffffffffffffffff02191690837cffffffffffffffffffffffffffffffffffffffffffffffffffffffffff16021790555061215e565b6000151560446000847cffffffffffffffffffffffffffffffffffffffffffffffffffffffffff167cffffffffffffffffffffffffffffffffffffffffffffffffffffffffff168152602001908152602001600020600001601d9054906101000a900460ff1615151461208d576040517f08c379a000000000000000000000000000000000000000000000000000000000815260040161208490614bfc565b60405180910390fd5b8160446000604760009054906101000a90047cffffffffffffffffffffffffffffffffffffffffffffffffffffffffff167cffffffffffffffffffffffffffffffffffffffffffffffffffffffffff167cffffffffffffffffffffffffffffffffffffffffffffffffffffffffff16815260200190815260200160002060000160006101000a8154817cffffffffffffffffffffffffffffffffffffffffffffffffffffffffff02191690837cffffffffffffffffffffffffffffffffffffffffffffffffffffffffff1602179055505b600060446000847cffffffffffffffffffffffffffffffffffffffffffffffffffffffffff167cffffffffffffffffffffffffffffffffffffffffffffffffffffffffff16815260200190815260200160002060000160006101000a8154817cffffffffffffffffffffffffffffffffffffffffffffffffffffffffff02191690837cffffffffffffffffffffffffffffffffffffffffffffffffffffffffff160217905550600160446000847cffffffffffffffffffffffffffffffffffffffffffffffffffffffffff167cffffffffffffffffffffffffffffffffffffffffffffffffffffffffff168152602001908152602001600020600001601e6101000a81548160ff021916908315150217905550600160446000847cffffffffffffffffffffffffffffffffffffffffffffffffffffffffff167cffffffffffffffffffffffffffffffffffffffffffffffffffffffffff168152602001908152602001600020600001601d6101000a81548160ff02191690831515021790555081604760006101000a8154817cffffffffffffffffffffffffffffffffffffffffffffffffffffffffff02191690837cffffffffffffffffffffffffffffffffffffffffffffffffffffffffff16021790555060456000815480929190612344906148d9565b9190505550817cffffffffffffffffffffffffffffffffffffffffffffffffffffffffff167fd1ca56647596090d70fa8d49bcc376b97248314e3f204c491333b3440405f58960405160405180910390a25050565b6123a16133f0565b60405180604001604052807f2aeb4aafb1c7a3e1445536842c9d8225ebd94a09d15cda4e17d944add94ede4781526020017f03ab549390940a14a8d8d3fe3f6ecb68195432778936e617d914f14d1df035798152508160000181905250604051806040016040528060405180604001604052807f2fd95a27d1b9d966bb3ae847506bfc2ffa3e5c945f4502cf0f10dfd658960f9481526020017f167a6701c17cc2734e919e79f59f110b511f1ff811a06fd840949416d10ddafc815250815260200160405180604001604052807f02b4c85ab8a8fbe2d979af025230a96c10e07c5e4163fc7d633ba083fc44f9ee81526020017f303ca2757a59cbf0e0bbdb8f1712f29e3e804cd258e18aca0da7f6bd7136e8068152508152508160200181905250604051806040016040528060405180604001604052807f0fa9bb662fc3acd975ee36a6ea2c0c709c3a75303345702acaf0d845428f932b81526020017f2f2d53e983b994de7cac84d565b30b457f11273ff5a898ce80c9fd66bdf9e075815250815260200160405180604001604052807f2d1f4da8e0f4d49c61fd3ec22a104df1a5159b1e329b3506354559ebafff080181526020017f2ff6e55d56bb54b32d728131475c6ca6d7a92cc6b82bfcd59311c765e7edcb458152508152508160400181905250604051806040016040528060405180604001604052807f23511787419db90d2bad3c8bfbac9f4398c26cd6cd34bb5276c2cd94b7b7d26f81526020017f17e0c1843c4ec925cf3d09b051978f5f23d1d166117d572f38dbd874126dead5815250815260200160405180604001604052807f06e374c176a74bf3d0c0329b9d03b53693d77f928cd1fc4c6f6053ec00f2ca2581526020017f2d832fd3933c30f159e18dbe33bc7496240cc22bcece79faf02388e5bd366a21815250815250816060018190525060405180604001604052807f2174881f2cb4aee5292b2f603cb183bf301d263b1a11c7ec22585fec00ecce9881526020017e3e5e75ec133240c640391a4cb8a18e2fbc4f6336e6b6693643735d5c62308781525081608001516000600581106126b9576126b8614459565b5b602002018190525060405180604001604052807f1664a7bd963677623594fb978543aceb4fc3576b0f976c519a22bdbca62226c381526020017f0e28ccde23de1c2f78b1d8d35660f7014f391e354756aad1f5f75d159cfab652815250816080015160016005811061272e5761272d614459565b5b602002018190525060405180604001604052807f17439f723025a06c170891f82daf6fbf4fe30c3824d1b0820262e7ee632bd62d81526020017f0a74bd079e9f728a7c5dc31ea3c7c43e978be8921a351b9de0df3cfb2f60185581525081608001516002600581106127a3576127a2614459565b5b602002018190525060405180604001604052807f274660c30271883b25933fc39f835337bafcb604536af04f6264fe96a7b32d5181526020017f27e6947d2ab1e5b87fa5e0b4fe610ee7a623bdf4e0225e249c6a3446af5085b5815250816080015160036005811061281857612817614459565b5b602002018190525060405180604001604052807f108ba5cc069e7368567294f740794f36d4c7d99d40dd667fe5dd544967bdc9a981526020017f2175417a3760110f546c7f7f30d3195d766cbe31f34013b45322ff7fd974635c815250816080015160046005811061288d5761288c614459565b5b602002018190525090565b6128a061343d565b6128a8613457565b8360000151816000600381106128c1576128c0614459565b5b6020020181815250508360200151816001600381106128e3576128e2614459565b5b602002018181525050828160026003811061290157612900614459565b5b602002018181525050600060608360808460076107d05a03fa9050806000811461292a5761292c565bfe5b508061296d576040517f08c379a000000000000000000000000000000000000000000000000000000000815260040161296490614c68565b60405180910390fd5b505092915050565b61297d61343d565b612985613479565b83600001518160006004811061299e5761299d614459565b5b6020020181815250508360200151816001600481106129c0576129bf614459565b5b6020020181815250508260000151816002600481106129e2576129e1614459565b5b602002018181525050826020015181600360048110612a0457612a03614459565b5b602002018181525050600060608360c08460066107d05a03fa90508060008114612a2d57612a2f565bfe5b5080612a70576040517f08c379a0000000000000000000000000000000000000000000000000000000008152600401612a6790614cd4565b60405180910390fd5b505092915050565b612a8061343d565b60008260000151148015612a98575060008260200151145b15612abb5760405180604001604052806000815260200160008152509050612b31565b6040518060400160405280836000015181526020017f30644e72e131a029b85045b68181585d97816a916871ca8d3c208c16d87cfd478460200151612b009190614d23565b7f30644e72e131a029b85045b68181585d97816a916871ca8d3c208c16d87cfd47612b2b9190614d54565b81525090505b919050565b60008060405180608001604052808b8152602001898152602001878152602001858152509050600060405180608001604052808b815260200189815260200187815260200185815250905060006018905060008167ffffffffffffffff811115612ba357612ba261353f565b5b604051908082528060200260200182016040528015612bd15781602001602082028036833780820191505090505b50905060005b6004811015612e0f576000600682612bef9190614d88565b9050858260048110612c0457612c03614459565b5b60200201516000015183600083612c1b9190614883565b81518110612c2c57612c2b614459565b5b602002602001018181525050858260048110612c4b57612c4a614459565b5b60200201516020015183600183612c629190614883565b81518110612c7357612c72614459565b5b602002602001018181525050848260048110612c9257612c91614459565b5b602002015160000151600060028110612cae57612cad614459565b5b602002015183600283612cc19190614883565b81518110612cd257612cd1614459565b5b602002602001018181525050848260048110612cf157612cf0614459565b5b602002015160000151600160028110612d0d57612d0c614459565b5b602002015183600383612d209190614883565b81518110612d3157612d30614459565b5b602002602001018181525050848260048110612d5057612d4f614459565b5b602002015160200151600060028110612d6c57612d6b614459565b5b602002015183600483612d7f9190614883565b81518110612d9057612d8f614459565b5b602002602001018181525050848260048110612daf57612dae614459565b5b602002015160200151600160028110612dcb57612dca614459565b5b602002015183600583612dde9190614883565b81518110612def57612dee614459565b5b602002602001018181525050508080612e07906148d9565b915050612bd7565b50612e1861349b565b6000602082602086026020860160086107d05a03fa90508060008114612e3d57612e3f565bfe5b5080612e80576040517f08c379a0000000000000000000000000000000000000000000000000000000008152600401612e7790614e2e565b60405180910390fd5b600082600060018110612e9657612e95614459565b5b60200201511415965050505050505098975050505050505050565b60007f30644e72e131a029b85045b68181585d2833e84879b9709143e1f593f00000018210612f15576040517f08c379a0000000000000000000000000000000000000000000000000000000008152600401612f0c90614ee6565b60405180910390fd5b6000600154905060008060149054906101000a900460ff1660ff169050806002612f3f9190615039565b8210612f80576040517f08c379a0000000000000000000000000000000000000000000000000000000008152600401612f77906150f6565b60405180910390fd5b600084905060008060005b600060149054906101000a900460ff1660ff168160ff161015613042576000600287612fb79190614d23565b1415612ffd5783925060038160ff1660208110612fd757612fd6614459565b5b015491508360238260ff1660208110612ff357612ff2614459565b5b018190555061301c565b60238160ff166020811061301457613013614459565b5b015492508391505b6130268383613201565b9350600186901c9550808061303a90615123565b915050612f8b565b5082600281905550600160436000600254815260200190815260200160002060006101000a81548160ff0219169083151502179055506000600154905060018060008282546130919190614883565b9250508190555080887fe6f49fa84abd31919f446b22a52bb3ceae774b4b87f062f022fec45c46f4f45860405160405180910390a3859650505050505050919050565b600073ffffffffffffffffffffffffffffffffffffffff168173ffffffffffffffffffffffffffffffffffffffff161415613144576040517f08c379a000000000000000000000000000000000000000000000000000000000815260040161313b906151bf565b60405180910390fd5b8073ffffffffffffffffffffffffffffffffffffffff1660008054906101000a900473ffffffffffffffffffffffffffffffffffffffff1673ffffffffffffffffffffffffffffffffffffffff167f8be0079c531659141344cd1fd0a4f28419497f9722a3daafe3b4186f6b6457e060405160405180910390a3806000806101000a81548173ffffffffffffffffffffffffffffffffffffffff021916908373ffffffffffffffffffffffffffffffffffffffff16021790555050565b600080839050600073ce2ecd6ca12352b0befc173fc216fbe8e5668dae63f47d33b58360006040518363ffffffff1660e01b8152600401613243929190615233565b6040805180830381865af415801561325f573d6000803e3d6000fd5b505050506040513d601f19601f820116820180604052508101906132839190615271565b80925081935050507f30644e72e131a029b85045b68181585d2833e84879b9709143e1f593f0000001806132ba576132b9614cf4565b5b848308915073ce2ecd6ca12352b0befc173fc216fbe8e5668dae63f47d33b583836040518363ffffffff1660e01b81526004016132f89291906152b1565b6040805180830381865af4158015613314573d6000803e3d6000fd5b505050506040513d601f19601f820116820180604052508101906133389190615271565b8092508193505050819250505092915050565b604051806101000160405280600890602082028036833780820191505090505090565b604051806060016040528061338161343d565b815260200161338e6134bd565b815260200161339b61343d565b81525090565b6040518060400160405280600290602082028036833780820191505090505090565b60405180604001604052806002905b6133da6133a1565b8152602001906001900390816133d25790505090565b6040518060a0016040528061340361343d565b81526020016134106134bd565b815260200161341d6134bd565b815260200161342a6134bd565b81526020016134376134e3565b81525090565b604051806040016040528060008152602001600081525090565b6040518060600160405280600390602082028036833780820191505090505090565b6040518060800160405280600490602082028036833780820191505090505090565b6040518060200160405280600190602082028036833780820191505090505090565b60405180604001604052806134d06133a1565b81526020016134dd6133a1565b81525090565b6040518060a001604052806005905b6134fa61343d565b8152602001906001900390816134f25790505090565b6000604051905090565b600080fd5b600080fd5b600080fd5b600080fd5b6000601f19601f8301169050919050565b7f4e487b7100000000000000000000000000000000000000000000000000000000600052604160045260246000fd5b6135778261352e565b810181811067ffffffffffffffff821117156135965761359561353f565b5b80604052505050565b60006135a9613510565b90506135b5828261356e565b919050565b600067ffffffffffffffff8211156135d5576135d461353f565b5b6135de8261352e565b9050602081019050919050565b82818337600083830152505050565b600061360d613608846135ba565b61359f565b90508281526020810184848401111561362957613628613529565b5b6136348482856135eb565b509392505050565b600082601f83011261365157613650613524565b5b81356136618482602086016135fa565b91505092915050565b600067ffffffffffffffff8211156136855761368461353f565b5b602082029050919050565b600080fd5b6000819050919050565b6136a881613695565b81146136b357600080fd5b50565b6000813590506136c58161369f565b92915050565b60006136de6136d98461366a565b61359f565b905080602084028301858111156136f8576136f7613690565b5b835b81811015613721578061370d88826136b6565b8452602084019350506020810190506136fa565b5050509392505050565b600082601f8301126137405761373f613524565b5b600861374d8482856136cb565b91505092915050565b60007cffffffffffffffffffffffffffffffffffffffffffffffffffffffffff82169050919050565b61378881613756565b811461379357600080fd5b50565b6000813590506137a58161377f565b92915050565b600080600080600061018086880312156137c8576137c761351a565b5b600086013567ffffffffffffffff8111156137e6576137e561351f565b5b6137f28882890161363c565b95505060206138038882890161372b565b945050610120613815888289016136b6565b935050610140613827888289016136b6565b92505061016061383988828901613796565b9150509295509295909350565b60006020828403121561385c5761385b61351a565b5b600061386a84828501613796565b91505092915050565b60008115159050919050565b61388881613873565b82525050565b60006020820190506138a3600083018461387f565b92915050565b6000806000806000806101a087890312156138c7576138c661351a565b5b600087013567ffffffffffffffff8111156138e5576138e461351f565b5b6138f189828a0161363c565b965050602061390289828a0161372b565b95505061012061391489828a016136b6565b94505061014061392689828a016136b6565b93505061016061393889828a016136b6565b92505061018061394a89828a01613796565b9150509295509295509295565b61396081613756565b82525050565b600060208201905061397b6000830184613957565b92915050565b600067ffffffffffffffff82111561399c5761399b61353f565b5b602082029050919050565b60006139ba6139b584613981565b61359f565b905080602084028301858111156139d4576139d3613690565b5b835b818110156139fd57806139e988826136b6565b8452602084019350506020810190506139d6565b5050509392505050565b600082601f830112613a1c57613a1b613524565b5b6002613a298482856139a7565b91505092915050565b600067ffffffffffffffff821115613a4d57613a4c61353f565b5b602082029050919050565b6000613a6b613a6684613a32565b61359f565b90508060408402830185811115613a8557613a84613690565b5b835b81811015613aae5780613a9a8882613a07565b845260208401935050604081019050613a87565b5050509392505050565b600082601f830112613acd57613acc613524565b5b6002613ada848285613a58565b91505092915050565b60008060006101008486031215613afd57613afc61351a565b5b6000613b0b86828701613a07565b9350506040613b1c86828701613ab8565b92505060c0613b2d86828701613a07565b9150509250925092565b600060089050919050565b600081905092915050565b6000819050919050565b613b6081613695565b82525050565b6000613b728383613b57565b60208301905092915050565b6000602082019050919050565b613b9481613b37565b613b9e8184613b42565b9250613ba982613b4d565b8060005b83811015613bda578151613bc18782613b66565b9650613bcc83613b7e565b925050600181019050613bad565b505050505050565b600061010082019050613bf86000830184613b8b565b92915050565b600067ffffffffffffffff821115613c1957613c1861353f565b5b602082029050919050565b6000613c37613c3284613bfe565b61359f565b90508060208402830185811115613c5157613c50613690565b5b835b81811015613c7a5780613c6688826136b6565b845260208401935050602081019050613c53565b5050509392505050565b600082601f830112613c9957613c98613524565b5b6004613ca6848285613c24565b91505092915050565b6000806000806101808587031215613cca57613cc961351a565b5b6000613cd887828801613a07565b9450506040613ce987828801613ab8565b93505060c0613cfa87828801613a07565b925050610100613d0c87828801613c84565b91505092959194509250565b600060208284031215613d2e57613d2d61351a565b5b6000613d3c848285016136b6565b91505092915050565b613d4e81613695565b82525050565b6000602082019050613d696000830184613d45565b92915050565b6000606082019050613d846000830186613957565b613d91602083018561387f565b613d9e604083018461387f565b949350505050565b600073ffffffffffffffffffffffffffffffffffffffff82169050919050565b6000613dd182613da6565b9050919050565b613de181613dc6565b82525050565b6000602082019050613dfc6000830184613dd8565b92915050565b613e0b81613873565b8114613e1657600080fd5b50565b600081359050613e2881613e02565b92915050565b600060208284031215613e4457613e4361351a565b5b6000613e5284828501613e19565b91505092915050565b613e6481613dc6565b8114613e6f57600080fd5b50565b600081359050613e8181613e5b565b92915050565b600060208284031215613e9d57613e9c61351a565b5b6000613eab84828501613e72565b91505092915050565b60006101008284031215613ecb57613eca61351a565b5b6000613ed98482850161372b565b91505092915050565b600060029050919050565b600081905092915050565b6000819050919050565b6000602082019050919050565b613f1881613ee2565b613f228184613eed565b9250613f2d82613ef8565b8060005b83811015613f5e578151613f458782613b66565b9650613f5083613f02565b925050600181019050613f31565b505050505050565b600060029050919050565b600081905092915050565b6000819050919050565b600081905092915050565b613f9a81613ee2565b613fa48184613f86565b9250613faf82613ef8565b8060005b83811015613fe0578151613fc78782613b66565b9650613fd283613f02565b925050600181019050613fb3565b505050505050565b6000613ff48383613f91565b60408301905092915050565b6000602082019050919050565b61401681613f66565b6140208184613f71565b925061402b82613f7c565b8060005b8381101561405c5781516140438782613fe8565b965061404e83614000565b92505060018101905061402f565b505050505050565b60006101008201905061407a6000830186613f0f565b614087604083018561400d565b61409460c0830184613f0f565b949350505050565b600082825260208201905092915050565b7f62726f616463617374207065726d697373696f6e2064656e6965640000000000600082015250565b60006140e3601b8361409c565b91506140ee826140ad565b602082019050919050565b60006020820190508181036000830152614112816140d6565b9050919050565b7f696e76616c6964206669656c6420656c656d656e7420696e2070726f6f660000600082015250565b600061414f601e8361409c565b915061415a82614119565b602082019050919050565b6000602082019050818103600083015261417e81614142565b9050919050565b7f6e756c6c696669657220616c7265616479207365656e00000000000000000000600082015250565b60006141bb60168361409c565b91506141c682614185565b602082019050919050565b600060208201905081810360008301526141ea816141ae565b9050919050565b7f65787465726e616c206e756c6c6966696572206e6f7420666f756e6400000000600082015250565b6000614227601c8361409c565b9150614232826141f1565b602082019050919050565b600060208201905081810360008301526142568161421a565b9050919050565b7f53656d6170686f72653a726f6f74206e6f74207365656e000000000000000000600082015250565b600061429360178361409c565b915061429e8261425d565b602082019050919050565b600060208201905081810360008301526142c281614286565b9050919050565b7f6e756c6c6966696572732068617368206d757374206265206c7420746865207360008201527f6e61726b207363616c6172206669656c64000000000000000000000000000000602082015250565b600061432560318361409c565b9150614330826142c9565b604082019050919050565b6000602082019050818103600083015261435481614318565b9050919050565b7f696e76616c69642070726f6f6600000000000000000000000000000000000000600082015250565b6000614391600d8361409c565b915061439c8261435b565b602082019050919050565b600060208201905081810360008301526143c081614384565b9050919050565b7f65787465726e616c206e756c6c696669657220616c726561647920646561637460008201527f6976617465640000000000000000000000000000000000000000000000000000602082015250565b600061442360268361409c565b915061442e826143c7565b604082019050919050565b6000602082019050818103600083015261445281614416565b9050919050565b7f4e487b7100000000000000000000000000000000000000000000000000000000600052603260045260246000fd5b7f76657269666965722d61582d6774652d7072696d652d71000000000000000000600082015250565b60006144be60178361409c565b91506144c982614488565b602082019050919050565b600060208201905081810360008301526144ed816144b1565b9050919050565b7f76657269666965722d61592d6774652d7072696d652d71000000000000000000600082015250565b600061452a60178361409c565b9150614535826144f4565b602082019050919050565b600060208201905081810360008301526145598161451d565b9050919050565b7f76657269666965722d6258302d6774652d7072696d652d710000000000000000600082015250565b600061459660188361409c565b91506145a182614560565b602082019050919050565b600060208201905081810360008301526145c581614589565b9050919050565b7f76657269666965722d6259302d6774652d7072696d652d710000000000000000600082015250565b600061460260188361409c565b915061460d826145cc565b602082019050919050565b60006020820190508181036000830152614631816145f5565b9050919050565b7f76657269666965722d6258312d6774652d7072696d652d710000000000000000600082015250565b600061466e60188361409c565b915061467982614638565b602082019050919050565b6000602082019050818103600083015261469d81614661565b9050919050565b7f76657269666965722d6259312d6774652d7072696d652d710000000000000000600082015250565b60006146da60188361409c565b91506146e5826146a4565b602082019050919050565b60006020820190508181036000830152614709816146cd565b9050919050565b7f76657269666965722d63582d6774652d7072696d652d71000000000000000000600082015250565b600061474660178361409c565b915061475182614710565b602082019050919050565b6000602082019050818103600083015261477581614739565b9050919050565b7f76657269666965722d63592d6774652d7072696d652d71000000000000000000600082015250565b60006147b260178361409c565b91506147bd8261477c565b602082019050919050565b600060208201905081810360008301526147e1816147a5565b9050919050565b7f76657269666965722d6774652d736e61726b2d7363616c61722d6669656c6400600082015250565b600061481e601f8361409c565b9150614829826147e8565b602082019050919050565b6000602082019050818103600083015261484d81614811565b9050919050565b7f4e487b7100000000000000000000000000000000000000000000000000000000600052601160045260246000fd5b600061488e82613695565b915061489983613695565b9250827fffffffffffffffffffffffffffffffffffffffffffffffffffffffffffffffff038211156148ce576148cd614854565b5b828201905092915050565b60006148e482613695565b91507fffffffffffffffffffffffffffffffffffffffffffffffffffffffffffffffff82141561491757614916614854565b5b600182019050919050565b7f63616e2774206265206e6f7468696e672d75702d6d792d736c656576652d766160008201527f6c75650000000000000000000000000000000000000000000000000000000000602082015250565b600061497e60238361409c565b915061498982614922565b604082019050919050565b600060208201905081810360008301526149ad81614971565b9050919050565b7f4f776e61626c653a2063616c6c6572206973206e6f7420746865206f776e6572600082015250565b60006149ea60208361409c565b91506149f5826149b4565b602082019050919050565b60006020820190508181036000830152614a19816149dd565b9050919050565b7f65787465726e616c206e756c6c696669657220697320616c726561647920616360008201527f7469766500000000000000000000000000000000000000000000000000000000602082015250565b6000614a7c60248361409c565b9150614a8782614a20565b604082019050919050565b60006020820190508181036000830152614aab81614a6f565b9050919050565b7f6e6f20737563682065787465726e616c206e756c6c6966696572000000000000600082015250565b6000614ae8601a8361409c565b9150614af382614ab2565b602082019050919050565b60006020820190508181036000830152614b1781614adb565b9050919050565b7f6e6f2065787465726e616c206e756c6c6966696572206578697374732061667460008201527f65722074686520737065636966696564206f6e65000000000000000000000000602082015250565b6000614b7a60348361409c565b9150614b8582614b1e565b604082019050919050565b60006020820190508181036000830152614ba981614b6d565b9050919050565b7f65787465726e616c206e756c6c696669657220616c7265616479207365740000600082015250565b6000614be6601e8361409c565b9150614bf182614bb0565b602082019050919050565b60006020820190508181036000830152614c1581614bd9565b9050919050565b7f70616972696e672d6d756c2d6661696c65640000000000000000000000000000600082015250565b6000614c5260128361409c565b9150614c5d82614c1c565b602082019050919050565b60006020820190508181036000830152614c8181614c45565b9050919050565b7f70616972696e672d6164642d6661696c65640000000000000000000000000000600082015250565b6000614cbe60128361409c565b9150614cc982614c88565b602082019050919050565b60006020820190508181036000830152614ced81614cb1565b9050919050565b7f4e487b7100000000000000000000000000000000000000000000000000000000600052601260045260246000fd5b6000614d2e82613695565b9150614d3983613695565b925082614d4957614d48614cf4565b5b828206905092915050565b6000614d5f82613695565b9150614d6a83613695565b925082821015614d7d57614d7c614854565b5b828203905092915050565b6000614d9382613695565b9150614d9e83613695565b9250817fffffffffffffffffffffffffffffffffffffffffffffffffffffffffffffffff0483118215151615614dd757614dd6614854565b5b828202905092915050565b7f70616972696e672d6f70636f64652d6661696c65640000000000000000000000600082015250565b6000614e1860158361409c565b9150614e2382614de2565b602082019050919050565b60006020820190508181036000830152614e4781614e0b565b9050919050565b7f496e6372656d656e74616c4d65726b6c65547265653a20696e736572744c656160008201527f6620617267756d656e74206d757374206265203c20534e41524b5f5343414c4160208201527f525f4649454c4400000000000000000000000000000000000000000000000000604082015250565b6000614ed060478361409c565b9150614edb82614e4e565b606082019050919050565b60006020820190508181036000830152614eff81614ec3565b9050919050565b60008160011c9050919050565b6000808291508390505b6001851115614f5d57808604811115614f3957614f38614854565b5b6001851615614f485780820291505b8081029050614f5685614f06565b9450614f1d565b94509492505050565b600082614f765760019050615032565b81614f845760009050615032565b8160018114614f9a5760028114614fa457614fd3565b6001915050615032565b60ff841115614fb657614fb5614854565b5b8360020a915084821115614fcd57614fcc614854565b5b50615032565b5060208310610133831016604e8410600b84101617156150085782820a90508381111561500357615002614854565b5b615032565b6150158484846001614f13565b9250905081840481111561502c5761502b614854565b5b81810290505b9392505050565b600061504482613695565b915061504f83613695565b925061507c7fffffffffffffffffffffffffffffffffffffffffffffffffffffffffffffffff8484614f66565b905092915050565b7f496e6372656d656e74616c4d65726b6c65547265653a2074726565206973206660008201527f756c6c0000000000000000000000000000000000000000000000000000000000602082015250565b60006150e060238361409c565b91506150eb82615084565b604082019050919050565b6000602082019050818103600083015261510f816150d3565b9050919050565b600060ff82169050919050565b600061512e82615116565b915060ff82141561514257615141614854565b5b600182019050919050565b7f4f776e61626c653a206e6577206f776e657220697320746865207a65726f206160008201527f6464726573730000000000000000000000000000000000000000000000000000602082015250565b60006151a960268361409c565b91506151b48261514d565b604082019050919050565b600060208201905081810360008301526151d88161519c565b9050919050565b6151e881613695565b82525050565b6000819050919050565b6000819050919050565b600061521d615218615213846151ee565b6151f8565b613695565b9050919050565b61522d81615202565b82525050565b600060408201905061524860008301856151df565b6152556020830184615224565b9392505050565b60008151905061526b8161369f565b92915050565b600080604083850312156152885761528761351a565b5b60006152968582860161525c565b92505060206152a78582860161525c565b9150509250929050565b60006040820190506152c660008301856151df565b6152d360208301846151df565b939250505056fea26469706673582212207f31bfe841c3c83f9ec6cd06b39ce715c84a6a56008029d265d3fba2b303f85a64736f6c634300080b0033",
  "deployedBytecode": "0x608060405234801561001057600080fd5b506004361061018e5760003560e01c80638da5cb5b116100de578063c8cf02da11610097578063ebf0c71711610071578063ebf0c7171461049b578063f1c621ee146104b9578063f2fde38b146104e9578063f5ab0dd6146105055761018e565b8063c8cf02da14610431578063ce85bbdb1461044f578063eac4287e1461046b5761018e565b80638da5cb5b146103595780638f32d59b146103775780638f6efd0014610395578063ba10b81d146103b3578063c3a3407f146103d1578063c4cd5596146104015761018e565b80635e05ea171161014b5780636ebf6265116101255780636ebf6265146102e3578063715018a6146103015780637a5519f91461030b578063819bd8a51461033d5761018e565b80635e05ea17146102535780635fe8c13b146102835780636d80efca146102b35761018e565b80630e57596f1461019357806323baaa83146101af578063283ebaf4146101cb578063539f38b2146101e95780635d3ce725146102055780635d86faba14610235575b600080fd5b6101ad60048036038101906101a89190614584565b610537565b005b6101c960048036038101906101c491906146bd565b610841565b005b6101d3610a4a565b6040516101e09190614da6565b60405180910390f35b61020360048036038101906101fe91906146bd565b610a5d565b005b61021f600480360381019061021a9190614617565b610a6b565b60405161022c9190614da6565b60405180910390f35b61023d610bd7565b60405161024a9190615161565b60405180910390f35b61026d6004803603810190610268919061447c565b610c06565b60405161027a9190614d8a565b60405180910390f35b61029d600480360381019061029891906144cc565b610f39565b6040516102aa9190614da6565b60405180910390f35b6102cd60048036038101906102c891906146e6565b611906565b6040516102da91906151b3565b60405180910390f35b6102eb61195d565b6040516102f891906151b3565b60405180910390f35b610309611963565b005b610325600480360381019061032091906146bd565b611a68565b6040516103349392919061517c565b60405180910390f35b610357600480360381019061035291906146bd565b611ad5565b005b610361611cde565b60405161036e9190614d37565b60405180910390f35b61037f611d07565b60405161038c9190614da6565b60405180910390f35b61039d611d5e565b6040516103aa91906151b3565b60405180910390f35b6103bb611d64565b6040516103c891906151b3565b60405180910390f35b6103eb60048036038101906103e691906146bd565b611d6e565b6040516103f89190615161565b60405180910390f35b61041b600480360381019061041691906146e6565b611f4b565b6040516104289190614da6565b60405180910390f35b610439611f6b565b6040516104469190615161565b60405180910390f35b6104696004803603810190610464919061455b565b611f9a565b005b610485600480360381019061048091906146bd565b611fe6565b6040516104929190614da6565b60405180910390f35b6104a3612051565b6040516104b091906151b3565b60405180910390f35b6104d360048036038101906104ce91906146e6565b612057565b6040516104e09190614da6565b60405180910390f35b61050360048036038101906104fe9190614453565b612077565b005b61051f600480360381019061051a9190614531565b6120ca565b60405161052e93929190614d52565b60405180910390f35b6047601d9054906101000a900460ff1615806105575750610556611d07565b5b610596576040517f08c379a000000000000000000000000000000000000000000000000000000000815260040161058d90615121565b60405180910390fd5b84848484846105a484612346565b6105e3576040517f08c379a00000000000000000000000000000000000000000000000000000000081526004016105da90615021565b60405180910390fd5b600015156048600084815260200190815260200160002060009054906101000a900460ff1615151461064a576040517f08c379a000000000000000000000000000000000000000000000000000000000815260040161064190614f01565b60405180910390fd5b61065381611fe6565b610692576040517f08c379a000000000000000000000000000000000000000000000000000000000815260040161068990614fe1565b60405180910390fd5b6043600084815260200190815260200160002060009054906101000a900460ff166106f2576040517f08c379a00000000000000000000000000000000000000000000000000000000081526004016106e990614f61565b60405180910390fd5b60006106fd8661268f565b90507f30644e72e131a029b85045b68181585d2833e84879b9709143e1f593f00000018310610761576040517f08c379a000000000000000000000000000000000000000000000000000000000815260040161075890614e61565b60405180910390fd5b60006040518060800160405280868152602001858152602001838152602001847cffffffffffffffffffffffffffffffffffffffffffffffffffffffffff16815250905060008060006107b3896120ca565b9250925092506107c583838387610f39565b610804576040517f08c379a00000000000000000000000000000000000000000000000000000000081526004016107fb90615061565b60405180910390fd5b6001604860008e815260200190815260200160002060006101000a81548160ff021916908315150217905550505050505050505050505050505050565b60446000827cffffffffffffffffffffffffffffffffffffffffffffffffffffffffff167cffffffffffffffffffffffffffffffffffffffffffffffffffffffffff168152602001908152602001600020600001601d9054906101000a900460ff166108e2576040517f08c379a00000000000000000000000000000000000000000000000000000000081526004016108d990614fe1565b60405180910390fd5b6001151560446000837cffffffffffffffffffffffffffffffffffffffffffffffffffffffffff167cffffffffffffffffffffffffffffffffffffffffffffffffffffffffff168152602001908152602001600020600001601e9054906101000a900460ff1615151461098a576040517f08c379a000000000000000000000000000000000000000000000000000000000815260040161098190614fa1565b60405180910390fd5b600060446000837cffffffffffffffffffffffffffffffffffffffffffffffffffffffffff167cffffffffffffffffffffffffffffffffffffffffffffffffffffffffff168152602001908152602001600020600001601e6101000a81548160ff02191690831515021790555060001515817cffffffffffffffffffffffffffffffffffffffffffffffffffffffffff167fb8d2b8a2b352df7f139810483b3c80fc3a4a88711c90bdb7180f1030b7f49acf60405160405180910390a350565b6047601d9054906101000a900460ff1681565b610a688160006126a7565b50565b6000806040518060800160405280878152602001868152602001858152602001847cffffffffffffffffffffffffffffffffffffffffffffffffffffffffff1681525090506000806000610abe8a6120ca565b92509250925060001515604860008a815260200190815260200160002060009054906101000a900460ff161515148015610aff575086610afd8c61268f565b145b8015610b125750610b0f8b61268f565b87145b8015610b235750610b2286611fe6565b5b8015610b4c5750604360008a815260200190815260200160002060009054906101000a900460ff165b8015610b5d5750610b5c8a612346565b5b8015610b8857507f30644e72e131a029b85045b68181585d2833e84879b9709143e1f593f000000189105b8015610bb357507f30644e72e131a029b85045b68181585d2833e84879b9709143e1f593f000000188105b8015610bc75750610bc683838387610f39565b5b9450505050509695505050505050565b604660009054906101000a90047cffffffffffffffffffffffffffffffffffffffffffffffffffffffffff1681565b610c0e613f95565b60405180610100016040528085600060028110610c54577f4e487b7100000000000000000000000000000000000000000000000000000000600052603260045260246000fd5b6020020151815260200185600160028110610c98577f4e487b7100000000000000000000000000000000000000000000000000000000600052603260045260246000fd5b6020020151815260200184600060028110610cdc577f4e487b7100000000000000000000000000000000000000000000000000000000600052603260045260246000fd5b6020020151600060028110610d1a577f4e487b7100000000000000000000000000000000000000000000000000000000600052603260045260246000fd5b6020020151815260200184600060028110610d5e577f4e487b7100000000000000000000000000000000000000000000000000000000600052603260045260246000fd5b6020020151600160028110610d9c577f4e487b7100000000000000000000000000000000000000000000000000000000600052603260045260246000fd5b6020020151815260200184600160028110610de0577f4e487b7100000000000000000000000000000000000000000000000000000000600052603260045260246000fd5b6020020151600060028110610e1e577f4e487b7100000000000000000000000000000000000000000000000000000000600052603260045260246000fd5b6020020151815260200184600160028110610e62577f4e487b7100000000000000000000000000000000000000000000000000000000600052603260045260246000fd5b6020020151600160028110610ea0577f4e487b7100000000000000000000000000000000000000000000000000000000600052603260045260246000fd5b6020020151815260200183600060028110610ee4577f4e487b7100000000000000000000000000000000000000000000000000000000600052603260045260246000fd5b6020020151815260200183600160028110610f28577f4e487b7100000000000000000000000000000000000000000000000000000000600052603260045260246000fd5b602002015181525090509392505050565b6000610f43613fb8565b604051806040016040528087600060028110610f88577f4e487b7100000000000000000000000000000000000000000000000000000000600052603260045260246000fd5b6020020151815260200187600160028110610fcc577f4e487b7100000000000000000000000000000000000000000000000000000000600052603260045260246000fd5b60200201518152508160000181905250604051806040016040528060405180604001604052808860006002811061102c577f4e487b7100000000000000000000000000000000000000000000000000000000600052603260045260246000fd5b602002015160006002811061106a577f4e487b7100000000000000000000000000000000000000000000000000000000600052603260045260246000fd5b60200201518152602001886000600281106110ae577f4e487b7100000000000000000000000000000000000000000000000000000000600052603260045260246000fd5b60200201516001600281106110ec577f4e487b7100000000000000000000000000000000000000000000000000000000600052603260045260246000fd5b6020020151815250815260200160405180604001604052808860016002811061113e577f4e487b7100000000000000000000000000000000000000000000000000000000600052603260045260246000fd5b602002015160006002811061117c577f4e487b7100000000000000000000000000000000000000000000000000000000600052603260045260246000fd5b60200201518152602001886001600281106111c0577f4e487b7100000000000000000000000000000000000000000000000000000000600052603260045260246000fd5b60200201516001600281106111fe577f4e487b7100000000000000000000000000000000000000000000000000000000600052603260045260246000fd5b60200201518152508152508160200181905250604051806040016040528085600060028110611256577f4e487b7100000000000000000000000000000000000000000000000000000000600052603260045260246000fd5b602002015181526020018560016002811061129a577f4e487b7100000000000000000000000000000000000000000000000000000000600052603260045260246000fd5b6020020151815250816040018190525060006112b4612ab9565b90506000604051806040016040528060008152602001600081525090507f30644e72e131a029b85045b68181585d97816a916871ca8d3c208c16d87cfd478360000151600001511061133b576040517f08c379a000000000000000000000000000000000000000000000000000000000815260040161133290614e01565b60405180910390fd5b7f30644e72e131a029b85045b68181585d97816a916871ca8d3c208c16d87cfd47836000015160200151106113a5576040517f08c379a000000000000000000000000000000000000000000000000000000000815260040161139c906150c1565b60405180910390fd5b7f30644e72e131a029b85045b68181585d97816a916871ca8d3c208c16d87cfd47836020015160000151600060028110611408577f4e487b7100000000000000000000000000000000000000000000000000000000600052603260045260246000fd5b60200201511061144d576040517f08c379a000000000000000000000000000000000000000000000000000000000815260040161144490614dc1565b60405180910390fd5b7f30644e72e131a029b85045b68181585d97816a916871ca8d3c208c16d87cfd478360200151602001516000600281106114b0577f4e487b7100000000000000000000000000000000000000000000000000000000600052603260045260246000fd5b6020020151106114f5576040517f08c379a00000000000000000000000000000000000000000000000000000000081526004016114ec90615001565b60405180910390fd5b7f30644e72e131a029b85045b68181585d97816a916871ca8d3c208c16d87cfd47836020015160000151600160028110611558577f4e487b7100000000000000000000000000000000000000000000000000000000600052603260045260246000fd5b60200201511061159d576040517f08c379a000000000000000000000000000000000000000000000000000000000815260040161159490614e81565b60405180910390fd5b7f30644e72e131a029b85045b68181585d97816a916871ca8d3c208c16d87cfd47836020015160200151600160028110611600577f4e487b7100000000000000000000000000000000000000000000000000000000600052603260045260246000fd5b602002015110611645576040517f08c379a000000000000000000000000000000000000000000000000000000000815260040161163c90614e21565b60405180910390fd5b7f30644e72e131a029b85045b68181585d97816a916871ca8d3c208c16d87cfd47836040015160000151106116af576040517f08c379a00000000000000000000000000000000000000000000000000000000081526004016116a690615101565b60405180910390fd5b7f30644e72e131a029b85045b68181585d97816a916871ca8d3c208c16d87cfd4783604001516020015110611719576040517f08c379a000000000000000000000000000000000000000000000000000000000815260040161171090614f41565b60405180910390fd5b60005b6004811015611876577f30644e72e131a029b85045b68181585d2833e84879b9709143e1f593f000000186826004811061177f577f4e487b7100000000000000000000000000000000000000000000000000000000600052603260045260246000fd5b6020020151106117c4576040517f08c379a00000000000000000000000000000000000000000000000000000000081526004016117bb90614f81565b60405180910390fd5b6118618261185c85608001516001856117dd91906153b1565b60058110611814577f4e487b7100000000000000000000000000000000000000000000000000000000600052603260045260246000fd5b6020020151898560048110611852577f4e487b7100000000000000000000000000000000000000000000000000000000600052603260045260246000fd5b6020020151613076565b6131c5565b9150808061186e906156d6565b91505061171c565b506118c38183608001516000600581106118b9577f4e487b7100000000000000000000000000000000000000000000000000000000600052603260045260246000fd5b60200201516131c5565b90506118f96118d58460000151613360565b8460200151846000015185602001518587604001518960400151896060015161341e565b9350505050949350505050565b600060495482141561194d576040517f08c379a000000000000000000000000000000000000000000000000000000000815260040161194490614de1565b60405180910390fd5b61195682613a45565b9050919050565b60495481565b61196b611d07565b6119aa576040517f08c379a00000000000000000000000000000000000000000000000000000000081526004016119a190614fc1565b60405180910390fd5b600073ffffffffffffffffffffffffffffffffffffffff1660008054906101000a900473ffffffffffffffffffffffffffffffffffffffff1673ffffffffffffffffffffffffffffffffffffffff167f8be0079c531659141344cd1fd0a4f28419497f9722a3daafe3b4186f6b6457e060405160405180910390a360008060006101000a81548173ffffffffffffffffffffffffffffffffffffffff021916908373ffffffffffffffffffffffffffffffffffffffff160217905550565b60446020528060005260406000206000915090508060000160009054906101000a90047cffffffffffffffffffffffffffffffffffffffffffffffffffffffffff169080600001601d9054906101000a900460ff169080600001601e9054906101000a900460ff16905083565b60446000827cffffffffffffffffffffffffffffffffffffffffffffffffffffffffff167cffffffffffffffffffffffffffffffffffffffffffffffffffffffffff168152602001908152602001600020600001601d9054906101000a900460ff16611b76576040517f08c379a0000000000000000000000000000000000000000000000000000000008152600401611b6d90614fe1565b60405180910390fd5b6000151560446000837cffffffffffffffffffffffffffffffffffffffffffffffffffffffffff167cffffffffffffffffffffffffffffffffffffffffffffffffffffffffff168152602001908152602001600020600001601e9054906101000a900460ff16151514611c1e576040517f08c379a0000000000000000000000000000000000000000000000000000000008152600401611c1590615081565b60405180910390fd5b600160446000837cffffffffffffffffffffffffffffffffffffffffffffffffffffffffff167cffffffffffffffffffffffffffffffffffffffffffffffffffffffffff168152602001908152602001600020600001601e6101000a81548160ff02191690831515021790555060011515817cffffffffffffffffffffffffffffffffffffffffffffffffffffffffff167fb8d2b8a2b352df7f139810483b3c80fc3a4a88711c90bdb7180f1030b7f49acf60405160405180910390a350565b60008060009054906101000a900473ffffffffffffffffffffffffffffffffffffffff16905090565b60008060009054906101000a900473ffffffffffffffffffffffffffffffffffffffff1673ffffffffffffffffffffffffffffffffffffffff163373ffffffffffffffffffffffffffffffffffffffff1614905090565b60455481565b6000600154905090565b600060446000837cffffffffffffffffffffffffffffffffffffffffffffffffffffffffff167cffffffffffffffffffffffffffffffffffffffffffffffffffffffffff168152602001908152602001600020600001601d9054906101000a900460ff16611e11576040517f08c379a0000000000000000000000000000000000000000000000000000000008152600401611e08906150a1565b60405180910390fd5b600060446000847cffffffffffffffffffffffffffffffffffffffffffffffffffffffffff167cffffffffffffffffffffffffffffffffffffffffffffffffffffffffff16815260200190815260200160002060000160009054906101000a90047cffffffffffffffffffffffffffffffffffffffffffffffffffffffffff1690506001604554118015611f03575060446000827cffffffffffffffffffffffffffffffffffffffffffffffffffffffffff167cffffffffffffffffffffffffffffffffffffffffffffffffffffffffff168152602001908152602001600020600001601d9054906101000a900460ff165b611f42576040517f08c379a0000000000000000000000000000000000000000000000000000000008152600401611f3990614ee1565b60405180910390fd5b80915050919050565b60486020528060005260406000206000915054906101000a900460ff1681565b604760009054906101000a90047cffffffffffffffffffffffffffffffffffffffffffffffffffffffffff1681565b806047601d6101000a81548160ff0219169083151502179055508015157ffba91b9002bc7732a7bff1b44ee16a30ebaeb06d7921779034c6a6ab27e69c2760405160405180910390a250565b600060446000837cffffffffffffffffffffffffffffffffffffffffffffffffffffffffff167cffffffffffffffffffffffffffffffffffffffffffffffffffffffffff168152602001908152602001600020600001601e9054906101000a900460ff169050919050565b60025481565b60436020528060005260406000206000915054906101000a900460ff1681565b61207f611d07565b6120be576040517f08c379a00000000000000000000000000000000000000000000000000000000081526004016120b590614fc1565b60405180910390fd5b6120c781613cda565b50565b6120d2613feb565b6120da61400d565b6120e2613feb565b604051806040016040528085600060088110612127577f4e487b7100000000000000000000000000000000000000000000000000000000600052603260045260246000fd5b602002015181526020018560016008811061216b577f4e487b7100000000000000000000000000000000000000000000000000000000600052603260045260246000fd5b602002015181525060405180604001604052806040518060400160405280886002600881106121c3577f4e487b7100000000000000000000000000000000000000000000000000000000600052603260045260246000fd5b6020020151815260200188600360088110612207577f4e487b7100000000000000000000000000000000000000000000000000000000600052603260045260246000fd5b60200201518152508152602001604051806040016040528088600460088110612259577f4e487b7100000000000000000000000000000000000000000000000000000000600052603260045260246000fd5b602002015181526020018860056008811061229d577f4e487b7100000000000000000000000000000000000000000000000000000000600052603260045260246000fd5b60200201518152508152506040518060400160405280876006600881106122ed577f4e487b7100000000000000000000000000000000000000000000000000000000600052603260045260246000fd5b6020020151815260200187600760088110612331577f4e487b7100000000000000000000000000000000000000000000000000000000600052603260045260246000fd5b60200201518152509250925092509193909250565b60007f30644e72e131a029b85045b68181585d2833e84879b9709143e1f593f0000001826000600881106123a3577f4e487b7100000000000000000000000000000000000000000000000000000000600052603260045260246000fd5b602002015110801561241257507f30644e72e131a029b85045b68181585d2833e84879b9709143e1f593f00000018260016008811061240b577f4e487b7100000000000000000000000000000000000000000000000000000000600052603260045260246000fd5b6020020151105b801561247b57507f30644e72e131a029b85045b68181585d2833e84879b9709143e1f593f000000182600260088110612474577f4e487b7100000000000000000000000000000000000000000000000000000000600052603260045260246000fd5b6020020151105b80156124e457507f30644e72e131a029b85045b68181585d2833e84879b9709143e1f593f0000001826003600881106124dd577f4e487b7100000000000000000000000000000000000000000000000000000000600052603260045260246000fd5b6020020151105b801561254d57507f30644e72e131a029b85045b68181585d2833e84879b9709143e1f593f000000182600460088110612546577f4e487b7100000000000000000000000000000000000000000000000000000000600052603260045260246000fd5b6020020151105b80156125b657507f30644e72e131a029b85045b68181585d2833e84879b9709143e1f593f0000001826005600881106125af577f4e487b7100000000000000000000000000000000000000000000000000000000600052603260045260246000fd5b6020020151105b801561261f57507f30644e72e131a029b85045b68181585d2833e84879b9709143e1f593f000000182600660088110612618577f4e487b7100000000000000000000000000000000000000000000000000000000600052603260045260246000fd5b6020020151105b801561268857507f30644e72e131a029b85045b68181585d2833e84879b9709143e1f593f000000182600760088110612681577f4e487b7100000000000000000000000000000000000000000000000000000000600052603260045260246000fd5b6020020151105b9050919050565b60006008828051906020012060001c901c9050919050565b80156127055781604660006101000a8154817cffffffffffffffffffffffffffffffffffffffffffffffffffffffffff02191690837cffffffffffffffffffffffffffffffffffffffffffffffffffffffffff16021790555061287e565b6000151560446000847cffffffffffffffffffffffffffffffffffffffffffffffffffffffffff167cffffffffffffffffffffffffffffffffffffffffffffffffffffffffff168152602001908152602001600020600001601d9054906101000a900460ff161515146127ad576040517f08c379a00000000000000000000000000000000000000000000000000000000081526004016127a490614ea1565b60405180910390fd5b8160446000604760009054906101000a90047cffffffffffffffffffffffffffffffffffffffffffffffffffffffffff167cffffffffffffffffffffffffffffffffffffffffffffffffffffffffff167cffffffffffffffffffffffffffffffffffffffffffffffffffffffffff16815260200190815260200160002060000160006101000a8154817cffffffffffffffffffffffffffffffffffffffffffffffffffffffffff02191690837cffffffffffffffffffffffffffffffffffffffffffffffffffffffffff1602179055505b600060446000847cffffffffffffffffffffffffffffffffffffffffffffffffffffffffff167cffffffffffffffffffffffffffffffffffffffffffffffffffffffffff16815260200190815260200160002060000160006101000a8154817cffffffffffffffffffffffffffffffffffffffffffffffffffffffffff02191690837cffffffffffffffffffffffffffffffffffffffffffffffffffffffffff160217905550600160446000847cffffffffffffffffffffffffffffffffffffffffffffffffffffffffff167cffffffffffffffffffffffffffffffffffffffffffffffffffffffffff168152602001908152602001600020600001601e6101000a81548160ff021916908315150217905550600160446000847cffffffffffffffffffffffffffffffffffffffffffffffffffffffffff167cffffffffffffffffffffffffffffffffffffffffffffffffffffffffff168152602001908152602001600020600001601d6101000a81548160ff02191690831515021790555081604760006101000a8154817cffffffffffffffffffffffffffffffffffffffffffffffffffffffffff02191690837cffffffffffffffffffffffffffffffffffffffffffffffffffffffffff16021790555060456000815480929190612a64906156d6565b9190505550817cffffffffffffffffffffffffffffffffffffffffffffffffffffffffff167fd1ca56647596090d70fa8d49bcc376b97248314e3f204c491333b3440405f58960405160405180910390a25050565b612ac161403a565b60405180604001604052807f2aeb4aafb1c7a3e1445536842c9d8225ebd94a09d15cda4e17d944add94ede4781526020017f03ab549390940a14a8d8d3fe3f6ecb68195432778936e617d914f14d1df035798152508160000181905250604051806040016040528060405180604001604052807f2fd95a27d1b9d966bb3ae847506bfc2ffa3e5c945f4502cf0f10dfd658960f9481526020017f167a6701c17cc2734e919e79f59f110b511f1ff811a06fd840949416d10ddafc815250815260200160405180604001604052807f02b4c85ab8a8fbe2d979af025230a96c10e07c5e4163fc7d633ba083fc44f9ee81526020017f303ca2757a59cbf0e0bbdb8f1712f29e3e804cd258e18aca0da7f6bd7136e8068152508152508160200181905250604051806040016040528060405180604001604052807f0fa9bb662fc3acd975ee36a6ea2c0c709c3a75303345702acaf0d845428f932b81526020017f2f2d53e983b994de7cac84d565b30b457f11273ff5a898ce80c9fd66bdf9e075815250815260200160405180604001604052807f2d1f4da8e0f4d49c61fd3ec22a104df1a5159b1e329b3506354559ebafff080181526020017f2ff6e55d56bb54b32d728131475c6ca6d7a92cc6b82bfcd59311c765e7edcb458152508152508160400181905250604051806040016040528060405180604001604052807f23511787419db90d2bad3c8bfbac9f4398c26cd6cd34bb5276c2cd94b7b7d26f81526020017f17e0c1843c4ec925cf3d09b051978f5f23d1d166117d572f38dbd874126dead5815250815260200160405180604001604052807f06e374c176a74bf3d0c0329b9d03b53693d77f928cd1fc4c6f6053ec00f2ca2581526020017f2d832fd3933c30f159e18dbe33bc7496240cc22bcece79faf02388e5bd366a21815250815250816060018190525060405180604001604052807f2174881f2cb4aee5292b2f603cb183bf301d263b1a11c7ec22585fec00ecce9881526020017e3e5e75ec133240c640391a4cb8a18e2fbc4f6336e6b6693643735d5c6230878152508160800151600060058110612dff577f4e487b7100000000000000000000000000000000000000000000000000000000600052603260045260246000fd5b602002018190525060405180604001604052807f1664a7bd963677623594fb978543aceb4fc3576b0f976c519a22bdbca62226c381526020017f0e28ccde23de1c2f78b1d8d35660f7014f391e354756aad1f5f75d159cfab6528152508160800151600160058110612e9a577f4e487b7100000000000000000000000000000000000000000000000000000000600052603260045260246000fd5b602002018190525060405180604001604052807f17439f723025a06c170891f82daf6fbf4fe30c3824d1b0820262e7ee632bd62d81526020017f0a74bd079e9f728a7c5dc31ea3c7c43e978be8921a351b9de0df3cfb2f6018558152508160800151600260058110612f35577f4e487b7100000000000000000000000000000000000000000000000000000000600052603260045260246000fd5b602002018190525060405180604001604052807f274660c30271883b25933fc39f835337bafcb604536af04f6264fe96a7b32d5181526020017f27e6947d2ab1e5b87fa5e0b4fe610ee7a623bdf4e0225e249c6a3446af5085b58152508160800151600360058110612fd0577f4e487b7100000000000000000000000000000000000000000000000000000000600052603260045260246000fd5b602002018190525060405180604001604052807f108ba5cc069e7368567294f740794f36d4c7d99d40dd667fe5dd544967bdc9a981526020017f2175417a3760110f546c7f7f30d3195d766cbe31f34013b45322ff7fd974635c815250816080015160046005811061306b577f4e487b7100000000000000000000000000000000000000000000000000000000600052603260045260246000fd5b602002018190525090565b61307e614087565b6130866140a1565b8360000151816000600381106130c5577f4e487b7100000000000000000000000000000000000000000000000000000000600052603260045260246000fd5b60200201818152505083602001518160016003811061310d577f4e487b7100000000000000000000000000000000000000000000000000000000600052603260045260246000fd5b6020020181815250508281600260038110613151577f4e487b7100000000000000000000000000000000000000000000000000000000600052603260045260246000fd5b602002018181525050600060608360808460076107d05a03fa9050806000811461317a5761317c565bfe5b50806131bd576040517f08c379a00000000000000000000000000000000000000000000000000000000081526004016131b490614f21565b60405180910390fd5b505092915050565b6131cd614087565b6131d56140c3565b836000015181600060048110613214577f4e487b7100000000000000000000000000000000000000000000000000000000600052603260045260246000fd5b60200201818152505083602001518160016004811061325c577f4e487b7100000000000000000000000000000000000000000000000000000000600052603260045260246000fd5b6020020181815250508260000151816002600481106132a4577f4e487b7100000000000000000000000000000000000000000000000000000000600052603260045260246000fd5b6020020181815250508260200151816003600481106132ec577f4e487b7100000000000000000000000000000000000000000000000000000000600052603260045260246000fd5b602002018181525050600060608360c08460066107d05a03fa9050806000811461331557613317565bfe5b5080613358576040517f08c379a000000000000000000000000000000000000000000000000000000000815260040161334f906150e1565b60405180910390fd5b505092915050565b613368614087565b60008260000151148015613380575060008260200151145b156133a35760405180604001604052806000815260200160008152509050613419565b6040518060400160405280836000015181526020017f30644e72e131a029b85045b68181585d97816a916871ca8d3c208c16d87cfd4784602001516133e89190615749565b7f30644e72e131a029b85045b68181585d97816a916871ca8d3c208c16d87cfd4761341391906155d2565b81525090505b919050565b60008060405180608001604052808b8152602001898152602001878152602001858152509050600060405180608001604052808b815260200189815260200187815260200185815250905060006018905060008167ffffffffffffffff8111156134b1577f4e487b7100000000000000000000000000000000000000000000000000000000600052604160045260246000fd5b6040519080825280602002602001820160405280156134df5781602001602082028036833780820191505090505b50905060005b600481101561397d5760006006826134fd9190615578565b9050858260048110613538577f4e487b7100000000000000000000000000000000000000000000000000000000600052603260045260246000fd5b6020020151600001518360008361354f91906153b1565b81518110613586577f4e487b7100000000000000000000000000000000000000000000000000000000600052603260045260246000fd5b6020026020010181815250508582600481106135cb577f4e487b7100000000000000000000000000000000000000000000000000000000600052603260045260246000fd5b602002015160200151836001836135e291906153b1565b81518110613619577f4e487b7100000000000000000000000000000000000000000000000000000000600052603260045260246000fd5b60200260200101818152505084826004811061365e577f4e487b7100000000000000000000000000000000000000000000000000000000600052603260045260246000fd5b6020020151600001516000600281106136a0577f4e487b7100000000000000000000000000000000000000000000000000000000600052603260045260246000fd5b6020020151836002836136b391906153b1565b815181106136ea577f4e487b7100000000000000000000000000000000000000000000000000000000600052603260045260246000fd5b60200260200101818152505084826004811061372f577f4e487b7100000000000000000000000000000000000000000000000000000000600052603260045260246000fd5b602002015160000151600160028110613771577f4e487b7100000000000000000000000000000000000000000000000000000000600052603260045260246000fd5b60200201518360038361378491906153b1565b815181106137bb577f4e487b7100000000000000000000000000000000000000000000000000000000600052603260045260246000fd5b602002602001018181525050848260048110613800577f4e487b7100000000000000000000000000000000000000000000000000000000600052603260045260246000fd5b602002015160200151600060028110613842577f4e487b7100000000000000000000000000000000000000000000000000000000600052603260045260246000fd5b60200201518360048361385591906153b1565b8151811061388c577f4e487b7100000000000000000000000000000000000000000000000000000000600052603260045260246000fd5b6020026020010181815250508482600481106138d1577f4e487b7100000000000000000000000000000000000000000000000000000000600052603260045260246000fd5b602002015160200151600160028110613913577f4e487b7100000000000000000000000000000000000000000000000000000000600052603260045260246000fd5b60200201518360058361392691906153b1565b8151811061395d577f4e487b7100000000000000000000000000000000000000000000000000000000600052603260045260246000fd5b602002602001018181525050508080613975906156d6565b9150506134e5565b506139866140e5565b6000602082602086026020860160086107d05a03fa905080600081146139ab576139ad565bfe5b50806139ee576040517f08c379a00000000000000000000000000000000000000000000000000000000081526004016139e590615141565b60405180910390fd5b600082600060018110613a2a577f4e487b7100000000000000000000000000000000000000000000000000000000600052603260045260246000fd5b60200201511415965050505050505098975050505050505050565b60007f30644e72e131a029b85045b68181585d2833e84879b9709143e1f593f00000018210613aa9576040517f08c379a0000000000000000000000000000000000000000000000000000000008152600401613aa090615041565b60405180910390fd5b6000600154905060008060149054906101000a900460ff1660ff169050806002613ad3919061545a565b8210613b14576040517f08c379a0000000000000000000000000000000000000000000000000000000008152600401613b0b90614ec1565b60405180910390fd5b600084905060008060005b600060149054906101000a900460ff1660ff168160ff161015613c48576000600287613b4b9190615749565b1415613bdd5783925060038160ff1660208110613b91577f4e487b7100000000000000000000000000000000000000000000000000000000600052603260045260246000fd5b015491508360238260ff1660208110613bd3577f4e487b7100000000000000000000000000000000000000000000000000000000600052603260045260246000fd5b0181905550613c22565b60238160ff1660208110613c1a577f4e487b7100000000000000000000000000000000000000000000000000000000600052603260045260246000fd5b015492508391505b613c2c8383613e07565b9350600186901c95508080613c409061571f565b915050613b1f565b5082600281905550600160436000600254815260200190815260200160002060006101000a81548160ff021916908315150217905550600060015490506001806000828254613c9791906153b1565b9250508190555080887fe6f49fa84abd31919f446b22a52bb3ceae774b4b87f062f022fec45c46f4f45860405160405180910390a3859650505050505050919050565b600073ffffffffffffffffffffffffffffffffffffffff168173ffffffffffffffffffffffffffffffffffffffff161415613d4a576040517f08c379a0000000000000000000000000000000000000000000000000000000008152600401613d4190614e41565b60405180910390fd5b8073ffffffffffffffffffffffffffffffffffffffff1660008054906101000a900473ffffffffffffffffffffffffffffffffffffffff1673ffffffffffffffffffffffffffffffffffffffff167f8be0079c531659141344cd1fd0a4f28419497f9722a3daafe3b4186f6b6457e060405160405180910390a3806000806101000a81548173ffffffffffffffffffffffffffffffffffffffff021916908373ffffffffffffffffffffffffffffffffffffffff16021790555050565b600080839050600073__$1a6c0314a0160fd7e6b4b43e7efc64f6ba$__63f47d33b58360006040518363ffffffff1660e01b8152600401613e499291906151ce565b604080518083038186803b158015613e6057600080fd5b505af4158015613e74573d6000803e3d6000fd5b505050506040513d601f19601f82011682018060405250810190613e98919061470f565b80925081935050507f30644e72e131a029b85045b68181585d2833e84879b9709143e1f593f000000180613ef5577f4e487b7100000000000000000000000000000000000000000000000000000000600052601260045260246000fd5b848308915073__$1a6c0314a0160fd7e6b4b43e7efc64f6ba$__63f47d33b583836040518363ffffffff1660e01b8152600401613f339291906151f7565b604080518083038186803b158015613f4a57600080fd5b505af4158015613f5e573d6000803e3d6000fd5b505050506040513d601f19601f82011682018060405250810190613f82919061470f565b8092508193505050819250505092915050565b604051806101000160405280600890602082028036833780820191505090505090565b6040518060600160405280613fcb614087565b8152602001613fd8614107565b8152602001613fe5614087565b81525090565b6040518060400160405280600290602082028036833780820191505090505090565b60405180604001604052806002905b614024613feb565b81526020019060019003908161401c5790505090565b6040518060a0016040528061404d614087565b815260200161405a614107565b8152602001614067614107565b8152602001614074614107565b815260200161408161412d565b81525090565b604051806040016040528060008152602001600081525090565b6040518060600160405280600390602082028036833780820191505090505090565b6040518060800160405280600490602082028036833780820191505090505090565b6040518060200160405280600190602082028036833780820191505090505090565b604051806040016040528061411a613feb565b8152602001614127613feb565b81525090565b6040518060a001604052806005905b614144614087565b81526020019060019003908161413c5790505090565b600061416d61416884615245565b615220565b9050808285604086028201111561418357600080fd5b60005b858110156141b357816141998882614360565b845260208401935060408301925050600181019050614186565b5050509392505050565b60006141d06141cb8461526b565b615220565b905080828560208602820111156141e657600080fd5b60005b8581101561421657816141fc8882614429565b8452602084019350602083019250506001810190506141e9565b5050509392505050565b600061423361422e84615291565b615220565b9050808285602086028201111561424957600080fd5b60005b85811015614279578161425f8882614429565b84526020840193506020830192505060018101905061424c565b5050509392505050565b6000614296614291846152b7565b615220565b905080828560208602820111156142ac57600080fd5b60005b858110156142dc57816142c28882614429565b8452602084019350602083019250506001810190506142af565b5050509392505050565b60006142f96142f4846152dd565b615220565b90508281526020810184848401111561431157600080fd5b61431c848285615696565b509392505050565b60008135905061433381615e20565b92915050565b600082601f83011261434a57600080fd5b600261435784828561415a565b91505092915050565b600082601f83011261437157600080fd5b600261437e8482856141bd565b91505092915050565b600082601f83011261439857600080fd5b60046143a5848285614220565b91505092915050565b600082601f8301126143bf57600080fd5b60086143cc848285614283565b91505092915050565b6000813590506143e481615e37565b92915050565b600082601f8301126143fb57600080fd5b813561440b8482602086016142e6565b91505092915050565b60008135905061442381615e4e565b92915050565b60008135905061443881615e65565b92915050565b60008151905061444d81615e65565b92915050565b60006020828403121561446557600080fd5b600061447384828501614324565b91505092915050565b6000806000610100848603121561449257600080fd5b60006144a086828701614360565b93505060406144b186828701614339565b92505060c06144c286828701614360565b9150509250925092565b60008060008061018085870312156144e357600080fd5b60006144f187828801614360565b945050604061450287828801614339565b93505060c061451387828801614360565b92505061010061452587828801614387565b91505092959194509250565b6000610100828403121561454457600080fd5b6000614552848285016143ae565b91505092915050565b60006020828403121561456d57600080fd5b600061457b848285016143d5565b91505092915050565b6000806000806000610180868803121561459d57600080fd5b600086013567ffffffffffffffff8111156145b757600080fd5b6145c3888289016143ea565b95505060206145d4888289016143ae565b9450506101206145e688828901614429565b9350506101406145f888828901614429565b92505061016061460a88828901614414565b9150509295509295909350565b6000806000806000806101a0878903121561463157600080fd5b600087013567ffffffffffffffff81111561464b57600080fd5b61465789828a016143ea565b965050602061466889828a016143ae565b95505061012061467a89828a01614429565b94505061014061468c89828a01614429565b93505061016061469e89828a01614429565b9250506101806146b089828a01614414565b9150509295509295509295565b6000602082840312156146cf57600080fd5b60006146dd84828501614414565b91505092915050565b6000602082840312156146f857600080fd5b600061470684828501614429565b91505092915050565b6000806040838503121561472257600080fd5b60006147308582860161443e565b92505060206147418582860161443e565b9150509250929050565b600061475783836147e1565b60408301905092915050565b600061476f8383614d0a565b60208301905092915050565b61478481615606565b82525050565b6147938161532c565b61479d8184615374565b92506147a88261530e565b8060005b838110156147d95781516147c0878261474b565b96506147cb8361534d565b9250506001810190506147ac565b505050505050565b6147ea81615337565b6147f4818461537f565b92506147ff82615318565b8060005b838110156148305781516148178782614763565b96506148228361535a565b925050600181019050614803565b505050505050565b61484181615337565b61484b818461538a565b925061485682615318565b8060005b8381101561488757815161486e8782614763565b96506148798361535a565b92505060018101905061485a565b505050505050565b61489881615342565b6148a28184615395565b92506148ad82615322565b8060005b838110156148de5781516148c58782614763565b96506148d083615367565b9250506001810190506148b1565b505050505050565b6148ef81615618565b82525050565b6148fe81615684565b82525050565b60006149116018836153a0565b915061491c82615825565b602082019050919050565b60006149346023836153a0565b915061493f8261584e565b604082019050919050565b60006149576017836153a0565b91506149628261589d565b602082019050919050565b600061497a6018836153a0565b9150614985826158c6565b602082019050919050565b600061499d6026836153a0565b91506149a8826158ef565b604082019050919050565b60006149c06031836153a0565b91506149cb8261593e565b604082019050919050565b60006149e36018836153a0565b91506149ee8261598d565b602082019050919050565b6000614a06601e836153a0565b9150614a11826159b6565b602082019050919050565b6000614a296023836153a0565b9150614a34826159df565b604082019050919050565b6000614a4c6034836153a0565b9150614a5782615a2e565b604082019050919050565b6000614a6f6016836153a0565b9150614a7a82615a7d565b602082019050919050565b6000614a926012836153a0565b9150614a9d82615aa6565b602082019050919050565b6000614ab56017836153a0565b9150614ac082615acf565b602082019050919050565b6000614ad86017836153a0565b9150614ae382615af8565b602082019050919050565b6000614afb601f836153a0565b9150614b0682615b21565b602082019050919050565b6000614b1e6026836153a0565b9150614b2982615b4a565b604082019050919050565b6000614b416020836153a0565b9150614b4c82615b99565b602082019050919050565b6000614b64601c836153a0565b9150614b6f82615bc2565b602082019050919050565b6000614b876018836153a0565b9150614b9282615beb565b602082019050919050565b6000614baa601e836153a0565b9150614bb582615c14565b602082019050919050565b6000614bcd6047836153a0565b9150614bd882615c3d565b606082019050919050565b6000614bf0600d836153a0565b9150614bfb82615cb2565b602082019050919050565b6000614c136024836153a0565b9150614c1e82615cdb565b604082019050919050565b6000614c36601a836153a0565b9150614c4182615d2a565b602082019050919050565b6000614c596017836153a0565b9150614c6482615d53565b602082019050919050565b6000614c7c6012836153a0565b9150614c8782615d7c565b602082019050919050565b6000614c9f6017836153a0565b9150614caa82615da5565b602082019050919050565b6000614cc2601b836153a0565b9150614ccd82615dce565b602082019050919050565b6000614ce56015836153a0565b9150614cf082615df7565b602082019050919050565b614d0481615644565b82525050565b614d138161566d565b82525050565b614d228161566d565b82525050565b614d318161566d565b82525050565b6000602082019050614d4c600083018461477b565b92915050565b600061010082019050614d686000830186614838565b614d75604083018561478a565b614d8260c0830184614838565b949350505050565b600061010082019050614da0600083018461488f565b92915050565b6000602082019050614dbb60008301846148e6565b92915050565b60006020820190508181036000830152614dda81614904565b9050919050565b60006020820190508181036000830152614dfa81614927565b9050919050565b60006020820190508181036000830152614e1a8161494a565b9050919050565b60006020820190508181036000830152614e3a8161496d565b9050919050565b60006020820190508181036000830152614e5a81614990565b9050919050565b60006020820190508181036000830152614e7a816149b3565b9050919050565b60006020820190508181036000830152614e9a816149d6565b9050919050565b60006020820190508181036000830152614eba816149f9565b9050919050565b60006020820190508181036000830152614eda81614a1c565b9050919050565b60006020820190508181036000830152614efa81614a3f565b9050919050565b60006020820190508181036000830152614f1a81614a62565b9050919050565b60006020820190508181036000830152614f3a81614a85565b9050919050565b60006020820190508181036000830152614f5a81614aa8565b9050919050565b60006020820190508181036000830152614f7a81614acb565b9050919050565b60006020820190508181036000830152614f9a81614aee565b9050919050565b60006020820190508181036000830152614fba81614b11565b9050919050565b60006020820190508181036000830152614fda81614b34565b9050919050565b60006020820190508181036000830152614ffa81614b57565b9050919050565b6000602082019050818103600083015261501a81614b7a565b9050919050565b6000602082019050818103600083015261503a81614b9d565b9050919050565b6000602082019050818103600083015261505a81614bc0565b9050919050565b6000602082019050818103600083015261507a81614be3565b9050919050565b6000602082019050818103600083015261509a81614c06565b9050919050565b600060208201905081810360008301526150ba81614c29565b9050919050565b600060208201905081810360008301526150da81614c4c565b9050919050565b600060208201905081810360008301526150fa81614c6f565b9050919050565b6000602082019050818103600083015261511a81614c92565b9050919050565b6000602082019050818103600083015261513a81614cb5565b9050919050565b6000602082019050818103600083015261515a81614cd8565b9050919050565b60006020820190506151766000830184614cfb565b92915050565b60006060820190506151916000830186614cfb565b61519e60208301856148e6565b6151ab60408301846148e6565b949350505050565b60006020820190506151c86000830184614d19565b92915050565b60006040820190506151e36000830185614d28565b6151f060208301846148f5565b9392505050565b600060408201905061520c6000830185614d28565b6152196020830184614d28565b9392505050565b600061522a61523b565b905061523682826156a5565b919050565b6000604051905090565b600067ffffffffffffffff8211156152605761525f6157d8565b5b602082029050919050565b600067ffffffffffffffff821115615286576152856157d8565b5b602082029050919050565b600067ffffffffffffffff8211156152ac576152ab6157d8565b5b602082029050919050565b600067ffffffffffffffff8211156152d2576152d16157d8565b5b602082029050919050565b600067ffffffffffffffff8211156152f8576152f76157d8565b5b61530182615807565b9050602081019050919050565b6000819050919050565b6000819050919050565b6000819050919050565b600060029050919050565b600060029050919050565b600060089050919050565b6000602082019050919050565b6000602082019050919050565b6000602082019050919050565b600081905092915050565b600081905092915050565b600081905092915050565b600081905092915050565b600082825260208201905092915050565b60006153bc8261566d565b91506153c78361566d565b9250827fffffffffffffffffffffffffffffffffffffffffffffffffffffffffffffffff038211156153fc576153fb61577a565b5b828201905092915050565b6000808291508390505b60018511156154515780860481111561542d5761542c61577a565b5b600185161561543c5780820291505b808102905061544a85615818565b9450615411565b94509492505050565b60006154658261566d565b91506154708361566d565b925061549d7fffffffffffffffffffffffffffffffffffffffffffffffffffffffffffffffff84846154a5565b905092915050565b6000826154b55760019050615571565b816154c35760009050615571565b81600181146154d957600281146154e357615512565b6001915050615571565b60ff8411156154f5576154f461577a565b5b8360020a91508482111561550c5761550b61577a565b5b50615571565b5060208310610133831016604e8410600b84101617156155475782820a9050838111156155425761554161577a565b5b615571565b6155548484846001615407565b9250905081840481111561556b5761556a61577a565b5b81810290505b9392505050565b60006155838261566d565b915061558e8361566d565b9250817fffffffffffffffffffffffffffffffffffffffffffffffffffffffffffffffff04831182151516156155c7576155c661577a565b5b828202905092915050565b60006155dd8261566d565b91506155e88361566d565b9250828210156155fb576155fa61577a565b5b828203905092915050565b600061561182615624565b9050919050565b60008115159050919050565b600073ffffffffffffffffffffffffffffffffffffffff82169050919050565b60007cffffffffffffffffffffffffffffffffffffffffffffffffffffffffff82169050919050565b6000819050919050565b600060ff82169050919050565b600061568f8261566d565b9050919050565b82818337600083830152505050565b6156ae82615807565b810181811067ffffffffffffffff821117156156cd576156cc6157d8565b5b80604052505050565b60006156e18261566d565b91507fffffffffffffffffffffffffffffffffffffffffffffffffffffffffffffffff8214156157145761571361577a565b5b600182019050919050565b600061572a82615677565b915060ff82141561573e5761573d61577a565b5b600182019050919050565b60006157548261566d565b915061575f8361566d565b92508261576f5761576e6157a9565b5b828206905092915050565b7f4e487b7100000000000000000000000000000000000000000000000000000000600052601160045260246000fd5b7f4e487b7100000000000000000000000000000000000000000000000000000000600052601260045260246000fd5b7f4e487b7100000000000000000000000000000000000000000000000000000000600052604160045260246000fd5b6000601f19601f8301169050919050565b60008160011c9050919050565b7f76657269666965722d6258302d6774652d7072696d652d710000000000000000600082015250565b7f63616e2774206265206e6f7468696e672d75702d6d792d736c656576652d766160008201527f6c75650000000000000000000000000000000000000000000000000000000000602082015250565b7f76657269666965722d61582d6774652d7072696d652d71000000000000000000600082015250565b7f76657269666965722d6259312d6774652d7072696d652d710000000000000000600082015250565b7f4f776e61626c653a206e6577206f776e657220697320746865207a65726f206160008201527f6464726573730000000000000000000000000000000000000000000000000000602082015250565b7f6e756c6c6966696572732068617368206d757374206265206c7420746865207360008201527f6e61726b207363616c6172206669656c64000000000000000000000000000000602082015250565b7f76657269666965722d6258312d6774652d7072696d652d710000000000000000600082015250565b7f65787465726e616c206e756c6c696669657220616c7265616479207365740000600082015250565b7f496e6372656d656e74616c4d65726b6c65547265653a2074726565206973206660008201527f756c6c0000000000000000000000000000000000000000000000000000000000602082015250565b7f6e6f2065787465726e616c206e756c6c6966696572206578697374732061667460008201527f65722074686520737065636966696564206f6e65000000000000000000000000602082015250565b7f6e756c6c696669657220616c7265616479207365656e00000000000000000000600082015250565b7f70616972696e672d6d756c2d6661696c65640000000000000000000000000000600082015250565b7f76657269666965722d63592d6774652d7072696d652d71000000000000000000600082015250565b7f53656d6170686f72653a726f6f74206e6f74207365656e000000000000000000600082015250565b7f76657269666965722d6774652d736e61726b2d7363616c61722d6669656c6400600082015250565b7f65787465726e616c206e756c6c696669657220616c726561647920646561637460008201527f6976617465640000000000000000000000000000000000000000000000000000602082015250565b7f4f776e61626c653a2063616c6c6572206973206e6f7420746865206f776e6572600082015250565b7f65787465726e616c206e756c6c6966696572206e6f7420666f756e6400000000600082015250565b7f76657269666965722d6259302d6774652d7072696d652d710000000000000000600082015250565b7f696e76616c6964206669656c6420656c656d656e7420696e2070726f6f660000600082015250565b7f496e6372656d656e74616c4d65726b6c65547265653a20696e736572744c656160008201527f6620617267756d656e74206d757374206265203c20534e41524b5f5343414c4160208201527f525f4649454c4400000000000000000000000000000000000000000000000000604082015250565b7f696e76616c69642070726f6f6600000000000000000000000000000000000000600082015250565b7f65787465726e616c206e756c6c696669657220697320616c726561647920616360008201527f7469766500000000000000000000000000000000000000000000000000000000602082015250565b7f6e6f20737563682065787465726e616c206e756c6c6966696572000000000000600082015250565b7f76657269666965722d61592d6774652d7072696d652d71000000000000000000600082015250565b7f70616972696e672d6164642d6661696c65640000000000000000000000000000600082015250565b7f76657269666965722d63582d6774652d7072696d652d71000000000000000000600082015250565b7f62726f616463617374207065726d697373696f6e2064656e6965640000000000600082015250565b7f70616972696e672d6f70636f64652d6661696c65640000000000000000000000600082015250565b615e2981615606565b8114615e3457600080fd5b50565b615e4081615618565b8114615e4b57600080fd5b50565b615e5781615644565b8114615e6257600080fd5b50565b615e6e8161566d565b8114615e7957600080fd5b5056fea264697066735822122029bb4a96eeb1a5cc97b0dc2d816a25302c5ab111fe486568fcb2d89854e0b20164736f6c63430008040033",
  "linkReferences": {
    "contracts/semaphore/MiMCHasher.sol": {
      "MiMCHasher": [
        {
          "length": 20,
          "start": 1003
        },
        {
          "length": 20,
          "start": 1245
        },
        {
          "length": 20,
          "start": 19515
        },
        {
          "length": 20,
          "start": 19750
        }
      ]
    }
  },
  "deployedLinkReferences": {
    "contracts/semaphore/MiMCHasher.sol": {
      "MiMCHasher": [
        {
          "length": 20,
          "start": 15889
        },
        {
          "length": 20,
          "start": 16124
        }
      ]
    }
  }
}