{
  "_format": "hh-sol-artifact-1",
  "contractName": "SurveyResultsView",
  "sourceName": "contracts/SurveyResultsView.sol",
  "abi": [
    {
      "inputs": [
        {
          "internalType": "address",
          "name": "_surveyor",
          "type": "address"
        }
      ],
      "stateMutability": "nonpayable",
      "type": "constructor"
    },
    {
      "anonymous": false,
      "inputs": [
        {
          "indexed": true,
          "internalType": "address",
          "name": "previousOwner",
          "type": "address"
        },
        {
          "indexed": true,
          "internalType": "address",
          "name": "newOwner",
          "type": "address"
        }
      ],
      "name": "OwnershipTransferred",
      "type": "event"
    },
    {
      "inputs": [
        {
          "internalType": "contract ISurvey",
          "name": "newSurvey",
          "type": "address"
        }
      ],
      "name": "addSurvey",
      "outputs": [],
      "stateMutability": "nonpayable",
      "type": "function"
    },
    {
      "inputs": [],
      "name": "getAllSurveyAddresses",
      "outputs": [
        {
          "internalType": "contract ISurvey[]",
          "name": "",
          "type": "address[]"
        }
      ],
      "stateMutability": "view",
      "type": "function"
    },
    {
      "inputs": [],
      "name": "getAllSurveys",
      "outputs": [
        {
          "internalType": "string[]",
          "name": "",
          "type": "string[]"
        }
      ],
      "stateMutability": "view",
      "type": "function"
    },
    {
      "inputs": [],
      "name": "isOwner",
      "outputs": [
        {
          "internalType": "bool",
          "name": "",
          "type": "bool"
        }
      ],
      "stateMutability": "view",
      "type": "function"
    },
    {
      "inputs": [],
      "name": "owner",
      "outputs": [
        {
          "internalType": "address",
          "name": "",
          "type": "address"
        }
      ],
      "stateMutability": "view",
      "type": "function"
    },
    {
      "inputs": [],
      "name": "renounceOwnership",
      "outputs": [],
      "stateMutability": "nonpayable",
      "type": "function"
    },
    {
      "inputs": [
        {
          "internalType": "address",
          "name": "newOwner",
          "type": "address"
        }
      ],
      "name": "transferOwnership",
      "outputs": [],
      "stateMutability": "nonpayable",
      "type": "function"
    }
  ],
  "bytecode": "0x608060405234801561001057600080fd5b5060405161107338038061107383398181016040528101906100329190610149565b336000806101000a81548173ffffffffffffffffffffffffffffffffffffffff021916908373ffffffffffffffffffffffffffffffffffffffff16021790555060008054906101000a900473ffffffffffffffffffffffffffffffffffffffff1673ffffffffffffffffffffffffffffffffffffffff16600073ffffffffffffffffffffffffffffffffffffffff167f8be0079c531659141344cd1fd0a4f28419497f9722a3daafe3b4186f6b6457e060405160405180910390a380600460006101000a81548173ffffffffffffffffffffffffffffffffffffffff021916908373ffffffffffffffffffffffffffffffffffffffff160217905550506101bb565b600081519050610143816101a4565b92915050565b60006020828403121561015b57600080fd5b600061016984828501610134565b91505092915050565b600061017d82610184565b9050919050565b600073ffffffffffffffffffffffffffffffffffffffff82169050919050565b6101ad81610172565b81146101b857600080fd5b50565b610ea9806101ca6000396000f3fe608060405234801561001057600080fd5b506004361061007d5760003560e01c80638f32d59b1161005b5780638f32d59b146100c8578063c46191c5146100e6578063c53fb61314610104578063f2fde38b146101205761007d565b8063715018a6146100825780637a1bc3751461008c5780638da5cb5b146100aa575b600080fd5b61008a61013c565b005b610094610241565b6040516100a19190610ae2565b60405180910390f35b6100b261031c565b6040516100bf9190610aa5565b60405180910390f35b6100d0610345565b6040516100dd9190610b04565b60405180910390f35b6100ee61039c565b6040516100fb9190610ac0565b60405180910390f35b61011e60048036038101906101199190610890565b61042d565b005b61013a60048036038101906101359190610867565b6105b2565b005b610144610345565b610183576040517f08c379a000000000000000000000000000000000000000000000000000000000815260040161017a90610b3f565b60405180910390fd5b600073ffffffffffffffffffffffffffffffffffffffff1660008054906101000a900473ffffffffffffffffffffffffffffffffffffffff1673ffffffffffffffffffffffffffffffffffffffff167f8be0079c531659141344cd1fd0a4f28419497f9722a3daafe3b4186f6b6457e060405160405180910390a360008060006101000a81548173ffffffffffffffffffffffffffffffffffffffff021916908373ffffffffffffffffffffffffffffffffffffffff160217905550565b606060018001805480602002602001604051908101604052809291908181526020016000905b8282101561031357838290600052602060002001805461028690610cfb565b80601f01602080910402602001604051908101604052809291908181526020018280546102b290610cfb565b80156102ff5780601f106102d4576101008083540402835291602001916102ff565b820191906000526020600020905b8154815290600101906020018083116102e257829003601f168201915b505050505081526020019060010190610267565b50505050905090565b60008060009054906101000a900473ffffffffffffffffffffffffffffffffffffffff16905090565b60008060009054906101000a900473ffffffffffffffffffffffffffffffffffffffff1673ffffffffffffffffffffffffffffffffffffffff163373ffffffffffffffffffffffffffffffffffffffff1614905090565b6060600160000180548060200260200160405190810160405280929190818152602001828054801561042357602002820191906000526020600020905b8160009054906101000a900473ffffffffffffffffffffffffffffffffffffffff1673ffffffffffffffffffffffffffffffffffffffff16815260200190600101908083116103d9575b5050505050905090565b6001600001819080600181540180825580915050600190039060005260206000200160009091909190916101000a81548173ffffffffffffffffffffffffffffffffffffffff021916908373ffffffffffffffffffffffffffffffffffffffff160217905550600180018173ffffffffffffffffffffffffffffffffffffffff1663260a89af6040518163ffffffff1660e01b8152600401600060405180830381600087803b1580156104df57600080fd5b505af11580156104f3573d6000803e3d6000fd5b505050506040513d6000823e3d601f19601f8201168201806040525081019061051c91906108b9565b908060018154018082558091505060019003906000526020600020016000909190919091509080519060200190610554929190610732565b5060018060020160008373ffffffffffffffffffffffffffffffffffffffff1673ffffffffffffffffffffffffffffffffffffffff16815260200190815260200160002060006101000a81548160ff02191690831515021790555050565b6105ba610345565b6105f9576040517f08c379a00000000000000000000000000000000000000000000000000000000081526004016105f090610b3f565b60405180910390fd5b61060281610605565b50565b600073ffffffffffffffffffffffffffffffffffffffff168173ffffffffffffffffffffffffffffffffffffffff161415610675576040517f08c379a000000000000000000000000000000000000000000000000000000000815260040161066c90610b1f565b60405180910390fd5b8073ffffffffffffffffffffffffffffffffffffffff1660008054906101000a900473ffffffffffffffffffffffffffffffffffffffff1673ffffffffffffffffffffffffffffffffffffffff167f8be0079c531659141344cd1fd0a4f28419497f9722a3daafe3b4186f6b6457e060405160405180910390a3806000806101000a81548173ffffffffffffffffffffffffffffffffffffffff021916908373ffffffffffffffffffffffffffffffffffffffff16021790555050565b82805461073e90610cfb565b90600052602060002090601f01602090048101928261076057600085556107a7565b82601f1061077957805160ff19168380011785556107a7565b828001600101855582156107a7579182015b828111156107a657825182559160200191906001019061078b565b5b5090506107b491906107b8565b5090565b5b808211156107d15760008160009055506001016107b9565b5090565b60006107e86107e384610b84565b610b5f565b90508281526020810184848401111561080057600080fd5b61080b848285610cc8565b509392505050565b60008135905061082281610e45565b92915050565b60008135905061083781610e5c565b92915050565b600082601f83011261084e57600080fd5b815161085e8482602086016107d5565b91505092915050565b60006020828403121561087957600080fd5b600061088784828501610813565b91505092915050565b6000602082840312156108a257600080fd5b60006108b084828501610828565b91505092915050565b6000602082840312156108cb57600080fd5b600082015167ffffffffffffffff8111156108e557600080fd5b6108f18482850161083d565b91505092915050565b60006109068383610a17565b60208301905092915050565b600061091e8383610a26565b905092915050565b61092f81610c54565b82525050565b600061094082610bd5565b61094a8185610c10565b935061095583610bb5565b8060005b8381101561098657815161096d88826108fa565b975061097883610bf6565b925050600181019050610959565b5085935050505092915050565b600061099e82610be0565b6109a88185610c21565b9350836020820285016109ba85610bc5565b8060005b858110156109f657848403895281516109d78582610912565b94506109e283610c03565b925060208a019950506001810190506109be565b50829750879550505050505092915050565b610a1181610c66565b82525050565b610a2081610ca4565b82525050565b6000610a3182610beb565b610a3b8185610c32565b9350610a4b818560208601610cc8565b610a5481610dbc565b840191505092915050565b6000610a6c602683610c43565b9150610a7782610dcd565b604082019050919050565b6000610a8f602083610c43565b9150610a9a82610e1c565b602082019050919050565b6000602082019050610aba6000830184610926565b92915050565b60006020820190508181036000830152610ada8184610935565b905092915050565b60006020820190508181036000830152610afc8184610993565b905092915050565b6000602082019050610b196000830184610a08565b92915050565b60006020820190508181036000830152610b3881610a5f565b9050919050565b60006020820190508181036000830152610b5881610a82565b9050919050565b6000610b69610b7a565b9050610b758282610d2d565b919050565b6000604051905090565b600067ffffffffffffffff821115610b9f57610b9e610d8d565b5b610ba882610dbc565b9050602081019050919050565b6000819050602082019050919050565b6000819050602082019050919050565b600081519050919050565b600081519050919050565b600081519050919050565b6000602082019050919050565b6000602082019050919050565b600082825260208201905092915050565b600082825260208201905092915050565b600082825260208201905092915050565b600082825260208201905092915050565b6000610c5f82610c84565b9050919050565b60008115159050919050565b6000610c7d82610c54565b9050919050565b600073ffffffffffffffffffffffffffffffffffffffff82169050919050565b6000610caf82610cb6565b9050919050565b6000610cc182610c84565b9050919050565b60005b83811015610ce6578082015181840152602081019050610ccb565b83811115610cf5576000848401525b50505050565b60006002820490506001821680610d1357607f821691505b60208210811415610d2757610d26610d5e565b5b50919050565b610d3682610dbc565b810181811067ffffffffffffffff82111715610d5557610d54610d8d565b5b80604052505050565b7f4e487b7100000000000000000000000000000000000000000000000000000000600052602260045260246000fd5b7f4e487b7100000000000000000000000000000000000000000000000000000000600052604160045260246000fd5b6000601f19601f8301169050919050565b7f4f776e61626c653a206e6577206f776e657220697320746865207a65726f206160008201527f6464726573730000000000000000000000000000000000000000000000000000602082015250565b7f4f776e61626c653a2063616c6c6572206973206e6f7420746865206f776e6572600082015250565b610e4e81610c54565b8114610e5957600080fd5b50565b610e6581610c72565b8114610e7057600080fd5b5056fea2646970667358221220e4764218dcbb3c574f39a5e60c561928ce831f03bf757f4615a1c5a8db994e5e64736f6c63430008040033",
  "linkReferences": {},
  "deployedLinkReferences": {}
}