{
  "_format": "hh-sol-artifact-1",
  "contractName": "Survey",
  "sourceName": "contracts/Survey.sol",
  "abi": [
    {
      "inputs": [
        {
          "internalType": "string[]",
          "name": "_surveyQuestions",
          "type": "string[]"
        },
        {
          "internalType": "address[]",
          "name": "_participants",
          "type": "address[]"
        },
        {
          "internalType": "uint256",
          "name": "_surveyTimeout",
          "type": "uint256"
        },
        {
          "internalType": "string",
          "name": "_surveyName",
          "type": "string"
        },
        {
          "internalType": "address",
          "name": "_semaphoreAddress",
          "type": "address"
        }
      ],
      "stateMutability": "nonpayable",
      "type": "constructor"
    },
    {
      "anonymous": false,
      "inputs": [
        {
          "indexed": true,
          "internalType": "address",
          "name": "previousOwner",
          "type": "address"
        },
        {
          "indexed": true,
          "internalType": "address",
          "name": "newOwner",
          "type": "address"
        }
      ],
      "name": "OwnershipTransferred",
      "type": "event"
    },
    {
      "inputs": [],
      "name": "addExternalNullifier",
      "outputs": [],
      "stateMutability": "nonpayable",
      "type": "function"
    },
    {
      "inputs": [],
      "name": "getExternalNullifier",
      "outputs": [
        {
          "internalType": "uint232",
          "name": "",
          "type": "uint232"
        }
      ],
      "stateMutability": "view",
      "type": "function"
    },
    {
      "inputs": [],
      "name": "getIdentityCommitments",
      "outputs": [
        {
          "internalType": "uint256[]",
          "name": "",
          "type": "uint256[]"
        }
      ],
      "stateMutability": "view",
      "type": "function"
    },
    {
      "inputs": [],
      "name": "getSurveyName",
      "outputs": [
        {
          "internalType": "string",
          "name": "",
          "type": "string"
        }
      ],
      "stateMutability": "view",
      "type": "function"
    },
    {
      "inputs": [],
      "name": "getSurveyQuestions",
      "outputs": [
        {
          "internalType": "string[]",
          "name": "",
          "type": "string[]"
        }
      ],
      "stateMutability": "view",
      "type": "function"
    },
    {
      "inputs": [],
      "name": "getSurveyScores",
      "outputs": [
        {
          "internalType": "string[]",
          "name": "_surveyQuestions",
          "type": "string[]"
        },
        {
          "internalType": "uint256[]",
          "name": "_surveyScores",
          "type": "uint256[]"
        }
      ],
      "stateMutability": "nonpayable",
      "type": "function"
    },
    {
      "inputs": [
        {
          "internalType": "uint256",
          "name": "_identityCommitment",
          "type": "uint256"
        }
      ],
      "name": "insertIdentity",
      "outputs": [],
      "stateMutability": "nonpayable",
      "type": "function"
    },
    {
      "inputs": [],
      "name": "isOwner",
      "outputs": [
        {
          "internalType": "bool",
          "name": "",
          "type": "bool"
        }
      ],
      "stateMutability": "view",
      "type": "function"
    },
    {
      "inputs": [],
      "name": "owner",
      "outputs": [
        {
          "internalType": "address",
          "name": "",
          "type": "address"
        }
      ],
      "stateMutability": "view",
      "type": "function"
    },
    {
      "inputs": [],
      "name": "renounceOwnership",
      "outputs": [],
      "stateMutability": "nonpayable",
      "type": "function"
    },
    {
      "inputs": [
        {
          "internalType": "address",
          "name": "newOwner",
          "type": "address"
        }
      ],
      "name": "transferOwnership",
      "outputs": [],
      "stateMutability": "nonpayable",
      "type": "function"
    },
    {
      "inputs": [
        {
          "internalType": "string[]",
          "name": "questions",
          "type": "string[]"
        },
        {
          "internalType": "uint256[]",
          "name": "scores",
          "type": "uint256[]"
        },
        {
          "internalType": "bytes",
          "name": "surveyResponseBytes",
          "type": "bytes"
        },
        {
          "internalType": "uint256[8]",
          "name": "_proof",
          "type": "uint256[8]"
        },
        {
          "internalType": "uint256",
          "name": "_root",
          "type": "uint256"
        },
        {
          "internalType": "uint256",
          "name": "_nullifiersHash",
          "type": "uint256"
        }
      ],
      "name": "updateSurveyResult",
      "outputs": [],
      "stateMutability": "nonpayable",
      "type": "function"
    }
  ],
  "bytecode": "0x60806040523480156200001157600080fd5b50604051620033d9380380620033d983398181016040528101906200003791906200074f565b336000806101000a81548173ffffffffffffffffffffffffffffffffffffffff021916908373ffffffffffffffffffffffffffffffffffffffff16021790555060008054906101000a900473ffffffffffffffffffffffffffffffffffffffff1673ffffffffffffffffffffffffffffffffffffffff16600073ffffffffffffffffffffffffffffffffffffffff167f8be0079c531659141344cd1fd0a4f28419497f9722a3daafe3b4186f6b6457e060405160405180910390a362000121604051806060016040528060228152602001620033b7602291396200027060201b620010f41760201c565b84600a60010190805190602001906200013c9291906200033c565b5060005b8551811015620001e357600086828151811062000186577f4e487b7100000000000000000000000000000000000000000000000000000000600052603260045260246000fd5b602002602001015190506001600a60000182604051620001a7919062000894565b908152602001604051809103902060006101000a81548160ff021916908315150217905550508080620001da9062000a95565b91505062000140565b50826005819055504260048190555080600260006101000a81548173ffffffffffffffffffffffffffffffffffffffff021916908373ffffffffffffffffffffffffffffffffffffffff16021790555083600690805190602001906200024b929190620003a3565b5081600190805190602001906200026492919062000432565b50505050505062000bb5565b6200031081604051602401620002879190620008ad565b6040516020818303038152906040527f41304fac000000000000000000000000000000000000000000000000000000007bffffffffffffffffffffffffffffffffffffffffffffffffffffffff19166020820180517bffffffffffffffffffffffffffffffffffffffffffffffffffffffff83818316178352505050506200031360201b60201c565b50565b60008151905060006a636f6e736f6c652e6c6f679050602083016000808483855afa5050505050565b82805482825590600052602060002090810192821562000390579160200282015b828111156200038f5782518290805190602001906200037e92919062000432565b50916020019190600101906200035d565b5b5090506200039f9190620004c3565b5090565b8280548282559060005260206000209081019282156200041f579160200282015b828111156200041e5782518260006101000a81548173ffffffffffffffffffffffffffffffffffffffff021916908373ffffffffffffffffffffffffffffffffffffffff16021790555091602001919060010190620003c4565b5b5090506200042e9190620004eb565b5090565b828054620004409062000a29565b90600052602060002090601f016020900481019282620004645760008555620004b0565b82601f106200047f57805160ff1916838001178555620004b0565b82800160010185558215620004b0579182015b82811115620004af57825182559160200191906001019062000492565b5b509050620004bf9190620004eb565b5090565b5b80821115620004e75760008181620004dd91906200050a565b50600101620004c4565b5090565b5b8082111562000506576000816000905550600101620004ec565b5090565b508054620005189062000a29565b6000825580601f106200052c57506200054d565b601f0160209004906000526020600020908101906200054c9190620004eb565b5b50565b6000620005676200056184620008fa565b620008d1565b905080838252602082019050828560208602820111156200058757600080fd5b60005b85811015620005bb5781620005a088826200069a565b8452602084019350602083019250506001810190506200058a565b5050509392505050565b6000620005dc620005d68462000929565b620008d1565b90508083825260208201905082856020860282011115620005fc57600080fd5b60005b858110156200064b57815167ffffffffffffffff8111156200062057600080fd5b8086016200062f89826200070b565b85526020850194506020840193505050600181019050620005ff565b5050509392505050565b60006200066c620006668462000958565b620008d1565b9050828152602081018484840111156200068557600080fd5b62000692848285620009f3565b509392505050565b600081519050620006ab8162000b81565b92915050565b600082601f830112620006c357600080fd5b8151620006d584826020860162000550565b91505092915050565b600082601f830112620006f057600080fd5b815162000702848260208601620005c5565b91505092915050565b600082601f8301126200071d57600080fd5b81516200072f84826020860162000655565b91505092915050565b600081519050620007498162000b9b565b92915050565b600080600080600060a086880312156200076857600080fd5b600086015167ffffffffffffffff8111156200078357600080fd5b6200079188828901620006de565b955050602086015167ffffffffffffffff811115620007af57600080fd5b620007bd88828901620006b1565b9450506040620007d08882890162000738565b935050606086015167ffffffffffffffff811115620007ee57600080fd5b620007fc888289016200070b565b92505060806200080f888289016200069a565b9150509295509295909350565b600062000829826200098e565b62000835818562000999565b935062000847818560208601620009f3565b620008528162000b70565b840191505092915050565b60006200086a826200098e565b620008768185620009aa565b935062000888818560208601620009f3565b80840191505092915050565b6000620008a282846200085d565b915081905092915050565b60006020820190508181036000830152620008c981846200081c565b905092915050565b6000620008dd620008f0565b9050620008eb828262000a5f565b919050565b6000604051905090565b600067ffffffffffffffff82111562000918576200091762000b41565b5b602082029050602081019050919050565b600067ffffffffffffffff82111562000947576200094662000b41565b5b602082029050602081019050919050565b600067ffffffffffffffff82111562000976576200097562000b41565b5b620009818262000b70565b9050602081019050919050565b600081519050919050565b600082825260208201905092915050565b600081905092915050565b6000620009c282620009c9565b9050919050565b600073ffffffffffffffffffffffffffffffffffffffff82169050919050565b6000819050919050565b60005b8381101562000a13578082015181840152602081019050620009f6565b8381111562000a23576000848401525b50505050565b6000600282049050600182168062000a4257607f821691505b6020821081141562000a595762000a5862000b12565b5b50919050565b62000a6a8262000b70565b810181811067ffffffffffffffff8211171562000a8c5762000a8b62000b41565b5b80604052505050565b600062000aa282620009e9565b91507fffffffffffffffffffffffffffffffffffffffffffffffffffffffffffffffff82141562000ad85762000ad762000ae3565b5b600182019050919050565b7f4e487b7100000000000000000000000000000000000000000000000000000000600052601160045260246000fd5b7f4e487b7100000000000000000000000000000000000000000000000000000000600052602260045260246000fd5b7f4e487b7100000000000000000000000000000000000000000000000000000000600052604160045260246000fd5b6000601f19601f8301169050919050565b62000b8c81620009b5565b811462000b9857600080fd5b50565b62000ba681620009e9565b811462000bb257600080fd5b50565b6127f28062000bc56000396000f3fe608060405234801561001057600080fd5b50600436106100b45760003560e01c80638da5cb5b116100715780638da5cb5b146101445780638f32d59b14610162578063cf4ae8fb14610180578063df2e808f1461019e578063e1984df6146101ba578063f2fde38b146101d8576100b4565b8063074fa741146100b9578063260a89af146100d857806340566790146100f65780636d80efca14610114578063715018a614610130578063771441371461013a575b600080fd5b6100c16101f4565b6040516100cf929190611f61565b60405180910390f35b6100e0610509565b6040516100ed9190612033565b60405180910390f35b6100fe61059b565b60405161010b9190611f98565b60405180910390f35b61012e60048036038101906101299190611b95565b6105f3565b005b61013861092c565b005b610142610a31565b005b61014c610bb4565b6040516101599190611f24565b60405180910390f35b61016a610bdd565b6040516101779190611fba565b60405180910390f35b610188610c34565b6040516101959190611f3f565b60405180910390f35b6101b860048036038101906101b39190611ac1565b610d10565b005b6101c261106e565b6040516101cf9190612145565b60405180910390f35b6101f260048036038101906101ed9190611a98565b6110a1565b005b6060806101ff610bdd565b61023e576040517f08c379a000000000000000000000000000000000000000000000000000000000815260040161023590612125565b60405180910390fd5b600073ffffffffffffffffffffffffffffffffffffffff16600260009054906101000a900473ffffffffffffffffffffffffffffffffffffffff1673ffffffffffffffffffffffffffffffffffffffff1614156102d0576040517f08c379a00000000000000000000000000000000000000000000000000000000081526004016102c7906120c5565b60405180910390fd5b6102d861118d565b6005546004546102e89190612373565b4211156103d4576060600a6001018181805480602002602001604051908101604052809291908181526020016000905b828210156103c4578382906000526020600020018054610337906124ad565b80601f0160208091040260200160405190810160405280929190818152602001828054610363906124ad565b80156103b05780601f10610385576101008083540402835291602001916103b0565b820191906000526020600020905b81548152906001019060200180831161039357829003601f168201915b505050505081526020019060010190610318565b5050505091509250925050610505565b600a600101600981805480602002602001604051908101604052809291908181526020016000905b828210156104a857838290600052602060002001805461041b906124ad565b80601f0160208091040260200160405190810160405280929190818152602001828054610447906124ad565b80156104945780601f1061046957610100808354040283529160200191610494565b820191906000526020600020905b81548152906001019060200180831161047757829003601f168201915b5050505050815260200190600101906103fc565b505050509150808054806020026020016040519081016040528092919081815260200182805480156104f957602002820191906000526020600020905b8154815260200190600101908083116104e5575b50505050509050915091505b9091565b606060018054610518906124ad565b80601f0160208091040260200160405190810160405280929190818152602001828054610544906124ad565b80156105915780601f1061056657610100808354040283529160200191610591565b820191906000526020600020905b81548152906001019060200180831161057457829003601f168201915b5050505050905090565b6060600d8054806020026020016040519081016040528092919081815260200182805480156105e957602002820191906000526020600020905b8154815260200190600101908083116105d5575b5050505050905090565b610683600680548060200260200160405190810160405280929190818152602001828054801561067857602002820191906000526020600020905b8160009054906101000a900473ffffffffffffffffffffffffffffffffffffffff1673ffffffffffffffffffffffffffffffffffffffff168152602001906001019080831161062e575b505050505033611399565b6106c2576040517f08c379a00000000000000000000000000000000000000000000000000000000081526004016106b990612105565b60405180910390fd5b60001515600e60003373ffffffffffffffffffffffffffffffffffffffff1673ffffffffffffffffffffffffffffffffffffffff16815260200190815260200160002060009054906101000a900460ff16151514610755576040517f08c379a000000000000000000000000000000000000000000000000000000000815260040161074c906120e5565b60405180910390fd5b6107936040518060400160405280601c81526020017f5375727665793a737461727420696e73657274206964656e74697479000000008152506110f4565b600260009054906101000a900473ffffffffffffffffffffffffffffffffffffffff1673ffffffffffffffffffffffffffffffffffffffff16636d80efca826040518263ffffffff1660e01b81526004016107ee9190612160565b600060405180830381600087803b15801561080857600080fd5b505af115801561081c573d6000803e3d6000fd5b50505050600d8190806001815401808255809150506001900390600052602060002001600090919091909150556001600e60003373ffffffffffffffffffffffffffffffffffffffff1673ffffffffffffffffffffffffffffffffffffffff16815260200190815260200160002060006101000a81548160ff0219169083151502179055506000600d8054905090506108ea6040518060400160405280601f81526020017f4e756d626572206f6620636f6d6d69746d656e747320696e207375727665790081525082611447565b6109286040518060400160405280601f81526020017f5375727665793a636f6d706c65746520696e73657274206964656e74697479008152506110f4565b5050565b610934610bdd565b610973576040517f08c379a000000000000000000000000000000000000000000000000000000000815260040161096a90612125565b60405180910390fd5b600073ffffffffffffffffffffffffffffffffffffffff1660008054906101000a900473ffffffffffffffffffffffffffffffffffffffff1673ffffffffffffffffffffffffffffffffffffffff167f8be0079c531659141344cd1fd0a4f28419497f9722a3daafe3b4186f6b6457e060405160405180910390a360008060006101000a81548173ffffffffffffffffffffffffffffffffffffffff021916908373ffffffffffffffffffffffffffffffffffffffff160217905550565b610a39610bdd565b610a78576040517f08c379a0000000000000000000000000000000000000000000000000000000008152600401610a6f90612125565b60405180910390fd5b600030604051602001610a8b9190611f24565b6040516020818303038152906040529050808051906020012060001c600360006101000a8154817cffffffffffffffffffffffffffffffffffffffffffffffffffffffffff02191690837cffffffffffffffffffffffffffffffffffffffffffffffffffffffffff160217905550600260009054906101000a900473ffffffffffffffffffffffffffffffffffffffff1673ffffffffffffffffffffffffffffffffffffffff1663539f38b2600360009054906101000a90047cffffffffffffffffffffffffffffffffffffffffffffffffffffffffff166040518263ffffffff1660e01b8152600401610b7f9190612145565b600060405180830381600087803b158015610b9957600080fd5b505af1158015610bad573d6000803e3d6000fd5b5050505050565b60008060009054906101000a900473ffffffffffffffffffffffffffffffffffffffff16905090565b60008060009054906101000a900473ffffffffffffffffffffffffffffffffffffffff1673ffffffffffffffffffffffffffffffffffffffff163373ffffffffffffffffffffffffffffffffffffffff1614905090565b6060600a600101805480602002602001604051908101604052809291908181526020016000905b82821015610d07578382906000526020600020018054610c7a906124ad565b80601f0160208091040260200160405190810160405280929190818152602001828054610ca6906124ad565b8015610cf35780601f10610cc857610100808354040283529160200191610cf3565b820191906000526020600020905b815481529060010190602001808311610cd657829003601f168201915b505050505081526020019060010190610c5b565b50505050905090565b600073ffffffffffffffffffffffffffffffffffffffff16600260009054906101000a900473ffffffffffffffffffffffffffffffffffffffff1673ffffffffffffffffffffffffffffffffffffffff161415610da2576040517f08c379a0000000000000000000000000000000000000000000000000000000008152600401610d99906120c5565b60405180910390fd5b610dac86866114e3565b15610dec576040517f08c379a0000000000000000000000000000000000000000000000000000000008152600401610de390612085565b60405180910390fd5b600260009054906101000a900473ffffffffffffffffffffffffffffffffffffffff1673ffffffffffffffffffffffffffffffffffffffff16630e57596f85858585600360009054906101000a90047cffffffffffffffffffffffffffffffffffffffffffffffffffffffffff166040518663ffffffff1660e01b8152600401610e7a959493929190611fd5565b600060405180830381600087803b158015610e9457600080fd5b505af1158015610ea8573d6000803e3d6000fd5b5050505060086000815480929190610ebf90612510565b919050555060005b600a6001018054905081101561104a576000600a6001018281548110610f16577f4e487b7100000000000000000000000000000000000000000000000000000000600052603260045260246000fd5b906000526020600020018054610f2b906124ad565b80601f0160208091040260200160405190810160405280929190818152602001828054610f57906124ad565b8015610fa45780601f10610f7957610100808354040283529160200191610fa4565b820191906000526020600020905b815481529060010190602001808311610f8757829003601f168201915b505050505090506000878381518110610fe6577f4e487b7100000000000000000000000000000000000000000000000000000000600052603260045260246000fd5b602002602001015190506007826040516110009190611f0d565b90815260200160405180910390208190806001815401808255809150506001900390600052602060002001600090919091909150555050808061104290612510565b915050610ec7565b506001600c60006101000a81548160ff021916908315150217905550505050505050565b6000600360009054906101000a90047cffffffffffffffffffffffffffffffffffffffffffffffffffffffffff16905090565b6110a9610bdd565b6110e8576040517f08c379a00000000000000000000000000000000000000000000000000000000081526004016110df90612125565b60405180910390fd5b6110f1816115c6565b50565b61118a816040516024016111089190612033565b6040516020818303038152906040527f41304fac000000000000000000000000000000000000000000000000000000007bffffffffffffffffffffffffffffffffffffffffffffffffffffffff19166020820180517bffffffffffffffffffffffffffffffffffffffffffffffffffffffff83818316178352505050506116f3565b50565b600c60009054906101000a900460ff1615806111b757506005546004546111b49190612373565b42115b156111c157611397565b600960006111cf9190611790565b60005b600a6001018054905081101561137a576000600a6001018281548110611221577f4e487b7100000000000000000000000000000000000000000000000000000000600052603260045260246000fd5b906000526020600020018054611236906124ad565b80601f0160208091040260200160405190810160405280929190818152602001828054611262906124ad565b80156112af5780601f10611284576101008083540402835291602001916112af565b820191906000526020600020905b81548152906001019060200180831161129257829003601f168201915b5050505050905060006008546113306007846040516112ce9190611f0d565b908152602001604051809103902080548060200260200160405190810160405280929190818152602001828054801561132657602002820191906000526020600020905b815481526020019060010190808311611312575b505050505061171c565b61133a91906123c9565b905060098190806001815401808255809150506001900390600052602060002001600090919091909150555050808061137290612510565b9150506111d2565b506000600c60006101000a81548160ff0219169083151502179055505b565b600080600090505b835181101561143b578381815181106113e3577f4e487b7100000000000000000000000000000000000000000000000000000000600052603260045260246000fd5b602002602001015173ffffffffffffffffffffffffffffffffffffffff168373ffffffffffffffffffffffffffffffffffffffff161415611428576001915050611441565b808061143390612510565b9150506113a1565b50600090505b92915050565b6114df828260405160240161145d929190612055565b6040516020818303038152906040527f9710a9d0000000000000000000000000000000000000000000000000000000007bffffffffffffffffffffffffffffffffffffffffffffffffffffffff19166020820180517bffffffffffffffffffffffffffffffffffffffffffffffffffffffff83818316178352505050506116f3565b5050565b6000600a600101805490508351146114fe57600090506115c0565b600a6001018054905082511461151757600090506115c0565b60005b83518110156115ba57600084828151811061155e577f4e487b7100000000000000000000000000000000000000000000000000000000600052603260045260246000fd5b60200260200101519050600a6000018160405161157b9190611f0d565b908152602001604051809103902060009054906101000a900460ff166115a6576000925050506115c0565b5080806115b290612510565b91505061151a565b50600190505b92915050565b600073ffffffffffffffffffffffffffffffffffffffff168173ffffffffffffffffffffffffffffffffffffffff161415611636576040517f08c379a000000000000000000000000000000000000000000000000000000000815260040161162d906120a5565b60405180910390fd5b8073ffffffffffffffffffffffffffffffffffffffff1660008054906101000a900473ffffffffffffffffffffffffffffffffffffffff1673ffffffffffffffffffffffffffffffffffffffff167f8be0079c531659141344cd1fd0a4f28419497f9722a3daafe3b4186f6b6457e060405160405180910390a3806000806101000a81548173ffffffffffffffffffffffffffffffffffffffff021916908373ffffffffffffffffffffffffffffffffffffffff16021790555050565b60008151905060006a636f6e736f6c652e6c6f679050602083016000808483855afa5050505050565b6000805b825181101561178a57828181518110611762577f4e487b7100000000000000000000000000000000000000000000000000000000600052603260045260246000fd5b6020026020010151826117759190612373565b9150808061178290612510565b915050611720565b50919050565b50805460008255906000526020600020908101906117ae91906117b1565b50565b5b808211156117ca5760008160009055506001016117b2565b5090565b60006117e16117dc846121a0565b61217b565b9050808382526020820190508285602086028201111561180057600080fd5b60005b8581101561184a57813567ffffffffffffffff81111561182257600080fd5b80860161182f8982611a59565b85526020850194506020840193505050600181019050611803565b5050509392505050565b6000611867611862846121cc565b61217b565b9050808285602086028201111561187d57600080fd5b60005b858110156118ad57816118938882611a83565b845260208401935060208301925050600181019050611880565b5050509392505050565b60006118ca6118c5846121f2565b61217b565b905080838252602082019050828560208602820111156118e957600080fd5b60005b8581101561191957816118ff8882611a83565b8452602084019350602083019250506001810190506118ec565b5050509392505050565b60006119366119318461221e565b61217b565b90508281526020810184848401111561194e57600080fd5b61195984828561246b565b509392505050565b600061197461196f8461224f565b61217b565b90508281526020810184848401111561198c57600080fd5b61199784828561246b565b509392505050565b6000813590506119ae8161278e565b92915050565b600082601f8301126119c557600080fd5b81356119d58482602086016117ce565b91505092915050565b600082601f8301126119ef57600080fd5b60086119fc848285611854565b91505092915050565b600082601f830112611a1657600080fd5b8135611a268482602086016118b7565b91505092915050565b600082601f830112611a4057600080fd5b8135611a50848260208601611923565b91505092915050565b600082601f830112611a6a57600080fd5b8135611a7a848260208601611961565b91505092915050565b600081359050611a92816127a5565b92915050565b600060208284031215611aaa57600080fd5b6000611ab88482850161199f565b91505092915050565b6000806000806000806101a08789031215611adb57600080fd5b600087013567ffffffffffffffff811115611af557600080fd5b611b0189828a016119b4565b965050602087013567ffffffffffffffff811115611b1e57600080fd5b611b2a89828a01611a05565b955050604087013567ffffffffffffffff811115611b4757600080fd5b611b5389828a01611a2f565b9450506060611b6489828a016119de565b935050610160611b7689828a01611a83565b925050610180611b8889828a01611a83565b9150509295509295509295565b600060208284031215611ba757600080fd5b6000611bb584828501611a83565b91505092915050565b6000611bca8383611d6b565b905092915050565b6000611bde8383611eef565b60208301905092915050565b611bf3816123fa565b82525050565b6000611c04826122aa565b611c0e8185612308565b935083602082028501611c2085612280565b8060005b85811015611c5c5784840389528151611c3d8582611bbe565b9450611c48836122e1565b925060208a01995050600181019050611c24565b50829750879550505050505092915050565b611c77816122b5565b611c818184612319565b9250611c8c82612290565b8060005b83811015611cbd578151611ca48782611bd2565b9650611caf836122ee565b925050600181019050611c90565b505050505050565b6000611cd0826122c0565b611cda8185612324565b9350611ce58361229a565b8060005b83811015611d16578151611cfd8882611bd2565b9750611d08836122fb565b925050600181019050611ce9565b5085935050505092915050565b611d2c8161240c565b82525050565b6000611d3d826122cb565b611d478185612335565b9350611d5781856020860161247a565b611d6081612615565b840191505092915050565b6000611d76826122d6565b611d808185612346565b9350611d9081856020860161247a565b611d9981612615565b840191505092915050565b6000611daf826122d6565b611db98185612357565b9350611dc981856020860161247a565b611dd281612615565b840191505092915050565b6000611de8826122d6565b611df28185612368565b9350611e0281856020860161247a565b80840191505092915050565b6000611e1b601783612357565b9150611e2682612626565b602082019050919050565b6000611e3e602683612357565b9150611e498261264f565b604082019050919050565b6000611e61601383612357565b9150611e6c8261269e565b602082019050919050565b6000611e84602983612357565b9150611e8f826126c7565b604082019050919050565b6000611ea7602583612357565b9150611eb282612716565b604082019050919050565b6000611eca602083612357565b9150611ed582612765565b602082019050919050565b611ee981612438565b82525050565b611ef881612461565b82525050565b611f0781612461565b82525050565b6000611f198284611ddd565b915081905092915050565b6000602082019050611f396000830184611bea565b92915050565b60006020820190508181036000830152611f598184611bf9565b905092915050565b60006040820190508181036000830152611f7b8185611bf9565b90508181036020830152611f8f8184611cc5565b90509392505050565b60006020820190508181036000830152611fb28184611cc5565b905092915050565b6000602082019050611fcf6000830184611d23565b92915050565b6000610180820190508181036000830152611ff08188611d32565b9050611fff6020830187611c6e565b61200d610120830186611efe565b61201b610140830185611efe565b612029610160830184611ee0565b9695505050505050565b6000602082019050818103600083015261204d8184611da4565b905092915050565b6000604082019050818103600083015261206f8185611da4565b905061207e6020830184611efe565b9392505050565b6000602082019050818103600083015261209e81611e0e565b9050919050565b600060208201905081810360008301526120be81611e31565b9050919050565b600060208201905081810360008301526120de81611e54565b9050919050565b600060208201905081810360008301526120fe81611e77565b9050919050565b6000602082019050818103600083015261211e81611e9a565b9050919050565b6000602082019050818103600083015261213e81611ebd565b9050919050565b600060208201905061215a6000830184611ee0565b92915050565b60006020820190506121756000830184611efe565b92915050565b6000612185612196565b905061219182826124df565b919050565b6000604051905090565b600067ffffffffffffffff8211156121bb576121ba6125e6565b5b602082029050602081019050919050565b600067ffffffffffffffff8211156121e7576121e66125e6565b5b602082029050919050565b600067ffffffffffffffff82111561220d5761220c6125e6565b5b602082029050602081019050919050565b600067ffffffffffffffff821115612239576122386125e6565b5b61224282612615565b9050602081019050919050565b600067ffffffffffffffff82111561226a576122696125e6565b5b61227382612615565b9050602081019050919050565b6000819050602082019050919050565b6000819050919050565b6000819050602082019050919050565b600081519050919050565b600060089050919050565b600081519050919050565b600081519050919050565b600081519050919050565b6000602082019050919050565b6000602082019050919050565b6000602082019050919050565b600082825260208201905092915050565b600081905092915050565b600082825260208201905092915050565b600082825260208201905092915050565b600082825260208201905092915050565b600082825260208201905092915050565b600081905092915050565b600061237e82612461565b915061238983612461565b9250827fffffffffffffffffffffffffffffffffffffffffffffffffffffffffffffffff038211156123be576123bd612559565b5b828201905092915050565b60006123d482612461565b91506123df83612461565b9250826123ef576123ee612588565b5b828204905092915050565b600061240582612418565b9050919050565b60008115159050919050565b600073ffffffffffffffffffffffffffffffffffffffff82169050919050565b60007cffffffffffffffffffffffffffffffffffffffffffffffffffffffffff82169050919050565b6000819050919050565b82818337600083830152505050565b60005b8381101561249857808201518184015260208101905061247d565b838111156124a7576000848401525b50505050565b600060028204905060018216806124c557607f821691505b602082108114156124d9576124d86125b7565b5b50919050565b6124e882612615565b810181811067ffffffffffffffff82111715612507576125066125e6565b5b80604052505050565b600061251b82612461565b91507fffffffffffffffffffffffffffffffffffffffffffffffffffffffffffffffff82141561254e5761254d612559565b5b600182019050919050565b7f4e487b7100000000000000000000000000000000000000000000000000000000600052601160045260246000fd5b7f4e487b7100000000000000000000000000000000000000000000000000000000600052601260045260246000fd5b7f4e487b7100000000000000000000000000000000000000000000000000000000600052602260045260246000fd5b7f4e487b7100000000000000000000000000000000000000000000000000000000600052604160045260246000fd5b6000601f19601f8301169050919050565b7f5375626d697373696f6e20697320696e636f7272656374000000000000000000600082015250565b7f4f776e61626c653a206e6577206f776e657220697320746865207a65726f206160008201527f6464726573730000000000000000000000000000000000000000000000000000602082015250565b7f6d75737420686176652073656d6170686f726500000000000000000000000000600082015250565b7f5061727469636970616e742063616e206f6e6c7920696e73657274206964656e60008201527f74697479206f6e63650000000000000000000000000000000000000000000000602082015250565b7f4f6e6c79207061727469636970616e74732063616e20696e736572742069646560008201527f6e74697479000000000000000000000000000000000000000000000000000000602082015250565b7f4f776e61626c653a2063616c6c6572206973206e6f7420746865206f776e6572600082015250565b612797816123fa565b81146127a257600080fd5b50565b6127ae81612461565b81146127b957600080fd5b5056fea2646970667358221220f543608400f7c9fbee4502e8a7fb524d35f7f9355ae1402b13ebcc52b5c9376364736f6c63430008040033456e746572696e6720636f6e7374727563746f7220666f72207375727665792e2e2e",
  "linkReferences": {},
  "deployedLinkReferences": {}
}