{
  "_format": "hh-sol-artifact-1",
  "contractName": "Survey",
  "sourceName": "contracts/Survey.sol",
  "abi": [
    {
      "inputs": [
        {
          "internalType": "string[]",
          "name": "_surveyQuestions",
          "type": "string[]"
        },
        {
          "internalType": "address[]",
          "name": "_participants",
          "type": "address[]"
        },
        {
          "internalType": "uint256",
          "name": "_surveyTimeout",
          "type": "uint256"
        },
        {
          "internalType": "string",
          "name": "_surveyName",
          "type": "string"
        },
        {
          "internalType": "address",
          "name": "_semaphoreAddress",
          "type": "address"
        }
      ],
      "stateMutability": "nonpayable",
      "type": "constructor"
    },
    {
      "anonymous": false,
      "inputs": [
        {
          "indexed": true,
          "internalType": "address",
          "name": "previousOwner",
          "type": "address"
        },
        {
          "indexed": true,
          "internalType": "address",
          "name": "newOwner",
          "type": "address"
        }
      ],
      "name": "OwnershipTransferred",
      "type": "event"
    },
    {
      "inputs": [],
      "name": "addExternalNullifier",
      "outputs": [],
      "stateMutability": "nonpayable",
      "type": "function"
    },
    {
      "inputs": [],
      "name": "checkInsertIdentityStatus",
      "outputs": [
        {
          "internalType": "bool",
          "name": "",
          "type": "bool"
        }
      ],
      "stateMutability": "view",
      "type": "function"
    },
    {
      "inputs": [],
      "name": "getExternalNullifier",
      "outputs": [
        {
          "internalType": "uint232",
          "name": "",
          "type": "uint232"
        }
      ],
      "stateMutability": "view",
      "type": "function"
    },
    {
      "inputs": [],
      "name": "getIdentityCommitments",
      "outputs": [
        {
          "internalType": "uint256[]",
          "name": "",
          "type": "uint256[]"
        }
      ],
      "stateMutability": "view",
      "type": "function"
    },
    {
      "inputs": [],
      "name": "getSurveyName",
      "outputs": [
        {
          "internalType": "string",
          "name": "",
          "type": "string"
        }
      ],
      "stateMutability": "view",
      "type": "function"
    },
    {
      "inputs": [],
      "name": "getSurveyQuestions",
      "outputs": [
        {
          "internalType": "string[]",
          "name": "",
          "type": "string[]"
        }
      ],
      "stateMutability": "view",
      "type": "function"
    },
    {
      "inputs": [],
      "name": "getSurveyScores",
      "outputs": [
        {
          "internalType": "string[]",
          "name": "_surveyQuestions",
          "type": "string[]"
        },
        {
          "internalType": "uint256[]",
          "name": "_surveyScores",
          "type": "uint256[]"
        }
      ],
      "stateMutability": "nonpayable",
      "type": "function"
    },
    {
      "inputs": [
        {
          "internalType": "uint256",
          "name": "_identityCommitment",
          "type": "uint256"
        }
      ],
      "name": "insertIdentity",
      "outputs": [],
      "stateMutability": "nonpayable",
      "type": "function"
    },
    {
      "inputs": [],
      "name": "isOwner",
      "outputs": [
        {
          "internalType": "bool",
          "name": "",
          "type": "bool"
        }
      ],
      "stateMutability": "view",
      "type": "function"
    },
    {
      "inputs": [],
      "name": "owner",
      "outputs": [
        {
          "internalType": "address",
          "name": "",
          "type": "address"
        }
      ],
      "stateMutability": "view",
      "type": "function"
    },
    {
      "inputs": [],
      "name": "renounceOwnership",
      "outputs": [],
      "stateMutability": "nonpayable",
      "type": "function"
    },
    {
      "inputs": [
        {
          "internalType": "address",
          "name": "newOwner",
          "type": "address"
        }
      ],
      "name": "transferOwnership",
      "outputs": [],
      "stateMutability": "nonpayable",
      "type": "function"
    },
    {
      "inputs": [
        {
          "internalType": "string[]",
          "name": "questions",
          "type": "string[]"
        },
        {
          "internalType": "uint256[]",
          "name": "scores",
          "type": "uint256[]"
        },
        {
          "internalType": "bytes",
          "name": "surveyResponseBytes",
          "type": "bytes"
        },
        {
          "internalType": "uint256[8]",
          "name": "_proof",
          "type": "uint256[8]"
        },
        {
          "internalType": "uint256",
          "name": "_root",
          "type": "uint256"
        },
        {
          "internalType": "uint256",
          "name": "_nullifiersHash",
          "type": "uint256"
        }
      ],
      "name": "updateSurveyResult",
      "outputs": [],
      "stateMutability": "nonpayable",
      "type": "function"
    }
  ],
  "bytecode": "0x60806040523480156200001157600080fd5b506040516200364c3803806200364c83398181016040528101906200003791906200074f565b336000806101000a81548173ffffffffffffffffffffffffffffffffffffffff021916908373ffffffffffffffffffffffffffffffffffffffff16021790555060008054906101000a900473ffffffffffffffffffffffffffffffffffffffff1673ffffffffffffffffffffffffffffffffffffffff16600073ffffffffffffffffffffffffffffffffffffffff167f8be0079c531659141344cd1fd0a4f28419497f9722a3daafe3b4186f6b6457e060405160405180910390a3620001216040518060600160405280602281526020016200362a602291396200027060201b620012581760201c565b84600a60010190805190602001906200013c9291906200033c565b5060005b8551811015620001e357600086828151811062000186577f4e487b7100000000000000000000000000000000000000000000000000000000600052603260045260246000fd5b602002602001015190506001600a60000182604051620001a7919062000894565b908152602001604051809103902060006101000a81548160ff021916908315150217905550508080620001da9062000a95565b91505062000140565b50826005819055504260048190555080600260006101000a81548173ffffffffffffffffffffffffffffffffffffffff021916908373ffffffffffffffffffffffffffffffffffffffff16021790555083600690805190602001906200024b929190620003a3565b5081600190805190602001906200026492919062000432565b50505050505062000bb5565b6200031081604051602401620002879190620008ad565b6040516020818303038152906040527f41304fac000000000000000000000000000000000000000000000000000000007bffffffffffffffffffffffffffffffffffffffffffffffffffffffff19166020820180517bffffffffffffffffffffffffffffffffffffffffffffffffffffffff83818316178352505050506200031360201b60201c565b50565b60008151905060006a636f6e736f6c652e6c6f679050602083016000808483855afa5050505050565b82805482825590600052602060002090810192821562000390579160200282015b828111156200038f5782518290805190602001906200037e92919062000432565b50916020019190600101906200035d565b5b5090506200039f9190620004c3565b5090565b8280548282559060005260206000209081019282156200041f579160200282015b828111156200041e5782518260006101000a81548173ffffffffffffffffffffffffffffffffffffffff021916908373ffffffffffffffffffffffffffffffffffffffff16021790555091602001919060010190620003c4565b5b5090506200042e9190620004eb565b5090565b828054620004409062000a29565b90600052602060002090601f016020900481019282620004645760008555620004b0565b82601f106200047f57805160ff1916838001178555620004b0565b82800160010185558215620004b0579182015b82811115620004af57825182559160200191906001019062000492565b5b509050620004bf9190620004eb565b5090565b5b80821115620004e75760008181620004dd91906200050a565b50600101620004c4565b5090565b5b8082111562000506576000816000905550600101620004ec565b5090565b508054620005189062000a29565b6000825580601f106200052c57506200054d565b601f0160209004906000526020600020908101906200054c9190620004eb565b5b50565b6000620005676200056184620008fa565b620008d1565b905080838252602082019050828560208602820111156200058757600080fd5b60005b85811015620005bb5781620005a088826200069a565b8452602084019350602083019250506001810190506200058a565b5050509392505050565b6000620005dc620005d68462000929565b620008d1565b90508083825260208201905082856020860282011115620005fc57600080fd5b60005b858110156200064b57815167ffffffffffffffff8111156200062057600080fd5b8086016200062f89826200070b565b85526020850194506020840193505050600181019050620005ff565b5050509392505050565b60006200066c620006668462000958565b620008d1565b9050828152602081018484840111156200068557600080fd5b62000692848285620009f3565b509392505050565b600081519050620006ab8162000b81565b92915050565b600082601f830112620006c357600080fd5b8151620006d584826020860162000550565b91505092915050565b600082601f830112620006f057600080fd5b815162000702848260208601620005c5565b91505092915050565b600082601f8301126200071d57600080fd5b81516200072f84826020860162000655565b91505092915050565b600081519050620007498162000b9b565b92915050565b600080600080600060a086880312156200076857600080fd5b600086015167ffffffffffffffff8111156200078357600080fd5b6200079188828901620006de565b955050602086015167ffffffffffffffff811115620007af57600080fd5b620007bd88828901620006b1565b9450506040620007d08882890162000738565b935050606086015167ffffffffffffffff811115620007ee57600080fd5b620007fc888289016200070b565b92505060806200080f888289016200069a565b9150509295509295909350565b600062000829826200098e565b62000835818562000999565b935062000847818560208601620009f3565b620008528162000b70565b840191505092915050565b60006200086a826200098e565b620008768185620009aa565b935062000888818560208601620009f3565b80840191505092915050565b6000620008a282846200085d565b915081905092915050565b60006020820190508181036000830152620008c981846200081c565b905092915050565b6000620008dd620008f0565b9050620008eb828262000a5f565b919050565b6000604051905090565b600067ffffffffffffffff82111562000918576200091762000b41565b5b602082029050602081019050919050565b600067ffffffffffffffff82111562000947576200094662000b41565b5b602082029050602081019050919050565b600067ffffffffffffffff82111562000976576200097562000b41565b5b620009818262000b70565b9050602081019050919050565b600081519050919050565b600082825260208201905092915050565b600081905092915050565b6000620009c282620009c9565b9050919050565b600073ffffffffffffffffffffffffffffffffffffffff82169050919050565b6000819050919050565b60005b8381101562000a13578082015181840152602081019050620009f6565b8381111562000a23576000848401525b50505050565b6000600282049050600182168062000a4257607f821691505b6020821081141562000a595762000a5862000b12565b5b50919050565b62000a6a8262000b70565b810181811067ffffffffffffffff8211171562000a8c5762000a8b62000b41565b5b80604052505050565b600062000aa282620009e9565b91507fffffffffffffffffffffffffffffffffffffffffffffffffffffffffffffffff82141562000ad85762000ad762000ae3565b5b600182019050919050565b7f4e487b7100000000000000000000000000000000000000000000000000000000600052601160045260246000fd5b7f4e487b7100000000000000000000000000000000000000000000000000000000600052602260045260246000fd5b7f4e487b7100000000000000000000000000000000000000000000000000000000600052604160045260246000fd5b6000601f19601f8301169050919050565b62000b8c81620009b5565b811462000b9857600080fd5b50565b62000ba681620009e9565b811462000bb257600080fd5b50565b612a658062000bc56000396000f3fe608060405234801561001057600080fd5b50600436106100cf5760003560e01c80638da5cb5b1161008c578063df2e808f11610066578063df2e808f146101b9578063e1984df6146101d5578063e2566401146101f3578063f2fde38b14610211576100cf565b80638da5cb5b1461015f5780638f32d59b1461017d578063cf4ae8fb1461019b576100cf565b8063074fa741146100d4578063260a89af146100f357806340566790146101115780636d80efca1461012f578063715018a61461014b5780637714413714610155575b600080fd5b6100dc61022d565b6040516100ea92919061217f565b60405180910390f35b6100fb610542565b6040516101089190612251565b60405180910390f35b6101196105d4565b60405161012691906121b6565b60405180910390f35b61014960048036038101906101449190611db3565b61062c565b005b610153610965565b005b61015d610a6a565b005b610167610c59565b6040516101749190612142565b60405180910390f35b610185610c82565b60405161019291906121d8565b60405180910390f35b6101a3610cd9565b6040516101b0919061215d565b60405180910390f35b6101d360048036038101906101ce9190611cdf565b610db5565b005b6101dd61117e565b6040516101ea9190612363565b60405180910390f35b6101fb6111b1565b60405161020891906121d8565b60405180910390f35b61022b60048036038101906102269190611cb6565b611205565b005b606080610238610c82565b610277576040517f08c379a000000000000000000000000000000000000000000000000000000000815260040161026e90612343565b60405180910390fd5b600073ffffffffffffffffffffffffffffffffffffffff16600260009054906101000a900473ffffffffffffffffffffffffffffffffffffffff1673ffffffffffffffffffffffffffffffffffffffff161415610309576040517f08c379a0000000000000000000000000000000000000000000000000000000008152600401610300906122e3565b60405180910390fd5b6103116112f1565b6005546004546103219190612591565b42111561040d576060600a6001018181805480602002602001604051908101604052809291908181526020016000905b828210156103fd578382906000526020600020018054610370906126cb565b80601f016020809104026020016040519081016040528092919081815260200182805461039c906126cb565b80156103e95780601f106103be576101008083540402835291602001916103e9565b820191906000526020600020905b8154815290600101906020018083116103cc57829003601f168201915b505050505081526020019060010190610351565b505050509150925092505061053e565b600a600101600981805480602002602001604051908101604052809291908181526020016000905b828210156104e1578382906000526020600020018054610454906126cb565b80601f0160208091040260200160405190810160405280929190818152602001828054610480906126cb565b80156104cd5780601f106104a2576101008083540402835291602001916104cd565b820191906000526020600020905b8154815290600101906020018083116104b057829003601f168201915b505050505081526020019060010190610435565b5050505091508080548060200260200160405190810160405280929190818152602001828054801561053257602002820191906000526020600020905b81548152602001906001019080831161051e575b50505050509050915091505b9091565b606060018054610551906126cb565b80601f016020809104026020016040519081016040528092919081815260200182805461057d906126cb565b80156105ca5780601f1061059f576101008083540402835291602001916105ca565b820191906000526020600020905b8154815290600101906020018083116105ad57829003601f168201915b5050505050905090565b6060600d80548060200260200160405190810160405280929190818152602001828054801561062257602002820191906000526020600020905b81548152602001906001019080831161060e575b5050505050905090565b6106bc60068054806020026020016040519081016040528092919081815260200182805480156106b157602002820191906000526020600020905b8160009054906101000a900473ffffffffffffffffffffffffffffffffffffffff1673ffffffffffffffffffffffffffffffffffffffff1681526020019060010190808311610667575b5050505050336114fd565b6106fb576040517f08c379a00000000000000000000000000000000000000000000000000000000081526004016106f290612323565b60405180910390fd5b60001515600e60003373ffffffffffffffffffffffffffffffffffffffff1673ffffffffffffffffffffffffffffffffffffffff16815260200190815260200160002060009054906101000a900460ff1615151461078e576040517f08c379a000000000000000000000000000000000000000000000000000000000815260040161078590612303565b60405180910390fd5b6107cc6040518060400160405280601c81526020017f5375727665793a737461727420696e73657274206964656e7469747900000000815250611258565b600260009054906101000a900473ffffffffffffffffffffffffffffffffffffffff1673ffffffffffffffffffffffffffffffffffffffff16636d80efca826040518263ffffffff1660e01b8152600401610827919061237e565b600060405180830381600087803b15801561084157600080fd5b505af1158015610855573d6000803e3d6000fd5b50505050600d8190806001815401808255809150506001900390600052602060002001600090919091909150556001600e60003373ffffffffffffffffffffffffffffffffffffffff1673ffffffffffffffffffffffffffffffffffffffff16815260200190815260200160002060006101000a81548160ff0219169083151502179055506000600d8054905090506109236040518060400160405280601f81526020017f4e756d626572206f6620636f6d6d69746d656e747320696e2073757276657900815250826115ab565b6109616040518060400160405280601f81526020017f5375727665793a636f6d706c65746520696e73657274206964656e7469747900815250611258565b5050565b61096d610c82565b6109ac576040517f08c379a00000000000000000000000000000000000000000000000000000000081526004016109a390612343565b60405180910390fd5b600073ffffffffffffffffffffffffffffffffffffffff1660008054906101000a900473ffffffffffffffffffffffffffffffffffffffff1673ffffffffffffffffffffffffffffffffffffffff167f8be0079c531659141344cd1fd0a4f28419497f9722a3daafe3b4186f6b6457e060405160405180910390a360008060006101000a81548173ffffffffffffffffffffffffffffffffffffffff021916908373ffffffffffffffffffffffffffffffffffffffff160217905550565b610a72610c82565b610ab1576040517f08c379a0000000000000000000000000000000000000000000000000000000008152600401610aa890612343565b60405180910390fd5b600030604051602001610ac49190612142565b6040516020818303038152906040529050808051906020012060001c600360006101000a8154817cffffffffffffffffffffffffffffffffffffffffffffffffffffffffff02191690837cffffffffffffffffffffffffffffffffffffffffffffffffffffffffff160217905550600260009054906101000a900473ffffffffffffffffffffffffffffffffffffffff1673ffffffffffffffffffffffffffffffffffffffff1663539f38b2600360009054906101000a90047cffffffffffffffffffffffffffffffffffffffffffffffffffffffffff166040518263ffffffff1660e01b8152600401610bb89190612363565b600060405180830381600087803b158015610bd257600080fd5b505af1158015610be6573d6000803e3d6000fd5b50505050610c56604051806060016040528060228152602001612a0e60229139600360009054906101000a90047cffffffffffffffffffffffffffffffffffffffffffffffffffffffffff167cffffffffffffffffffffffffffffffffffffffffffffffffffffffffff166115ab565b50565b60008060009054906101000a900473ffffffffffffffffffffffffffffffffffffffff16905090565b60008060009054906101000a900473ffffffffffffffffffffffffffffffffffffffff1673ffffffffffffffffffffffffffffffffffffffff163373ffffffffffffffffffffffffffffffffffffffff1614905090565b6060600a600101805480602002602001604051908101604052809291908181526020016000905b82821015610dac578382906000526020600020018054610d1f906126cb565b80601f0160208091040260200160405190810160405280929190818152602001828054610d4b906126cb565b8015610d985780601f10610d6d57610100808354040283529160200191610d98565b820191906000526020600020905b815481529060010190602001808311610d7b57829003601f168201915b505050505081526020019060010190610d00565b50505050905090565b600073ffffffffffffffffffffffffffffffffffffffff16600260009054906101000a900473ffffffffffffffffffffffffffffffffffffffff1673ffffffffffffffffffffffffffffffffffffffff161415610e47576040517f08c379a0000000000000000000000000000000000000000000000000000000008152600401610e3e906122e3565b60405180910390fd5b610e518686611647565b610e90576040517f08c379a0000000000000000000000000000000000000000000000000000000008152600401610e87906122a3565b60405180910390fd5b610efc6040518060600160405280603381526020016129db60339139600360009054906101000a90047cffffffffffffffffffffffffffffffffffffffffffffffffffffffffff167cffffffffffffffffffffffffffffffffffffffffffffffffffffffffff166115ab565b600260009054906101000a900473ffffffffffffffffffffffffffffffffffffffff1673ffffffffffffffffffffffffffffffffffffffff16630e57596f85858585600360009054906101000a90047cffffffffffffffffffffffffffffffffffffffffffffffffffffffffff166040518663ffffffff1660e01b8152600401610f8a9594939291906121f3565b600060405180830381600087803b158015610fa457600080fd5b505af1158015610fb8573d6000803e3d6000fd5b5050505060086000815480929190610fcf9061272e565b919050555060005b600a6001018054905081101561115a576000600a6001018281548110611026577f4e487b7100000000000000000000000000000000000000000000000000000000600052603260045260246000fd5b90600052602060002001805461103b906126cb565b80601f0160208091040260200160405190810160405280929190818152602001828054611067906126cb565b80156110b45780601f10611089576101008083540402835291602001916110b4565b820191906000526020600020905b81548152906001019060200180831161109757829003601f168201915b5050505050905060008783815181106110f6577f4e487b7100000000000000000000000000000000000000000000000000000000600052603260045260246000fd5b60200260200101519050600782604051611110919061212b565b9081526020016040518091039020819080600181540180825580915050600190039060005260206000200160009091909190915055505080806111529061272e565b915050610fd7565b506001600c60006101000a81548160ff021916908315150217905550505050505050565b6000600360009054906101000a90047cffffffffffffffffffffffffffffffffffffffffffffffffffffffffff16905090565b6000600e60003373ffffffffffffffffffffffffffffffffffffffff1673ffffffffffffffffffffffffffffffffffffffff16815260200190815260200160002060009054906101000a900460ff16905090565b61120d610c82565b61124c576040517f08c379a000000000000000000000000000000000000000000000000000000000815260040161124390612343565b60405180910390fd5b611255816117e4565b50565b6112ee8160405160240161126c9190612251565b6040516020818303038152906040527f41304fac000000000000000000000000000000000000000000000000000000007bffffffffffffffffffffffffffffffffffffffffffffffffffffffff19166020820180517bffffffffffffffffffffffffffffffffffffffffffffffffffffffff8381831617835250505050611911565b50565b600c60009054906101000a900460ff16158061131b57506005546004546113189190612591565b42115b15611325576114fb565b6009600061133391906119ae565b60005b600a600101805490508110156114de576000600a6001018281548110611385577f4e487b7100000000000000000000000000000000000000000000000000000000600052603260045260246000fd5b90600052602060002001805461139a906126cb565b80601f01602080910402602001604051908101604052809291908181526020018280546113c6906126cb565b80156114135780601f106113e857610100808354040283529160200191611413565b820191906000526020600020905b8154815290600101906020018083116113f657829003601f168201915b505050505090506000600854611494600784604051611432919061212b565b908152602001604051809103902080548060200260200160405190810160405280929190818152602001828054801561148a57602002820191906000526020600020905b815481526020019060010190808311611476575b505050505061193a565b61149e91906125e7565b90506009819080600181540180825580915050600190039060005260206000200160009091909190915055505080806114d69061272e565b915050611336565b506000600c60006101000a81548160ff0219169083151502179055505b565b600080600090505b835181101561159f57838181518110611547577f4e487b7100000000000000000000000000000000000000000000000000000000600052603260045260246000fd5b602002602001015173ffffffffffffffffffffffffffffffffffffffff168373ffffffffffffffffffffffffffffffffffffffff16141561158c5760019150506115a5565b80806115979061272e565b915050611505565b50600090505b92915050565b61164382826040516024016115c1929190612273565b6040516020818303038152906040527f9710a9d0000000000000000000000000000000000000000000000000000000007bffffffffffffffffffffffffffffffffffffffffffffffffffffffff19166020820180517bffffffffffffffffffffffffffffffffffffffffffffffffffffffff8381831617835250505050611911565b5050565b6000600a600101805490508351146116a0576116976040518060400160405280601981526020017f496e207468652066697273742069662073746174656d656e7400000000000000815250611258565b600090506117de565b600a600101805490508251146116f7576116ee6040518060400160405280601a81526020017f496e20746865207365636f6e642069662073746174656d656e74000000000000815250611258565b600090506117de565b60005b83518110156117d857600084828151811061173e577f4e487b7100000000000000000000000000000000000000000000000000000000600052603260045260246000fd5b60200260200101519050600a6000018160405161175b919061212b565b908152602001604051809103902060009054906101000a900460ff166117c4576117b96040518060400160405280601981526020017f496e207468652074686972642069662073746174656d656e7400000000000000815250611258565b6000925050506117de565b5080806117d09061272e565b9150506116fa565b50600190505b92915050565b600073ffffffffffffffffffffffffffffffffffffffff168173ffffffffffffffffffffffffffffffffffffffff161415611854576040517f08c379a000000000000000000000000000000000000000000000000000000000815260040161184b906122c3565b60405180910390fd5b8073ffffffffffffffffffffffffffffffffffffffff1660008054906101000a900473ffffffffffffffffffffffffffffffffffffffff1673ffffffffffffffffffffffffffffffffffffffff167f8be0079c531659141344cd1fd0a4f28419497f9722a3daafe3b4186f6b6457e060405160405180910390a3806000806101000a81548173ffffffffffffffffffffffffffffffffffffffff021916908373ffffffffffffffffffffffffffffffffffffffff16021790555050565b60008151905060006a636f6e736f6c652e6c6f679050602083016000808483855afa5050505050565b6000805b82518110156119a857828181518110611980577f4e487b7100000000000000000000000000000000000000000000000000000000600052603260045260246000fd5b6020026020010151826119939190612591565b915080806119a09061272e565b91505061193e565b50919050565b50805460008255906000526020600020908101906119cc91906119cf565b50565b5b808211156119e85760008160009055506001016119d0565b5090565b60006119ff6119fa846123be565b612399565b90508083825260208201905082856020860282011115611a1e57600080fd5b60005b85811015611a6857813567ffffffffffffffff811115611a4057600080fd5b808601611a4d8982611c77565b85526020850194506020840193505050600181019050611a21565b5050509392505050565b6000611a85611a80846123ea565b612399565b90508082856020860282011115611a9b57600080fd5b60005b85811015611acb5781611ab18882611ca1565b845260208401935060208301925050600181019050611a9e565b5050509392505050565b6000611ae8611ae384612410565b612399565b90508083825260208201905082856020860282011115611b0757600080fd5b60005b85811015611b375781611b1d8882611ca1565b845260208401935060208301925050600181019050611b0a565b5050509392505050565b6000611b54611b4f8461243c565b612399565b905082815260208101848484011115611b6c57600080fd5b611b77848285612689565b509392505050565b6000611b92611b8d8461246d565b612399565b905082815260208101848484011115611baa57600080fd5b611bb5848285612689565b509392505050565b600081359050611bcc816129ac565b92915050565b600082601f830112611be357600080fd5b8135611bf38482602086016119ec565b91505092915050565b600082601f830112611c0d57600080fd5b6008611c1a848285611a72565b91505092915050565b600082601f830112611c3457600080fd5b8135611c44848260208601611ad5565b91505092915050565b600082601f830112611c5e57600080fd5b8135611c6e848260208601611b41565b91505092915050565b600082601f830112611c8857600080fd5b8135611c98848260208601611b7f565b91505092915050565b600081359050611cb0816129c3565b92915050565b600060208284031215611cc857600080fd5b6000611cd684828501611bbd565b91505092915050565b6000806000806000806101a08789031215611cf957600080fd5b600087013567ffffffffffffffff811115611d1357600080fd5b611d1f89828a01611bd2565b965050602087013567ffffffffffffffff811115611d3c57600080fd5b611d4889828a01611c23565b955050604087013567ffffffffffffffff811115611d6557600080fd5b611d7189828a01611c4d565b9450506060611d8289828a01611bfc565b935050610160611d9489828a01611ca1565b925050610180611da689828a01611ca1565b9150509295509295509295565b600060208284031215611dc557600080fd5b6000611dd384828501611ca1565b91505092915050565b6000611de88383611f89565b905092915050565b6000611dfc838361210d565b60208301905092915050565b611e1181612618565b82525050565b6000611e22826124c8565b611e2c8185612526565b935083602082028501611e3e8561249e565b8060005b85811015611e7a5784840389528151611e5b8582611ddc565b9450611e66836124ff565b925060208a01995050600181019050611e42565b50829750879550505050505092915050565b611e95816124d3565b611e9f8184612537565b9250611eaa826124ae565b8060005b83811015611edb578151611ec28782611df0565b9650611ecd8361250c565b925050600181019050611eae565b505050505050565b6000611eee826124de565b611ef88185612542565b9350611f03836124b8565b8060005b83811015611f34578151611f1b8882611df0565b9750611f2683612519565b925050600181019050611f07565b5085935050505092915050565b611f4a8161262a565b82525050565b6000611f5b826124e9565b611f658185612553565b9350611f75818560208601612698565b611f7e81612833565b840191505092915050565b6000611f94826124f4565b611f9e8185612564565b9350611fae818560208601612698565b611fb781612833565b840191505092915050565b6000611fcd826124f4565b611fd78185612575565b9350611fe7818560208601612698565b611ff081612833565b840191505092915050565b6000612006826124f4565b6120108185612586565b9350612020818560208601612698565b80840191505092915050565b6000612039601783612575565b915061204482612844565b602082019050919050565b600061205c602683612575565b91506120678261286d565b604082019050919050565b600061207f601383612575565b915061208a826128bc565b602082019050919050565b60006120a2602983612575565b91506120ad826128e5565b604082019050919050565b60006120c5602583612575565b91506120d082612934565b604082019050919050565b60006120e8602083612575565b91506120f382612983565b602082019050919050565b61210781612656565b82525050565b6121168161267f565b82525050565b6121258161267f565b82525050565b60006121378284611ffb565b915081905092915050565b60006020820190506121576000830184611e08565b92915050565b600060208201905081810360008301526121778184611e17565b905092915050565b600060408201905081810360008301526121998185611e17565b905081810360208301526121ad8184611ee3565b90509392505050565b600060208201905081810360008301526121d08184611ee3565b905092915050565b60006020820190506121ed6000830184611f41565b92915050565b600061018082019050818103600083015261220e8188611f50565b905061221d6020830187611e8c565b61222b61012083018661211c565b61223961014083018561211c565b6122476101608301846120fe565b9695505050505050565b6000602082019050818103600083015261226b8184611fc2565b905092915050565b6000604082019050818103600083015261228d8185611fc2565b905061229c602083018461211c565b9392505050565b600060208201905081810360008301526122bc8161202c565b9050919050565b600060208201905081810360008301526122dc8161204f565b9050919050565b600060208201905081810360008301526122fc81612072565b9050919050565b6000602082019050818103600083015261231c81612095565b9050919050565b6000602082019050818103600083015261233c816120b8565b9050919050565b6000602082019050818103600083015261235c816120db565b9050919050565b600060208201905061237860008301846120fe565b92915050565b6000602082019050612393600083018461211c565b92915050565b60006123a36123b4565b90506123af82826126fd565b919050565b6000604051905090565b600067ffffffffffffffff8211156123d9576123d8612804565b5b602082029050602081019050919050565b600067ffffffffffffffff82111561240557612404612804565b5b602082029050919050565b600067ffffffffffffffff82111561242b5761242a612804565b5b602082029050602081019050919050565b600067ffffffffffffffff82111561245757612456612804565b5b61246082612833565b9050602081019050919050565b600067ffffffffffffffff82111561248857612487612804565b5b61249182612833565b9050602081019050919050565b6000819050602082019050919050565b6000819050919050565b6000819050602082019050919050565b600081519050919050565b600060089050919050565b600081519050919050565b600081519050919050565b600081519050919050565b6000602082019050919050565b6000602082019050919050565b6000602082019050919050565b600082825260208201905092915050565b600081905092915050565b600082825260208201905092915050565b600082825260208201905092915050565b600082825260208201905092915050565b600082825260208201905092915050565b600081905092915050565b600061259c8261267f565b91506125a78361267f565b9250827fffffffffffffffffffffffffffffffffffffffffffffffffffffffffffffffff038211156125dc576125db612777565b5b828201905092915050565b60006125f28261267f565b91506125fd8361267f565b92508261260d5761260c6127a6565b5b828204905092915050565b600061262382612636565b9050919050565b60008115159050919050565b600073ffffffffffffffffffffffffffffffffffffffff82169050919050565b60007cffffffffffffffffffffffffffffffffffffffffffffffffffffffffff82169050919050565b6000819050919050565b82818337600083830152505050565b60005b838110156126b657808201518184015260208101905061269b565b838111156126c5576000848401525b50505050565b600060028204905060018216806126e357607f821691505b602082108114156126f7576126f66127d5565b5b50919050565b61270682612833565b810181811067ffffffffffffffff8211171561272557612724612804565b5b80604052505050565b60006127398261267f565b91507fffffffffffffffffffffffffffffffffffffffffffffffffffffffffffffffff82141561276c5761276b612777565b5b600182019050919050565b7f4e487b7100000000000000000000000000000000000000000000000000000000600052601160045260246000fd5b7f4e487b7100000000000000000000000000000000000000000000000000000000600052601260045260246000fd5b7f4e487b7100000000000000000000000000000000000000000000000000000000600052602260045260246000fd5b7f4e487b7100000000000000000000000000000000000000000000000000000000600052604160045260246000fd5b6000601f19601f8301169050919050565b7f5375626d697373696f6e20697320696e636f7272656374000000000000000000600082015250565b7f4f776e61626c653a206e6577206f776e657220697320746865207a65726f206160008201527f6464726573730000000000000000000000000000000000000000000000000000602082015250565b7f6d75737420686176652073656d6170686f726500000000000000000000000000600082015250565b7f5061727469636970616e742063616e206f6e6c7920696e73657274206964656e60008201527f74697479206f6e63650000000000000000000000000000000000000000000000602082015250565b7f4f6e6c79207061727469636970616e74732063616e20696e736572742069646560008201527f6e74697479000000000000000000000000000000000000000000000000000000602082015250565b7f4f776e61626c653a2063616c6c6572206973206e6f7420746865206f776e6572600082015250565b6129b581612618565b81146129c057600080fd5b50565b6129cc8161267f565b81146129d757600080fd5b5056fe5375727665793a65787465726e616c206e756c6c696669657220696e207570646174652073757276657920726573756c743a205375727665793a416464696e672065787465726e616c206e756c6c69666965723a20a26469706673582212209c42af92becb2cab254d27dbede9573b7beb14a024985753a74afc808718a7ca64736f6c63430008040033456e746572696e6720636f6e7374727563746f7220666f72207375727665792e2e2e",
  "linkReferences": {},
  "deployedLinkReferences": {}
}