{
  "_format": "hh-sol-artifact-1",
  "contractName": "Survey",
  "sourceName": "contracts/Survey.sol",
  "abi": [
    {
      "inputs": [
        {
          "internalType": "string[]",
          "name": "_surveyQuestions",
          "type": "string[]"
        },
        {
          "internalType": "address[]",
          "name": "_participants",
          "type": "address[]"
        },
        {
          "internalType": "string",
          "name": "_surveyName",
          "type": "string"
        },
        {
          "internalType": "address",
          "name": "_semaphoreAddress",
          "type": "address"
        }
      ],
      "stateMutability": "nonpayable",
      "type": "constructor"
    },
    {
      "anonymous": false,
      "inputs": [
        {
          "indexed": true,
          "internalType": "address",
          "name": "previousOwner",
          "type": "address"
        },
        {
          "indexed": true,
          "internalType": "address",
          "name": "newOwner",
          "type": "address"
        }
      ],
      "name": "OwnershipTransferred",
      "type": "event"
    },
    {
      "inputs": [],
      "name": "addExternalNullifier",
      "outputs": [],
      "stateMutability": "nonpayable",
      "type": "function"
    },
    {
      "inputs": [],
      "name": "calcAverageScorePerQuestion",
      "outputs": [],
      "stateMutability": "nonpayable",
      "type": "function"
    },
    {
      "inputs": [],
      "name": "checkInsertIdentityStatus",
      "outputs": [
        {
          "internalType": "bool",
          "name": "",
          "type": "bool"
        }
      ],
      "stateMutability": "view",
      "type": "function"
    },
    {
      "inputs": [],
      "name": "getExternalNullifier",
      "outputs": [
        {
          "internalType": "uint232",
          "name": "",
          "type": "uint232"
        }
      ],
      "stateMutability": "view",
      "type": "function"
    },
    {
      "inputs": [],
      "name": "getIdentityCommitments",
      "outputs": [
        {
          "internalType": "uint256[]",
          "name": "",
          "type": "uint256[]"
        }
      ],
      "stateMutability": "view",
      "type": "function"
    },
    {
      "inputs": [],
      "name": "getSurveyName",
      "outputs": [
        {
          "internalType": "string",
          "name": "",
          "type": "string"
        }
      ],
      "stateMutability": "view",
      "type": "function"
    },
    {
      "inputs": [],
      "name": "getSurveyQuestions",
      "outputs": [
        {
          "internalType": "string[]",
          "name": "",
          "type": "string[]"
        }
      ],
      "stateMutability": "view",
      "type": "function"
    },
    {
      "inputs": [],
      "name": "getSurveyScores",
      "outputs": [
        {
          "internalType": "string[]",
          "name": "_surveyQuestions",
          "type": "string[]"
        },
        {
          "internalType": "uint256[]",
          "name": "_surveyScores",
          "type": "uint256[]"
        }
      ],
      "stateMutability": "view",
      "type": "function"
    },
    {
      "inputs": [
        {
          "internalType": "uint256",
          "name": "_identityCommitment",
          "type": "uint256"
        }
      ],
      "name": "insertIdentity",
      "outputs": [],
      "stateMutability": "nonpayable",
      "type": "function"
    },
    {
      "inputs": [],
      "name": "isOwner",
      "outputs": [
        {
          "internalType": "bool",
          "name": "",
          "type": "bool"
        }
      ],
      "stateMutability": "view",
      "type": "function"
    },
    {
      "inputs": [],
      "name": "owner",
      "outputs": [
        {
          "internalType": "address",
          "name": "",
          "type": "address"
        }
      ],
      "stateMutability": "view",
      "type": "function"
    },
    {
      "inputs": [],
      "name": "renounceOwnership",
      "outputs": [],
      "stateMutability": "nonpayable",
      "type": "function"
    },
    {
      "inputs": [
        {
          "internalType": "address",
          "name": "newOwner",
          "type": "address"
        }
      ],
      "name": "transferOwnership",
      "outputs": [],
      "stateMutability": "nonpayable",
      "type": "function"
    },
    {
      "inputs": [
        {
          "internalType": "string[]",
          "name": "questions",
          "type": "string[]"
        },
        {
          "internalType": "uint256[]",
          "name": "scores",
          "type": "uint256[]"
        },
        {
          "internalType": "bytes",
          "name": "surveyResponseBytes",
          "type": "bytes"
        },
        {
          "internalType": "uint256[8]",
          "name": "_proof",
          "type": "uint256[8]"
        },
        {
          "internalType": "uint256",
          "name": "_root",
          "type": "uint256"
        },
        {
          "internalType": "uint256",
          "name": "_nullifiersHash",
          "type": "uint256"
        }
      ],
      "name": "updateSurveyResult",
      "outputs": [],
      "stateMutability": "nonpayable",
      "type": "function"
    }
  ],
  "bytecode": "0x60806040523480156200001157600080fd5b506040516200305938038062003059833981810160405281019062000037919062000649565b336000806101000a81548173ffffffffffffffffffffffffffffffffffffffff021916908373ffffffffffffffffffffffffffffffffffffffff16021790555060008054906101000a900473ffffffffffffffffffffffffffffffffffffffff1673ffffffffffffffffffffffffffffffffffffffff16600073ffffffffffffffffffffffffffffffffffffffff167f8be0079c531659141344cd1fd0a4f28419497f9722a3daafe3b4186f6b6457e060405160405180910390a383600860010190805190602001906200010d9291906200024d565b5060005b8451811015620001b457600085828151811062000157577f4e487b7100000000000000000000000000000000000000000000000000000000600052603260045260246000fd5b60200260200101519050600160086000018260405162000178919062000737565b908152602001604051809103902060006101000a81548160ff021916908315150217905550508080620001ab9062000903565b91505062000111565b5080600260006101000a81548173ffffffffffffffffffffffffffffffffffffffff021916908373ffffffffffffffffffffffffffffffffffffffff16021790555082600490805190602001906200020e929190620002b4565b5081600190805190602001906200022792919062000343565b506000600a60006101000a81548160ff0219169083151502179055505050505062000a09565b828054828255906000526020600020908101928215620002a1579160200282015b82811115620002a05782518290805190602001906200028f92919062000343565b50916020019190600101906200026e565b5b509050620002b09190620003d4565b5090565b82805482825590600052602060002090810192821562000330579160200282015b828111156200032f5782518260006101000a81548173ffffffffffffffffffffffffffffffffffffffff021916908373ffffffffffffffffffffffffffffffffffffffff16021790555091602001919060010190620002d5565b5b5090506200033f9190620003fc565b5090565b828054620003519062000897565b90600052602060002090601f016020900481019282620003755760008555620003c1565b82601f106200039057805160ff1916838001178555620003c1565b82800160010185558215620003c1579182015b82811115620003c0578251825591602001919060010190620003a3565b5b509050620003d09190620003fc565b5090565b5b80821115620003f85760008181620003ee91906200041b565b50600101620003d5565b5090565b5b8082111562000417576000816000905550600101620003fd565b5090565b508054620004299062000897565b6000825580601f106200043d57506200045e565b601f0160209004906000526020600020908101906200045d9190620003fc565b5b50565b600062000478620004728462000779565b62000750565b905080838252602082019050828560208602820111156200049857600080fd5b60005b85811015620004cc5781620004b18882620005ab565b8452602084019350602083019250506001810190506200049b565b5050509392505050565b6000620004ed620004e784620007a8565b62000750565b905080838252602082019050828560208602820111156200050d57600080fd5b60005b858110156200055c57815167ffffffffffffffff8111156200053157600080fd5b8086016200054089826200061c565b8552602085019450602084019350505060018101905062000510565b5050509392505050565b60006200057d6200057784620007d7565b62000750565b9050828152602081018484840111156200059657600080fd5b620005a384828562000861565b509392505050565b600081519050620005bc81620009ef565b92915050565b600082601f830112620005d457600080fd5b8151620005e684826020860162000461565b91505092915050565b600082601f8301126200060157600080fd5b815162000613848260208601620004d6565b91505092915050565b600082601f8301126200062e57600080fd5b81516200064084826020860162000566565b91505092915050565b600080600080608085870312156200066057600080fd5b600085015167ffffffffffffffff8111156200067b57600080fd5b6200068987828801620005ef565b945050602085015167ffffffffffffffff811115620006a757600080fd5b620006b587828801620005c2565b935050604085015167ffffffffffffffff811115620006d357600080fd5b620006e1878288016200061c565b9250506060620006f487828801620005ab565b91505092959194509250565b60006200070d826200080d565b62000719818562000818565b93506200072b81856020860162000861565b80840191505092915050565b600062000745828462000700565b915081905092915050565b60006200075c6200076f565b90506200076a8282620008cd565b919050565b6000604051905090565b600067ffffffffffffffff821115620007975762000796620009af565b5b602082029050602081019050919050565b600067ffffffffffffffff821115620007c657620007c5620009af565b5b602082029050602081019050919050565b600067ffffffffffffffff821115620007f557620007f4620009af565b5b6200080082620009de565b9050602081019050919050565b600081519050919050565b600081905092915050565b6000620008308262000837565b9050919050565b600073ffffffffffffffffffffffffffffffffffffffff82169050919050565b6000819050919050565b60005b838110156200088157808201518184015260208101905062000864565b8381111562000891576000848401525b50505050565b60006002820490506001821680620008b057607f821691505b60208210811415620008c757620008c662000980565b5b50919050565b620008d882620009de565b810181811067ffffffffffffffff82111715620008fa57620008f9620009af565b5b80604052505050565b6000620009108262000857565b91507fffffffffffffffffffffffffffffffffffffffffffffffffffffffffffffffff82141562000946576200094562000951565b5b600182019050919050565b7f4e487b7100000000000000000000000000000000000000000000000000000000600052601160045260246000fd5b7f4e487b7100000000000000000000000000000000000000000000000000000000600052602260045260246000fd5b7f4e487b7100000000000000000000000000000000000000000000000000000000600052604160045260246000fd5b6000601f19601f8301169050919050565b620009fa8162000823565b811462000a0657600080fd5b50565b6126408062000a196000396000f3fe608060405234801561001057600080fd5b50600436106100ea5760003560e01c80638da5cb5b1161008c578063df2e808f11610066578063df2e808f146101de578063e1984df6146101fa578063e256640114610218578063f2fde38b14610236576100ea565b80638da5cb5b146101845780638f32d59b146101a2578063cf4ae8fb146101c0576100ea565b80636804fd2a116100c85780636804fd2a1461014a5780636d80efca14610154578063715018a614610170578063771441371461017a576100ea565b8063074fa741146100ef578063260a89af1461010e578063405667901461012c575b600080fd5b6100f7610252565b604051610105929190611d7c565b60405180910390f35b61011661041b565b6040516101239190611e4e565b60405180910390f35b6101346104ad565b6040516101419190611db3565b60405180910390f35b610152610505565b005b61016e600480360381019061016991906119b0565b6106f6565b005b610178610974565b005b610182610a79565b005b61018c610bb5565b6040516101999190611d3f565b60405180910390f35b6101aa610bde565b6040516101b79190611dd5565b60405180910390f35b6101c8610c35565b6040516101d59190611d5a565b60405180910390f35b6101f860048036038101906101f391906118dc565b610d11565b005b6102026110da565b60405161020f9190611f60565b60405180910390f35b61022061110d565b60405161022d9190611dd5565b60405180910390f35b610250600480360381019061024b91906118b3565b611161565b005b606080600073ffffffffffffffffffffffffffffffffffffffff16600260009054906101000a900473ffffffffffffffffffffffffffffffffffffffff1673ffffffffffffffffffffffffffffffffffffffff1614156102e7576040517f08c379a00000000000000000000000000000000000000000000000000000000081526004016102de90611ee0565b60405180910390fd5b6008600101600781805480602002602001604051908101604052809291908181526020016000905b828210156103bb57838290600052602060002001805461032e906122c8565b80601f016020809104026020016040519081016040528092919081815260200182805461035a906122c8565b80156103a75780601f1061037c576101008083540402835291602001916103a7565b820191906000526020600020905b81548152906001019060200180831161038a57829003601f168201915b50505050508152602001906001019061030f565b5050505091508080548060200260200160405190810160405280929190818152602001828054801561040c57602002820191906000526020600020905b8154815260200190600101908083116103f8575b50505050509050915091509091565b60606001805461042a906122c8565b80601f0160208091040260200160405190810160405280929190818152602001828054610456906122c8565b80156104a35780601f10610478576101008083540402835291602001916104a3565b820191906000526020600020905b81548152906001019060200180831161048657829003601f168201915b5050505050905090565b6060600b8054806020026020016040519081016040528092919081815260200182805480156104fb57602002820191906000526020600020905b8154815260200190600101908083116104e7575b5050505050905090565b600a60009054906101000a900460ff1661051e576106f4565b6007600061052c91906115ab565b60005b6008600101805490508110156106d75760006008600101828154811061057e577f4e487b7100000000000000000000000000000000000000000000000000000000600052603260045260246000fd5b906000526020600020018054610593906122c8565b80601f01602080910402602001604051908101604052809291908181526020018280546105bf906122c8565b801561060c5780601f106105e15761010080835404028352916020019161060c565b820191906000526020600020905b8154815290600101906020018083116105ef57829003601f168201915b50505050509050600060065461068d60058460405161062b9190611d28565b908152602001604051809103902080548060200260200160405190810160405280929190818152602001828054801561068357602002820191906000526020600020905b81548152602001906001019080831161066f575b50505050506111b4565b61069791906121e4565b90506007819080600181540180825580915050600190039060005260206000200160009091909190915055505080806106cf9061232b565b91505061052f565b506000600a60006101000a81548160ff0219169083151502179055505b565b610786600480548060200260200160405190810160405280929190818152602001828054801561077b57602002820191906000526020600020905b8160009054906101000a900473ffffffffffffffffffffffffffffffffffffffff1673ffffffffffffffffffffffffffffffffffffffff1681526020019060010190808311610731575b505050505033611228565b6107c5576040517f08c379a00000000000000000000000000000000000000000000000000000000081526004016107bc90611f20565b60405180910390fd5b60001515600c60003373ffffffffffffffffffffffffffffffffffffffff1673ffffffffffffffffffffffffffffffffffffffff16815260200190815260200160002060009054906101000a900460ff16151514610858576040517f08c379a000000000000000000000000000000000000000000000000000000000815260040161084f90611f00565b60405180910390fd5b600260009054906101000a900473ffffffffffffffffffffffffffffffffffffffff1673ffffffffffffffffffffffffffffffffffffffff16636d80efca826040518263ffffffff1660e01b81526004016108b39190611f7b565b600060405180830381600087803b1580156108cd57600080fd5b505af11580156108e1573d6000803e3d6000fd5b50505050600b8190806001815401808255809150506001900390600052602060002001600090919091909150556001600c60003373ffffffffffffffffffffffffffffffffffffffff1673ffffffffffffffffffffffffffffffffffffffff16815260200190815260200160002060006101000a81548160ff0219169083151502179055506000600b8054905090505050565b61097c610bde565b6109bb576040517f08c379a00000000000000000000000000000000000000000000000000000000081526004016109b290611f40565b60405180910390fd5b600073ffffffffffffffffffffffffffffffffffffffff1660008054906101000a900473ffffffffffffffffffffffffffffffffffffffff1673ffffffffffffffffffffffffffffffffffffffff167f8be0079c531659141344cd1fd0a4f28419497f9722a3daafe3b4186f6b6457e060405160405180910390a360008060006101000a81548173ffffffffffffffffffffffffffffffffffffffff021916908373ffffffffffffffffffffffffffffffffffffffff160217905550565b600030604051602001610a8c9190611d3f565b6040516020818303038152906040529050808051906020012060001c600360006101000a8154817cffffffffffffffffffffffffffffffffffffffffffffffffffffffffff02191690837cffffffffffffffffffffffffffffffffffffffffffffffffffffffffff160217905550600260009054906101000a900473ffffffffffffffffffffffffffffffffffffffff1673ffffffffffffffffffffffffffffffffffffffff1663539f38b2600360009054906101000a90047cffffffffffffffffffffffffffffffffffffffffffffffffffffffffff166040518263ffffffff1660e01b8152600401610b809190611f60565b600060405180830381600087803b158015610b9a57600080fd5b505af1158015610bae573d6000803e3d6000fd5b5050505050565b60008060009054906101000a900473ffffffffffffffffffffffffffffffffffffffff16905090565b60008060009054906101000a900473ffffffffffffffffffffffffffffffffffffffff1673ffffffffffffffffffffffffffffffffffffffff163373ffffffffffffffffffffffffffffffffffffffff1614905090565b60606008600101805480602002602001604051908101604052809291908181526020016000905b82821015610d08578382906000526020600020018054610c7b906122c8565b80601f0160208091040260200160405190810160405280929190818152602001828054610ca7906122c8565b8015610cf45780601f10610cc957610100808354040283529160200191610cf4565b820191906000526020600020905b815481529060010190602001808311610cd757829003601f168201915b505050505081526020019060010190610c5c565b50505050905090565b600073ffffffffffffffffffffffffffffffffffffffff16600260009054906101000a900473ffffffffffffffffffffffffffffffffffffffff1673ffffffffffffffffffffffffffffffffffffffff161415610da3576040517f08c379a0000000000000000000000000000000000000000000000000000000008152600401610d9a90611ee0565b60405180910390fd5b610dad86866112d6565b610dec576040517f08c379a0000000000000000000000000000000000000000000000000000000008152600401610de390611ea0565b60405180910390fd5b610e586040518060600160405280603381526020016125d860339139600360009054906101000a90047cffffffffffffffffffffffffffffffffffffffffffffffffffffffffff167cffffffffffffffffffffffffffffffffffffffffffffffffffffffffff166113b9565b600260009054906101000a900473ffffffffffffffffffffffffffffffffffffffff1673ffffffffffffffffffffffffffffffffffffffff16630e57596f85858585600360009054906101000a90047cffffffffffffffffffffffffffffffffffffffffffffffffffffffffff166040518663ffffffff1660e01b8152600401610ee6959493929190611df0565b600060405180830381600087803b158015610f0057600080fd5b505af1158015610f14573d6000803e3d6000fd5b5050505060066000815480929190610f2b9061232b565b919050555060005b6008600101805490508110156110b657600060086001018281548110610f82577f4e487b7100000000000000000000000000000000000000000000000000000000600052603260045260246000fd5b906000526020600020018054610f97906122c8565b80601f0160208091040260200160405190810160405280929190818152602001828054610fc3906122c8565b80156110105780601f10610fe557610100808354040283529160200191611010565b820191906000526020600020905b815481529060010190602001808311610ff357829003601f168201915b505050505090506000878381518110611052577f4e487b7100000000000000000000000000000000000000000000000000000000600052603260045260246000fd5b6020026020010151905060058260405161106c9190611d28565b9081526020016040518091039020819080600181540180825580915050600190039060005260206000200160009091909190915055505080806110ae9061232b565b915050610f33565b506001600a60006101000a81548160ff021916908315150217905550505050505050565b6000600360009054906101000a90047cffffffffffffffffffffffffffffffffffffffffffffffffffffffffff16905090565b6000600c60003373ffffffffffffffffffffffffffffffffffffffff1673ffffffffffffffffffffffffffffffffffffffff16815260200190815260200160002060009054906101000a900460ff16905090565b611169610bde565b6111a8576040517f08c379a000000000000000000000000000000000000000000000000000000000815260040161119f90611f40565b60405180910390fd5b6111b181611455565b50565b6000805b8251811015611222578281815181106111fa577f4e487b7100000000000000000000000000000000000000000000000000000000600052603260045260246000fd5b60200260200101518261120d919061218e565b9150808061121a9061232b565b9150506111b8565b50919050565b600080600090505b83518110156112ca57838181518110611272577f4e487b7100000000000000000000000000000000000000000000000000000000600052603260045260246000fd5b602002602001015173ffffffffffffffffffffffffffffffffffffffff168373ffffffffffffffffffffffffffffffffffffffff1614156112b75760019150506112d0565b80806112c29061232b565b915050611230565b50600090505b92915050565b60006008600101805490508351146112f157600090506113b3565b60086001018054905082511461130a57600090506113b3565b60005b83518110156113ad576000848281518110611351577f4e487b7100000000000000000000000000000000000000000000000000000000600052603260045260246000fd5b6020026020010151905060086000018160405161136e9190611d28565b908152602001604051809103902060009054906101000a900460ff16611399576000925050506113b3565b5080806113a59061232b565b91505061130d565b50600190505b92915050565b61145182826040516024016113cf929190611e70565b6040516020818303038152906040527f9710a9d0000000000000000000000000000000000000000000000000000000007bffffffffffffffffffffffffffffffffffffffffffffffffffffffff19166020820180517bffffffffffffffffffffffffffffffffffffffffffffffffffffffff8381831617835250505050611582565b5050565b600073ffffffffffffffffffffffffffffffffffffffff168173ffffffffffffffffffffffffffffffffffffffff1614156114c5576040517f08c379a00000000000000000000000000000000000000000000000000000000081526004016114bc90611ec0565b60405180910390fd5b8073ffffffffffffffffffffffffffffffffffffffff1660008054906101000a900473ffffffffffffffffffffffffffffffffffffffff1673ffffffffffffffffffffffffffffffffffffffff167f8be0079c531659141344cd1fd0a4f28419497f9722a3daafe3b4186f6b6457e060405160405180910390a3806000806101000a81548173ffffffffffffffffffffffffffffffffffffffff021916908373ffffffffffffffffffffffffffffffffffffffff16021790555050565b60008151905060006a636f6e736f6c652e6c6f679050602083016000808483855afa5050505050565b50805460008255906000526020600020908101906115c991906115cc565b50565b5b808211156115e55760008160009055506001016115cd565b5090565b60006115fc6115f784611fbb565b611f96565b9050808382526020820190508285602086028201111561161b57600080fd5b60005b8581101561166557813567ffffffffffffffff81111561163d57600080fd5b80860161164a8982611874565b8552602085019450602084019350505060018101905061161e565b5050509392505050565b600061168261167d84611fe7565b611f96565b9050808285602086028201111561169857600080fd5b60005b858110156116c857816116ae888261189e565b84526020840193506020830192505060018101905061169b565b5050509392505050565b60006116e56116e08461200d565b611f96565b9050808382526020820190508285602086028201111561170457600080fd5b60005b85811015611734578161171a888261189e565b845260208401935060208301925050600181019050611707565b5050509392505050565b600061175161174c84612039565b611f96565b90508281526020810184848401111561176957600080fd5b611774848285612286565b509392505050565b600061178f61178a8461206a565b611f96565b9050828152602081018484840111156117a757600080fd5b6117b2848285612286565b509392505050565b6000813590506117c9816125a9565b92915050565b600082601f8301126117e057600080fd5b81356117f08482602086016115e9565b91505092915050565b600082601f83011261180a57600080fd5b600861181784828561166f565b91505092915050565b600082601f83011261183157600080fd5b81356118418482602086016116d2565b91505092915050565b600082601f83011261185b57600080fd5b813561186b84826020860161173e565b91505092915050565b600082601f83011261188557600080fd5b813561189584826020860161177c565b91505092915050565b6000813590506118ad816125c0565b92915050565b6000602082840312156118c557600080fd5b60006118d3848285016117ba565b91505092915050565b6000806000806000806101a087890312156118f657600080fd5b600087013567ffffffffffffffff81111561191057600080fd5b61191c89828a016117cf565b965050602087013567ffffffffffffffff81111561193957600080fd5b61194589828a01611820565b955050604087013567ffffffffffffffff81111561196257600080fd5b61196e89828a0161184a565b945050606061197f89828a016117f9565b93505061016061199189828a0161189e565b9250506101806119a389828a0161189e565b9150509295509295509295565b6000602082840312156119c257600080fd5b60006119d08482850161189e565b91505092915050565b60006119e58383611b86565b905092915050565b60006119f98383611d0a565b60208301905092915050565b611a0e81612215565b82525050565b6000611a1f826120c5565b611a298185612123565b935083602082028501611a3b8561209b565b8060005b85811015611a775784840389528151611a5885826119d9565b9450611a63836120fc565b925060208a01995050600181019050611a3f565b50829750879550505050505092915050565b611a92816120d0565b611a9c8184612134565b9250611aa7826120ab565b8060005b83811015611ad8578151611abf87826119ed565b9650611aca83612109565b925050600181019050611aab565b505050505050565b6000611aeb826120db565b611af5818561213f565b9350611b00836120b5565b8060005b83811015611b31578151611b1888826119ed565b9750611b2383612116565b925050600181019050611b04565b5085935050505092915050565b611b4781612227565b82525050565b6000611b58826120e6565b611b628185612150565b9350611b72818560208601612295565b611b7b81612430565b840191505092915050565b6000611b91826120f1565b611b9b8185612161565b9350611bab818560208601612295565b611bb481612430565b840191505092915050565b6000611bca826120f1565b611bd48185612172565b9350611be4818560208601612295565b611bed81612430565b840191505092915050565b6000611c03826120f1565b611c0d8185612183565b9350611c1d818560208601612295565b80840191505092915050565b6000611c36601783612172565b9150611c4182612441565b602082019050919050565b6000611c59602683612172565b9150611c648261246a565b604082019050919050565b6000611c7c601383612172565b9150611c87826124b9565b602082019050919050565b6000611c9f602983612172565b9150611caa826124e2565b604082019050919050565b6000611cc2602583612172565b9150611ccd82612531565b604082019050919050565b6000611ce5602083612172565b9150611cf082612580565b602082019050919050565b611d0481612253565b82525050565b611d138161227c565b82525050565b611d228161227c565b82525050565b6000611d348284611bf8565b915081905092915050565b6000602082019050611d546000830184611a05565b92915050565b60006020820190508181036000830152611d748184611a14565b905092915050565b60006040820190508181036000830152611d968185611a14565b90508181036020830152611daa8184611ae0565b90509392505050565b60006020820190508181036000830152611dcd8184611ae0565b905092915050565b6000602082019050611dea6000830184611b3e565b92915050565b6000610180820190508181036000830152611e0b8188611b4d565b9050611e1a6020830187611a89565b611e28610120830186611d19565b611e36610140830185611d19565b611e44610160830184611cfb565b9695505050505050565b60006020820190508181036000830152611e688184611bbf565b905092915050565b60006040820190508181036000830152611e8a8185611bbf565b9050611e996020830184611d19565b9392505050565b60006020820190508181036000830152611eb981611c29565b9050919050565b60006020820190508181036000830152611ed981611c4c565b9050919050565b60006020820190508181036000830152611ef981611c6f565b9050919050565b60006020820190508181036000830152611f1981611c92565b9050919050565b60006020820190508181036000830152611f3981611cb5565b9050919050565b60006020820190508181036000830152611f5981611cd8565b9050919050565b6000602082019050611f756000830184611cfb565b92915050565b6000602082019050611f906000830184611d19565b92915050565b6000611fa0611fb1565b9050611fac82826122fa565b919050565b6000604051905090565b600067ffffffffffffffff821115611fd657611fd5612401565b5b602082029050602081019050919050565b600067ffffffffffffffff82111561200257612001612401565b5b602082029050919050565b600067ffffffffffffffff82111561202857612027612401565b5b602082029050602081019050919050565b600067ffffffffffffffff82111561205457612053612401565b5b61205d82612430565b9050602081019050919050565b600067ffffffffffffffff82111561208557612084612401565b5b61208e82612430565b9050602081019050919050565b6000819050602082019050919050565b6000819050919050565b6000819050602082019050919050565b600081519050919050565b600060089050919050565b600081519050919050565b600081519050919050565b600081519050919050565b6000602082019050919050565b6000602082019050919050565b6000602082019050919050565b600082825260208201905092915050565b600081905092915050565b600082825260208201905092915050565b600082825260208201905092915050565b600082825260208201905092915050565b600082825260208201905092915050565b600081905092915050565b60006121998261227c565b91506121a48361227c565b9250827fffffffffffffffffffffffffffffffffffffffffffffffffffffffffffffffff038211156121d9576121d8612374565b5b828201905092915050565b60006121ef8261227c565b91506121fa8361227c565b92508261220a576122096123a3565b5b828204905092915050565b600061222082612233565b9050919050565b60008115159050919050565b600073ffffffffffffffffffffffffffffffffffffffff82169050919050565b60007cffffffffffffffffffffffffffffffffffffffffffffffffffffffffff82169050919050565b6000819050919050565b82818337600083830152505050565b60005b838110156122b3578082015181840152602081019050612298565b838111156122c2576000848401525b50505050565b600060028204905060018216806122e057607f821691505b602082108114156122f4576122f36123d2565b5b50919050565b61230382612430565b810181811067ffffffffffffffff8211171561232257612321612401565b5b80604052505050565b60006123368261227c565b91507fffffffffffffffffffffffffffffffffffffffffffffffffffffffffffffffff82141561236957612368612374565b5b600182019050919050565b7f4e487b7100000000000000000000000000000000000000000000000000000000600052601160045260246000fd5b7f4e487b7100000000000000000000000000000000000000000000000000000000600052601260045260246000fd5b7f4e487b7100000000000000000000000000000000000000000000000000000000600052602260045260246000fd5b7f4e487b7100000000000000000000000000000000000000000000000000000000600052604160045260246000fd5b6000601f19601f8301169050919050565b7f5375626d697373696f6e20697320696e636f7272656374000000000000000000600082015250565b7f4f776e61626c653a206e6577206f776e657220697320746865207a65726f206160008201527f6464726573730000000000000000000000000000000000000000000000000000602082015250565b7f6d75737420686176652073656d6170686f726500000000000000000000000000600082015250565b7f5061727469636970616e742063616e206f6e6c7920696e73657274206964656e60008201527f74697479206f6e63650000000000000000000000000000000000000000000000602082015250565b7f4f6e6c79207061727469636970616e74732063616e20696e736572742069646560008201527f6e74697479000000000000000000000000000000000000000000000000000000602082015250565b7f4f776e61626c653a2063616c6c6572206973206e6f7420746865206f776e6572600082015250565b6125b281612215565b81146125bd57600080fd5b50565b6125c98161227c565b81146125d457600080fd5b5056fe5375727665793a65787465726e616c206e756c6c696669657220696e207570646174652073757276657920726573756c743a20a2646970667358221220140d61b2f7550f30b24d5141d1da5e8a0ddec73a13ca1a017bbfd42167d1292564736f6c63430008040033",
  "linkReferences": {},
  "deployedLinkReferences": {}
}