{
  "_format": "hh-sol-artifact-1",
  "contractName": "Survey",
  "sourceName": "contracts/Survey.sol",
  "abi": [
    {
      "inputs": [
        {
          "internalType": "string[]",
          "name": "_surveyQuestions",
          "type": "string[]"
        },
        {
          "internalType": "address[]",
          "name": "_participants",
          "type": "address[]"
        },
        {
          "internalType": "uint256",
          "name": "_surveyTimeout",
          "type": "uint256"
        },
        {
          "internalType": "string",
          "name": "_surveyName",
          "type": "string"
        },
        {
          "internalType": "address",
          "name": "_semaphoreAddress",
          "type": "address"
        }
      ],
      "stateMutability": "nonpayable",
      "type": "constructor"
    },
    {
      "anonymous": false,
      "inputs": [
        {
          "indexed": true,
          "internalType": "address",
          "name": "previousOwner",
          "type": "address"
        },
        {
          "indexed": true,
          "internalType": "address",
          "name": "newOwner",
          "type": "address"
        }
      ],
      "name": "OwnershipTransferred",
      "type": "event"
    },
    {
      "inputs": [],
      "name": "addExternalNullifier",
      "outputs": [],
      "stateMutability": "nonpayable",
      "type": "function"
    },
    {
      "inputs": [],
      "name": "getSurveyQuestions",
      "outputs": [
        {
          "internalType": "string[]",
          "name": "",
          "type": "string[]"
        }
      ],
      "stateMutability": "view",
      "type": "function"
    },
    {
      "inputs": [],
      "name": "getSurveyScores",
      "outputs": [
        {
          "internalType": "string[]",
          "name": "_surveyQuestions",
          "type": "string[]"
        },
        {
          "internalType": "uint256[]",
          "name": "_surveyScores",
          "type": "uint256[]"
        }
      ],
      "stateMutability": "nonpayable",
      "type": "function"
    },
    {
      "inputs": [
        {
          "internalType": "uint256",
          "name": "_identityCommitment",
          "type": "uint256"
        }
      ],
      "name": "insertIdentity",
      "outputs": [],
      "stateMutability": "nonpayable",
      "type": "function"
    },
    {
      "inputs": [],
      "name": "isOwner",
      "outputs": [
        {
          "internalType": "bool",
          "name": "",
          "type": "bool"
        }
      ],
      "stateMutability": "view",
      "type": "function"
    },
    {
      "inputs": [],
      "name": "owner",
      "outputs": [
        {
          "internalType": "address",
          "name": "",
          "type": "address"
        }
      ],
      "stateMutability": "view",
      "type": "function"
    },
    {
      "inputs": [],
      "name": "renounceOwnership",
      "outputs": [],
      "stateMutability": "nonpayable",
      "type": "function"
    },
    {
      "inputs": [
        {
          "internalType": "address",
          "name": "newOwner",
          "type": "address"
        }
      ],
      "name": "transferOwnership",
      "outputs": [],
      "stateMutability": "nonpayable",
      "type": "function"
    },
    {
      "inputs": [
        {
          "internalType": "string[]",
          "name": "questions",
          "type": "string[]"
        },
        {
          "internalType": "uint256[]",
          "name": "scores",
          "type": "uint256[]"
        },
        {
          "internalType": "bytes",
          "name": "surveyResponseBytes",
          "type": "bytes"
        },
        {
          "internalType": "uint256[8]",
          "name": "_proof",
          "type": "uint256[8]"
        },
        {
          "internalType": "uint256",
          "name": "_root",
          "type": "uint256"
        },
        {
          "internalType": "uint256",
          "name": "_nullifiersHash",
          "type": "uint256"
        }
      ],
      "name": "updateSurveyResult",
      "outputs": [],
      "stateMutability": "nonpayable",
      "type": "function"
    }
  ],
  "bytecode": "0x60806040523480156200001157600080fd5b5060405162002d5438038062002d5483398181016040528101906200003791906200074f565b336000806101000a81548173ffffffffffffffffffffffffffffffffffffffff021916908373ffffffffffffffffffffffffffffffffffffffff16021790555060008054906101000a900473ffffffffffffffffffffffffffffffffffffffff1673ffffffffffffffffffffffffffffffffffffffff16600073ffffffffffffffffffffffffffffffffffffffff167f8be0079c531659141344cd1fd0a4f28419497f9722a3daafe3b4186f6b6457e060405160405180910390a36200012160405180606001604052806022815260200162002d32602291396200027060201b62000d2f1760201c565b84600a60010190805190602001906200013c9291906200033c565b5060005b8551811015620001e357600086828151811062000186577f4e487b7100000000000000000000000000000000000000000000000000000000600052603260045260246000fd5b602002602001015190506001600a60000182604051620001a7919062000894565b908152602001604051809103902060006101000a81548160ff021916908315150217905550508080620001da9062000a95565b91505062000140565b50826005819055504260048190555080600260006101000a81548173ffffffffffffffffffffffffffffffffffffffff021916908373ffffffffffffffffffffffffffffffffffffffff16021790555083600690805190602001906200024b929190620003a3565b5081600190805190602001906200026492919062000432565b50505050505062000bb5565b6200031081604051602401620002879190620008ad565b6040516020818303038152906040527f41304fac000000000000000000000000000000000000000000000000000000007bffffffffffffffffffffffffffffffffffffffffffffffffffffffff19166020820180517bffffffffffffffffffffffffffffffffffffffffffffffffffffffff83818316178352505050506200031360201b60201c565b50565b60008151905060006a636f6e736f6c652e6c6f679050602083016000808483855afa5050505050565b82805482825590600052602060002090810192821562000390579160200282015b828111156200038f5782518290805190602001906200037e92919062000432565b50916020019190600101906200035d565b5b5090506200039f9190620004c3565b5090565b8280548282559060005260206000209081019282156200041f579160200282015b828111156200041e5782518260006101000a81548173ffffffffffffffffffffffffffffffffffffffff021916908373ffffffffffffffffffffffffffffffffffffffff16021790555091602001919060010190620003c4565b5b5090506200042e9190620004eb565b5090565b828054620004409062000a29565b90600052602060002090601f016020900481019282620004645760008555620004b0565b82601f106200047f57805160ff1916838001178555620004b0565b82800160010185558215620004b0579182015b82811115620004af57825182559160200191906001019062000492565b5b509050620004bf9190620004eb565b5090565b5b80821115620004e75760008181620004dd91906200050a565b50600101620004c4565b5090565b5b8082111562000506576000816000905550600101620004ec565b5090565b508054620005189062000a29565b6000825580601f106200052c57506200054d565b601f0160209004906000526020600020908101906200054c9190620004eb565b5b50565b6000620005676200056184620008fa565b620008d1565b905080838252602082019050828560208602820111156200058757600080fd5b60005b85811015620005bb5781620005a088826200069a565b8452602084019350602083019250506001810190506200058a565b5050509392505050565b6000620005dc620005d68462000929565b620008d1565b90508083825260208201905082856020860282011115620005fc57600080fd5b60005b858110156200064b57815167ffffffffffffffff8111156200062057600080fd5b8086016200062f89826200070b565b85526020850194506020840193505050600181019050620005ff565b5050509392505050565b60006200066c620006668462000958565b620008d1565b9050828152602081018484840111156200068557600080fd5b62000692848285620009f3565b509392505050565b600081519050620006ab8162000b81565b92915050565b600082601f830112620006c357600080fd5b8151620006d584826020860162000550565b91505092915050565b600082601f830112620006f057600080fd5b815162000702848260208601620005c5565b91505092915050565b600082601f8301126200071d57600080fd5b81516200072f84826020860162000655565b91505092915050565b600081519050620007498162000b9b565b92915050565b600080600080600060a086880312156200076857600080fd5b600086015167ffffffffffffffff8111156200078357600080fd5b6200079188828901620006de565b955050602086015167ffffffffffffffff811115620007af57600080fd5b620007bd88828901620006b1565b9450506040620007d08882890162000738565b935050606086015167ffffffffffffffff811115620007ee57600080fd5b620007fc888289016200070b565b92505060806200080f888289016200069a565b9150509295509295909350565b600062000829826200098e565b62000835818562000999565b935062000847818560208601620009f3565b620008528162000b70565b840191505092915050565b60006200086a826200098e565b620008768185620009aa565b935062000888818560208601620009f3565b80840191505092915050565b6000620008a282846200085d565b915081905092915050565b60006020820190508181036000830152620008c981846200081c565b905092915050565b6000620008dd620008f0565b9050620008eb828262000a5f565b919050565b6000604051905090565b600067ffffffffffffffff82111562000918576200091762000b41565b5b602082029050602081019050919050565b600067ffffffffffffffff82111562000947576200094662000b41565b5b602082029050602081019050919050565b600067ffffffffffffffff82111562000976576200097562000b41565b5b620009818262000b70565b9050602081019050919050565b600081519050919050565b600082825260208201905092915050565b600081905092915050565b6000620009c282620009c9565b9050919050565b600073ffffffffffffffffffffffffffffffffffffffff82169050919050565b6000819050919050565b60005b8381101562000a13578082015181840152602081019050620009f6565b8381111562000a23576000848401525b50505050565b6000600282049050600182168062000a4257607f821691505b6020821081141562000a595762000a5862000b12565b5b50919050565b62000a6a8262000b70565b810181811067ffffffffffffffff8211171562000a8c5762000a8b62000b41565b5b80604052505050565b600062000aa282620009e9565b91507fffffffffffffffffffffffffffffffffffffffffffffffffffffffffffffffff82141562000ad85762000ad762000ae3565b5b600182019050919050565b7f4e487b7100000000000000000000000000000000000000000000000000000000600052601160045260246000fd5b7f4e487b7100000000000000000000000000000000000000000000000000000000600052602260045260246000fd5b7f4e487b7100000000000000000000000000000000000000000000000000000000600052604160045260246000fd5b6000601f19601f8301169050919050565b62000b8c81620009b5565b811462000b9857600080fd5b50565b62000ba681620009e9565b811462000bb257600080fd5b50565b61216d8062000bc56000396000f3fe608060405234801561001057600080fd5b50600436106100935760003560e01c80638da5cb5b116100665780638da5cb5b146100e75780638f32d59b14610105578063cf4ae8fb14610123578063df2e808f14610141578063f2fde38b1461015d57610093565b8063074fa741146100985780636d80efca146100b7578063715018a6146100d357806377144137146100dd575b600080fd5b6100a0610179565b6040516100ae929190611a0c565b60405180910390f35b6100d160048036038101906100cc9190611686565b61048e565b005b6100db61059a565b005b6100e561069f565b005b6100ef610822565b6040516100fc91906119cf565b60405180910390f35b61010d61084b565b60405161011a9190611a43565b60405180910390f35b61012b6108a2565b60405161013891906119ea565b60405180910390f35b61015b600480360381019061015691906115b2565b61097e565b005b61017760048036038101906101729190611589565b610cdc565b005b60608061018461084b565b6101c3576040517f08c379a00000000000000000000000000000000000000000000000000000000081526004016101ba90611b3e565b60405180910390fd5b600073ffffffffffffffffffffffffffffffffffffffff16600260009054906101000a900473ffffffffffffffffffffffffffffffffffffffff1673ffffffffffffffffffffffffffffffffffffffff161415610255576040517f08c379a000000000000000000000000000000000000000000000000000000000815260040161024c90611b1e565b60405180910390fd5b61025d610dc8565b60055460045461026d9190611d8c565b421115610359576060600a6001018181805480602002602001604051908101604052809291908181526020016000905b828210156103495783829060005260206000200180546102bc90611ec6565b80601f01602080910402602001604051908101604052809291908181526020018280546102e890611ec6565b80156103355780601f1061030a57610100808354040283529160200191610335565b820191906000526020600020905b81548152906001019060200180831161031857829003601f168201915b50505050508152602001906001019061029d565b505050509150925092505061048a565b600a600101600981805480602002602001604051908101604052809291908181526020016000905b8282101561042d5783829060005260206000200180546103a090611ec6565b80601f01602080910402602001604051908101604052809291908181526020018280546103cc90611ec6565b80156104195780601f106103ee57610100808354040283529160200191610419565b820191906000526020600020905b8154815290600101906020018083116103fc57829003601f168201915b505050505081526020019060010190610381565b5050505091508080548060200260200160405190810160405280929190818152602001828054801561047e57602002820191906000526020600020905b81548152602001906001019080831161046a575b50505050509050915091505b9091565b6104cc6040518060400160405280601c81526020017f5375727665793a737461727420696e73657274206964656e7469747900000000815250610d2f565b600260009054906101000a900473ffffffffffffffffffffffffffffffffffffffff1673ffffffffffffffffffffffffffffffffffffffff16636d80efca826040518263ffffffff1660e01b81526004016105279190611b79565b600060405180830381600087803b15801561054157600080fd5b505af1158015610555573d6000803e3d6000fd5b505050506105976040518060400160405280601f81526020017f5375727665793a636f6d706c65746520696e73657274206964656e7469747900815250610d2f565b50565b6105a261084b565b6105e1576040517f08c379a00000000000000000000000000000000000000000000000000000000081526004016105d890611b3e565b60405180910390fd5b600073ffffffffffffffffffffffffffffffffffffffff1660008054906101000a900473ffffffffffffffffffffffffffffffffffffffff1673ffffffffffffffffffffffffffffffffffffffff167f8be0079c531659141344cd1fd0a4f28419497f9722a3daafe3b4186f6b6457e060405160405180910390a360008060006101000a81548173ffffffffffffffffffffffffffffffffffffffff021916908373ffffffffffffffffffffffffffffffffffffffff160217905550565b6106a761084b565b6106e6576040517f08c379a00000000000000000000000000000000000000000000000000000000081526004016106dd90611b3e565b60405180910390fd5b6000306040516020016106f991906119cf565b6040516020818303038152906040529050808051906020012060001c600360006101000a8154817cffffffffffffffffffffffffffffffffffffffffffffffffffffffffff02191690837cffffffffffffffffffffffffffffffffffffffffffffffffffffffffff160217905550600260009054906101000a900473ffffffffffffffffffffffffffffffffffffffff1673ffffffffffffffffffffffffffffffffffffffff1663539f38b2600360009054906101000a90047cffffffffffffffffffffffffffffffffffffffffffffffffffffffffff166040518263ffffffff1660e01b81526004016107ed9190611b5e565b600060405180830381600087803b15801561080757600080fd5b505af115801561081b573d6000803e3d6000fd5b5050505050565b60008060009054906101000a900473ffffffffffffffffffffffffffffffffffffffff16905090565b60008060009054906101000a900473ffffffffffffffffffffffffffffffffffffffff1673ffffffffffffffffffffffffffffffffffffffff163373ffffffffffffffffffffffffffffffffffffffff1614905090565b6060600a600101805480602002602001604051908101604052809291908181526020016000905b828210156109755783829060005260206000200180546108e890611ec6565b80601f016020809104026020016040519081016040528092919081815260200182805461091490611ec6565b80156109615780601f1061093657610100808354040283529160200191610961565b820191906000526020600020905b81548152906001019060200180831161094457829003601f168201915b5050505050815260200190600101906108c9565b50505050905090565b600073ffffffffffffffffffffffffffffffffffffffff16600260009054906101000a900473ffffffffffffffffffffffffffffffffffffffff1673ffffffffffffffffffffffffffffffffffffffff161415610a10576040517f08c379a0000000000000000000000000000000000000000000000000000000008152600401610a0790611b1e565b60405180910390fd5b610a1a8686610fd4565b15610a5a576040517f08c379a0000000000000000000000000000000000000000000000000000000008152600401610a5190611ade565b60405180910390fd5b600260009054906101000a900473ffffffffffffffffffffffffffffffffffffffff1673ffffffffffffffffffffffffffffffffffffffff16630e57596f85858585600360009054906101000a90047cffffffffffffffffffffffffffffffffffffffffffffffffffffffffff166040518663ffffffff1660e01b8152600401610ae8959493929190611a5e565b600060405180830381600087803b158015610b0257600080fd5b505af1158015610b16573d6000803e3d6000fd5b5050505060086000815480929190610b2d90611f29565b919050555060005b600a60010180549050811015610cb8576000600a6001018281548110610b84577f4e487b7100000000000000000000000000000000000000000000000000000000600052603260045260246000fd5b906000526020600020018054610b9990611ec6565b80601f0160208091040260200160405190810160405280929190818152602001828054610bc590611ec6565b8015610c125780601f10610be757610100808354040283529160200191610c12565b820191906000526020600020905b815481529060010190602001808311610bf557829003601f168201915b505050505090506000878381518110610c54577f4e487b7100000000000000000000000000000000000000000000000000000000600052603260045260246000fd5b60200260200101519050600782604051610c6e91906119b8565b908152602001604051809103902081908060018154018082558091505060019003906000526020600020016000909190919091505550508080610cb090611f29565b915050610b35565b506001600c60006101000a81548160ff021916908315150217905550505050505050565b610ce461084b565b610d23576040517f08c379a0000000000000000000000000000000000000000000000000000000008152600401610d1a90611b3e565b60405180910390fd5b610d2c816110b7565b50565b610dc581604051602401610d439190611abc565b6040516020818303038152906040527f41304fac000000000000000000000000000000000000000000000000000000007bffffffffffffffffffffffffffffffffffffffffffffffffffffffff19166020820180517bffffffffffffffffffffffffffffffffffffffffffffffffffffffff83818316178352505050506111e4565b50565b600c60009054906101000a900460ff161580610df25750600554600454610def9190611d8c565b42115b15610dfc57610fd2565b60096000610e0a9190611281565b60005b600a60010180549050811015610fb5576000600a6001018281548110610e5c577f4e487b7100000000000000000000000000000000000000000000000000000000600052603260045260246000fd5b906000526020600020018054610e7190611ec6565b80601f0160208091040260200160405190810160405280929190818152602001828054610e9d90611ec6565b8015610eea5780601f10610ebf57610100808354040283529160200191610eea565b820191906000526020600020905b815481529060010190602001808311610ecd57829003601f168201915b505050505090506000600854610f6b600784604051610f0991906119b8565b9081526020016040518091039020805480602002602001604051908101604052809291908181526020018280548015610f6157602002820191906000526020600020905b815481526020019060010190808311610f4d575b505050505061120d565b610f759190611de2565b9050600981908060018154018082558091505060019003906000526020600020016000909190919091505550508080610fad90611f29565b915050610e0d565b506000600c60006101000a81548160ff0219169083151502179055505b565b6000600a60010180549050835114610fef57600090506110b1565b600a6001018054905082511461100857600090506110b1565b60005b83518110156110ab57600084828151811061104f577f4e487b7100000000000000000000000000000000000000000000000000000000600052603260045260246000fd5b60200260200101519050600a6000018160405161106c91906119b8565b908152602001604051809103902060009054906101000a900460ff16611097576000925050506110b1565b5080806110a390611f29565b91505061100b565b50600190505b92915050565b600073ffffffffffffffffffffffffffffffffffffffff168173ffffffffffffffffffffffffffffffffffffffff161415611127576040517f08c379a000000000000000000000000000000000000000000000000000000000815260040161111e90611afe565b60405180910390fd5b8073ffffffffffffffffffffffffffffffffffffffff1660008054906101000a900473ffffffffffffffffffffffffffffffffffffffff1673ffffffffffffffffffffffffffffffffffffffff167f8be0079c531659141344cd1fd0a4f28419497f9722a3daafe3b4186f6b6457e060405160405180910390a3806000806101000a81548173ffffffffffffffffffffffffffffffffffffffff021916908373ffffffffffffffffffffffffffffffffffffffff16021790555050565b60008151905060006a636f6e736f6c652e6c6f679050602083016000808483855afa5050505050565b6000805b825181101561127b57828181518110611253577f4e487b7100000000000000000000000000000000000000000000000000000000600052603260045260246000fd5b6020026020010151826112669190611d8c565b9150808061127390611f29565b915050611211565b50919050565b508054600082559060005260206000209081019061129f91906112a2565b50565b5b808211156112bb5760008160009055506001016112a3565b5090565b60006112d26112cd84611bb9565b611b94565b905080838252602082019050828560208602820111156112f157600080fd5b60005b8581101561133b57813567ffffffffffffffff81111561131357600080fd5b808601611320898261154a565b855260208501945060208401935050506001810190506112f4565b5050509392505050565b600061135861135384611be5565b611b94565b9050808285602086028201111561136e57600080fd5b60005b8581101561139e57816113848882611574565b845260208401935060208301925050600181019050611371565b5050509392505050565b60006113bb6113b684611c0b565b611b94565b905080838252602082019050828560208602820111156113da57600080fd5b60005b8581101561140a57816113f08882611574565b8452602084019350602083019250506001810190506113dd565b5050509392505050565b600061142761142284611c37565b611b94565b90508281526020810184848401111561143f57600080fd5b61144a848285611e84565b509392505050565b600061146561146084611c68565b611b94565b90508281526020810184848401111561147d57600080fd5b611488848285611e84565b509392505050565b60008135905061149f81612109565b92915050565b600082601f8301126114b657600080fd5b81356114c68482602086016112bf565b91505092915050565b600082601f8301126114e057600080fd5b60086114ed848285611345565b91505092915050565b600082601f83011261150757600080fd5b81356115178482602086016113a8565b91505092915050565b600082601f83011261153157600080fd5b8135611541848260208601611414565b91505092915050565b600082601f83011261155b57600080fd5b813561156b848260208601611452565b91505092915050565b60008135905061158381612120565b92915050565b60006020828403121561159b57600080fd5b60006115a984828501611490565b91505092915050565b6000806000806000806101a087890312156115cc57600080fd5b600087013567ffffffffffffffff8111156115e657600080fd5b6115f289828a016114a5565b965050602087013567ffffffffffffffff81111561160f57600080fd5b61161b89828a016114f6565b955050604087013567ffffffffffffffff81111561163857600080fd5b61164489828a01611520565b945050606061165589828a016114cf565b93505061016061166789828a01611574565b92505061018061167989828a01611574565b9150509295509295509295565b60006020828403121561169857600080fd5b60006116a684828501611574565b91505092915050565b60006116bb838361185c565b905092915050565b60006116cf838361199a565b60208301905092915050565b6116e481611e13565b82525050565b60006116f582611cc3565b6116ff8185611d21565b93508360208202850161171185611c99565b8060005b8581101561174d578484038952815161172e85826116af565b945061173983611cfa565b925060208a01995050600181019050611715565b50829750879550505050505092915050565b61176881611cce565b6117728184611d32565b925061177d82611ca9565b8060005b838110156117ae57815161179587826116c3565b96506117a083611d07565b925050600181019050611781565b505050505050565b60006117c182611cd9565b6117cb8185611d3d565b93506117d683611cb3565b8060005b838110156118075781516117ee88826116c3565b97506117f983611d14565b9250506001810190506117da565b5085935050505092915050565b61181d81611e25565b82525050565b600061182e82611ce4565b6118388185611d4e565b9350611848818560208601611e93565b6118518161202e565b840191505092915050565b600061186782611cef565b6118718185611d5f565b9350611881818560208601611e93565b61188a8161202e565b840191505092915050565b60006118a082611cef565b6118aa8185611d70565b93506118ba818560208601611e93565b6118c38161202e565b840191505092915050565b60006118d982611cef565b6118e38185611d81565b93506118f3818560208601611e93565b80840191505092915050565b600061190c601783611d70565b91506119178261203f565b602082019050919050565b600061192f602683611d70565b915061193a82612068565b604082019050919050565b6000611952601383611d70565b915061195d826120b7565b602082019050919050565b6000611975602083611d70565b9150611980826120e0565b602082019050919050565b61199481611e51565b82525050565b6119a381611e7a565b82525050565b6119b281611e7a565b82525050565b60006119c482846118ce565b915081905092915050565b60006020820190506119e460008301846116db565b92915050565b60006020820190508181036000830152611a0481846116ea565b905092915050565b60006040820190508181036000830152611a2681856116ea565b90508181036020830152611a3a81846117b6565b90509392505050565b6000602082019050611a586000830184611814565b92915050565b6000610180820190508181036000830152611a798188611823565b9050611a88602083018761175f565b611a966101208301866119a9565b611aa46101408301856119a9565b611ab261016083018461198b565b9695505050505050565b60006020820190508181036000830152611ad68184611895565b905092915050565b60006020820190508181036000830152611af7816118ff565b9050919050565b60006020820190508181036000830152611b1781611922565b9050919050565b60006020820190508181036000830152611b3781611945565b9050919050565b60006020820190508181036000830152611b5781611968565b9050919050565b6000602082019050611b73600083018461198b565b92915050565b6000602082019050611b8e60008301846119a9565b92915050565b6000611b9e611baf565b9050611baa8282611ef8565b919050565b6000604051905090565b600067ffffffffffffffff821115611bd457611bd3611fff565b5b602082029050602081019050919050565b600067ffffffffffffffff821115611c0057611bff611fff565b5b602082029050919050565b600067ffffffffffffffff821115611c2657611c25611fff565b5b602082029050602081019050919050565b600067ffffffffffffffff821115611c5257611c51611fff565b5b611c5b8261202e565b9050602081019050919050565b600067ffffffffffffffff821115611c8357611c82611fff565b5b611c8c8261202e565b9050602081019050919050565b6000819050602082019050919050565b6000819050919050565b6000819050602082019050919050565b600081519050919050565b600060089050919050565b600081519050919050565b600081519050919050565b600081519050919050565b6000602082019050919050565b6000602082019050919050565b6000602082019050919050565b600082825260208201905092915050565b600081905092915050565b600082825260208201905092915050565b600082825260208201905092915050565b600082825260208201905092915050565b600082825260208201905092915050565b600081905092915050565b6000611d9782611e7a565b9150611da283611e7a565b9250827fffffffffffffffffffffffffffffffffffffffffffffffffffffffffffffffff03821115611dd757611dd6611f72565b5b828201905092915050565b6000611ded82611e7a565b9150611df883611e7a565b925082611e0857611e07611fa1565b5b828204905092915050565b6000611e1e82611e31565b9050919050565b60008115159050919050565b600073ffffffffffffffffffffffffffffffffffffffff82169050919050565b60007cffffffffffffffffffffffffffffffffffffffffffffffffffffffffff82169050919050565b6000819050919050565b82818337600083830152505050565b60005b83811015611eb1578082015181840152602081019050611e96565b83811115611ec0576000848401525b50505050565b60006002820490506001821680611ede57607f821691505b60208210811415611ef257611ef1611fd0565b5b50919050565b611f018261202e565b810181811067ffffffffffffffff82111715611f2057611f1f611fff565b5b80604052505050565b6000611f3482611e7a565b91507fffffffffffffffffffffffffffffffffffffffffffffffffffffffffffffffff821415611f6757611f66611f72565b5b600182019050919050565b7f4e487b7100000000000000000000000000000000000000000000000000000000600052601160045260246000fd5b7f4e487b7100000000000000000000000000000000000000000000000000000000600052601260045260246000fd5b7f4e487b7100000000000000000000000000000000000000000000000000000000600052602260045260246000fd5b7f4e487b7100000000000000000000000000000000000000000000000000000000600052604160045260246000fd5b6000601f19601f8301169050919050565b7f5375626d697373696f6e20697320696e636f7272656374000000000000000000600082015250565b7f4f776e61626c653a206e6577206f776e657220697320746865207a65726f206160008201527f6464726573730000000000000000000000000000000000000000000000000000602082015250565b7f6d75737420686176652073656d6170686f726500000000000000000000000000600082015250565b7f4f776e61626c653a2063616c6c6572206973206e6f7420746865206f776e6572600082015250565b61211281611e13565b811461211d57600080fd5b50565b61212981611e7a565b811461213457600080fd5b5056fea264697066735822122024287ddaa9814bd4809fc929e3ad6d07c19c135588622d41ad4c405144f4da8e64736f6c63430008040033456e746572696e6720636f6e7374727563746f7220666f72207375727665792e2e2e",
  "linkReferences": {},
  "deployedLinkReferences": {}
}