{
  "_format": "hh-sol-artifact-1",
  "contractName": "SurveyResultsView",
  "sourceName": "contracts/SurveyResultsView.sol",
  "abi": [
    {
      "inputs": [
        {
          "internalType": "address",
          "name": "_surveyor",
          "type": "address"
        }
      ],
      "stateMutability": "nonpayable",
      "type": "constructor"
    },
    {
      "anonymous": false,
      "inputs": [
        {
          "indexed": true,
          "internalType": "address",
          "name": "previousOwner",
          "type": "address"
        },
        {
          "indexed": true,
          "internalType": "address",
          "name": "newOwner",
          "type": "address"
        }
      ],
      "name": "OwnershipTransferred",
      "type": "event"
    },
    {
      "inputs": [
        {
          "internalType": "contract ISurvey",
          "name": "newSurvey",
          "type": "address"
        }
      ],
      "name": "addSurvey",
      "outputs": [],
      "stateMutability": "nonpayable",
      "type": "function"
    },
    {
      "inputs": [],
      "name": "getAllSurveyAddresses",
      "outputs": [
        {
          "internalType": "contract ISurvey[]",
          "name": "",
          "type": "address[]"
        }
      ],
      "stateMutability": "view",
      "type": "function"
    },
    {
      "inputs": [],
      "name": "getAllSurveys",
      "outputs": [
        {
          "internalType": "string[]",
          "name": "",
          "type": "string[]"
        }
      ],
      "stateMutability": "view",
      "type": "function"
    },
    {
      "inputs": [],
      "name": "isOwner",
      "outputs": [
        {
          "internalType": "bool",
          "name": "",
          "type": "bool"
        }
      ],
      "stateMutability": "view",
      "type": "function"
    },
    {
      "inputs": [],
      "name": "owner",
      "outputs": [
        {
          "internalType": "address",
          "name": "",
          "type": "address"
        }
      ],
      "stateMutability": "view",
      "type": "function"
    },
    {
      "inputs": [],
      "name": "renounceOwnership",
      "outputs": [],
      "stateMutability": "nonpayable",
      "type": "function"
    },
    {
      "inputs": [
        {
          "internalType": "address",
          "name": "newOwner",
          "type": "address"
        }
      ],
      "name": "transferOwnership",
      "outputs": [],
      "stateMutability": "nonpayable",
      "type": "function"
    }
  ],
  "bytecode": "0x608060405234801561001057600080fd5b5060405162001249380380620012498339818101604052810190610034919061014b565b336000806101000a81548173ffffffffffffffffffffffffffffffffffffffff021916908373ffffffffffffffffffffffffffffffffffffffff16021790555060008054906101000a900473ffffffffffffffffffffffffffffffffffffffff1673ffffffffffffffffffffffffffffffffffffffff16600073ffffffffffffffffffffffffffffffffffffffff167f8be0079c531659141344cd1fd0a4f28419497f9722a3daafe3b4186f6b6457e060405160405180910390a380600460006101000a81548173ffffffffffffffffffffffffffffffffffffffff021916908373ffffffffffffffffffffffffffffffffffffffff160217905550506101bd565b600081519050610145816101a6565b92915050565b60006020828403121561015d57600080fd5b600061016b84828501610136565b91505092915050565b600061017f82610186565b9050919050565b600073ffffffffffffffffffffffffffffffffffffffff82169050919050565b6101af81610174565b81146101ba57600080fd5b50565b61107c80620001cd6000396000f3fe608060405234801561001057600080fd5b506004361061007d5760003560e01c80638f32d59b1161005b5780638f32d59b146100c8578063c46191c5146100e6578063c53fb61314610104578063f2fde38b146101205761007d565b8063715018a6146100825780637a1bc3751461008c5780638da5cb5b146100aa575b600080fd5b61008a61013c565b005b610094610241565b6040516100a19190610c6c565b60405180910390f35b6100b26103ac565b6040516100bf9190610c2f565b60405180910390f35b6100d06103d5565b6040516100dd9190610c8e565b60405180910390f35b6100ee61042c565b6040516100fb9190610c4a565b60405180910390f35b61011e600480360381019061011991906109f7565b61054d565b005b61013a600480360381019061013591906109ce565b610719565b005b6101446103d5565b610183576040517f08c379a000000000000000000000000000000000000000000000000000000000815260040161017a90610ce9565b60405180910390fd5b600073ffffffffffffffffffffffffffffffffffffffff1660008054906101000a900473ffffffffffffffffffffffffffffffffffffffff1673ffffffffffffffffffffffffffffffffffffffff167f8be0079c531659141344cd1fd0a4f28419497f9722a3daafe3b4186f6b6457e060405160405180910390a360008060006101000a81548173ffffffffffffffffffffffffffffffffffffffff021916908373ffffffffffffffffffffffffffffffffffffffff160217905550565b60603373ffffffffffffffffffffffffffffffffffffffff16600460009054906101000a900473ffffffffffffffffffffffffffffffffffffffff1673ffffffffffffffffffffffffffffffffffffffff16146102d3576040517f08c379a00000000000000000000000000000000000000000000000000000000081526004016102ca90610cc9565b60405180910390fd5b60018001805480602002602001604051908101604052809291908181526020016000905b828210156103a357838290600052602060002001805461031690610ea5565b80601f016020809104026020016040519081016040528092919081815260200182805461034290610ea5565b801561038f5780601f106103645761010080835404028352916020019161038f565b820191906000526020600020905b81548152906001019060200180831161037257829003601f168201915b5050505050815260200190600101906102f7565b50505050905090565b60008060009054906101000a900473ffffffffffffffffffffffffffffffffffffffff16905090565b60008060009054906101000a900473ffffffffffffffffffffffffffffffffffffffff1673ffffffffffffffffffffffffffffffffffffffff163373ffffffffffffffffffffffffffffffffffffffff1614905090565b60603373ffffffffffffffffffffffffffffffffffffffff16600460009054906101000a900473ffffffffffffffffffffffffffffffffffffffff1673ffffffffffffffffffffffffffffffffffffffff16146104be576040517f08c379a00000000000000000000000000000000000000000000000000000000081526004016104b590610cc9565b60405180910390fd5b600160000180548060200260200160405190810160405280929190818152602001828054801561054357602002820191906000526020600020905b8160009054906101000a900473ffffffffffffffffffffffffffffffffffffffff1673ffffffffffffffffffffffffffffffffffffffff16815260200190600101908083116104f9575b5050505050905090565b6105556103d5565b610594576040517f08c379a000000000000000000000000000000000000000000000000000000000815260040161058b90610ce9565b60405180910390fd5b6001600001819080600181540180825580915050600190039060005260206000200160009091909190916101000a81548173ffffffffffffffffffffffffffffffffffffffff021916908373ffffffffffffffffffffffffffffffffffffffff160217905550600180018173ffffffffffffffffffffffffffffffffffffffff1663260a89af6040518163ffffffff1660e01b8152600401600060405180830381600087803b15801561064657600080fd5b505af115801561065a573d6000803e3d6000fd5b505050506040513d6000823e3d601f19601f820116820180604052508101906106839190610a20565b9080600181540180825580915050600190039060005260206000200160009091909190915090805190602001906106bb929190610899565b5060018060020160008373ffffffffffffffffffffffffffffffffffffffff1673ffffffffffffffffffffffffffffffffffffffff16815260200190815260200160002060006101000a81548160ff02191690831515021790555050565b6107216103d5565b610760576040517f08c379a000000000000000000000000000000000000000000000000000000000815260040161075790610ce9565b60405180910390fd5b6107698161076c565b50565b600073ffffffffffffffffffffffffffffffffffffffff168173ffffffffffffffffffffffffffffffffffffffff1614156107dc576040517f08c379a00000000000000000000000000000000000000000000000000000000081526004016107d390610ca9565b60405180910390fd5b8073ffffffffffffffffffffffffffffffffffffffff1660008054906101000a900473ffffffffffffffffffffffffffffffffffffffff1673ffffffffffffffffffffffffffffffffffffffff167f8be0079c531659141344cd1fd0a4f28419497f9722a3daafe3b4186f6b6457e060405160405180910390a3806000806101000a81548173ffffffffffffffffffffffffffffffffffffffff021916908373ffffffffffffffffffffffffffffffffffffffff16021790555050565b8280546108a590610ea5565b90600052602060002090601f0160209004810192826108c7576000855561090e565b82601f106108e057805160ff191683800117855561090e565b8280016001018555821561090e579182015b8281111561090d5782518255916020019190600101906108f2565b5b50905061091b919061091f565b5090565b5b80821115610938576000816000905550600101610920565b5090565b600061094f61094a84610d2e565b610d09565b90508281526020810184848401111561096757600080fd5b610972848285610e72565b509392505050565b60008135905061098981611018565b92915050565b60008135905061099e8161102f565b92915050565b600082601f8301126109b557600080fd5b81516109c584826020860161093c565b91505092915050565b6000602082840312156109e057600080fd5b60006109ee8482850161097a565b91505092915050565b600060208284031215610a0957600080fd5b6000610a178482850161098f565b91505092915050565b600060208284031215610a3257600080fd5b600082015167ffffffffffffffff811115610a4c57600080fd5b610a58848285016109a4565b91505092915050565b6000610a6d8383610b7e565b60208301905092915050565b6000610a858383610b8d565b905092915050565b610a9681610dfe565b82525050565b6000610aa782610d7f565b610ab18185610dba565b9350610abc83610d5f565b8060005b83811015610aed578151610ad48882610a61565b9750610adf83610da0565b925050600181019050610ac0565b5085935050505092915050565b6000610b0582610d8a565b610b0f8185610dcb565b935083602082028501610b2185610d6f565b8060005b85811015610b5d5784840389528151610b3e8582610a79565b9450610b4983610dad565b925060208a01995050600181019050610b25565b50829750879550505050505092915050565b610b7881610e10565b82525050565b610b8781610e4e565b82525050565b6000610b9882610d95565b610ba28185610ddc565b9350610bb2818560208601610e72565b610bbb81610f66565b840191505092915050565b6000610bd3602683610ded565b9150610bde82610f77565b604082019050919050565b6000610bf6601f83610ded565b9150610c0182610fc6565b602082019050919050565b6000610c19602083610ded565b9150610c2482610fef565b602082019050919050565b6000602082019050610c446000830184610a8d565b92915050565b60006020820190508181036000830152610c648184610a9c565b905092915050565b60006020820190508181036000830152610c868184610afa565b905092915050565b6000602082019050610ca36000830184610b6f565b92915050565b60006020820190508181036000830152610cc281610bc6565b9050919050565b60006020820190508181036000830152610ce281610be9565b9050919050565b60006020820190508181036000830152610d0281610c0c565b9050919050565b6000610d13610d24565b9050610d1f8282610ed7565b919050565b6000604051905090565b600067ffffffffffffffff821115610d4957610d48610f37565b5b610d5282610f66565b9050602081019050919050565b6000819050602082019050919050565b6000819050602082019050919050565b600081519050919050565b600081519050919050565b600081519050919050565b6000602082019050919050565b6000602082019050919050565b600082825260208201905092915050565b600082825260208201905092915050565b600082825260208201905092915050565b600082825260208201905092915050565b6000610e0982610e2e565b9050919050565b60008115159050919050565b6000610e2782610dfe565b9050919050565b600073ffffffffffffffffffffffffffffffffffffffff82169050919050565b6000610e5982610e60565b9050919050565b6000610e6b82610e2e565b9050919050565b60005b83811015610e90578082015181840152602081019050610e75565b83811115610e9f576000848401525b50505050565b60006002820490506001821680610ebd57607f821691505b60208210811415610ed157610ed0610f08565b5b50919050565b610ee082610f66565b810181811067ffffffffffffffff82111715610eff57610efe610f37565b5b80604052505050565b7f4e487b7100000000000000000000000000000000000000000000000000000000600052602260045260246000fd5b7f4e487b7100000000000000000000000000000000000000000000000000000000600052604160045260246000fd5b6000601f19601f8301169050919050565b7f4f776e61626c653a206e6577206f776e657220697320746865207a65726f206160008201527f6464726573730000000000000000000000000000000000000000000000000000602082015250565b7f4f6e6c79207375727665796f72732063616e2076696577207375727665797300600082015250565b7f4f776e61626c653a2063616c6c6572206973206e6f7420746865206f776e6572600082015250565b61102181610dfe565b811461102c57600080fd5b50565b61103881610e1c565b811461104357600080fd5b5056fea2646970667358221220de23d9e961959241da3bc63eede487aefd7969d5e20a5d8146fa45732ed5633964736f6c63430008040033",
  "linkReferences": {},
  "deployedLinkReferences": {}
}