{
  "_format": "hh-sol-artifact-1",
  "contractName": "Survey",
  "sourceName": "contracts/Survey.sol",
  "abi": [
    {
      "inputs": [
        {
          "internalType": "string[]",
          "name": "_surveyQuestions",
          "type": "string[]"
        },
        {
          "internalType": "address[]",
          "name": "_participants",
          "type": "address[]"
        },
        {
          "internalType": "uint256",
          "name": "_surveyTimeout",
          "type": "uint256"
        },
        {
          "internalType": "string",
          "name": "_surveyName",
          "type": "string"
        },
        {
          "internalType": "address",
          "name": "_semaphoreAddress",
          "type": "address"
        }
      ],
      "stateMutability": "nonpayable",
      "type": "constructor"
    },
    {
      "anonymous": false,
      "inputs": [
        {
          "indexed": true,
          "internalType": "address",
          "name": "previousOwner",
          "type": "address"
        },
        {
          "indexed": true,
          "internalType": "address",
          "name": "newOwner",
          "type": "address"
        }
      ],
      "name": "OwnershipTransferred",
      "type": "event"
    },
    {
      "inputs": [],
      "name": "addExternalNullifier",
      "outputs": [],
      "stateMutability": "nonpayable",
      "type": "function"
    },
    {
      "inputs": [],
      "name": "getExternalNullifier",
      "outputs": [
        {
          "internalType": "uint232",
          "name": "",
          "type": "uint232"
        }
      ],
      "stateMutability": "view",
      "type": "function"
    },
    {
      "inputs": [],
      "name": "getIdentityCommitments",
      "outputs": [
        {
          "internalType": "uint256[]",
          "name": "",
          "type": "uint256[]"
        }
      ],
      "stateMutability": "view",
      "type": "function"
    },
    {
      "inputs": [],
      "name": "getSurveyName",
      "outputs": [
        {
          "internalType": "string",
          "name": "",
          "type": "string"
        }
      ],
      "stateMutability": "view",
      "type": "function"
    },
    {
      "inputs": [],
      "name": "getSurveyQuestions",
      "outputs": [
        {
          "internalType": "string[]",
          "name": "",
          "type": "string[]"
        }
      ],
      "stateMutability": "view",
      "type": "function"
    },
    {
      "inputs": [],
      "name": "getSurveyScores",
      "outputs": [
        {
          "internalType": "string[]",
          "name": "_surveyQuestions",
          "type": "string[]"
        },
        {
          "internalType": "uint256[]",
          "name": "_surveyScores",
          "type": "uint256[]"
        }
      ],
      "stateMutability": "nonpayable",
      "type": "function"
    },
    {
      "inputs": [
        {
          "internalType": "uint256",
          "name": "_identityCommitment",
          "type": "uint256"
        }
      ],
      "name": "insertIdentity",
      "outputs": [],
      "stateMutability": "nonpayable",
      "type": "function"
    },
    {
      "inputs": [],
      "name": "isOwner",
      "outputs": [
        {
          "internalType": "bool",
          "name": "",
          "type": "bool"
        }
      ],
      "stateMutability": "view",
      "type": "function"
    },
    {
      "inputs": [],
      "name": "owner",
      "outputs": [
        {
          "internalType": "address",
          "name": "",
          "type": "address"
        }
      ],
      "stateMutability": "view",
      "type": "function"
    },
    {
      "inputs": [],
      "name": "renounceOwnership",
      "outputs": [],
      "stateMutability": "nonpayable",
      "type": "function"
    },
    {
      "inputs": [
        {
          "internalType": "address",
          "name": "newOwner",
          "type": "address"
        }
      ],
      "name": "transferOwnership",
      "outputs": [],
      "stateMutability": "nonpayable",
      "type": "function"
    },
    {
      "inputs": [
        {
          "internalType": "string[]",
          "name": "questions",
          "type": "string[]"
        },
        {
          "internalType": "uint256[]",
          "name": "scores",
          "type": "uint256[]"
        },
        {
          "internalType": "bytes",
          "name": "surveyResponseBytes",
          "type": "bytes"
        },
        {
          "internalType": "uint256[8]",
          "name": "_proof",
          "type": "uint256[8]"
        },
        {
          "internalType": "uint256",
          "name": "_root",
          "type": "uint256"
        },
        {
          "internalType": "uint256",
          "name": "_nullifiersHash",
          "type": "uint256"
        }
      ],
      "name": "updateSurveyResult",
      "outputs": [],
      "stateMutability": "nonpayable",
      "type": "function"
    }
  ],
  "bytecode": "0x60806040523480156200001157600080fd5b506040516200308e3803806200308e83398181016040528101906200003791906200074f565b336000806101000a81548173ffffffffffffffffffffffffffffffffffffffff021916908373ffffffffffffffffffffffffffffffffffffffff16021790555060008054906101000a900473ffffffffffffffffffffffffffffffffffffffff1673ffffffffffffffffffffffffffffffffffffffff16600073ffffffffffffffffffffffffffffffffffffffff167f8be0079c531659141344cd1fd0a4f28419497f9722a3daafe3b4186f6b6457e060405160405180910390a3620001216040518060600160405280602281526020016200306c602291396200027060201b62000f351760201c565b84600a60010190805190602001906200013c9291906200033c565b5060005b8551811015620001e357600086828151811062000186577f4e487b7100000000000000000000000000000000000000000000000000000000600052603260045260246000fd5b602002602001015190506001600a60000182604051620001a7919062000894565b908152602001604051809103902060006101000a81548160ff021916908315150217905550508080620001da9062000a95565b91505062000140565b50826005819055504260048190555080600260006101000a81548173ffffffffffffffffffffffffffffffffffffffff021916908373ffffffffffffffffffffffffffffffffffffffff16021790555083600690805190602001906200024b929190620003a3565b5081600190805190602001906200026492919062000432565b50505050505062000bb5565b6200031081604051602401620002879190620008ad565b6040516020818303038152906040527f41304fac000000000000000000000000000000000000000000000000000000007bffffffffffffffffffffffffffffffffffffffffffffffffffffffff19166020820180517bffffffffffffffffffffffffffffffffffffffffffffffffffffffff83818316178352505050506200031360201b60201c565b50565b60008151905060006a636f6e736f6c652e6c6f679050602083016000808483855afa5050505050565b82805482825590600052602060002090810192821562000390579160200282015b828111156200038f5782518290805190602001906200037e92919062000432565b50916020019190600101906200035d565b5b5090506200039f9190620004c3565b5090565b8280548282559060005260206000209081019282156200041f579160200282015b828111156200041e5782518260006101000a81548173ffffffffffffffffffffffffffffffffffffffff021916908373ffffffffffffffffffffffffffffffffffffffff16021790555091602001919060010190620003c4565b5b5090506200042e9190620004eb565b5090565b828054620004409062000a29565b90600052602060002090601f016020900481019282620004645760008555620004b0565b82601f106200047f57805160ff1916838001178555620004b0565b82800160010185558215620004b0579182015b82811115620004af57825182559160200191906001019062000492565b5b509050620004bf9190620004eb565b5090565b5b80821115620004e75760008181620004dd91906200050a565b50600101620004c4565b5090565b5b8082111562000506576000816000905550600101620004ec565b5090565b508054620005189062000a29565b6000825580601f106200052c57506200054d565b601f0160209004906000526020600020908101906200054c9190620004eb565b5b50565b6000620005676200056184620008fa565b620008d1565b905080838252602082019050828560208602820111156200058757600080fd5b60005b85811015620005bb5781620005a088826200069a565b8452602084019350602083019250506001810190506200058a565b5050509392505050565b6000620005dc620005d68462000929565b620008d1565b90508083825260208201905082856020860282011115620005fc57600080fd5b60005b858110156200064b57815167ffffffffffffffff8111156200062057600080fd5b8086016200062f89826200070b565b85526020850194506020840193505050600181019050620005ff565b5050509392505050565b60006200066c620006668462000958565b620008d1565b9050828152602081018484840111156200068557600080fd5b62000692848285620009f3565b509392505050565b600081519050620006ab8162000b81565b92915050565b600082601f830112620006c357600080fd5b8151620006d584826020860162000550565b91505092915050565b600082601f830112620006f057600080fd5b815162000702848260208601620005c5565b91505092915050565b600082601f8301126200071d57600080fd5b81516200072f84826020860162000655565b91505092915050565b600081519050620007498162000b9b565b92915050565b600080600080600060a086880312156200076857600080fd5b600086015167ffffffffffffffff8111156200078357600080fd5b6200079188828901620006de565b955050602086015167ffffffffffffffff811115620007af57600080fd5b620007bd88828901620006b1565b9450506040620007d08882890162000738565b935050606086015167ffffffffffffffff811115620007ee57600080fd5b620007fc888289016200070b565b92505060806200080f888289016200069a565b9150509295509295909350565b600062000829826200098e565b62000835818562000999565b935062000847818560208601620009f3565b620008528162000b70565b840191505092915050565b60006200086a826200098e565b620008768185620009aa565b935062000888818560208601620009f3565b80840191505092915050565b6000620008a282846200085d565b915081905092915050565b60006020820190508181036000830152620008c981846200081c565b905092915050565b6000620008dd620008f0565b9050620008eb828262000a5f565b919050565b6000604051905090565b600067ffffffffffffffff82111562000918576200091762000b41565b5b602082029050602081019050919050565b600067ffffffffffffffff82111562000947576200094662000b41565b5b602082029050602081019050919050565b600067ffffffffffffffff82111562000976576200097562000b41565b5b620009818262000b70565b9050602081019050919050565b600081519050919050565b600082825260208201905092915050565b600081905092915050565b6000620009c282620009c9565b9050919050565b600073ffffffffffffffffffffffffffffffffffffffff82169050919050565b6000819050919050565b60005b8381101562000a13578082015181840152602081019050620009f6565b8381111562000a23576000848401525b50505050565b6000600282049050600182168062000a4257607f821691505b6020821081141562000a595762000a5862000b12565b5b50919050565b62000a6a8262000b70565b810181811067ffffffffffffffff8211171562000a8c5762000a8b62000b41565b5b80604052505050565b600062000aa282620009e9565b91507fffffffffffffffffffffffffffffffffffffffffffffffffffffffffffffffff82141562000ad85762000ad762000ae3565b5b600182019050919050565b7f4e487b7100000000000000000000000000000000000000000000000000000000600052601160045260246000fd5b7f4e487b7100000000000000000000000000000000000000000000000000000000600052602260045260246000fd5b7f4e487b7100000000000000000000000000000000000000000000000000000000600052604160045260246000fd5b6000601f19601f8301169050919050565b62000b8c81620009b5565b811462000b9857600080fd5b50565b62000ba681620009e9565b811462000bb257600080fd5b50565b6124a78062000bc56000396000f3fe608060405234801561001057600080fd5b50600436106100b45760003560e01c80638da5cb5b116100715780638da5cb5b146101445780638f32d59b14610162578063cf4ae8fb14610180578063df2e808f1461019e578063e1984df6146101ba578063f2fde38b146101d8576100b4565b8063074fa741146100b9578063260a89af146100d857806340566790146100f65780636d80efca14610114578063715018a614610130578063771441371461013a575b600080fd5b6100c16101f4565b6040516100cf929190611c79565b60405180910390f35b6100e0610509565b6040516100ed9190611d4b565b60405180910390f35b6100fe61059b565b60405161010b9190611cb0565b60405180910390f35b61012e600480360381019061012991906118f3565b6105f3565b005b610138610899565b005b61014261099e565b005b61014c610b8d565b6040516101599190611c3c565b60405180910390f35b61016a610bb6565b6040516101779190611cd2565b60405180910390f35b610188610c0d565b6040516101959190611c57565b60405180910390f35b6101b860048036038101906101b3919061181f565b610ce9565b005b6101c2610eaf565b6040516101cf9190611e1d565b60405180910390f35b6101f260048036038101906101ed91906117f6565b610ee2565b005b6060806101ff610bb6565b61023e576040517f08c379a000000000000000000000000000000000000000000000000000000000815260040161023590611dfd565b60405180910390fd5b600073ffffffffffffffffffffffffffffffffffffffff16600260009054906101000a900473ffffffffffffffffffffffffffffffffffffffff1673ffffffffffffffffffffffffffffffffffffffff1614156102d0576040517f08c379a00000000000000000000000000000000000000000000000000000000081526004016102c790611dbd565b60405180910390fd5b6102d8610fce565b6005546004546102e8919061204b565b4211156103d4576060600a6001018181805480602002602001604051908101604052809291908181526020016000905b828210156103c457838290600052602060002001805461033790612185565b80601f016020809104026020016040519081016040528092919081815260200182805461036390612185565b80156103b05780601f10610385576101008083540402835291602001916103b0565b820191906000526020600020905b81548152906001019060200180831161039357829003601f168201915b505050505081526020019060010190610318565b5050505091509250925050610505565b600a600101600981805480602002602001604051908101604052809291908181526020016000905b828210156104a857838290600052602060002001805461041b90612185565b80601f016020809104026020016040519081016040528092919081815260200182805461044790612185565b80156104945780601f1061046957610100808354040283529160200191610494565b820191906000526020600020905b81548152906001019060200180831161047757829003601f168201915b5050505050815260200190600101906103fc565b505050509150808054806020026020016040519081016040528092919081815260200182805480156104f957602002820191906000526020600020905b8154815260200190600101908083116104e5575b50505050509050915091505b9091565b60606001805461051890612185565b80601f016020809104026020016040519081016040528092919081815260200182805461054490612185565b80156105915780601f1061056657610100808354040283529160200191610591565b820191906000526020600020905b81548152906001019060200180831161057457829003601f168201915b5050505050905090565b6060600d8054806020026020016040519081016040528092919081815260200182805480156105e957602002820191906000526020600020905b8154815260200190600101908083116105d5575b5050505050905090565b610683600680548060200260200160405190810160405280929190818152602001828054801561067857602002820191906000526020600020905b8160009054906101000a900473ffffffffffffffffffffffffffffffffffffffff1673ffffffffffffffffffffffffffffffffffffffff168152602001906001019080831161062e575b5050505050336111da565b6106c2576040517f08c379a00000000000000000000000000000000000000000000000000000000081526004016106b990611ddd565b60405180910390fd5b6107006040518060400160405280601c81526020017f5375727665793a737461727420696e73657274206964656e7469747900000000815250610f35565b600260009054906101000a900473ffffffffffffffffffffffffffffffffffffffff1673ffffffffffffffffffffffffffffffffffffffff16636d80efca826040518263ffffffff1660e01b815260040161075b9190611e38565b600060405180830381600087803b15801561077557600080fd5b505af1158015610789573d6000803e3d6000fd5b50505050600d8190806001815401808255809150506001900390600052602060002001600090919091909150556001600e60003373ffffffffffffffffffffffffffffffffffffffff1673ffffffffffffffffffffffffffffffffffffffff16815260200190815260200160002060006101000a81548160ff0219169083151502179055506000600d8054905090506108576040518060400160405280601f81526020017f4e756d626572206f6620636f6d6d69746d656e747320696e207375727665790081525082611288565b6108956040518060400160405280601f81526020017f5375727665793a636f6d706c65746520696e73657274206964656e7469747900815250610f35565b5050565b6108a1610bb6565b6108e0576040517f08c379a00000000000000000000000000000000000000000000000000000000081526004016108d790611dfd565b60405180910390fd5b600073ffffffffffffffffffffffffffffffffffffffff1660008054906101000a900473ffffffffffffffffffffffffffffffffffffffff1673ffffffffffffffffffffffffffffffffffffffff167f8be0079c531659141344cd1fd0a4f28419497f9722a3daafe3b4186f6b6457e060405160405180910390a360008060006101000a81548173ffffffffffffffffffffffffffffffffffffffff021916908373ffffffffffffffffffffffffffffffffffffffff160217905550565b6109a6610bb6565b6109e5576040517f08c379a00000000000000000000000000000000000000000000000000000000081526004016109dc90611dfd565b60405180910390fd5b6000306040516020016109f89190611c3c565b6040516020818303038152906040529050808051906020012060001c600360006101000a8154817cffffffffffffffffffffffffffffffffffffffffffffffffffffffffff02191690837cffffffffffffffffffffffffffffffffffffffffffffffffffffffffff160217905550600260009054906101000a900473ffffffffffffffffffffffffffffffffffffffff1673ffffffffffffffffffffffffffffffffffffffff1663539f38b2600360009054906101000a90047cffffffffffffffffffffffffffffffffffffffffffffffffffffffffff166040518263ffffffff1660e01b8152600401610aec9190611e1d565b600060405180830381600087803b158015610b0657600080fd5b505af1158015610b1a573d6000803e3d6000fd5b50505050610b8a60405180606001604052806022815260200161245060229139600360009054906101000a90047cffffffffffffffffffffffffffffffffffffffffffffffffffffffffff167cffffffffffffffffffffffffffffffffffffffffffffffffffffffffff16611288565b50565b60008060009054906101000a900473ffffffffffffffffffffffffffffffffffffffff16905090565b60008060009054906101000a900473ffffffffffffffffffffffffffffffffffffffff1673ffffffffffffffffffffffffffffffffffffffff163373ffffffffffffffffffffffffffffffffffffffff1614905090565b6060600a600101805480602002602001604051908101604052809291908181526020016000905b82821015610ce0578382906000526020600020018054610c5390612185565b80601f0160208091040260200160405190810160405280929190818152602001828054610c7f90612185565b8015610ccc5780601f10610ca157610100808354040283529160200191610ccc565b820191906000526020600020905b815481529060010190602001808311610caf57829003601f168201915b505050505081526020019060010190610c34565b50505050905090565b600073ffffffffffffffffffffffffffffffffffffffff16600260009054906101000a900473ffffffffffffffffffffffffffffffffffffffff1673ffffffffffffffffffffffffffffffffffffffff161415610d7b576040517f08c379a0000000000000000000000000000000000000000000000000000000008152600401610d7290611dbd565b60405180910390fd5b610de760405180606001604052806033815260200161241d60339139600360009054906101000a90047cffffffffffffffffffffffffffffffffffffffffffffffffffffffffff167cffffffffffffffffffffffffffffffffffffffffffffffffffffffffff16611288565b600260009054906101000a900473ffffffffffffffffffffffffffffffffffffffff1673ffffffffffffffffffffffffffffffffffffffff16630e57596f85858585600360009054906101000a90047cffffffffffffffffffffffffffffffffffffffffffffffffffffffffff166040518663ffffffff1660e01b8152600401610e75959493929190611ced565b600060405180830381600087803b158015610e8f57600080fd5b505af1158015610ea3573d6000803e3d6000fd5b50505050505050505050565b6000600360009054906101000a90047cffffffffffffffffffffffffffffffffffffffffffffffffffffffffff16905090565b610eea610bb6565b610f29576040517f08c379a0000000000000000000000000000000000000000000000000000000008152600401610f2090611dfd565b60405180910390fd5b610f3281611324565b50565b610fcb81604051602401610f499190611d4b565b6040516020818303038152906040527f41304fac000000000000000000000000000000000000000000000000000000007bffffffffffffffffffffffffffffffffffffffffffffffffffffffff19166020820180517bffffffffffffffffffffffffffffffffffffffffffffffffffffffff8381831617835250505050611451565b50565b600c60009054906101000a900460ff161580610ff85750600554600454610ff5919061204b565b42115b15611002576111d8565b6009600061101091906114ee565b60005b600a600101805490508110156111bb576000600a6001018281548110611062577f4e487b7100000000000000000000000000000000000000000000000000000000600052603260045260246000fd5b90600052602060002001805461107790612185565b80601f01602080910402602001604051908101604052809291908181526020018280546110a390612185565b80156110f05780601f106110c5576101008083540402835291602001916110f0565b820191906000526020600020905b8154815290600101906020018083116110d357829003601f168201915b50505050509050600060085461117160078460405161110f9190611c25565b908152602001604051809103902080548060200260200160405190810160405280929190818152602001828054801561116757602002820191906000526020600020905b815481526020019060010190808311611153575b505050505061147a565b61117b91906120a1565b90506009819080600181540180825580915050600190039060005260206000200160009091909190915055505080806111b3906121e8565b915050611013565b506000600c60006101000a81548160ff0219169083151502179055505b565b600080600090505b835181101561127c57838181518110611224577f4e487b7100000000000000000000000000000000000000000000000000000000600052603260045260246000fd5b602002602001015173ffffffffffffffffffffffffffffffffffffffff168373ffffffffffffffffffffffffffffffffffffffff161415611269576001915050611282565b8080611274906121e8565b9150506111e2565b50600090505b92915050565b611320828260405160240161129e929190611d6d565b6040516020818303038152906040527f9710a9d0000000000000000000000000000000000000000000000000000000007bffffffffffffffffffffffffffffffffffffffffffffffffffffffff19166020820180517bffffffffffffffffffffffffffffffffffffffffffffffffffffffff8381831617835250505050611451565b5050565b600073ffffffffffffffffffffffffffffffffffffffff168173ffffffffffffffffffffffffffffffffffffffff161415611394576040517f08c379a000000000000000000000000000000000000000000000000000000000815260040161138b90611d9d565b60405180910390fd5b8073ffffffffffffffffffffffffffffffffffffffff1660008054906101000a900473ffffffffffffffffffffffffffffffffffffffff1673ffffffffffffffffffffffffffffffffffffffff167f8be0079c531659141344cd1fd0a4f28419497f9722a3daafe3b4186f6b6457e060405160405180910390a3806000806101000a81548173ffffffffffffffffffffffffffffffffffffffff021916908373ffffffffffffffffffffffffffffffffffffffff16021790555050565b60008151905060006a636f6e736f6c652e6c6f679050602083016000808483855afa5050505050565b6000805b82518110156114e8578281815181106114c0577f4e487b7100000000000000000000000000000000000000000000000000000000600052603260045260246000fd5b6020026020010151826114d3919061204b565b915080806114e0906121e8565b91505061147e565b50919050565b508054600082559060005260206000209081019061150c919061150f565b50565b5b80821115611528576000816000905550600101611510565b5090565b600061153f61153a84611e78565b611e53565b9050808382526020820190508285602086028201111561155e57600080fd5b60005b858110156115a857813567ffffffffffffffff81111561158057600080fd5b80860161158d89826117b7565b85526020850194506020840193505050600181019050611561565b5050509392505050565b60006115c56115c084611ea4565b611e53565b905080828560208602820111156115db57600080fd5b60005b8581101561160b57816115f188826117e1565b8452602084019350602083019250506001810190506115de565b5050509392505050565b600061162861162384611eca565b611e53565b9050808382526020820190508285602086028201111561164757600080fd5b60005b85811015611677578161165d88826117e1565b84526020840193506020830192505060018101905061164a565b5050509392505050565b600061169461168f84611ef6565b611e53565b9050828152602081018484840111156116ac57600080fd5b6116b7848285612143565b509392505050565b60006116d26116cd84611f27565b611e53565b9050828152602081018484840111156116ea57600080fd5b6116f5848285612143565b509392505050565b60008135905061170c816123ee565b92915050565b600082601f83011261172357600080fd5b813561173384826020860161152c565b91505092915050565b600082601f83011261174d57600080fd5b600861175a8482856115b2565b91505092915050565b600082601f83011261177457600080fd5b8135611784848260208601611615565b91505092915050565b600082601f83011261179e57600080fd5b81356117ae848260208601611681565b91505092915050565b600082601f8301126117c857600080fd5b81356117d88482602086016116bf565b91505092915050565b6000813590506117f081612405565b92915050565b60006020828403121561180857600080fd5b6000611816848285016116fd565b91505092915050565b6000806000806000806101a0878903121561183957600080fd5b600087013567ffffffffffffffff81111561185357600080fd5b61185f89828a01611712565b965050602087013567ffffffffffffffff81111561187c57600080fd5b61188889828a01611763565b955050604087013567ffffffffffffffff8111156118a557600080fd5b6118b189828a0161178d565b94505060606118c289828a0161173c565b9350506101606118d489828a016117e1565b9250506101806118e689828a016117e1565b9150509295509295509295565b60006020828403121561190557600080fd5b6000611913848285016117e1565b91505092915050565b60006119288383611ac9565b905092915050565b600061193c8383611c07565b60208301905092915050565b611951816120d2565b82525050565b600061196282611f82565b61196c8185611fe0565b93508360208202850161197e85611f58565b8060005b858110156119ba578484038952815161199b858261191c565b94506119a683611fb9565b925060208a01995050600181019050611982565b50829750879550505050505092915050565b6119d581611f8d565b6119df8184611ff1565b92506119ea82611f68565b8060005b83811015611a1b578151611a028782611930565b9650611a0d83611fc6565b9250506001810190506119ee565b505050505050565b6000611a2e82611f98565b611a388185611ffc565b9350611a4383611f72565b8060005b83811015611a74578151611a5b8882611930565b9750611a6683611fd3565b925050600181019050611a47565b5085935050505092915050565b611a8a816120e4565b82525050565b6000611a9b82611fa3565b611aa5818561200d565b9350611ab5818560208601612152565b611abe816122ed565b840191505092915050565b6000611ad482611fae565b611ade818561201e565b9350611aee818560208601612152565b611af7816122ed565b840191505092915050565b6000611b0d82611fae565b611b17818561202f565b9350611b27818560208601612152565b611b30816122ed565b840191505092915050565b6000611b4682611fae565b611b508185612040565b9350611b60818560208601612152565b80840191505092915050565b6000611b7960268361202f565b9150611b84826122fe565b604082019050919050565b6000611b9c60138361202f565b9150611ba78261234d565b602082019050919050565b6000611bbf60258361202f565b9150611bca82612376565b604082019050919050565b6000611be260208361202f565b9150611bed826123c5565b602082019050919050565b611c0181612110565b82525050565b611c1081612139565b82525050565b611c1f81612139565b82525050565b6000611c318284611b3b565b915081905092915050565b6000602082019050611c516000830184611948565b92915050565b60006020820190508181036000830152611c718184611957565b905092915050565b60006040820190508181036000830152611c938185611957565b90508181036020830152611ca78184611a23565b90509392505050565b60006020820190508181036000830152611cca8184611a23565b905092915050565b6000602082019050611ce76000830184611a81565b92915050565b6000610180820190508181036000830152611d088188611a90565b9050611d1760208301876119cc565b611d25610120830186611c16565b611d33610140830185611c16565b611d41610160830184611bf8565b9695505050505050565b60006020820190508181036000830152611d658184611b02565b905092915050565b60006040820190508181036000830152611d878185611b02565b9050611d966020830184611c16565b9392505050565b60006020820190508181036000830152611db681611b6c565b9050919050565b60006020820190508181036000830152611dd681611b8f565b9050919050565b60006020820190508181036000830152611df681611bb2565b9050919050565b60006020820190508181036000830152611e1681611bd5565b9050919050565b6000602082019050611e326000830184611bf8565b92915050565b6000602082019050611e4d6000830184611c16565b92915050565b6000611e5d611e6e565b9050611e6982826121b7565b919050565b6000604051905090565b600067ffffffffffffffff821115611e9357611e926122be565b5b602082029050602081019050919050565b600067ffffffffffffffff821115611ebf57611ebe6122be565b5b602082029050919050565b600067ffffffffffffffff821115611ee557611ee46122be565b5b602082029050602081019050919050565b600067ffffffffffffffff821115611f1157611f106122be565b5b611f1a826122ed565b9050602081019050919050565b600067ffffffffffffffff821115611f4257611f416122be565b5b611f4b826122ed565b9050602081019050919050565b6000819050602082019050919050565b6000819050919050565b6000819050602082019050919050565b600081519050919050565b600060089050919050565b600081519050919050565b600081519050919050565b600081519050919050565b6000602082019050919050565b6000602082019050919050565b6000602082019050919050565b600082825260208201905092915050565b600081905092915050565b600082825260208201905092915050565b600082825260208201905092915050565b600082825260208201905092915050565b600082825260208201905092915050565b600081905092915050565b600061205682612139565b915061206183612139565b9250827fffffffffffffffffffffffffffffffffffffffffffffffffffffffffffffffff0382111561209657612095612231565b5b828201905092915050565b60006120ac82612139565b91506120b783612139565b9250826120c7576120c6612260565b5b828204905092915050565b60006120dd826120f0565b9050919050565b60008115159050919050565b600073ffffffffffffffffffffffffffffffffffffffff82169050919050565b60007cffffffffffffffffffffffffffffffffffffffffffffffffffffffffff82169050919050565b6000819050919050565b82818337600083830152505050565b60005b83811015612170578082015181840152602081019050612155565b8381111561217f576000848401525b50505050565b6000600282049050600182168061219d57607f821691505b602082108114156121b1576121b061228f565b5b50919050565b6121c0826122ed565b810181811067ffffffffffffffff821117156121df576121de6122be565b5b80604052505050565b60006121f382612139565b91507fffffffffffffffffffffffffffffffffffffffffffffffffffffffffffffffff82141561222657612225612231565b5b600182019050919050565b7f4e487b7100000000000000000000000000000000000000000000000000000000600052601160045260246000fd5b7f4e487b7100000000000000000000000000000000000000000000000000000000600052601260045260246000fd5b7f4e487b7100000000000000000000000000000000000000000000000000000000600052602260045260246000fd5b7f4e487b7100000000000000000000000000000000000000000000000000000000600052604160045260246000fd5b6000601f19601f8301169050919050565b7f4f776e61626c653a206e6577206f776e657220697320746865207a65726f206160008201527f6464726573730000000000000000000000000000000000000000000000000000602082015250565b7f6d75737420686176652073656d6170686f726500000000000000000000000000600082015250565b7f4f6e6c79207061727469636970616e74732063616e20696e736572742069646560008201527f6e74697479000000000000000000000000000000000000000000000000000000602082015250565b7f4f776e61626c653a2063616c6c6572206973206e6f7420746865206f776e6572600082015250565b6123f7816120d2565b811461240257600080fd5b50565b61240e81612139565b811461241957600080fd5b5056fe5375727665793a65787465726e616c206e756c6c696669657220696e207570646174652073757276657920726573756c743a205375727665793a416464696e672065787465726e616c206e756c6c69666965723a20a264697066735822122019f0981c21638d2de43dfbb9c4c5c559c8300e70d00c602f85d88e91d937112564736f6c63430008040033456e746572696e6720636f6e7374727563746f7220666f72207375727665792e2e2e",
  "linkReferences": {},
  "deployedLinkReferences": {}
}