{
  "_format": "hh-sol-artifact-1",
  "contractName": "Survey",
  "sourceName": "contracts/Survey.sol",
  "abi": [
    {
      "inputs": [
        {
          "internalType": "string[]",
          "name": "_surveyQuestions",
          "type": "string[]"
        },
        {
          "internalType": "address[]",
          "name": "_participants",
          "type": "address[]"
        },
        {
          "internalType": "uint256",
          "name": "_surveyTimeout",
          "type": "uint256"
        },
        {
          "internalType": "string",
          "name": "_surveyName",
          "type": "string"
        },
        {
          "internalType": "address",
          "name": "_semaphoreAddress",
          "type": "address"
        }
      ],
      "stateMutability": "nonpayable",
      "type": "constructor"
    },
    {
      "anonymous": false,
      "inputs": [
        {
          "indexed": true,
          "internalType": "address",
          "name": "previousOwner",
          "type": "address"
        },
        {
          "indexed": true,
          "internalType": "address",
          "name": "newOwner",
          "type": "address"
        }
      ],
      "name": "OwnershipTransferred",
      "type": "event"
    },
    {
      "inputs": [],
      "name": "addExternalNullifier",
      "outputs": [],
      "stateMutability": "nonpayable",
      "type": "function"
    },
    {
      "inputs": [],
      "name": "getSurveyName",
      "outputs": [
        {
          "internalType": "string",
          "name": "",
          "type": "string"
        }
      ],
      "stateMutability": "view",
      "type": "function"
    },
    {
      "inputs": [],
      "name": "getSurveyQuestions",
      "outputs": [
        {
          "internalType": "string[]",
          "name": "",
          "type": "string[]"
        }
      ],
      "stateMutability": "view",
      "type": "function"
    },
    {
      "inputs": [],
      "name": "getSurveyScores",
      "outputs": [
        {
          "internalType": "string[]",
          "name": "_surveyQuestions",
          "type": "string[]"
        },
        {
          "internalType": "uint256[]",
          "name": "_surveyScores",
          "type": "uint256[]"
        }
      ],
      "stateMutability": "nonpayable",
      "type": "function"
    },
    {
      "inputs": [
        {
          "internalType": "uint256",
          "name": "_identityCommitment",
          "type": "uint256"
        }
      ],
      "name": "insertIdentity",
      "outputs": [],
      "stateMutability": "nonpayable",
      "type": "function"
    },
    {
      "inputs": [],
      "name": "isOwner",
      "outputs": [
        {
          "internalType": "bool",
          "name": "",
          "type": "bool"
        }
      ],
      "stateMutability": "view",
      "type": "function"
    },
    {
      "inputs": [],
      "name": "owner",
      "outputs": [
        {
          "internalType": "address",
          "name": "",
          "type": "address"
        }
      ],
      "stateMutability": "view",
      "type": "function"
    },
    {
      "inputs": [],
      "name": "renounceOwnership",
      "outputs": [],
      "stateMutability": "nonpayable",
      "type": "function"
    },
    {
      "inputs": [
        {
          "internalType": "address",
          "name": "newOwner",
          "type": "address"
        }
      ],
      "name": "transferOwnership",
      "outputs": [],
      "stateMutability": "nonpayable",
      "type": "function"
    },
    {
      "inputs": [
        {
          "internalType": "string[]",
          "name": "questions",
          "type": "string[]"
        },
        {
          "internalType": "uint256[]",
          "name": "scores",
          "type": "uint256[]"
        },
        {
          "internalType": "bytes",
          "name": "surveyResponseBytes",
          "type": "bytes"
        },
        {
          "internalType": "uint256[8]",
          "name": "_proof",
          "type": "uint256[8]"
        },
        {
          "internalType": "uint256",
          "name": "_root",
          "type": "uint256"
        },
        {
          "internalType": "uint256",
          "name": "_nullifiersHash",
          "type": "uint256"
        }
      ],
      "name": "updateSurveyResult",
      "outputs": [],
      "stateMutability": "nonpayable",
      "type": "function"
    }
  ],
  "bytecode": "0x60806040523480156200001157600080fd5b506040516200301e3803806200301e83398181016040528101906200003791906200074f565b336000806101000a81548173ffffffffffffffffffffffffffffffffffffffff021916908373ffffffffffffffffffffffffffffffffffffffff16021790555060008054906101000a900473ffffffffffffffffffffffffffffffffffffffff1673ffffffffffffffffffffffffffffffffffffffff16600073ffffffffffffffffffffffffffffffffffffffff167f8be0079c531659141344cd1fd0a4f28419497f9722a3daafe3b4186f6b6457e060405160405180910390a36200012160405180606001604052806022815260200162002ffc602291396200027060201b62000eb91760201c565b84600a60010190805190602001906200013c9291906200033c565b5060005b8551811015620001e357600086828151811062000186577f4e487b7100000000000000000000000000000000000000000000000000000000600052603260045260246000fd5b602002602001015190506001600a60000182604051620001a7919062000894565b908152602001604051809103902060006101000a81548160ff021916908315150217905550508080620001da9062000a95565b91505062000140565b50826005819055504260048190555080600260006101000a81548173ffffffffffffffffffffffffffffffffffffffff021916908373ffffffffffffffffffffffffffffffffffffffff16021790555083600690805190602001906200024b929190620003a3565b5081600190805190602001906200026492919062000432565b50505050505062000bb5565b6200031081604051602401620002879190620008ad565b6040516020818303038152906040527f41304fac000000000000000000000000000000000000000000000000000000007bffffffffffffffffffffffffffffffffffffffffffffffffffffffff19166020820180517bffffffffffffffffffffffffffffffffffffffffffffffffffffffff83818316178352505050506200031360201b60201c565b50565b60008151905060006a636f6e736f6c652e6c6f679050602083016000808483855afa5050505050565b82805482825590600052602060002090810192821562000390579160200282015b828111156200038f5782518290805190602001906200037e92919062000432565b50916020019190600101906200035d565b5b5090506200039f9190620004c3565b5090565b8280548282559060005260206000209081019282156200041f579160200282015b828111156200041e5782518260006101000a81548173ffffffffffffffffffffffffffffffffffffffff021916908373ffffffffffffffffffffffffffffffffffffffff16021790555091602001919060010190620003c4565b5b5090506200042e9190620004eb565b5090565b828054620004409062000a29565b90600052602060002090601f016020900481019282620004645760008555620004b0565b82601f106200047f57805160ff1916838001178555620004b0565b82800160010185558215620004b0579182015b82811115620004af57825182559160200191906001019062000492565b5b509050620004bf9190620004eb565b5090565b5b80821115620004e75760008181620004dd91906200050a565b50600101620004c4565b5090565b5b8082111562000506576000816000905550600101620004ec565b5090565b508054620005189062000a29565b6000825580601f106200052c57506200054d565b601f0160209004906000526020600020908101906200054c9190620004eb565b5b50565b6000620005676200056184620008fa565b620008d1565b905080838252602082019050828560208602820111156200058757600080fd5b60005b85811015620005bb5781620005a088826200069a565b8452602084019350602083019250506001810190506200058a565b5050509392505050565b6000620005dc620005d68462000929565b620008d1565b90508083825260208201905082856020860282011115620005fc57600080fd5b60005b858110156200064b57815167ffffffffffffffff8111156200062057600080fd5b8086016200062f89826200070b565b85526020850194506020840193505050600181019050620005ff565b5050509392505050565b60006200066c620006668462000958565b620008d1565b9050828152602081018484840111156200068557600080fd5b62000692848285620009f3565b509392505050565b600081519050620006ab8162000b81565b92915050565b600082601f830112620006c357600080fd5b8151620006d584826020860162000550565b91505092915050565b600082601f830112620006f057600080fd5b815162000702848260208601620005c5565b91505092915050565b600082601f8301126200071d57600080fd5b81516200072f84826020860162000655565b91505092915050565b600081519050620007498162000b9b565b92915050565b600080600080600060a086880312156200076857600080fd5b600086015167ffffffffffffffff8111156200078357600080fd5b6200079188828901620006de565b955050602086015167ffffffffffffffff811115620007af57600080fd5b620007bd88828901620006b1565b9450506040620007d08882890162000738565b935050606086015167ffffffffffffffff811115620007ee57600080fd5b620007fc888289016200070b565b92505060806200080f888289016200069a565b9150509295509295909350565b600062000829826200098e565b62000835818562000999565b935062000847818560208601620009f3565b620008528162000b70565b840191505092915050565b60006200086a826200098e565b620008768185620009aa565b935062000888818560208601620009f3565b80840191505092915050565b6000620008a282846200085d565b915081905092915050565b60006020820190508181036000830152620008c981846200081c565b905092915050565b6000620008dd620008f0565b9050620008eb828262000a5f565b919050565b6000604051905090565b600067ffffffffffffffff82111562000918576200091762000b41565b5b602082029050602081019050919050565b600067ffffffffffffffff82111562000947576200094662000b41565b5b602082029050602081019050919050565b600067ffffffffffffffff82111562000976576200097562000b41565b5b620009818262000b70565b9050602081019050919050565b600081519050919050565b600082825260208201905092915050565b600081905092915050565b6000620009c282620009c9565b9050919050565b600073ffffffffffffffffffffffffffffffffffffffff82169050919050565b6000819050919050565b60005b8381101562000a13578082015181840152602081019050620009f6565b8381111562000a23576000848401525b50505050565b6000600282049050600182168062000a4257607f821691505b6020821081141562000a595762000a5862000b12565b5b50919050565b62000a6a8262000b70565b810181811067ffffffffffffffff8211171562000a8c5762000a8b62000b41565b5b80604052505050565b600062000aa282620009e9565b91507fffffffffffffffffffffffffffffffffffffffffffffffffffffffffffffffff82141562000ad85762000ad762000ae3565b5b600182019050919050565b7f4e487b7100000000000000000000000000000000000000000000000000000000600052601160045260246000fd5b7f4e487b7100000000000000000000000000000000000000000000000000000000600052602260045260246000fd5b7f4e487b7100000000000000000000000000000000000000000000000000000000600052604160045260246000fd5b6000601f19601f8301169050919050565b62000b8c81620009b5565b811462000b9857600080fd5b50565b62000ba681620009e9565b811462000bb257600080fd5b50565b6124378062000bc56000396000f3fe608060405234801561001057600080fd5b506004361061009e5760003560e01c80638da5cb5b116100665780638da5cb5b146101105780638f32d59b1461012e578063cf4ae8fb1461014c578063df2e808f1461016a578063f2fde38b146101865761009e565b8063074fa741146100a3578063260a89af146100c25780636d80efca146100e0578063715018a6146100fc5780637714413714610106575b600080fd5b6100ab6101a2565b6040516100b9929190611c67565b60405180910390f35b6100ca6104b7565b6040516100d79190611d17565b60405180910390f35b6100fa60048036038101906100f591906118be565b610549565b005b610104610724565b005b61010e610829565b005b6101186109ac565b6040516101259190611c2a565b60405180910390f35b6101366109d5565b6040516101439190611c9e565b60405180910390f35b610154610a2c565b6040516101619190611c45565b60405180910390f35b610184600480360381019061017f91906117ea565b610b08565b005b6101a0600480360381019061019b91906117c1565b610e66565b005b6060806101ad6109d5565b6101ec576040517f08c379a00000000000000000000000000000000000000000000000000000000081526004016101e390611db9565b60405180910390fd5b600073ffffffffffffffffffffffffffffffffffffffff16600260009054906101000a900473ffffffffffffffffffffffffffffffffffffffff1673ffffffffffffffffffffffffffffffffffffffff16141561027e576040517f08c379a000000000000000000000000000000000000000000000000000000000815260040161027590611d79565b60405180910390fd5b610286610f52565b6005546004546102969190612007565b421115610382576060600a6001018181805480602002602001604051908101604052809291908181526020016000905b828210156103725783829060005260206000200180546102e590612141565b80601f016020809104026020016040519081016040528092919081815260200182805461031190612141565b801561035e5780601f106103335761010080835404028352916020019161035e565b820191906000526020600020905b81548152906001019060200180831161034157829003601f168201915b5050505050815260200190600101906102c6565b50505050915092509250506104b3565b600a600101600981805480602002602001604051908101604052809291908181526020016000905b828210156104565783829060005260206000200180546103c990612141565b80601f01602080910402602001604051908101604052809291908181526020018280546103f590612141565b80156104425780601f1061041757610100808354040283529160200191610442565b820191906000526020600020905b81548152906001019060200180831161042557829003601f168201915b5050505050815260200190600101906103aa565b505050509150808054806020026020016040519081016040528092919081815260200182805480156104a757602002820191906000526020600020905b815481526020019060010190808311610493575b50505050509050915091505b9091565b6060600180546104c690612141565b80601f01602080910402602001604051908101604052809291908181526020018280546104f290612141565b801561053f5780601f106105145761010080835404028352916020019161053f565b820191906000526020600020905b81548152906001019060200180831161052257829003601f168201915b5050505050905090565b6105d960068054806020026020016040519081016040528092919081815260200182805480156105ce57602002820191906000526020600020905b8160009054906101000a900473ffffffffffffffffffffffffffffffffffffffff1673ffffffffffffffffffffffffffffffffffffffff1681526020019060010190808311610584575b50505050503361115e565b610618576040517f08c379a000000000000000000000000000000000000000000000000000000000815260040161060f90611d99565b60405180910390fd5b6106566040518060400160405280601c81526020017f5375727665793a737461727420696e73657274206964656e7469747900000000815250610eb9565b600260009054906101000a900473ffffffffffffffffffffffffffffffffffffffff1673ffffffffffffffffffffffffffffffffffffffff16636d80efca826040518263ffffffff1660e01b81526004016106b19190611df4565b600060405180830381600087803b1580156106cb57600080fd5b505af11580156106df573d6000803e3d6000fd5b505050506107216040518060400160405280601f81526020017f5375727665793a636f6d706c65746520696e73657274206964656e7469747900815250610eb9565b50565b61072c6109d5565b61076b576040517f08c379a000000000000000000000000000000000000000000000000000000000815260040161076290611db9565b60405180910390fd5b600073ffffffffffffffffffffffffffffffffffffffff1660008054906101000a900473ffffffffffffffffffffffffffffffffffffffff1673ffffffffffffffffffffffffffffffffffffffff167f8be0079c531659141344cd1fd0a4f28419497f9722a3daafe3b4186f6b6457e060405160405180910390a360008060006101000a81548173ffffffffffffffffffffffffffffffffffffffff021916908373ffffffffffffffffffffffffffffffffffffffff160217905550565b6108316109d5565b610870576040517f08c379a000000000000000000000000000000000000000000000000000000000815260040161086790611db9565b60405180910390fd5b6000306040516020016108839190611c2a565b6040516020818303038152906040529050808051906020012060001c600360006101000a8154817cffffffffffffffffffffffffffffffffffffffffffffffffffffffffff02191690837cffffffffffffffffffffffffffffffffffffffffffffffffffffffffff160217905550600260009054906101000a900473ffffffffffffffffffffffffffffffffffffffff1673ffffffffffffffffffffffffffffffffffffffff1663539f38b2600360009054906101000a90047cffffffffffffffffffffffffffffffffffffffffffffffffffffffffff166040518263ffffffff1660e01b81526004016109779190611dd9565b600060405180830381600087803b15801561099157600080fd5b505af11580156109a5573d6000803e3d6000fd5b5050505050565b60008060009054906101000a900473ffffffffffffffffffffffffffffffffffffffff16905090565b60008060009054906101000a900473ffffffffffffffffffffffffffffffffffffffff1673ffffffffffffffffffffffffffffffffffffffff163373ffffffffffffffffffffffffffffffffffffffff1614905090565b6060600a600101805480602002602001604051908101604052809291908181526020016000905b82821015610aff578382906000526020600020018054610a7290612141565b80601f0160208091040260200160405190810160405280929190818152602001828054610a9e90612141565b8015610aeb5780601f10610ac057610100808354040283529160200191610aeb565b820191906000526020600020905b815481529060010190602001808311610ace57829003601f168201915b505050505081526020019060010190610a53565b50505050905090565b600073ffffffffffffffffffffffffffffffffffffffff16600260009054906101000a900473ffffffffffffffffffffffffffffffffffffffff1673ffffffffffffffffffffffffffffffffffffffff161415610b9a576040517f08c379a0000000000000000000000000000000000000000000000000000000008152600401610b9190611d79565b60405180910390fd5b610ba4868661120c565b15610be4576040517f08c379a0000000000000000000000000000000000000000000000000000000008152600401610bdb90611d39565b60405180910390fd5b600260009054906101000a900473ffffffffffffffffffffffffffffffffffffffff1673ffffffffffffffffffffffffffffffffffffffff16630e57596f85858585600360009054906101000a90047cffffffffffffffffffffffffffffffffffffffffffffffffffffffffff166040518663ffffffff1660e01b8152600401610c72959493929190611cb9565b600060405180830381600087803b158015610c8c57600080fd5b505af1158015610ca0573d6000803e3d6000fd5b5050505060086000815480929190610cb7906121a4565b919050555060005b600a60010180549050811015610e42576000600a6001018281548110610d0e577f4e487b7100000000000000000000000000000000000000000000000000000000600052603260045260246000fd5b906000526020600020018054610d2390612141565b80601f0160208091040260200160405190810160405280929190818152602001828054610d4f90612141565b8015610d9c5780601f10610d7157610100808354040283529160200191610d9c565b820191906000526020600020905b815481529060010190602001808311610d7f57829003601f168201915b505050505090506000878381518110610dde577f4e487b7100000000000000000000000000000000000000000000000000000000600052603260045260246000fd5b60200260200101519050600782604051610df89190611c13565b908152602001604051809103902081908060018154018082558091505060019003906000526020600020016000909190919091505550508080610e3a906121a4565b915050610cbf565b506001600c60006101000a81548160ff021916908315150217905550505050505050565b610e6e6109d5565b610ead576040517f08c379a0000000000000000000000000000000000000000000000000000000008152600401610ea490611db9565b60405180910390fd5b610eb6816112ef565b50565b610f4f81604051602401610ecd9190611d17565b6040516020818303038152906040527f41304fac000000000000000000000000000000000000000000000000000000007bffffffffffffffffffffffffffffffffffffffffffffffffffffffff19166020820180517bffffffffffffffffffffffffffffffffffffffffffffffffffffffff838183161783525050505061141c565b50565b600c60009054906101000a900460ff161580610f7c5750600554600454610f799190612007565b42115b15610f865761115c565b60096000610f9491906114b9565b60005b600a6001018054905081101561113f576000600a6001018281548110610fe6577f4e487b7100000000000000000000000000000000000000000000000000000000600052603260045260246000fd5b906000526020600020018054610ffb90612141565b80601f016020809104026020016040519081016040528092919081815260200182805461102790612141565b80156110745780601f1061104957610100808354040283529160200191611074565b820191906000526020600020905b81548152906001019060200180831161105757829003601f168201915b5050505050905060006008546110f56007846040516110939190611c13565b90815260200160405180910390208054806020026020016040519081016040528092919081815260200182805480156110eb57602002820191906000526020600020905b8154815260200190600101908083116110d7575b5050505050611445565b6110ff919061205d565b9050600981908060018154018082558091505060019003906000526020600020016000909190919091505550508080611137906121a4565b915050610f97565b506000600c60006101000a81548160ff0219169083151502179055505b565b600080600090505b8351811015611200578381815181106111a8577f4e487b7100000000000000000000000000000000000000000000000000000000600052603260045260246000fd5b602002602001015173ffffffffffffffffffffffffffffffffffffffff168373ffffffffffffffffffffffffffffffffffffffff1614156111ed576001915050611206565b80806111f8906121a4565b915050611166565b50600090505b92915050565b6000600a6001018054905083511461122757600090506112e9565b600a6001018054905082511461124057600090506112e9565b60005b83518110156112e3576000848281518110611287577f4e487b7100000000000000000000000000000000000000000000000000000000600052603260045260246000fd5b60200260200101519050600a600001816040516112a49190611c13565b908152602001604051809103902060009054906101000a900460ff166112cf576000925050506112e9565b5080806112db906121a4565b915050611243565b50600190505b92915050565b600073ffffffffffffffffffffffffffffffffffffffff168173ffffffffffffffffffffffffffffffffffffffff16141561135f576040517f08c379a000000000000000000000000000000000000000000000000000000000815260040161135690611d59565b60405180910390fd5b8073ffffffffffffffffffffffffffffffffffffffff1660008054906101000a900473ffffffffffffffffffffffffffffffffffffffff1673ffffffffffffffffffffffffffffffffffffffff167f8be0079c531659141344cd1fd0a4f28419497f9722a3daafe3b4186f6b6457e060405160405180910390a3806000806101000a81548173ffffffffffffffffffffffffffffffffffffffff021916908373ffffffffffffffffffffffffffffffffffffffff16021790555050565b60008151905060006a636f6e736f6c652e6c6f679050602083016000808483855afa5050505050565b6000805b82518110156114b35782818151811061148b577f4e487b7100000000000000000000000000000000000000000000000000000000600052603260045260246000fd5b60200260200101518261149e9190612007565b915080806114ab906121a4565b915050611449565b50919050565b50805460008255906000526020600020908101906114d791906114da565b50565b5b808211156114f35760008160009055506001016114db565b5090565b600061150a61150584611e34565b611e0f565b9050808382526020820190508285602086028201111561152957600080fd5b60005b8581101561157357813567ffffffffffffffff81111561154b57600080fd5b8086016115588982611782565b8552602085019450602084019350505060018101905061152c565b5050509392505050565b600061159061158b84611e60565b611e0f565b905080828560208602820111156115a657600080fd5b60005b858110156115d657816115bc88826117ac565b8452602084019350602083019250506001810190506115a9565b5050509392505050565b60006115f36115ee84611e86565b611e0f565b9050808382526020820190508285602086028201111561161257600080fd5b60005b85811015611642578161162888826117ac565b845260208401935060208301925050600181019050611615565b5050509392505050565b600061165f61165a84611eb2565b611e0f565b90508281526020810184848401111561167757600080fd5b6116828482856120ff565b509392505050565b600061169d61169884611ee3565b611e0f565b9050828152602081018484840111156116b557600080fd5b6116c08482856120ff565b509392505050565b6000813590506116d7816123d3565b92915050565b600082601f8301126116ee57600080fd5b81356116fe8482602086016114f7565b91505092915050565b600082601f83011261171857600080fd5b600861172584828561157d565b91505092915050565b600082601f83011261173f57600080fd5b813561174f8482602086016115e0565b91505092915050565b600082601f83011261176957600080fd5b813561177984826020860161164c565b91505092915050565b600082601f83011261179357600080fd5b81356117a384826020860161168a565b91505092915050565b6000813590506117bb816123ea565b92915050565b6000602082840312156117d357600080fd5b60006117e1848285016116c8565b91505092915050565b6000806000806000806101a0878903121561180457600080fd5b600087013567ffffffffffffffff81111561181e57600080fd5b61182a89828a016116dd565b965050602087013567ffffffffffffffff81111561184757600080fd5b61185389828a0161172e565b955050604087013567ffffffffffffffff81111561187057600080fd5b61187c89828a01611758565b945050606061188d89828a01611707565b93505061016061189f89828a016117ac565b9250506101806118b189828a016117ac565b9150509295509295509295565b6000602082840312156118d057600080fd5b60006118de848285016117ac565b91505092915050565b60006118f38383611a94565b905092915050565b60006119078383611bf5565b60208301905092915050565b61191c8161208e565b82525050565b600061192d82611f3e565b6119378185611f9c565b93508360208202850161194985611f14565b8060005b85811015611985578484038952815161196685826118e7565b945061197183611f75565b925060208a0199505060018101905061194d565b50829750879550505050505092915050565b6119a081611f49565b6119aa8184611fad565b92506119b582611f24565b8060005b838110156119e65781516119cd87826118fb565b96506119d883611f82565b9250506001810190506119b9565b505050505050565b60006119f982611f54565b611a038185611fb8565b9350611a0e83611f2e565b8060005b83811015611a3f578151611a2688826118fb565b9750611a3183611f8f565b925050600181019050611a12565b5085935050505092915050565b611a55816120a0565b82525050565b6000611a6682611f5f565b611a708185611fc9565b9350611a8081856020860161210e565b611a89816122a9565b840191505092915050565b6000611a9f82611f6a565b611aa98185611fda565b9350611ab981856020860161210e565b611ac2816122a9565b840191505092915050565b6000611ad882611f6a565b611ae28185611feb565b9350611af281856020860161210e565b611afb816122a9565b840191505092915050565b6000611b1182611f6a565b611b1b8185611ffc565b9350611b2b81856020860161210e565b80840191505092915050565b6000611b44601783611feb565b9150611b4f826122ba565b602082019050919050565b6000611b67602683611feb565b9150611b72826122e3565b604082019050919050565b6000611b8a601383611feb565b9150611b9582612332565b602082019050919050565b6000611bad602583611feb565b9150611bb88261235b565b604082019050919050565b6000611bd0602083611feb565b9150611bdb826123aa565b602082019050919050565b611bef816120cc565b82525050565b611bfe816120f5565b82525050565b611c0d816120f5565b82525050565b6000611c1f8284611b06565b915081905092915050565b6000602082019050611c3f6000830184611913565b92915050565b60006020820190508181036000830152611c5f8184611922565b905092915050565b60006040820190508181036000830152611c818185611922565b90508181036020830152611c9581846119ee565b90509392505050565b6000602082019050611cb36000830184611a4c565b92915050565b6000610180820190508181036000830152611cd48188611a5b565b9050611ce36020830187611997565b611cf1610120830186611c04565b611cff610140830185611c04565b611d0d610160830184611be6565b9695505050505050565b60006020820190508181036000830152611d318184611acd565b905092915050565b60006020820190508181036000830152611d5281611b37565b9050919050565b60006020820190508181036000830152611d7281611b5a565b9050919050565b60006020820190508181036000830152611d9281611b7d565b9050919050565b60006020820190508181036000830152611db281611ba0565b9050919050565b60006020820190508181036000830152611dd281611bc3565b9050919050565b6000602082019050611dee6000830184611be6565b92915050565b6000602082019050611e096000830184611c04565b92915050565b6000611e19611e2a565b9050611e258282612173565b919050565b6000604051905090565b600067ffffffffffffffff821115611e4f57611e4e61227a565b5b602082029050602081019050919050565b600067ffffffffffffffff821115611e7b57611e7a61227a565b5b602082029050919050565b600067ffffffffffffffff821115611ea157611ea061227a565b5b602082029050602081019050919050565b600067ffffffffffffffff821115611ecd57611ecc61227a565b5b611ed6826122a9565b9050602081019050919050565b600067ffffffffffffffff821115611efe57611efd61227a565b5b611f07826122a9565b9050602081019050919050565b6000819050602082019050919050565b6000819050919050565b6000819050602082019050919050565b600081519050919050565b600060089050919050565b600081519050919050565b600081519050919050565b600081519050919050565b6000602082019050919050565b6000602082019050919050565b6000602082019050919050565b600082825260208201905092915050565b600081905092915050565b600082825260208201905092915050565b600082825260208201905092915050565b600082825260208201905092915050565b600082825260208201905092915050565b600081905092915050565b6000612012826120f5565b915061201d836120f5565b9250827fffffffffffffffffffffffffffffffffffffffffffffffffffffffffffffffff03821115612052576120516121ed565b5b828201905092915050565b6000612068826120f5565b9150612073836120f5565b9250826120835761208261221c565b5b828204905092915050565b6000612099826120ac565b9050919050565b60008115159050919050565b600073ffffffffffffffffffffffffffffffffffffffff82169050919050565b60007cffffffffffffffffffffffffffffffffffffffffffffffffffffffffff82169050919050565b6000819050919050565b82818337600083830152505050565b60005b8381101561212c578082015181840152602081019050612111565b8381111561213b576000848401525b50505050565b6000600282049050600182168061215957607f821691505b6020821081141561216d5761216c61224b565b5b50919050565b61217c826122a9565b810181811067ffffffffffffffff8211171561219b5761219a61227a565b5b80604052505050565b60006121af826120f5565b91507fffffffffffffffffffffffffffffffffffffffffffffffffffffffffffffffff8214156121e2576121e16121ed565b5b600182019050919050565b7f4e487b7100000000000000000000000000000000000000000000000000000000600052601160045260246000fd5b7f4e487b7100000000000000000000000000000000000000000000000000000000600052601260045260246000fd5b7f4e487b7100000000000000000000000000000000000000000000000000000000600052602260045260246000fd5b7f4e487b7100000000000000000000000000000000000000000000000000000000600052604160045260246000fd5b6000601f19601f8301169050919050565b7f5375626d697373696f6e20697320696e636f7272656374000000000000000000600082015250565b7f4f776e61626c653a206e6577206f776e657220697320746865207a65726f206160008201527f6464726573730000000000000000000000000000000000000000000000000000602082015250565b7f6d75737420686176652073656d6170686f726500000000000000000000000000600082015250565b7f4f6e6c79207061727469636970616e74732063616e20696e736572742069646560008201527f6e74697479000000000000000000000000000000000000000000000000000000602082015250565b7f4f776e61626c653a2063616c6c6572206973206e6f7420746865206f776e6572600082015250565b6123dc8161208e565b81146123e757600080fd5b50565b6123f3816120f5565b81146123fe57600080fd5b5056fea2646970667358221220553dd033516a2345b76eca9fce7f448ea363e29d90311e49669960d045ad8d6164736f6c63430008040033456e746572696e6720636f6e7374727563746f7220666f72207375727665792e2e2e",
  "linkReferences": {},
  "deployedLinkReferences": {}
}