{
  "_format": "hh-sol-artifact-1",
  "contractName": "Survey",
  "sourceName": "contracts/Survey.sol",
  "abi": [
    {
      "inputs": [
        {
          "internalType": "string[]",
          "name": "_surveyQuestions",
          "type": "string[]"
        },
        {
          "internalType": "address[]",
          "name": "_participants",
          "type": "address[]"
        },
        {
          "internalType": "string",
          "name": "_surveyName",
          "type": "string"
        },
        {
          "internalType": "address",
          "name": "_semaphoreAddress",
          "type": "address"
        }
      ],
      "stateMutability": "nonpayable",
      "type": "constructor"
    },
    {
      "anonymous": false,
      "inputs": [
        {
          "indexed": true,
          "internalType": "address",
          "name": "previousOwner",
          "type": "address"
        },
        {
          "indexed": true,
          "internalType": "address",
          "name": "newOwner",
          "type": "address"
        }
      ],
      "name": "OwnershipTransferred",
      "type": "event"
    },
    {
      "inputs": [],
      "name": "addExternalNullifier",
      "outputs": [],
      "stateMutability": "nonpayable",
      "type": "function"
    },
    {
      "inputs": [],
      "name": "calcAverageScorePerQuestion",
      "outputs": [],
      "stateMutability": "nonpayable",
      "type": "function"
    },
    {
      "inputs": [],
      "name": "checkInsertIdentityStatus",
      "outputs": [
        {
          "internalType": "bool",
          "name": "",
          "type": "bool"
        }
      ],
      "stateMutability": "view",
      "type": "function"
    },
    {
      "inputs": [],
      "name": "getExternalNullifier",
      "outputs": [
        {
          "internalType": "uint232",
          "name": "",
          "type": "uint232"
        }
      ],
      "stateMutability": "view",
      "type": "function"
    },
    {
      "inputs": [],
      "name": "getIdentityCommitments",
      "outputs": [
        {
          "internalType": "uint256[]",
          "name": "",
          "type": "uint256[]"
        }
      ],
      "stateMutability": "view",
      "type": "function"
    },
    {
      "inputs": [],
      "name": "getSurveyName",
      "outputs": [
        {
          "internalType": "string",
          "name": "",
          "type": "string"
        }
      ],
      "stateMutability": "view",
      "type": "function"
    },
    {
      "inputs": [],
      "name": "getSurveyQuestions",
      "outputs": [
        {
          "internalType": "string[]",
          "name": "",
          "type": "string[]"
        }
      ],
      "stateMutability": "view",
      "type": "function"
    },
    {
      "inputs": [],
      "name": "getSurveyScores",
      "outputs": [
        {
          "internalType": "string[]",
          "name": "_surveyQuestions",
          "type": "string[]"
        },
        {
          "internalType": "uint256[]",
          "name": "_surveyScores",
          "type": "uint256[]"
        }
      ],
      "stateMutability": "view",
      "type": "function"
    },
    {
      "inputs": [
        {
          "internalType": "uint256",
          "name": "_identityCommitment",
          "type": "uint256"
        }
      ],
      "name": "insertIdentity",
      "outputs": [],
      "stateMutability": "nonpayable",
      "type": "function"
    },
    {
      "inputs": [],
      "name": "isOwner",
      "outputs": [
        {
          "internalType": "bool",
          "name": "",
          "type": "bool"
        }
      ],
      "stateMutability": "view",
      "type": "function"
    },
    {
      "inputs": [],
      "name": "owner",
      "outputs": [
        {
          "internalType": "address",
          "name": "",
          "type": "address"
        }
      ],
      "stateMutability": "view",
      "type": "function"
    },
    {
      "inputs": [],
      "name": "renounceOwnership",
      "outputs": [],
      "stateMutability": "nonpayable",
      "type": "function"
    },
    {
      "inputs": [
        {
          "internalType": "address",
          "name": "newOwner",
          "type": "address"
        }
      ],
      "name": "transferOwnership",
      "outputs": [],
      "stateMutability": "nonpayable",
      "type": "function"
    },
    {
      "inputs": [
        {
          "internalType": "string[]",
          "name": "questions",
          "type": "string[]"
        },
        {
          "internalType": "uint256[]",
          "name": "scores",
          "type": "uint256[]"
        },
        {
          "internalType": "bytes",
          "name": "surveyResponseBytes",
          "type": "bytes"
        },
        {
          "internalType": "uint256[8]",
          "name": "_proof",
          "type": "uint256[8]"
        },
        {
          "internalType": "uint256",
          "name": "_root",
          "type": "uint256"
        },
        {
          "internalType": "uint256",
          "name": "_nullifiersHash",
          "type": "uint256"
        }
      ],
      "name": "updateSurveyResult",
      "outputs": [],
      "stateMutability": "nonpayable",
      "type": "function"
    }
  ],
  "bytecode": "0x60806040523480156200001157600080fd5b506040516200359738038062003597833981810160405281019062000037919062000744565b336000806101000a81548173ffffffffffffffffffffffffffffffffffffffff021916908373ffffffffffffffffffffffffffffffffffffffff16021790555060008054906101000a900473ffffffffffffffffffffffffffffffffffffffff1673ffffffffffffffffffffffffffffffffffffffff16600073ffffffffffffffffffffffffffffffffffffffff167f8be0079c531659141344cd1fd0a4f28419497f9722a3daafe3b4186f6b6457e060405160405180910390a36200012160405180606001604052806022815260200162003575602291396200027c60201b620013c81760201c565b83600860010190805190602001906200013c92919062000348565b5060005b8451811015620001e357600085828151811062000186577f4e487b7100000000000000000000000000000000000000000000000000000000600052603260045260246000fd5b602002602001015190506001600860000182604051620001a7919062000873565b908152602001604051809103902060006101000a81548160ff021916908315150217905550508080620001da9062000a74565b91505062000140565b5080600260006101000a81548173ffffffffffffffffffffffffffffffffffffffff021916908373ffffffffffffffffffffffffffffffffffffffff16021790555082600490805190602001906200023d929190620003af565b508160019080519060200190620002569291906200043e565b506000600a60006101000a81548160ff0219169083151502179055505050505062000b7a565b6200031c816040516024016200029391906200088c565b6040516020818303038152906040527f41304fac000000000000000000000000000000000000000000000000000000007bffffffffffffffffffffffffffffffffffffffffffffffffffffffff19166020820180517bffffffffffffffffffffffffffffffffffffffffffffffffffffffff83818316178352505050506200031f60201b60201c565b50565b60008151905060006a636f6e736f6c652e6c6f679050602083016000808483855afa5050505050565b8280548282559060005260206000209081019282156200039c579160200282015b828111156200039b5782518290805190602001906200038a9291906200043e565b509160200191906001019062000369565b5b509050620003ab9190620004cf565b5090565b8280548282559060005260206000209081019282156200042b579160200282015b828111156200042a5782518260006101000a81548173ffffffffffffffffffffffffffffffffffffffff021916908373ffffffffffffffffffffffffffffffffffffffff16021790555091602001919060010190620003d0565b5b5090506200043a9190620004f7565b5090565b8280546200044c9062000a08565b90600052602060002090601f016020900481019282620004705760008555620004bc565b82601f106200048b57805160ff1916838001178555620004bc565b82800160010185558215620004bc579182015b82811115620004bb5782518255916020019190600101906200049e565b5b509050620004cb9190620004f7565b5090565b5b80821115620004f35760008181620004e9919062000516565b50600101620004d0565b5090565b5b8082111562000512576000816000905550600101620004f8565b5090565b508054620005249062000a08565b6000825580601f1062000538575062000559565b601f016020900490600052602060002090810190620005589190620004f7565b5b50565b6000620005736200056d84620008d9565b620008b0565b905080838252602082019050828560208602820111156200059357600080fd5b60005b85811015620005c75781620005ac8882620006a6565b84526020840193506020830192505060018101905062000596565b5050509392505050565b6000620005e8620005e28462000908565b620008b0565b905080838252602082019050828560208602820111156200060857600080fd5b60005b858110156200065757815167ffffffffffffffff8111156200062c57600080fd5b8086016200063b898262000717565b855260208501945060208401935050506001810190506200060b565b5050509392505050565b600062000678620006728462000937565b620008b0565b9050828152602081018484840111156200069157600080fd5b6200069e848285620009d2565b509392505050565b600081519050620006b78162000b60565b92915050565b600082601f830112620006cf57600080fd5b8151620006e18482602086016200055c565b91505092915050565b600082601f830112620006fc57600080fd5b81516200070e848260208601620005d1565b91505092915050565b600082601f8301126200072957600080fd5b81516200073b84826020860162000661565b91505092915050565b600080600080608085870312156200075b57600080fd5b600085015167ffffffffffffffff8111156200077657600080fd5b6200078487828801620006ea565b945050602085015167ffffffffffffffff811115620007a257600080fd5b620007b087828801620006bd565b935050604085015167ffffffffffffffff811115620007ce57600080fd5b620007dc8782880162000717565b9250506060620007ef87828801620006a6565b91505092959194509250565b600062000808826200096d565b62000814818562000978565b935062000826818560208601620009d2565b620008318162000b4f565b840191505092915050565b600062000849826200096d565b62000855818562000989565b935062000867818560208601620009d2565b80840191505092915050565b60006200088182846200083c565b915081905092915050565b60006020820190508181036000830152620008a88184620007fb565b905092915050565b6000620008bc620008cf565b9050620008ca828262000a3e565b919050565b6000604051905090565b600067ffffffffffffffff821115620008f757620008f662000b20565b5b602082029050602081019050919050565b600067ffffffffffffffff82111562000926576200092562000b20565b5b602082029050602081019050919050565b600067ffffffffffffffff82111562000955576200095462000b20565b5b620009608262000b4f565b9050602081019050919050565b600081519050919050565b600082825260208201905092915050565b600081905092915050565b6000620009a182620009a8565b9050919050565b600073ffffffffffffffffffffffffffffffffffffffff82169050919050565b6000819050919050565b60005b83811015620009f2578082015181840152602081019050620009d5565b8381111562000a02576000848401525b50505050565b6000600282049050600182168062000a2157607f821691505b6020821081141562000a385762000a3762000af1565b5b50919050565b62000a498262000b4f565b810181811067ffffffffffffffff8211171562000a6b5762000a6a62000b20565b5b80604052505050565b600062000a8182620009c8565b91507fffffffffffffffffffffffffffffffffffffffffffffffffffffffffffffffff82141562000ab75762000ab662000ac2565b5b600182019050919050565b7f4e487b7100000000000000000000000000000000000000000000000000000000600052601160045260246000fd5b7f4e487b7100000000000000000000000000000000000000000000000000000000600052602260045260246000fd5b7f4e487b7100000000000000000000000000000000000000000000000000000000600052604160045260246000fd5b6000601f19601f8301169050919050565b62000b6b8162000994565b811462000b7757600080fd5b50565b6129eb8062000b8a6000396000f3fe608060405234801561001057600080fd5b50600436106100ea5760003560e01c80638da5cb5b1161008c578063df2e808f11610066578063df2e808f146101de578063e1984df6146101fa578063e256640114610218578063f2fde38b14610236576100ea565b80638da5cb5b146101845780638f32d59b146101a2578063cf4ae8fb146101c0576100ea565b80636804fd2a116100c85780636804fd2a1461014a5780636d80efca14610154578063715018a614610170578063771441371461017a576100ea565b8063074fa741146100ef578063260a89af1461010e578063405667901461012c575b600080fd5b6100f7610252565b6040516101059291906120e3565b60405180910390f35b610116610462565b60405161012391906121b5565b60405180910390f35b6101346104f4565b604051610141919061211a565b60405180910390f35b61015261054c565b005b61016e60048036038101906101699190611d17565b61079c565b005b610178610ad5565b005b610182610bda565b005b61018c610dc9565b60405161019991906120a6565b60405180910390f35b6101aa610df2565b6040516101b7919061213c565b60405180910390f35b6101c8610e49565b6040516101d591906120c1565b60405180910390f35b6101f860048036038101906101f39190611c43565b610f25565b005b6102026112ee565b60405161020f91906122c7565b60405180910390f35b610220611321565b60405161022d919061213c565b60405180910390f35b610250600480360381019061024b9190611c1a565b611375565b005b60608061025d610df2565b61029c576040517f08c379a0000000000000000000000000000000000000000000000000000000008152600401610293906122a7565b60405180910390fd5b600073ffffffffffffffffffffffffffffffffffffffff16600260009054906101000a900473ffffffffffffffffffffffffffffffffffffffff1673ffffffffffffffffffffffffffffffffffffffff16141561032e576040517f08c379a000000000000000000000000000000000000000000000000000000000815260040161032590612247565b60405180910390fd5b6008600101600781805480602002602001604051908101604052809291908181526020016000905b828210156104025783829060005260206000200180546103759061262f565b80601f01602080910402602001604051908101604052809291908181526020018280546103a19061262f565b80156103ee5780601f106103c3576101008083540402835291602001916103ee565b820191906000526020600020905b8154815290600101906020018083116103d157829003601f168201915b505050505081526020019060010190610356565b5050505091508080548060200260200160405190810160405280929190818152602001828054801561045357602002820191906000526020600020905b81548152602001906001019080831161043f575b50505050509050915091509091565b6060600180546104719061262f565b80601f016020809104026020016040519081016040528092919081815260200182805461049d9061262f565b80156104ea5780601f106104bf576101008083540402835291602001916104ea565b820191906000526020600020905b8154815290600101906020018083116104cd57829003601f168201915b5050505050905090565b6060600b80548060200260200160405190810160405280929190818152602001828054801561054257602002820191906000526020600020905b81548152602001906001019080831161052e575b5050505050905090565b600a60009054906101000a900460ff1661058657610581604051806060016040528060228152602001612994602291396113c8565b61079a565b600760006105949190611912565b60005b60086001018054905081101561073f576000600860010182815481106105e6577f4e487b7100000000000000000000000000000000000000000000000000000000600052603260045260246000fd5b9060005260206000200180546105fb9061262f565b80601f01602080910402602001604051908101604052809291908181526020018280546106279061262f565b80156106745780601f1061064957610100808354040283529160200191610674565b820191906000526020600020905b81548152906001019060200180831161065757829003601f168201915b5050505050905060006006546106f5600584604051610693919061208f565b90815260200160405180910390208054806020026020016040519081016040528092919081815260200182805480156106eb57602002820191906000526020600020905b8154815260200190600101908083116106d7575b5050505050611461565b6106ff919061254b565b905060078190806001815401808255809150506001900390600052602060002001600090919091909150555050808061073790612692565b915050610597565b5061077e6040518060400160405280601e81526020017f436f6d706c657465207570646174696e67207375727665792073636f726500008152506113c8565b6000600a60006101000a81548160ff0219169083151502179055505b565b61082c600480548060200260200160405190810160405280929190818152602001828054801561082157602002820191906000526020600020905b8160009054906101000a900473ffffffffffffffffffffffffffffffffffffffff1673ffffffffffffffffffffffffffffffffffffffff16815260200190600101908083116107d7575b5050505050336114d5565b61086b576040517f08c379a000000000000000000000000000000000000000000000000000000000815260040161086290612287565b60405180910390fd5b60001515600c60003373ffffffffffffffffffffffffffffffffffffffff1673ffffffffffffffffffffffffffffffffffffffff16815260200190815260200160002060009054906101000a900460ff161515146108fe576040517f08c379a00000000000000000000000000000000000000000000000000000000081526004016108f590612267565b60405180910390fd5b61093c6040518060400160405280601c81526020017f5375727665793a737461727420696e73657274206964656e74697479000000008152506113c8565b600260009054906101000a900473ffffffffffffffffffffffffffffffffffffffff1673ffffffffffffffffffffffffffffffffffffffff16636d80efca826040518263ffffffff1660e01b815260040161099791906122e2565b600060405180830381600087803b1580156109b157600080fd5b505af11580156109c5573d6000803e3d6000fd5b50505050600b8190806001815401808255809150506001900390600052602060002001600090919091909150556001600c60003373ffffffffffffffffffffffffffffffffffffffff1673ffffffffffffffffffffffffffffffffffffffff16815260200190815260200160002060006101000a81548160ff0219169083151502179055506000600b805490509050610a936040518060400160405280601f81526020017f4e756d626572206f6620636f6d6d69746d656e747320696e207375727665790081525082611583565b610ad16040518060400160405280601f81526020017f5375727665793a636f6d706c65746520696e73657274206964656e74697479008152506113c8565b5050565b610add610df2565b610b1c576040517f08c379a0000000000000000000000000000000000000000000000000000000008152600401610b13906122a7565b60405180910390fd5b600073ffffffffffffffffffffffffffffffffffffffff1660008054906101000a900473ffffffffffffffffffffffffffffffffffffffff1673ffffffffffffffffffffffffffffffffffffffff167f8be0079c531659141344cd1fd0a4f28419497f9722a3daafe3b4186f6b6457e060405160405180910390a360008060006101000a81548173ffffffffffffffffffffffffffffffffffffffff021916908373ffffffffffffffffffffffffffffffffffffffff160217905550565b610be2610df2565b610c21576040517f08c379a0000000000000000000000000000000000000000000000000000000008152600401610c18906122a7565b60405180910390fd5b600030604051602001610c3491906120a6565b6040516020818303038152906040529050808051906020012060001c600360006101000a8154817cffffffffffffffffffffffffffffffffffffffffffffffffffffffffff02191690837cffffffffffffffffffffffffffffffffffffffffffffffffffffffffff160217905550600260009054906101000a900473ffffffffffffffffffffffffffffffffffffffff1673ffffffffffffffffffffffffffffffffffffffff1663539f38b2600360009054906101000a90047cffffffffffffffffffffffffffffffffffffffffffffffffffffffffff166040518263ffffffff1660e01b8152600401610d2891906122c7565b600060405180830381600087803b158015610d4257600080fd5b505af1158015610d56573d6000803e3d6000fd5b50505050610dc660405180606001604052806022815260200161297260229139600360009054906101000a90047cffffffffffffffffffffffffffffffffffffffffffffffffffffffffff167cffffffffffffffffffffffffffffffffffffffffffffffffffffffffff16611583565b50565b60008060009054906101000a900473ffffffffffffffffffffffffffffffffffffffff16905090565b60008060009054906101000a900473ffffffffffffffffffffffffffffffffffffffff1673ffffffffffffffffffffffffffffffffffffffff163373ffffffffffffffffffffffffffffffffffffffff1614905090565b60606008600101805480602002602001604051908101604052809291908181526020016000905b82821015610f1c578382906000526020600020018054610e8f9061262f565b80601f0160208091040260200160405190810160405280929190818152602001828054610ebb9061262f565b8015610f085780601f10610edd57610100808354040283529160200191610f08565b820191906000526020600020905b815481529060010190602001808311610eeb57829003601f168201915b505050505081526020019060010190610e70565b50505050905090565b600073ffffffffffffffffffffffffffffffffffffffff16600260009054906101000a900473ffffffffffffffffffffffffffffffffffffffff1673ffffffffffffffffffffffffffffffffffffffff161415610fb7576040517f08c379a0000000000000000000000000000000000000000000000000000000008152600401610fae90612247565b60405180910390fd5b610fc1868661161f565b611000576040517f08c379a0000000000000000000000000000000000000000000000000000000008152600401610ff790612207565b60405180910390fd5b61106c60405180606001604052806033815260200161293f60339139600360009054906101000a90047cffffffffffffffffffffffffffffffffffffffffffffffffffffffffff167cffffffffffffffffffffffffffffffffffffffffffffffffffffffffff16611583565b600260009054906101000a900473ffffffffffffffffffffffffffffffffffffffff1673ffffffffffffffffffffffffffffffffffffffff16630e57596f85858585600360009054906101000a90047cffffffffffffffffffffffffffffffffffffffffffffffffffffffffff166040518663ffffffff1660e01b81526004016110fa959493929190612157565b600060405180830381600087803b15801561111457600080fd5b505af1158015611128573d6000803e3d6000fd5b505050506006600081548092919061113f90612692565b919050555060005b6008600101805490508110156112ca57600060086001018281548110611196577f4e487b7100000000000000000000000000000000000000000000000000000000600052603260045260246000fd5b9060005260206000200180546111ab9061262f565b80601f01602080910402602001604051908101604052809291908181526020018280546111d79061262f565b80156112245780601f106111f957610100808354040283529160200191611224565b820191906000526020600020905b81548152906001019060200180831161120757829003601f168201915b505050505090506000878381518110611266577f4e487b7100000000000000000000000000000000000000000000000000000000600052603260045260246000fd5b60200260200101519050600582604051611280919061208f565b9081526020016040518091039020819080600181540180825580915050600190039060005260206000200160009091909190915055505080806112c290612692565b915050611147565b506001600a60006101000a81548160ff021916908315150217905550505050505050565b6000600360009054906101000a90047cffffffffffffffffffffffffffffffffffffffffffffffffffffffffff16905090565b6000600c60003373ffffffffffffffffffffffffffffffffffffffff1673ffffffffffffffffffffffffffffffffffffffff16815260200190815260200160002060009054906101000a900460ff16905090565b61137d610df2565b6113bc576040517f08c379a00000000000000000000000000000000000000000000000000000000081526004016113b3906122a7565b60405180910390fd5b6113c5816117bc565b50565b61145e816040516024016113dc91906121b5565b6040516020818303038152906040527f41304fac000000000000000000000000000000000000000000000000000000007bffffffffffffffffffffffffffffffffffffffffffffffffffffffff19166020820180517bffffffffffffffffffffffffffffffffffffffffffffffffffffffff83818316178352505050506118e9565b50565b6000805b82518110156114cf578281815181106114a7577f4e487b7100000000000000000000000000000000000000000000000000000000600052603260045260246000fd5b6020026020010151826114ba91906124f5565b915080806114c790612692565b915050611465565b50919050565b600080600090505b83518110156115775783818151811061151f577f4e487b7100000000000000000000000000000000000000000000000000000000600052603260045260246000fd5b602002602001015173ffffffffffffffffffffffffffffffffffffffff168373ffffffffffffffffffffffffffffffffffffffff16141561156457600191505061157d565b808061156f90612692565b9150506114dd565b50600090505b92915050565b61161b82826040516024016115999291906121d7565b6040516020818303038152906040527f9710a9d0000000000000000000000000000000000000000000000000000000007bffffffffffffffffffffffffffffffffffffffffffffffffffffffff19166020820180517bffffffffffffffffffffffffffffffffffffffffffffffffffffffff83818316178352505050506118e9565b5050565b60006008600101805490508351146116785761166f6040518060400160405280601981526020017f496e207468652066697273742069662073746174656d656e74000000000000008152506113c8565b600090506117b6565b6008600101805490508251146116cf576116c66040518060400160405280601a81526020017f496e20746865207365636f6e642069662073746174656d656e740000000000008152506113c8565b600090506117b6565b60005b83518110156117b0576000848281518110611716577f4e487b7100000000000000000000000000000000000000000000000000000000600052603260045260246000fd5b60200260200101519050600860000181604051611733919061208f565b908152602001604051809103902060009054906101000a900460ff1661179c576117916040518060400160405280601981526020017f496e207468652074686972642069662073746174656d656e74000000000000008152506113c8565b6000925050506117b6565b5080806117a890612692565b9150506116d2565b50600190505b92915050565b600073ffffffffffffffffffffffffffffffffffffffff168173ffffffffffffffffffffffffffffffffffffffff16141561182c576040517f08c379a000000000000000000000000000000000000000000000000000000000815260040161182390612227565b60405180910390fd5b8073ffffffffffffffffffffffffffffffffffffffff1660008054906101000a900473ffffffffffffffffffffffffffffffffffffffff1673ffffffffffffffffffffffffffffffffffffffff167f8be0079c531659141344cd1fd0a4f28419497f9722a3daafe3b4186f6b6457e060405160405180910390a3806000806101000a81548173ffffffffffffffffffffffffffffffffffffffff021916908373ffffffffffffffffffffffffffffffffffffffff16021790555050565b60008151905060006a636f6e736f6c652e6c6f679050602083016000808483855afa5050505050565b50805460008255906000526020600020908101906119309190611933565b50565b5b8082111561194c576000816000905550600101611934565b5090565b600061196361195e84612322565b6122fd565b9050808382526020820190508285602086028201111561198257600080fd5b60005b858110156119cc57813567ffffffffffffffff8111156119a457600080fd5b8086016119b18982611bdb565b85526020850194506020840193505050600181019050611985565b5050509392505050565b60006119e96119e48461234e565b6122fd565b905080828560208602820111156119ff57600080fd5b60005b85811015611a2f5781611a158882611c05565b845260208401935060208301925050600181019050611a02565b5050509392505050565b6000611a4c611a4784612374565b6122fd565b90508083825260208201905082856020860282011115611a6b57600080fd5b60005b85811015611a9b5781611a818882611c05565b845260208401935060208301925050600181019050611a6e565b5050509392505050565b6000611ab8611ab3846123a0565b6122fd565b905082815260208101848484011115611ad057600080fd5b611adb8482856125ed565b509392505050565b6000611af6611af1846123d1565b6122fd565b905082815260208101848484011115611b0e57600080fd5b611b198482856125ed565b509392505050565b600081359050611b3081612910565b92915050565b600082601f830112611b4757600080fd5b8135611b57848260208601611950565b91505092915050565b600082601f830112611b7157600080fd5b6008611b7e8482856119d6565b91505092915050565b600082601f830112611b9857600080fd5b8135611ba8848260208601611a39565b91505092915050565b600082601f830112611bc257600080fd5b8135611bd2848260208601611aa5565b91505092915050565b600082601f830112611bec57600080fd5b8135611bfc848260208601611ae3565b91505092915050565b600081359050611c1481612927565b92915050565b600060208284031215611c2c57600080fd5b6000611c3a84828501611b21565b91505092915050565b6000806000806000806101a08789031215611c5d57600080fd5b600087013567ffffffffffffffff811115611c7757600080fd5b611c8389828a01611b36565b965050602087013567ffffffffffffffff811115611ca057600080fd5b611cac89828a01611b87565b955050604087013567ffffffffffffffff811115611cc957600080fd5b611cd589828a01611bb1565b9450506060611ce689828a01611b60565b935050610160611cf889828a01611c05565b925050610180611d0a89828a01611c05565b9150509295509295509295565b600060208284031215611d2957600080fd5b6000611d3784828501611c05565b91505092915050565b6000611d4c8383611eed565b905092915050565b6000611d608383612071565b60208301905092915050565b611d758161257c565b82525050565b6000611d868261242c565b611d90818561248a565b935083602082028501611da285612402565b8060005b85811015611dde5784840389528151611dbf8582611d40565b9450611dca83612463565b925060208a01995050600181019050611da6565b50829750879550505050505092915050565b611df981612437565b611e03818461249b565b9250611e0e82612412565b8060005b83811015611e3f578151611e268782611d54565b9650611e3183612470565b925050600181019050611e12565b505050505050565b6000611e5282612442565b611e5c81856124a6565b9350611e678361241c565b8060005b83811015611e98578151611e7f8882611d54565b9750611e8a8361247d565b925050600181019050611e6b565b5085935050505092915050565b611eae8161258e565b82525050565b6000611ebf8261244d565b611ec981856124b7565b9350611ed98185602086016125fc565b611ee281612797565b840191505092915050565b6000611ef882612458565b611f0281856124c8565b9350611f128185602086016125fc565b611f1b81612797565b840191505092915050565b6000611f3182612458565b611f3b81856124d9565b9350611f4b8185602086016125fc565b611f5481612797565b840191505092915050565b6000611f6a82612458565b611f7481856124ea565b9350611f848185602086016125fc565b80840191505092915050565b6000611f9d6017836124d9565b9150611fa8826127a8565b602082019050919050565b6000611fc06026836124d9565b9150611fcb826127d1565b604082019050919050565b6000611fe36013836124d9565b9150611fee82612820565b602082019050919050565b60006120066029836124d9565b915061201182612849565b604082019050919050565b60006120296025836124d9565b915061203482612898565b604082019050919050565b600061204c6020836124d9565b9150612057826128e7565b602082019050919050565b61206b816125ba565b82525050565b61207a816125e3565b82525050565b612089816125e3565b82525050565b600061209b8284611f5f565b915081905092915050565b60006020820190506120bb6000830184611d6c565b92915050565b600060208201905081810360008301526120db8184611d7b565b905092915050565b600060408201905081810360008301526120fd8185611d7b565b905081810360208301526121118184611e47565b90509392505050565b600060208201905081810360008301526121348184611e47565b905092915050565b60006020820190506121516000830184611ea5565b92915050565b60006101808201905081810360008301526121728188611eb4565b90506121816020830187611df0565b61218f610120830186612080565b61219d610140830185612080565b6121ab610160830184612062565b9695505050505050565b600060208201905081810360008301526121cf8184611f26565b905092915050565b600060408201905081810360008301526121f18185611f26565b90506122006020830184612080565b9392505050565b6000602082019050818103600083015261222081611f90565b9050919050565b6000602082019050818103600083015261224081611fb3565b9050919050565b6000602082019050818103600083015261226081611fd6565b9050919050565b6000602082019050818103600083015261228081611ff9565b9050919050565b600060208201905081810360008301526122a08161201c565b9050919050565b600060208201905081810360008301526122c08161203f565b9050919050565b60006020820190506122dc6000830184612062565b92915050565b60006020820190506122f76000830184612080565b92915050565b6000612307612318565b90506123138282612661565b919050565b6000604051905090565b600067ffffffffffffffff82111561233d5761233c612768565b5b602082029050602081019050919050565b600067ffffffffffffffff82111561236957612368612768565b5b602082029050919050565b600067ffffffffffffffff82111561238f5761238e612768565b5b602082029050602081019050919050565b600067ffffffffffffffff8211156123bb576123ba612768565b5b6123c482612797565b9050602081019050919050565b600067ffffffffffffffff8211156123ec576123eb612768565b5b6123f582612797565b9050602081019050919050565b6000819050602082019050919050565b6000819050919050565b6000819050602082019050919050565b600081519050919050565b600060089050919050565b600081519050919050565b600081519050919050565b600081519050919050565b6000602082019050919050565b6000602082019050919050565b6000602082019050919050565b600082825260208201905092915050565b600081905092915050565b600082825260208201905092915050565b600082825260208201905092915050565b600082825260208201905092915050565b600082825260208201905092915050565b600081905092915050565b6000612500826125e3565b915061250b836125e3565b9250827fffffffffffffffffffffffffffffffffffffffffffffffffffffffffffffffff038211156125405761253f6126db565b5b828201905092915050565b6000612556826125e3565b9150612561836125e3565b9250826125715761257061270a565b5b828204905092915050565b60006125878261259a565b9050919050565b60008115159050919050565b600073ffffffffffffffffffffffffffffffffffffffff82169050919050565b60007cffffffffffffffffffffffffffffffffffffffffffffffffffffffffff82169050919050565b6000819050919050565b82818337600083830152505050565b60005b8381101561261a5780820151818401526020810190506125ff565b83811115612629576000848401525b50505050565b6000600282049050600182168061264757607f821691505b6020821081141561265b5761265a612739565b5b50919050565b61266a82612797565b810181811067ffffffffffffffff8211171561268957612688612768565b5b80604052505050565b600061269d826125e3565b91507fffffffffffffffffffffffffffffffffffffffffffffffffffffffffffffffff8214156126d0576126cf6126db565b5b600182019050919050565b7f4e487b7100000000000000000000000000000000000000000000000000000000600052601160045260246000fd5b7f4e487b7100000000000000000000000000000000000000000000000000000000600052601260045260246000fd5b7f4e487b7100000000000000000000000000000000000000000000000000000000600052602260045260246000fd5b7f4e487b7100000000000000000000000000000000000000000000000000000000600052604160045260246000fd5b6000601f19601f8301169050919050565b7f5375626d697373696f6e20697320696e636f7272656374000000000000000000600082015250565b7f4f776e61626c653a206e6577206f776e657220697320746865207a65726f206160008201527f6464726573730000000000000000000000000000000000000000000000000000602082015250565b7f6d75737420686176652073656d6170686f726500000000000000000000000000600082015250565b7f5061727469636970616e742063616e206f6e6c7920696e73657274206964656e60008201527f74697479206f6e63650000000000000000000000000000000000000000000000602082015250565b7f4f6e6c79207061727469636970616e74732063616e20696e736572742069646560008201527f6e74697479000000000000000000000000000000000000000000000000000000602082015250565b7f4f776e61626c653a2063616c6c6572206973206e6f7420746865206f776e6572600082015250565b6129198161257c565b811461292457600080fd5b50565b612930816125e3565b811461293b57600080fd5b5056fe5375727665793a65787465726e616c206e756c6c696669657220696e207570646174652073757276657920726573756c743a205375727665793a416464696e672065787465726e616c206e756c6c69666965723a20446f206e6f74206e65656420746f20757064617465207375727665792073636f7265a2646970667358221220ce0151f4f0536c688b01edd6f224af7ae76195607e2cd0184c21cba51a4150d864736f6c63430008040033456e746572696e6720636f6e7374727563746f7220666f72207375727665792e2e2e",
  "linkReferences": {},
  "deployedLinkReferences": {}
}